:020000040800F2
:1000000000500020797F010815800108D5040108FF
:100010001580010815800108158001080000000006
:100020000000000000000000000000001580010832
:100030001580010800000000158001086FA300086A
:100040001580010815800108158001081580010838
:100050001580010815800108BFA60008C9A6000880
:10006000C7A60008C5A60008C3A60008E903010842
:10007000D9030108C9030108B9030108A90301084C
:100080009503010881030108158001081580010806
:10009000158001081580010815800108C1A6000817
:1000A00015800108590E010815800108490E010844
:1000B000390E0108290E0108190E0108FDF2000889
:1000C00001F30008F5F20008F9F2000815800108B4
:1000D00015800108ADA30008A1A300081580010840
:1000E000BDA6000815800108158001080000000069
:1000F0000000000000000000000000000000000000
:0C01000000000000000000005FF808F1A3
:100110002DE9F04F0B4B0C4D0C4AC5F8B8340023B9
:1001200010680B49A1B08842C5F8BC3416D11360E1
:1001300062B6084B18680FF065FB074B1B689847C1
:10014000FEE700BF1D7F000854060020F04F00208E
:10015000EFBEADDE00F0FF1F04F0FF1F0A930B930C
:100160000C934FF4E013BB4C0D93236843F480339E
:100170002360A36943F01003A361236803F40033F1
:100180000B930A9B01330A930B9B1BB90A9BB3F594
:10019000A06FF2D1236813F4003300F09A82022397
:1001A0000C93AD4BAD4F1A6842F010021A601A68FA
:1001B00022F003021A601A6842F002021A606368B1
:1001C000636063686360636843F480636360A44B47
:1001D0001A68043B22F070425A60A24A3A60626890
:1001E00022F47C1262605A6842F000425A60DA6877
:1001F00022F40042DA609B681E0449BF9A4B4FF418
:10020000E0133B604FF480130D930C9B012B00F027
:100210007882022B05D10D9B6268134343F480332F
:100220006360236843F08073236023689801FCD5E2
:10023000636823F003036360636843F00203636051
:10024000636803F00C03082BFAD16368DFF86C8253
:1002500003F00C03042B00F05882082B00F05782A7
:10026000804BC8F800306368DFF85492C3F303137F
:1002700019F80320D8F80030DFF848B2D340C8F8A6
:1002800000307A4B4FF6FF72CBF80C30A3690DF1BA
:10029000800A43F00103A361636A636A744E43F00A
:1002A00080736362A369304643F01C03A36100239B
:1002B00015932AF82C2D514613F0D0FF51466D4866
:1002C00013F0CCFF51466C4813F0C8FF02214FF4E5
:1002D00000728DF846101021ADF844208DF84710BB
:1002E0003046326111A913F0B9FF644950464A689B
:1002F00042F000724A600FF06FF9159B604A304679
:10030000B3FBF2F34FF47A72C5F8C034D8F800307A
:100310004FF0010CB3FBF2F35A4A013B5360F02358
:100320008BF82330002393600723DFF89CE11360F0
:10033000554A09F10E01002331F8026F46FA03F81D
:1003400018F0010F18BF0CFA03F803F101031EBFE8
:100350001060A2F804800832102BEFD100F5806005
:100360007045E8D13B683F4A934240F0E281012367
:1003700085F8C43407F062FF18B910F015FC10F0CE
:10038000F7F810F033FA05224049414819F09AFA7B
:1003900018B110F009FC10F0EBF895F8C5343D4F9A
:1003A00043F0010385F8C5343B4B07F1050A9A7801
:1003B0003A4B1A703A4B3B4A1B689046136095F8CB
:1003C000CA3485F8C6340023D85D4FEA830B5E1C1F
:1003D000002800F0B48103930AF06CF8039B4AF8FC
:1003E000230010B10523C671837112215AF80B0046
:1003F0000AF086F8032E3346E6D1002108460AF0BB
:10040000F3F8002101200AF0EFF8002102200AF0A1
:10041000EBF8012102200AF0E7F8A369002143F07C
:100420000103A3614022204819F009FA4FF0FF337D
:100430001E4AC5F818356420C2F8033009F08DFF54
:10044000A02200211A4819F0FAF90024194D1A4E79
:100450003CE000BF0010024000200240EC00002001
:100460000410014000127A00001BB7000005FA05D5
:1004700000080140000C0140001001400000014054
:1004800040420F0010E000E0AC18002024B9010841
:100490004D1800201B0B00204818002028180020B1
:1004A000DC1A0020E82B00202C0B00206C0B002015
:1004B0003C3B00202CB80108B09901082400002022
:1004C0009899010800ED00E00014014000236059F4
:1004D00056F83310DA00884240F0348109EB020309
:1004E000187F103413F0CAFBE02CEFD1AB4AAC4CB0
:1004F0000021A4469146AB4E00250B5D01F10F0093
:10050000204406EB030A10F801EFBEF1000F05D0FE
:100510009AF80C70774508BF82F8587090F803E09D
:10052000BEF1000F04D0F75C774508BF82F8597020
:100530000135032DE7D1B2F8580040B10CEB0100B2
:1005400009EB83035065C3F8202502F517721C31AF
:100550003829D1D10424914F202200219248D8F883
:10056000005087F82C4519F06AF900208D4B02469F
:1005700093F80BE093F80AC04FF0FF092346039766
:1005800089498A4F05F04006D4571E2C8C7140F0E3
:10059000DF80002E00F0E480BCF1000F00F0E0806E
:1005A0000132042A01F10801EED110B1039A82F858
:1005B0002C357F4B15F4805F93F800A07D4BDFF85E
:1005C000449283F800A07C4F7C4C7D4E00F0CE809E
:1005D000B88817F083F87B4BC9F800002360708A55
:1005E00017F07CF8784B794C1860788817F076F81B
:1005F000774B00251860388817F070F8754B186035
:10060000608BC0F5FA6017F06DF8734B248B18609F
:10061000FB88724AE01A1C44714BA4B280B210806D
:100620001C80A0F57A7017F05DF86E4B1860C4F569
:10063000FA6017F057F86C4B6C4C1860AAF117036E
:10064000022B257000F2E2804FF0000BDFF8B8A11A
:1006500005EB0A03594655F80A00049317F02AFAE5
:10066000049B002800F08C80D8F8003013F4805AE6
:1006700040F0ED800023D9F800105D4A42F82310C5
:100680000133082BFAD1B6F81480BAF1000F01D06B
:10069000B7F80480B378042B05D14FF4805007F0ED
:1006A000C5FD4FF000082378C02200215148069371
:1006B00019F0C5F83779B378003718BF0127042B34
:1006C00000F2EA80DFE813F02606E8002806F400CE
:1006D0001F06226842F0010222600A93236803F099
:1006E00002030B930A9B01330A930B9B1BB90A9BD2
:1006F000B3F5A06FF2D123689F0701D501234FE521
:10070000FEE7636843F460138AE53B68A9E5636824
:100710006268C3F38343D10303F1020302D4364A70
:1007200053439EE5626812F4003F3A6818BF5208CE
:10073000F6E7324A93427FF41DAE022318E64AF8E8
:10074000230057E60133042B7FF4C2AE0020C8E635
:100750001F2C7FF425AF1EB1BEF1000F7FF420AF38
:10076000013B81F80690DBB2012019E7B08A16F050
:10077000B5FFC9F80000308A16F0B0FF20602EE700
:100780001F4A05EB020E0FCB8EE80F0023781035C1
:100790000133802D23707FF45BAF65E754060020A2
:1007A000D099010808230020C82E0020089A0108CB
:1007B00029180020A03600209C3C00209416002020
:1007C0007C16002000007A4460110020BC2B002021
:1007D0005C1100203C1100206C110020361100201B
:1007E0005811002054110020641100203016002000
:1007F0009C260020C426002000093D00001BB700F5
:10080000701100200C280020D8190020244B13F868
:100810003A2003EBCA0A082A227088BF0822DAF8B5
:1008200004C088BF2270BCF1000F3FF41DAF00254B
:10083000DFF878A023789D42BFF616AF2B0103EBBB
:100840000A0E63440FCB01358EE80F00F2E72378E0
:10085000012B7FF60FAF4FF07C58124D05EB0313C1
:1008600003F1100B1035AB453FF404AF414655F88A
:100870000C0C16F08BFF414645F80C0C55F8100C8B
:1008800016F084FF414645F8100C55F8080C16F098
:100890007DFF45F8080CE5E7034CA1460BE000BFDF
:1008A00084A00108741100206F1203397011002018
:1008B000B94CDFF83893B94AB94B21461A60B94AA6
:1008C000B94B4846002F18BF1346B84A002513609D
:1008D00016F054FE01464FF07A5017F00BF8B44969
:1008E0000590204616F052FFB24CDFF804B3079093
:1008F000069BAB4240F3708505EB0B035E7900214C
:10090000304610F06FFA0490002840F00885AA4A9B
:10091000A34B1A60A34AA54B1A60A84CA84A94F8A6
:10092000C534079243F0040384F8C534136813F008
:10093000010600F074850025FF2294F82D75A14B67
:100940002946384683F840501D605D609D60DD6338
:1009500083F8412083F8422083F8435083F84450C1
:1009600083F8455010F03EFA064690B3036891496B
:100970006A18507C18B15268934200F045851835CA
:10098000C02DF5D10025C4F83C6584F830553846B3
:1009900009F090FD10B10223C571837100252A2151
:1009A00009F0AEFD884A0021304609F0DBFB874B99
:1009B000874AC4F84035874B111F3046C4F8443588
:1009C000C4F8485509F022FC2A467179306810F0C5
:1009D00073FEB4F81E7694F81A66A4F820763046B2
:1009E000002F40F06A8509F065FD94F81B26C4F8D5
:1009F0002406003218BF012284F8282650B125228F
:100A000094F81C368271002BC7710CBF122116217D
:100A100009F076FD002009F0BBFD4FF000096E4B98
:100A20000020C4F848360FF08DFC01200FF08AFC3E
:100A30006A4B6B4803F1200853F8056C6EB313F949
:100A4000092CA11891F84C7691F84EE691F850C611
:100A500000EB0215991E11F801AFBA4591F802A0FA
:100A600008BF2F71F24591F804A008BF85F805E092
:100A7000E24508BF85F806C08B42ECD1120181180F
:100A80000D7955B14D7945B18D7935B186505A7989
:100A900081F80C90CA719A790A7210339845CBD1BB
:100AA0004F4D13F09BF913F099F9287E13F0E6F8F7
:100AB00001232A7E02F01F015209022A03FA01F3E0
:100AC00000F02885032A00F02B85287D09F0F2FC30
:100AD000064618B1122383710223C371687D09F0A1
:100AE000E9FC18B1132383710223C371A87D09F0B7
:100AF000E1FC18B1142383710223C3711B2130461A
:100B000009F0FEFC687D09F0D5FC072109F0F8FC2E
:100B1000A87D09F0CFFC1B2109F0F2FC2A69314BBA
:100B20009A4240F0038503F56043D96841F480514F
:100B3000D960D96821F48051D9602B7F002B00F057
:100B4000128500231846118801F4415141F4457182
:100B50000B4303431380938B23F400631B041B0C90
:100B600093830723138213889BB243F040031380BF
:100B700094F8C434032B40D11F2008F0FAF9002365
:100B8000194A02EBC30191F90210022901F09C837A
:100B90000133042BF5D12DE0ACC5A737B9670108A7
:100BA0004829002039670108E56701084C29002021
:100BB0006F12833AC42600203B67010854060020C8
:100BC000E82B0020F43A002040420F00CD650108D8
:100BD000980B00200967010808230020159A0108D6
:100BE0004415002000300140A22E0020ACC5A736DD
:100BF0007C160020022008F0BCF907F0C3F90120A0
:100C00000EF074F92C2009F055FC039BC3F8540630
:100C10009F238DF84430002332208DF845308DF825
:100C200046308DF8473009F098FB039BD3F8540603
:100C300009F088FC15AA042311A9BC4809F066FD37
:100C4000039BD3F8540609F082FC9DF856309DF8BA
:100C500055201B0243EA02439DF857201343B44A30
:100C6000934223D0322009F078FB039BD3F854063B
:100C700009F068FCF521AD4807F068F9FF21AB48A1
:100C800007F064F9039B8DF85400D3F8540609F07B
:100C90005EFC9DF85430702B08D1039B93F8C4344C
:100CA000022B03D10323039A82F8C434A14B5F794A
:100CB0009E797D1E6A4206F1FF3E6A41DEF1000325
:100CC00043EB0E0384F85C36079B84F858261D68B6
:100CD0002B0400F14C8415F0007505D0964BDD7A9D
:100CE000A5F108004542454114220021934884F8AB
:100CF0005A5618F0A4FD012F04BF94F8593684F811
:100D000060361DB194F85B3684F86F3694F85E3621
:100D10001BB194F85F3684F86A36012E08BF94F848
:100D20005D36864D08BF84F8653600232E464FF0A9
:100D3000070B1F469946DFF8248208F1940A3078A1
:100D4000E8B109F0B7FB18B180F806B080F8079059
:100D5000002109F0D5FB002331781AF813005A005E
:100D6000884240F0078408EB020393F895307370D3
:100D70000723337101237A1CB770F370D7B20BF1DC
:100D8000010B5FFA8BFBBBF10B0F06F10506D6D109
:100D9000002B00F0BB806A4E4920736843F4404347
:100DA000736012F06BFF674A674900234FF01C0E17
:100DB000104688460EFB032CDCF804C08C4540F03E
:100DC000E083DBB21C2101FB0303726919694FF058
:100DD00000090A437261062283F819901A765A486C
:100DE0000EF071FC15A80EF043FC584B022F159322
:100DF00034BF4B4680231A934FF480731B934FF4F8
:100E000080631C9320231D934FF40053504E15A96B
:100E10004D4818971E931696CDF85C90CDF86490C7
:100E2000CDF87C900EF031FC012F94BF00220122FE
:100E3000D8F80030474943F00103C8F800304B6848
:100E40004FF0070E23F4702323F4807343EA022348
:100E50004B608A68404B134043F4602343F0020325
:100E60008B60CA6A7B1E22F47002DBB242EA035333
:100E7000CB621F270123EA784AB395F80180581CFA
:100E8000B8F1090FC0B295F804C040F28083A8F110
:100E90000A02D1F80C9002EB42020EFA02FA29EA99
:100EA0000A090CFA02F242EA0902CA60062B00F2B1
:100EB0007B8303F1FF3C4A6B0CEB8C0C07FA0CF3C1
:100EC00022EA030308FA0CF21A434A630346053583
:100ED000AE42D0D11F4B9A6842F480729A609A68F1
:100EE00042F001029A609A6842F008029A609A6899
:100EF0001107FCD49A6842F004029A60154B9A6874
:100F00005207FCD49A6842F4A0029A60D4F87C0696
:100F1000002841F03582D4F88036002B41F0308231
:100F2000D4F88436002B41F02B8219E000380040C1
:100F3000152020002C1D0020BC2B0020B40C00200C
:100F40000010024028000020080002404C2401400C
:100F5000C80C002000240140FDF7F1FF989901081A
:100F60000AF0D2FA30B90120022109F07BFB0120FE
:100F700008F0F6FF94F8C53443F0020384F8C53452
:100F80000FF0A2FBB24B186814F016FEB14B1A8892
:100F9000B14B1A80B14B5A6B99460AB10AF038FF2F
:100FA000AF4BB0491B78B04CD80001444A78AF49E8
:100FB0002260079A1268114009B1012222600021C3
:100FC00040F2DC55AA4A22F8115001310829FAD121
:100FD0002268002A40F0058303F0EF02082AA54AA0
:100FE00040F044831178182B41F01001117001D1A9
:100FF00014F0BAFD2368A04D002B40F04083AB896C
:10100000002B40F076830121084609F0EDFA00211B
:10101000084609F0E9FA0021022009F0E5FA0A245D
:10102000964D012009F038FA002009F035FA192010
:1010300009F093F92B68DF0302D4012009F0A8FA24
:10104000192009F08AF9002009F0A2FA013CE8D140
:101050002146204609F0C8FA2146012009F0C4FAC9
:10106000874B884D587A16F03DFB874916F08EFB6A
:10107000864916F083FA07F04BFC854B15AF1860D4
:10108000B9F8140016F02EFB0146824816F032FC27
:10109000C5F8880612F08BF90123159310237E4AB8
:1010A00016931368904613F4800F04BF7B4A159281
:1010B000DE005EBF159A42F010021592784A116860
:1010C000880748BF159A774844BF42F0C602159278
:1010D0004A0748BF159A039044BF42F00802159290
:1010E000159A42F000611591017801F0EF06082E83
:1010F00001D00E2904D142F0006242F480521592D0
:10110000159ADE0354BF42F4005242F42042159275
:10111000159AD80443BF42F064421592502242F01F
:1011200044424CBF169215929A0642BF159A42F459
:10113000807215925E0742BF159A42F400321592F2
:10114000159A42F400201590580505D5564B1B7989
:1011500013B142F4C01215924FF00109182902BFD1
:10116000159B43F06073159321463846E6B20CF0A8
:10117000B1F870B1304615F00EFD50B9620957F85C
:10118000223006F01F0609FA06F623EA060647F89B
:1011900022600134272CE7D1DFF82CA197E8030067
:1011A0004FF419728AE8030000210AF1080018F0D0
:1011B00046FB08F0FDF80022DFF810E13B4BF44657
:1011C0001A809A703A493B4B3B4E3C4C3C48196064
:1011D000DFF8FC90338BDFF8FCB0C4F80490A0601B
:1011E00085F8F82819B204900AF51C7ADBF800009B
:1011F0002EF8121000F596704AF822000132122AD9
:10120000F4D1D8F80000C20458BFB6F92410ACF8E5
:1012100006102C49DFF8B4C001F1500E0A78002AFC
:101220005AD18A7891F803A0524555D2002A00F08D
:101230007082013A02EB820202EB820202F56172D5
:1012400091F801A092B20AF1040A2CF81A2043E0A6
:1012500024180020C2140020D41400204C1D0020AB
:10126000A036002084A00108F0110020200010000A
:1012700054160020BD14002034370020EC1A002042
:10128000782900205406002035FA8E3CDB0FC93F38
:1012900090290020A889803AE82B00200100001046
:1012A000B41C002029180020FA1C0020283100203E
:1012B000A08601001C250020BC2B0020AC2B0020A8
:1012C000551D0108F81A0020E00C0020F83000201D
:1012D000591D0108EC1D002004318E459ED10207E6
:1012E00040F13282307A0A2800F22782DFE810F0DB
:1012F000220222029C04DD0406055C055C05A505AE
:101300002502E80522020024A14601274FF000082B
:10131000FFF7D1BAC24CF7E7C24CFFF7BEBA30466E
:1013200009F0C8F86B1C6061DBB210B10322C37115
:1013300082711A2109F0E4F8002F52D0BBF80000A6
:1013400016F0D0F916F024FCB74B4FF6FF7A1E6862
:10135000B6FBF0F353441B0CB6FBF3F60FB1B6FB30
:10136000F0FA9BF80230042B3FD1504616F0B6F944
:10137000AB4916F00BFAA0600990304616F0AEF9B2
:10138000494616F003FA099B0890A849184616F03A
:10139000FDF9089A0146104616F0EEF89BF8033066
:1013A000E0603246019304991FFA8AF3CDF8008079
:1013B000204615F061FA002318229D49AB4219D14D
:1013C000002383F00103237401231D44082D63745B
:1013D00004F118047FF48CAA0122964B1A70FFF7CF
:1013E0009CBA059817F020F9ACE7304616F076F96C
:1013F0000799BEE702FB031046686068864201D089
:101400000133DBE70123DCE71B8D874A9BB21268BF
:101410000133B2FBF3F3884A1370FFF7B3BA9A04AF
:101420007FF5D7AA94F81826844B04F5A8651A709E
:1014300004F5C26816F80890002148460FF0D2FC67
:10144000074698B300224FF0010A5FFA86FB05F8C1
:101450000FBC45F8040C05F80E2C05F80D2C05F80A
:1014600010AC484609F026F8D3445FFA8BFB18B15C
:1014700080F806A080F807B04FF0000B2A2109F091
:101480003FF86F4A0021384608F06CFE6D4B2A1D6C
:101490002B606D4B294638466B60C5F808B008F0E4
:1014A000B5FE5A467979386810F006F90136082EEB
:1014B00005F11C05BED1FFF78CBA08F0FBFF4021F7
:1014C000C4F84006054630460FF08CFC0646CDB108
:1014D000C0B12523AB7101231A21EB71284609F015
:1014E0000FF80021A4F8447601915849544A91FB21
:1014F000F7F192FBF7F389B200919BB23146544861
:1015000015F0BAF90023D4F82C26138084F83D3660
:10151000FFF783BA4F4AD1680B43D360FFF7D5BAC0
:101520004C4A11690B431361FFF7CFBA4A4B9A42F9
:101530000BD103F5EC33196941F480411961196944
:1015400021F480411961FFF7F8BA444B9A427FF4C5
:10155000F4AA03F5EA33196941F4004119611969E4
:1015600021F40041EEE701230220FFF7ECBA012548
:10157000FFF7BABB01330A2B7FF4EFAB0023FFF771
:10158000F6BB0133072B7FF415AC00231AE40A697C
:1015900008EB480A0EFA0AF922EA09090CFA0AF2DB
:1015A00042EA09020A6181E40C2B0DD8DA1FD1F856
:1015B00030C002EB820207FA02F32CEA030308FAB6
:1015C00002F21A430A6381E40D3BCA6A03EB830308
:1015D00007FA03FC22EA0C0208FA03F31343CB6276
:1015E00074E41F4A1F4912F833E00244556881F839
:1015F00000E0002D3FF4F0AC00221B4E7245BFF618
:10160000EBACC2EBC2002918D1F800C0871940F832
:1016100006C088880132B8808979B971EEE700BFC9
:101620006F12833A282930382400002000007A44C1
:10163000C4260020F41100207C0400202C2300206C
:1016400040420F005D670108A565010820A1070061
:10165000800C00200010024000380040003C004098
:10166000A09F010832370020C23600200E2B3FF425
:10167000B9AC1178192B21F010011170B7E40024D6
:101680004FF0040B274EDFF8A0A005F1030818F86F
:10169000017F002F3FF4B3AC384608F00BFF013454
:1016A00003467061E4B210B180F806B0C471002145
:1016B000384603930FF096FB0746039B1A21184602
:1016C00008F01EFF002F3FF49AAC00226B880192B5
:1016D0009AFBF3F32A889BB200923046124A3946AD
:1016E00015F0CAF80123082C737406F11806CED140
:1016F00085E400240D4F0E4EA88915F0EFFF3A68DF
:1017000001463019243407F01BFAB4F5907FF3D169
:1017100079E40AF1010A0AEB8A0A0AEB8A0A0AF555
:1017200061728DE5DC3B002040420F000C18002068
:101730004437002012F061FB30B9082006F076FD36
:10174000049BC4F80490A360D8F8002053040BD580
:101750001223237044F620636380C24BC249636046
:10176000C24BA360C24B196042F201031A4209D076
:1017700044F620639004638040F1CC8308232370F7
:10178000BC4B636096F82830217804338B42A8BFA5
:101790000B464FF0000AB84C85F84439D30384F85F
:1017A00000A040F1528113F091FB01232370B34B51
:1017B00040F22A3293F8F1B05146B14818F03FF8A0
:1017C000BBF1000F00F03481514658460FF00AFB80
:1017D000AC4B026804461A6082689946002A00F001
:1017E0002781584608F066FEC5F8480918B1292334
:1017F00080F807A083711B2108F082FE0023A24A13
:10180000D9F8001002F1180E5EF833004FEAC30C4D
:10181000814240F086836244107F12F02FFAD9F89B
:1018200000009A4A03884FF0000A23F001031B04CA
:101830001B0C0380964BDFF87CE21B68ADF83EA0E2
:10184000934281BF03F1B772924902F55852B2FB3D
:10185000F1F292BF002202F1FF3292B2511CB3FBAF
:10186000F1F38D49ADF83AA0B3FBF1F303219BB23C
:10187000B3FBF1F14FEA410CAEF800C0DFF838E2FB
:101880008DF840A0AEF8001020A921F8482DADF841
:101890003C3012F05CFA6023ADF846A0ADF848A0E9
:1018A000ADF84AA0ADF84CA0ADF850A0ADF84EA0F0
:1018B000ADF852A0ADF84430E3794FF0000B580773
:1018C00057BF0122042303F00203ADF846204EBFA8
:1018D000ADF848304FF48072ADF84C304FF0000353
:1018E00058BFADF85020ADF84A3011AA6179D9F847
:1018F00000000FF083F96179D9F8000012F0FAF9CD
:10190000D9F800206548B2F84430DFF8B0A16FEA9A
:1019100043436FEA53439BB2A2F8443013889BB20F
:1019200043F080031380E379617913F0040F14BF4F
:10193000042301238B40118C9BB289B221EA03015D
:101940001184118C89B20B43138413889BB243F02A
:10195000010313801C22217B514B02FB013143699F
:101960000A6913434361292381F819B00B7643694F
:101970001A4342614B4AC1F814B08A604A7B15A8E9
:101980008DF8542001228DF856B08DF855208DF831
:10199000572012F091F9A068CAF800000DF093FEEC
:1019A000DAF80000026822F001021204120C026050
:1019B0000DF089FE15A80DF05BFED9F800206179C5
:1019C00034320A44159240F22A32189280221A9236
:1019D0002B4A15A91692102217924FF400721B92EF
:1019E0004FF40052DAF80000CDF864B0CDF870B0D2
:1019F0001E92CDF87CB0CDF874B00DF046FE627941
:101A0000D9F800100C2A8EBF5B461F4B03EB420B2C
:101A10008A8998BFBBF8A83092B21343DAF8002045
:101A20008B81136843F00203136001221E4B1A706E
:101A30000023FF211C461D481A181C520433802B1A
:101A40009170D170F8D113F0B1FAD8F8003059057F
:101A50006ED5042007F08AFC154B0421186007F0AE
:101A60007BFC2DE0D11D0108400D0300B91D0108CC
:101A70001C250020A91D0108D6300020502F002071
:101A80006C3200209C35002098990108FF6BDC0225
:101A900024000020006CDC0200350C000010024025
:101AA000280000203FFD000896350020443000202B
:101AB000D81D00206A3200206832002098350020AE
:101AC000A04B1870082007F051FC9F4B08211860AC
:101AD00007F042FC9D4B2C22187000219C4817F007
:101AE000AEFE7C2385F84C398E2385F84D39E023F2
:101AF00085F84F397D23202085F8773907F036FCAB
:101B0000944B2021186007F027FC934B18704FF47A
:101B1000805007F02BFC914B4FF48051186007F078
:101B20001BFC00228E4B18708E4B1A700DF0C6FFF6
:101B30008D4C2288002A40F060828C4B95F88809F1
:101B4000C5F87839022385F87C3995F88939013B45
:101B50005BB2012BDEBF864A1B01D258C5F8802933
:101B6000002800F04A8208F0A5FCC5F8840918B1E5
:101B70001A2383710023C371132108F0C1FCD5F827
:101B80007839986808F0E3FC00BFD5F8783902216D
:101B9000586808F09AFD4FF000089F2332208DF816
:101BA00044308DF845808DF846808DF8478008F0E8
:101BB000D4FB8DF8558000BFD5F87839986808F0C7
:101BC000C1FCD5F878093A4611A90423406808F009
:101BD0009DFDD5F87839986808F0B9FC00BF9DF8EC
:101BE00056309DF855201B0243EA02439DF85720CA
:101BF0001343604A934200F0B88100F3A181A2F53B
:101C00002102A2F5CC42934200F0AF8100F38F8114
:101C1000A2F51A42023A934200F0A28100232380E7
:101C2000A3816360A360E8E10A221B0193FBF2F346
:101C300000225149A3F5B06341F822300132122A43
:101C4000FAD142F6F82363804C4B402063604C4B42
:101C50002270A36007F08AFB824600283FF46DAD36
:101C60000DF014FF737AB17A00280CBF0122032211
:101C7000002B14BF0623072300290CBF00210821D5
:101C80009AF902E082460B438DE80C003D4B3E4A38
:101C90004021704607F0B6F9BAF1000F01D03B4B76
:101CA0001860003018BF012046E51023237042F66B
:101CB000F8236380364B40206360364BA36007F007
:101CC00055FB824600283FF438AD0DF0DFFEB37AB5
:101CD00000280CBF01220322002B0CBF0023082385
:101CE000717A9AF902E0002918BF43F00103824695
:101CF0008DE80C004FF4E133274AC9E7082323702D
:101D000042F6F8236380254B40206360244BA36098
:101D100007F02CFB824600283FF40FAD0DF0B6FE15
:101D2000737A00280CBF01220322003318BF01235D
:101D30009AF902E08DE80C0082464FF4E133194A2B
:101D4000A6E700BFDC1D0020CC1D0020DD1D00200B
:101D5000A00F0020E41D0020DF1D0020F41D002046
:101D6000F01D0020F11D002068040020D00F00208D
:101D7000441500201720C2002C240020ED18010873
:101D800009190108A0860100C5200108F42B0020D4
:101D90002518010839180108111F01089D170108AD
:101DA000B5170108C91E010800234FF00C0E704A38
:101DB00070491370704A062884F800E00B701370A5
:101DC00030D01B226D4B4FF4E13B1A7005226C4B57
:101DD00083F800E06B4B1A7042F6F82363806A4B7D
:101DE00040206360694BA36007F0C0FA8246002878
:101DF0003FF4A3AC0DF04AFEB37A00280CBF0122D9
:101E00000322002B0CBF00230823717A9AF902E009
:101E1000002918BF43F0010382468DE80C005B46A1
:101E20005B4A35E72122554BDFF8B0B11A70544BAD
:101E300083F800E0534B1870CEE74FF0000B554B82
:101E4000402083F800B00E23237044F620636380A3
:101E5000514B6360514BA36007F088FA00283FF4B0
:101E60006CACB0F800A04E4B0AF4825A83F800B074
:101E7000737ABAF5825FB27A14BF01210321B3EB02
:101E80000B0390F9020018BF0123BAB9BAF5825FBB
:101E900014BF5A46082213438DE80A00414A4FF402
:101EA000E133402107F0AEF8BAF5825F7FF4F9AE76
:101EB00000223D4B18603D4B1A70F2E60822EAE71B
:101EC0000A221B0193FBF2F300223949A3F5B06308
:101ED00041F822300132102AFAD141F60B236380F7
:101EE000344B40206360344B2270A36007F03EFA0D
:101EF00000283FF422AC737A90F90200003318BF37
:101F00000123019303232D4A009340212C4B07F01A
:101F100079F8C6E6D1077FF535AC0C232370294B41
:101F20002FE40133042B7FF46FAC002075E4264AC4
:101F3000934255D0254A93427FF470AE402310E07F
:101F4000234A934211D006DC224A93427FF466AEC4
:101F50004FF4007305E0204A934241D00132F4E788
:101F6000202323804FF480733DE08023F9E700BFF6
:101F7000A5250020B4140020A4250020542300200F
:101F800078230020A6250020E1B30008F5B300085F
:101F9000F11D0108EF250020E11D0108552201086F
:101FA000ED2500207D210108C41D0020A01D00207A
:101FB00090240020891A01080D1B0108192101082D
:101FC000A0680600991D010818BA20001620C2005A
:101FD0001740EF001920C2001840EF0090D0030016
:101FE0004FF480732380A381638822881B0263607F
:101FF0005343A360012385F88A39A568B5B14FF032
:102000000008ED0A0DF15409A8450ADA08EB0504A9
:10201000641010223946E0020BF020FB0F2800F379
:1020200034810BF0BFFAAE4BED021D600023AD4AC8
:10203000AD4D1360AD4AAE4C1380AE4A1380AE4A2C
:102040001380AE4A13602A681F2A40F028814FF49B
:102050008063AB4A23801188AA48002940F0288178
:1020600001809278A84B02B101221A70B4F90030B5
:10207000A64A1B021360039BA5481B78A54C052BA1
:1020800002BF4FF4C872A44B1A8009F01DFEC8228B
:10209000A24B00211A80A24AA4F88C191378A4F844
:1020A0008E1943F00803137004239E4A84F88B3979
:1020B00013709D4A9D4B1170642219705A705960BB
:1020C0009B4B198059809B4B5A799846012A0BD11A
:1020D000282204F5196017F0B2FB4CF250329649F1
:1020E00004F6941006F02CFD0021944B84F8B819E6
:1020F00019605960996098F80630012B09D11022B7
:102100008F4817F09CFB4CF250328E498E4806F0F7
:1021100017FD8E4B8E4F1B688E4A3B608E4B4FF0E7
:1021200001091B6880209B1A18BF01238B4A13707A
:1021300007F016FF00214022894884F8F09917F033
:102140007EFB0023874A8848C4F8F439136006F000
:102150007BFE4946052006F0AFFE98F805A0072053
:102160001AF1000118BF012106F0A6FE98F80690AA
:10217000082019F1000118BF012106F09DFE98F812
:102180000A30002B40F0878198F80B30002B40F08C
:1021900082813968C1F38041BAF1000F03D1B9F1EE
:1021A000000F00D14946092006F086FE6F4BDFF88C
:1021B000B8811A68994612F0010F09D02B680121E5
:1021C000642BB8BF64230846C8F8443006F074FE98
:1021D000D9F800309A070AD50121022006F06CFEDA
:1021E000634B5B6B642BB8BF6423C8F87830D9F8B5
:1021F00000100320C1F3400106F05EFE5D4B01219B
:102200001A8C5D4B042093FBF2F3642BB8BF64235C
:10221000C8F8143106F050FE584B0620197806F025
:102220004BFE01210A2006F047FED9F800100B20D2
:10223000C1F3800106F040FED9F800300C2013F005
:10224000140F14BF0121002106F036FE39680D205D
:10225000C1F3802106F030FE39684B0507D5337A8B
:10226000083B012B9CBF4FF4FA63C8F8B432C1F3AA
:1022700000410E2006F020FE94F8C53463F07F0381
:1022800084F8C53421B0BDE8F08F002359F823202D
:10229000013220D10133042BF8D12546B4E63F2A80
:1022A00016BF4FF4FA434FF40073B3FBF2F3D0E6DA
:1022B000B4F90030994204DD1F2B02DD01230380B5
:1022C000CFE693FBF1F3FAE732F83330002B7EF4DC
:1022D00099ACFEF78FBC04F101082C46DDE700BF86
:1022E000B43500206C160020902E002070160020BF
:1022F0006416002072160020741600206816002054
:10230000A435002066160020761600204418002010
:10231000C02C002054060020381E0020361E00204D
:10232000BD14002023310020181D0020FC110020C6
:10233000F41C00202C1D0020CDCCCC3D3C1D0020E9
:1023400010100020CDCCCC3E20100020DC1A002044
:10235000E82B00203B67010848290020F4110020E9
:102360005818002054180020F0000020B41C002051
:102370004C1D0020A22E002040420F00F92B00200F
:102380000022464B00B21A7015F0ACF9444915F022
:10239000FDF90746B4F9800615F0A4F9404915F097
:1023A000F5F90646B4F9840615F09CF93C4915F098
:1023B000EDF93C490546384615F0E0F806F0A8FA74
:1023C0008146384606F0A4FA36490746304615F0ED
:1023D000D5F806F09DFA8046304606F099FA314964
:1023E0000646284615F0CAF806F092FA83462846B3
:1023F00006F08EFA49468246584615F0C7F9494616
:102400000390504615F0C2F959460490384615F02D
:10241000BDF951460590384615F0B8F94146069089
:10242000584615F0B3F9204D5146286008F1004098
:1024300015F0ACF905996860AE60304615F0A6F964
:10244000049915F09BF80699E860304615F09EF95E
:102450000146039815F090F84146286107F10040C5
:1024600015F094F903996861304615F08FF901462B
:10247000069815F081F80499A861304615F086F9A0
:10248000059915F07BF84946E861404615F07EF95C
:102490002862FEF765BD01217EE600BF2200002014
:1024A00035FA8E3CDB0FC93F941500202DE9F04F23
:1024B000B64A97B013780192002B00F0B780B44B66
:1024C000186800286DD005F0E6FDDFF8F8A2B14DE0
:1024D000DAF8000007F0BBFF002862D0DAF800004D
:1024E00007F0B2FF0928AC4C01D03F2850D14FF083
:1024F0000008C14646462768DFF8ACB208EB0B037C
:1025000047B13A4658F80B102846009317F0DAF90D
:10251000009B08B976B3994608F10808B8F58C7F96
:10252000ECD196B1D6F800E0D9F800C023681EF8C7
:1025300003001CF80310814207D15A1CE9B97D2B16
:102540001BD820202260E854A95423680BB14E45C3
:1025500008D0924814F015FA4E4511D9904814F05D
:1025600010FA002723689F42B2D2E85D08F04EFCC3
:102570000137F7E71E469946CEE7E8542260D5E7D3
:1025800056F8080B14F0FDF9092008F03FFCE3E7CA
:102590002368002B41F0AF82042805D17D4810F05C
:1025A000FCF917B0BDE8F08F0C2841F0C7827D48D8
:1025B00014F0E7F97A4814F0E4F989E701220B46B0
:1025C00001F0ABBA591E685C2028F7D002B1236035
:1025D0000026754FEE54F159284606EB070810F017
:1025E0001FFC38B90836B6F58C7FF4D16F4814F06B
:1025F000C8F905E06E4B9845F8D2D8F804309847F2
:10260000002301F08EBA7F2B3FF662AFA0F12002CB
:10261000D2B25E2A3FF65CAF13B920283FF458AF20
:102620005A1C2260E85408F0F1FB51E79846614FCC
:10263000614D3A7802F00102009255F80A3C002BF5
:1026400041F0E58108F10108B8F1030F05F1CC056F
:10265000F3D1A6E7012B05D14D280CBF022300239F
:1026600001F0EBB9022B57D100233C2805F8023CBE
:102670004DD03E284AD015F802ECBEF1060F41F0CD
:10268000C78115F8014C002C41F0A0814FF00109E1
:102690004A4B05AE0FCB86E80F0015F8053C15F840
:1026A00003AC2B440A93BAF1440F0FFA8AF309954D
:1026B000ADF82C30ADF82E408DF83090ADF81C30D0
:1026C00001F0748100F21181BAF1050F00F053821C
:1026D00000F2C980BAF1020F00F0938100F2AB80E2
:1026E000CA4500F083813146504603F0C1FD0446DF
:1026F000002840F07981BAF1740F00F0C882BAF175
:10270000770F00F055836FF00109CEE2012305F841
:10271000013C032301F091B9032B0BD10023C02806
:102720009FBF05F8063C05F8050C05F8040C0423CA
:1027300001F083B9042B09D115F8043C05F8030C0A
:102740005E4005F8046C052301F077B9052B92D1A2
:1027500015F8061C15F8053C15F8042C8B420CD90D
:102760004B1C05F8063CCC23424005F8042C144AC7
:1027700003FB08230B4498727DE7824202D10623B3
:1027800001F05BB9002301F058B900BF0828002010
:10279000BC260020842700200428002029B9010835
:1027A0002EB9010833B9010868B601083EB901081D
:1027B00080B70108481D0020F20C00205C9A010837
:1027C000E80C0020C0260020009B002B41F0208157
:1027D000232824D10123019955F80A2C0B708C4B26
:1027E0008C491A608C4B8D481A609A609DF80020C5
:1027F00059605A7340221A73894A04331360894B13
:10280000894ADB78003318BF0123137014F0E8F80D
:10281000864814F0B6F84FF4805007F0A1FB844BC3
:1028200093F82230B3427FF426AF824B824A1A607B
:10283000824BDC601FE7BAF1030F00F01B81BAF195
:10284000040F7FF450AF002404227D49304605F088
:1028500065FE7C4B3046197805F07EFE059B5A1CC0
:1028600005921C70CAE0BAF1240F00F0C2811FD893
:10287000BAF1200F7FF437AFDFF8E0A1724B9AF87E
:102880000120D91C1A709AF8002005915A709AF804
:102890000220BAF808109A70304605F05DFE059BDC
:1028A0009AF80520591C05911A709AF8062083E0C1
:1028B000BAF1280F00F0CF81BAF1380F7FF413AFCF
:1028C0000522614B4FF001095A700A2200249A70C8
:1028D0005E4A83F800901178DC7019715178927813
:1028E0005971D91D05919A71CBE0BAF1810F00F0B1
:1028F000848130D8BAF1540F00F0C28108D8BAF1FF
:10290000520F7FF4F0AE504B5A1C05921C70B8E089
:10291000BAF16E0F00F03C81BAF1800F7FF4E3AEA4
:1029200000210A264A4B4B4C1B780B3BDBB29942E9
:102930005ADA22880598FF2AA8BFFF2200F1010E6B
:10294000CDF814E006700598013100F1010ECDF8C4
:1029500014E00270EBE7BAF1A00F00F03A8130D832
:10296000BAF1820F7FF4BFAE3B4B30461A78364B3C
:10297000DFF8F8A0591C1A70384B0591198905F039
:10298000EBFD374B059A1B88511CFF2BA8BFFF237B
:1029900005911370DAF80810304681F3100189B2FE
:1029A00005F0DAFDDAF80010304601F30F0189B2C4
:1029B00005F0D2FD2B4B1A78059B591C05911A7016
:1029C0005FE0BAF1B80F00F01681BAF1FE0F7FF4A4
:1029D0008AAE0024DFF8989039F81410304601349C
:1029E00005F0BAFD042CF7D1002407E0164BDA1CE1
:1029F000059225221C7083F801A09A704FF00109FE
:102A00003FE004221849304605F088FD39E000BF58
:102A1000C026002097A400087C1000205EB90108A1
:102A2000BC26002048180020441000202EB90108C0
:102A3000A22E0020F04F0020EFBEADDE00ED00E042
:102A40004D180020180B0020C83C002098120020D0
:102A500030160020E40F0020181D00202C1D00203F
:102A6000F41C00202331002064B901083C1D002023
:102A7000281600200222BD4B1A705A70DA1C0592EB
:102A80009C70ADF81E90B9F1000F66D0059B55F80B
:102A90000A0C0693B54B059303681B6A03B198476C
:102AA000059B069EF61A00230E9324238DF83430DE
:102AB0004D238DF83530BDF91E30FF2E3246A8BFAC
:102AC000FF22013300F075879DF82030002B14BFE2
:102AD0003C233E23FE2ECCBF4FF007094FF00509E3
:102AE0008DF83630BDF81C308DF837208DF8383031
:102AF0004A46C8BF33120DA955F80A0CC4BF8DF859
:102B00003A308DF8396007F0A8FC0DAB99440023EA
:102B10000DF13702914540F04F87002E8DF81330AC
:102B20000EDD3246059955F80A0C07F096FC059B18
:102B30009DF813201E449E4240F043878DF81320D9
:102B400055F80A0C01220DF1130107F086FC55F827
:102B50000A0C03685B6A03B19847002305F8023C3E
:102B6000002C3FF46FAD55F80A0C06F0F7F955F854
:102B70000A0CA04766E50B227D49304605F0CEFCE5
:102B800008227C49304605F0C9FC07227A493AE719
:102B90007A4B764A1B88DFF80CA2FF2BA8BFFF23D5
:102BA000511C0591DAF80810137081F3100189B2F5
:102BB000304605F0D1FC724B3046198805F0CCFC4C
:102BC000DAF8001001F30F0189B2304605F0C4FCB9
:102BD00057E76C4B3046196805F0AAFC6A4B304643
:102BE000196805F0A5FC694B1968304605F0A0FC92
:102BF00047E7674BF8E7674BF6E74FF00A0A4FF6EF
:102C0000FF7B654B654A1B780B3B5FFA83F94C45AC
:102C1000BFF6EAAE116893685945A8BF59460598B2
:102C2000029321EAE171431C059389B280F800A068
:102C30003046039205F090FC029B30460AFB03F1FC
:102C40005945A8BF594621EAE17189B205F084FCD3
:102C50000134039ADBE70A22444BDFF84CA19A7057
:102C6000BAF800101A1D83F8009083F801E083F889
:102C700003903046059205F06FFCBAF80210A4E705
:102C80003A4A134603F8024B05935470F9E6099B40
:102C90000A9A9A420FBF21465A1C09921978404A53
:102CA000304613F08BFF4FF0010919F1020F40F08D
:102CB0000F83BAF1470F099B0A9A40F0878009A851
:102CC000A2EB030A05F004FCBAF1050F814679D99D
:102CD00009A805F013FC099B0A9A83469A4202D080
:102CE00009A805F016FC059A069BDFF8C0A09B1A00
:102CF000103BDAF808205B45CDF808B0A2EB0902DA
:102D0000B8BF1FFA83FB93454946304688BF1FFA78
:102D100082FB05F00DFC3CB95946304605F01CFC21
:102D2000059A511C05911470DAF8083009EB0B0272
:102D30009A42059E88BFA3EB090B0AF033FC5A4662
:102D4000314648460AF08AFC059B03440593002C53
:102D50003FF44AAE0022029B83427FF745AE059BBB
:102D60000130591C05911A70F5E700BFC83C0020DE
:102D700069B9010875B901087EB90108F41C002081
:102D800020310020E8F7FF1FECF7FF1FF0F7FF1FCF
:102D9000DC1A0020EC1A0020301600201010002051
:102DA000756B01083C1D00209C1200206804002067
:102DB000099B0A9A9A421DBF5A1C0992197821460A
:102DC000B84A6DE701244FF0800B8CE7BAF1290F68
:102DD000A2EB030437D0BAF1390F20D0BAF1210F9A
:102DE0004AD15A1C09921A46AF4C12F8021B16A877
:102DF000099261705A782270DA1C40F8342D9B7861
:102E0000A37005F07BFB099B20815A1C09921A468E
:102E100012F8021B617109925B78A37123E05A1CBE
:102E200009921A780A2A40F00C869A1C099259785D
:102E30009E4A1170D91C099199785170191D0991F8
:102E4000DB7893700FE05A1C16AC44F8342D1B78D5
:102E500020460A2B0AD105F051FB954E30802046C2
:102E600005F04CFB70804FF0010931E205F046FBA4
:102E7000204605F043FBF6E7BAF1610F00F011843C
:102E800000F22481BAF1370F00F0338570D8BAF11F
:102E90002B0F00F04E8420D8BAF1230F00F0668289
:102EA00006D8BAF10B0F00F06C854FF0FF390FE236
:102EB000BAF1250F00F02B84BAF1270FF5D109A83C
:102EC00005F01CFB7B4C206009A805F017FB606037
:102ED00009A805F013FBA060C5E7BAF1310F00F0B7
:102EE0002C851ED8BAF12D0F00F05684BAF12F0FA1
:102EF000DBD1714C04F1400609A805F0FFFA099BEB
:102F0000A4F880005A1C09921A4612F8021B0434D5
:102F100084F87E1009925B7884F87F30A642EBD16A
:102F2000A1E7BAF1330F00F0D184BAF1350FBCD16B
:102F30005A1C09921A780E2AB7D8991C09915C7804
:102F4000032CB2D8062151435C4842185471DC1C52
:102F500009949C784454191D0991D97851701979B4
:102F600091705979D170D91D9B79099113717AE7C4
:102F7000BAF14C0F00F0668413D8BAF13E0F00F09E
:102F8000C58104D8BAF13C0F3FF46DAF8DE7BAF1BB
:102F9000410F00F0A284BAF1480F86D10AF040FB3D
:102FA00061E7BAF15B0F00F0E68221D8BAF14E0F6B
:102FB00000F06884BAF1510F7FF477AF4049097887
:102FC00001293FF650AF591C099119463D4C11F8A3
:102FD000020BA070D81C0991121A5978012A099085
:102FE0009E7840F3878309A805F088FA20803AE7A5
:102FF000BAF15D0F00F0FD82BAF15F0F7FF455AFBB
:1030000009A805F07BFA09A805F078FA09A805F0E7
:1030100075FA09A805F07DFA099B2B4C591C0991FA
:103020001946226811F8020B82F82C000991597890
:1030300009A882F83610D91C09919B7882F837309C
:1030400005F067FA09A805F064FA09A805F061FA25
:1030500009A8266805F052FA708709A8266805F0C5
:103060004DFA099B0A9A3087D21A012A08DD591CA9
:10307000099122681B7809A882F82E3005F049FAD8
:10308000099A0A9B9B1A032B09DD09A8266805F0FB
:1030900035FA708609A8266805F030FAB0862068EF
:1030A00061E100BF696B01082C1D0020981200200F
:1030B0009C120020D00C0020502F0020981B0020D4
:1030C00076160020A435002024180020BAF1D40F71
:1030D00000F0CE8169D8BAF1CA0F00F02B8137D841
:1030E000BAF1B70F00F0BC800ED8BAF1630F7FF4CD
:1030F000DCAE5A1C09921B784FF48030002B00F094
:10310000028306F02DFFAEE6BAF1B90F00F00A8394
:10311000BAF1C80F7FF4C9AEC4F34704122C3FF6CE
:10312000C4AE00260DF13409A642C0F2D4800023BB
:10313000C04A0DA99C4240F0D5800021BD4A122B07
:1031400040F0D6804FF00109BB4B83F80090BFE000
:10315000BAF1CE0F00F0C38210D8BAF1CC0F00F054
:103160001D81BAF1CD0F7FF4A0AE3B78D9073FF5B2
:103170007AAE4FF4C872B14B1A8074E6BAF1D00F30
:1031800000F0A182BAF1D20F7FF48FAE5A1C0992DF
:10319000187806065CD43B78DC073FF564AE03285C
:1031A00028BF00200DF0CEF95DE6BAF1DC0F00F08B
:1031B000D18126D8BAF1D90F00F0A98114D8BAF17B
:1031C000D60F7FF472AE00249D4EDFF89C923378C8
:1031D0009C42BFF648AE09A805F090F914F07EFABB
:1031E00049F824000134F2E7BAF1DA0F00F09D81CA
:1031F000BAF1DB0F7FF459AE924B4E229249186818
:103200004AE0BAF1EF0F77D015D8BAF1DD0F00F030
:10321000A783BAF1DE0F7FF448AE09A805F06EF976
:103220008A4C208209A805F069F9608209A805F096
:1032300065F9A08217E6BAF1F20F00F04481BAF105
:10324000FA0F7FF432AE3B78DB073FF52EAE40E25B
:1032500000F07F00032828BF002013F06FFB02E678
:103260005A1C09921A4612F8029B0992DA1C5878E5
:1032700009929978B9F1000F11D101283FF6F3AD09
:1032800001293FF6F0AD81423FF4EDAD4E22704B87
:1032900002FB013102FB003015F0EAF8E3E5B9F179
:1032A000010F7FF4E0AD01283FF6DDAD01293FF6C7
:1032B000DAAD81423FF4D7AD0C23664A584303FB95
:1032C00001210B68841883504B6863608B68A3608E
:1032D0000024FFF7D6BB09A805F010F929F816005D
:1032E000013621E731F8130022F81300013321E7FA
:1032F00022F81310013322E709A805F0FFF8564C15
:10330000E08109A805F0FAF8A081ACE5591C099103
:103310001946524811F8024B847009915C78914229
:1033200044703FF4A0ADDA1C09929A784C4B83F8B4
:10333000542098E5434B1868034600F11E04099A8F
:103340000333511C0991114611F8026B03F8036C09
:103350000991517803F8021CD11C0991927803F865
:10336000012C9C42EBD10FF0C7FD7CE55A1C099261
:10337000197813293FF699AD9A1C09920C26002260
:103380005C78DFF8E8E006FB02E090F808C0A445AE
:1033900000F062830132272AF5D186E5092C7FF7F8
:1033A00084AD5A1C09921A462E4E12F8021B34683C
:1033B0002170099200225B78601DA370022A14BF5D
:1033C0004FF0640E4FF0FF0E099B0132591C09911A
:1033D00019787145A8BF7146032A00F8011BEDD189
:1033E0009A1C09925A7816A8642AA8BF64222272ED
:1033F000DA1C09929A78E2701A1D40F8342DDB78B5
:10340000237105F07BF80A9B099A6081991A0029BB
:1034100004DD501C0990316812784A72099A9B1A8F
:10342000002B04DD511C0991336812785A7013F097
:103430006BFB18E54225002040250020381E0020A7
:10344000301600202418002018B601087C16002031
:10345000AE2A0020A0120020C2140020C4120020B6
:103460007C100020A43C00209C260020C89D010860
:103470000D2C7FF41AAD5A1C09921C78072C3FF6CC
:1034800014AD0C2609A805F039F86643DFF804935B
:1034900009EB0604A08009A805F030F8E08009A82F
:1034A00005F02CF8099B20815A1C09921A4612F843
:1034B000021B09A8A17209925B78E37205F008F873
:1034C00049F80600CFE45A1C09921A780F2A3FF6F1
:1034D000ECAC991C09915C789F48C2EBC201421880
:1034E0004454D91C099199785170191D0991D978C2
:1034F00091701979D170597911719979517103F1DC
:103500000801DB790991937112F02EFBABE409A855
:1035100004F0F4FF914C208009A804F0EFFF6080D4
:1035200009A804F0EBFFA0809DE419465A1C0992FB
:1035300011F8020B8A4A099159781070517016A837
:10354000D91C40F8341D9B78937004F0D7FF834B4F
:10355000D88088E45A1C09921A4612F8020B814955
:1035600009920870804A59789170DA1C09929A7809
:103570007E4B9A7077E45A1C09921A46794C12F8DD
:10358000021B7B4E0992A17059787A4A0DF15809B5
:103590001170DA1C09929A7832711A1D49F8342D8B
:1035A000DB784846042BA8BF0423B37004F0A6FFC1
:1035B000099A0A9B30809B1A012B03DD484604F0D0
:1035C0009DFFF081099B0A9A9A4206D05A1C0992E3
:1035D0001B78003318BF0123E3710DF075F8099BC8
:1035E0000A9A9A423FF43FAC5A1C09921B78F37036
:1035F00039E45A1C16AC44F8342D1B785E4EDFF8C3
:103600006491204689F80530D6F800A004F076FFD2
:10361000AAF820002046D6F800A004F06FFF099A0F
:103620000A9BAAF81E009B1A072B17DD204604F000
:1036300065FFA9F80A00204604F060FFA9F80C0015
:103640002046D6F800A004F059FFAAF82200204630
:10365000D6F800A004F052FFAAF82400099A0A9BA9
:103660009B1A032B09DD204604F048FFA9F80E0041
:10367000204604F043FFA9F81000099B0A9AD21AC9
:10368000002A05DD591C099132681B7882F8263022
:103690000DF01AF810F032FC30680FF0FDFCFFF767
:1036A000E2BB5A1C09921A462F4912F8020B0992E2
:1036B000C8705978314A5171DA1C09929A782B4BAB
:1036C000DA70FFF7D0BB3B78D8073FF5CCAB0DF0F5
:1036D0006BFA0CF04DFF0DF089F8FFF7C4BB3B7897
:1036E000DA073FF5C0AB264A137843F004031370A2
:1036F000FFF7B9BB234BB3F900304B4393FBF6F311
:103700002380FFF7B0BB06F023FCFFF7ACBB002320
:103710001D4C09A8236004F0DBFE236818432060D9
:10372000FFF7A1BB0023194C09A8236004F0D0FEC9
:10373000F5E7581C09901C781549121A002A0C70DC
:103740007FF791AB9A1C09925B78003318BF012375
:103750004B70FFF788BB00BF643800209C3C002002
:10376000F5110020FA2B0020C2140020C8150020FB
:103770007C160020D438002024180020523200206B
:10378000BD14002064160020DC1A0020EC1A002072
:1037900029180020403600205A1C16AC44F8342D5D
:1037A0001B78BB4E2046337204F0A8FEB08320463F
:1037B00004F0A4FE3083204604F0A0FE099B708331
:1037C0005A1C09921B78F3740A9B9B1A032B07DD82
:1037D000204604F093FEB084204604F08FFEF0846F
:1037E000099B0A9AD21A032A0DDD5A1C09921A461D
:1037F00012F8021B2046B17709925B7886F82030D8
:1038000004F07CFE7084099B0A9AD21A052A0CDD0A
:103810005A1C09921B782046F37204F059FE099B4A
:10382000F0605A1C09921B783374099B0A9AD21AC9
:10383000002A7FF718AB5A1C09921B7886F82130B2
:10384000FFF711BB5A1C09921A46924C12F8021B40
:1038500016AE46F8342D21715B783046637104F062
:103860004DFE099B20805A1C09921B783046A3719B
:1038700004F044FE099B60805A1C09921B78E37196
:10388000FFF7F1BA5A1C09921C78112C3FF60DABC8
:103890009A1C16A840F8342D5B787F4E06F8143039
:1038A00004F02CFE40F6CA039842A8BF184640F226
:1038B000EE239842B8BF18461923A0F2EE2090FBE1
:1038C000F3F006EB44046070FFF7CDBA5A1C09927E
:1038D0001A786F4B5A75FFF7C6BA00236C49099ADC
:1038E000501C099012785A540133082BF7D1FFF776
:1038F000BABA0726B4FBF6F6C6EBC603E41A7FF4A1
:10390000D4AADFF8B0B1F6B2E3B2B3423FF4ABAA47
:103910004FF0000A099B5A1C099293F900300BEBF7
:10392000CA0999F902209A4200F0C6800AF1010AF8
:10393000BAF1040FF3D1FFF7B8BA5A1C09921E78F6
:103940001F2E3FF6B2AA052C7FF4AFAA09A804F0F7
:10395000BFFD524B43F8260011F0B8FAFFF783BAC7
:103960005A1C09921A4612F8020B0992DA1C59786D
:1039700009929A7811F02AFA00287FF474AAFFF7C6
:1039800094BA00211122464815F059FF102C4FF02F
:10399000000328BF10244249A342BFF464AA099A35
:1039A000501C099012785A540133F5E73D4CFFF74B
:1039B00068B82123FFF78EB812F8011B4B40FFF7C0
:1039C000A9B813F8011B4A40FFF7B5B8012C1BD169
:1039D000102200210DA815F032FF15F8053C0D95B9
:1039E0002B440E9315F8033C6E2BADF83C300BD1F5
:1039F0000DA804F08EFD0DA804F080FD0DA804F0C4
:103A00007DFD0DA804F07AFD0024FFF7A6B8264C32
:103A100055F80A0C06F01BFD00283EF413AE55F8CD
:103A20000A0C06F011FD15F8023C0646002B7EF448
:103A300011AE24287EF4C8AE012305F8023CFEF73F
:103A40001ABE09A804F065FD09A804F062FD09A8E2
:103A500004F05FFDFFF707BA144A007802F821006E
:103A6000D81C0990987802EB81011A1D48700992C0
:103A7000DA7800208A705A1D1B790992CB7012F0F7
:103A8000B5FF0B4B80F001001870FFF7ECB900BFD9
:103A9000BC2B0020B42900202A260020502F002013
:103AA000571C0020930401080400FA05F81A0020AE
:103AB00004000020A22E002089F8023009A804F09A
:103AC0001DFD099B2BF83A005A1C09921A4612F860
:103AD000021B0134099289F803105A7889F80420EE
:103AE000DA1C09929A7889F806201A1D0992DB7867
:103AF00089F8053008E70C283EF459AD0A2801D0B2
:103B00000D2820D112F056FF2321284615F0CCFEB7
:103B100008B1401B206000222368002B7EF452ADC8
:103B200002B1236080220021284615F088FE019B07
:103B30001B78002B7EF43EADFEF733BD7F287EF46C
:103B400065ADFEF7C5BC7F287EF45DAD0022013B6C
:103B50002360EA540148FEF72EBD00BF5AB90108A0
:103B60002DE9F04FA74C9BB005906368204698471D
:103B7000A346002847D00026B4F8B45084F8556016
:103B8000A14F002D40F0A880626AB4F93C3094F84F
:103B900056109B1A2363A26AB4F93E3004F1300038
:103BA0009B1A6363E26AB4F940309B1AA36308F07E
:103BB0009BF8964B1B78002B47D11D4604F12C0631
:103BC00056F8040F13F08EFDDBF8201013F0DEFD25
:103BD00005F59C720146DBF834310BEB0200984787
:103BE00005F5D4720146DBF8A4310BEB02009847CF
:103BF000DBF8B8300146D6F8F800984724356C2D2C
:103C000047F8040FDCD1824C2278072A05D106F050
:103C100051FB059BC01A7F4B18807F4B5A781D467D
:103C20000692002A00F03A81013A5A70784B1B78CC
:103C3000012B07D1794A774B1268D2691A80784AEA
:103C400012885A801BB0BDE8F08FDFF8C491714E26
:103C5000CA4604F12C083C460BF59C7799F80030D5
:103C600058F8040F172B04BF05EB0B02928F049337
:103C700008BF328013F036FDDBF8201013F086FD0C
:103C8000049B0146082B04D1049014F01BFD0499F9
:103C90003080DBF8343138469847DBF8A4310146F0
:103CA00007F1700098479AF800300146032B04D1C1
:103CB000049014F007FD04993080DBF8B830D8F890
:103CC000F80098470235062D44F8040F07F1240741
:103CD00006F10206C2D196E7524B3A685B7804F1CE
:103CE000240707934FF47A73B3FBF2F3C3EB431249
:103CF00003EB8203DB009BB20493454B06961B78D3
:103D00000893444BB3F90690049B5B080993049B0A
:103D10009D4201BF0023BB64C4F888303B60394B2F
:103D2000F318B3F93C00BB6C0344BB6413F0DAFC3A
:103D3000D4F8882002F10108B8F1010FC4F8888096
:103D400008D10023012DE067A067C4F8803074D14A
:103D5000002033E0D4F878A00B9251460A9013F07B
:103D60000BFC8346404613F0BDFC0146584613F059
:103D7000C1FD514613F002FC0A9B01468246E067F2
:103D8000184613F0F9FB594613F000FDD4F88010E3
:103D900013F0F4FB012D8346C4F88400C4F878A026
:103DA000C4F880000B9A48D1B8F1010FD0DD10465D
:103DB00013F098FC0146584613F09CFD14F0B2FE37
:103DC000089B8046032B05D114F07CFC01230FFADD
:103DD00080F90693079B4BB3184613F083FC4146CA
:103DE00013F072FE10B3069B13B10A4BA3F80690B2
:103DF0000D4807F069FF0022034B5A609A60DA60B1
:103E000001E700BF0C2C0020902E0020BF140020E2
:103E10002818002028160020E0100020301E002066
:103E2000A8180020FA2B0020C02C0020099ABB6C97
:103E30001344049A93FBF2F33B600236062E07F11B
:103E4000040704F114047FF462AF069B13B10E4B18
:103E5000A3F80690012D10D100220C4B1B689A622A
:103E60001A63DA620A4B1B7823B10A4B1B6833F4DE
:103E7000006302D1012005F013FB074AB2F8B43009
:103E8000013BA2F8B430B6E728160020301E00200F
:103E9000E01000204C3100200C2C0020AC4B5B7952
:103EA000002B00F0C987AB4B1B78013BDBB26B707A
:103EB0002378072B40F0C38706F0FCF90B90A64B44
:103EC0004FF07E501B6808936B680E93AB681946E1
:103ED0000A9313F051FBA14B196813F057FC4FF0F4
:103EE0007E510C9013F0FAFD10B94FF07E530C93F5
:103EF0004FF0000800249A4B9A4D07939A4B099370
:103F0000DFF8C492214659F828304FEA8806049316
:103F1000964B53F82870384613F0CCFDE8B909F1F8
:103F20000C0959F828900498494613F025FB82465D
:103F300020F00041384613F0C7FD58B121465046E5
:103F400013F0E0FD002800F07E874946384613F064
:103F500015FB0490864B049AF250864BB3F8009000
:103F600019F0030F3AD0B8F1020F37D0089B93F83D
:103F70002EB0584613F0B6FB7F4BF15813F006FCF9
:103F80008246CBF1000013F0ADFB074601465046D8
:103F900013F09AFD40B9584613F0A0FB514607466E
:103FA00013F09CFD00B95746744B33F91800099B78
:103FB000B3F90030C01A13F095FB714913F0E6FB1A
:103FC0000146384613F0D8FA19F0010F0D9000F0B1
:103FD00065876C4B196813F0D9FB04906A4B049801
:103FE0003344D3F804A0514613F0C6FA95F83C3098
:103FF0000746002B00F08380059A2B6CD31A634A86
:10400000126893427BDD089B93F84830022B02D163
:10401000012006F0BDFAB8F1020F40F0F3875C49C9
:10402000504613F06FFD002841F00B80594950466F
:1040300013F04AFD002841F00480574B3846D3F86E
:10404000009009F1004B594613F03EFD002840F066
:10405000FB874946384613F041FD00B94F46079BA0
:10406000059A1C602B6CD31A4C4A1268934223DCCD
:104070004FF07E510A9813F027FD00283FD0484B9F
:10408000DFF804B1D3F80090DBF80400494620F0D3
:10409000004013F019FD90B3DBF80810484621F0FA
:1040A000004113F02FFD50B3DBF80C10484621F00F
:1040B000004113F027FD10B33A4B186810F00200CE
:1040C00019D0394B2D4839491A68B1F90CE0B0F9CB
:1040D0000030A3EB0E03002BB8BF5B4293420EDA15
:1040E000B0F90230B1F90E105B1A002BB8BF5B4279
:1040F0009A4204DD002085F83C0006F049FA2C4B7A
:104100000E98F15813F042FB394613F03FFBDFF8ED
:10411000BC90B8F1020F014646F8090006D1254AC5
:10412000254B10681B689847C9F80800079B1B6857
:104130000D93224B1968224B186813F027FB0C993A
:1041400013F024FB1F4BF15813F020FB39463FE0DE
:10415000FA2B0020D43800202418002060280020EA
:1041600010160020E0100020CE140020542800205B
:10417000F81000204A1D002004110020941D00208A
:10418000CDCCCC3D3C280020902E0020682800207B
:1041900000C0F84400C0F8C4802800206428002033
:1041A00070280020B41C00206C280020C2140020BD
:1041B0001028002034290020902800200000002032
:1041C000D83800201C280020EC1000200416002005
:1041D00013F0DCFA0D9913F0D1F99D4B0F90D3F841
:1041E00000B00BF10049494613F06EFC38B90F9A44
:1041F00059461046914613F071FC00B9D946B8F102
:10420000020F40F02487934B1B78012B02D0192B0F
:1042100040F01D874FF001038F4938460F9313F08C
:1042200071FC0F9B00B90346DBB23BB10D9B29F03B
:10423000004023F0004113F047FC10B1079BC3F886
:104240000090B8F1020F00F09780844A844B5146E9
:104250001B68B0589847834A834B01461B68B05887
:104260009847089B814693F83730002B00F0F98679
:104270007E4B1B88002B40F0F4867D4BF1587D4B24
:10428000186813F083FA4FF07E51824613F026FC33
:1042900008B94FF07E5A784B5046196813F076FAF9
:1042A0000146049813F072FA494613F065F9734B0E
:1042B0008146F15813F060F9714B196813F01AFB3D
:1042C0006E4B824646F80390089B93F84830002BCB
:1042D00048D06C4B1B78D80740F1C6864FF07E5112
:1042E0000A9813F005FCF0B195F83C30DBB9664B49
:1042F0002AF00040196813F005FCA0B1634B27F0C9
:104300000040196813F0FEFB68B1614BF058614B37
:1043100020F00040196813F0D7FB20B1012385F885
:104320003C30059B2B6495F83C30DBB1059A2B6C37
:10433000D31A594A1268934214DA544B27F00040BA
:10434000196813F0C1FB40B9514BF058514B20F0A4
:104350000040196813F0D6FB20B1002085F83C001E
:1043600006F016F94D4B0E98F15813F00FFA51461E
:1043700013F00CFA4A4B985195F84C302BB9494B35
:10438000F450079B1C60464BF450079B08F1010852
:1043900004330793099BB8F1030F03F10203099358
:1043A0007FF4AEAD404E3278072A05D105F082FF8A
:1043B0000B9BC01A3D4B58803378012B40F05B8635
:1043C00005F078FF3A492B6D384A0968C31A938083
:1043D0005B1A0490D3802865364B374ED3F8009093
:1043E000364B99F82C801B6813F4805F00F09A8696
:1043F000244BB5F856701B783846D90758BF304B58
:10440000F6685CBF1B8BA5F8543013F06BF982463D
:104410000146304613F062FB002800F03786294B36
:10442000E96D186829666966A86513F0A5F8FF2389
:10443000A86685F86C30304613F0AAFB3146A5F823
:104440005400504613F098F828676C6F3CE000BFAA
:1044500084280020A03600200000964294280020E6
:1044600088280020E42800208C2800204A1D0020F5
:1044700010110020382800203428002024110020AA
:10448000D8380020481D00207828002074280020FB
:10449000EC1000207C28002068280020282800201C
:1044A0001C160020041600202818002028160020C2
:1044B0000C180020241800201C1D0020E82B0020D0
:1044C000BC2B0020941600202146286F13F012FA0E
:1044D0004FF07E51044613F001FB08B94FF07E54B3
:1044E0000021204613F004FB00B900249E4B9F4E90
:1044F0002C673168186813F041F89D4B196813F068
:104500003DF8B9F828A00746CAF1000013F0EAF810
:104510000546504613F0E2F829468346384613F024
:10452000D3FA002840F018865946384613F0D6FAD8
:1045300000B95F468F49384613F028F98A4F079033
:104540007168786813F01AF8894B596813F016F8F7
:1045500082460146284613F0D5FA30B951465846EE
:104560005D4613F0BBFA00B955468249284613F060
:104570000DF9B1680890B86813F000F8B9F82A701E
:104580000546784213F0AEF806460146284613F079
:104590009BFA40B9384613F0A1F82946064613F0B5
:1045A0009DFA00B92E463046724913F0EFF8724B6F
:1045B00006465B780BB900F10046B8F1000F25D034
:1045C0006E4B5A7912B36E4A1578FDB1187813F014
:1045D00085F80746284613F085F80146384613F05B
:1045E000D5F8684B0546188813F078F80146284638
:1045F00013F080F96449054613F070FA00B9624D72
:104600004FF07E51284613F073FA08B94FF07E55EB
:104610004FF000084FF0000AC1465C4B5C4F93F826
:1046200000B0DA45C0F2BA854146484612F0A4FF10
:10463000584D4FF07E51A860064613F063FA0028EB
:1046400000F0E88531464FF07E5013F053F9002416
:10465000074610AEA34500F3D38512F007FA10B158
:104660004FF07C532B6795F96C0013F03BF82B6FE0
:1046700082460793AB6EA86D08936B6E0993464B09
:10468000DB780C9313F05EFA8046286E13F05AFA2A
:10469000424B81461E680025304613F053FA074608
:1046A0003F4B1B6803F0100203F480530E933D4B05
:1046B0000D92B3F906303C4A0A933C4B14785B8B5D
:1046C00004F001040B935D45C0F0C78524B9384B55
:1046D000384AA34500F302862E4CD4F810310BB1B2
:1046E00010F05EFF94F814310BB10EF0BDFD324DA9
:1046F0002A78072A05D105F0DDFD049BC01A2F4B4F
:1047000098802B78072B40F0F08505F0D3FD0B90B7
:10471000234F3B68079713F4806F05D028488368C0
:1047200013B100F150019847264A1E481268B0F9AB
:10473000068051890890884580F2DB854FF07E52D3
:1047400062601A4A4FF0000B158B94F9192194F806
:1047500016A1002A14BF01234FF0FF3394F81591DE
:10476000194E049332E000BF0416002010160020FA
:104770001C1600206F12833A291800202C1D0020DF
:10478000181D0020F41C0020713DAA3F30160020A7
:1047900070110020E0100020283100200C2800209B
:1047A000E82B0020F8300020481D0020BC2B002002
:1047B000341600209C2600202818002028160020EF
:1047C0000C2C0020A43C00201C1D0020089B33F969
:1047D0001B70781B0028B8BF4042B0F5FA7FA8BF15
:1047E0004FF4FA70BBF1020F00F098854845CCBF3A
:1047F000A0EB0900002012F075FFAF4246F82B0035
:10480000C0F29A850BF1010BBBF1030FDED1079BC0
:104810001F6817F4805700F09785B8F5FA6F434684
:10482000A8BF4FF4FA63B3F57A7FB8BF4FF47A7339
:10483000A3F57A7394F81C212AB194F81D215343EF
:10484000642293FBF2F34FF0640E93FBFEF2AD484B
:1048500002F1010C30F9121030F91C006FF0630CFA
:104860000CFB0233401A584390FBFEF0084400B2A0
:1048700012F038FFA44B8146D8609846002F43D0F1
:104880001D2012F0EDF8C8B1A04BDB78B3B9A049F8
:10489000484612F071FE13F055F94FF47A7300B2E6
:1048A000000390FBF3F3C5F5FA6000B2584340F300
:1048B0000F30284412F016FFC8F80C00262012F022
:1048C00095F808B3914BDB78F3B9262012F0C8F8BD
:1048D000002800F04F8501238D4984F88830F06866
:1048E00012F04AFE13F02EF94FF47A7300B200036F
:1048F00090FBF3F3C5F57A7000B2584340F30F30E4
:10490000284412F0EFFEF060824B1B885A0640F1FB
:10491000A6819F0714BF0023D8F80830D8F80020DC
:10492000C4F82C317C4BC4F82421D8F80420196831
:10493000C4F82821794A04915968D2F804A0D2F821
:10494000009097680791D1689A685046D3F80C8018
:104950000992089112F012FE09990446079812F084
:104960000DFE0146204612F011FF08990A905046AC
:1049700012F002FE09990446079812F0FDFD014667
:10498000204612F003FF39468346484612F0F6FDF2
:1049900041460446049812F0EFFD0146204612F00D
:1049A000F5FE39460646484612F0E6FD4146044605
:1049B000049812F0E3FD0146204612F0E7FE05469A
:1049C0000146304612F0DAFD0A9912F0D5FD59463B
:1049D00012F0D2FD4FF07C5112F0D8FE39460D9006
:1049E000089812F0C9FD41460C90099812F0C4FDD8
:1049F0000C9A0146104612F0C9FE0D9B014618465E
:104A000012F0BCFD464C51462060484612F0B6FDFF
:104A100007990C90049812F0B1FD0C9B01461846C2
:104A200012F0B4FE31460C90584612F0A7FD0A99D8
:104A300012F0A4FD294612F0A1FD4FF07C5112F0B6
:104A4000A5FE0C9B0146184612F096FD5946606083
:104A50000A9812F091FD51468346484612F08CFDAB
:104A600041468146099812F089FD0146484612F0F8
:104A70008DFE29468046584612F07EFD314612F0E2
:104A80007DFD4FF07C5112F081FE0146404612F050
:104A900075FD3946A060089812F070FD0799074629
:104AA000049812F069FD0146384612F06FFE314657
:104AB0000746584612F060FD294612F05FFD4FF0A0
:104AC0007C5112F063FE0146384612F057FD10A9E2
:104AD000E06020460EF02CFC139A179B0792169A62
:104AE000049308920F4B129AD3F824510992D3F8E9
:104AF0002C21D3F82841114610460D930C9212F048
:104B00003DFD11E0A83C00201C1D002028310020A4
:104B100000007A444A1D0020440400203404002090
:104B200054040020E0100020DDF854A081460799CD
:104B3000504612F023FD21468046204612F01EFD0D
:104B40000146404612F022FE09998046089812F06C
:104B500013FD494612F01AFE0146404612F00EFDC2
:104B6000109E149FDDF864B080463946304612F03E
:104B700005FD049912F000FD594612F0FDFC29468E
:104B800012F004FE0146404612F0F8FC39460A9045
:104B9000304612F0F1FC07990646504612F0ECFC44
:104BA000294682462846189FDDF8448012F0E6FC2C
:104BB0000146504612F0EAFD41468246384612F060
:104BC000DDFC494612F0E2FD0146504612F0D6FCEB
:104BD00059468146304612F0CFFC049912F0CEFCC3
:104BE000214612F0D3FD0146484612F0C7FC099950
:104BF0008146089812F0C2FC294612F0C7FD4146D2
:104C00000546384612F0B8FC214612F0BFFD0146B9
:104C1000284612F0B3FC014612F0B0FC0499044699
:104C2000304612F0A9FC594612F0A8FC0C9A114625
:104C300012F0ACFD0146204612F0A0FC0D9B0A9A32
:104C4000C3F82891C3F82421C3F82C01814B1A60C2
:104C5000814AC3F804901288960708BF98607F4B7A
:104C60007F4C1B6813F0140F1BD07B4B1B8803F485
:104C70000273B3B17B4B774D1A7812F0100200F03B
:104C80008B8394F83031D4F83401002B0CBF01230E
:104C90004FF0FF33584312F025FD696812F06EFCA7
:104CA0006860714B714E1A790793B2B1704BB3F9CA
:104CB0000620738B9A4210DC6E4B1B78012B01D0BF
:104CC000192B02D16C4A927B3AB90E2B05D0082BD6
:104CD0001FBF00235F4A6361936094F85471002FF3
:104CE00033D05D4B1B889D072FD0644B64491D6AF0
:104CF000284612F0F3FE002840F0A683284603F071
:104D00004CFDD4F8581112F041FD13F0DBFCB0F566
:104D1000617FA8BF4FF4617012F0E4FC594912F0B2
:104D200035FD03F0F5FD0546384612F0DBFC29465B
:104D300012F02CFD13F0C6FC00B212F0D3FC454D6E
:104D40000146E86812F01AFCE86094F85C81B8F15A
:104D5000000F64D04C4B0420D3F8EC5044F6206391
:104D60009D42A8BF1D46B5F57A7FB8BF4FF47A754E
:104D7000ADB2A4F85E5111F073FE444B10B91A683D
:104D8000D0004CD54FF47A72B5FBF2F5642292FB59
:104D9000F5F5142DA8BF14251B68DFF8FCB02D49CC
:104DA000D4F8602113F4805FDBF80030D1F80C9068
:104DB00014BF5F8EB3F9327002F10103C4F86031A1
:104DC000484604EB420A18BF7F08049312F0BAFE6B
:104DD000049BAAF864019D42DCBF0023C4F8603143
:104DE000D4F8603104EB4303B3F9640112F07AFCA8
:104DF0000146484612F0C0FB12F0A4FE00B20028A3
:104E0000B8BF4042B84240F32183DBF80030988EAF
:104E100012F068FC1E4912F0B9FC079B1860B37FC2
:104E2000002B00F04984022B00F02283032B00F0BA
:104E30001684184B588820E30123FFF738B8002365
:104E40000B93FFF73CB83946484612F095FBFFF745
:104E500080B800BF1C1D00204A1D0020B41C00208B
:104E6000E0100020BD14002000000020BC2B00201A
:104E7000F830002029180020343700205029002065
:104E80008FC2753CD06D393AF0000020E82B00202D
:104E90006F12833AAC2B002024180020D5F83090F4
:104EA0006F6B4946384612F023FE00B94F46AC4BB3
:104EB000B3F90000B3F902300028B8BF4042002B1C
:104EC000B8BF5B429842B8BF184612F00BFCA54928
:104ED00012F05CFCA44B82461B78002B57D0A34BEE
:104EE0002146D3F800B0584612F00CFE002800F01E
:104EF00087809F4B2146D3F80090484612F002FE6F
:104F000000287DD007F100409A4912F03FFC594635
:104F100012F0F0FC4FF07E5112F030FB5146074684
:104F2000484612F029FB494612F0E4FC4FF07E514E
:104F3000814612F0D3FD08B94FF07E59214648460C
:104F400012F0D6FD00B9A1463946484612F01EFCC3
:104F50008146894B0D98196812F018FC4FF07E516C
:104F60000746484612F0BAFD08B94FF07E5921466F
:104F7000484612F0BDFD00B9A1464946384612F038
:104F800005FC0146049812F0F9FAFFF726B87B4BAE
:104F90007B49D3F80090484612F096FD60B349462D
:104FA0004FF07E5012F0E8FA764912F0EFFB5146CE
:104FB0008346754812F0E0FA0146584612F0E6FBC7
:104FC000494612F0DBFA694B196812F0DFFB8146A3
:104FD0002146484612F082FD90B94946654812F0D4
:104FE00089FC07F100470146384612F0CFFB4FF02D
:104FF0007E5112F0C3FAABE75C4BD3F80090E7E7C1
:10500000A146A6E7614B1B689B077FF528A8099B73
:10501000B3F90000524B33F91830C01A12F062FB9A
:105020005B4B07464F49186812F0B0FB0146384603
:1050300012F0ACFB5146049012F09EFA0746FFF7BF
:105040000EB82746FFF70BB85F46FFF708B84FF0DA
:1050500001034FF07E51A8680F9312F049FDFFF74E
:10506000E0B82146FFF71DB995F83C30002B3FF41E
:1050700079A9FFF772B9072B04D105F01BF9049049
:10508000FFF7AAB900230493FFF7A6B9B5F8780093
:1050900012F028FB82460146304612F029FDC8B1C5
:1050A000E96FD5F88000A9656966286612F064FA90
:1050B0000123A86685F86C30304612F069FD514630
:1050C000A5F85400304612F057FA2867D5F8844006
:1050D000FFF7FAB9B5F85430BB4203D8262011F0D7
:1050E00085FC10B195F8883073B12A4BE96D1868CA
:1050F0002966A865696612F03FFAFF23A86685F85D
:105100006C302C67FFF7A1B9E96FD5F88000A9656D
:105110002866696612F030FA0123A86685F86C30BB
:105120002C67D3E71C4B588B12F0DCFA0146F06871
:1051300012F022FA174B28671968D5F88000A96584
:105140002866696612F018FA0123D5F88C40A86623
:1051500085F86C30FFF7B8B92F46FFF7EBB900BF01
:10516000941D0020CDCCCC3D4828002044280020B0
:105170004C2800200000C842402800205028002071
:10518000AE47813F610BB63B00003443B41C0020A6
:105190003C28002094160020BC2B0020796807983A
:1051A00012F0F4FAB9680990089812F0EFFA099A27
:1051B0000146104612F0E2F9F9680990304612F003
:1051C000E5FA099A0146104612F0D8F9294612F07C
:1051D000DDFA4946099012F095FC099A70B911461A
:1051E000404612F07BFC099A00B9904610AB43F898
:1051F0002A2010370AF1010AFFF713BA9146F5E7A2
:1052000056F82400394612F0C1FA46F82400013459
:10521000FFF720BA11F02AFC38B94FF07C51204634
:1052200012F070FC00283FF41EAA4FF07C5130466B
:1052300012F0ACFA2146064612F064FC50B9314631
:105240004FF07E5012F098F92146064612F046FCC7
:1052500000B926462E67FFF706BA7F4A2B019958F8
:10526000079812F093FA10AB53F825100F905046A0
:1052700012F08CFA0F9B0146184612F07FF908993C
:1052800012F084FA099912F079F90C9B03B312F029
:1052900059FCB84203DB4845A8BF484600E0384601
:1052A00012F020FA0D9A034662B15CB10E9A4AB927
:1052B0000F9011F0DBFB0F9B20B90A9A0B998A42E1
:1052C000B8BF3346654A42F825300135FFF7FBB9D0
:1052D00012F038FC4045DEDA4046E1E752F824108F
:1052E00043F824100134FFF7F4B900230B93FFF7C0
:1052F0000FBAB8F5FA6F107ABFBFA8EB010250439E
:10530000C1F5FA6190FBF1F0C0F1640012F0EAF926
:10531000534912F03BFA6060FFF713BA5045D8BF0B
:105320000020049BC8BFA0EB0A00584312F0DAF932
:10533000AF42B060BFF66BAA56F82B1001F10041E6
:1053400046F82B10FFF75EBA464A528B90450FDBAA
:10535000B8F5FA6F4346A8BF4FF4FA634FF47A7179
:105360009B1A4B43C2F5FA62B3FBF2F3FFF762BA42
:105370001346F3E784F888003B49F06812F0FCF824
:1053800012F0E0FB4FF47A7300B2000390FBF3F3EA
:10539000C5F5FA60FFF7B0BA94F818613349B4F96B
:1053A000383194F8170186B3B1F90660F11A002973
:1053B000B8BF494281420FDDC4F83C2101229E4220
:1053C00084F84021C8BF404212F08CF90146E868D9
:1053D00012F0D4F8E86064E494F8401129B1D4F8EC
:1053E0004811C4F8441184F84021D4F83401184419
:1053F000B0F5FA6FA8BF4FF4FA60B0F57A7FB8BF86
:105400004FF47A7012F06EF9E4E7B1F90620D21A7F
:1054100082EAE271A1EBE271814208DD022192FB96
:10542000F1F2C4F84C21012284F85021DBE794F812
:105430004021002AD9D0D4F8482184F85061C4F81A
:10544000442184F84061D0E7002075E44FF07E539A
:10545000079A1360E3E400BF7011002034160020A7
:105460000AD7233CBC2B002000007A44F8300020EF
:10547000B4F85E0100F57A7080B2F57F0235EDB2C6
:10548000B8F1000F00F00081002800F0FD808E4B85
:1054900000261B688D4FB0FBF3F000B2A4F88C011E
:1054A00012F020F901464FF07E5012F023FA8046A8
:1054B000DFF8209207F1100AAE42C0F2D880844B88
:1054C0001B78092B11D1834B834E186813F0FAF81F
:1054D000824B3080D3F8EC004FF47A7390FBF3F0FA
:1054E00012F000F912F02EFB7080B4F98C31002B11
:1054F00040F3E48000267A4FDFF8D891A7F1100836
:10550000AE42C0F2C78094F85C310025002B069BA8
:1055100018BF02234FF07E590693724BDFF8F481D7
:105520001F686B4B1B7808937B1D0993069B9D425C
:1055300040F3F280089B6C4D092B07D1664EB5F8FD
:105540008C31E868B38012F0FDFAF080674B93F875
:105550002160002E60D01E2011F082FA00285BD05E
:10556000634B1B88590657D495F8B031B34214D019
:1055700085F8B061304612F0B5F85E4912F006F9D0
:105580005D49064611F0FAFF03F0C2F95B4B9860E3
:10559000304603F0BDF9C5F8B401079BE668D3F8BF
:1055A00008903046494612F0F1F8D4F81480D4F847
:1055B000B47182463946404612F0E8F8014650463A
:1055C00011F0DAFF4E49824612F088FA08B9DFF886
:1055D00030A14C49504612F08BFA08B9DFF824A1EB
:1055E00049464046C4F80CA012F0D0F8394680462F
:1055F000304612F0CBF80146404611F0BFFF40495B
:10560000064612F06BFA00B93D4E3E49304612F0A4
:105610006FFA00B93B4E6661002385F85C313A4B66
:105620001B78002B40F05481384EB278002A00F0ED
:105630004F81374C2378013B0D2B00F23781DFE897
:1056400013F00B011E01280177013501350190018E
:10565000C9010C0528053905580563056C0596F840
:105660002000C0EB401300EB8300C00004E75AF8B1
:10567000261059F8260011F07FFF414612F086F8F7
:1056800047F82600013617E7B4F88C31013BA4F83F
:105690008C312AE757F8260058F8261011F06EFFD3
:1056A000022E3346B8BF0223DBB247F8260049F882
:1056B00026000693013623E7A4F88C3194F85C3178
:1056C000002B7FF420AFAAE70C18002070120020F6
:1056D000281800201C1D002028160020F0000020A3
:1056E00080120020A43C0020E0100020BC2B0020F1
:1056F0004A1D002035FA8E3CDB0FC93F0000002018
:1057000000C0F94400C0F9C408280020A4350020D6
:10571000761600200AD7233C022D15BF38787878FA
:1057200097F802B097F809B011F0DCFF414612F08B
:105730002DF84FF08041064612F0E4F960B14FF0C9
:105740008041304611F018FF8F4912F01FF80146D2
:10575000304611F013FF0646AB0004938B4B8C4987
:1057600053F8250012F012F820F00043894A049300
:10577000049B42F825000C32824642F82530BBF1EA
:10578000000F1FD0584611F0ADFF414611F0FEFF4B
:1057900083465146504611F0F9FF049911F0F6FF87
:1057A000594611F0F3FF59460A90484611F0E4FEBD
:1057B0000A9A0146104611F0E1FE0146504611F0EA
:1057C000E5FF82467449304611F0E0FF514611F082
:1057D000DDFF099B064613F8010B0993F0B111F0A8
:1057E00081FF414611F0D2FF049911F0CFFF6B49C0
:1057F000824612F087F958BB0021504612F064F936
:1058000040BB5146484611F0B7FE0146484612F0EB
:1058100071F80146304611F0B9FF0646089B0C2B83
:1058200005D1304612F08EF95D4B23F815005D4925
:10583000304612F053F900B95A4E5B49304612F027
:1058400057F900B9584E594BAA00D65001356DE6AC
:105850004146DBE74946D9E7554B1B78DA0707D5C0
:1058600080200EF099FC08B103F0B4FB12F0A2FC0A
:105870001F2011F0F5F8C8B10C23237016E00022A8
:105880004C4B1A604C4B1A604C4A12685A60032306
:10589000F3E70FF0C5FC484D484B1A686B6864335A
:1058A000934203D240200FF093FCF0B10FF0E0FCE4
:1058B000002800F0398423780C3B022B08D90123FF
:1058C00023703F4B93F8E72112B1002283F8E721C0
:1058D0003C4B1B78072B7EF4A9A904F0EBFC0B9B37
:1058E000C01A2F4BD880FEF7A1B9DFF8E48040271B
:1058F000C246DFF8C0902B6818F8030068B10FF0BB
:1059000035FDD9F80030013F03F1FF33C9F800300D
:105910002B6803F101032B60EDD12B681AF80330DB
:10592000002BC3D12B604FF0FF336B600423A4E73F
:105930000FF076FC244A5021A2F10C030193262398
:10594000029200934920A2F10A03163A08F064FA81
:105950000028ABD14FF0FF32174B18605A60072375
:105960008BE70FF05DFC052300210093174B02919C
:105970000191A3F10802532008F04EFA002895D1B6
:105980000D4B1860082378E7D7A368411C1D002041
:105990006F12033B0411002000004843A4707D3FB8
:1059A0002816002000C0F94400C0F9C4EC10002003
:1059B000481D0020A035002000180020EC1D00200C
:1059C000E010002028180020D29A01088C9C0108C1
:1059D0006C9A01080FF024FC914B924D186812F05C
:1059E00071FE8046D5F8800012F06CFE81464020A2
:1059F0000FF0EEFB294600287FF458AF8A4D8B4FFD
:105A00002B6878784C2B00F2DB83DFE813F04D0035
:105A10005300610068006C0070007600840088000C
:105A20008D00920097009E00A300AF00B900BE0059
:105A3000C900CE00D300D800E000E800F000F80074
:105A4000000179018101890196019F01A801B1013D
:105A5000BA01C301CC01D501DE01E401ED01F4017D
:105A6000FA01000206020C0213021A0221022702A6
:105A70002D0234023B02410247024D0253025802FA
:105A80005D02620267026C02720278028502E50220
:105A9000EA02EF02F402F902FF02040309030E0313
:105AA000130318031D032103614A6249624807F08A
:105AB000AFFE09E0614B5E4A0193614B614900937F
:105AC0006148624B07F0A4FE2B6801332B60EDE6C2
:105AD0005F4B604A6049614807F09AFEF4E7604A0C
