:100000000018002041C6000075BA000077BA000051
:1000100000000000000000000000000000000000E0
:1000200000000000000000000000000079BA00009D
:1000300000000000000000007BBA00007DBA000054
:1000400081BA000083BA000085BA000087BA0000B8
:100050007FBA000089BA00008BBA00008DBA000098
:100060008FBA000091BA000075AC000095BA00008C
:1000700097BA000099BA00009BBA00009DBA000030
:100080009FBA0000E9B500000DCA0000D1C200000F
:10009000A7BA0000A9BA0000D9B80000ADBA0000A4
:1000A0007FBA0000AFBA0000B1BA00007FBA00000A
:1000B000B3BA00007FBA0000B5BA000045BF000027
:1000C000F0B583B002920F4601900825BB48425F0D
:1000D0000621BB4E715E891A8B0EC9188911B94B66
:1000E00019700A23C35E705FC01A840E0019801154
:1000F000B54C2070C0B2C9B2002901D092B2F280D2
:10010000B24C002801D09AB232812478B04A1378D8
:10011000002B03D1B94B1B789B0606D50020AA49BA
:100120000870A849087010700146002904D1002801
:1001300002D17088002801D00CF0A8FBA5480678F1
:10014000012000900298FF285ED0A3480078012883
:100150001FD0002841D1A2490878012802D10020EF
:10016000087034469F4B5A5700201872012A18DB3A
:10017000611CCAB2521A531E9A41B442019B01D269
:10018000002A22D01978029A91420ED2491C197085
:100190001AE000202E2F1CD09049097800291CD18C
:1001A00017E0002A03D421460FE018700CE0002C61
:1001B000019D01D0611E08E02B78002B029A00D02F
:1001C0005A1E2A70009A0A7001462E2F04D101206F
:1001D0000C468149087000E00C4683480078401CBA
:1001E000C5B2854201D00020C5430CF06FFB00284A
:1001F00000D10546E8B23D2804D3012076490870B5
:10020000764908707848057078480670734D2878EC
:100210000028019B17D03846603805283CD938465D
:10022000423803284CD9212F00D171E02E2F3AD02B
:10023000812F64D08E2F68D0BF2F00D0A2E0002481
:100240001C702C709EE060480078002813D019784C
:10025000091A4AB20020002A00DC0146CAB2029DF7
:10026000AA4200D32946197057490870E0B2B0423B
:1002700000D33446594D18780028CCD05148007826
:100280000028C8D0241A60B2002800DC0024E0B2A4
:10029000B042C0D33446BEE778440079400087447A
:1002A00002711D262B5B0298FF286BD028784142F3
:1002B00041412970002865D147480121017061E062
:1002C000784400794000874401293545187802991F
:1002D000884257D02978002904D053E02878002894
:1002E00050D118780299884246D3002045E02878FA
:1002F000002847D1187817E0002E20D142E00020D6
:10030000287000980CF03EF83CE08E200CF070FB5A
:10031000287800282CD00020287033E01878002896
:1003200030D0297800292DD1002801D0401E02901C
:10033000029822E0002E25D0E0B2B04222D02878E8
:1003400000281FD12A4900200870E1B2B14232D3FF
:10035000044617E0200615D0002E13D02878002878
:1003600010D123480021017020060AD0661E08E043
:1003700000200CF007F805E0401C1870E0B2B04215
:1003800000D33446114804700020124908702878C0
:10039000002801D0022100E00121094B154A11700B
:1003A00059884A1E91410028009A00D10A461248F5
:1003B000027003B0F0BD641CE4E7C04618030020DF
:1003C0003A0300208B0900208A0900209F090020A1
:1003D00089090020C6090020D809002092090020C0
:1003E000A409002065090020DD090020E50900209E
:1003F000D3090020E0090020910900201C080020FA
:10040000FFFFFFFFFFFFFFFFFFFFFFFFFEFFFFFFFD
:10041000F0B595B0244902260E70244C07222146DF
:10042000059209F06BFA0146214F3878401EC2B29E
:1004300020461291FFF744FE1E4D2878411ECAB295
:100440000D2A0AD81C4BD340DA0706D048B28000E8
:100450001A4908580BF0CAFD28780D2801D900F078
:10046000EEFE24781394400078448088400087444E
:100470000D00E6062B00FE004301E606E6065501E8
:100480005200E606E606E606F000EE020C480DF025
:10049000D1FA0E203870601CC2B20A4807210CF055
:1004A00077FE00F0CCFEC046E4090020B009002031
:1004B000CF0900208109002031270000B4BF0000CF
:1004C0001AEA00007CBF0000F9480DF0B3FA0620DC
:1004D0003870F84807780825F74928460DF0B2FA31
:1004E00063426341F54EB07D4209F549284609F063
:1004F000DBFD4001B17D1F220A401018B075F07D70
:100500000025012C00D0D8E240B224210CF03AFBA7
:10051000F0753B46D2E2EB480DF08CFA10203870B3
:10052000E94800781190139840B20CF075F8139BCD
:100530000D900022072A01D100F081FE0D9881184C
:10054000481CC0B214904000C9B21291994202D125
:100550000221F94C2170D94940181499102901D869
:10056000F64900E0F64945180E92D0000830109088
:100570000024032C6AD200201199A14201D0014627
:1005800001E0CC490978129A9A4200D00146CEB2D5
:10059000711E304688411499102955D87F21214079
:1005A000012921D000293CD140000F901098C6B2FB
:1005B000002738463146149A3B460DF033FA287826
:1005C0008009022800D901270F9B3046F3493A469B
:1005D00009F06AFD3F21002800D0C843139B2A7808
:1005E0000A4002432A702FE028781099C9B2800689
:1005F0008216452033460AF045F8139B002E23D07F
:1006000028781521C9438006801616220CF04CFB71
:10061000139B3F2101402878C022024050182870C7
:1006200012E00127EA571098C1B2782033460DF046
:1006300021FA002E139B07D0E8577C21C9437D2265
:100640000CF032FB139B6870641C92E70E9A521CEC
:1006500070E7DD480DF0EEF90A203870042C0E9694
:1006600000D93AE20CF0ACFA00252C4637E2D74824
:100670000DF0E0F911203870AF4803210170AC484B
:1006800000780D90139840B20BF0C6FF139B0490B6
:100690000F2B00D90FE35800CD4C205AC10B401846
:1006A00000B24010CB4942184E2000210DF068FAEC
:1006B000139BC9480078802800D00BE30D980028D0
:1006C00000D007E3052058437C49081857218900CA
:1006D000425C0499591A4900615A002A00D04942E3
:1006E000FF225E328154090A8018417002200BF00B
:1006F00077FD0BF041FFECE2B8480DF09BF90520C7
:100700003870B74800240470B64E35781398002826
:1007100001D100F0C4FC234600F0CAFCB2480DF041
:1007200089F90C20387084480321099101708048B0
:1007300000781190139840B20BF06EFF08900024DF
:10074000072C01D100F07BFD5A4800781490E0009E
:100750000830C5B200274C22384629460DF0F7F97B
:1007600008980019C6B2082E0F9401D8312100E074
:1007700038210818C2B2052029460DF0E8F9099879
:1007800070434E4909184B20C0000E9112900B5C2B
:1007900013988642149C00D03C46119E002E2046A1
:1007A00000D03846C0B200900F20109003400D20BA
:1007B00029468E4A0DF08FF8022E204600D038468A
:1007C0000C90012E149400D03C460D9488480E9C49
:1007D00026181298205C109908400CF055FA02284F
:1007E0000A960B9016D0012820D0002100282ED187
:1007F0007756252F34DB7F4961560C9AD2B200928E
:1008000082220192253FFE223A407D31382A5DD076
:100810000B465DE07748225C0C98C3B25020294615
:1008200009F06CFE32780D98C3B259E000203256C0
:100830000D98C3B23620294609F024FF6D48225690
:100840000C98C3B24D20294609F01CFF4CE07256AB
:10085000694900912021002A07910AD40D9F0AE0DE
:10086000644822560C98C3B2632029460DF002F961
:1008700033E00D9F0F43FBB2D109514048B2401CF9
:1008800082B2492029460DF095F85A482056002892
:1008900001D40C9902E00C99079A1143CBB2C1091B
:1008A000414048B2421C6B2029460DF0E3F81BE0A2
:1008B000A4F40000E00900202DE800006E030020F1
:1008C00068F00000EDF200009F0900200A234B436E
:1008D0007AB26420294606F0D1FE0D9F3278FBB231
:1008E0003620294609F00AFE11981499129AA61882
:1008F0000328084600D0002031780A09082A00D9C8
:10090000521CC3B26820294609F0BCFE3B4800785F
:10091000002800D198E01498000600D194E01198C6
:10092000032800D990E003A1085C40008744C0463A
:100930009F0900200A212F40C60900207B020000E9
:10094000DF0200003078109D28400E210CF01AF9CB
:1009500028403178F0220A40111831700CF094F9D7
:100960000B99814270D00020224960540A99087086
:100970006AE00B98032867D87844007940008744E0
:10098000013F014600210A9C60565E2245E00B981B
:10099000032859D802A1085C40008744DDF200001A
:1009A0000342484D134D60577C21C9437D2248E0E6
:1009B00030780009109C21460CF0E4F83178214091
:1009C0000001081830703FE0EBF60000A5F60000CB
:1009D00090020020DC050000D309002017F600007B
:1009E000D6090020D00900205BF2000018E60000C4
:1009F000560200005702000086F70000910900200F
:100A000000200A9C20561521C943162205E000202B
:100A10000A9C20563121C94363220CF045F920700D
:100A200012E0FC4D60571521C943162209E0F94D2B
:100A3000605700215E2204E0F64D60573121C94322
:100A400063220CF031F960550F9C641C78E6F24883
:100A50000578F2480CF0EEFF139C0A2C00D99EE2B8
:100A60000CF0AEF8224610203870052C00D9E8E3CF
:100A7000002A02D1EA480921017051425141E94856
:100A8000007800910821E84E0A2732463B4608F0DC
:100A90008FFF13980128149501D000F048FC12989C
:100AA000602802D1B07A0DF028F8F05731210CF00F
:100AB00069F8B0722B4600F03CFC2B46C2B26620AF
:100AC000102109F01BFD307E1399022953D140B249
:100AD00064210CF057F830764EE005240125CE480D
:100AE00007780826D14930460CF0ACFF2A4631324F
:100AF0001E20109631460DF02AF813981494844263
:100B000011973B4600D0002305206843C84A115C7A
:100B1000141801201290205600930002421847201A
:100B200010990CF080FA1399149D8D420E9E16D1E7
:100B3000C0483C2202703B20C143002528460CF0EF
:100B4000B3F82178627812025118081801B200290E
:100B500000DC28462070000A60701399149D681C00
:100B600088423DD10220205613210CF00BF8139936
:100B7000A070012235E02F46C2B2542018213B4616
:100B80000BF064FE139DE81E42424241B07D4007D7
:100B9000C00F2021A84CA047C007400FB17DFB2209
:100BA0000A401018B075281F424242410807C00F82
:100BB0002821A047C007000FB17DF7220A40101876
:100BC000B075681F42424241C806C00F3021A0479D
:100BD000C007C00EB17DEF220A401018B0752EE399
:100BE00000220529129B00D381233C20102109F00B
:100BF000DBF8032728463043002213998842119BD3
:100C000000D013461092E257002B304600D03846F1
:100C10000F9700905A2018210CF054FCE070139D9F
:100C2000149F781BC01C43424341227920208349F2
:100C300009F03AFA2071381DA842119B109A00D091
:100C40001346002B0F9800D00646774C052D02D393
:100C50003720000100E07A482518AA5600964F2058
:100C600028210CF02FFC724F7A7976496254FA7879
:100C7000754BE254FA79754BE2543A7A744BE2546C
:100C8000744AA35C7F261E407B7ADB01F318A354D1
:100C900028707878A073387860736018B9794170DB
:100CA000B878E072387912990840217BFE220A4018
:100CB00010182073C3E26848007880280AD1102BEE
:100CC00008D166481921017080200BF091FE08F0D0
:100CD00083F9139B7C200390C0430C90002632467E
:100CE000072E00D14AE104983218D4B2F0000890DF
:100CF0000830102C00D142E111966100584B595A2E
:100D00000B91052110946143474B5C1857218900D2
:100D10000991675CFF210A915E31655C61180E9153
:100D20004E78C1B21292501CC2B200200F911490A2
:100D300003460CF077FE30024019002F00D14042EC
:100D40000B9943187F217E22002F0846119E00D068
:100D500010461BB20C9D4B35AB4200DB2D20002F03
:100D600000D00A46322B109F00DC02464B200F9920
:100D70000CF0EDFE2C48817D0220084001D0039943
:100D800000E06321C9430791139B129A002801D008
:100D90007D2000E0642006900598089901430891A1
:100DA000AD20400020180B900A985C3020180A9063
:100DB000099820180990149C042C00D3DCE00D98AD
:100DC0006040394659400143149401D0002401E0A9
:100DD00011480478E5B268426841224909784E42D8
:100DE0004E41064302D100201F4908702B2000010C
:100DF0000D49085C002700283CD001210E9A51566D
:100E0000090212788A1891B2002933D082422DDD6E
:100E100007462FE057020000E009002037F60000E7
:100E2000C60900209F0900206E03002075EC000019
:100E30005B090020D70900208DCA000050F0000097
:100E40006F030000AB0200007B020000AD02000057
:100E5000AE02000071030000D30900208D090020BC
:100E60009002002091090020D60900204742BA4292
:100E700000DB0F4638B20A210CF0E8FA7F21149A01
:100E80001140022923D0012949D0002964D101252C
:100E90000E99485700020978421820200443E3B213
:100EA0002D200F990CF0E6FD002E119E109F5ED1B3
:100EB0000E9C60570002217840187D21CA00022351
:100EC000F64906F06DFE2070000A60704FE00A9946
:100ED0000978643149B2401801B27D2900DB7D20D8
:100EE00002B266200F992B460CF0C4FD380406D0E0
:100EF0000898C1B23220382209230BF0AFFD002E32
:100F0000119E109F33D10A9C20781821C943643068
:100F100040B2069A0BF0C8FE6438207027E00B99A7
:100F2000097864394CB2001901B20C9A914200DC84
:100F3000104602B248200F992B460CF09BFD002E64
:100F4000119E109F13D11922204607990BF0ACFE79
:100F500064300B9908700AE0099C20780F992A46A2
:100F60000BF094FD411E88412070119E109F149C2F
:100F7000641C139B129A1FE7761CB1E63820D1B28D
:100F800010290BD110214B40C549097819434B4218
:100F90004B41C1B21220C34A0CF0CAFA4FE114957A
:100FA0001020119038700827BF4938460CF04AFDD0
:100FB00020460B3843424341BC4EB27CBC493846C4
:100FC00009F072F8B07400250C2C00D01495149B15
:100FD000581E1946814114203256009166201199FD
:100FE0000CF070FA307520460D3842424241707C58
:100FF0000007C00F18210CF0F1FCC007000F717C36
:10100000F7220A401018707420460E3842424241BE
:10101000307B8007C00F20210CF0E0FCC007800F60
:10102000317BFD220A4010183073FF2040001490DD
:1010300001242F46072F00D101E1737D2340581E64
:1010400083419C48C25D28463F30C0B2282107F04A
:10105000D1FB13980F281CD1062097490870974898
:101060000078874215D128463E30C0B22721082299
:1010700009230BF0F3FC12982E2801D0202808D168
:10108000707D6040707502200BF0AAF80020FC49CA
:101090000870640014980440ED1D7F1CCAE768B214
:1010A000032200210B460CF061FD05463070012340
:1010B000681CC2B208262046314609F01FFAEDB27C
:1010C00028460AF0EBFE034600942A20EF4A3146F8
:1010D00014930CF000FCEE490E9630460CF0B2FC76
:1010E0006800EC490E5E28460BF038FD01230094A1
:1010F0000193652E194600DB21467C22D24319322A
:10110000964210931E46139B00DB4E00002800D031
:101110002646701E11908641581E45424541304674
:1011200028401821DC4F0A460F91149BB8470094C1
:1011300001941199481E814111910D403021129165
:1011400028460F9A149BB847109F00970197139851
:10115000801E454245412E4028220D9230460F996F
:10116000149BCD4EB0470097019411980540284636
:1011700012990D9A149BB04700940194139FF91E85
:10118000484248411E2563232946129AB0470094DD
:101190000194391F48424841382262232946B0470A
:1011A000B94E30780BF0DAFC5C250028284600D0D8
:1011B0003C204022214609F01FFBB84810990170DD
:1011C000284608F043FE30784100B24A555E1927A0
:1011D000394669430A0E8E18294608F07BFA1490A6
:1011E0003212722012990CF0CBFC149E7743380E09
:1011F0003818021254200E990CF0C2FC6801FF212D
:101200004900891C4018820D8018870A38465C30D6
:10121000C0B2720151188A0D89188E0A1D21891BCE
:10122000C9B207252A4609F0E7FA5937F8B2202152
:10123000891BC9B22A460CF085FC9848047015B089
:10124000F0BD08249849204615460CF0FBFBA81F6A
:10125000424242418B4DA87D8007C00F21460CF0D1
:10126000BDFBC007810FAA7DFD2313405918A97546
:10127000002825D1AD2040002818D5214900691843
:1012800088421DD200214256002A00D50170012259
:101290008256012A00DB4170401DEEE718FCFFFF7B
:1012A0008D0900204AF2000021EB00006E030020AF
:1012B0005BEE000087F60000C60900209F090020B1
:1012C0001398C01F43424341754FE85D8006C40F29
:1012D00010207649224608F0E7FEC107890EEA5D34
:1012E00020239A435118E95501263040A04202D0EC
:1012F0000AF0CAF9E95D13980838424242414806AB
:10130000C40F182120460CF069FBC107490EEA5DA5
:10131000BF2313405918E9553040A04201D00AF0CC
:10132000B3F90BF01FFB002869D0812268E0B07A86
:1013300000235F49009141218900C0B24218582022
:1013400010210CF037FB18205A490CF07BFBFF20D2
:101350004700012400251398082D14D05648305C0E
:101360002040411E8841009054484219062068439D
:101370004230C0B2182101230CF04BF913986400DD
:101380003C406D1CE8E7022819D141201721382282
:1013900009230BF063FB13981299602901D02E29C1
:1013A0000DD112980BF024FB0CF001FA4249705455
:1013B0003C480021017002200AF012FF1398C01E61
:1013C00042424241364C305DC006C00F20252946BE
:1013D0000CF004FBC007C00E315DEF220A4010186C
:1013E0003055139804282FD12B2004013057642145
:1013F0000BF0C8FB30552021149D0D4327E08022BF
:10140000602020210CF0A3FB139C204609384242A7
:101410004241687C304028210CF0E0FA3040697C81
:10142000FE220A40101868740A3C62426241C806F3
:10143000C00F30210CF0D2FAC007C00E697CEF2239
:101440000A4010186874FAE62B200001305CC2B222
:10145000782028212B460CF00DFB1398401F4342A7
:1014600043419F208400305D42093020144908F038
:101470001BFE4001315D1F220A4010183055DEE688
:10148000920900206E030020D009002098F400008B
:10149000FEEE000018030020619A0000970900206A
:1014A0007103000092090020C2E80000FDF2000074
:1014B0006CF20000ECEA0000AF02000031F5000021
:0414C000CEEF00006B
:1014C400F0B58BB0224901260E7022490978C9076C
:1014D40001D0042200E003221F4C214608F00CFA3C
:1014E40007461E4D2878401EC2B220463946FEF7F4
:1014F400E5FD1B4800780B2801D900F0FCFD01979D
:10150400029618490E7827780A9740007844808814
:10151400400087440B0029005B00AD00BE002A0197
:101524008101AA0186028E02AC02EF02F1480CF09E
:101534007FFA0848007801220240D11C0A322A703E
:10154400781CC2B2EC480BF021FE00F0D4FDC0467A
:10155400E4090020D4090020BD090020CF0900209F
:1015640081090020E0090020E4480CF061FA06201B
:1015740028702E25E248425DE2480090002F06962E
:10158400344600D000247620082123460CF010FABB
:10159400002CDB4E07D070570A212D220BF082FB62
:1015A40070550BF077FB1020D7490CF049FA312520
:1015B400705D0024012F00D00AE340B21521C94315
:1015C40016220BF06FFB7055069B02E30696CF487C
:1015D4000CF02EFA062028700820CD490CF030FAC1
:1015E40039465C27C64DE85DC41D4026002906D156
:1015F4000698064360B207210BF0C2FA0446E2B231
:101604006620082133460CF033FAE01FE8550A9EA1
:10161400701E434243414324285D8006420F10203C
:10162400BC4908F03FFD4007800E295DC7220A40EF
:1016340010182855B01E434243414F242A5D042A02
:1016440000D304221820B44908F02CFD0328069F77
:1016540000D907202855032E00D01AE34D2428571B
:10166400012164220BF01EFB285540233B4313E366
:10167400AA480CF0DDF9062028700820A8490CF0CF
:10168400DFF9002F00D1E1E32F209D49085C4023BE
:10169400E6E3A4480CF0CCF906202870002F02D110
:1016A400A1480921017079427941A048007800914C
:1016B400934C2246513208210A2308F077F9781E08
:1016C400434243414625605D4007C00F1021984ABC
:1016D4000CF0BAF8C007400F615DFB220A401018F5
:1016E4006055B81E43424341C806C00F1821914AB1
:1016F4000CF084F9C007C00E615D3A46EF2739400B
:1017040008186055D01E424242414C26A05DC006D6
:10171400C00F20210CF069F9C007C00EA15D39404B
:101724000818A0550A9F381F43424341605D800654
:10173400C00F2821804A0CF061F9C007800E615D5A
:10174400DF220A4010186055781F43424341A05DD0
:10175400C0093021794A0CF077F8C001A15D7F22DD
:101764000A401018A05500F0C6FC069674480CF008
:101774005FF909202870042F00D99EE20BF01EFAAD
:101784000825704928460CF05BF97A427A415D27B6
:101794005B4CE05D0126304029460CF01DF93040D9
:1017A400E15DFE22099211400818E0550A98401E96
:1017B400424242414627E55D3540102128460CF05F
:1017C4000BF908963040E15D099A11400918E1557A
:1017D400A84201D009F056FF0A98022801D000203F
:1017E400069049200990205C57490F5C0420574D0E
:1017F400C6B2002E00D18FE2062141435431C8B253
:101804000321394069184A781821069B06F0F0FF35
:10181400701EF9B28F08EBE74D480CF009F901206E
:101824002870002525704B4C019E072D00D176E1D0
:10183400E8B20AF0BBF90E21635E02B29A42014695
:1018440000DB1946E1811C23E35E9A4200DC184662
:10185400A083042D06D309B200B24018C10F40186A
:1018640040082080A41C6D1CDFE706963A480CF063
:10187400DFF8062028702D48007807900AF0C2FD92
:10188400800700D56FE2082034490CF0D9F8102005
:1018940000231B4D042B00D190E20490C1B2581CCC
:1018A4000390C2B20026304609930891334608F0EB
:1018B40023FE099948002F183A37042E00D3ABE0D1
:1018C40000240A98814209D1032017490870079817
:1018D400B042234603D10223069C00E023467F2026
:1018E4003040032800D994E001A1085C40008744FB
:1018F4003744627930EA000034C400003FF6000047
:10190400D6070020A5F5000096E7000050F400007B
:101914009CED000019EC000081EA0000B3F6000021
:1019240044E7000037F60000C60900209F090020A4
:101934001DF3000005F0000045F5000074F40000FC
:1019440093F50000EBEB000038F0000003F7000013
:1019540044F40000D20100202FF60000ADF2000094
:10196400787882090898EB4908F09CFB8001797823
:101974003F220A40101878704BE07878800685166C
:101984000D20684381B2890B4018821042200899C7
:1019940023460CF06DF8A0073BD51E20C1431F223F
:1019A40028460BF07FF93F2101407878C02202409D
:1019B400501878702DE03D7800940720059005407C
:1019C4002B46103348200899E94A0BF082FFA00700
:1019D4001FD5032128460BF0D3F805990840397820
:1019E400F82213E000203856C5105A2008992A46D8
:1019F400234608F045FEA0070BD50E20C1430F2255
:101A040028460BF04FF9C000397807220A40101815
:101A14003870761C099950E704980830039B0A9F94
:101A240037E7D4480CF004F81020D3490CF008F838
:101A340061E3D2480BF0FCFF0025E9B209297AD210
:101A4400E800032900D90838C4B26E1C72B22A20F7
:101A54000023214608F014FE0F35E8B208F0C4FC58
:101A64000246442021460BF0D2FF3546E5E7C44840
:101A74000BF0DEFF02982870C24800250570202074
:101A840006430696C04FEEB2082E68D2E800C4B2F0
:101A94001820412221460CF058F828463130C2B2B1
:101AA4001E2021460CF051F830460AF07FF8024619
:101AB4002A2021460BF068FC032E04D830460AF095
:101AC4006BFF401E02E0062E28460CD8C0B2400030
:101AD400385E19214143080E081802125A20214683
:101AE4000CF04CF804E05A202146069A0AF006FD50
:101AF4006D1CC8E7A5480BF09BFF029828707B4239
:101B04007B414624A24D285D4006C00F0821A14A0E
:101B14000BF074FFC007400E295DBF2277E12A2431
:101B2400202E9D4D285D9D49087000D1F0E1BF2E07
:101B340000D1F9E100E2102099490BF081FF002463
:101B4400E0B206281DD2E1003822551A08F04CFCF8
:101B54000246E9B220200BF05AFF641CF0E78F48DC
:101B6400029901708F480078002800D1C3E2302424
:101B7400874D28577E21C9437F220BF093F82855BF
:101B8400B9E254201821884A0BF0F3FF0025EBB288
:101B9400032B00D9AFE2E8002030C4B25420214620
:101BA400824A09F095FD6E00B01DC0B208F01CFC1D
:101BB40002466C2021460BF02AFFF01DC0B208F04B
:101BC40013FC0246782021460BF021FF6D1CDEE752
:101BD400234642B26020102108F052FDB81E424252
:101BE40042414C25705D4006C00F18210BF0F4FEF5
:101BF400C007400E715DBF220A40101870552025A1
:101C04000321E7B2022F31D23046002F01D05030E9
:101C140000E0483004780A988142089106D160B205
:101C240078210AF0ADFF0446069B00E00023E6B2EB
:101C3400052272430995EDB2662029460AF004FE96
:101C4400002E04D07820732229460BF07EFF002F4B
:101C54004F4E304601D0503000E04830099D08997D
:101C640004707C1C0835481CC1B2CAE70A98401F9E
:101C7400424242414624305D0007C00F30210BF040
:101C8400ABFEC007000F315DF7220A401018305533
:101C940031E24D20285C4023C2B2662020210BF0A3
:101CA400E7FE042E00D098E04E24285705210AF0C0
:101CB40067FF285540210F4392E0092F01D30827DD
:101CC40027700A973A4803210170314C5F34082188
:101CD40005260027042F00D10DE200200090CDB28C
:101CE400FBB21E2009912946324A0BF0F2FDF6B2EE
:101CF4000A98801B414241412F48007800910423F7
:101D04002946224607F052FE0999241D7F1C0831FA
:101D1400761CDFE7F8F300000698002805D0099D3B
:101D2400605717210AF02CFF605500252F46042D1B
:101D340071D01826304678432430C0B2EBB220214B
:101D44001A4A09F0C5FC5E20205CE840C00707D0B1
:101D54006E432436F0B22021122200230AF080F8C8
:101D64007F1C6D1CE3E71820EF490BF069FEC2E10C
:101D7400F5E4000027F6000020ED00003BF700002A
:101D84006EF70000D6090020180300208AF5000031
:101D9400D607002057F60000D20100208909002050
:101DA400DEEE0000920900205FF60000E2E700008A
:101DB400C609002079F100009F090020042F00D0FB
:101DC400D2E04A2428570921C94328220AF06AFF8D
:101DD40028552021069B0B43C9E04E20285C402750
:101DE400D9490091C2B2662028213B460BF0E0FDA0
:101DF400701F434243414624285D8007C00F3021B1
:101E0400D24A0BF021FDC007800F295DFD220A4054
:101E1400101828556FE10A98032800D0EBE0B84861
:101E24000078C00709D05E2560570F210AF0A8FE8C
:101E34006055C4480078400605D423201F215C2245
:101E440009230AF009FE4420205CECE02F24AF4D66
:101E540028571E2178220AF025FF285540233343B2
:101E6400C2B2662008210AF035FB4525A74C605D07
:101E7400012F08D140B20921C9436E220AF012FF92
:101E84006055334600E0002342B20A32702010212C
:101E94000BF0EEFDB81E424242414325605D01272E
:101EA40038401821A54EB04733463840615DFE22C4
:101EB4000A40101860550A9EF01E424242418807AB
:101EC400C00F20211F469847C007800F615DFD2287
:101ED4000A4010186055301F424242414807C00F63
:101EE4002821B847C007400F615DFB220A40101843
:101EF4006055701F43424341C8093021904A0BF09A
:101F04007DFDC001615D7F220A4010186055F2E03A
:101F1400401C7C490855C1B203290DD117200AF091
:101F240039FE01200AF05AF976480021015518209B
:101F34007C490BF085FDDCE0C0B20028F7D0022814
:101F440000D190E0012800D0D3E00024724E734FFA
:101F5400072C00D1BAE0AE83EF81E0B209F026FE8F
:101F64002880AD1C641CF3E74A20285C20236F49B9
:101F7400009140B20A3082B24E20302421460BF048
:101F840017FD32356A4E902C10D0287869780902F2
:101F940008183188081A400002B2E0B23821202320
:101FA4000BF066FDAD1CB61C1834ECE7052F52D1BE
:101FB40001986028029C4FD15D4908883222534C15
:101FC400A0545C4A002313703234CA88A2718B88EF
:101FD40023714988A170120AE2711A0A6271090A0E
:101FE400E170000A6070012420460AF0F7F8172017
:101FF4000AF0D0FD30E044250428605D13D14D493A
:102004000978002979D040B203210AF0B9FD615D55
:10201400C2B202238A4207D060554C21625C7F25FC
:102024001540655400E000233130C2B2122028214B
:1020340006F0DEFB0024E0B203285CD818256543D3
:1020440024350AF0A9FC0246E8B22821002308F04E
:1020540053FA641CEFE7002400203821364A234653
:102064000BF064FA47E02848002101700D20C043BA
:10207400264D00282DD023490A18135F1C26965F8D
:10208400F71AF9177F184F40332F1DD399B2B3B203
:10209400D689891B0AB2920E8A1812B29209891A39
:1020A4002A182B27D155D673370A1774F31A1EB280
:1020B400B60E9E1936B2B6099B1B5377090A16460B
:1020C4002B367170190A9177801CD2E710201449BD
:1020D40008E00AF033FB2B2168542B35000A6870A2
:1020E40010200B490BF0ACFC12201821094A0BF00C
:1020F40040FD08F01FF80BB0F0BD089B94E7C04604
:10210400D4090020D2010020D6090020D6070020DF
:102114008BF10000D3F1000068C50000983A00007C
:10212400B2F30000E4F10000C1F60000E6F40000A0
:10213400F8020020920900206AF70000EFD900009D
:10214400C0F30000A1090020F5F1000038F40000FC
:10215400F0B59DB0029002200A46149002401392FA
:10216400202008400690012603913140129144201A
:10217400D449085C8006000ED34908181190092040
:10218400C043099000271BA81A90D04C10971797AA
:1021940016971596072F00D1C5E0FCB2204609F02A
:1021A40005FD00B21994214608F0AAFA0446032F4B
:1021B400384604D82009C649C8551198C05DC5B22F
:1021C4006B00C448C452200F201800B20009010655
:1021D40001D5404200E080B20006BF4988420CDCD1
:1021E400002802D0BD48007800E0FF200121A9406A
:1021F4000140C8B2169901431691032F29D81298A9
:10220400002818930DD1B148007B800709D5AD484B
:10221400C6183A20305C3A36717809020818810BE6
:102224003FD1179E0698002803D0AD48C018F82166
:10223400445221B2284607F04BFA0446A9480078D4
:1022440019990BF01DFC189B40001A9908801796E9
:10225400159E0698002803D0A148C018E0214452D6
:10226400032F01D8002000E00120139900293146F2
:1022740000D0014600290ED1022D0CD00A2C02DC1C
:102284000998844204DA9648C018E0210022425298
:102294001BA80021C1521A98801C1A907F1C8B4CD9
:1022A40078E7000200B2C0120BF03FFC00282DD0EA
:1022B4008D480078002829D03078717809020918EF
:1022C40048070B460F91000F7E49091832228A5C99
:1022D4003231497809028918844A105A401A81B265
:1022E400C90B401800B24008990009B2890A414359
:1022F40008B21F210BF0A8F886000F98800B022863
:1023040007D00128189B06D1341904E0179E189BA6
:1023140088E73446189B022D00D0179E022D81D1E8
:10232400012010907EE7607CC0071AD06D480078C9
:1023340002210BF0A5FB04460AF012FB002800D092
:10234400644260B27D30E421654A515E012292020A
:10235400511A4143C817800D0818800A1BA98880A8
:102364005A4C0126B00205900698002800D1EDE0F1
:10237400647D1698044059480078FF2141400C427E
:1023840002D018200AF006FCF0205549059A0A529A
:10239400EE200A52514804704C48007E002830D088
:1023A400E2244F4A115F4943E627D25F524355184E
:1023B40040B20BF0D4FA03464043854221D91A9720
:1023C400F00301468AB25243AA42024600D80022D0
:1023D4004A400004400C114601430028F2D1404F0A
:1023E400385F584395B229461F460BF02DF83C49F7
:1023F40008531A9C085F784329460BF025F838499E
:102404000853324CA37D202B00D29FE00020139967
:102414000029024601460AD1E621314D695A1BAC16
:10242400E2885218E221695A64886118274CE47DD5
:10243400002C0CD0601EC4B26000142C03D32C4CAE
:102444000019283802E0264C2018E0300088DC0609
:1024540000D540421C0700D552425C0700D54942D2
:102464005B09022B06D0032B29D0042B42D1831AFB
:10247400841862E00BB2DB0B9BB25C0B0C1924B228
:10248400E4086442A4B28DB264195D0A4D192DB2F8
:10249400ED096D42ADB264199B09C91809B2890AE4
:1024A400494289B2611893B2DB0BD3181BB25B08A3
:1024B4009BB284B2E418631A641811463DE04418D0
:1024C40039E0C046D60700207DF200006E030020EC
:1024D4007609002018030020FFFFFF01A209002055
:1024E40008FCFF1FEA09002096090020F8020020DA
:1024F400B002002013B2DB0B9BB25C0B141924B2A4
:10250400E4086442A4B295B264195D0A55192DB267
:10251400ED096D42ADB264199B09D21812B2920A48
:10252400524292B2A2188BB2DB0BCB181BB25B08DF
:102534009BB284B2E418A31AA418F622FB4DAB5242
:10254400F422AC52401AF2216852F94CF949F6319E
:10255400179800B2002500918842304600DB2846D7
:10256400109909061599019100D001904020039912
:10257400014003911A34B0040D90032013904004D9
:102584000C90F0041090B0050790192008904005B5
:10259400E9492E460490102D00D1A0E300201190AB
:1025A40016952078401EA8421A9600D0ABE21498E3
:1025B40020560BF0A7FA1890F1B2DC481791451891
:1025C400C020285C1990C035139820560026159F0A
:1025D4003946324604F076FDE17800290ED0012117
:1025E4004840D6490978002900D0074662780D3A58
:1025F400082A00D30746002F02D009E0002807D09C
:10260400617A1F200840CE4A1278D040C00728D0F3
:1026140060782E700146083902290FD26179A279B7
:1026240012025118E279120489180C9A11400D9A79
:10263400914212D1169DC0491A9EEBE12D28169D98
:102644001A9E08D117988000B8490818F849119AB9
:10265400514309120164B849DCE1092821D0374605
:1026640021E0199E70424641631C6278501EC0B23C
:102674000B280E93199619D84100AC4A5118E02240
:102684008F5A012603284ED86079A27912021018B5
:10269400E27912048018079A104244D0F8200F5AA5
:1026A40041E0A44FE237601C0E903CE0132811D89F
:1026B4000D3AD0B241000328DE48405A08D8DE4A19
:1026C400511832228A5C3231497809028918401A39
:1026D400470027E023280DD86179A2791202511806
:1026E400E279120489181438079A4000114217D06D
:1026F400D24916E0242809D149B2C8B2400900D110
:10270400DCE1002900D5E2E10E21E1E12B2800D92A
:10271400CDE1400086494018C9494056C70001E050
:10272400C8490F5A01262E706079A1790902081848
:10273400E17909044218631D10980242129315D1DD
:10274400207A00281A9E12D040B27C21C9437D22EF
:1027540009F0FAFA0BF003F9129BC71918785978A3
:102764000902081899780904421800E01A9E100416
:1027740000D1C5E06E48407C00070F9201D51420BB
:1027840000E064200A90179A550068490B954E5B47
:1027940090000A18156C280A381A01B20A2902DCBA
:1027A4000998814206DA002E05D100260F9800060A
:1027B40004D100E000261998002824D00F980C9921
:1027C40008400D99884213D1207840009D49401853
:1027D4000121C943405E08998D0245431899002997
:1027E40006D0284615460AF02FFE2A46129B0546B7
:1027F400280A381A010409D000B20028199009D413
:102804000F98000907E019910B9909E0002019902D
:102814000B9905E00F980B990F2606400A9846433A
:1028240042484018403231B201290BDB864909780D
:10283400002900D0761E310402D006802F0A2BE036
:10284400099E093619990680002925D0179518780C
:102854005978090208189978090445182804000EC3
:1028640018D07948007800281A9E17D00F9218992A
:102874000029049A104607D0C81109184140C9B26A
:1028840010460AF0D9FE129B0B901998002807DC19
:102894000C2106E038B205021A9E29E0179D19E0C2
:1028A40008210F9ACD400F20284007D002461999DD
:1028B400002906DC0B984042179D04E038B205025B
:1028C40008E0179D0B980A9951430AF0BDFD45197C
:1028D400129B0F9A38B22912199F012F01DB8142F2
:1028E40004DC199F002F02D5814200DA05022F0A69
:1028F400156018785978090208189978090442185B
:1029040004202156100200121CD41A20C043814214
:1029140002DB1C2900DA80E07F20C043414038B24A
:102924000AF0B0FD129B0746169D2AE008FCFF1F23
:102934006E0300201EFBFFFFB4FDFF1F960900205D
:10294400EA09002008460BF0DDF801280BDB3AB257
:10295400002A08D56421081A424310460AF074FD7F
:102964000746169D0CE00028169D09D539B20129A9
:1029740006DBB9B26430484364210AF065FD0746BA
:10298400129B187859780902081899780904401894
:10299400C1030AD40E9909784A1E032A05D84900AE
:1029A4001BAA8918891E0988CF1939B2189F4F4369
:1029B4001099084216D0217A002913D048B27C21FC
:1029C400C9437D221D4609F0BFF90AF0C8FF6421FE
:1029D4004143CF192878697809020818A978169D07
:1029E40009044018C5494003800F02280DD001286E
:1029F4000DD1642138460AF027FDC049119A42439B
:102A0400D017800D1018801203E0119702E011987E
:102A140038181190761C0A34C3E506291BD8169D74
:102A24007944097949008F44111224282D343A003D
:102A34008F020000F8020020D60700209002002038
:102A44006D020000B00200208409002099E738B22A
:102A5400002896DC1BE00029169D00D57F42002942
:102A640001D50620411A38B2C91FC9B20AF01BFBAE
:102A740085E738B2C013074083E738B2C0133F1864
:102A840047407EE738B20028059F00DD79E700273C
:102A940077E79848E23039B2CF13074071E738B28C
:102AA4000028059F00DD6CE7924FE23769E72C2888
:102AB40018D1642111980AF0C7FC19E0122007F01C
:102AC40093FC0126002815D08A4FE2372BE611210A
:102AD400081807F089FC0028059F00D022E6854FDE
:102AE400E2371FE62E3AD0B200210A4606F0DEFA9B
:102AF400074617E6132007F077FC002801D1059F4D
:102B040011E600270FE600227B481792027008782E
:102B140000281ED00F466426119831460AF094FC12
:102B240001467248007840003818C0884843A9001C
:102B34007918069A002A01D10A6980180861039954
:102B4400002900D1C7E06D4989880AF07DFC46431D
:102B540000E0119E642130460AF076FC6A00644964
:102B640018928852052068435F4D2918AD20400013
:102B7400199111900B18D97804200E901A5612024C
:102B840052182B210901695C4D42AA4200DB15460B
:102B94008A4200DC294601200F901B560A256B430C
:102BA400059FFB185B18183B18B2E237B84200DBEC
:102BB4003B4618B21290824200DC13461998119ACF
:102BC400805645434B4A50194518FA3528B290426D
:102BD400179F00DC474D18B229B21191884200DBDF
:102BE4001D46002E0CD0002E02D41298401B01E08A
:102BF4001198281A00B2704341490AF025FC07468F
:102C040028B2404DA847C61937B21298A8470546BE
:102C1400874200DC35462FB211983A498847064668
:102C2400874200DB2E46572080001999085C002853
:102C340000D07642169B9F2080002B4A105C1F21F7
:102C440001401020401AC0B283423CD21898151893
:102C54002D4AA85C8000010635D0AF1840B2801020
:102C64000AF063FF39788A090146032A24D300282D
:102C740017D11C4A0E9BD25E1B4B244FDB5D9B0677
:102C840004D4009B9A4207DB159A08E0D313D218A8
:102C94005A4012B2142AF7DA019A0F9B5A40002ABA
:102CA40003D1012250401A4A1070194800780028B4
:102CB40000D10F9910480170002904D015482856F6
:102CC4000AF04DFE06460AF06CFF02981899465227
:102CD4000AF065FF169D6D1C08491A9E5BE41DB041
:102CE400F0BDC046180300206E030020EA0900204E
:102CF400B00200201EFBFFFFD2090020B4FDFF1F1D
:102D0400A086010055DA00007D0200007103000076
:082D1400AB0900207E02000063
:102D1C00F0B585B0F34800250570F348078808F036
:102D2C003DF9F2480168F24A12680260501AF14CFF
:102D3C002070F14E3078002803D1F048002104F0C7
:102D4C00EDFF2078002800D1B9E2FC480178002979
:102D5C0001D0491E01700AF045FDF9498A8890425C
:102D6C002DD14520F74A105C0A3002062CD0F64AC9
:102D7C001278322A28D30A78521C0A70D2B2102A3E
:102D8C0022D300220A704A88521C4A80FF217831D3
:102D9C00C0B2484380B291B2884215D21F20024083
:102DAC00012A11D1E9480178FD220A40027006205F
:102DBC0009F09CFE10202D2109F0C0FD04E04D808F
:102DCC008880E3480121017002F0F6FD09F0A8FDAE
:102DDC00E0480178002901D0491E0170284605F011
:102DEC0011F909F08DFEDC48047805703078002864
:102DFC00039501D00294FAE101970F202040801F27
:102E0C00D6498F7C042F03D0032F02D1042700E076
:102E1C0008277C21C9430491C0B2072804D8F021AB
:102E2C002140202900D088E04020204340281CD19C
:102E3C0027460020C543CA4C2078411CC8B28842A2
:102E4C002E4600D1064609F03BFD002800D106466F
:102E5C00F0B2C82800D035462570C82802D0039D92
:102E6C003C4602E04220C443039D0C20BD490A5E4F
:102E7C00BD48415F891ACB0EC9184909090493B2A0
:102E8C00294606D003800421415E891ACA0F89188D
:102E9C0049108380B54A1278002A00D02946462270
:102EAC00A84EB25C920600D529464180B04F787985
:102EBC007978091ACAB2D2098918FE220A40101868
:102ECC00787148B2401038722043C0B208F052F901
:102EDC00A84800788000A84909585C20305CC01DC7
:102EEC00A64A914200D0A9E0A54909780029049B83
:102EFC0000D0A4E0397A00290CD000223A720622C4
:102F0C00BA5649B25118994200DC19467D2900DBAA
:102F1C007D21B9719F218900904A525C510900D1E1
:102F2C008DE050B200287DD448008E494018C088EE
:102F3C0001218A028018C9027BE04421814E715C18
:102F4C008900904A51184008085C5D21715CC907E2
:102F5C0001D00321081AC5B28B48007829460AF023
:102F6C00EEF9009029460AF087FD002F08D1C11315
:102F7C0042184A4011B2890F511889B289084F1C66
:102F8C00022D10D14621715C804A744B9A5C9209D7
:102F9C004A40D2075B7C0121194000D00227002A4D
:102FAC0002D07F4200E000212E46E2077AB2029462
:102FBC0000D15242121893B25C1EA34114464440F5
:102FCC0024B2049D7C35AC4201DC002400E00124D9
:102FDC0023400B430FD100280DD000270098314619
:102FEC003A4607F077FF029809F0FCFC162009F02E
:102FFC00CDFD3C461CE717B238467C3080B2F82831
:10300C007ED8009831463A4607F064FF78B2C0117A
:10301C0039184140C8B281083C31152009F0DEFD59
:10302C00002405E748004D494018594940567D3069
:10303C00FA2182B2072050430AF0FAFA049B029458
:10304C0054490978C0B2884202D009F04FFD049B64
:10305C004C203056504C002826D52078002823D000
:10306C004E48007800283D4A00D19DE000244C4D8C
:10307C002857002801D4401C2870022008F0A8F81A
:10308C007F260146314014D02A788A4225D92C70EB
:10309C0002990906FA4A049BFC4C00D084E040B229
:1030AC00002849DA63207EE0F94800210170F44AD7
:1030BC007AE0032008F08CF806400ED02978B14253
:1030CC00EF4A049B0BD92C7002990906EF4C6BD17B
:1030DC0040B2002866DA642065E0E94A049BEB4CB8
:1030EC0062E0C046EB0900205403002020FFFF1FC4
:1030FC0018FFFF1F84090020EC090020900200201B
:10310C00002F049A00DD7D220098314607F0E2FE84
:10311C0038467D3080B20024FA2800D988E678B28F
:10312C00C01139184140C8B280083C21081AC1B2FC
:10313C00152009F053FD7BE6622034E08D09002058
:10314C004C030020D60700209E090020D409002043
:10315C008709002096090020900900206E030020AA
:10316C00C9090020180300203A0300208909002017
:10317C0065090020A00900209CFEFF1FFD34000003
:10318C007A0900207DF20000EA090020710300009A
:10319C00B5020000E9090020D6090020D50900205D
:1031AC00A60900206520029001202070BF79002024
:1031BC00C14CC5B2062D18D8680016185720C0008F
:1031CC00305C00280FD00528394604D007F0FCFBF2
:1031DC00049BAB4A014648B2984200DC18467D2855
:1031EC0000DB7D203055681CE3E7019F039DA94C53
:1031FC00206800280DD00025294607F05FFF0AF053
:10320C006FFCA5490A78012A1CD100281ED1256023
:10321C001CE0A1480570A1480478002C04D005706E
:10322C00172009F0B3FC02949D48029A02709D4845
:10323C001421017093480078800093490958D0B24A
:10324C00884703E0002801D00120087006F0B4FF85
:10325C00954800781F21014002292DD1934805780B
:10326C00103505700E209249085E410F411809B2C5
:10327C00C9083022804CA2564A430001101880B273
:10328C00A52149000AF0D4F97C490A781018401C91
:10329C004008087029060FD12F21615CC0B2814211
:1032AC000AD911202E2109F049FB4620205C000789
:1032BC0002D58048322101806E48039901707F4805
:1032CC000178032901D10021017069480088C01BD5
:1032DC0082B27B490B889A4200D90880794EF078EB
:1032EC00002800D1B7E078480188491C01800020F3
:1032FC00634DC7B20B2F00D987E0032318467843E0
:10330C002C184B20C00021180391744961180291AC
:10331C00215C0F22084604921040714A1018401E7E
:10332C0000780328019307D178006E4A125E002AB8
:10333C0004D00CD4561E1DE0049A2CE00022029BF3
:10334C009E56002E16DBF2430A26564312E092B22A
:10335C00561CB2B2B2420DD003227A43AA18624B69
:10336C00D256002A05D4521C52B20A2353435E1E75
:10337C0000E0D6435B4A151808090AD0082800D982
:10338C00401C0AF0CEFB002801D1504E7C3603982D
:10339C000178049A2E8011400C295448C55D08D13F
:1033AC000026029880570AF0BCFB002803D00126A7
:1033BC000CE02E460BE003207843314908184A49AB
:1033CC0040560AF0AEFB002800D12E46049A039812
:1033DC00007810400D282A4D13D100200299085670
:1033EC000AF09FFB00280AD0B0070AD43E482056AA
:1033FC000AF097FB0028019E03D1022601E0FD2074
:10340C0006403A48C655781C73E709F009FA0024BF
:10341C002C4EF4702F462E4D785D00281BD02D4875
:10342C0038560AF07EFB00280AD0785D811E0429EC
:10343C0009D2C8B200210A4605F034FE044606E063
:10344C000020014605E0012801D12348C46D20B2BB
:10345C00012105F05BFA7078002807D0002070700D
:10346C000B480178002901D0491E017005B0F0BD50
:10347C005403002087090020D60700209E09002055
:10348C006E030020A00900209CFEFF1FD60900201F
:10349C00D50900203CFFFF1FA7090020E1090020EF
:1034AC00D3090020D7090020A1090020A809002079
:1034BC00E802002058030020B70200009D090020FC
:1034CC0056030020FC0900206203002083FF00004B
:1034DC00ED020000EE02000008FDFF1F5602000086
:1034EC002CF30000D0020020570200004F090020EE
:1034FC00F0B587B0F24900230B70F24CE17C7022DE
:10350C000F46059217400F220D4606921540EE4AC3
:10351C001278002A04933AD003971420EB4F3856B4
:10352C000AF0FFFA0446EA4E002804D0307800284E
:10353C0001D105F04BFD3470E8B2042811D11120F3
:10354C0000900025E14C0A232846294622460AF021
:10355C005AF8DC480078EE490978814243D3284672
:10356C0042E00390D7480478E94805780A26782E7B
:10357C0008D03A78F0B20021042305F035F97F1C0D
:10358C000B36F4E7A54200D2A9E08422A8E002465B
:10359C00803A0E2A00D88FE10246203A0E2A00D932
:1035AC0013E252007A449288520097440F000E00A6
:1035BC00CB02CF02D302E4020E000E000E000E006E
:1035CC000E000E000E000E000F00A5E7042DA3D177
:1035DC000024BD4A54700121117009F003FACD4842
:1035EC000470042598E70120039E420054202946CC
:1035FC0008F080FF6F2029462A462B4609F0D6F9A1
:10360C00382007F01DFF302E00D195E1202E00D17F
:10361C0095E1102E00D0A1E11825284607F0B8FE40
:10362C000826BD4930460AF007FABC48205C401E0B
:10363C00C0B207F08FF915214901625C61180123B2
:10364C00C95609028918B64AA75CA218D2561202AA
:10365C00D2199042134600DC034618B28842084641
:10366C0000DB184600B2431A64205843511A09F083
:10367C00E7FE0746C0B2009019200921502206230C
:10368C00069309F014FE3AB2792031460AF072FA28
:10369C00F7480078252231460AF053FA2826F749D4
:1036AC0030460AF0C9F9F648425F0527C424009455
:1036BC000197122020252946069B07F0D3F84020BD
:1036CC00F54A31460AF051FA1C20ED490A5E009485
:1036DC00019752200723294607F0C4F8A1E186225E
:1036EC0025201025294608F005FF262018265622ED
:1036FC0031460AF026FA5D200027042329463A4673
:10370C0009F054F9332031463A463B4606F046FB65
:10371C0008F09AFC00280CD00246262510212846D9
:10372C0008F0F6FF25200F2109232A4609F090F90D
:10373C0077E06648837C0020009026201021D74A31
:10374C000AF0C3F86DE0304609F022F90546D4487A
:10375C00007831460AF090F9C1138A0F821812B220
:10376C009410002801DC204600E00120220600D144
:10377C00441861B21B20C043814200DC044660B295
:10378C001C2800DB1C247F203840C6494919491EDF
:10379C000D7801280BD0022821D10421362228468D
:1037AC0007F024F84948407CC00705D014E00421F8
:1037BC003622284607F01AF8681EC0B21E26069755
:1037CC00032731463A4607F011F8681CC0B231465F
:1037DC003A46069F07F00AF81F20011B18E02846FE
:1037EC001B38C0B23B2105913622AF4B9847681E5F
:1037FC000697C7B23A21032638463246AA4B984759
:10380C003C213846069F3246A74B984705996519C7
:10381C00E81EC0B2C91EC9B20722134609F06CFDDE
:10382C007F1CFEB2032E8ED9039E012E38D80024A5
:10383C00F74D082C00D1F4E02A88012E05D0002E7B
:10384C002BD1042C05D3302104E0042C1CD35E2096
:10385C001BE0282110B2C00B80B2C30AD3181BB2D4
:10386C005B09D31A400A101800B2C009181802B22A
:10387C000320204036234343123358081830C0B27B
:10388C0020230AF0F1F808E022200323234005212D
:10389C005943263112B206F01BFDAD1C641CC8E75F
:1038AC00022E7ED106F042FCD048057806246C43EB
:1038BC00002D7DD128467CE0910006A251588F4600
:1038CC00D6090020050800207A0900206E0300208C
:1038DC00A909002033390000FB3A0000073B000027
:1038EC001B3B0000293B00003D3B00003139000030
:1038FC003139000031390000313900003139000014
:10390C003139000031390000313900003339000001
:10391C009E090020D309002040F700009F02000000
:10392C00A2020000F8E50024AE4A54700221117086
:10393C0009F058F8B3485AE01020B64905E0B948E8
:10394C00007800286DD01020B749B34CA047182040
:10395C00B249A0472020B249A04762E03F2008218D
:10396C00302206F043FF0520C543002D59D06019C5
:10397C00AF49405C002812D0AF1D461EF0B206F0D5
:10398C00E9FF03460420009006980190F900059881
:10399C0001401031F807400E72B203F069FE6D1C45
:1039AC00E3E73C2028210122042308F0FFFF38E044
:1039BC00E01CC1B20A2008F0EDFD002D19D0A01DAD
:1039CC00C1B2642008F0E6FD2BE0612800D1E4E0F0
:1039DC00BF2800D0A0E50124834E2046B047032029
:1039EC00B0470220B0478148002101708048047024
:1039FC0092E564242826844A204631460AF0B5F81C
:103A0C00722507222846314609F0FBFC30267F4AF6
:103A1C00204631460AF0A9F804222846314609F01E
:103A2C00F0FC704C207800285FD0012807D1814829
:103A3C0003210E2204F036FE0522049B06E07E488C
:103A4C001F210E2204F02EFE049B1A467B498B701C
:103A5C0001284AD1A0788018C0B2062845D8C046A3
:103A6C007844007940008744050D212C30343A000D
:103A7C00DE090020624808F0B3FA36E076F7000061
:103A8C0008FDFF1F7248002101705B480121017085
:103A9C00704808F0A5FA28E072F7000028F2000040
:103AAC00EA0900205EF7000045DB00000120887069
:103ABC0065480078800065494018406808F090FA25
:103ACC0013E04E4808F08CFA0FE04A4808F088FAE8
:103ADC000BE090205549085A40425A4904E08C208A
:103AEC005249085A40425649088007B0F0BD09F0C7
:103AFC0057F80AF030F8172063E004200743E77406
:103B0C00172009F043F8822008F06CFFEDE73948E4
:103B1C0008F066FA832008F065FFE6E736480121D5
:103B2C000170374808F05CFA842008F05BFFF3E47E
:103B3C00314801210170314808F052FA852008F013
:103B4C0051FFE9E4002D2BD06D1E2AE0032D30D857
:103B5C006D1C2FE006980140042938D0022900D0B2
:103B6C00DAE422480178491C4AB2022A00DD00211D
:103B7C0001700225D0E406980140042924D00229C2
:103B8C0000D0C9E419480178491E4AB20225002A1E
:103B9C002A4600D40A460270BEE4042D1DD0BBE4B4
:103BAC00042528463843E074A12008F013FB1420A8
:103BBC0007E0002528463843E074A12008F00AFBF2
:103BCC00132008F0E3FFA7E43846303001E0384614
:103BDC00103030210140081DE074172008F0D6FF8A
:103BEC00042599E47A090020F1C90000C7090020D6
:103BFC00A90900205595000089090020C514000072
:103C0C0085560000D30900209EF700009BF70000AA
:103C1C009002002006F2000045DA000040F100009E
:103C2C00F1F40000000A002017F2000008FDFF1F4D
:103C3C00B702000004F100000DEA00008109002029
:103C4C00680300206C030020A00900209CFEFF1FCD
:083C5C00D8090020110400004A
:103C6400F0B58FB004463148007809F023F80546D2
:103C74002F4F0E22384607942146FCF71FFA2D4891
:103C840009F0D6FE2A78801DC0B2002421462346BE
:103C940009F0C6FE3F57384608F0BCFC069026489B
:103CA400027808202549029009F002FD2B46F8B25B
:103CB4000890E0430390691D0D950591E0B2072833
:103CC40000D31DE206982018C0B2089981420C94D2
:103CD40001D0002601E01A490E780E2800D90CE222
:103CE4000C99CD002C460834810001A251588F460E
:103CF400493D0000693D00007D3D0000913D00000C
:103D0400AB3D0000C53D0000E73D00001F3E000044
:103D14007D3E00009B3E00002F3F00005F3F0000FF
:103D24007F3F00009F3F0000C13F0000CC090020FE
:103D3400BB09002063F500008C0900209BE500000E
:103D4400E00900205D78E1B21C46F3B2542022461B
:103D540007F04EFB252D00D043E1607A4509253557
:103D6400234642E102201A56E1B2F3B2602009F080
:103D7400EBFD0D9B9870C0E102981A56E1B2F3B2C4
:103D8400602009F0E1FD0D9B1872B6E1059DA8784D
:103D9400E1B2F2B20007C00F09F01EFE0D9BC0078E
:103DA400000BF721D1E0059DA8784006C00F597893
:103DB400042900D929E1E1B2F2B209F016FE29E1A1
:103DC400059DA97801200840E1B2F2B209F00DFE88
:103DD4000D9B7F214904AA7812040A40C007C00B36
:103DE400B7E0059A10785178090208189178090407
:103DF4004018C50D000200120399884200DC1CE142
:103E0400042018561A21C943884203DB1B28C54ADB
:103E140000DA13E10225C44A10E1059A10785178BA
:103E2400090208180221515609044018042503996F
:103E340088425F5700DC1FE11A20C043874202DB3F
:103E44001C2F00DA26E17F20C04347404020304346
:103E5400C3B2E1B266203A4609F00AFE300606D043
:103E64006320C1436422384608F01CFF07460D9BBB
:103E740080207840187140E1F3B2581E1946814100
:103E840003200D9A12560091E1B24E2009F018FB5E
:103E94000D9BD87031E130060A9002D004209B4972
:103EA4000870072009900543049500260121F7B204
:103EB400042F00D921E1587A0E9108401F210B915B
:103EC400084043424341099D754328463F30C0B2F0
:103ED400E1B232463032D2B204F08AFC0A980028A9
:103EE4001DD08B480078B84219D10498C1B23E3530
:103EF400E8B20822092308F0AFFD07982E2801D064
:103F040020280CD10E980B9A02400D99487A504003
:103F14004872022008F062F900207E490870761C7D
:103F24000E980006C10D0D9BC1E70899081A43427B
:103F34004341059DA978E0B249078A0F724906F00A
:103F4400B1F80D9B8007400BF9210904AA781204EB
:103F54000A408018000CA870CFE0059F3A780F251E
:103F64002A40E0B2F1B207F003FE0D9B28403978F5
:103F7400F0220A4010183870BFE0059D2A78E0B29C
:103F8400F1B21206120F07F0F3FD0D9B0001297820
:103F94000F220A4010182870AFE0059D6A78E0B23D
:103FA400F1B21206120F07F0E3FD0D9B00036978CE
:103FB4000907090D4018000A68709EE0059F7A7889
:103FC4000F252A40E0B2F1B207F0D2FD0D9B290380
:103FD4007A7812020A400007000D8018000A7870EF
:103FE4008BE0252D00D9AD1D0D9B300600D184E05A
:103FF40068B20121372208F055FE0D9BC1B2252974
:104004007AD32C2970D3801F76E0E1B2F3B2474A09
:1040140009F01AFC29786A7812025118AA78120455
:104024008918384A114029700A0A6A70C007400A80
:104034000843000CA8700D9B5FE0394AE1B2F4B26A
:104044000620234609F072FA002C0D9B55D002215C
:10405400284608F095FD0D9B85424ED0811E4A42AC
:104064004A41D1011971C005059A91784906490A56
:104074000818000C907040E06420F1B200900191A7
:10408400E1B26320C34348203A4606F0DFF80D9BB3
:10409400187132E0E1B2F4B20C203A46234607F03C
:1040A40037FE0D9B002C28D058570F21C9431622E8
:1040B40008F0F8FD0D9B1871079960291DD1072898
:1040C40007DBC01F14490870144807F08DFF0D9BCF
:1040D400187941B2002910D5C0430F4908700F4820
:1040E40007F082FF0D9B08E0597A1F220A40400125
:1040F400801860305872252058700C9C641CDDE5D3
:104104000FB0F0BDFFFFBF00B2EF0000C6090020F2
:104114009F09002092090020CE090020C9820000D6
:1041240015F70000FDF600001BF7000059F300002E
:10413400F0B587B006460E4809F07AFC0D480778BA
:104144000D48007804900D4CE07B069008200C4943
:1041540009F076FCE07B0F2105910840032800D983
:10416400C7E1C04678440079400087440B26597D56
:1041740081F50000B4090020E00900206E0300204E
:1041840021F70000FA48052531462A46FBF796FF39
:104194001020F84909F054FC607C0026012F00D05F
:1041A40080E04009072108F0EBFC617C1F220A40F3
:1041B400400110186074012375E0ED480422314673
:1041C400FBF77CFF1020FC4909F03AFC012F0AD1CF
:1041D400102130220020034607F042FE602E02D157
:1041E400FD4807F001FFBF208000205C400703D199
:1041F4001820FA4909F024FC032F00D17FE1022F93
:1042040000D09FE118213022002528462B4607F0D4
:1042140027FE602E00D085E1F14807F0E5FE81E13C
:10422400E64802223146FBF749FF1020E74909F02E
:1042340007FCE74D605D6619717809020818012FC3
:1042440045D100B24B218A00C832E249022303F06F
:10425400A5FC02466055000A7070D94803786620B0
:10426400102109F005FC46E1D44808223146FBF749
:1042740025FF1020D34909F0E3FBD34E3278012FF8
:10428400039733D107252A40002110462A4608F017
:1042940009FD28403178A9430A183270C8483546C8
:1042A400067825E03346C0B2420931323C20102161
:1042B40004F09EFA207C022F00D09AE040B2012143
:1042C400C943042208F0EEFC2074049992E002B27F
:1042D4006620102100252B4609F0CAFB002F00D1CF
:1042E4004AE1022F00D007E118203DE135460026BF
:1042F40007273A4066201021334609F0B9FB6A7853
:10430400039802280CD13A40002110463A4608F09E
:10431400C9FC38406978B9430A186A70A848067815
:1043240002973A40662018210F46334609F0A0FB55
:104334006878039903290DD1C006800F0021072254
:1043440008F0B0FC8007C00E6978B943081868709B
:104354009B490E78C006820F6620202739463346D3
:1043640009F086FB6878039904290DD18006C00FF3
:104374000021032208F096FCC007800E6978B94337
:10438400081868708E490E788006C20F66202821AE
:10439400334609F06DFB6878039905290ED1400670
:1043A400C00F0021012208F07DFCC007400E69788F
:1043B400402291430818687081490E784006C20F64
:1043C40066203021334609F053FBAA780398062867
:1043D40024D1029E324000211046324608F062FC8D
:1043E40037463040A978B1430A18AA707448067851
:1043F40015E031460091801CC3B23C201821794A53
:1044040009F067FAE07C032F32D140B20321C9439B
:104414000A2208F047FCE074049B2AE0029F3A4019
:1044240066203821334609F023FBA8780007C20F21
:10443400039F072F58D100210491012710463A46C3
:1044440008F030FC0246C007000FA978F7230B40A0
:104454001818A8703A405A48037866204026314616
:1044640009F006FB3046394607F0DCFB049D43E0C7
:10447400334640B2322141434B2080000A184C207D
:104484002026314609F0F4FA5749304609F0D8FAA3
:10449400607E042F07D140B21321C943142208F0CF
:1044A40001FC607621265149009140B24543E13533
:1044B400AAB24C202821334609F07AFA781F4342E5
:1044C4004341A27D0126324030254949284605F062
:1044D400E9FD3040A17DFE220A401018A07545492F
:1044E400284609F0ADFA04E066204021334609F07D
:1044F400BFFA002F40D00025069E059F4AE0344DA8
:10450400605D661901217156090208184B218A0061
:10451400C8323049022303F041FB6055000A707031
:1045240027480578069E059F2948215C201801220A
:10453400805600024218662020212B4609F098FA82
:10454400002527E02248215C201801228056000221
:1045540042186620202100252B4609F089FA002FF5
:104564000AD0042FC8D12820012107F05BFBC3E740
:10457400B4090020CBEC0000E07B059F3840032108
:1045840008F0FEFA3840E17BF0220A401018E0738C
:10459400069E049DE37B00953B4024200821164A97
:1045A40009F097F9E07B7040000703D000202074E5
:1045B40008F008F807B0F0BDEBED0000B4090020E6
:1045C400E0090020B9EB00007E0900202CF1000076
:1045D400F10200000CFEFFFF15960000DCF3000062
:1045E4004978000078EF00008AF7000077F30000B4
:0C45F4006DF50000D2F500005AEF000049
:10460000F0B58BB00546E14809F014FAE04C20788B
:1046100000281BD0DF4A117A002010724AB2012A0A
:1046200001DB622200E06322002900D01546DA494E
:104630000978002901D1632D05D0D84A125691423C
:1046400002D1622D00D10546D5480570D5480078C5
:10465000002805D1D1480278CF482946FBF730FD24
:10466000CF4E3078CC4909780691012103912E284C
:1046700003D0BF280AD060280AD1C5490A78002A89
:1046800040D0F948002202700A70F84C00202070D7
:104690000295069840B207F0BFFF0146F84800783F
:1046A000002801D000203070F148007800280791E0
:1046B00040D0F2480778622F01D0632F3AD13E46AE
:1046C000623E701E34468441EF480578284608F063
:1046D000F3FA002D0AD1002C08D00178022901D369
:1046E000491E0170022007F07BFD23E0202D21D818
:1046F00001D1622F1ED00021622F0A9107460BD0F4
:10470000C8430AE0DE4909780029C1D108F070F9F0
:10471000002003903446B9E701202D18E8B208F0D4
:10472000CBFA3978002905D0102903D80278102A4D
:1047300000D875E1012000263546C1B2102900D904
:1047400009E10A910890F0B2099008F0B5FA079BC8
:104750000446EFB29F420BD3F81A062808DCC000CB
:104760000830C1B2012000230A9A09F05BF9079BC7
:1047700009981F2800D9C4E020780A99884200D0FF
:10478000BFE0BC4A0F46E8B2984200D2AFE0C11A7F
:10479000062914DCCF00B64909780022002927D168
:1047A0000699C9B2814223D10898B9490870B64820
:1047B00006700398002813D0B148007816E0072946
:1047C00000D094E0AA480078002800D18FE0AF48DC
:1047D0000078F1B2884200D089E01078401C81E076
:1047E0000120A7490870002202924A7042424241C9
:1047F00005920837F1B209980491884209D0E0790E
:1048000000210091F9B24007830F1320A54A09F057
:1048100062F8FFB2302000233946224606F0EAFD56
:10482000022022562D203946059B09F08FF8A070F2
:10483000E078002805D042B248200023394605F030
:1048400021FF207900281DD06179A2791202511828
:104850000722A256120489180BD401461B31C9B293
:10486000362909D842B260200023394607F052FAAF
:1048700008E06020642201E06020452200233946E0
:1048800003F0B8FF6079A17909020818E1790904F9
:104890004018FF210902014001D0532200E02022EC
:1048A000002901D02A2100E04421000600D00A4658
:1048B0007920394609F04BF96D480078002813D06B
:1048C00072480078049988420ED11820662200238D
:1048D000394607F0C7FA6C48067028460695654ABF
:1048E000079B0A9F107002E0624A079B0A9F6D1C9B
:1048F000F0B21E2823D8761CA07A0A34B8421BD105
:1049000041E70698C0B2B84215D15F4806700898D2
:104910005F490870E81AC000C01DC1B20024192206
:104920000923204608F09AF80398002803D107F0DD
:10493000E3FE002805D06D1C0898401CFDE62026EB
:10494000FAE751480078214606F07EF8484804709E
:10495000504807F04BFB4A48007800285BD002988B
:10496000464C20704C483F210B2203F0A1FE012849
:104970004AD14348807805282FD8C046784400792A
:10498000400087442011222A2E33C046F7F600004B
:104990008E09002065090020C40900208F0900202D
:1049A000D30900207A09002007F0A6FE00280AD1CA
:1049B00035490878401C0870C0B20024214606F032
:1049C00043F82B480470334819E02F490878401CFD
:1049D0000870C0B2012106F037F8012024490870A0
:1049E0000FE0294800782D49087002E02B48FF218C
:1049F0000170207807F0FCFF00202070284807F0A5
:104A0000F5FA00201E4908701E48002101701E485A
:104A100000781E490870681E174908700BB0F0BD79
:104A20003B468A420BD10A210A060CD002781C466A
:104A30001B7803702270631C401C491EF4E7102988
:104A400004D30A9A03E0114805704BE60122704234
:104A50007041104002462243012A00D042E6091B61
:104A6000081818703EE6C04692090020D8090020B8
:104A70008E090020C40900208F090020D3090020DE
:104A80007A09002092090020CC090020CA090020E0
:104A9000CD090020653C0000C4ED00009B0900200A
:084AA00099AB000059F700007A
:104AA800F0B58BB00990FB4808F0C0FFFA4C2078AD
:104AB800421C4E200025294609F05EF8217809227B
:104AC800104607914843F5490C18F54EA05D40077C
:104AD80000D00A22F34F38460999FBF7EDFAA619D8
:104AE800F14824187F57052F089406960A970EDC7C
:104AF8000820FA4908F0A2FFED480078099008F06C
:104B08005BF82078002F00D18AE000238EE005951D
:104B18000825E649284608F091FFB81F434243415B
:104B2800E3480078049030784006820FE149E24C6F
:104B380003952846A0478007400E31789F220A40F7
:104B480010183070F81F43424341CA091020DB494E
:104B5800A047C00134787F21214008183070083FF1
:104B68007B427B4107252C401820D5492246D24F4D
:104B7800B84728403178F8220A4011183170A0420D
:104B880009D00921079A5143C44A5118EA01059BE3
:104B98008B5489184B70002868D02020C94908F028
:104BA8004DFF06980178294028200A2402290A9BEB
:104BB80000D1FEE0012900D014E1069009200799F0
:104BC8004843B6490818E901425C4518687800026C
:104BD80080187D218E00092B0BD100B232460B3292
:104BE8000021022302F0D8FF2870010A6970049995
:104BF8000591F11D02B28A4200DCF8E06C20202702
:104C0800B34A39462646059C234608F08DFC287889
:104C18003530C2B278203946234603F0E7FD16E165
:104C280040B25E2107F0AAFF2070099BC2B2602043
:104C3800082105F05FFC2078002822D0401EC0B271
:104C480005F036FF06460820A54908F0F7FE20784B
:104C5800252811D38221002200920191253842B2E1
:104C680048200821334602F005FD0AE020200926E5
:104C7800089D0A9C8B4FEEE048200821324608F038
:104C88007BFF09200799484384490E189549705CB1
:104C98000A9A012A08D1751840B2062107F06EFF5A
:104CA800287009990A9C01E000211446C3B2042B1C
:104CB80004D800914E2010218C4A05E00091401F35
:104CC800C3B24E201021884A08F001FE022C14D1EC
:104CD800874864210170874D705D771901217956E5
:104CE800090208187D210A028349022302F054FFB1
:104CF8007055000A7870099B00E000230898007836
:104D0800252810D37B49725C7118012549578225E3
:104D18000093019509028B18253842B27820182192
:104D280002F0A8FC0AE07348315C30180122805672
:104D3800000242187820182108F098FE6F49705C2C
:104D48000025032C09D1771840B21521C943162232
:104D580007F0A6FF3870099B00E02B4642B260209E
:104D6800202105F08BFCDF208100705C042C06D12B
:104D7800751840B2212107F001FF287000E009955D
:104D8800069DC2B260202821099B07F06DFA601FBA
:104D9800434243412878C006820F3020584905F025
:104DA8007FF98007C00E2978E7220A40101828707A
:104DB8006DE005940690092007994843374908187B
:104DC800E901425C45186878000280181C46092BE6
:104DD8001BD140B20F2107F0D1FE00216970287065
:104DE800049913E0089D2F4F26461C4633E0B24233
:104DF80018DD0C30C2B26C202021059B07F0A8FA00
:104E0800089D284F0698264624E00021089D254F36
:104E18000091C3B25A2020212B4A08F058FD069869
:104E2800059E18E0264678202021059C234608F098
:104E38001DFE002C0BD00998802805D128786978A8
:104E48000902081807F0B0FA204800210170089DEF
:104E5800144F06980A9C1F49069008F0EFFDA642D9
:104E68000FD1099880280AD10921284608F080FD29
:104E78001648002101700A2C01D103983870049B50
:104E880000E000234820144A069908F04DFB0BB0B7
:104E9800F0BDC04668F40000C50900206E0300207C
:104EA8007D030000B30900207903000011EE000023
:104EB800E0090020C3F00000A9A000005CF4000095
:104EC800ADF00000D0F400008AE60000920900204E
:104ED80092F70000BAF600003BF5000073ED000001
:104EE80036F700007A0300009DF2000018E6000083
:104EF800D70900207E0300000083FFFF7B0300002A
:044F0800BEEE0000F9
:104F0C00F0B583B0E34E0125357005F07FFF00242A
:104F1C00E1480157002907D5E04A13783746F026B7
:104F2C001E40331D3E461370DC4F3A78142A35D898
:104F3C005200C0467A449288520097449E009E00CC
:104F4C009E0087006A000D010D010D010D010D0180
:104F5C000D010D010D010D010D010D0114001400C9
:104F6C0014000D01110107F089F8032008F00BFE65
:104F7C00C02008F08FFC07F051FD3878401C3870C9
:104F8C0038780F210140032903D33878F0210140F0
:104F9C0039703878202101433970DDE01046203813
:104FAC0003286AD310463038032818D2252007F07E
:104FBC0071F9BB480178BC2900D0CDE0417A0129B8
:104FCC0000D0C9E00321C943B74A002936D0531891
:104FDC004418647A7D25ED005C55491CF5E7242ABC
:104FEC0017D0342A00D0B7E00024204608F0E0FAAD
:104FFC00800600D5F7E0252007F04CF9A84E717A11
:10500C003078AA2800D0E7E0FC2900D0E4E00120A9
:10501C00E7E0AE4D2878411C2970AD490C5CA748DF
:10502C00007803F09BFA3878DF210140397028783A
:10503C00102800D280E0002028707FE03878F02122
:10504C000140C81C3870A348002110E0A14A137815
:10505C005B1C1370DAB2042A0FD33A78F023134096
:10506C001A1D3A70994A0123137080221143017062
:10507C003878DF21014039706EE0894CFF202072B6
:10508C00E071A0710020A07286490968617003224A
:10509C00D243D21C62710A0E22710A0CE270090A08
:1050AC00A1703E788A49102804D022180B5CD37268
:1050BC00401CF8E720461B300A21FF2208F057FC61
:1050CC002520002121540F200640751E032D20D2CF
:1050DC00BC202070032E11D1F920800072490A5C8B
:1050EC0062710818C17821728178E1714078A071E1
:1050FC0020460B301021FF2208F039FC802020774D
:10510C000120E076E8B20228624E00D302256572D7
:10511C0006E0002E5F4E03D101206072BB20207090
:10512C003878DF21014039706B480078C00701D016
:10513C000D2401E07320C44307F004FAE1B22520EA
:10514C0006F0FCF907F06AFC63480178491C017011
:10515C005B480188491C01800020307003B0F0BD11
:10516C0006F08CFF284608F00EFDC02008F092FBDC
:10517C0038782021029108433870514800880190FA
:10518C00504908F02BFA4E424E414F49019808F015
:10519C0025FA002900D075004848057007F03EFC40
:1051AC00424D434E2B2C12D0285D002802D0401EBD
:1051BC0028550AE001200021224608F0ACFA32689A
:1051CC0082433260706888437060641CEAE7387808
:1051DC000299084338700AE0AA280AD1FD2908D19F
:1051EC000220364908703878DF2101403970294E89
:1051FC00B2E7AC2801D0AA28F5D1701C29490425A6
:10520C002A4608F0FFFA0290F92080002649091876
:10521C00701D2A4608F0F6FA02990843E3D11D20C6
:10522C0008F0C6F92149FF220A7121490A681023A6
:10523C0013430B603C2800D83C201E4D29691E4AA4
:10524C001368591A08181060642108F0F1F92861E4
:10525C003078AA281BD0AC28C5D134460934A01B01
:10526C0008381928BFDC2078FF28BCD0A578AC21E1
:10527C00204603F0CDF82819C41CF0E7301909308A
:10528C000178FF29AFD0AA2103F0C2F8241D1C2CF1
:10529C00F4D1A8E7DA09002094090020D9090020EC
:1052AC0074FEFF1F38FFFF1F6E030020F208002062
:1052BC0000F8FF1F08FDFF1FF4090020BF090020A4
:1052CC006003002021060000210500009C0900203D
:0C52DC003F090020A309002098090020D1
:1052E800F0B58AB01F246102C74842680A43426089
:1052F8000121CA06836813438360C44AD368102017
:1053080008900343D360C2488369C24E3340836127
:10531800436833404360436933404361BE4DAB68E3
:105328003340AB60BD48836D33408365436F334082
:1053380043672B6833402B6016239360D6680E436F
:105348000E239E43D66000260396166247265662B1
:105358001460546A80260996344340260796B4435D
:10536800546214682406FCD50F2205921204AC4F2F
:105378007C6D94437C650C02AA4A1464546494645A
:10538800D4647E6D1E437E6554609460D46020238F
:10539800DB437B61A44B1C617B6D0B437B65CD4379
:1053A80001953B6C2B403B6414608A079F4B5E69F8
:1053B80016435E611E6896431E6084677A69089D7D
:1053C8002A437A613A682A433A60974DEC60CE07DF
:1053D8005A69324306965A611A6832431A60C4679A
:1053E8004A037E6916437E613E6816433E602C631D
:1053F8008F4A566D099D2E435665166C2E431664CA
:10540800834EF461059DAE040546586930435861E2
:105418001868B0431860AC64EC642C656C65286C43
:105428007C4D2840032504952D02029528437B4D89
:1054380028648048401C5E6906435E610598000246
:1054480056690643566116688643166072480462B8
:1054580044628462C462506D019D284050656C4D61
:105468002C6050690226B04350616B484460506D0F
:10547800089EB04350652C6108037E6906437E612F
:105488003E6886433E606848C4628E0501965E4D5C
:1054980028683043286048025F4DA8616861664EFD
:1054A80012200590B0701920707031706348083868
:1054B80005680F4662490D400560B80261490860F9
:1054C800B078079D2843B0705069089D2843506103
:1054D80010682843106050490C615069099D2843A1
:1054E8005061106828431060CC6150690825284332
:1054F80050611068A8431060CC605869049908434B
:1055080058611868884318604448046044604048FB
:10551800C4604A4AD0684C49084006994018D0608F
:105528001346484A1160FD05374CA0682843A0601F
:105538000520089000020090DB30444E306004984B
:10554800B0609F2030610720B061194658683C4B15
:105558001840401948601646019810603C48039A64
:105568000260204630383B4D05607806A568054343
:10557800A5603948394D85600D681D400D60BD0432
:10558800356049250560304B581CA5680543A56062
:105598003348344D8560FF252D020E68AE43FD0368
:1055A80075190D607D04274E35600260B806A56840
:1055B8000543A5602C481F4D8560C2602B4D0561D1
:1055C80048254561184D029E2E606E600D681D408D
:1055D800069BEB180B60F9041A4B196002602068EF
:1055E8000799084320600D480099416601662048E4
:1055F80005990170099941701E481F4941608260F0
:10560800089901600AB0F0BD3480044000B003403E
:1056180000C00440FFF8FFFE00B0044000D0044082
:1056280000F00F4000A004400490044000F10F4037
:1056380080F00F40FFFF00000160074010E400E029
:10564800FFFF00FF00E100E0FFFFFF0000710340E3
:10565800007003400000010100900340FF0B0000B0
:10566800008003403B2D000000A0034060EA0000DA
:0C5678000160064010E000E07FBB000075
:10568400F0B587B00290BC4808F0D2F9BB4E34782C
:10569400BB480078002804D1B8480F220299FAF7D1
:1056A4000DFD0025B749284608F0CAF907F01CF992
:1056B40002B266200695294608F060FA3678B249A7
:1056C4000878022803D100200870B0490870B04857
:1056D4000278511CC9B28E4203D2721E0AD2002231
:1056E40008E0111DC9B28E4204D9321FD1B20A2971
:1056F40000D30A2261B201910270A64D069F05945F
:1057040004960392F8B2062830D2B818C4B2361BF5
:1057140073427341401CC2B2F8001030C1B212206F
:10572400069108F04FF92D20285C844204D1012011
:105734002A22069908F009FA0F252046974C21469B
:105744002A4605F05FFC7042704190490978014097
:10575400103100911820069922462B4607F057FF76
:105764007F1C059C049E8B4D039ACBE784480078EC
:10577400002807D02D27E95D8048007881421CD09D
:105784007E251BE0029908466438022874D36029F8
:1057940000D180E0BF2900D186E06E297BD0812929
:1057A40000D18EE0612900D0C4E07849087801284E
:1057B40000D0DBE000200870D8E0592508F0AFF9EC
:1057C400002801D16920C5434F207249085C400775
:1057D40001D43F200540E9B26F480A2202F066FF77
:1057E400012800D0A6E0354665488678072E7DD886
:1057F400B00001A108588746735800001D580000E6
:105804001D58000005590000F15800000F59000010
:10581400FB580000295900005848017806915D485A
:10582400C155624801270770029807F0DFF806F0B7
:10583400A1FE069801F03CFB5D48C17802220A43B0
:10584400C270384606F0CAFC06F094FE05F01AFF52
:1058540003F0E0FA5748807A08F04DF906F0B2FEFA
:1058640047480078022802D0022E00D080E0524837
:1058740006F0AAFF2E465DE02D20285C3F490978FA
:10588400884222D10298642801D0652852D14A481E
:1058940006F09AFF4EE04948002707703B49087814
:1058A40001281BD10F7061E0002035490870374989
:1058B40008702D20285C31490870012002F0A6FBF5
:1058C40038E0012006F05CFD34E002202C4D287005
:1058D400029807F08BF8002068702BE00120284D17
:1058E4002870029807F082F86F7023E0012027499E
:1058F40008702E4622E02E4628490D72012015E03C
:1059040028482E460570012006E0029807F06EF83C
:1059140024482E46057000201B490870224806F0D2
:1059240063FB07E02E461D490D72002008711C48D8
:1059340006F05AFB15480078012817D10198B042A7
:1059440014D0601CC0B2711CC9B206F0B3F82D208B
:10595400104A115C8E4201D1145404E0019A8A4227
:1059640004D10C490E54012006F038FC07B0F0BDF8
:10597400012006F005FD7DE7B7F50000AD09002024
:105984007A0900200FF70000E7090020AE09002083
:105994008C090020D6070020B7EA0000D2010020BD
:1059A400E55C0000E6090020619C0000DB090020A2
:1059B400FC0900206E03002011040000920900205D
:1059C400F0B58BB0BA498879401C88710020012158
:1059D4000691B94DC7B2012F00D9F4E0002F02D0CF
:1059E4003720000100E0B748B749081800240057E1
:1059F40039016E180028069B1BD016280CDB1538BD
:105A040040B208F092F8B1798142069B11D0B11DE1
:105A14000028087005D10CE008F087F80028069BE0
:105A240007D0002F02D008F09AF801E007F0BCF884
:105A34002346052179439F480391401808908578AF
:105A4400FE202840022801D1A0488488A04800787C
:105A5400002800D09F4C0794032008990C56042D6D
:105A640005D368009C494018083800880790012233
:105A7400002D0492059337D0162C24DBF07831885E
:105A840001438B4A9079084391880143B0780843D5
:105A9400B11C002801D1002008702046153840B2FE
:105AA400019108F042F8019A002808D011780029E1
:105AB40005D1F11C0A7853425341019A0B701070BE
:105AC400059B049A10E0002C0DD020460197274630
