:100000000018002039CD0000D9C10000DBC100007C
:1000100000000000000000000000000000000000E0
:10002000000000000000000000000000DDC1000032
:100030000000000000000000DFC10000E1C100007E
:10004000E5C10000E7C10000E9C10000EBC100000C
:10005000E3C10000EDC10000EFC10000F1C10000EC
:10006000F3C10000F5C1000095B20000F9C1000025
:10007000FBC10000FDC10000C5A9000001C20000D5
:1000800003C2000085B6000035D10000F5C90000AC
:100090000BC200000DC2000081C0000011C20000B0
:1000A000E3C1000013C2000015C20000E3C100005C
:1000B00017C20000E3C1000019C2000005C600001D
:1000C000F0B583B002920F4601900825BB48425F0D
:1000D0000621BB4E715E891A8B0EC9188911B94B66
:1000E00019700A23C35E705FC01A840E0019801154
:1000F000B54C2070C0B2C9B2002901D092B2F280D2
:10010000B24C002801D09AB232812478B04A1378D8
:10011000002B03D1B94B1B789B0606D50020AA49BA
:100120000870A849087010700146002904D1002801
:1001300002D17088002801D00CF04AFFA54806784B
:10014000012000900298FF285ED0A3480078012883
:100150001FD0002841D1A2490878012802D10020EF
:10016000087034469F4B5A5700201872012A18DB3A
:10017000611CCAB2521A531E9A41B442019B01D269
:10018000002A22D01978029A91420ED2491C197085
:100190001AE000202E2F1CD09049097800291CD18C
:1001A00017E0002A03D421460FE018700CE0002C61
:1001B000019D01D0611E08E02B78002B029A00D02F
:1001C0005A1E2A70009A0A7001462E2F04D101206F
:1001D0000C468149087000E00C4683480078401CBA
:1001E000C5B2854201D00020C5430CF011FF0028A4
:1001F00000D10546E8B23D2804D3012076490870B5
:10020000764908707848057078480670734D2878EC
:100210000028019B17D03846603805283CD938465D
:10022000423803284CD9212F00D171E02E2F3AD02B
:10023000812F64D08E2F68D0BF2F00D0A2E0002481
:100240001C702C709EE060480078002813D019784C
:10025000091A4AB20020002A00DC0146CAB2029DF7
:10026000AA4200D32946197057490870E0B2B0423B
:1002700000D33446594D18780028CCD05148007826
:100280000028C8D0241A60B2002800DC0024E0B2A4
:10029000B042C0D33446BEE778440079400087447A
:1002A00002711D262B5B0298FF286BD028784142F3
:1002B00041412970002865D147480121017061E062
:1002C000784400794000874401293545187802991F
:1002D000884257D02978002904D053E02878002894
:1002E00050D118780299884246D3002045E02878FA
:1002F000002847D1187817E0002E20D142E00020D6
:10030000287000980BF02CFE3CE08E200CF004FFCF
:10031000287800282CD00020287033E01878002896
:1003200030D0297800292DD1002801D0401E02901C
:10033000029822E0002E25D0E0B2B04222D02878E8
:1003400000281FD12A4900200870E1B2B14232D3FF
:10035000044617E0200615D0002E13D02878002878
:1003600010D123480021017020060AD0661E08E043
:1003700000200BF0F5FD05E0401C1870E0B2B04223
:1003800000D33446114804700020124908702878C0
:10039000002801D0022100E00121094B154A11700B
:1003A00059884A1E91410028009A00D10A461248F5
:1003B000027003B0F0BD641CE4E7C046A80400204E
:1003C000CA0400203F0E00203E0E0020540E0020E4
:1003D0003D0E0020840E0020960E0020460E0020C8
:1003E000620E00201C0E00209B0E0020A30E002099
:1003F000910E00209E0E0020450E0020CC0C002007
:10040000FFFFFFFFFFFFFFFFFFFFFFFFFEFFFFFFFD
:10041000F0B595B0244902260E70244C07222146DF
:10042000059209F08BFC0146214F3878401EC2B27C
:1004300020461291FFF744FE1E4D2878411ECAB295
:100440000D2A0AD81C4BD340DA0706D048B28000E8
:100450001A4908580CF02AF928780D2801D900F01B
:10046000EEFE24781394400078448088400087444E
:100470000D00E6062B00FE004301E606E6065501E8
:100480005200E606E606E606F000EE020C480DF025
:1004900098FE0E203870601CC2B20A4807210DF089
:1004A00037FA00F0CCFEC046A20E00206E0E0020EF
:1004B0008D0E0020350E00203127000074C600008C
:1004C000B0F100003CC60000F9480DF07AFE0620AD
:1004D0003870F84807780825F74928460DF079FE66
:1004E00063426341F54EB07D4209F549284609F063
:1004F000FBFF4001B17D1F220A401018B075F07D4E
:100500000025012C00D0D8E240B224210CF0F2FEEC
:10051000F0753B46D2E2EB480DF053FE10203870E8
:10052000E94800781190139840B20CF0F1FB139B4E
:100530000D900022072A01D100F081FE0D9881184C
:10054000481CC0B214904000C9B21291994202D125
:100550000221F94C2170D94940181499102901D869
:10056000F64900E0F64945180E92D0000830109088
:100570000024032C6AD200201199A14201D0014627
:1005800001E0CC490978129A9A4200D00146CEB2D5
:10059000711E304688411499102955D87F21214079
:1005A000012921D000293CD140000F901098C6B2FB
:1005B000002738463146149A3B460DF0FAFD28785C
:1005C0008009022800D901270F9B3046F3493A469B
:1005D00009F08AFF3F21002800D0C843139B2A78E6
:1005E0000A4002432A702FE028781099C9B2800689
:1005F0008216452033460AF0A9FA139B002E23D019
:1006000028781521C9438006801616220CF00CFFAD
:10061000139B3F2101402878C022024050182870C7
:1006200012E00127EA571098C1B2782033460DF046
:10063000E8FD002E139B07D0E8577C21C9437D229B
:100640000CF0F2FE139B6870641C92E70E9A521C29
:1006500070E7DD480DF0B5FD0A203870042C0E96C9
:1006600000D93AE20CF064FE00252C4637E2D74868
:100670000DF0A7FD11203870AF4803210170AC4880
:1006800000780D90139840B20CF042FB139B04903D
:100690000F2B00D90FE35800CD4C205AC10B401846
:1006A00000B24010CB4942184E2000210DF036FE1A
:1006B000139BC9480078802800D00BE30D980028D0
:1006C00000D007E3052058437C49081857218900CA
:1006D000425C0499591A4900615A002A00D04942E3
:1006E000FF225E328154090A8018417002200CF00A
:1006F000F1F80CF0BDFAECE2B8480DF062FD05200F
:100700003870B74800240470B64E35781398002826
:1007100001D100F0C4FC234600F0CAFCB2480DF041
:1007200050FD0C20387084480321099101708048E5
:1007300000781190139840B20CF0EAFA0890002467
:10074000072C01D100F07BFD5A4800781490E0009E
:100750000830C5B200274C22384629460DF0C5FDA9
:1007600008980019C6B2082E0F9401D8312100E074
:1007700038210818C2B2052029460DF0B6FD0998A7
:1007800070434E4909184B20C0000E9112900B5C2B
:1007900013988642149C00D03C46119E002E2046A1
:1007A00000D03846C0B200900F20109003400D20BA
:1007B00029468E4A0DF042FC022E204600D03846D3
:1007C0000C90012E149400D03C460D9488480E9C49
:1007D00026181298205C109908400CF015FE02288B
:1007E0000A960B9016D0012820D0002100282ED187
:1007F0007756252F34DB7F4961560C9AD2B200928E
:1008000082220192253FFE223A407D31382A5DD076
:100810000B465DE07748225C0C98C3B25020294615
:100820000AF08CF832780D98C3B259E000203256A5
:100830000D98C3B2362029460AF088F96D48225631
:100840000C98C3B24D2029460AF080F94CE072564C
:10085000694900912021002A07910AD40D9F0AE0DE
:10086000644822560C98C3B2632029460DF0C9FC97
:1008700033E00D9F0F43FBB2D109514048B2401CF9
:1008800082B2492029460DF054FC5A4820560028CF
:1008900001D40C9902E00C99079A1143CBB2C1091B
:1008A000414048B2421C6B2029460DF0AAFC1BE0D7
:1008B0000FFC00009E0E0020C3EF0000FE0400208D
:1008C000D3F7000058FA0000540E00200A234B43CF
:1008D0007AB26420294607F0B5F90D9F3278FBB251
:1008E000362029460AF02AF811981499129AA61867
:1008F0000328084600D0002031780A09082A00D9C8
:10090000521CC3B2682029460AF020F93B480078FF
:10091000002800D198E01498000600D194E01198C6
:10092000032800D990E003A1085C40008744C0463A
:10093000540E00200A212F40840E00207B0200006C
:10094000DF0200003078109D28400E210CF0D2FC10
:1009500028403178F0220A40111831700CF054FD13
:100960000B99814270D00020224960540A99087086
:100970006AE00B98032867D87844007940008744E0
:10098000013F014600210A9C60565E2245E00B981B
:10099000032859D802A1085C4000874448FA0000A7
:1009A0000342484D134D60577C21C9437D2248E0E6
:1009B00030780009109C21460CF09CFC31782140D5
:1009C0000001081830703FE05EFE000018FE0000D5
:1009D00020040020DC050000910E002082FD0000B4
:1009E000940E00208E0E0020C6F90000AEED00002F
:1009F0005602000057020000F9FE0000450E0020DC
:100A000000200A9C20561521C943162205E000202B
:100A10000A9C20563121C94363220CF005FD207049
:100A200012E0FC4D60571521C943162209E0F94D2B
:100A3000605700215E2204E0F64D60573121C94322
:100A400063220CF0F1FC60550F9C641C78E6F248C0
:100A50000578F2480DF0B5FB139C0A2C00D99EE2F4
:100A60000CF066FC224610203870052C00D9E8E313
:100A7000002A02D1EA480921017051425141E94856
:100A8000007800910821E84E0A2732463B4609F0DB
:100A9000AFF913980128149501D000F048FC129882
:100AA000602802D1B07A0DF0F6FBF05731210CF03E
:100AB00021FCB0722B4600F03CFC2B46C2B26620F3
:100AC000102109F03BFF307E1399022953D140B227
:100AD00064210CF00FFC30764EE005240125CE4851
:100AE00007780826D14930460DF073FB2A4631328B
:100AF0001E20109631460DF0F8FB13981494844292
:100B000011973B4600D0002305206843C84A115C7A
:100B1000141801201290205600930002421847201A
:100B200010990CF040FE1399149D8D420E9E16D123
:100B3000C0483C2202703B20C143002528460CF0EF
:100B400073FC2178627812025118081801B200294A
:100B500000DC28462070000A60701399149D681C00
:100B600088423DD10220205613210CF0C3FB13997B
:100B7000A070012235E02F46C2B2542018213B4616
:100B80000CF006FA139DE81E42424241B07D400738
:100B9000C00F2021A84CA047C007400FB17DFB2209
:100BA0000A401018B075281F424242410807C00F82
:100BB0002821A047C007000FB17DF7220A40101876
:100BC000B075681F42424241C806C00F3021A0479D
:100BD000C007C00EB17DEF220A401018B0752EE399
:100BE00000220529129B00D381233C20102109F00B
:100BF000FBFA032728463043002213998842119BB1
:100C000000D013461092E257002B304600D03846F1
:100C10000F9700905A2018210DF014F8E070139DE2
:100C2000149F781BC01C43424341227920208349F2
:100C300009F05AFC2071381DA842119B109A00D06F
:100C40001346002B0F9800D00646774C052D02D393
:100C50003720000100E07A482518AA5600964F2058
:100C600028210CF0EFFF724F7A7976496254FA78B6
:100C7000754BE254FA79754BE2543A7A744BE2546C
:100C8000744AA35C7F261E407B7ADB01F318A354D1
:100C900028707878A073387860736018B9794170DB
:100CA000B878E072387912990840217BFE220A4018
:100CB00010182073C3E26848007880280AD1102BEE
:100CC00008D166481921017080200CF025FA08F03F
:100CD0009DFB139B7C200390C0430C900026324662
:100CE000072E00D14AE104983218D4B2F0000890DF
:100CF0000830102C00D142E111966100584B595A2E
:100D00000B91052110946143474B5C1857218900D2
:100D10000991675CFF210A915E31655C61180E9153
:100D20004E78C1B21292501CC2B200200F911490A2
:100D300003460DF03EFA30024019002F00D1404228
:100D40000B9943187F217E22002F0846119E00D068
:100D500010461BB20C9D4B35AB4200DB2D20002F03
:100D600000D00A46322B109F00DC02464B200F9920
:100D70000DF0BBFA2C48817D0220084001D0039978
:100D800000E06321C9430791139B129A002801D008
:100D90007D2000E0642006900598089901430891A1
:100DA000AD20400020180B900A985C3020180A9063
:100DB000099820180990149C042C00D3DCE00D98AD
:100DC0006040394659400143149401D0002401E0A9
:100DD00011480478E5B268426841224909784E42D8
:100DE0004E41064302D100201F4908702B2000010C
:100DF0000D49085C002700283CD001210E9A51566D
:100E0000090212788A1891B2002933D082422DDD6E
:100E100007462FE0570200009E0E0020A2FD0000B2
:100E2000840E0020540E0020FE040020D9F30000A0
:100E3000120E0020950E0020B5D10000BBF7000077
:100E40006F030000AB0200007B020000AD02000057
:100E5000AE02000071030000910E0020410E002040
:100E600020040020450E0020940E00204742BA4284
:100E700000DB0F4638B20A210CF0A8FE7F21149A3D
:100E80001140022923D0012949D0002964D101252C
:100E90000E99485700020978421820200443E3B213
:100EA0002D200F990DF0ADF9002E119E109F5ED1EF
:100EB0000E9C60570002217840187D21CA00022351
:100EC000F64907F087F82070000A60704FE00A9931
:100ED0000978643149B2401801B27D2900DB7D20D8
:100EE00002B266200F992B460DF08BF9380406D01C
:100EF0000898C1B23220382209230CF043F9002EA1
:100F0000119E109F33D10A9C20781821C943643068
:100F100040B2069A0CF088FA6438207027E00B99EA
:100F2000097864394CB2001901B20C9A914200DC84
:100F3000104602B248200F992B460DF062F9002EA0
:100F4000119E109F13D11922204607990CF06CFABC
:100F500064300B9908700AE0099C20780F992A46A2
:100F60000CF028F9411E88412070119E109F149C9E
:100F7000641C139B129A1FE7761CB1E63820D1B28D
:100F800010290BD110214B40C549097819434B4218
:100F90004B41C1B21220C34A0CF08AFE4FE11495B6
:100FA0001020119038700827BF4938460DF011F90C
:100FB00020460B3843424341BC4EB27CBC493846C4
:100FC00009F092FAB07400250C2C00D01495149BF3
:100FD000581E1946814114203256009166201199FD
:100FE0000CF030FE307520460D3842424241707C94
:100FF0000007C00F18210DF0B0F8C007000F717C7A
:10100000F7220A401018707420460E3842424241BE
:10101000307B8007C00F20210DF09FF8C007800FA4
:10102000317BFD220A4010183073FF2040001490DD
:1010300001242F46072F00D101E1737D2340581E64
:1010400083419C48C25D28463F30C0B2282107F04A
:10105000EBFD13980F281CD106209749087097487C
:101060000078874215D128463E30C0B22721082299
:1010700009230CF087F812982E2801D0202808D1D7
:10108000707D6040707502200BF024FC0020FC494C
:101090000870640014980440ED1D7F1CCAE768B214
:1010A000032200210B460DF02FF905463070012375
:1010B000681CC2B208262046314609F03FFCEDB25A
:1010C00028460BF067FA034600942A20EF4A31467F
:1010D00014930CF0B3FFEE490E9630460DF079F8FC
:1010E0006800EC490E5E28460CF0F0F801230094ED
:1010F0000193652E194600DB21467C22D24319322A
:10110000964210931E46139B00DB4E00002800D031
:101110002646701E11908641581E45424541304674
:1011200028401821DC4F0A460F91149BB8470094C1
:1011300001941199481E814111910D403021129165
:1011400028460F9A149BB847109F00970197139851
:10115000801E454245412E4028220D9230460F996F
:10116000149BCD4EB0470097019411980540284636
:1011700012990D9A149BB04700940194139FF91E85
:10118000484248411E2563232946129AB0470094DD
:101190000194391F48424841382262232946B0470A
:1011A000B94E30780CF092F85C250028284600D023
:1011B0003C204022214609F0C1FDB8481099017039
:1011C000284609F063F830784100B24A555E192785
:1011D000394669430A0E8E18294608F09BFC149084
:1011E0003212722012990DF099F8149E7743380E3E
:1011F0003818021254200E990DF090F86801FF2162
:101200004900891C4018820D8018870A38465C30D6
:10121000C0B2720151188A0D89188E0A1D21891BCE
:10122000C9B207252A4609F089FD5937F8B22021AD
:10123000891BC9B22A460DF053F89848047015B0BE
:10124000F0BD08249849204615460CF0C2FFA81F9F
:10125000424242418B4DA87D8007C00F21460CF0D1
:101260007CFFC007810FAA7DFD2313405918A97583
:10127000002825D1AD2040002818D5214900691843
:1012800088421DD200214256002A00D50170012259
:101290008256012A00DB4170401DEEE718FCFFFF7B
:1012A000410E0020B5F90000B7F20000FE04002056
:1012B000E4F50000FAFD0000840E0020540E00202A
:1012C0001398C01F43424341754FE85D8006C40F29
:1012D00010207649224609F007F9C107890EEA5D18
:1012E00020239A435118E95501263040A04202D0EC
:1012F0000AF02EFDE95D1398083842424241480643
:10130000C40F182120460CF028FFC107490EEA5DE2
:10131000BF2313405918E9553040A04201D00AF0CC
:1013200017FD0BF0C1FE002869D0812268E0B07A79
:1013300000235F49009141218900C0B24218582022
:1013400010210CF0F6FE18205A490CF042FFFF2045
:101350004700012400251398082D14D05648305C0E
:101360002040411E8841009054484219062068439D
:101370004230C0B2182101230CF00BFD1398640019
:101380003C406D1CE8E7022819D141201721382282
:1013900009230BF0F7FE13981299602901D02E292A
:1013A0000DD112980BF0B8FE0CF0C1FD42497054FB
:1013B0003C480021017002200BF08CFA1398C01EEB
:1013C00042424241364C305DC006C00F20252946BE
:1013D0000CF0C3FEC007C00E315DEF220A401018AA
:1013E0003055139804282FD12B2004013057642145
:1013F0000BF080FF30552021149D0D4327E0802203
:10140000602020210CF071FF139C204609384242D5
:101410004241687C304028210CF09FFE3040697CBE
:10142000FE220A40101868740A3C62426241C806F3
:10143000C00F30210CF091FEC007C00E697CEF2276
:101440000A4010186874FAE62B200001305CC2B222
:10145000782028212B460CF0D4FE1398401F4342DD
:1014600043419F208400305D42093020144909F037
:101470003BF84001315D1F220A4010183055DEE66E
:10148000460E0020FE0400208E0E002003FC00000B
:1014900087F60000A8040020A19E00004B0E00204B
:1014A00071030000460E002058F0000068FA0000AA
:1014B000D7F9000082F20000AF0200009CFC00009F
:0414C00039F70000F8
:1014C400F0B58BB0224901260E7022490978C9076C
:1014D40001D0042200E003221F4C214608F02CFC1A
:1014E40007461E4D2878401EC2B220463946FEF7F4
:1014F400E5FD1B4800780B2801D900F0FCFD01979D
:10150400029618490E7827780A9740007844808814
:10151400400087440B0029005B00AD00BE002A0197
:101524008101AA0186028E02AC02EF02F1480CF09E
:1015340046FE0848007801220240D11C0A322A7073
:10154400781CC2B2EC480CF0E1F900F0D4FDC046BE
:10155400A20E0020920E00207B0E00208D0E002093
:10156400350E00209E0E0020E4480CF028FE0620D4
:1015740028702E25E248425DE2480090002F06962E
:10158400344600D000247620082123460CF0CFFDF9
:10159400002CDB4E07D070570A212D220BF042FF9E
:1015A40070550BF037FF1020D7490CF010FE312591
:1015B400705D0024012F00D00AE340B21521C94315
:1015C40016220BF02FFF7055069B02E30696CF48B8
:1015D4000CF0F5FD062028700820CD490CF0F7FD2D
:1015E40039465C27C64DE85DC41D4026002906D156
:1015F4000698064360B207210BF07AFE0446E2B275
:101604006620082133460CF0FAFDE01FE8550A9ED7
:10161400701E434243414324285D8006420F10203C
:10162400BC4908F05FFF4007800E295DC7220A40CD
:1016340010182855B01E434243414F242A5D042A02
:1016440000D304221820B44908F04CFF0328069F55
:1016540000D907202855032E00D01AE34D2428571B
:10166400012164220BF0DEFE285540233B4313E3A3
:10167400AA480CF0A4FD062028700820A8490CF004
:10168400A6FD002F00D1E1E32F209D49085C4023F3
:10169400E6E3A4480CF093FD06202870002F02D145
:1016A400A1480921017079427941A048007800914C
:1016B400934C2246513208210A2308F097FB781EE6
:1016C400434243414625605D4007C00F1021984ABC
:1016D4000CF07AFCC007400F615DFB220A40101831
:1016E4006055B81E43424341C806C00F1821914AB1
:1016F4000CF043FDC007C00E615D3A46EF27394048
:1017040008186055D01E424242414C26A05DC006D6
:10171400C00F20210CF028FDC007C00EA15D394088
:101724000818A0550A9F381F43424341605D800654
:10173400C00F2821804A0CF020FDC007800E615D97
:10174400DF220A4010186055781F43424341A05DD0
:10175400C0093021794A0CF037FCC001A15D7F2219
:101764000A401018A05500F0C6FC069674480CF008
:1017740026FD09202870042F00D99EE20BF0D6FD27
:101784000825704928460CF022FD7A427A415D27EB
:101794005B4CE05D0126304029460CF0DCFC304017
:1017A400E15DFE22099211400818E0550A98401E96
:1017B400424242414627E55D3540102128460CF05F
:1017C400CAFC08963040E15D099A11400918E155B8
:1017D400A84201D00AF0BAFA0A98022801D00020DF
:1017E400069049200990205C57490F5C0420574D0E
:1017F400C6B2002E00D18FE2062141435431C8B253
:101804000321394069184A781821069B07F00AFA1F
:10181400701EF9B28F08EBE74D480CF0D0FC0120A4
:101824002870002525704B4C019E072D00D176E1D0
:10183400E8B20AF06DFD0E21635E02B29A420146DF
:1018440000DB1946E1811C23E35E9A4200DC184662
:10185400A083042D06D309B200B24018C10F40186A
:1018640040082080A41C6D1CDFE706963A480CF063
:10187400A6FC062028702D48007807900BF028F964
:10188400800700D56FE2082034490CF0A0FC10203A
:1018940000231B4D042B00D190E20490C1B2581CCC
:1018A4000390C2B20026304609930891334609F0EA
:1018B40043F8099948002F183A37042E00D3ABE0B7
:1018C40000240A98814209D1032017490870079817
:1018D400B042234603D10223069C00E023467F2026
:1018E4003040032800D994E001A1085C40008744FB
:1018F40037446279C6F1000000CB0000AAFD000065
:10190400860C002010FD00002CEF0000BBFB000043
:1019140000F500007DF3000017F2000026FE000031
:10192400DAEE0000A2FD0000840E0020540E002018
:1019340088FA000070F70000B0FC0000DFFB000034
:10194400FEFC00004FF30000A3F7000076FE000049
:10195400AFFB0000620300209AFD000018FA0000AB
:10196400787882090898EB4908F0BCFD8001797801
:101974003F220A40101878704BE07878800685166C
:101984000D20684381B2890B4018821042200899C7
:1019940023460CF034FCA0073BD51E20C1431F2274
:1019A40028460BF03FFD3F2101407878C0220240D9
:1019B400501878702DE03D7800940720059005407C
:1019C4002B46103348200899E94A0CF035FBA00750
:1019D4001FD5032128460BF08BFC05990840397864
:1019E400F82213E000203856C5105A2008992A46D8
:1019F400234609F0A9F8A0070BD50E20C1430F22F6
:101A040028460BF00FFDC000397807220A40101851
:101A14003870761C099950E704980830039B0A9F94
:101A240037E7D4480CF0CBFB1020D3490CF0CFFBA4
:101A340061E3D2480CF0C3FB0025E9B209297AD24C
:101A4400E800032900D90838C4B26E1C72B22A20F7
:101A54000023214609F078F80F35E8B208F0E4FED7
:101A64000246442021460CF091FB3546E5E7C44884
:101A74000CF0A5FB02982870C248002505702020B0
:101A840006430696C04FEEB2082E68D2E800C4B2F0
:101A94001820412221460CF026FC28463130C2B2DF
:101AA4001E2021460CF01FFC30460AF031FC024691
:101AB4002A2021460CF028F8032E04D830460BF0D7
:101AC4000DFB401E02E0062E28460CD8C0B2400092
:101AD400385E19214143080E081802125A20214683
:101AE4000CF01AFC04E05A202146069A0BF082F806
:101AF4006D1CC8E7A5480CF062FB029828707B4275
:101B04007B414624A24D285D4006C00F0821A14A0E
:101B14000CF033FBC007400E295DBF2277E12A2475
:101B2400202E9D4D285D9D49087000D1F0E1BF2E07
:101B340000D1F9E100E2102099490CF048FB00249F
:101B4400E0B206281DD2E1003822551A08F06CFED6
:101B54000246E9B220200CF019FB641CF0E78F4820
:101B6400029901708F480078002800D1C3E2302424
:101B7400874D28577E21C9437F220BF053FC2855FB
:101B8400B9E254201821884A0CF0C1FB0025EBB2BD
:101B9400032B00D9AFE2E8002030C4B25420214620
:101BA400824A0AF0F9F86E00B01DC0B208F03CFE9B
:101BB40002466C2021460CF0E9FAF01DC0B208F090
:101BC40033FE0246782021460CF0E0FA6D1CDEE775
:101BD400234642B26020102108F0B6FFB81E4242EC
:101BE40042414C25705D4006C00F18210CF0B3FA39
:101BF400C007400E715DBF220A40101870552025A1
:101C04000321E7B2022F31D23046002F01D05030E9
:101C140000E0483004780A988142089106D160B205
:101C240078210BF065FB0446069B00E00023E6B236
:101C3400052272430995EDB2662029460BF0A6F9F8
:101C4400002E04D07820732229460CF04CFB002F80
:101C54004F4E304601D0503000E04830099D08997D
:101C640004707C1C0835481CC1B2CAE70A98401F9E
:101C7400424242414624305D0007C00F30210CF03F
:101C84006AFAC007000F315DF7220A401018305578
:101C940031E24D20285C4023C2B2662020210CF0A2
:101CA400AEFA042E00D098E04E24285705210BF0FC
:101CB4001FFB285540210F4392E0092F01D3082729
:101CC40027700A973A4803210170314C5F34082188
:101CD40005260027042F00D10DE200200090CDB28C
:101CE400FBB21E2009912946324A0CF0A5F9F6B23E
:101CF4000A98801B414241412F48007800910423F7
:101D04002946224608F072F80999241D7F1C0831DF
:101D1400761CDFE763FB00000698002805D0099DC8
:101D2400605717210BF0E4FA605500252F46042D67
:101D340071D01826304678432430C0B2EBB220214B
:101D44001A4A0AF029F85E20205CE840C00707D050
:101D54006E432436F0B22021122200230AF0FCFB49
:101D64007F1C6D1CE3E71820EF490CF030FAC2E148
:101D74008BEC000092FD000084F40000AEFE000035
:101D8400E1FE0000940E0020A8040020F5FC0000F1
:101D9400860C0020C2FD0000620300203D0E0020DE
:101DA40067F60000460E0020CAFD000078EF000030
:101DB400840E0020E4F80000540E0020042F00D00C
:101DC400D2E04A2428570921C94328220BF02AFBD0
:101DD40028552021069B0B43C9E04E20285C402750
:101DE400D9490091C2B2662028213B460CF09FF9E4
:101DF400701F434243414624285D8007C00F3021B1
:101E0400D24A0CF0E1F8C007800F295DFD220A4098
:101E1400101828556FE10A98032800D0EBE0B84861
:101E24000078C00709D05E2560570F210BF060FAD7
:101E34006055C4480078400605D423201F215C2245
:101E440009230BF09DF94420205CECE02F24AF4DD6
:101E540028571E2178220BF0E5FA285540233343F6
:101E6400C2B2662008210AF0B1FE4525A74C605D88
:101E7400012F08D140B20921C9436E220BF0D2FAD6
:101E84006055334600E0002342B20A32702010212C
:101E94000CF0B5F9B81E424242414325605D01276A
:101EA40038401821A54EB04733463840615DFE22C4
:101EB4000A40101860550A9EF01E424242418807AB
:101EC400C00F20211F469847C007800F615DFD2287
:101ED4000A4010186055301F424242414807C00F63
:101EE4002821B847C007400F615DFB220A40101843
:101EF4006055701F43424341C8093021904A0CF099
:101F04003CF9C001615D7F220A4010186055F2E07F
:101F1400401C7C490855C1B203290DD117200BF090
:101F2400F1F901200AF0D4FC76480021015518206B
:101F34007C490CF04CF9DCE0C0B20028F7D0022850
:101F440000D190E0012800D0D3E00024724E734FFA
:101F5400072C00D1BAE0AE83EF81E0B20AF0D8F9E1
:101F64002880AD1C641CF3E74A20285C20236F49B9
:101F7400009140B20A3082B24E20302421460CF047
:101F8400D6F832356A4E902C10D028786978090238
:101F940008183188081A400002B2E0B23821202320
:101FA4000CF02DF9AD1CB61C1834ECE7052F52D1FA
:101FB40001986028029C4FD15D4908883222534C15
:101FC400A0545C4A002313703234CA88A2718B88EF
:101FD40023714988A170120AE2711A0A6271090A0E
:101FE400E170000A6070012420460AF071FC172099
:101FF4000BF088F930E044250428605D13D14D4985
:102004000978002979D040B203210BF071F9615DA0
:10201400C2B202238A4207D060554C21625C7F25FC
:102024001540655400E000233130C2B2122028214B
:1020340006F0F8FD0024E0B203285CD818256543B7
:1020440024350BF04BF80246E8B22821002308F0AF
:1020540073FC641CEFE7002400203821364A234631
:102064000BF024FE47E02848002101700D20C043F6
:10207400264D00282DD023490A18135F1C26965F8D
:10208400F71AF9177F184F40332F1DD399B2B3B203
:10209400D689891B0AB2920E8A1812B29209891A39
:1020A4002A182B27D155D673370A1774F31A1EB280
:1020B400B60E9E1936B2B6099B1B5377090A16460B
:1020C4002B367170190A9177801CD2E710201449BD
:1020D40008E00AF0E7FE2B2168542B35000A6870EB
:1020E40010200B490CF073F812201821094A0CF047
:1020F4000EF908F03FFA0BB0F0BD089B94E7C04618
:10210400920E002062030020940E0020860C002012
:10211400F6F800003EF9000068C50000983A000097
:102124001DFB00004FF9000034FE000051FC0000CC
:1021340088040020460E0020DDFE00006DE1000052
:102144002BFB0000570E002060F90000A3FB0000E9
:10215400F0B59DB0029002200A46149002401392FA
:10216400202008400690012603913140129144201A
:10217400D449085C8006000ED34908181190092040
:10218400C043099000271BA81A90D04C10971797AA
:1021940016971596072F00D1C5E0FCB220460AF029
:1021A400B7F800B21994214608F04CFD0446032FF9
:1021B400384604D82009C649C8551198C05DC5B22F
:1021C4006B00C448C452200F201800B20009010655
:1021D40001D5404200E080B20006BF4988420CDCD1
:1021E400002802D0BD48007800E0FF200121A9406A
:1021F4000140C8B2169901431691032F29D81298A9
:10220400002818930DD1B148007B800709D5AD484B
:10221400C6183A20305C3A36717809020818810BE6
:102224003FD1179E0698002803D0AD48C018F82166
:10223400445221B2284607F06BFC0446A9480078B2
:1022440019990BF0E4FF189B40001A99088017961F
:10225400159E0698002803D0A148C018E0214452D6
:10226400032F01D8002000E00120139900293146F2
:1022740000D0014600290ED1022D0CD00A2C02DC1C
:102284000998844204DA9648C018E0210022425298
:102294001BA80021C1521A98801C1A907F1C8B4CD9
:1022A40078E7000200B2C0120CF00DF800282DD01F
:1022B4008D480078002829D03078717809020918EF
:1022C40048070B460F91000F7E49091832228A5C99
:1022D4003231497809028918844A105A401A81B265
:1022E400C90B401800B24008990009B2890A414359
:1022F40008B21F210BF068FC86000F98800B02289F
:1023040007D00128189B06D1341904E0179E189BA6
:1023140088E73446189B022D00D0179E022D81D1E8
:10232400012010907EE7607CC0071AD06D480078C9
:1023340002210BF06CFF04460AF0B4FE002800D022
:10234400644260B27D30E421654A515E012292020A
:10235400511A4143C817800D0818800A1BA98880A8
:102364005A4C0126B00205900698002800D1EDE0F1
:10237400647D1698044059480078FF2141400C427E
:1023840002D018200AF0BEFFF0205549059A0A52DF
:10239400EE200A52514804704C48007E002830D088
:1023A400E2244F4A115F4943E627D25F524355184E
:1023B40040B20BF093FE03464043854221D91A975D
:1023C400F00301468AB25243AA42024600D80022D0
:1023D4004A400004400C114601430028F2D1404F0A
:1023E400385F584395B229461F460BF0EDFB3C4934
:1023F40008531A9C085F784329460BF0E5FB3849DB
:102404000853324CA37D202B00D29FE00020139967
:102414000029024601460AD1E621314D695A1BAC16
:10242400E2885218E221695A64886118274CE47DD5
:10243400002C0CD0601EC4B26000142C03D32C4CAE
:102444000019283802E0264C2018E0300088DC0609
:1024540000D540421C0700D552425C0700D54942D2
:102464005B09022B06D0032B29D0042B42D1831AFB
:10247400841862E00BB2DB0B9BB25C0B0C1924B228
:10248400E4086442A4B28DB264195D0A4D192DB2F8
:10249400ED096D42ADB264199B09C91809B2890AE4
:1024A400494289B2611893B2DB0BD3181BB25B08A3
:1024B4009BB284B2E418631A641811463DE04418D0
:1024C40039E0C046860C0020E8F90000FE04002034
:1024D4002D0E0020A8040020FFFFFF015D0E002048
:1024E40008FCFF1FA80E00204A0E002088040020CC
:1024F4004004002013B2DB0B9BB25C0B141924B212
:10250400E4086442A4B295B264195D0A55192DB267
:10251400ED096D42ADB264199B09D21812B2920A48
:10252400524292B2A2188BB2DB0BCB181BB25B08DF
:102534009BB284B2E418A31AA418F622FB4DAB5242
:10254400F422AC52401AF2216852F94CF949F6319E
:10255400179800B2002500918842304600DB2846D7
:10256400109909061599019100D001904020039912
:10257400014003911A34B0040D90032013904004D9
:102584000C90F0041090B0050790192008904005B5
:10259400E9492E460490102D00D1A0E300201190AB
:1025A40016952078401EA8421A9600D0ABE21498E3
:1025B40020560BF075FE1890F1B2DC4817914518BF
:1025C400C020285C1990C035139820560026159F0A
:1025D4003946324605F05AF8E17800290ED0012137
:1025E4004840D6490978002900D0074662780D3A58
:1025F400082A00D30746002F02D009E0002807D09C
:10260400617A1F200840CE4A1278D040C00728D0F3
:1026140060782E700146083902290FD26179A279B7
:1026240012025118E279120489180C9A11400D9A79
:10263400914212D1169DC0491A9EEBE12D28169D98
:102644001A9E08D117988000B8490818F849119AB9
:10265400514309120164B849DCE1092821D0374605
:1026640021E0199E70424641631C6278501EC0B23C
:102674000B280E93199619D84100AC4A5118E02240
:102684008F5A012603284ED86079A27912021018B5
:10269400E27912048018079A104244D0F8200F5AA5
:1026A40041E0A44FE237601C0E903CE0132811D89F
:1026B4000D3AD0B241000328DE48405A08D8DE4A19
:1026C400511832228A5C3231497809028918401A39
:1026D400470027E023280DD86179A2791202511806
:1026E400E279120489181438079A4000114217D06D
:1026F400D24916E0242809D149B2C8B2400900D110
:10270400DCE1002900D5E2E10E21E1E12B2800D92A
:10271400CDE1400086494018C9494056C70001E050
:10272400C8490F5A01262E706079A1790902081848
:10273400E17909044218631D10980242129315D1DD
:10274400207A00281A9E12D040B27C21C9437D22EF
:1027540009F0CAFE0BF0C2FC129BC719187859780D
:102764000902081899780904421800E01A9E100416
:1027740000D1C5E06E48407C00070F9201D51420BB
:1027840000E064200A90179A550068490B954E5B47
:1027940090000A18156C280A381A01B20A2902DCBA
:1027A4000998814206DA002E05D100260F9800060A
:1027B40004D100E000261998002824D00F980C9921
:1027C40008400D99884213D1207840009D49401853
:1027D4000121C943405E08998D0245431899002997
:1027E40006D0284615460BF0EFF92A46129B0546FB
:1027F400280A381A010409D000B20028199009D413
:102804000F98000907E019910B9909E0002019902D
:102814000B9905E00F980B990F2606400A9846433A
:1028240042484018403231B201290BDB864909780D
:10283400002900D0761E310402D006802F0A2BE036
:10284400099E093619990680002925D0179518780C
:102854005978090208189978090445182804000EC3
:1028640018D07948007800281A9E17D00F9218992A
:102874000029049A104607D0C81109184140C9B26A
:1028840010460BF099FA129B0B901998002807DC5C
:102894000C2106E038B205021A9E29E0179D19E0C2
:1028A40008210F9ACD400F20284007D002461999DD
:1028B400002906DC0B984042179D04E038B205025B
:1028C40008E0179D0B980A9951430BF07DF94519BF
:1028D400129B0F9A38B22912199F012F01DB8142F2
:1028E40004DC199F002F02D5814200DA05022F0A69
:1028F400156018785978090208189978090442185B
:1029040004202156100200121CD41A20C043814214
:1029140002DB1C2900DA80E07F20C043414038B24A
:102924000BF070F9129B0746169D2AE008FCFF1F66
:10293400FE0400201EFBFFFFB4FDFF1F4A0E002013
:10294400A80E002008460BF0ABFC01280BDB3AB2C2
:10295400002A08D56421081A424310460BF034F9C2
:102964000746169D0CE00028169D09D539B20129A9
:1029740006DBB9B26430484364210BF025F90746FD
:10298400129B187859780902081899780904401894
:10299400C1030AD40E9909784A1E032A05D84900AE
:1029A4001BAA8918891E0988CF1939B2189F4F4369
:1029B4001099084216D0217A002913D048B27C21FC
:1029C400C9437D221D4609F08FFD0BF087FB64216E
:1029D4004143CF192878697809020818A978169D07
:1029E40009044018C5494003800F02280DD001286E
:1029F4000DD1642138460BF0E7F8C049119A4243DF
:102A0400D017800D1018801203E0119702E011987E
:102A140038181190761C0A34C3E506291BD8169D74
:102A24007944097949008F44111224282D343A003D
:102A34008F02000088040020860C0020200400205F
:102A44006D0200004004002045FEFF1F99E738B2E4
:102A5400002896DC1BE00029169D00D57F42002942
:102A640001D50620411A38B2C91FC9B20AF0DBFEEB
:102A740085E738B2C013074083E738B2C0133F1864
:102A840047407EE738B20028059F00DD79E700273C
:102A940077E79848E23039B2CF13074071E738B28C
:102AA4000028059F00DD6CE7924FE23769E72C2888
:102AB40018D1642111980BF087F819E0122007F05F
:102AC400B3FE0126002815D08A4FE2372BE61121E8
:102AD400081807F0A9FE0028059F00D022E6854FBC
:102AE400E2371FE62E3AD0B200210A4606F060FD16
:102AF400074617E6132007F097FE002801D1059F2B
:102B040011E600270FE600227B481792027008782E
:102B140000281ED00F466426119831460BF054F855
:102B240001467248007840003818C0884843A9001C
:102B34007918069A002A01D10A6980180861039954
:102B4400002900D1C7E06D4989880BF03DF8464360
:102B540000E0119E642130460BF036F86A006449A7
:102B640018928852052068435F4D2918AD20400013
:102B7400199111900B18D97804200E901A5612024C
:102B840052182B210901695C4D42AA4200DB15460B
:102B94008A4200DC294601200F901B560A256B430C
:102BA400059FFB185B18183B18B2E237B84200DBEC
:102BB4003B4618B21290824200DC13461998119ACF
:102BC400805645434B4A50194518FA3528B290426D
:102BD400179F00DC474D18B229B21191884200DBDF
:102BE4001D46002E0CD0002E02D41298401B01E08A
:102BF4001198281A00B2704341490AF0E5FF0746CC
:102C040028B2404DA847C61937B21298A8470546BE
:102C1400874200DC35462FB211983A498847064668
:102C2400874200DB2E46572080001999085C002853
:102C340000D07642169B9F2080002B4A105C1F21F7
:102C440001401020401AC0B283423CD21898151893
:102C54002D4AA85C8000010635D0AF1840B2801020
:102C64000BF031FB39788A090146032A24D3002862
:102C740017D11C4A0E9BD25E1B4B244FDB5D9B0677
:102C840004D4009B9A4207DB159A08E0D313D218A8
:102C94005A4012B2142AF7DA019A0F9B5A40002ABA
:102CA40003D1012250401A4A1070194800780028B4
:102CB40000D10F9910480170002904D015482856F6
:102CC4000BF00CFA06460BF03AFB029818994652A0
:102CD4000BF033FB169D6D1C08491A9E5BE41DB076
:102CE400F0BDC046A8040020FE040020A80E002069
:102CF400400400201EFBFFFF900E0020B4FDFF1FC8
:102D0400A0860100E3E100007D02000071030000E1
:082D1400690E00207E020000A0
:102D1C00F0B585B0F34800250570F348078808F036
:102D2C004BFCF2480168F24A12680260501AF14CEE
:102D3C002070F14E3078002803D1F048002105F0C6
:102D4C0007FA2078002800D1B9E2FC480178002964
:102D5C0001D0491E01700BF005F9F9498A8890429F
:102D6C002DD14520F74A105C0A3002062CD0F64AC9
:102D7C001278322A28D30A78521C0A70D2B2102A3E
:102D8C0022D300220A704A88521C4A80FF217831D3
:102D9C00C0B2484380B291B2884215D21F20024083
:102DAC00012A11D1E9480178FD220A40027006205F
:102DBC000AF054FA10202D210AF062F904E04D803B
:102DCC008880E3480121017002F02CFD0AF04AF9D9
:102DDC00E0480178002901D0491E0170284605F011
:102DEC002BFB0AF045FADC48047805703078002893
:102DFC00039501D00294FAE101970F202040801F27
:102E0C00D6498F7C042F03D0032F02D1042700E076
:102E1C0008277C21C9430491C0B2072804D8F021AB
:102E2C002140202900D088E04020204340281CD19C
:102E3C0027460020C543CA4C2078411CC8B28842A2
:102E4C002E4600D106460AF0DDF8002800D10646D1
:102E5C00F0B2C82800D035462570C82802D0039D92
:102E6C003C4602E04220C443039D0C20BD490A5E4F
:102E7C00BD48415F891ACB0EC9184909090493B2A0
:102E8C00294606D003800421415E891ACA0F89188D
:102E9C0049108380B54A1278002A00D02946462270
:102EAC00A84EB25C920600D529464180B04F787985
:102EBC007978091ACAB2D2098918FE220A40101868
:102ECC00787148B2401038722043C0B208F062FCEE
:102EDC00A84800788000A84909585C20305CC01DC7
:102EEC00A64A914200D0A9E0A54909780029049B83
:102EFC0000D0A4E0397A00290CD000223A720622C4
:102F0C00BA5649B25118994200DC19467D2900DBAA
:102F1C007D21B9719F218900904A525C510900D1E1
:102F2C008DE050B200287DD448008E494018C088EE
:102F3C0001218A028018C9027BE04421814E715C18
:102F4C008900904A51184008085C5D21715CC907E2
:102F5C0001D00321081AC5B28B48007829460AF023
:102F6C00AEFD009029460BF04EF9002F08D1C1138D
:102F7C0042184A4011B2890F511889B289084F1C66
:102F8C00022D10D14621715C804A744B9A5C9209D7
:102F9C004A40D2075B7C0121194000D00227002A4D
:102FAC0002D07F4200E000212E46E2077AB2029462
:102FBC0000D15242121893B25C1EA34114464440F5
:102FCC0024B2049D7C35AC4201DC002400E00124D9
:102FDC0023400B430FD100280DD000270098314619
:102FEC003A4608F085FA02980AF090F816200AF092
:102FFC0085F93C461CE717B238467C3080B2F8287D
:10300C007ED8009831463A4608F072FA78B2C01170
:10301C0039184140C8B281083C3115200AF096F9A4
:10302C00002405E748004D494018594940567D3069
:10303C00FA2182B2072050430AF0BAFE049B029494
:10304C0054490978C0B2884202D00AF007F9049BAF
:10305C004C203056504C002826D52078002823D000
:10306C004E48007800283D4A00D19DE000244C4D8C
:10307C002857002801D4401C2870022008F0B8FB07
:10308C007F260146314014D02A788A4225D92C70EB
:10309C0002990906FA4A049BFC4C00D084E040B229
:1030AC00002849DA63207EE0F94800210170F44AD7
:1030BC007AE0032008F09CFB06400ED02978B14240
:1030CC00EF4A049B0BD92C7002990906EF4C6BD17B
:1030DC0040B2002866DA642065E0E94A049BEB4CB8
:1030EC0062E0C046A90E0020E20400207CFFFF1F16
:1030FC0064FFFF1F45FEFF1FAA0E002020040020C6
:10310C00002F049A00DD7D220098314608F0F0F97A
:10311C0038467D3080B20024FA2800D988E678B28F
:10312C00C01139184140C8B280083C21081AC1B2FC
:10313C0015200AF00BF97BE6622034E0410E0020EA
:10314C00DC040020860C0020530E0020920E002080
:10315C003A0E00204A0E0020440E0020FE040020EF
:10316C00870E0020A8040020CA0400203D0E002079
:10317C001C0E0020550E0020E0FEFF1FFD34000049
:10318C00310E0020E8F90000A80E002071030000A9
:10319C00B5020000A70E0020940E0020930E002014
:1031AC00640E00206520029001202070BF79002061
:1031BC00C14CC5B2062D18D8680016185720C0008F
:1031CC00305C00280FD00528394604D007F09EFE4D
:1031DC00049BAB4A014648B2984200DC18467D2855
:1031EC0000DB7D203055681CE3E7019F039DA94C53
:1031FC00206800280DD00025294608F09DFA0BF018
:10320C003DF8A5490A78012A1CD100281ED1256059
:10321C001CE0A1480570A1480478002C04D005706E
:10322C0017200AF06BF802949D48029A02709D4890
:10323C001421017093480078800093490958D0B24A
:10324C00884703E0002801D00120087007F0D4F96A
:10325C00954800781F21014002292DD1934805780B
:10326C00103505700E209249085E410F411809B2C5
:10327C00C9083022804CA2564A430001101880B273
:10328C00A52149000AF094FD7C490A781018401CCD
:10329C004008087029060FD12F21615CC0B2814211
:1032AC000AD911202E2109F0EBFE4620205C0007E4
:1032BC0002D58048322101806E48039901707F4805
:1032CC000178032901D10021017069480088C01BD5
:1032DC0082B27B490B889A4200D90880794EF078EB
:1032EC00002800D1B7E078480188491C01800020F3
:1032FC00634DC7B20B2F00D987E0032318467843E0
:10330C002C184B20C00021180391744961180291AC
:10331C00215C0F22084604921040714A1018401E7E
:10332C0000780328019307D178006E4A125E002AB8
:10333C0004D00CD4561E1DE0049A2CE00022029BF3
:10334C009E56002E16DBF2430A26564312E092B22A
:10335C00561CB2B2B2420DD003227A43AA18624B69
:10336C00D256002A05D4521C52B20A2353435E1E75
:10337C0000E0D6435B4A151808090AD0082800D982
:10338C00401C0AF09CFF002801D1504E7C3603985B
:10339C000178049A2E8011400C295448C55D08D13F
:1033AC000026029880570AF08AFF002803D00126D5
:1033BC000CE02E460BE003207843314908184A49AB
:1033CC0040560AF07CFF002800D12E46049A039840
:1033DC00007810400D282A4D13D100200299085670
:1033EC000AF06DFF00280AD0B0070AD43E482056D8
:1033FC000AF065FF0028019E03D1022601E0FD20A2
:10340C0006403A48C655781C73E709F0ABFD00241A
:10341C002C4EF4702F462E4D785D00281BD02D4875
:10342C0038560AF04CFF00280AD0785D811E04291A
:10343C0009D2C8B200210A4606F0B6F8044606E0E6
:10344C000020014605E0012801D12348C46D20B2BB
:10345C00012105F075FC7078002807D000207070F1
:10346C000B480178002901D0491E017005B0F0BD50
:10347C00E20400203A0E0020860C0020530E00209F
:10348C00FE040020550E0020E0FEFF1F940E0020CD
:10349C00930E0020A0FFFF1F650E00209F0E002042
:1034AC00910E0020950E0020570E0020660E002075
:1034BC0078040020E6040020B7020000520E002021
:1034CC00E4040020C10E0020F004002083FF000063
:1034DC00ED020000EE02000008FDFF1F5602000086
:1034EC0097FA00006004002057020000060E00202E
:1034FC00F0B587B0F24900230B70F24CE17C7022DE
:10350C000F46059217400F220D4606921540EE4AC3
:10351C001278002A04933AD003971420EB4F3856B4
:10352C000AF0CDFE0446EA4E002804D0307800287C
:10353C0001D105F065FF3470E8B2042811D11120D7
:10354C0000900025E14C0A232846294622460AF021
:10355C001AFCDC480078EE490978814243D32846AE
:10356C0042E00390D7480478E94805780A26782E7B
:10357C0008D03A78F0B20021042305F04FFB7F1CF1
:10358C000B36F4E7A54200D2A9E08422A8E002465B
:10359C00803A0E2A00D88FE10246203A0E2A00D932
:1035AC0013E252007A449288520097440F000E00A6
:1035BC00CB02CF02D302E4020E000E000E000E006E
:1035CC000E000E000E000E000F00A5E7042DA3D177
:1035DC000024BD4A54700121117009F097FDCD48AB
:1035EC000470042598E70120039E420054202946CC
:1035FC0009F0FCFA6F2029462A462B4609F078FD83
:10360C00382008F059FA302E00D195E1202E00D147
:10361C0095E1102E00D0A1E11825284608F0F4F908
:10362C000826BD4930460AF0CEFDBC48205C401E41
:10363C00C0B207F031FC15214901625C611801230D
:10364C00C95609028918B64AA75CA218D2561202AA
:10365C00D2199042134600DC034618B28842084641
:10366C0000DB184600B2431A64205843511A0AF082
:10367C00A7FA0746C0B20090192009215022062350
:10368C0006930AF0D4F93AB2792031460AF040FE9A
:10369C00F7480078252231460AF021FE2826F74902
:1036AC0030460AF090FDF648425F0527C42400948A
:1036BC000197122020252946069B07F075FB402018
:1036CC00F54A31460AF01FFE1C20ED490A5E0094B3
:1036DC00019752200723294607F066FBA1E18622B9
:1036EC0025201025294609F081FA26201826562275
:1036FC0031460AF0F4FD5D200027042329463A46A2
:10370C0009F0F6FC332031463A463B4606F066FD9E
:10371C0008F0FAFF00280CD0024626251021284676
:10372C0009F098FB25200F2109232A4609F024FDD6
:10373C0077E06648837C0020009026201021D74A31
:10374C000AF076FC6DE0304609F0C4FC0546D4481E
:10375C00007831460AF057FDC1138A0F821812B255
:10376C009410002801DC204600E00120220600D144
:10377C00441861B21B20C043814200DC044660B295
:10378C001C2800DB1C247F203840C6494919491EDF
:10379C000D7801280BD0022821D10421362228468D
:1037AC0007F0C6FA4948407CC00705D014E0042154
:1037BC003622284607F0BCFA681EC0B21E260697B1
:1037CC00032731463A4607F0B3FA681CC0B23146BB
:1037DC003A46069F07F0ACFA1F20011B18E028465A
:1037EC001B38C0B23B2105913622AF4B9847681E5F
:1037FC000697C7B23A21032638463246AA4B984759
:10380C003C213846069F3246A74B984705996519C7
:10381C00E81EC0B2C91EC9B2072213460AF02CF921
:10382C007F1CFEB2032E8ED9039E012E38D80024A5
:10383C00F74D082C00D1F4E02A88012E05D0002E7B
:10384C002BD1042C05D3302104E0042C1CD35E2096
:10385C001BE0282110B2C00B80B2C30AD3181BB2D4
:10386C005B09D31A400A101800B2C009181802B22A
:10387C000320204036234343123358081830C0B27B
:10388C0020230AF0B8FC08E0222003232340052162
:10389C005943263112B206F03BFFAD1C641CC8E73D
:1038AC00022E7ED106F062FED048057806246C43C9
:1038BC00002D7DD128467CE0910006A251588F4600
:1038CC00940E0020B50C0020310E0020FE040020C8
:1038DC00670E002033390000FB3A0000073B000064
:1038EC001B3B0000293B00003D3B00003139000030
:1038FC003139000031390000313900003139000014
:10390C003139000031390000313900003339000001
:10391C00530E0020910E0020B3FE00009F02000009
:10392C00A2020000F8E50024AE4A54700221117086
:10393C0009F0ECFBB3485AE01020B64905E0B94851
:10394C00007800286DD01020B749B34CA047182040
:10395C00B249A0472020B249A04762E03F2008218D
:10396C00302207F0E5F90520C543002D59D0601928
:10397C00AF49405C002812D0AF1D461EF0B207F0D4
:10398C008BFA03460420009006980190F9000598E4
:10399C0001401031F807400E72B204F04DF96D1C65
:1039AC00E3E73C2028210122042309F0A1FB38E0A5
:1039BC00E01CC1B20A2009F069F9002D19D0A01D34
:1039CC00C1B2642009F062F92BE0612800D1E4E077
:1039DC00BF2800D0A0E50124834E2046B047032029
:1039EC00B0470220B0478148002101708048047024
:1039FC0092E564242826844A204631460AF083FC4A
:103A0C0072250722284631460AF0BBF830267F4A39
:103A1C00204631460AF077FC0422284631460AF04B
:103A2C00B0F8704C207800285FD0012807D181486D
:103A3C0003210E2205F050F80522049B06E07E4877
:103A4C001F210E2205F048F8049B1A467B498B7007
:103A5C0001284AD1A0788018C0B2062845D8C046A3
:103A6C007844007940008744050D212C30343A000D
:103A7C009C0E0020624808F013FE36E0E9FE0000C0
:103A8C0008FDFF1F7248002101705B480121017085
:103A9C00704808F005FE28E0E5FE000093F90000F0
:103AAC00A80E0020D1FE0000E1E200000120887089
:103ABC0065480078800065494018406808F0F0FDC2
:103ACC0013E04E4808F0ECFD0FE04A4808F0E8FD22
:103ADC000BE090205549085A40425A4904E08C208A
:103AEC005249085A40425649088007B0F0BD09F0C7
:103AFC000FFC0AF0FEFB172063E004200743E77479
:103B0C00172009F0FBFB822009F000FBEDE7394898
:103B1C0008F0C6FD832009F0F9FAE6E736480121E2
:103B2C000170374808F0BCFD842009F0EFFAF3E48B
:103B3C00314801210170314808F0B2FD852009F0AF
:103B4C00E5FAE9E4002D2BD06D1E2AE0032D30D8C8
:103B5C006D1C2FE006980140042938D0022900D0B2
:103B6C00DAE422480178491C4AB2022A00DD00211D
:103B7C0001700225D0E406980140042924D00229C2
:103B8C0000D0C9E419480178491E4AB20225002A1E
:103B9C002A4600D40A460270BEE4042D1DD0BBE4B4
:103BAC00042528463843E074A12008F08DFE14202B
:103BBC0007E0002528463843E074A12008F084FE75
:103BCC00132009F09BFBA7E43846303001E038465F
:103BDC00103030210140081DE074172009F08EFBD5
:103BEC00042599E4310E002019D10000850E002027
:103BFC00670E0020959900003D0E0020C5140000B2
:103C0C00F1540000910E002011FF00000EFF000087
:103C1C002004002071F90000D3E10000ABF8000093
:103C2C005CFC0000C50E002082F9000008FDFF1F9F
:103C3C00B70200006FF80000A3F10000350E002061
:103C4C00F8040020FC040020550E0020E0FEFF1FAD
:083C5C00960E00201104000087
:103C6400F0B58FB004463148007809F0E3FB05460F
:103C74002F4F0E22384607942146FCF71FFA2D4891
:103C84000AF09DFA2A78801DC0B2002421462346FA
:103C94000AF08DFA3F57384609F038F8069026485E
:103CA40002780820254902900AF0C2F82B46F8B29F
:103CB4000890E0430390691D0D950591E0B2072833
:103CC40000D31DE206982018C0B2089981420C94D2
:103CD40001D0002601E01A490E780E2800D90CE222
:103CE4000C99CD002C460834810001A251588F460E
:103CF400493D0000693D00007D3D0000913D00000C
:103D0400AB3D0000C53D0000E73D00001F3E000044
:103D14007D3E00009B3E00002F3F00005F3F0000FF
:103D24007F3F00009F3F0000C13F00008A0E00203B
:103D3400790E0020CEFC0000400E002031ED000082
:103D44009E0E00205D78E1B21C46F3B25420224658
:103D540007F08AFE252D00D043E1607A4509253518
:103D6400234642E102201A56E1B2F3B260200AF07F
:103D7400AAF90D9B9870C0E102981A56E1B2F3B209
:103D840060200AF0A0F90D9B1872B6E1059DA87891
:103D9400E1B2F2B20007C00F0AF0DDF90D9BC007D3
:103DA400000BF721D1E0059DA8784006C00F597893
:103DB400042900D929E1E1B2F2B20AF0D5F929E1E6
:103DC400059DA97801200840E1B2F2B20AF0CCF9CD
:103DD4000D9B7F214904AA7812040A40C007C00B36
:103DE400B7E0059A10785178090208189178090407
:103DF4004018C50D000200120399884200DC1CE142
:103E0400042018561A21C943884203DB1B28C54ADB
:103E140000DA13E10225C44A10E1059A10785178BA
:103E2400090208180221515609044018042503996F
:103E340088425F5700DC1FE11A20C043874202DB3F
:103E44001C2F00DA26E17F20C04347404020304346
:103E5400C3B2E1B266203A460AF0D1F9300606D080
:103E64006320C1436422384609F0DCFA07460D9BFF
:103E740080207840187140E1F3B2581E1946814100
:103E840003200D9A12560091E1B24E2009F0D8FE9B
:103E94000D9BD87031E130060A9002D004209B4972
:103EA4000870072009900543049500260121F7B204
:103EB400042F00D921E1587A0E9108401F210B915B
:103EC400084043424341099D754328463F30C0B2F0
:103ED400E1B232463032D2B204F0A4FE0A9800288D
:103EE4001DD08B480078B84219D10498C1B23E3530
:103EF400E8B20822092309F043F907982E2801D0D3
:103F040020280CD10E980B9A02400D99487A504003
:103F14004872022008F0DCFC00207E490870761C00
:103F24000E980006C10D0D9BC1E70899081A43427B
:103F34004341059DA978E0B249078A0F724906F00A
:103F4400D1FA0D9B8007400BF9210904AA781204C9
:103F54000A408018000CA870CFE0059F3A780F251E
:103F64002A40E0B2F1B208F097F90D9B2840397865
:103F7400F0220A4010183870BFE0059D2A78E0B29C
:103F8400F1B21206120F08F087F90D9B000129788F
:103F94000F220A4010182870AFE0059D6A78E0B23D
:103FA400F1B21206120F08F077F90D9B000369783D
:103FB4000907090D4018000A68709EE0059F7A7889
:103FC4000F252A40E0B2F1B208F066F90D9B2903EF
:103FD4007A7812020A400007000D8018000A7870EF
:103FE4008BE0252D00D9AD1D0D9B300600D184E05A
:103FF40068B20121372209F015FA0D9BC1B22529B7
:104004007AD32C2970D3801F76E0E1B2F3B2474A09
:1040140009F0DAFF29786A7812025118AA78120492
:104024008918384A114029700A0A6A70C007400A80
:104034000843000CA8700D9B5FE0394AE1B2F4B26A
:104044000620234609F032FE002C0D9B55D0022198
:10405400284609F04DF90D9B85424ED0811E4A42F7
:104064004A41D1011971C005059A91784906490A56
:104074000818000C907040E06420F1B200900191A7
:10408400E1B26320C34348203A4606F0FFFA0D9B91
:10409400187132E0E1B2F4B20C203A46234608F03B
:1040A40007FA0D9B002C28D058570F21C94316221C
:1040B40009F0B8F90D9B1871079960291DD10728DB
:1040C40007DBC01F14490870144808F0EDFA0D9B73
:1040D400187941B2002910D5C0430F4908700F4820
:1040E40008F0E2FA0D9B08E0597A1F220A404001C9
:1040F400801860305872252058700C9C641CDDE5D3
:104104000FB0F0BDFFFFBF001DF70000840E0020BC
:10411400540E0020460E00208C0E0020FD86000068
:1041240088FE000070FE00008EFE0000C4FA00004D
:10413400F0B58BB00546E1480AF041F8E04C207830
:1041440000281BD0DF4A117A002010724AB2012ADB
:1041540001DB622200E06322002900D01546DA491F
:104164000978002901D1632D05D0D84A125691420D
:1041740002D1622D00D10546D5480570D548007896
:10418400002805D1D1480278CF482946FBF796FF8D
:10419400CF4E3078CC4909780691012103912E281D
:1041A40003D0BF280AD060280AD1C5490A78002A5A
:1041B40040D0F948002202700A70F84C00202070A8
:1041C4000295069840B208F0A1FD0146F84800782F
:1041D400002801D000203070F148007800280791B1
:1041E40040D0F2480778622F01D0632F3AD13E467F
:1041F400623E701E34468441EF480578284609F033
:1042040019F9002D0AD1002C08D00178022901D314
:10421400491E0170022008F05BFB23E0202D21D809
:1042240001D1622F1ED00021622F0A9107460BD0C4
:10423400C8430AE0DE4909780029C1D108F06AFFC1
:10424400002003903446B9E701202D18E8B209F0A4
:10425400F1F83978002905D0102903D80278102AFA
:1042640000D875E1012000263546C1B2102900D9D5
:1042740009E10A910890F0B2099009F0DBF8079B74
:104284000446EFB29F420BD3F81A062808DCC0009C
:104294000830C1B2012000230A9A09F088FF079B65
:1042A40009981F2800D9C4E020780A99884200D0D0
:1042B400BFE0BC4A0F46E8B2984200D2AFE0C11A50
:1042C400062914DCCF00B64909780022002927D139
:1042D4000699C9B2814223D10898B9490870B648F1
:1042E40006700398002813D0B148007816E0072917
:1042F40000D094E0AA480078002800D18FE0AF48AD
:104304000078F1B2884200D089E01078401C81E046
:104314000120A7490870002202924A704242424199
:1043240005920837F1B209980491884209D0E079DE
:1043340000210091F9B24007830F1320A54A09F028
:104344007BFEFFB2302000233946224607F08CFB67
:10435400022022562D203946059B09F0B4FEA07098
:10436400E078002805D042B248200023394606F000
:10437400EBFB207900281DD06179A2791202511833
:104384000722A256120489180BD401461B31C9B264
:10439400362909D842B260200023394608F088F84B
:1043A40008E06020642201E06020452200233946B1
:1043B40004F038FC6079A17909020818E17909044C
:1043C4004018FF210902014001D0532200E02022BD
:1043D400002901D02A2100E04421000600D00A4629
:1043E4007920394609F07FFF6D480078002813D002
:1043F40072480078049988420ED11820662200235E
:10440400394608F0A9F86C48067028460695654AAE
:10441400079B0A9F107002E0624A079B0A9F6D1C6B
:10442400F0B21E2823D8761CA07A0A34B8421BD1D5
:1044340041E70698C0B2B84215D15F4806700898A3
:104444005F490870E81AC000C01DC1B200241922D7
:104454000923204608F094FE0398002803D108F0AD
:10446400EBFC002805D06D1C0898401CFDE62026B6
:10447400FAE751480078214606F0BEFD484804702A
:10448400504808F011F94A48007800285BD0029897
:10449400464C20704C483F210B2204F021FB01289C
:1044A4004AD14348807805282FD8C04678440079FB
:1044B400400087442011222A2E33C0466AFE0000A1
:1044C400420E00201C0E0020820E0020430E00200D
:1044D400910E0020310E002008F0AEFC00280AD115
:1044E40035490878401C0870C0B20024214606F003
:1044F40083FD2B480470334819E02F490878401C89
:104504000870C0B2012106F077FD0120244908702B
:104514000FE0294800782D49087002E02B48FF215C
:104524000170207808F0F6FD00202070284808F07B
:10453400BBF800201E4908701E48002101701E4867
:1045440000781E490870681E174908700BB0F0BD4A
:104554003B468A420BD10A210A060CD002781C463B
:104564001B7803702270631C401C491EF4E7102959
:1045740004D30A9A03E0114805704BE60122704205
:104584007041104002462243012A00D042E6091B32
:10459400081818703EE6C046460E0020960E00200D
:1045A400420E0020820E0020430E0020910E0020B7
:1045B400310E0020460E00208A0E0020880E0020B6
:1045C4008B0E0020653C000028F500004F0E0020F3
:0845D4004DB10000CCFE000017
:1045DC00F0B58BB00990FB4809F0EDFDFA4C207852
:1045EC00421C4E200025294609F092FE2178092212
:1045FC00104607914843F5490C18F54EA05D40074D
:10460C0000D00A22F34F38460999FBF753FDA6193F
:10461C00F14824187F57052F089406960A970EDC4C
:10462C000820FA4909F0CFFDED480078099008F010
:10463C0079FE2078002F00D18AE000238EE00595CA
:10464C000825E649284609F0BEFDB81F4342434100
:10465C00E3480078049030784006820FE149E24C40
:10466C0003952846A0478007400E31789F220A40C8
:10467C0010183070F81F43424341CA091020DB491F
:10468C00A047C00134787F21214008183070083FC2
:10469C007B427B4107252C401820D5492246D24F1E
:1046AC00B84728403178F8220A4011183170A042DE
:1046BC0009D00921079A5143C44A5118EA01059BB4
:1046CC008B5489184B70002868D02020C94909F0F8
:1046DC007AFD06980178294028200A2402290A9B91
:1046EC0000D1FEE0012900D014E1069009200799C1
:1046FC004843B6490818E901425C4518687800023D
:10470C0080187D218E00092B0BD100B232460B3262
:10471C000021022303F058FC2870010A69700499E7
:10472C000591F11D02B28A4200DCF8E06C202027D2
:10473C00B34A39462646059C234609F0B3FA287835
:10474C003530C2B278203946234604F067FA16E1B8
:10475C0040B25E2108F0C8FD2070099BC2B26020F7
:10476C00082106F0E5F82078002822D0401EC0B2BF
:10477C0006F076FC06460820A54909F024FD2078B1
:10478C00252811D38221002200920191253842B2B2
:10479C0048200821334603F04FFA0AE0202009266E
:1047AC00089D0A9C8B4FEEE048200821324609F008
:1047BC00AFFD09200799484384490E189549705C50
:1047CC000A9A012A08D1751840B2062108F08CFD0E
:1047DC00287009990A9C01E000211446C3B2042BED
:1047EC0004D800914E2010218C4A05E00091401F06
:1047FC00C3B24E201021884A09F01AFC022C14D1A5
:10480C00874864210170874D705D771901217956B5
:10481C00090208187D210A028349022303F0D4FB04
:10482C007055000A7870099B00E000230898007806
:10483C00252810D37B49725C7118012549578225B4
:10484C000093019509028B18253842B27820182163
:10485C0003F0F2F90AE07348315C301801228056FB
:10486C00000242187820182109F0C5FC6F49705CD1
:10487C000025032C09D1771840B21521C943162203
:10488C0008F0CCFD3870099B00E02B4642B260204A
:10489C00202106F055F9DF208100705C042C06D134
:1048AC00751840B2212108F01FFD287000E0099511
:1048BC00069DC2B260202821099B08F065F8601F94
:1048CC00434243412878C006820F3020584905F0F6
:1048DC0005FE8007C00E2978E7220A4010182870C0
:1048EC006DE005940690092007994843374908184C
:1048FC00E901425C45186878000280181C46092BB7
:10490C001BD140B20F2108F0EFFC00216970287018
:10491C00049913E0089D2F4F26461C4633E0B24203
:10492C0018DD0C30C2B26C202021059B08F08AF8EF
:10493C00089D284F0698264624E00021089D254F07
:10494C000091C3B25A2020212B4A09F071FB069822
:10495C00059E18E0264678202021059C234609F068
:10496C004AFC002C0BD00998802805D1287869784E
:10497C000902081808F07CF8204800210170089DF5
:10498C00144F06980A9C1F49069009F01CFCA6427D
:10499C000FD1099880280AD10921284609F0A5FBD6
:1049AC001648002101700A2C01D103983870049B21
:1049BC0000E000234820144A069909F073F90BB063
:1049CC00F0BDC046D3FB0000830E0020FE04002087
:1049DC007D030000710E00207903000075F50000C6
:1049EC009E0E00202EF80000E9A40000C7FB00007A
:1049FC0018F800003BFC000020EE0000460E0020E2
:104A0C0005FF00002DFE0000A6FC0000D7F40000FE
:104A1C00A9FE00007A03000008FA0000AEED0000C9
:104A2C00950E00207E0300000083FFFF7B03000037
:044A3C0047F6000039
:104A4000F0B583B0E34E0125357006F0F3FC002489
:104A5000E1480157002907D5E04A13783746F02688
:104A60001E40331D3E461370DC4F3A78142A35D869
:104A70005200C0467A449288520097449E009E009D
:104A80009E0087006A000D010D010D010D010D0151
:104A90000D010D010D010D010D010D01140014009A
:104AA00014000D01110107F04FFE032009F03FFC37
:104AB000C02009F0B5FA08F04BFB3878401C38707C
:104AC00038780F210140032903D33878F0210140C1
:104AD00039703878202101433970DDE010462038E4
:104AE00003286AD310463038032818D2252007F04F
:104AF00069FFBB480178BC2900D0CDE0417A01298B
:104B000000D0C9E00321C943B74A002936D0531861
:104B10004418647A7D25ED005C55491CF5E7242A8C
:104B200017D0342A00D0B7E00024204609F006F957
:104B3000800600D5F7E0252007F044FFA84E717AE3
:104B40003078AA2800D0E7E0FC2900D0E4E001207A
:104B5000E7E0AE4D2878411C2970AD490C5CA748B0
:104B6000007803F01BFF3878DF2101403970287886
:104B7000102800D280E0002028707FE03878F021F3
:104B80000140C81C3870A348002110E0A14A1378E6
:104B90005B1C1370DAB2042A0FD33A78F023134067
:104BA0001A1D3A70994A0123137080221143017033
:104BB0003878DF21014039706EE0894CFF20207287
:104BC000E071A0710020A07286490968617003221B
:104BD000D243D21C62710A0E22710A0CE270090AD9
:104BE000A1703E788A49102804D022180B5CD37239
:104BF000401CF8E720461B300A21FF2209F07CFA0E
:104C00002520002121540F200640751E032D20D29F
:104C1000BC202070032E11D1F920800072490A5C5B
:104C200062710818C17821728178E1714078A071B1
:104C300020460B301021FF2209F05EFA80202077F9
:104C40000120E076E8B20228624E00D302256572A8
:104C500006E0002E5F4E03D101206072BB20207061
:104C60003878DF21014039706B480078C00701D0E7
:104C70000D2401E07320C44307F0E6FFE1B22520D4
:104C800006F0EEFF08F064FA63480178491C0170F1
:104C90005B480188491C01800020307003B0F0BDE2
:104CA00007F052FD284609F042FBC02009F0B8F990
:104CB00038782021029108433870514800880190CB
:104CC000504909F051F84E424E414F49019809F0C0
:104CD0004BF8002900D075004848057008F038FAF4
:104CE000424D434E2B2C12D0285D002802D0401E8E
:104CF00028550AE001200021224609F0D2F8326846
:104D000082433260706888437060641CEAE73878D8
:104D10000299084338700AE0AA280AD1FD2908D16F
:104D20000220364908703878DF2101403970294E59
:104D3000B2E7AC2801D0AA28F5D1701C2949042576
:104D40002A4609F025F90290F92080002649091821
:104D5000701D2A4609F01CF902990843E3D11D2071
:104D600008F0ECFF2149FF220A7121490A6810234B
:104D700013430B603C2800D83C201E4D29691E4A75
:104D80001368591A08181060642109F017F828618F
:104D90003078AA281BD0AC28C5D134460934A01BD2
:104DA00008381928BFDC2078FF28BCD0A578AC21B2
:104DB000204603F04DFD2819C41CF0E730190930D6
:104DC0000178FF29AFD0AA2103F042FD241D1C2C3D
:104DD000F4D1A8E7980E0020480E0020970E00207E
:104DE000B8FEFF1F9CFFFF1FFE040020A90D00203E
:104DF00000F8FF1F08FDFF1FB00E00207D0E0020F1
:104E0000EE0400202106000021050000510E0020C4
:0C4E1000E60D00205E0E00204C0E00207D
:104E1C00F0B58AB01F246102C34842680A4342605D
:104E2C000121CA06836813438360C04BDA681020E3
:104E3C0008900243DA60BE488269BE4E32408261FD
:104E4C00426832404260426932404261BA4DAA68BF
:104E5C003240AA60B948826D32408265426F32405E
:104E6C0042672A6832402A6016229A60DA680A433E
:104E7C000E27BA43DA60002203921A6247225A6262
:104E8C001C605A6A80240994224340240794A2434C
:104E9C005A621A681206FCD50F2205921204A84E0B
:104EAC00736D934373650C02A64B1C645C649C6429
:104EBC00DC64726D3A4372655C609C60DC6020223D
:104ECC00D2437261A04A1461726D0A437265CD437C
:104EDC000195326C2A4032641C608A079B4B5F69D7
:104EEC0017435F611F6897431F6084677269089D51
:104EFC002A43726132682A433260934DEC60CF07CB
:104F0C005A693A4306975A611A683A431A60C46759
:104F1C004A037769174377613768174337602C6307
:104F2C008B4F7A6D099D2A437A653A6C2A433A6411
:104F3C007F4AD461059A920405465869104358611A
:104F4C00186890431860AC64EC642C656C650320A5
:104F5C00049002020292286C104328640598000207
:104F6C007A6902437A613A6882433A607248046211
:104F7C0044628462C462786D019A104078656C4D0D
:104F8C002C6078690222904378616B484460786D9C
:104F9C00089A904378652C61080372690243726128
:104FAC003268824332606848C4628A0501925E4D61
:104FBC0028681043286048025F4A90615061654A36
:104FCC0012200590907019205070117062480838AA
:104FDC0005680E4661490D400560B00260490860E5
:104FEC009078079D284390707869089A10437861EF
:104FFC0038681043386050490C617869099A10433D
:10500C007861386810433860CC61786908221043A5
:10501C007861386890433860CC60586904990843CB
:10502C0058611868884318604448046044604048DC
:10503C00C460494BD8684B49084006994018D86061
:10504C00474D2960F205384CA0681043A06005203C
:10505C00089000020090DB30434F38600498B86031
:10506C009F2038610720B861194658683B4B18409F
:10507C00801848602F46019828603C48039B0360C9
:10508C00204630383A4A02607006A2680243A26099
:10509C003848394A82600A68304D2A400A60B204A6
:1050AC003A60492202602F4D681CA2680243A2603C
:1050BC003248334A8260FF2212020F689743F20390
:1050CC00BA180A607204264F3A600360B006A268F0
:1050DC000243A2602B4A2C489060D3602B4810618D
:1050EC00482050611848029F0760476008682840B4
:1050FC00069D40190860F004194908601360206887
:10510C000799084320600D480099416601662048C4
:10511C0005990170099941701E481F4941608360CF
:10512C00089901600AB0F0BD3480044000B003401F
:10513C0000C00440FFF8FFFE00B0044000D0044063
:10514C0000F00F4000A004400490044000F10F4018
:10515C0080F00F400160074010E400E0FFFF00FF0B
:10516C0000E100E0FFFFFF0000710340007003400E
:10517C000000010100900340FF0B00000080034081
:10518C003B2D000000A00340FFFF000060EA000080
:0C519C000160064010E000E07FBB000056
:1051A800F0B58FB08278EE2A0CD1C378C14A127854
:1051B800934207D10D93C04C2278002A0AD0C04BE5
:1051C8001B780AE0BC4800210170BC4C002020700C
:1051D8000FB0F0BDBA4DFF232B7006795DB20E9665
:1051E800AE4201D0FF2BF3D10D9B5D1E0C230A9319
:1051F8000B956B43B34DEB180C930E9B5B1EB04D98
:105208002B700523B14E8B4206D2C75CD5B27755B9
:10521800521C22705B1CF6E70E98002805D0A748A0
:105228000178491C0170A84CD0E7A44800250570F6
:10523800D0B20428CAD30C9B5E89FF203146814333
:105248000D9808185881A1494F789A7909780E97CE
:10525800FF0909970892002A14D01F46DB798B4270
:10526800B4D10A4606957F250E990D403B890F2734
:105278001F40AF42AAD10792F505ED0F099AAA423D
:10528800A4D107E0079106950C230B9A53438D4A46
:10529800D3181B890C9F3D460A350F260E993140BD
:1052A8000596B3430E915B180B933B810799F971EF
:1052B800874A104009990902081828808348851CE4
:1052C800284608F0C1FF0646089A002A08D0388800
:1052D80080490818294608F0DEFE764D39461CE05C
:1052E80029467D4A304616883E800990C0B20C286F
:1052F8000A9B00D8099BB81D0E9A0D2A6D4D00D146
:10530800099B0370DFB2734880193A4608F0C3FE60
:10531800F01971490880099E0C990B9F0E9A083163
:10532800F01C0D2A11D0092A00D0B3E00A91C5B2A9
:1053380066484019089008F087FF0C99034688785A
:1053480000281BD00A9A5B4D95E00A91C0B25F49CC
:105358000F18384608F078FF0C9A03469078002812
:1053680070D00E9090885B49081839460E9A1F46EF
:1053780008F091FE3B460A9A0B9F7CE00795099638
:10538800881C039054480088524A092501951554F1
:105398008880591E0290461C069F3846089D049135
:1053A8002A180E92091AC2190C929A423ADA1D4624
:1053B8000E9AD35D3B2B04D0B94202D07F1C2B46FA
:1053C800F1E7079A8218B94200D17F1CB0B241496F
:1053D80008183E498918092F00DB019F3A4608F052
:1053E8005AFEF6193C4A16802B46089D092F08DA02
:1053F800B0B22021374A1154761C374806807F1CEA
:10540800F4E7059800020B9A110A8243481C00072A
:10541800000D82180B920A9802800C98401C04997F
:10542800069FBDE7B0B200212A4A1154701C2A49D0
:1054380008800299401A039908701E4D0B9F099E17
:105448000A9A18E039460996951C092B22480688BD
:1054580096800E931F4600DB09271E4880193A469E
:1054680008F019FEF0191C4908802F70114D0B9F88
:10547800099E0A9A0E9B19480178491C0170F02070
:105488008743F018001DC0B21049085C0007000EE1
:10549800381810800D98401C287011490978C0B23E
:1054A800884203D9012028700E4908700648012156
:1054B80001708BE6C70E0020590E00205C0E0020FC
:1054C800C60E0020A60100203B0E0020FC0C002088
:1054D800FFFE0000E6080020F20400205B0E00201A
:0854E800580E0020610E0020A7
:1054F000F0B587B00290BC4808F063FEBB4E34782C
:10550000BB480078002804D1B8480F220299FAF766
:10551000D7FD0025B749284608F05BFE07F088FD57
:1055200002B266200695294608F0F8FE3678B249A0
:105530000878022803D100200870B0490870B048EC
:105540000278511CC9B28E4203D2721E0AD20022C6
:1055500008E0111DC9B28E4204D9321FD1B20A2906
:1055600000D30A2261B201910270A64D069F0594F4
:1055700004960392F8B2062830D2B818C4B2361B8B
:1055800073427341401CC2B2F8001030C1B2122005
:10559000069108F0D8FD2D20285C844204D101201A
:1055A0002A22069908F0A1FE0F252046974C214695
:1055B0002A4606F037F87042704190490978014058
:1055C000103100911820069922462B4608F0E1FB85
:1055D0007F1C059C049E8B4D039ACBE78448007882
:1055E000002807D02D27E95D8048007881421CD033
:1055F0007E251BE0029908466438022874D360298E
:1056000000D180E0BF2900D186E06E297BD08129BE
:1056100000D18EE0612900D0C4E0784908780128E3
:1056200000D0DBE000200870D8E0592508F047FEE4
:10563000002801D16920C5434F207249085C40070A
:1056400001D43F200540E9B26F480A2203F04AFA2C
:10565000012800D0A6E0354665488678072E7DD81B
:10566000B00001A108588746DF56000089560000A7
:1056700089560000715700005D5700007B570000FD
:1056800067570000955700005848017806915D481B
:10569000C155624801270770029807F03DFD07F0E9
:1056A000E7FA069801F0EAFE5D48C17802220A4353
:1056B000C270384607F00EF907F0DAFA06F048FB38
:1056C00003F0C4FD5748807A08F0E5FD07F0F8FACA
:1056D00047480078022802D0022E00D080E05248CD
:1056E00007F016FC2E465DE02D20285C3F49097826
:1056F000884222D10298642801D0652852D14A48B4
:1057000007F006FC4EE04948002707703B4908783F
:1057100001281BD10F7061E000203549087037491E
:1057200008702D20285C31490870012002F08AFEA3
:1057300038E0012006F014FC34E002202C4D2870E3
:10574000029807F0E9FC002068702BE00120284D4A
:105750002870029807F0E0FC6F7023E001202749D1
:1057600008702E4622E02E4628490D72012015E0D1
:1057700028482E460570012006E0029807F0CCFC70
:1057800024482E46057000201B490870224806F068
:105790008DFF07E02E461D490D72002008711C4840
:1057A00006F084FF15480078012817D10198B0420F
:1057B00014D0601CC0B2711CC9B206F02FFD2D20A0
:1057C000104A115C8E4201D1145404E0019A8A42BD
:1057D00004D10C490E54012007F07CF807B0F0BD4D
:1057E000012006F0BDFB7DE722FD00006B0E0020CE
:1057F000310E002082FE0000A50E00206C0E00205D
:10580000400E0020860C00204DF2000062030020B4
:105810008D690000A40E0020A1A00000990E0020B8
:10582000C10E0020FE04002011040000460E0020DE
:10583000F0B58BB0BA498879401C887100200121ED
:105840000691B94DC7B2012F00D9F4E0002F02D064
:105850003720000100E0B748B74908180024005776
:1058600039016E180028069B1BD016280CDB153852
:1058700040B208F02AFDB1798142069B11D0B11DDA
:105880000028087005D10CE008F01FFD0028069BD9
:1058900007D0002F02D008F032FD01E007F03EFDF6
:1058A0002346052179439F48039140180890857845
:1058B000FE202840022801D1A0488488A048007812
:1058C000002800D09F4C0794032008990C56042D03
:1058D00005D368009C4940180838008807900122C9
:1058E000002D0492059337D0162C24DBF0783188F4
:1058F00001438B4A9079084391880143B07808436B
:10590000B11C002801D1002008702046153840B293
:10591000019108F0DAFC019A002808D011780029DA
:1059200005D1F11C0A7853425341019A0B70107053
:10593000059B049A10E0002C0DD0204601972746C5
:105940002C461D4608F0C1FC049A2B4625463C46D1
:10595000019FF07000E0F2703088F1780029029425
:1059600001D1014608E09102079A12B251188A0E3D
:1059700089188911C9B24118694C002B00D1014620
:10598000318007F0D1FDA188401A80B2642850D33D
:10599000A279318809A808F060FA099807900A9955
:1059A0003180002F05D00021A171211D6420059BAD
:1059B00005E02188491C2180A11C059B04980A88C8
:1059C00012180A800798000602D03189491C3181DB
:1059D000002B06D0F11C0978002902D0B188491C9F
:1059E000B1807189400E0A1872814E480399405C5B
:1059F0000899497809020818B08131460C31002D08
:105A0000034610D0012D04D1029A002A08D0B28892
:105A100007E0022D01D8328903E092B2120900E0BA
:105A20006288831A0B80089A1279002A01D0C01A62
:105A30000880781C05E7A889E98981426BD0394B39
:105A400019785A781E79E881EB78002B63D012021E
:105A50005118002E00D0081A07B23C4C207840079D
:105A600026D5002924D00A2F07D0B8B2142807D091
:105A70001E2808D1192029210EE01B202B210BE024
:105A80001A202A2108E0052F47DC28480A3000B2F6
:105A9000874203DDF9B21C2007F0F8FA06980028C7
:105AA00006D020780821014002D02148322101800F
:105AB000002F01D4384600E0A889002E00D13846D6
:105AC00001B209A83C2208F0C8F92078800715D552
