:100000000018002065CD0000A1C20000A3C20000BE
:1000100000000000000000000000000000000000E0
:10002000000000000000000000000000A5C2000069
:100030000000000000000000A7C20000A9C20000EC
:10004000ADC20000AFC20000B1C20000B3C20000E8
:10005000ABC20000B5C20000B7C20000B9C20000C8
:10006000BBC20000BDC2000019B30000C1C2000045
:10007000C3C20000C5C200001DCA0000C9C2000002
:10008000CBC20000D9B8000075D100004DCA0000F5
:10009000D3C20000D5C2000049C10000D9C200008F
:1000A000ABC20000DBC20000DDC20000ABC200003A
:1000B000DFC20000ABC20000E1C2000091C6000038
:1000C000F0B583B002920F4601900825BB48425F0D
:1000D0000621BB4E715E891A8B0EC9188911B94B66
:1000E00019700A23C35E705FC01A840E0019801154
:1000F000B54C2070C0B2C9B2002901D092B2F280D2
:10010000B24C002801D09AB232812478B04A1378D8
:10011000002B03D1B94B1B789B0606D50020AA49BA
:100120000870A849087010700146002904D1002801
:1001300002D17088002801D00CF04CFFA548067849
:10014000012000900298FF285ED0A3480078012883
:100150001FD0002841D1A2490878012802D10020EF
:10016000087034469F4B5A5700201872012A18DB3A
:10017000611CCAB2521A531E9A41B442019B01D269
:10018000002A22D01978029A91420ED2491C197085
:100190001AE000202E2F1CD09049097800291CD18C
:1001A00017E0002A03D421460FE018700CE0002C61
:1001B000019D01D0611E08E02B78002B029A00D02F
:1001C0005A1E2A70009A0A7001462E2F04D101206F
:1001D0000C468149087000E00C4683480078401CBA
:1001E000C5B2854201D00020C5430CF013FF0028A2
:1001F00000D10546E8B23D2804D3012076490870B5
:10020000764908707848057078480670734D2878EC
:100210000028019B17D03846603805283CD938465D
:10022000423803284CD9212F00D171E02E2F3AD02B
:10023000812F64D08E2F68D0BF2F00D0A2E0002481
:100240001C702C709EE060480078002813D019784C
:10025000091A4AB20020002A00DC0146CAB2029DF7
:10026000AA4200D32946197057490870E0B2B0423B
:1002700000D33446594D18780028CCD05148007826
:100280000028C8D0241A60B2002800DC0024E0B2A4
:10029000B042C0D33446BEE778440079400087447A
:1002A00002711D262B5B0298FF286BD028784142F3
:1002B00041412970002865D147480121017061E062
:1002C000784400794000874401293545187802991F
:1002D000884257D02978002904D053E02878002894
:1002E00050D118780299884246D3002045E02878FA
:1002F000002847D1187817E0002E20D142E00020D6
:10030000287000980BF06CFE3CE08E200CF024FF6F
:10031000287800282CD00020287033E01878002896
:1003200030D0297800292DD1002801D0401E02901C
:10033000029822E0002E25D0E0B2B04222D02878E8
:1003400000281FD12A4900200870E1B2B14232D3FF
:10035000044617E0200615D0002E13D02878002878
:1003600010D123480021017020060AD0661E08E043
:1003700000200BF035FE05E0401C1870E0B2B042E2
:1003800000D33446114804700020124908702878C0
:10039000002801D0022100E00121094B154A11700B
:1003A00059884A1E91410028009A00D10A461248F5
:1003B000027003B0F0BD641CE4E7C046980400205E
:1003C000BA0400201F0E00201E0E0020340E002054
:1003D0001D0E0020620E0020740E0020260E00204C
:1003E000400E0020FC0D0020790E0020810E002020
:1003F0006F0E00207C0E0020250E0020BC0C00207B
:10040000FFFFFFFFFFFFFFFFFFFFFFFFFEFFFFFFFD
:10041000F0B595B0244902260E70244C07222146DF
:10042000059209F0F3FC0146214F3878401EC2B214
:1004300020461291FFF744FE1E4D2878411ECAB295
:100440000D2A0AD81C4BD340DA0706D048B28000E8
:100450001A4908580CF070F928780D2801D900F0D5
:10046000EEFE24781394400078448088400087444E
:100470000D00E6062B00FE004301E606E6065501E8
:100480005200E606E606E606F000EE020C480DF025
:1004900081FE0E203870601CC2B20A4807210DF0A0
:1004A00019FA00F0CCFEC046800E00204C0E002051
:1004B0006B0E0020150E00203127000000C7000041
:1004C0008CF10000C8C60000F9480DF063FE06205C
:1004D0003870F84807780825F74928460DF062FE7D
:1004E00063426341F54EB07D4209F54928460AF062
:1004F000B5F84001B17D1F220A401018B075F07D9B
:100500000025012C00D0D8E240B224210CF0DAFE04
:10051000F0753B46D2E2EB480DF03CFE10203870FF
:10052000E94800781190139840B20CF007FC139B37
:100530000D900022072A01D100F081FE0D9881184C
:10054000481CC0B214904000C9B21291994202D125
:100550000221F94C2170D94940181499102901D869
:10056000F64900E0F64945180E92D0000830109088
:100570000024032C6AD200201199A14201D0014627
:1005800001E0CC490978129A9A4200D00146CEB2D5
:10059000711E304688411499102955D87F21214079
:1005A000012921D000293CD140000F901098C6B2FB
:1005B000002738463146149A3B460DF0E3FD287873
:1005C0008009022800D901270F9B3046F3493A469B
:1005D0000AF044F83F21002800D0C843139B2A7832
:1005E0000A4002432A702FE028781099C9B2800689
:1005F0008216452033460AF061FB139B002E23D060
:1006000028781521C9438006801616220CF0E2FED8
:10061000139B3F2101402878C022024050182870C7
:1006200012E00127EA571098C1B2782033460DF046
:10063000D1FD002E139B07D0E8577C21C9437D22B2
:100640000CF0C8FE139B6870641C92E70E9A521C53
:1006500070E7DD480DF09EFD0A203870042C0E96E0
:1006600000D93AE20CF04CFE00252C4637E2D74880
:100670000DF090FD11203870AF4803210170AC4897
:1006800000780D90139840B20CF058FB139B049027
:100690000F2B00D90FE35800CD4C205AC10B401846
:1006A00000B24010CB4942184E2000210DF01FFE31
:1006B000139BC9480078802800D00BE30D980028D0
:1006C00000D007E3052058437C49081857218900CA
:1006D000425C0499591A4900615A002A00D04942E3
:1006E000FF225E328154090A8018417002200CF00A
:1006F0001DF90CF0D3FAECE2B8480DF04BFD0520E3
:100700003870B74800240470B64E35781398002826
:1007100001D100F0C4FC234600F0CAFCB2480DF041
:1007200039FD0C20387084480321099101708048FC
:1007300000781190139840B20CF000FB0890002450
:10074000072C01D100F07BFD5A4800781490E0009E
:100750000830C5B200274C22384629460DF0AEFDC0
:1007600008980019C6B2082E0F9401D8312100E074
:1007700038210818C2B2052029460DF09FFD0998BE
:1007800070434E4909184B20C0000E9112900B5C2B
:1007900013988642149C00D03C46119E002E2046A1
:1007A00000D03846C0B200900F20109003400D20BA
:1007B00029468E4A0DF033FC022E204600D03846E2
:1007C0000C90012E149400D03C460D9488480E9C49
:1007D00026181298205C109908400CF0EBFD0228B6
:1007E0000A960B9016D0012820D0002100282ED187
:1007F0007756252F34DB7F4961560C9AD2B200928E
:1008000082220192253FFE223A407D31382A5DD076
:100810000B465DE07748225C0C98C3B25020294615
:100820000AF046F932780D98C3B259E000203256EA
:100830000D98C3B2362029460AF040FA6D48225678
:100840000C98C3B24D2029460AF038FA4CE0725693
:10085000694900912021002A07910AD40D9F0AE0DE
:10086000644822560C98C3B2632029460DF0B2FCAE
:1008700033E00D9F0F43FBB2D109514048B2401CF9
:1008800082B2492029460DF045FC5A4820560028DE
:1008900001D40C9902E00C99079A1143CBB2C1091B
:1008A000414048B2421C6B2029460DF093FC1BE0EE
:1008B00022FC00007C0E00209FEF0000EE040020D0
:1008C000D5F700006BFA0000340E00200A234B43DA
:1008D0007AB26420294607F021FA0D9F3278FBB2E4
:1008E000362029460AF0E4F811981499129AA618AD
:1008F0000328084600D0002031780A09082A00D9C8
:10090000521CC3B2682029460AF0D8F93B48007847
:10091000002800D198E01498000600D194E01198C6
:10092000032800D990E003A1085C40008744C0463A
:10093000340E00200A212F40620E00207B020000AE
:10094000DF0200003078109D28400E210CF0BAFC28
:1009500028403178F0220A40111831700CF02AFD3D
:100960000B99814270D00020224960540A99087086
:100970006AE00B98032867D87844007940008744E0
:10098000013F014600210A9C60565E2245E00B981B
:10099000032859D802A1085C400087445BFA000094
:1009A0000342484D134D60577C21C9437D2248E0E6
:1009B00030780009109C21460CF084FC31782140ED
:1009C0000001081830703FE071FE00002BFE0000AF
:1009D00010040020DC0500006F0E002095FD0000D3
:1009E000720E00206C0E0020D9F900008AED000084
:1009F00056020000570200000DFF0000250E0020E7
:100A000000200A9C20561521C943162205E000202B
:100A10000A9C20563121C94363220CF0DBFC207074
:100A200012E0FC4D60571521C943162209E0F94D2B
:100A3000605700215E2204E0F64D60573121C94322
:100A400063220CF0C7FC60550F9C641C78E6F248EA
:100A50000578F2480DF09EFB139C0A2C00D99EE20B
:100A60000CF04EFC224610203870052C00D9E8E32B
:100A7000002A02D1EA480921017051425141E94856
:100A8000007800910821E84E0A2732463B4609F0DB
:100A900017FA13980128149501D000F048FC129819
:100AA000602802D1B07A0DF0DFFBF05731210CF055
:100AB00009FCB0722B4600F03CFC2B46C2B266200B
:100AC000102109F0F5FF307E1399022953D140B26D
:100AD00064210CF0F7FB30764EE005240125CE486A
:100AE00007780826D14930460DF05CFB2A463132A2
:100AF0001E20109631460DF0E1FB139814948442A9
:100B000011973B4600D0002305206843C84A115C7A
:100B1000141801201290205600930002421847201A
:100B200010990CF022FE1399149D8D420E9E16D141
:100B3000C0483C2202703B20C143002528460CF0EF
:100B400049FC2178627812025118081801B2002974
:100B500000DC28462070000A60701399149D681C00
:100B600088423DD10220205613210CF0ABFB139993
:100B7000A070012235E02F46C2B2542018213B4616
:100B80000CF008FA139DE81E42424241B07D400736
:100B9000C00F2021A84CA047C007400FB17DFB2209
:100BA0000A401018B075281F424242410807C00F82
:100BB0002821A047C007000FB17DF7220A40101876
:100BC000B075681F42424241C806C00F3021A0479D
:100BD000C007C00EB17DEF220A401018B0752EE399
:100BE00000220529129B00D381233C20102109F00B
:100BF00063FB032728463043002213998842119B48
:100C000000D013461092E257002B304600D03846F1
:100C10000F9700905A2018210CF0F6FFE070139DFA
:100C2000149F781BC01C43424341227920208349F2
:100C300009F014FD2071381DA842119B109A00D0B4
:100C40001346002B0F9800D00646774C052D02D393
:100C50003720000100E07A482518AA5600964F2058
:100C600028210CF0D1FF724F7A7976496254FA78D4
:100C7000754BE254FA79754BE2543A7A744BE2546C
:100C8000744AA35C7F261E407B7ADB01F318A354D1
:100C900028707878A073387860736018B9794170DB
:100CA000B878E072387912990840217BFE220A4018
:100CB00010182073C3E26848007880280AD1102BEE
:100CC00008D166481921017080200CF045FA08F01F
:100CD00009FC139B7C200390C0430C9000263246F5
:100CE000072E00D14AE104983218D4B2F0000890DF
:100CF0000830102C00D142E111966100584B595A2E
:100D00000B91052110946143474B5C1857218900D2
:100D10000991675CFF210A915E31655C61180E9153
:100D20004E78C1B21292501CC2B200200F911490A2
:100D300003460DF027FA30024019002F00D140423F
:100D40000B9943187F217E22002F0846119E00D068
:100D500010461BB20C9D4B35AB4200DB2D20002F03
:100D600000D00A46322B109F00DC02464B200F9920
:100D70000DF0A4FA2C48817D0220084001D003998F
:100D800000E06321C9430791139B129A002801D008
:100D90007D2000E0642006900598089901430891A1
:100DA000AD20400020180B900A985C3020180A9063
:100DB000099820180990149C042C00D3DCE00D98AD
:100DC0006040394659400143149401D0002401E0A9
:100DD00011480478E5B268426841224909784E42D8
:100DE0004E41064302D100201F4908702B2000010C
:100DF0000D49085C002700283CD001210E9A51566D
:100E0000090212788A1891B2002933D082422DDD6E
:100E100007462FE0570200007C0E0020B5FD0000C1
:100E2000620E0020340E0020EE040020E7F30000E4
:100E3000F20D0020730E0020F5D10000BDF7000078
:100E40006F030000AB0200007B020000AD02000057
:100E5000AE020000710300006F0E0020210E002082
:100E600010040020250E0020720E00204742BA42D6
:100E700000DB0F4638B20A210CF08AFE7F21149A5B
:100E80001140022923D0012949D0002964D101252C
:100E90000E99485700020978421820200443E3B213
:100EA0002D200F990DF096F9002E119E109F5ED106
:100EB0000E9C60570002217840187D21CA00022351
:100EC000F64907F0F3F82070000A60704FE00A99C5
:100ED0000978643149B2401801B27D2900DB7D20D8
:100EE00002B266200F992B460DF074F9380406D033
:100EF0000898C1B23220382209230CF063F9002E81
:100F0000119E109F33D10A9C20781821C943643068
:100F100040B2069A0CF05EFA6438207027E00B9914
:100F2000097864394CB2001901B20C9A914200DC84
:100F3000104602B248200F992B460DF04BF9002EB7
:100F4000119E109F13D11922204607990CF042FAE6
:100F500064300B9908700AE0099C20780F992A46A2
:100F60000CF048F9411E88412070119E109F149C7E
:100F7000641C139B129A1FE7761CB1E63820D1B28D
:100F800010290BD110214B40C549097819434B4218
:100F90004B41C1B21220C34A0CF06CFE4FE11495D4
:100FA0001020119038700827BF4938460DF0FAF824
:100FB00020460B3843424341BC4EB27CBC493846C4
:100FC00009F04CFBB07400250C2C00D01495149B38
:100FD000581E1946814114203256009166201199FD
:100FE0000CF012FE307520460D3842424241707CB2
:100FF0000007C00F18210DF0A1F8C007000F717C89
:10100000F7220A401018707420460E3842424241BE
:10101000307B8007C00F20210DF090F8C007800FB3
:10102000317BFD220A4010183073FF2040001490DD
:1010300001242F46072F00D101E1737D2340581E64
:1010400083419C48C25D28463F30C0B2282107F04A
:1010500057FE13980F281CD106209749087097480F
:101060000078874215D128463E30C0B22721082299
:1010700009230CF0A7F812982E2801D0202808D1B7
:10108000707D6040707502200BF050FC0020FC4920
:101090000870640014980440ED1D7F1CCAE768B214
:1010A000032200210B460DF018F90546307001238C
:1010B000681CC2B208262046314609F0F9FCEDB2A0
:1010C00028460BF0ADFA034600942A20EF4A314639
:1010D00014930CF0A4FFEE490E9630460DF062F822
:1010E0006800EC490E5E28460CF0D8F80123009405
:1010F0000193652E194600DB21467C22D24319322A
:10110000964210931E46139B00DB4E00002800D031
:101110002646701E11908641581E45424541304674
:1011200028401821DC4F0A460F91149BB8470094C1
:1011300001941199481E814111910D403021129165
:1011400028460F9A149BB847109F00970197139851
:10115000801E454245412E4028220D9230460F996F
:10116000149BCD4EB0470097019411980540284636
:1011700012990D9A149BB04700940194139FF91E85
:10118000484248411E2563232946129AB0470094DD
:101190000194391F48424841382262232946B0470A
:1011A000B94E30780CF07AF85C250028284600D03B
:1011B0003C204022214609F03BFEB84810990170BE
:1011C000284609F01DF930784100B24A555E1927CA
:1011D000394669430A0E8E18294608F003FD14901B
:1011E0003212722012990DF082F8149E7743380E55
:1011F0003818021254200E990DF079F86801FF2179
:101200004900891C4018820D8018870A38465C30D6
:10121000C0B2720151188A0D89188E0A1D21891BCE
:10122000C9B207252A4609F003FE5937F8B2202132
:10123000891BC9B22A460DF03CF89848047015B0D5
:10124000F0BD08249849204615460CF0ABFFA81FB6
:10125000424242418B4DA87D8007C00F21460CF0D1
:101260006DFFC007810FAA7DFD2313405918A97592
:10127000002825D1AD2040002818D5214900691843
:1012800088421DD200214256002A00D50170012259
:101290008256012A00DB4170401DEEE718FCFFFF7B
:1012A000210E0020C8F9000093F20000EE04002097
:1012B000C8F500000DFE0000620E0020340E002074
:1012C0001398C01F43424341754FE85D8006C40F29
:1012D00010207649224609F0C1F9C107890EEA5D5E
:1012E00020239A435118E95501263040A04202D0EC
:1012F0000AF06CFDE95D1398083842424241480605
:10130000C40F182120460CF019FFC107490EEA5DF1
:10131000BF2313405918E9553040A04201D00AF0CC
:1013200055FD0BF0D3FE002869D0812268E0B07A29
:1013300000235F49009141218900C0B24218582022
:1013400010210CF0E7FE18205A490CF02BFFFF206B
:101350004700012400251398082D14D05648305C0E
:101360002040411E8841009054484219062068439D
:101370004230C0B2182101230CF0EDFC1398640038
:101380003C406D1CE8E7022819D141201721382282
:1013900009230BF017FF13981299602901D02E2909
:1013A0000DD112980BF0D8FE0CF0A3FD42497054F9
:1013B0003C480021017002200BF0B8FA1398C01EBF
:1013C00042424241364C305DC006C00F20252946BE
:1013D0000CF0B4FEC007C00E315DEF220A401018B9
:1013E0003055139804282FD12B2004013057642145
:1013F0000BF068FF30552021149D0D4327E080221B
:10140000602020210CF05AFF139C204609384242EC
:101410004241687C304028210CF090FE3040697CCD
:10142000FE220A40101868740A3C62426241C806F3
:10143000C00F30210CF082FEC007C00E697CEF2285
:101440000A4010186874FAE62B200001305CC2B222
:10145000782028212B460CF0BDFE1398401F4342F4
:1014600043419F208400305D42093020144909F037
:10147000F5F84001315D1F220A4010183055DEE6B4
:10148000260E0020EE0400206C0E002016FC00004A
:101490006BF6000098040020719F00002B0E0020C6
:1014A00071030000260E002034F000007BFA0000DB
:1014B000EAF900005EF20000AF020000AFFC00009D
:0414C0003BF70000F6
:1014C400F0B58BB0224901260E7022490978C9076C
:1014D40001D0042200E003221F4C214608F094FCB2
:1014E40007461E4D2878401EC2B220463946FEF7F4
:1014F400E5FD1B4800780B2801D900F0FCFD01979D
:10150400029618490E7827780A9740007844808814
:10151400400087440B0029005B00AD00BE002A0197
:101524008101AA0186028E02AC02EF02F1480CF09E
:101534002FFE0848007801220240D11C0A322A708A
:10154400781CC2B2EC480CF0C3F900F0D4FDC046DC
:10155400800E0020700E0020590E00206B0E00201B
:10156400150E00207C0E0020E4480CF011FE06202D
:1015740028702E25E248425DE2480090002F06962E
:10158400344600D000247620082123460CF0C0FD08
:10159400002CDB4E07D070570A212D220BF018FFC8
:1015A40070550BF00DFF1020D7490CF0F9FD3125D3
:1015B400705D0024012F00D00AE340B21521C94315
:1015C40016220BF005FF7055069B02E30696CF48E2
:1015D4000CF0DEFD062028700820CD490CF0E0FD5B
:1015E40039465C27C64DE85DC41D4026002906D156
:1015F4000698064360B207210BF062FE0446E2B28D
:101604006620082133460CF0E3FDE01FE8550A9EEE
:10161400701E434243414324285D8006420F10203C
:10162400BC4909F019F84007800E295DC7220A4019
:1016340010182855B01E434243414F242A5D042A02
:1016440000D304221820B44909F006F80328069FA1
:1016540000D907202855032E00D01AE34D2428571B
:10166400012164220BF0B4FE285540233B4313E3CD
:10167400AA480CF08DFD062028700820A8490CF01B
:101684008FFD002F00D1E1E32F209D49085C40230A
:10169400E6E3A4480CF07CFD06202870002F02D15C
:1016A400A1480921017079427941A048007800914C
:1016B400934C2246513208210A2308F0FFFB781E7E
:1016C400434243414625605D4007C00F1021984ABC
:1016D4000CF06BFCC007400F615DFB220A40101840
:1016E4006055B81E43424341C806C00F1821914AB1
:1016F4000CF034FDC007C00E615D3A46EF27394057
:1017040008186055D01E424242414C26A05DC006D6
:10171400C00F20210CF019FDC007C00EA15D394097
:101724000818A0550A9F381F43424341605D800654
:10173400C00F2821804A0CF011FDC007800E615DA6
:10174400DF220A4010186055781F43424341A05DD0
:10175400C0093021794A0CF028FCC001A15D7F2228
:101764000A401018A05500F0C6FC069674480CF008
:101774000FFD09202870042F00D99EE20BF0BEFD56
:101784000825704928460CF00BFD7A427A415D2702
:101794005B4CE05D0126304029460CF0CDFC304026
:1017A400E15DFE22099211400818E0550A98401E96
:1017B400424242414627E55D3540102128460CF05F
:1017C400BBFC08963040E15D099A11400918E155C7
:1017D400A84201D00AF0F8FA0A98022801D00020A1
:1017E400069049200990205C57490F5C0420574D0E
:1017F400C6B2002E00D18FE2062141435431C8B253
:101804000321394069184A781821069B07F076FAB3
:10181400701EF9B28F08EBE74D480CF0B9FC0120BB
:101824002870002525704B4C019E072D00D176E1D0
:10183400E8B20AF0B3FD0E21635E02B29A42014699
:1018440000DB1946E1811C23E35E9A4200DC184662
:10185400A083042D06D309B200B24018C10F40186A
:1018640040082080A41C6D1CDFE706963A480CF063
:101874008FFC062028702D48007807900BF054F94F
:10188400800700D56FE2082034490CF089FC102051
:1018940000231B4D042B00D190E20490C1B2581CCC
:1018A4000390C2B20026304609930891334609F0EA
:1018B400FDF8099948002F183A37042E00D3ABE0FD
:1018C40000240A98814209D1032017490870079817
:1018D400B042234603D10223069C00E023467F2026
:1018E4003040032800D994E001A1085C40008744FB
:1018F40037446279A2F1000058CB0000BDFD00001E
:10190400760C002023FD000008EF0000CEFB000051
:10191400E4F400008BF30000F3F1000039FE000052
:10192400B6EE0000B5FD0000620E0020340E00206B
:101934009BFA000072F70000C3FC0000F2FB0000F9
:1019440011FD00005DF30000A5F7000089FE000012
:10195400C2FB000052030020ADFD00002BFA000082
:10196400787882090898EB4908F076FE8001797846
:101974003F220A40101878704BE07878800685166C
:101984000D20684381B2890B4018821042200899C7
:1019940023460CF01DFCA0073BD51E20C1431F228B
:1019A40028460BF015FD3F2101407878C022024003
:1019B400501878702DE03D7800940720059005407C
:1019C4002B46103348200899E94A0CF026FBA0075F
:1019D4001FD5032128460BF073FC0599084039787C
:1019E400F82213E000203856C5105A2008992A46D8
:1019F400234609F061F9A0070BD50E20C1430F223D
:101A040028460BF0E5FCC000397807220A4010187C
:101A14003870761C099950E704980830039B0A9F94
:101A240037E7D4480CF0B4FB1020D3490CF0B8FBD2
:101A340061E3D2480CF0ACFB0025E9B209297AD263
:101A4400E800032900D90838C4B26E1C72B22A20F7
:101A54000023214609F030F90F35E8B208F09EFF63
:101A64000246442021460CF082FB3546E5E7C44893
:101A74000CF08EFB02982870C248002505702020C7
:101A840006430696C04FEEB2082E68D2E800C4B2F0
:101A94001820412221460CF00FFC28463130C2B2F6
:101AA4001E2021460CF008FC30460AF077FC024662
:101AB4002A2021460CF00AF8032E04D830460BF0F5
:101AC4001FFB401E02E0062E28460CD8C0B2400080
:101AD400385E19214143080E081802125A20214683
:101AE4000CF003FC04E05A202146069A0BF098F807
:101AF4006D1CC8E7A5480CF04BFB029828707B428C
:101B04007B414624A24D285D4006C00F0821A14A0E
:101B14000CF024FBC007400E295DBF2277E12A2484
:101B2400202E9D4D285D9D49087000D1F0E1BF2E07
:101B340000D1F9E100E2102099490CF031FB0024B6
:101B4400E0B206281DD2E1003822551A08F026FF1B
:101B54000246E9B220200CF00AFB641CF0E78F482F
:101B6400029901708F480078002800D1C3E2302424
:101B7400874D28577E21C9437F220BF029FC285525
:101B8400B9E254201821884A0CF0AAFB0025EBB2D4
:101B9400032B00D9AFE2E8002030C4B25420214620
:101BA400824A0AF037F96E00B01DC0B208F0F6FEA2
:101BB40002466C2021460CF0DAFAF01DC0B208F09F
:101BC400EDFE0246782021460CF0D1FA6D1CDEE7CA
:101BD400234642B26020102109F06EF8B81E42423A
:101BE40042414C25705D4006C00F18210CF0A4FA48
:101BF400C007400E715DBF220A40101870552025A1
:101C04000321E7B2022F31D23046002F01D05030E9
:101C140000E0483004780A988142089106D160B205
:101C240078210BF04DFB0446069B00E00023E6B24E
:101C3400052272430995EDB2662029460BF0A8F9F6
:101C4400002E04D07820732229460CF035FB002F97
:101C54004F4E304601D0503000E04830099D08997D
:101C640004707C1C0835481CC1B2CAE70A98401F9E
:101C7400424242414624305D0007C00F30210CF03F
:101C84005BFAC007000F315DF7220A401018305587
:101C940031E24D20285C4023C2B2662020210CF0A2
:101CA40097FA042E00D098E04E24285705210BF013
:101CB40007FB285540210F4392E0092F01D3082741
:101CC40027700A973A4803210170314C5F34082188
:101CD40005260027042F00D10DE200200090CDB28C
:101CE400FBB21E2009912946324A0CF096F9F6B24D
:101CF4000A98801B414241412F48007800910423F7
:101D04002946224608F0DAF80999241D7F1C083177
:101D1400761CDFE776FB00000698002805D0099DB5
:101D2400605717210BF0CCFA605500252F46042D7F
:101D340071D01826304678432430C0B2EBB220214B
:101D44001A4A0AF067F85E20205CE840C00707D012
:101D54006E432436F0B22021122200230AF042FC02
:101D64007F1C6D1CE3E71820EF490CF019FAC2E15F
:101D740067EC0000A5FD0000C7F20000C2FE0000F1
:101D8400F5FE0000720E00209804002008FD0000FB
:101D9400760C0020D5FD0000520300201D0E00200B
:101DA4004BF60000260E0020DDFD000054EF00007D
:101DB400620E0020E6F80000340E0020042F00D04C
:101DC400D2E04A2428570921C94328220BF000FBFA
:101DD40028552021069B0B43C9E04E20285C402750
:101DE400D9490091C2B2662028213B460CF090F9F3
:101DF400701F434243414624285D8007C00F3021B1
:101E0400D24A0CF0D2F8C007800F295DFD220A40A7
:101E1400101828556FE10A98032800D0EBE0B84861
:101E24000078C00709D05E2560570F210BF048FAEF
:101E34006055C4480078400605D423201F215C2245
:101E440009230BF0BDF94420205CECE02F24AF4DB6
:101E540028571E2178220BF0BBFA28554023334320
:101E6400C2B2662008210AF0C7FE4525A74C605D72
:101E7400012F08D140B20921C9436E220BF0A8FA00
:101E84006055334600E0002342B20A32702010212C
:101E94000CF09EF9B81E424242414325605D012781
:101EA40038401821A54EB04733463840615DFE22C4
:101EB4000A40101860550A9EF01E424242418807AB
:101EC400C00F20211F469847C007800F615DFD2287
:101ED4000A4010186055301F424242414807C00F63
:101EE4002821B847C007400F615DFB220A40101843
:101EF4006055701F43424341C8093021904A0CF099
:101F04002DF9C001615D7F220A4010186055F2E08E
:101F1400401C7C490855C1B203290DD117200BF090
:101F2400D9F901200AF000FD764800210155182056
:101F34007C490CF035F9DCE0C0B20028F7D0022867
:101F440000D190E0012800D0D3E00024724E734FFA
:101F5400072C00D1BAE0AE83EF81E0B20AF01EFA9A
:101F64002880AD1C641CF3E74A20285C20236F49B9
:101F7400009140B20A3082B24E20302421460CF047
:101F8400C7F832356A4E902C10D028786978090247
:101F940008183188081A400002B2E0B23821202320
:101FA4000CF016F9AD1CB61C1834ECE7052F52D111
:101FB40001986028029C4FD15D4908883222534C15
:101FC400A0545C4A002313703234CA88A2718B88EF
:101FD40023714988A170120AE2711A0A6271090A0E
:101FE400E170000A6070012420460AF09DFC17206D
:101FF4000BF070F930E044250428605D13D14D499D
:102004000978002979D040B203210BF059F9615DB8
:10201400C2B202238A4207D060554C21625C7F25FC
:102024001540655400E000233130C2B2122028214B
:1020340006F064FE0024E0B203285CD8182565434A
:1020440024350BF05DF80246E8B22821002308F09D
:102054002DFD641CEFE7002400203821364A234676
:102064000BF006FE47E02848002101700D20C04314
:10207400264D00282DD023490A18135F1C26965F8D
:10208400F71AF9177F184F40332F1DD399B2B3B203
:10209400D689891B0AB2920E8A1812B29209891A39
:1020A4002A182B27D155D673370A1774F31A1EB280
:1020B400B60E9E1936B2B6099B1B5377090A16460B
:1020C4002B367170190A9177801CD2E710201449BD
:1020D40008E00AF0D7FE2B2168542B35000A6870FB
:1020E40010200B490CF05CF812201821094A0CF05E
:1020F400F7F808F0F9FA0BB0F0BD089B94E7C04676
:10210400700E002052030020720E0020760C002076
:10211400F8F8000040F9000068C50000983A000093
:1021240030FB000051F9000047FE000064FC000091
:1021340078040020260E0020F1FE00004FE100008C
:102144003EFB0000360E002062F90000B6FB0000E2
:10215400F0B59DB0029002200A46149002401392FA
:10216400202008400690012603913140129144201A
:10217400D449085C8006000ED34908181190092040
:10218400C043099000271BA81A90D04C10971797AA
:1021940016971596072F00D1C5E0FCB220460AF029
:1021A400FDF800B21994214608F0C6FD0446032F39
:1021B400384604D82009C649C8551198C05DC5B22F
:1021C4006B00C448C452200F201800B20009010655
:1021D40001D5404200E080B20006BF4988420CDCD1
:1021E400002802D0BD48007800E0FF200121A9406A
:1021F4000140C8B2169901431691032F29D81298A9
:10220400002818930DD1B148007B800709D5AD484B
:10221400C6183A20305C3A36717809020818810BE6
:102224003FD1179E0698002803D0AD48C018F82166
:10223400445221B2284607F0D3FC0446A94800784A
:1022440019990BF0CDFF189B40001A990880179636
:10225400159E0698002803D0A148C018E0214452D6
:10226400032F01D8002000E00120139900293146F2
:1022740000D0014600290ED1022D0CD00A2C02DC1C
:102284000998844204DA9648C018E0210022425298
:102294001BA80021C1521A98801C1A907F1C8B4CD9
:1022A40078E7000200B2C0120BF0F6FF00282DD030
:1022B4008D480078002829D03078717809020918EF
:1022C40048070B460F91000F7E49091832228A5C99
:1022D4003231497809028918844A105A401A81B265
:1022E400C90B401800B24008990009B2890A414359
:1022F40008B21F210BF04AFC86000F98800B0228BD
:1023040007D00128189B06D1341904E0179E189BA6
:1023140088E73446189B022D00D0179E022D81D1E8
:10232400012010907EE7607CC0071AD06D480078C9
:1023340002210BF055FF04460AF0C6FE002800D027
:10234400644260B27D30E421654A515E012292020A
:10235400511A4143C817800D0818800A1BA98880A8
:102364005A4C0126B00205900698002800D1EDE0F1
:10237400647D1698044059480078FF2141400C427E
:1023840002D018200AF0A6FFF0205549059A0A52F7
:10239400EE200A52514804704C48007E002830D088
:1023A400E2244F4A115F4943E627D25F524355184E
:1023B40040B20BF084FE03464043854221D91A976C
:1023C400F00301468AB25243AA42024600D80022D0
:1023D4004A400004400C114601430028F2D1404F0A
:1023E400385F584395B229461F460BF0CFFB3C4952
:1023F40008531A9C085F784329460BF0C7FB3849F9
:102404000853324CA37D202B00D29FE00020139967
:102414000029024601460AD1E621314D695A1BAC16
:10242400E2885218E221695A64886118274CE47DD5
:10243400002C0CD0601EC4B26000142C03D32C4CAE
:102444000019283802E0264C2018E0300088DC0609
:1024540000D540421C0700D552425C0700D54942D2
:102464005B09022B06D0032B29D0042B42D1831AFB
:10247400841862E00BB2DB0B9BB25C0B0C1924B228
:10248400E4086442A4B28DB264195D0A4D192DB2F8
:10249400ED096D42ADB264199B09C91809B2890AE4
:1024A400494289B2611893B2DB0BD3181BB25B08A3
:1024B4009BB284B2E418631A641811463DE04418D0
:1024C40039E0C046760C0020FBF90000EE04002041
:1024D4000D0E002098040020FFFFFF013C0E002099
:1024E40008FCFF1F860E00202A0E0020780400201E
:1024F4003004002013B2DB0B9BB25C0B141924B222
:10250400E4086442A4B295B264195D0A55192DB267
:10251400ED096D42ADB264199B09D21812B2920A48
:10252400524292B2A2188BB2DB0BCB181BB25B08DF
:102534009BB284B2E418A31AA418F622FB4DAB5242
:10254400F422AC52401AF2216852F94CF949F6319E
:10255400179800B2002500918842304600DB2846D7
:10256400109909061599019100D001904020039912
:10257400014003911A34B0040D90032013904004D9
:102584000C90F0041090B0050790192008904005B5
:10259400E9492E460490102D00D1A0E300201190AB
:1025A40016952078401EA8421A9600D0ABE21498E3
:1025B40020560BF05EFE1890F1B2DC4817914518D6
:1025C400C020285C1990C035139820560026159F0A
:1025D4003946324605F0C6F8E17800290ED00121CB
:1025E4004840D6490978002900D0074662780D3A58
:1025F400082A00D30746002F02D009E0002807D09C
:10260400617A1F200840CE4A1278D040C00728D0F3
:1026140060782E700146083902290FD26179A279B7
:1026240012025118E279120489180C9A11400D9A79
:10263400914212D1169DC0491A9EEBE12D28169D98
:102644001A9E08D117988000B8490818F849119AB9
:10265400514309120164B849DCE1092821D0374605
:1026640021E0199E70424641631C6278501EC0B23C
:102674000B280E93199619D84100AC4A5118E02240
:102684008F5A012603284ED86079A27912021018B5
:10269400E27912048018079A104244D0F8200F5AA5
:1026A40041E0A44FE237601C0E903CE0132811D89F
:1026B4000D3AD0B241000328DE48405A08D8DE4A19
:1026C400511832228A5C3231497809028918401A39
:1026D400470027E023280DD86179A2791202511806
:1026E400E279120489181438079A4000114217D06D
:1026F400D24916E0242809D149B2C8B2400900D110
:10270400DCE1002900D5E2E10E21E1E12B2800D92A
:10271400CDE1400086494018C9494056C70001E050
:10272400C8490F5A01262E706079A1790902081848
:10273400E17909044218631D10980242129315D1DD
:10274400207A00281A9E12D040B27C21C9437D22EF
:1027540009F010FF0BF0B3FC129BC71918785978D5
:102764000902081899780904421800E01A9E100416
:1027740000D1C5E06E48407C00070F9201D51420BB
:1027840000E064200A90179A550068490B954E5B47
:1027940090000A18156C280A381A01B20A2902DCBA
:1027A4000998814206DA002E05D100260F9800060A
:1027B40004D100E000261998002824D00F980C9921
:1027C40008400D99884213D1207840009D49401853
:1027D4000121C943405E08998D0245431899002997
:1027E40006D0284615460BF0D1F92A46129B054619
:1027F400280A381A010409D000B20028199009D413
:102804000F98000907E019910B9909E0002019902D
:102814000B9905E00F980B990F2606400A9846433A
:1028240042484018403231B201290BDB864909780D
:10283400002900D0761E310402D006802F0A2BE036
:10284400099E093619990680002925D0179518780C
:102854005978090208189978090445182804000EC3
:1028640018D07948007800281A9E17D00F9218992A
:102874000029049A104607D0C81109184140C9B26A
:1028840010460BF07BFA129B0B901998002807DC7A
:102894000C2106E038B205021A9E29E0179D19E0C2
:1028A40008210F9ACD400F20284007D002461999DD
:1028B400002906DC0B984042179D04E038B205025B
:1028C40008E0179D0B980A9951430BF05FF94519DD
:1028D400129B0F9A38B22912199F012F01DB8142F2
:1028E40004DC199F002F02D5814200DA05022F0A69
:1028F400156018785978090208189978090442185B
:1029040004202156100200121CD41A20C043814214
:1029140002DB1C2900DA80E07F20C043414038B24A
:102924000BF052F9129B0746169D2AE008FCFF1F84
:10293400EE0400201EFBFFFFB4FDFF1F2A0E002043
:10294400860E002008460BF094FC01280BDB3AB2FB
:10295400002A08D56421081A424310460BF016F9E0
:102964000746169D0CE00028169D09D539B20129A9
:1029740006DBB9B26430484364210BF007F907461B
:10298400129B187859780902081899780904401894
:10299400C1030AD40E9909784A1E032A05D84900AE
:1029A4001BAA8918891E0988CF1939B2189F4F4369
:1029B4001099084216D0217A002913D048B27C21FC
:1029C400C9437D221D4609F0D5FD0BF078FB642137
:1029D4004143CF192878697809020818A978169D07
:1029E40009044018C5494003800F02280DD001286E
:1029F4000DD1642138460BF0C9F8C049119A4243FD
:102A0400D017800D1018801203E0119702E011987E
:102A140038181190761C0A34C3E506291BD8169D74
:102A24007944097949008F44111224282D343A003D
:102A34008F02000078040020760C0020100400208F
:102A44006D0200003004002045FEFF1F99E738B2F4
:102A5400002896DC1BE00029169D00D57F42002942
:102A640001D50620411A38B2C91FC9B20AF0BDFE09
:102A740085E738B2C013074083E738B2C0133F1864
:102A840047407EE738B20028059F00DD79E700273C
:102A940077E79848E23039B2CF13074071E738B28C
:102AA4000028059F00DD6CE7924FE23769E72C2888
:102AB40018D1642111980BF069F819E0122007F07D
:102AC4006DFF0126002815D08A4FE2372BE611212D
:102AD400081807F063FF0028059F00D022E6854F01
:102AE400E2371FE62E3AD0B200210A4606F064FD12
:102AF400074617E6132007F051FF002801D1059F70
:102B040011E600270FE600227B481792027008782E
:102B140000281ED00F466426119831460BF036F873
:102B240001467248007840003818C0884843A9001C
:102B34007918069A002A01D10A6980180861039954
:102B4400002900D1C7E06D4989880BF01FF846437E
:102B540000E0119E642130460BF018F86A006449C5
:102B640018928852052068435F4D2918AD20400013
:102B7400199111900B18D97804200E901A5612024C
:102B840052182B210901695C4D42AA4200DB15460B
:102B94008A4200DC294601200F901B560A256B430C
:102BA400059FFB185B18183B18B2E237B84200DBEC
:102BB4003B4618B21290824200DC13461998119ACF
:102BC400805645434B4A50194518FA3528B290426D
:102BD400179F00DC474D18B229B21191884200DBDF
:102BE4001D46002E0CD0002E02D41298401B01E08A
:102BF4001198281A00B2704341490AF0C7FF0746EA
:102C040028B2404DA847C61937B21298A8470546BE
:102C1400874200DC35462FB211983A498847064668
:102C2400874200DB2E46572080001999085C002853
:102C340000D07642169B9F2080002B4A105C1F21F7
:102C440001401020401AC0B283423CD21898151893
:102C54002D4AA85C8000010635D0AF1840B2801020
:102C64000BF01AFB39788A090146032A24D3002879
:102C740017D11C4A0E9BD25E1B4B244FDB5D9B0677
:102C840004D4009B9A4207DB159A08E0D313D218A8
:102C94005A4012B2142AF7DA019A0F9B5A40002ABA
:102CA40003D1012250401A4A1070194800780028B4
:102CB40000D10F9910480170002904D015482856F6
:102CC4000BF0FDF906460BF027FB029818994652C3
:102CD4000BF020FB169D6D1C08491A9E5BE41DB089
:102CE400F0BDC04698040020EE040020860E0020AB
:102CF400300400201EFBFFFF6E0E0020B4FDFF1FFA
:102D0400A0860100B5E100007D020000710300000F
:082D1400470E00207E020000C2
:102D1C00F0B585B0F34800250570F348078808F036
:102D2C008DFCF2480168F24A12680260501AF14CAC
:102D3C002070F14E3078002803D1F048002105F0C6
:102D4C0073FA2078002800D1B9E2FC4801780029F8
:102D5C0001D0491E01700BF0E7F8F9498A889042BE
:102D6C002DD14520F74A105C0A3002062CD0F64AC9
:102D7C001278322A28D30A78521C0A70D2B2102A3E
:102D8C0022D300220A704A88521C4A80FF217831D3
:102D9C00C0B2484380B291B2884215D21F20024083
:102DAC00012A11D1E9480178FD220A40027006205F
:102DBC000AF050FA10202D210AF074F904E04D802D
:102DCC008880E3480121017002F052FD0AF05CF9A1
:102DDC00E0480178002901D0491E0170284605F011
:102DEC0097FB0AF041FADC4804780570307800282B
:102DFC00039501D00294FAE101970F202040801F27
:102E0C00D6498F7C042F03D0032F02D1042700E076
:102E1C0008277C21C9430491C0B2072804D8F021AB
:102E2C002140202900D088E04020204340281CD19C
:102E3C0027460020C543CA4C2078411CC8B28842A2
:102E4C002E4600D106460AF0DFF8002800D10646CF
:102E5C00F0B2C82800D035462570C82802D0039D92
:102E6C003C4602E04220C443039D0C20BD490A5E4F
:102E7C00BD48415F891ACB0EC9184909090493B2A0
:102E8C00294606D003800421415E891ACA0F89188D
:102E9C0049108380B54A1278002A00D02946462270
:102EAC00A84EB25C920600D529464180B04F787985
:102EBC007978091ACAB2D2098918FE220A40101868
:102ECC00787148B2401038722043C0B208F074FCDC
:102EDC00A84800788000A84909585C20305CC01DC7
:102EEC00A64A914200D0A9E0A54909780029049B83
:102EFC0000D0A4E0397A00290CD000223A720622C4
:102F0C00BA5649B25118994200DC19467D2900DBAA
:102F1C007D21B9719F218900904A525C510900D1E1
:102F2C008DE050B200287DD448008E494018C088EE
:102F3C0001218A028018C9027BE04421814E715C18
:102F4C008900904A51184008085C5D21715CC907E2
:102F5C0001D00321081AC5B28B48007829460AF023
:102F6C0090FD009029460BF037F9002F08D1C113C2
:102F7C0042184A4011B2890F511889B289084F1C66
:102F8C00022D10D14621715C804A744B9A5C9209D7
:102F9C004A40D2075B7C0121194000D00227002A4D
:102FAC0002D07F4200E000212E46E2077AB2029462
:102FBC0000D15242121893B25C1EA34114464440F5
:102FCC0024B2049D7C35AC4201DC002400E00124D9
:102FDC0023400B430FD100280DD000270098314619
:102FEC003A4608F0C7FA02980AF0B0F816200AF030
:102FFC006DF93C461CE717B238467C3080B2F82895
:10300C007ED8009831463A4608F0B4FA78B2C0112E
:10301C0039184140C8B281083C3115200AF07EF9BC
:10302C00002405E748004D494018594940567D3069
:10303C00FA2182B2072050430AF09CFE049B0294B2
:10304C0054490978C0B2884202D00AF003F9049BB3
:10305C004C203056504C002826D52078002823D000
:10306C004E48007800283D4A00D19DE000244C4D8C
:10307C002857002801D4401C2870022008F0CAFBF5
:10308C007F260146314014D02A788A4225D92C70EB
:10309C0002990906FA4A049BFC4C00D084E040B229
:1030AC00002849DA63207EE0F94800210170F44AD7
:1030BC007AE0032008F0AEFB06400ED02978B1422E
:1030CC00EF4A049B0BD92C7002990906EF4C6BD17B
:1030DC0040B2002866DA642065E0E94A049BEB4CB8
:1030EC0062E0C046870E0020D20400206CFFFF1F58
:1030FC0060FFFF1F45FEFF1F880E002010040020FC
:10310C00002F049A00DD7D220098314608F032FA37
:10311C0038467D3080B20024FA2800D988E678B28F
:10312C00C01139184140C8B280083C21081AC1B2FC
:10313C0015200AF0F3F87BE6622034E0210E002023
:10314C00CC040020760C0020330E0020700E0020E2
:10315C001A0E00202A0E0020240E0020EE0400205F
:10316C00650E002098040020BA0400201D0E0020DB
:10317C00FC0D0020350E0020E0FEFF1FFD3400008A
:10318C00110E0020FBF90000860E002071030000D8
:10319C00B5020000850E0020720E0020710E00207A
:1031AC00420E00206520029001202070BF79002083
:1031BC00C14CC5B2062D18D8680016185720C0008F
:1031CC00305C00280FD00528394604D007F018FFD2
:1031DC00049BAB4A014648B2984200DC18467D2855
:1031EC0000DB7D203055681CE3E7019F039DA94C53
:1031FC00206800280DD00025294608F0AFFA0BF006
:10320C0026F8A5490A78012A1CD100281ED1256070
:10321C001CE0A1480570A1480478002C04D005706E
:10322C0017200AF053F802949D48029A02709D48A8
:10323C001421017093480078800093490958D0B24A
:10324C00884703E0002801D00120087007F08EFAAF
:10325C00954800781F21014002292DD1934805780B
:10326C00103505700E209249085E410F411809B2C5
:10327C00C9083022804CA2564A430001101880B273
:10328C00A52149000AF076FD7C490A781018401CEB
:10329C004008087029060FD12F21615CC0B2814211
:1032AC000AD911202E2109F0FDFE4620205C0007D2
:1032BC0002D58048322101806E48039901707F4805
:1032CC000178032901D10021017069480088C01BD5
:1032DC0082B27B490B889A4200D90880794EF078EB
:1032EC00002800D1B7E078480188491C01800020F3
:1032FC00634DC7B20B2F00D987E0032318467843E0
:10330C002C184B20C00021180391744961180291AC
:10331C00215C0F22084604921040714A1018401E7E
:10332C0000780328019307D178006E4A125E002AB8
:10333C0004D00CD4561E1DE0049A2CE00022029BF3
:10334C009E56002E16DBF2430A26564312E092B22A
:10335C00561CB2B2B2420DD003227A43AA18624B69
:10336C00D256002A05D4521C52B20A2353435E1E75
:10337C0000E0D6435B4A151808090AD0082800D982
:10338C00401C0AF085FF002801D1504E7C36039872
:10339C000178049A2E8011400C295448C55D08D13F
:1033AC000026029880570AF073FF002803D00126EC
:1033BC000CE02E460BE003207843314908184A49AB
:1033CC0040560AF065FF002800D12E46049A039857
:1033DC00007810400D282A4D13D100200299085670
:1033EC000AF056FF00280AD0B0070AD43E482056EF
:1033FC000AF04EFF0028019E03D1022601E0FD20B9
:10340C0006403A48C655781C73E709F0ADFD002418
:10341C002C4EF4702F462E4D785D00281BD02D4875
:10342C0038560AF035FF00280AD0785D811E042931
:10343C0009D2C8B200210A4606F0BAF8044606E0E2
:10344C000020014605E0012801D12348C46D20B2BB
:10345C00012105F0E1FC7078002807D00020707085
:10346C000B480178002901D0491E017005B0F0BD50
:10347C00D20400201A0E0020760C0020330E0020FF
:10348C00EE040020350E0020E0FEFF1F720E00201F
:10349C00710E002090FFFF1F430E00207D0E0020B8
:1034AC006F0E0020730E0020360E0020440E0020FC
:1034BC0068040020D6040020B7020000320E002061
:1034CC00D4040020940E0020E004002083FF0000B0
:1034DC00ED020000EE02000008FDFF1F5602000086
:1034EC00AAFA00005004002057020000E60D00204C
:1034FC00F0B587B0F24900230B70F24CE17C7022DE
:10350C000F46059217400F220D4606921540EE4AC3
:10351C001278002A04933AD003971420EB4F3856B4
:10352C000AF0B6FE0446EA4E002804D03078002893
:10353C0001D105F0D1FF3470E8B2042811D111206B
:10354C0000900025E14C0A232846294622460AF021
:10355C00FCFBDC480078EE490978814243D32846CD
:10356C0042E00390D7480478E94805780A26782E7B
:10357C0008D03A78F0B20021042305F0BBFB7F1C85
:10358C000B36F4E7A54200D2A9E08422A8E002465B
:10359C00803A0E2A00D88FE10246203A0E2A00D932
:1035AC0013E252007A449288520097440F000E00A6
:1035BC00CB02CF02D302E4020E000E000E000E006E
:1035CC000E000E000E000E000F00A5E7042DA3D177
:1035DC000024BD4A54700121117009F0B7FDCD488B
:1035EC000470042598E70120039E420054202946CC
:1035FC0009F012FB6F2029462A462B4609F08AFD5A
:10360C00382008F099FA302E00D195E1202E00D107
:10361C0095E1102E00D0A1E11825284608F034FAC7
:10362C000826BD4930460AF0B7FDBC48205C401E58
:10363C00C0B207F0ABFC15214901625C6118012393
:10364C00C95609028918B64AA75CA218D2561202AA
:10365C00D2199042134600DC034618B28842084641
:10366C0000DB184600B2431A64205843511A0AF082
:10367C0089FA0746C0B2009019200921502206236E
:10368C0006930AF0B6F93AB2792031460AF029FECF
:10369C00F7480078252231460AF00AFE2826F74919
:1036AC0030460AF079FDF648425F0527C4240094A1
:1036BC000197122020252946069B07F0EFFB40209E
:1036CC00F54A31460AF008FE1C20ED490A5E0094CA
:1036DC00019752200723294607F0E0FBA1E186223F
:1036EC0025201025294609F097FA2620182656225F
:1036FC0031460AF0DDFD5D200027042329463A46B9
:10370C0009F008FD332031463A463B4606F0CEFD23
:10371C0009F040F800280CD0024626251021284636
:10372C0009F09AFB25200F2109232A4609F044FDB4
:10373C0077E06648837C0020009026201021D74A31
:10374C000AF067FC6DE0304609F0D6FC0546D4481B
:10375C00007831460AF040FDC1138A0F821812B26C
:10376C009410002801DC204600E00120220600D144
:10377C00441861B21B20C043814200DC044660B295
:10378C001C2800DB1C247F203840C6494919491EDF
:10379C000D7801280BD0022821D10421362228468D
:1037AC0007F040FB4948407CC00705D014E00421D9
:1037BC003622284607F036FB681EC0B21E26069736
:1037CC00032731463A4607F02DFB681CC0B2314640
:1037DC003A46069F07F026FB1F20011B18E02846DF
:1037EC001B38C0B23B2105913622AF4B9847681E5F
:1037FC000697C7B23A21032638463246AA4B984759
:10380C003C213846069F3246A74B984705996519C7
:10381C00E81EC0B2C91EC9B2072213460AF00EF93F
:10382C007F1CFEB2032E8ED9039E012E38D80024A5
:10383C00F74D082C00D1F4E02A88012E05D0002E7B
:10384C002BD1042C05D3302104E0042C1CD35E2096
:10385C001BE0282110B2C00B80B2C30AD3181BB2D4
:10386C005B09D31A400A101800B2C009181802B22A
:10387C000320204036234343123358081830C0B27B
:10388C0020230AF0A1FC08E0222003232340052179
:10389C005943263112B206F0F5FFAD1C641CC8E783
:1038AC00022E7ED106F01CFFD048057806246C430E
:1038BC00002D7DD128467CE0910006A251588F4600
:1038CC00720E0020A50C0020110E0020EE0400202A
:1038DC00450E002033390000FB3A0000073B000086
:1038EC001B3B0000293B00003D3B00003139000030
:1038FC003139000031390000313900003139000014
:10390C003139000031390000313900003339000001
:10391C00330E00206F0E0020C7FE00009F02000037
:10392C00A2020000F8E50024AE4A54700221117086
:10393C0009F00CFCB3485AE01020B64905E0B94830
:10394C00007800286DD01020B749B34CA047182040
:10395C00B249A0472020B249A04762E03F2008218D
:10396C00302207F05FFA0520C543002D59D06019AD
:10397C00AF49405C002812D0AF1D461EF0B207F0D4
:10398C0005FB03460420009006980190F900059869
:10399C0001401031F807400E72B204F0B9F96D1CF9
:1039AC00E3E73C2028210122042309F0B3FB38E093
:1039BC00E01CC1B20A2009F07FF9002D19D0A01D1E
:1039CC00C1B2642009F078F92BE0612800D1E4E061
:1039DC00BF2800D0A0E50124834E2046B047032029
:1039EC00B0470220B0478148002101708048047024
:1039FC0092E564242826844A204631460AF06CFC61
:103A0C0072250722284631460AF09DF830267F4A57
:103A1C00204631460AF060FC0422284631460AF062
:103A2C0092F8704C207800285FD0012807D181488B
:103A3C0003210E2205F0BCF80522049B06E07E480B
:103A4C001F210E2205F0B4F8049B1A467B498B709B
:103A5C0001284AD1A0788018C0B2062845D8C046A3
:103A6C007844007940008744050D212C30343A000D
:103A7C007A0E0020624808F059FE36E0FDFE000088
:103A8C0008FDFF1F7248002101705B480121017085
:103A9C00704808F04BFE28E0F9FE000095F9000094
:103AAC00860E0020E5FE0000B3E2000001208870C5
:103ABC0065480078800065494018406808F036FE7B
:103ACC0013E04E4808F032FE0FE04A4808F02EFE94
:103ADC000BE090205549085A40425A4904E08C208A
:103AEC005249085A40425649088007B0F0BD09F0C7
:103AFC00F7FB0AF0E7FB172063E004200743E774A9
:103B0C00172009F0E3FB822009F020FBEDE7394890
:103B1C0008F00CFE832009F019FBE6E7364801217A
:103B2C000170374808F002FE842009F00FFBF3E423
:103B3C00314801210170314808F0F8FD852009F069
:103B4C0005FBE9E4002D2BD06D1E2AE0032D30D8A7
:103B5C006D1C2FE006980140042938D0022900D0B2
:103B6C00DAE422480178491C4AB2022A00DD00211D
:103B7C0001700225D0E406980140042924D00229C2
:103B8C0000D0C9E419480178491E4AB20225002A1E
:103B9C002A4600D40A460270BEE4042D1DD0BBE4B4
:103BAC00042528463843E074A12008F0B9FE1420FF
:103BBC0007E0002528463843E074A12008F0B0FE49
:103BCC00132009F083FBA7E43846303001E0384677
:103BDC00103030210140081DE074172009F076FBED
:103BEC00042599E4110E002059D10000630E002029
:103BFC00450E0020659A00001D0E0020C514000023
:103C0C003D5500006F0E002025FF000022FF000034
:103C1C001004002073F90000A5E10000ADF80000CD
:103C2C006FFC0000980E002084F9000008FDFF1FB7
:103C3C00B702000071F800007FF10000150E0020A3
:103C4C00E8040020EC040020350E0020E0FEFF1FED
:083C5C00740E002011040000A9
:103C6400F0B58FB004463148007809F0B9FB054639
:103C74002F4F0E22384607942146FCF71FFA2D4891
:103C84000AF086FA2A78801DC0B200242146234611
:103C94000AF076FA3F57384609F04EF8069026485F
:103CA40002780820254902900AF0A4F82B46F8B2BD
:103CB4000890E0430390691D0D950591E0B2072833
:103CC40000D31DE206982018C0B2089981420C94D2
:103CD40001D0002601E01A490E780E2800D90CE222
:103CE4000C99CD002C460834810001A251588F460E
:103CF400493D0000693D00007D3D0000913D00000C
:103D0400AB3D0000C53D0000E73D00001F3E000044
:103D14007D3E00009B3E00002F3F00005F3F0000FF
:103D24007F3F00009F3F0000C13F0000680E00205D
:103D3400570E0020E1FC0000200E00200DED0000D5
:103D44007C0E00205D78E1B21C46F3B2542022467A
:103D540007F0CAFE252D00D043E1607A45092535D8
:103D6400234642E102201A56E1B2F3B260200AF07F
:103D74009BF90D9B9870C0E102981A56E1B2F3B218
:103D840060200AF091F90D9B1872B6E1059DA878A0
:103D9400E1B2F2B20007C00F0AF0CEF90D9BC007E2
:103DA400000BF721D1E0059DA8784006C00F597893
:103DB400042900D929E1E1B2F2B20AF0C6F929E1F5
:103DC400059DA97801200840E1B2F2B20AF0BDF9DC
:103DD4000D9B7F214904AA7812040A40C007C00B36
:103DE400B7E0059A10785178090208189178090407
:103DF4004018C50D000200120399884200DC1CE142
:103E0400042018561A21C943884203DB1B28C54ADB
:103E140000DA13E10225C44A10E1059A10785178BA
:103E2400090208180221515609044018042503996F
:103E340088425F5700DC1FE11A20C043874202DB3F
:103E44001C2F00DA26E17F20C04347404020304346
:103E5400C3B2E1B266203A460AF0BAF9300606D097
:103E64006320C1436422384609F0B2FA07460D9B29
:103E740080207840187140E1F3B2581E1946814100
:103E840003200D9A12560091E1B24E2009F0BAFEB9
:103E94000D9BD87031E130060A9002D004209B4972
:103EA4000870072009900543049500260121F7B204
:103EB400042F00D921E1587A0E9108401F210B915B
:103EC400084043424341099D754328463F30C0B2F0
:103ED400E1B232463032D2B204F010FF0A98002820
:103EE4001DD08B480078B84219D10498C1B23E3530
:103EF400E8B20822092309F063F907982E2801D0B3
:103F040020280CD10E980B9A02400D99487A504003
:103F14004872022008F008FD00207E490870761CD3
:103F24000E980006C10D0D9BC1E70899081A43427B
:103F34004341059DA978E0B249078A0F724906F00A
:103F44008BFB0D9B8007400BF9210904AA7812040E
:103F54000A408018000CA870CFE0059F3A780F251E
:103F64002A40E0B2F1B208F0FBF90D9B2840397801
:103F7400F0220A4010183870BFE0059D2A78E0B29C
:103F8400F1B21206120F08F0EBF90D9B000129782B
:103F94000F220A4010182870AFE0059D6A78E0B23D
:103FA400F1B21206120F08F0DBF90D9B00036978D9
:103FB4000907090D4018000A68709EE0059F7A7889
:103FC4000F252A40E0B2F1B208F0CAF90D9B29038B
:103FD4007A7812020A400007000D8018000A7870EF
:103FE4008BE0252D00D9AD1D0D9B300600D184E05A
:103FF40068B20121372209F0EBF90D9BC1B22529E2
:104004007AD32C2970D3801F76E0E1B2F3B2474A09
:1040140009F0CBFF29786A7812025118AA781204A1
:104024008918384A114029700A0A6A70C007400A80
:104034000843000CA8700D9B5FE0394AE1B2F4B26A
:104044000620234609F014FE002C0D9B55D00221B6
:10405400284609F035F90D9B85424ED0811E4A420F
:104064004A41D1011971C005059A91784906490A56
:104074000818000C907040E06420F1B200900191A7
:10408400E1B26320C34348203A4606F0B9FB0D9BD6
:10409400187132E0E1B2F4B20C203A46234608F03B
:1040A4004DFA0D9B002C28D058570F21C9431622D6
:1040B40009F08EF90D9B1871079960291DD1072805
:1040C40007DBC01F14490870144808F033FB0D9B2C
:1040D400187941B2002910D5C0430F4908700F4820
:1040E40008F028FB0D9B08E0597A1F220A40400182
:1040F400801860305872252058700C9C641CDDE5D3
:104104000FB0F0BDFFFFBF001FF70000620E0020DC
:10411400340E0020260E00206A0E0020D5870000F1
:104124009BFE000083FE0000A1FE0000D7FA000001
:10413400F0B58BB00546E1480AF02AF8E04C207847
:1041440000281BD0DF4A117A002010724AB2012ADB
:1041540001DB622200E06322002900D01546DA491F
:104164000978002901D1632D05D0D84A125691420D
:1041740002D1622D00D10546D5480570D548007896
:10418400002805D1D1480278CF482946FBF796FF8D
:10419400CF4E3078CC4909780691012103912E281D
:1041A40003D0BF280AD060280AD1C5490A78002A5A
:1041B40040D0F948002202700A70F84C00202070A8
:1041C4000295069840B208F0B7FD0146F848007819
:1041D400002801D000203070F148007800280791B1
:1041E40040D0F2480778622F01D0632F3AD13E467F
:1041F400623E701E34468441EF480578284609F033
:10420400EFF8002D0AD1002C08D00178022901D33F
:10421400491E0170022008F087FB23E0202D21D8DD
:1042240001D1622F1ED00021622F0A9107460BD0C4
:10423400C8430AE0DE4909780029C1D108F08AFFA1
:10424400002003903446B9E701202D18E8B209F0A4
:10425400C7F83978002905D0102903D80278102A24
:1042640000D875E1012000263546C1B2102900D9D5
:1042740009E10A910890F0B2099009F0B1F8079B9E
:104284000446EFB29F420BD3F81A062808DCC0009C
:104294000830C1B2012000230A9A09F071FF079B7C
:1042A40009981F2800D9C4E020780A99884200D0D0
:1042B400BFE0BC4A0F46E8B2984200D2AFE0C11A50
:1042C400062914DCCF00B64909780022002927D139
:1042D4000699C9B2814223D10898B9490870B648F1
:1042E40006700398002813D0B148007816E0072917
:1042F40000D094E0AA480078002800D18FE0AF48AD
:104304000078F1B2884200D089E01078401C81E046
:104314000120A7490870002202924A704242424199
:1043240005920837F1B209980491884209D0E079DE
:1043340000210091F9B24007830F1320A54A09F028
:104344006CFEFFB2302000233946224607F0CCFB36
:10435400022022562D203946059B09F0A5FEA070A7
:10436400E078002805D042B248200023394606F000
:10437400A3FC207900281DD06179A279120251187A
:104384000722A256120489180BD401461B31C9B264
:10439400362909D842B260200023394608F0CEF805
:1043A40008E06020642201E06020452200233946B1
:1043B40004F0A4FC6079A17909020818E1790904E0
:1043C4004018FF210902014001D0532200E02022BD
:1043D400002901D02A2100E04421000600D00A4629
:1043E4007920394609F068FF6D480078002813D019
:1043F40072480078049988420ED11820662200235E
:10440400394608F0EFF86C48067028460695654A68
:10441400079B0A9F107002E0624A079B0A9F6D1C6B
:10442400F0B21E2823D8761CA07A0A34B8421BD1D5
:1044340041E70698C0B2B84215D15F4806700898A3
:104444005F490870E81AC000C01DC1B200241922D7
:104454000923204608F0B4FE0398002803D108F08D
:10446400EDFC002805D06D1C0898401CFDE62026B4
:10447400FAE751480078214606F000FE48480470E7
:10448400504808F057F94A48007800285BD0029851
:10449400464C20704C483F210B2204F08DFB012830
:1044A4004AD14348807805282FD8C04678440079FB
:1044B400400087442011222A2E33C0467DFE00008E
:1044C400220E0020FC0D0020600E0020230E002090
:1044D4006F0E0020110E002008F0B0FC00280AD155
:1044E40035490878401C0870C0B20024214606F003
:1044F400C5FD2B480470334819E02F490878401C47
:104504000870C0B2012106F0B9FD012024490870E9
:104514000FE0294800782D49087002E02B48FF215C
:104524000170207808F016FE00202070284808F05A
:1045340001F900201E4908701E48002101701E4820
:1045440000781E490870681E174908700BB0F0BD4A
:104554003B468A420BD10A210A060CD002781C463B
:104564001B7803702270631C401C491EF4E7102959
:1045740004D30A9A03E0114805704BE60122704205
:104584007041104002462243012A00D042E6091B32
:10459400081818703EE6C046260E0020740E00204F
:1045A400220E0020600E0020230E00206F0E00203B
:1045B400110E0020260E0020680E0020660E00203A
:1045C400690E0020653C00000CF500002F0E002051
:0845D400D1B10000E0FE00007F
:1045DC00F0B58BB00990FB4809F0D6FDFA4C207869
:1045EC00421C4E200025294609F07BFE2178092229
:1045FC00104607914843F5490C18F54EA05D40074D
:10460C0000D00A22F34F38460999FBF753FDA6193F
:10461C00F14824187F57052F089406960A970EDC4C
:10462C000820FA4909F0B8FDED480078099008F027
:10463C0061FE2078002F00D18AE000238EE00595E2
:10464C000825E649284609F0A7FDB81F4342434117
:10465C00E3480078049030784006820FE149E24C40
:10466C0003952846A0478007400E31789F220A40C8
:10467C0010183070F81F43424341CA091020DB491F
:10468C00A047C00134787F21214008183070083FC2
:10469C007B427B4107252C401820D5492246D24F1E
:1046AC00B84728403178F8220A4011183170A042DE
:1046BC0009D00921079A5143C44A5118EA01059BB4
:1046CC008B5489184B70002868D02020C94909F0F8
:1046DC0063FD06980178294028200A2402290A9BA8
:1046EC0000D1FEE0012900D014E1069009200799C1
:1046FC004843B6490818E901425C4518687800023D
:10470C0080187D218E00092B0BD100B232460B3262
:10471C000021022303F0C4FC2870010A697004997B
:10472C000591F11D02B28A4200DCF8E06C202027D2
:10473C00B34A39462646059C234609F095FA287853
:10474C003530C2B278203946234604F0D3FA16E14C
:10475C0040B25E2108F0B0FD2070099BC2B260200F
:10476C00082106F09FF92078002822D0401EC0B204
:10477C0006F0B8FC06460820A54909F00DFD207886
:10478C00252811D38221002200920191253842B2B2
:10479C0048200821334603F0BBFA0AE02020092602
:1047AC00089D0A9C8B4FEEE048200821324609F008
:1047BC0098FD09200799484384490E189549705C67
:1047CC000A9A012A08D1751840B2062108F074FD26
:1047DC00287009990A9C01E000211446C3B2042BED
:1047EC0004D800914E2010218C4A05E00091401F06
:1047FC00C3B24E201021884A09F00BFC022C14D1B4
:10480C00874864210170874D705D771901217956B5
:10481C00090208187D210A028349022303F040FC97
:10482C007055000A7870099B00E000230898007806
:10483C00252810D37B49725C7118012549578225B4
:10484C000093019509028B18253842B27820182163
:10485C0003F05EFA0AE07348315C3018012280568E
:10486C00000242187820182109F0AEFC6F49705CE8
:10487C000025032C09D1771840B21521C943162203
:10488C0008F0A2FD3870099B00E02B4642B2602074
:10489C00202106F00DFADF208100705C042C06D17B
:1048AC00751840B2212108F007FD287000E0099529
:1048BC00069DC2B260202821099B08F079F8601F80
:1048CC00434243412878C006820F3020584905F0F6
:1048DC00BFFE8007C00E2978E7220A401018287006
:1048EC006DE005940690092007994843374908184C
:1048FC00E901425C45186878000280181C46092BB7
:10490C001BD140B20F2108F0D7FC00216970287030
:10491C00049913E0089D2F4F26461C4633E0B24203
:10492C0018DD0C30C2B26C202021059B08F0B6F8C3
:10493C00089D284F0698264624E00021089D254F07
:10494C000091C3B25A2020212B4A09F062FB069831
:10495C00059E18E0264678202021059C234609F068
:10496C0033FC002C0BD00998802805D12878697865
:10497C000902081808F0A8F8204800210170089DC9
:10498C00144F06980A9C1F49069009F005FCA64294
:10499C000FD1099880280AD10921284609F096FBE5
:1049AC001648002101700A2C01D103983870049B21
:1049BC0000E000234820144A069909F055F90BB081
:1049CC00F0BDC046E6FB0000610E0020EE040020A6
:1049DC007D0300004F0E00207903000059F5000004
:1049EC007C0E002030F800005DA60000DAFB000011
:1049FC001AF800004EFC0000FCED0000260E002012
:104A0C0019FF000040FE0000B9FC0000BBF40000E0
:104A1C00BDFE00007A0300001BFA00008AED0000C6
:104A2C00730E00207E0300000083FFFF7B03000059
:044A3C002BF6000055
:104A4000F0B583B0E34E0125357006F035FD002446
:104A5000E1480157002907D5E04A13783746F02688
:104A60001E40331D3E461370DC4F3A78142A35D869
:104A70005200C0467A449288520097449E009E009D
:104A80009E0087006A000D010D010D010D010D0151
:104A90000D010D010D010D010D010D01140014009A
:104AA00014000D01110107F095FE032009F028FC08
:104AB000C02009F0A6FA08F06BFB3878401C38706B
:104AC00038780F210140032903D33878F0210140C1
:104AD00039703878202101433970DDE010462038E4
:104AE00003286AD310463038032818D2252007F04F
:104AF0007DFFBB480178BC2900D0CDE0417A012977
:104B000000D0C9E00321C943B74A002936D0531861
:104B10004418647A7D25ED005C55491CF5E7242A8C
:104B200017D0342A00D0B7E00024204609F0E8F876
:104B3000800600D5F7E0252007F058FFA84E717ACF
:104B40003078AA2800D0E7E0FC2900D0E4E001207A
:104B5000E7E0AE4D2878411C2970AD490C5CA748B0
:104B6000007803F087FF3878DF210140397028781A
:104B7000102800D280E0002028707FE03878F021F3
:104B80000140C81C3870A348002110E0A14A1378E6
:104B90005B1C1370DAB2042A0FD33A78F023134067
:104BA0001A1D3A70994A0123137080221143017033
:104BB0003878DF21014039706EE0894CFF20207287
:104BC000E071A0710020A07286490968617003221B
:104BD000D243D21C62710A0E22710A0CE270090AD9
:104BE000A1703E788A49102804D022180B5CD37239
:104BF000401CF8E720461B300A21FF2209F06DFA1D
:104C00002520002121540F200640751E032D20D29F
:104C1000BC202070032E11D1F920800072490A5C5B
:104C200062710818C17821728178E1714078A071B1
:104C300020460B301021FF2209F04FFA8020207708
:104C40000120E076E8B20228624E00D302256572A8
:104C500006E0002E5F4E03D101206072BB20207061
:104C60003878DF21014039706B480078C00701D0E7
:104C70000D2401E07320C44307F0FCFFE1B22520BE
:104C800007F006F808F084FA63480178491C0170BF
:104C90005B480188491C01800020307003B0F0BDE2
:104CA00007F098FD284609F02BFBC02009F0A9F970
:104CB00038782021029108433870514800880190CB
:104CC000504909F033F84E424E414F49019809F0DE
:104CD0002DF8002900D075004848057008F058FAF2
:104CE000424D434E2B2C12D0285D002802D0401E8E
:104CF00028550AE001200021224609F0B4F8326864
:104D000082433260706888437060641CEAE73878D8
:104D10000299084338700AE0AA280AD1FD2908D16F
:104D20000220364908703878DF2101403970294E59
:104D3000B2E7AC2801D0AA28F5D1701C2949042576
:104D40002A4609F007F90290F9208000264909183F
:104D5000701D2A4609F0FEF802990843E3D11D2090
:104D600008F0CEFF2149FF220A7121490A68102369
:104D700013430B603C2800D83C201E4D29691E4A75
:104D80001368591A08181060642108F0F9FF2861A7
:104D90003078AA281BD0AC28C5D134460934A01BD2
:104DA00008381928BFDC2078FF28BCD0A578AC21B2
:104DB000204603F0B9FD2819C41CF0E7301909306A
:104DC0000178FF29AFD0AA2103F0AEFD241D1C2CD1
:104DD000F4D1A8E7760E0020280E0020750E0020E2
:104DE000B8FEFF1F8CFFFF1FEE040020990D00206E
:104DF00000F8FF1F08FDFF1F8C0E00205B0E002037
:104E0000DE0400202106000021050000310E0020F4
:0C4E1000D60D00203D0E00202C0E0020CE
:104E1C00F0B58AB01F246102C84842680A43426058
:104E2C000121CA06836813438360C54BDA681020DE
:104E3C0008900243DA60C3488269C34E32408261F3
:104E4C00426832404260426932404261BF4DAA68BA
:104E5C003240AA60BE48826D32408265426F324059
:104E6C0042672A6832402A6016229A60DA680A433E
:104E7C000E27BA43DA60002203921A6247225A6262
:104E8C001C605A6A80240994224340240794A2434C
:104E9C005A621A681206FCD50F2204921204AD4E07
:104EAC00736D934373650B02AB4C23646364A3640F
:104EBC00E364726D3A4372656360A360E360202221
:104ECC00D2437261A54A1361726D0A437265CD4378
:104EDC000195326C2A40326423608A07A04C6769C2
:104EEC001743676127689743276083677269089D3A
:104EFC002A43726132682A433260984DEB60CF07C7
:104F0C0062693A430697626122683A432260C3673A
:104F1C004A037769174377613768174337602B6308
:104F2C00904F7A6D099D2A437A653A6C2A433A640C
:104F3C00844AD361049A9204054660691043606107
:104F4C00206890432060AB64EB642B656B65032099
:104F5C00059002020292286C104328640498000207
:104F6C007A6902437A613A6882433A60774803620D
:104F7C0043628362C362786D019A10407865714D0B
:104F8C002B60786902229043786170484360786D99
:104F9C00089A904378652B61080372690243726129
:104FAC003268824332606D48C3628A050192634D58
:104FBC002868104328604802644A906150616A4A2C
:104FCC0012200490907019205070117067480838A6
:104FDC0005680E4666490D400560B00265490860DB
:104FEC009078079D284390707869089A10437861EF
:104FFC0038681043386055490B61786D04221043B2
:10500C007865386C904338644E4DAB605A480260FA
:10501C007869099A10437861386810433860CB611D
:10502C007869082210437861386890433860CB6007
:10503C006069059908436061206888432060444892
:10504C0003604360EB604949C8684C4A1040069ABB
:10505C008018C860474D2A60F205384CA068104390
:10506C00A0600520089000020090DB30444F3860AF
:10507C000598B8609F2038610720B86148683C4BA0
:10508C001840801848602F46019828603D48039BC3
:10509C000360204630383C4A02607006A268024326
:1050AC00A2603A483A4A82600A68314D2A400A6046
:1050BC00B2043A6049220260304D681CA268024377
:1050CC00A2603448344A8260FF2212020F68974370
:1050DC00F203BA180A607204264F3A600360B006F5
:1050EC00A2680243A2602D4A2D489060D3602D48DF
:1050FC001061482050611948029F0760476008689A
:10510C002840069D40190860F0041A490860136095
:10511C0020680799084320600D4800994166016694
:10512C002148049901700999417020482049416037
:10513C008360089901600AB0F0BDC0463480044019
:10514C0000B0034000C00440FFF8FFFE00B0044074
:10515C0000D0044000F00F4000A004400490044034
:10516C0000F10F4080F00F400160074010E400E0B8
:10517C00FFFF00FF00E100E0C4F00FF8FFFFFF00AD
:10518C0000710340007003400000010100900340D7
:10519C00FF0B0000008003403B2D000000A00340EB
:1051AC00FFFF000060EA00000160064010E000E034
:0451BC007FBB0000B5
:1051C000F0B591B08278EE2A0CD1C378CD4A12782E
:1051D000934207D10F93CC4C2278002A0AD0CC4BB3
:1051E0001B780AE0C84800210170C84C00202070DC
:1051F00011B0F0BDC64DFF232B7006795DB210963D
:10520000AE4201D0FF2BF3D10F9B5D1E0C230C93FC
:105210000D956B43BF4DEB180E93109B5B1EBC4D61
:105220002B700523BD4D8B4206D2C75CD6B2AF555D
:10523000521C22705B1CF6E71098002805D0B3487A
:105240000178491C0170B44CD0E7B04800270770C2
:10525000D0B20428CAD30E9B5989FF2009918143FB
:105260000F980818588169789E792A781091C90991
:105270000B910A96002E15D01946DB799342B5D1D1
:10528000089207977F27109B1F400B890F21194019
:10529000B942ABD10999C905C90F0B9E8E42079F30
:1052A000A4D106E008920C230D994B439949CB18E1
:1052B0001B8907970E9E31460A310F27109A3A40F4
:1052C0000697BB4310929A1809923281089AF2719C
:1052D000934A10400B9A120210180880AF1C3846EF
:1052E00008F09FFF0A9A002A0D9006D030888D4959
:1052F0000818394608F0C4FE1BE00B978A49098854
:105300000A913180C1B20C290C9A00D80246B11D15
:10531000109B0D2B00D102460A70D6B281480A9F1D
:10532000C0190B99324608F0ABFEB8197E490880C7
:105330000E9E744F08360D9AD01C10990D291BD063
:10534000092900D0C7E0C0B20B902F18384608F0EA
:1053500068FF03467548007800282CD0F020099992
:1053600081430D98C018001DC0B2285C0007000ED4
:1053700008183080634FAEE0F021099B8B43C0B228
:10538000285C0007000E1818308068480078002854
:1053900000D0A0E0501DC0B22E18304608F041FFEA
:1053A0000E9B9A78002A7ED098885E49081831466C
:1053B00008F066FE8BE00A9708900E99887800281E
:1053C0000D9A02D04F4F09995FE00596881C039013
:1053D00055480088534A0926019616548880591E5C
:1053E00004910290461C079F38460C930A990918AD
:1053F0000E910499091AC21910929A4236DA0E9A3D
:10540000D35D3B2B04D0B94202D07F1C0C9BF2E74A
:105410000B9A8218B94200D17F1CB0B241490818DA
:10542000A918092F00DB019F3A4608F029FEF6195A
:105430003D4A16800C9B092F08DAB0B22021394A68
:105440001154761C384806807F1CF4E70698000249
:10545000099A110A8243481C0007000D821809921C
:10546000059802801098401C079FBFE7B0B200214A
:105470002C4A1154701C2C4908800299401A039937
:105480000870204F09990D9A059EF0208143D0188D
:10549000001DC0B2285C0007000E08183080089874
:1054A000002818D113E005463146981C1090092DAC
:1054B0001D4806889E8000DB09251A4880192A4667
:1054C00008F0DEFD7019184908801098057018481A
:1054D0000178491C017017480178002902D0002189
:1054E00001700BE00F98401C387013490978C0B266
:1054F000884203D9012038700C4908700648012100
:10550000017073E69A0E0020380E00203B0E00203A
:10551000990E0020960100201B0E0020EC0C0020AC
:10552000FFFE0000D6080020E20400203F0E00200D
:0C5530003A0E0020300E0020370E002044
:10553C00F0B587B00290BC4808F026FEBB4E34781C
:10554C00BB480078002804D1B8480F220299FAF71A
:10555C00B1FD0025B749284608F01EFE07F064FD92
:10556C0002B266200695294608F0BBFE3678B24991
:10557C000878022803D100200870B0490870B048A0
:10558C000278511CC9B28E4203D2721E0AD200227A
:10559C0008E0111DC9B28E4204D9321FD1B20A29BA
:1055AC0000D30A2261B201910270A64D069F0594A8
:1055BC0004960392F8B2062830D2B818C4B2361B3F
:1055CC0073427341401CC2B2F8001030C1B21220B9
:1055DC00069108F0A3FD2D20285C844204D1012003
:1055EC002A22069908F064FE0F252046974C214686
:1055FC002A4606F053F870427041904909780140F0
:10560C00103100911820069922462B4608F09DFB7C
:10561C007F1C059C049E8B4D039ACBE78448007835
:10562C00002807D02D27E95D8048007881421CD0E6
:10563C007E251BE0029908466438022874D3602941
:10564C0000D180E0BF2900D186E06E297BD0812972
:10565C0000D18EE0612900D0C4E078490878012897
:10566C0000D0DBE000200870D8E0592508F00AFED5
:10567C00002801D16920C5434F207249085C4007BE
:10568C0001D43F200540E9B26F480A2203F090FA9A
:10569C00012800D0A6E0354665488678072E7DD8CF
:1056AC00B00001A1085887462B570000D5560000C2
:1056BC00D5560000BD570000A9570000C757000081
:1056CC00B3570000E15700005848017806915D4837
:1056DC00C155624801270770029807F037FD07F0A3
:1056EC00D7FA069801F030FF5D48C17802220A43D0
:1056FC00C270384607F014F907F0CAFA06F060FBDE
:10570C0003F00AFE5748807A08F0A8FD07F0E8FA83
:10571C0047480078022802D0022E00D080E0524880
:10572C0007F0F2FB2E465DE02D20285C3F490978FE
:10573C00884222D10298642801D0652852D14A4867
:10574C0007F0E2FB4EE04948002707703B49087818
:10575C0001281BD10F7061E00020354908703749D2
:10576C0008702D20285C31490870012002F0D0FE11
:10577C0038E0012006F02EFC34E002202C4D28707D
:10578C00029807F0E3FC002068702BE00120284D04
:10579C002870029807F0DAFC6F7023E0012027498B
:1057AC0008702E4622E02E4628490D72012015E085
:1057BC0028482E460570012006E0029807F0C6FC2A
:1057CC0024482E46057000201B490870224806F01C
:1057DC00ADFF07E02E461D490D72002008711C48D4
:1057EC0006F0A4FF15480078012817D10198B042A3
:1057FC0014D0601CC0B2711CC9B206F06DFD2D2016
:10580C00104A115C8E4201D1145404E0019A8A4270
:10581C0004D10C490E54012007F082F807B0F0BDFA
:10582C00012006F0D7FB7DE735FD0000490E002076
:10583C00110E002095FE0000830E00204A0E002061
:10584C00200E0020760C002029F2000052030020CC
:10585C009D6C0000820E002071A10000770E0020CC
:10586C00940E0020EE04002011040000260E0020EF
:10587C00F0B58BB0BA498879401C887100200121A1
:10588C000691B94DC7B2012F00D9F4E0002F02D018
:10589C003720000100E0B748B7490818002400572A
:1058AC0039016E180028069B1BD016280CDB153806
:1058BC0040B208F0EDFCB1798142069B11D0B11DCC
:1058CC000028087005D10CE008F0E2FC0028069BCB
:1058DC0007D0002F02D008F0F5FC01E007F000FD26
:1058EC002346052179439F480391401808908578F9
:1058FC00FE202840022801D1A0488488A0480078C6
:10590C00002800D09F4C0794032008990C56042DB6
:10591C0005D368009C49401808380088079001227C
:10592C00002D0492059337D0162C24DBF0783188A7
:10593C0001438B4A9079084391880143B07808431E
:10594C00B11C002801D1002008702046153840B247
:10595C00019108F09DFC019A002808D011780029CB
:10596C0005D1F11C0A7853425341019A0B70107007
:10597C00059B049A10E0002C0DD020460197274679
:10598C002C461D4608F084FC049A2B4625463C46C2
:10599C00019FF07000E0F2703088F17800290294D9
:1059AC0001D1014608E09102079A12B251188A0EF1
:1059BC0089188911C9B24118694C002B00D10146D4
:1059CC00318007F087FDA188401A80B2642850D33B
:1059DC00A279318809A808F01CFA099807900A994D
:1059EC003180002F05D00021A171211D6420059B61
:1059FC0005E02188491C2180A11C059B04980A887C
:105A0C0012180A800798000602D03189491C31818E
:105A1C00002B06D0F11C0978002902D0B188491C52
:105A2C00B1807189400E0A1872814E480399405C0E
:105A3C000899497809020818B08131460C31002DBB
:105A4C00034610D0012D04D1029A002A08D0B28846
:105A5C0007E0022D01D8328903E092B2120900E06E
:105A6C006288831A0B80089A1279002A01D0C01A16
:105A7C000880781C05E7A889E98981426BD0394BED
:105A8C0019785A781E79E881EB78002B63D01202D2
:105A9C005118002E00D0081A07B23C4C2078400751
:105AAC0026D5002924D00A2F07D0B8B2142807D045
:105ABC001E2808D1192029210EE01B202B210BE0D8
