:020000040800F2
:10000000004000200FD000083DCA0008850100080C
:1000100000000000000000000000000000000000E0
:100020000000000000000000000000003FCA0008BF
:10003000000000000000000041CA000843CA000898
:1000400045CA000847CA000849CA00084BCA000848
:100050004DCA00084FCA0008ED14000851CA000834
:1000600053CA000855CA000857CA000859CA0008F0
:100070005BCA00085DCA00085FCA000861CA0008C0
:1000800063CA0008691400089D140008B114000830
:10009000C51400081915000865CA000867CA0008D9
:1000A00069CA00086BCA00086DCA00086FCA000858
:1000B00071CA000873CA000875CA000877CA000828
:1000C0001148026801210A43026042680F4B134045
:1000D000436002680E4B134003608A040368934335
:1000E00003603F221204436893434360C26A0F23B4
:1000F0009A43C262026B074B13400363426B8A430D
:100100004263002181607047001002400CB8FF0874
:08011000FFFFF6FE2CFEFCFFD0
:10011800B0B5154C20680C2101401448082919D1A4
:1001280025680321CA0321681140914201D0024683
:1001380000E00F4A01231B04994200D01046A16A2F
:100148000F220A40511C0CF0DBFB0146A802000FED
:10015800801C48430749086022681206120F064BA4
:100168009A5CD0400860B0BD0410024000127A00CA
:0C017800006CDC02980E00206CE7000810
:100184000A490A68002AFED404207146084202D1B2
:10019400EFF3088001E0EFF309800123DB071A4342
:1001A4000A60816902318161704700002CED00E032
:1001B400034C206804348047FBE70CF026FDFEE77F
:0401C4003CF1000802
:1001C800B0B50446054D0120287081200CF01FFFB2
:1001D80020460CF01CFF00202870B0BD7F0E0020C8
:1001E80080B502480078FFF7EBFF80BDFA0C0020CD
:1001F80080B50120810202480CF0B2FB80BDC046E8
:0402080008000020CA
:10020C0070B512480124047000F0C0FE204600F0C6
:10021C0021FE00F0B5FE022000F01CFE00F09AFE5C
:10022C0000F088FE00F08EFE00F09CFE0025084ECB
:10023C000C2D04D0705D0CF0E8FE6D1CF8E7FFF798
:10024C00CDFFA10203480CF089FB70BD7F0E00208E
:08025C007CE700080800002007
:10026400F0B581B0152A02D8062050434BE0F8249B
:10027400214009010918DC073D4D03D19C0703D433
:10028400002706E0012704E03B4C24784026264062
:10029400B7096C18811D00915E0722D43D460527DD
:1002A4007A433449561808210B406A42002B03D084
:1002B4002270401D0090641CA03E2D4D38061BD0BA
:1002C4003078002B02D0F9B2042907D00121890229
:1002D40069188C4201D250402070641C761C7F1E29
:1002E400ECE72E2A01D00C30009010462C38C0B216
:1002F4000E280BD82B3A1CE00120800228188442D7
:1003040000D222700098C0B201B0F0BD104641384E
:10031400C0B2192801D8313A0BE010466138C0B296
:10032400192801D8363A04E05F2A01D0002200E0FF
:100334002A22D0B214224243104880187A420B2356
:100344000F4EAD195EB2002EDCD4022E02DB877A8A
:10035400067801E000263746AC4205D2574080219A
:10036400675456402670641C401C5B1EEAE7C04676
:100374000800002056D60008400E002088E7000838
:040384007F030000F3
:1003880001229202094B9A1890420DD2084A13781A
:10039800012B01D00A4600E00022002B00D11946AB
:1003A80003780B43534003707047C0460800002091
:0403B800380E0020DB
:1003BC0080B507220A40064B9A5CF8230B401901C2
:1003CC000818044908181146FFF7D8FF80BDC0462D
:0803DC00ECEC00080800002011
:1003E400B0B5002A00D5891807230B40D41115197C
:1003F4006540F8220C46144024012018144C24189B
:10040400002B17D01143481945B2002D1149C85C7F
:1004140001D4002101E04919097A081AC1B2204621
:10042400FFF7B0FF803405E0FF212046FFF7AAFF65
:100434008034083D68B20828F6DA012807DBE8B200
:100444000449085C401EC1B22046FFF79BFFB0BDC3
:0804540008000020ECEC000898
:10045C00F0B581B01C46F8230B401B01002A00D5D7
:10046C008018C0B21818114F3D18072001401048D1
:10047C00405C0090D01116184640F6B2FF36F0B230
:10048C00B04211D001208002381885420CD2E0070E
:10049C0001D1640806E028460099FFF76FFF600859
:1004AC00802404436D1CE8E701B0F0BD0800002077
:0404BC00ECEC00085C
:1004C000F0B591B01D4617460A910646D80601D5EB
:1004D000022000E00120A90604222A4001D00A23BC
:1004E00000E005230893C9170D91002A01D00C21C3
:1004F00000E006210C910D9A02400D927F22F81720
:100500003B1843401698C111019040186C0606979D
:100510000E9102D4089C361B16E01146002F01D51F
:10052000089C36196C4CA34201DD089C3619202426
:10053000632B01DD089AB6182C40092B01DD089ABF
:10054000B6180A46002C01D10C9914E00A2B089C1D
:1005500000DB00240B922F46642B01DB254601E0D3
:10056000089AA5180D9A022A00D02546AE193D46D4
:10057000069F0C990B9A15400E9A50407118574AD5
:1005800011700D99022900D1103D0A99891D40B2C0
:10059000079001220220049000200390C8B202902C
:1005A0001C46D3B20798834270DC0B920FA80A2234
:1005B00021460E930CF016FD0F980C90109FF0B290
:1005C000ECB239463031CAB20A9909922346FFF794
:1005D00049FE0E9B0D98C0B298420BD10595680755
:1005E0000CD4701EB61EC0B2E1071ED10299FFF7EF
:1005F000E5FE1EE0069F0C9C0B9A2AE0781EC0B216
:1006000003280C9C02D20498401C0490069F0A21E7
:1006100020460CF071F9C8B2042801D002280BD191
:10062000099834280AD1701C0CE007220A99FFF7B8
:10063000D9FE069F0C9C06E0039604E00498401C3B
:100640000490701E03900B9A0E9B002C01D000208A
:100650000D90002C03D00898361A521CA1E70D9873
:10066000C0B200210D91002805D00228F3D1022B41
:1006700008D3002007E0E80608D501980028EAD44E
:10068000103DE8E7012040000D90E4E703990806DB
:1006900014D0CCB20595049845B20A9F38460C3068
:1006A000C1B220462A460CF060FA3846069F0D304B
:1006B000C1B220462A46059D0CF057FA002F07D5F7
:1006C0000898301AC0B2EBB22D220A99FFF7CAFD82
:1006D000002011B0F0BDC046E70300007E0E0020F0
:1006E000002B03D00A4B1B785B0610D41218F8239A
:1006F000194009010918074B5918D2B2C3B29342E5
:1007000005D20B78DB430B70401C491CF6E77047A1
:08071000400E0020080000204B
:1007180070B5044C2578012626700CF02CFA25704B
:0807280070BDC046380E002030
:10073000F0B581B01C480078002809D01B49097821
:10074000490605D52A3842B2002001460CF00DFAC0
:10075000174901200870B026164FF4B2E008172898
:100760001CD20420144DA8471020A8472046A847B3
:100770008025280610D03C7800F0FAFB204600F0D7
:1007800013FC00F0D7FB00BF00BF00BF00BF7F1C01
:1007900000F0D6FB6D1EECE7761CDEE70020044976
:1007A000087001B0F0BDC046820E0020400E00204F
:0C07B0007F0E00200800002017D0000879
:1007BC00F0B581B0009094785C43A318DB1CC8089A
:1007CC0014785278D21DD2B2D2080025954210D09E
:1007DC002E18F6010099761807498F190026A642A3
:1007EC0005D219783970761C7F1C5B1CF7E76D1CE1
:0C07FC00ECE701B0F0BDC0460800002092
:10080800B0B51C460D46202323430CF02AFC60B2E9
:10081800002806D403480078762229462346FFF7A5
:080828001DFDB0BD7E0E002095
:1008300010B5084B1B78064C24789C4201D300234A
:1008400000E001235B0013432246FFF7DDFF10BDEC
:080850003D0E0020FB0C00200E
:10085800F0B59DB002490A68012002430A6001E030
:10086800002002400A68D207FCD0030403490A6842
:1008780010931A430A60420402E0C0460010024086
:100888000B681342FCD07B23DB034C689C43112389
:100898001B04E3184B60CB6A0F240794A343CB6275
:1008A80004060B68169423430B6044060B68234226
:1008B800FCD00A944B68F024A3434B60054BFF33EC
:1008C8004C681C404C604B680224179423438343B4
:1008D8004B6001E000F8FFFF4B680C252B40082B0C
:1008E800FAD1514B514C5C6000240C949C60052457
:1008F8000B941C604B6913434B614B691B9213406B
:100908001C9382044B6913434B614B690D9213404E
:100918001C93C2044B6913434B614B6911921340FA
:100928001C9302054B6913434B614B6919921340A1
:100938001C9342054B6913434B614B691A92134050
:100948001C9382054B6913434B614B691492134006
:100958001C93374A1368374E1E431660364C266878
:1009680040221592164326608603344F3A68324374
:100978003A603A681026139632433A6006022268B3
:100988001896324322608302226803931A43226036
:100998002B4B1A68159E32431A6046028A69324305
:1009A8008A618A69099632401C920922D7063A68F8
:1009B80003231A433A603A68302616433E603A6881
:1009C8002A433A603A68C02515433D601D033A68DA
:1009D80001952A433A609A033D6815433D602268B1
:1009E8001A432260174D2A681A432A60164D174A7F
:1009F8002A626A68164E16406E609E07AA680696B6
:100A0800B243AA606A68134E16406E606A6804268C
:100A1800B2436A60EA681296324308939A43EA60DE
:100A28002A68D2071BD017E010E000E07FBB000067
:100A3800001000485555000000040048000C00480C
:100A4800001400480008004808240140CF050000B1
:100A5800C73FFFFF3CC2FEFF2A6882432A60C307E4
:100A68002A6805931A432A602A68002AFCD42A684F
:100A780002432A602A46083A1268D207FAD03A682E
:100A8800109B1A433A6015221203DF4B1D68154369
:100A98001D60CA69139B1A43CA61CA691A401C922D
:100AA80080220092D743D94D2A683A402A60AA6822
:100AB8003A40AA600C9AAA62D54AEA62EA680243F6
:100AC800EA60D44E32683446D34E3240C6030F969D
:100AD80092192260D14A1B9B13602A6802432A603C
:100AE800CA6920252A43CA61CA692A401C92CC4D8A
:100AF8002A683A402A60AA683A403B46AA60072218
:100B08000292AA62C74AEA62EA680243EA60226875
:100B1800C54F3A40C7050E97D2192260BF4F0D9AAC
:100B28003A602A6802432A60CA69189D2A43CA6142
:100B3800CA692A401C92BD4D2A6804931A402A604B
:100B4800AA681A40AA600C9AAA62B94AEA62EA68D4
:100B58000243EA60169A521E266816402660119AC9
:100B68003A6013462A6802432A60A64C22681A4350
:100B78002260626A6262E2680D9B1A43E260226840
:100B88001A9D2A432260626A62628A69109B1A432C
:100B98008A618A691A401C92A64D079AEA61019AED
:100BA800EA60AA6B0F9E3243AA63EA6831261643AD
:100BB800EE606A69089F3A436A61129BDA43961CA1
:100BC8006E602E68179C26432E606A602A681A4356
:100BD8002A60904B5A68009C22437F25AA435A609A
:100BE800199B8E4A13601C463D050D95844B9A68E7
:100BF8002A439A605A68039D2A435A60DA68224356
:100C0800DA601A681A9D2A431A605A6A189C2243A5
:100C18005A62BA059D6815439D60C2025D68154316
:100C28005D60DA68149C2243DA601A680E9D2A43D4
:100C38001A60050310955A6A2A435A62CA69224300
:100C4800CA61CA6922401C927B4BDA687B4D2A40F4
:100C5800DA601A68119CA2431A601A681B9EB24394
:100C68001A601A6882431A601F2212021E6896438D
:100C78001E60734A1A619A682A409A609A685E4EA2
:100C880032409A601A680D9CA2431A605A682A403A
:100C98005A605A680A9D2A435A60721CDD681540DA
:100CA800DD608A69109B1A438A618A691A401C921E
:100CB800BA06524CA3681343A36062686260E26894
:100CC800E260C206236813432360626A199B1A43D1
:100CD80062623A07A3681343A36062686260E268CD
:100CE800E2604207236813432360626A169F3A430F
:100CF8006262A268069B1A43A26062686260E26848
:100D0800E2602268059B1A4322600207636A134364
:100D18006362189E321D4B4B1D6815431D601A688F
:100D28001A601A681A601A68099D2A431A601A68B4
:100D3800139D2A431A601A681A601A681A60029A80
:100D480012025D6815435D605A685A605A68109DC2
:100D58002A435A605A680825AA435A601A68159D9A
:100D68002A431A6022683A4322600B9A12042368C5
:100D7800134323602268199B1A4322602268149B3C
:100D88001A4322608A6902438A618A6902401C9276
:100D98002D4A1368334313602C4A1368129C23436B
:100DA80013601C4E32460C3A13681F4C23400E9CAD
:100DB8001B191360194C25608A691B9B1A438A61A9
:100DC800896919401C9122490A68049B1A400A60E3
:100DD8008A681A408A60179A8A621E4ACA62CA6872
:100DE8000243CA6070680C4A10400F9A80187060FD
:100DF8001A9820601DB0F0BD00F8FFFF00100048F1
:100E08000004004800140048000800480010004092
:100E1800B70B000010E400E0FF00FFFF00E100E076
:100E2800001400405FEA0000FFFF00FF00200040C0
:100E3800FF1700000C40014000580040FF7FFFFFF3
:100E48005A1B400000300140080001400C040140DA
:080E5800004401403FF10000DD
:100E600081B008490A680092401C06D30020C043A4
:100E700003E00A68D203D21710180028F9D101B094
:080E80007047C04610E000E0DD
:100E880070B588B0684620210BF06AFD00201E4925
:100E9800082815D272B68A68042313438B6000228F
:100EA800082A0AD00B685B07FCD593006C46E55806
:100EB8000E6CAD19E550521CF2E762B6401CE7E72C
:100EC80000984003410C1148018002994903490CDC
:100ED800418001994903490C818003994903490CD0
:100EE800C18004994903490C018105994903490CBA
:100EF800418106994903490C818107994903490CA5
:100F0800C18108B070BDC046002401405E080020C1
:0C0F1800014808210160704718140048CF
:100F24000120C004014908607047C04618140048F5
:0C0F34000148802101607047180C004843
:100F40000120C005014908607047C046180C0048E0
:100F500001208004014908607047C046180C004811
:100F600001204005014908607047C0461804004848
:0C0F700001480821016070471804004887
:100F7C000120C004014908607047C04618040048AD
:0C0F8C0001481021016070471804004863
:100F980001200005014908607047C0461804004850
:100FA800FF210904401801490860704718100048DB
:100FB80010B501221006164B186000BF00BF00BF15
:100FC80000BF00BF1348016813481860480401D5E2
:100FD8007E2000E07C200B0401D47A2318405303C0
:100FE8000B4012030D4C2468640707D4002B01D171
:100FF8005E231840114209D13E2106E0002B01D1A1
:101008006E231840114201D17621084010BDC04618
:1010180018080048100C0048C003C001101400480C
:1010280030B50120C105174B196000BF00BF00BFD4
:1010380000BF00BF14490A68144C1C6085051D6078
:1010480000BF00BF00BF00BF00BF09681C60930A53
:101058000C241C40D30980251D402B19520A40241A
:1010680014401A190B0B1840101802221A40801845
:10107800890A10220A40801820220A408018C0B22B
:1010880030BDC04618080048100C0048C003C00115
:1010980010B51049481C104A9389834201D3202077
:1010A80000E010200D4CA34200D2022052898A424F
:1010B80001D9002100E001218901081808490968BF
:1010C800C906C90F081807490968490004220A40D7
:1010D800801810BD530500005E080020AB02000018
:0810E80010000048100400484C
:1010F000074840890749884201D8002000E00120C4
:10110000C000054909688906C90F08187047C0461C
:0C1110005E080020AA0200001000004849
:10111C0001200002014908607047C04618000048D1
:10112C0001200006014908607047C04618000048BD
:10113C00074A0B0407D013689B07FCD5037813717F
:10114C00491E401CF5E710680006FCD47047C046E9
:04115C000830014016
:101160000C4A13685B059B0F0DD05368F9E71368B1
:101170009B07FCD5002313711368DB07FCD0536871
:101180000370491E401C0B04F1D110680006FCD40A
:081190007047C0460830014021
:1011980001200003014908607047C0461810004844
:1011A80001200007014908607047C0461810004830
:1011B80001208002014908607047C04618100048A5
:1011C80001208006014908607047C0461810004891
:1011D8000120C002014908607047C0461810004845
:1011E8000120C006014908607047C0461810004831
:1011F80000BA0E49014009010D4A02401009401881
:101208000C49014089000C4A0240900840184108E6
:1012180001229207024050000818800F00020321A3
:1012280009064018054908607047C0460F0F0F0FA0
:10123800F0F0F0F033333333CCCCCCCC181000487A
:101248000448416904221143416101681143016066
:081258007047C046000401408C
:101260000248016804229143016070470004014074
:10127000F0B582B002463F4D002028603E4B1E680C
:10128000012426431E60002A0AD0012A63D1E2030A
:101290003A4E9F6917420DD0761CFAD320465AE089
:1012A0000120C603374A9F69374221D0521E571C7E
:1012B000F9D350E04A00E9880E041643304A32431D
:1012C0005A60012252035E6816435E6009040BD027
:1012D00099694907FCD5A9684A1CAA605A6A0A702C
:1012E000E988491EE980F1E799698906FCD532E071
:1012F0004800E9880E0406430120470637435F6033
:1013000046035F6837435F609E69B60703D4521E89
:10131000561CF9D31FE09E69F6061BD400260096E2
:10132000F74301940E041BD0AE680C463946771C77
:10133000AF600F462146019C3678491EE9809E62C7
:101340007A439E69F60703D1521C012AF9D102E0C3
:101350007A43E7E702201968A143196002B0F0BDA3
:10136000511C9A69920602D4491EFAD1F3E70098FB
:10137000F1E7C046A0060020005800407F44FFFF70
:081380000104000280BB000023
:0C1388000148006880B27047344001400A
:101394000120810201480068084070471014004889
:0C13A400014908607047C0463840014015
:0C13B0000148006880B2704738400140DE
:1013BC0002480168042008407047C04610400140B4
:1013CC000420C043014908607047C04610400140EA
:1013DC000248016801220A43026070470040014044
:1013EC000248016810220A43026070472040014005
:1013FC00024801681022914301607047204001406F
:10140C000248016801220A4302607047004401400F
:10141C000348016801229143016000214162704739
:04142C000044014037
:10143000054900220A60012803D0022803D104488C
:1014400000E0024888607047244401403FF10000FA
:04145000BF5D00007C
:1014540003490A6848688968504048407047C04654
:04146400ACF7FF1FC3
:101468000120C0430749086007480188491C0180DA
:1014780006480188064A914202D00188491C018029
:101488007047C04610100040CA080020C808002055
:04149800FFFF000052
:10149C0080B50120C0430249086002F031F880BDDC
:0414AC0010140040D8
:1014B00080B50120C0430249086001F0FBFF80BDF8
:0414C00010200040B8
:1014C400B0B50420C443074D2868400702D52C60FA
:1014D4000AF002FF2868800703D5A01C286002F0E8
:0814E4003BF8B0BD10400140CF
:1014EC0080B50848416949070BD504214161026860
:1014FC008A4302600448017810220A43027000F00B
:0C150C00E5F980BD00040140790E0020CC
:1015180080B50120C0430A4908600A48C17B0F20F2
:101528000840022809D0012809D107480178EF228C
:101538000A40027000F0CCF901E00BF0FBF880BD26
:0C15480010440140E4080020790E00204F
:10155400B0B5084C2578002D04D0FFF733FEFFF713
:1015640039FE03E0FFF73EFEFFF724FE012045406D
:081574002570B0BD5A0E0020E5
:10157C00F0B58BB00C460546A0200F4FB847E020C5
:10158C00B847FFF70BFE6E4605203070701C0B49F8
:10159C002A460BF0DBF9691C3046FFF7C9FDFFF753
:1015AC00F5FD0220FFF722FE0F2021460BF030FB49
:1015BC00D020B8470BB0F0BD0FD100084406002076
:1015CC0010B582B00446F0200BF09BFDFFF7E6FD52
:1015DC0001A8452101700121FFF7AAFD034821460E
:1015EC00FFF7B8FDFFF7D2FD02B010BD4406002096
:1015FC00B0B50A480078010701D5002403E00006C5
:10160C00C0171F240440064D2878A04204D028207F
:10161C0021460BF0FDFA2C70B0BDC046350E0020F3
:04162C008D0E0020FF
:10163000F0B581B016480178407800024018114991
:101640000A8882421CD008804000841C25B2002DEC
:1016500001D44B2100E04A2111200B4EB047A0B22B
:101660000A494718002D01D4000A00E0380AC1B227
:101670001220B047002D00D42746F9B21320B047FE
:1016800001B0F0BD8E0E00201DCC0008FFFF000051
:04169000D50B002056
:10169400B0B52D48C17B0F200840012803D0022893
:1016A40051D12B4C00E0294C0BF053FD0120FFF7E6
:1016B400D5FB28480BF061FD0025322D07D0615D74
:1016C400FF2902D0E8B20BF0A7FA6D1CF5E7102051
:1016D4000BF029FD9E28FAD1A0200BF016FD022064
:1016E40001210BF099FA02200BF01DFD0028FAD11C
:1016F40024201321184CA04726203B21A0470F206B
:101704000021A04702200146A04702200BF00BFD58
:101714000028FAD10F20A0210BF07EFA0220014606
:101724000BF07AFA02200BF0FEFC0028FAD12520F7
:101734000A210BF071FA0220FFF75CFDFFF75CFF52
:10174400A0200BF0E2FCB0BDE408002030DC00086F
:0C17540062DC00082AC575541DCC00089A
:1017600080B509494118082801D3F52000E0BD20C3
:101770008000081800214056000232210BF09CF82E
:101780000249401880B280BDE4080020DC0500005A
:10179000F0B581B04A4909684A4C61700A0E22715D
:1017A0000A0CE270090AA170F9218900464B5A5CC3
:1017B00062715918CA7822728A78E2714978A171E7
:1017C000022825D0012840D0002874D1582020704C
:1017D0002646093600273E4D0E2F6CD0BF208000D4
:1017E000185C000709D42888C10B401800B24010CB
:1017F0003849401881B2090A04E0F8B2FFF7B0FF97
:10180000314B010A71703070B61CAD1C7F1CE3E7D0
:101810005620207000252E461C2D4CD0BF20800065
:10182000185C400708D06719F0B2FFF799FF264B04
:1018300078727100000A03E06119FF20487229469E
:1018400009198872AD1C761CE6E7FF20A072FD2105
:101850006172AA2121701D491A465B5C52185578A5
:101860002D02EB18322B03D305469235AB4205D33C
:101870003223154D6B540021517002E0190ADBB27E
:10188000114D2173E3720022A273297B4B07DB0FFA
:101890006373162A03D0A318D873521CF9E70520E6
:1018A0002075DC22E274A074880601D5222000E0B5
:1018B0002120C043607525200021215401B0F0BDD6
:1018C000B006002044060020E4080020E2030000E7
:0818D00006080020DC05000001
:1018D800F0B583B0E34E01253570FFF7A5FE00246F
:1018E800E1480157002907D5E04A13783746F02622
:1018F8001E40331D3E461370DC4F3A78142A35D803
:101908005200C0467A449288520097449E009E0036
:101918009E0087006A000D010D010D010D010D01EA
:101928000D010D010D010D010D010D011400140033
:1019380014000D011101FFF75DFE03200BF0DFFB22
:10194800C0200BF0E0FBFFF77BFC3878401C3870B8
:1019580038780F210140032903D33878F02101405A
:1019680039703878202101433970DDE0104620387D
:1019780003286AD310463038032818D22520FFF7E9
:1019880021FEBB480178BC2900D0CDE0417A01296D
:1019980000D0C9E00321C943B74A002936D05318FB
:1019A8004418647A7D25ED005C55491CF5E7242A26
:1019B80017D0342A00D0B7E0002420460BF0B1FB42
:1019C800800600D5F7E02520FFF7FCFDA84E717AC8
:1019D8003078AA2800D0E7E0FC2900D0E4E0012014
:1019E800E7E0AE4D2878411C2970AD490C5CA7484A
:1019F8000078FFF7C9FE3878DF2101403970287870
:101A0800102800D280E0002028707FE03878F0218C
:101A18000140C81C3870A348002110E0A14A13787F
:101A28005B1C1370DAB2042A0FD33A78F023134000
:101A38001A1D3A70994A01231370802211430170CC
:101A48003878DF21014039706EE0894CFF20207220
:101A5800E071A0710020A0728649096861700322B4
:101A6800D243D21C62710A0E22710A0CE270090A72
:101A7800A1703E788A49102804D022180B5CD372D2
:101A8800401CF8E720461B300A21FF220AF069FFB4
:101A98002520002121540F200640751E032D20D239
:101AA800BC202070032E11D1F920800072490A5CF5
:101AB80062710818C17821728178E1714078A0714B
:101AC80020460B301021FF220AF04BFF80202077A0
:101AD8000120E076E8B20228624E00D30225657242
:101AE80006E0002E5F4E03D101206072BB202070FB
:101AF8003878DF21014039706B480078C00701D081
:101B08000D2401E07320C443FFF720FDE1B2252036
:101B1800FFF730FDFFF794FB63480178491C01701B
:101B28005B480188491C01800020307003B0F0BD7B
:101B3800FFF760FD28460BF0E2FAC0200BF0E3FA4D
:101B48003878202102910843387051480088019064
:101B580050490AF0F1FE4E424E414F4901980AF0B1
:101B6800EBFE002900D0750048480570FFF768FBB8
:101B7800424D434E2B2C12D0285D002802D0401E27
:101B880028550AE00120002122460AF071FE326839
:101B980082433260706888437060641CEAE7387872
:101BA8000299084338700AE0AA280AD1FD2908D109
:101BB8000220364908703878DF2101403970294EF3
:101BC800B2E7AC2801D0AA28F5D1701C2949042510
:101BD8002A460BF0F2FC0290F920800026490918E9
:101BE800701D2A460BF0E9FC02990843E3D11D2039
:101BF8000BF097FA2149FF220A7121490A6810233C
:101C080013430B603C2800D83C201E4D29691E4A0E
:101C18001368591A0818106064210AF071FE2861C7
:101C28003078AA281BD0AC28C5D134460934A01B6B
:101C380008381928BFDC2078FF28BCD0A578AC214B
:101C4800204600F08DF82819C41CF0E73019093037
:101C58000178FF29AFD0AA2100F082F8241D1C2C9E
:101C6800F4D1A8E77A0E0020350E0020790E002066
:101C780044060020B0060020E4080020A70D00203C
:101C88000000002008050020900E00205F0E0020B4
:101C9800D808002021060000210500003B0E002086
:0C1CA800E40D0020420E0020390E002048
:101CB400F0B583B0244804210170FFF7C9FB044642
:101CC40022480460200E00900026254F3246500022
:101CD400009940180192D5B2A907C90F40180321F1
:101CE400014029204843401CC0B202900F2D1ED849
:101CF40019484443194824182046E84029210AF089
:101D04001DFE0298081800218E420BD07B5C1A1A23
:101D140000D2C21AD2B2052A01D3491CF4E7C9B2CF
:101D24008D42E3D17855761C019A521CCFE7FFF718
:101D3400AFFC0120FFF77AFB05480021017005483C
:101D4400017003B0F0BDC046790E0020B00600203B
:101D54003B0E0020390E00200D6619005FF36E3C27
:041D6400E40D00206A
:101D6800F0B583B0AA29017803D1C27814020222FF
:101D780008E08279120643791B049A1803791B023A
:101D8800D41803224578EF2928D0F02979D0FD29E5
:101D980036D101793C4A11643C49FF220A74012179
:101DA80009043B4A13680B431360441D01A8C61C71
:101DB8008027832F65D001A80421817045700770A2
:101DC800E178F170A178B170617871702178317023
:101DD800AC21FFF7C5FF241D7F1CEAE7041D0C2674
:101DE800122E4ED001A8457006702178C170611E70
:101DF80009788170AA21FFF7B3FFA41C761CEFE7CE
:101E0800805C04430020234AFF232C2805D0157842
:101E18008D4203D0921C401CF6E71846C5B21B48F9
:101E28004355AF001848C4510120002631462A46C0
:101E38000AF01EFD164A13680343136050680843EE
:101E48005060242D09D0072D09D0082D0FD0232D3F
:101E580011D0052D15D114480AE010480CE0552082
:101E6800C0000F49095C20460AF022FD06E00D4833
:101E78000B49085601E00848805F20180249C91933
:101E8800086003B0F0BDC04608050020A70D00207B
:101E980000000020F4EC0008DE080020E208002022
:0C1EA800E40800209E0200009D020000E3
:101EB400F0B581B0027901462E31002A10D0521EAD
:101EC4000271C27883789A188270087800282AD020
:101ED4004878401E487026D214480078487022E0A2
:101EE4004279002A02D0511E41711CE002784378E5
:101EF4009A4218D083189C7F00949D7B9E7D9F7985
:101F040030241C5D0C7000244C7026215C5C641E23
:101F14005C5487700671C5700099417103D2511CDD
:101F240007220A40027001B0F0BDC0461A0D00201D
:101F3400F0B585B00D46064600787178081A06217A
:101F4400014006294DD028480078800749D4274805
:101F540001788906490F44D01F460A9B0024990939
:101F64000329029400D1E1430F24002D039102D0F0
:101F7400807A2D180A351C4030461146049300F02F
:101F840037F8049BD906019003D431787078641C27
:101F940010E032462E3277713071B570029850706D
:101FA4000398F070317871709B06DB0F1370002C6E
:101FB400084616D03A46471C07233B408B4210D0B4
:101FC40017463118621E26240A5504988206D20F39
:101FD40030240A557370019888758D718F77039832
:101FE400887305B0F0BDC046740E00200F0D0020AC
:101FF40080B50E4800788006400F801E042813D850
:10200400784400794000874402090F0B0D00032235
:10201400084611460AF076FC014605E0490803E04B
:10202400490001E003204143C8B280BD0F0D0020E8
:10203400F0B587B0044640782378834200D067E146
:10204400222900D964E1B74800788006400F49008E
:102054007944898849008F44220026002B002F00F0
:1020640040005900750083009A00B600BC00E400EB
:10207400E900EF00F100F300F900FB000C0111018D
:1020840017011D01250127012F0131014D013301E4
:1020940053015D01350139013D0143014701302000
:1020A4000090462119E1302000904621142215E1C8
:1020B400A22000906421FCE02A20059000905F2576
:1020C400052602200690964F204629463246069B56
:1020D400B847212000900A2369E0C22000905021D3
:1020E4000A2503268E4F20462A463346B847422007
:1020F40000903C2120462A463346B84720200090D1
:102104004621012320462A46B84701E121200090B8
:1021140006460690462105220123814D2046A84704
:10212400009632210F25022620462A4633467C4F4C
:10213400B84706980090502120462A463346784CEA
:10214400A047E5E0222000906E21052501262046C7
:102154002A463346FFF7ECFE232000907C2184E0DE
:1021640000270097322105256D4E20462A462B462E
:10217400B04700975A2120462A462B46B0470220F2
:1021840000906E21032204232046B047C0E02320A0
:1021940005900090502505260A200690604F2046A1
:1021A40029463246069BB847212000901423204636
:1021B40029463246B84705980090204629463246BB
:1021C400069BB847A4E0622000900A21142205234C
:1021D4009BE0222005900090322104910422069273
:1021E4000A2303934E4D2046A847212002900090D5
:1021F400462101910827142620463A463346484D85
:10220400A84705980090204604993A46039B444FFA
:10221400B8470298009020460199069A3346B84779
:1022240076E02A200090782105220DE022200090FB
:1022340078210522322368E0212002E0222000E0F8
:1022440023200090002114220A235EE012202EE0B5
:10225400422000903C211425032620462A4633467A
:10226400FFF766FEE2200090502120462A463346BE
:102274004CE030200090462128222FE0012847D04E
:10228400102000904B2128E0012841D0102000901C
:10229400412122E01020009006250123204611460A
:1022A4002A4633E0302002E0012831D0102000908B
:1022B40046210A22022328E0102004E033201AE0F9
:1022C400312018E031200090782106E0322000907F
:1022D4007A2102E0332000907C210A22012314E0B9
:1022E40050200090822102E0D020009032210A2266
:1022F40000230AE03220009078210F22032304E017
:10230400312000904621142219232046FFF710FEA5
:1023140007B0F0BD3020009046211E22DEE7C04603
:08232400351F00080F0D002019
:10232C0080B5014602484622FFF77EFE80BDC046BE
:04233C00420D00202E
:1023400080B50346CAB202481946FFF773FE80BD46
:04235000420D00201A
:1023540080B5054A1278920702D4FFF7E5FF02E040
:0C23640008460AF072FF80BD1B0D00202F
:10237000B0B5064C064D2088592805D82878800726
:10238000F9D501F041FAF6E7B0BDC046C808002013
:04239000830E002098
:10239400F0B581B0144605460C4802885A2AFCD38D
:1023A400684641700A4FB8600222FA80090A017037
:1023B400002050263146FEF759FFBD60FC80012005
:1023C4003146FEF753FF01B0F0BDC046C8080020F7
:0423D400A00600203F
:1023D800F0B59BB0099005928A183F25402713460F
:1023E8002B4000D0FB1A0D4090098909CEB2C4B227
:1023F800B44212D1FFF7B8FF0AAFB81CA4014022BB
:102408002146FFF7C3FFE819801C0999059A0AF0CD
:102418009FFA7C70B008387074E0019402AC8CC4E8
:10242800821B0027002D25D008910792FFF79CFFFB
:102438000AACA01CB10106912A46FFF7A7FF049831
:10244800421B2819801C09990AF082FA06986070C4
:10245800B0082070324884604221C1800024502195
:102468002046FEF701FF079A08992E480480521E5D
:10247800491C00E03D46C8B206900AA8801C079097
:1024880050B20890FEB20898B0421DDDB001441960
:10249800FFF76AFF09980119402207980AF058FACD
:1024A8000698301881010AAA5170800810701C49DA
:1024B8008A604220C880002650213046FEF7D4FEAC
:1024C800184806807F1CDDE7039D002D26D0049860
:1024D800461BFFF749FF019F7E430AAC601B423051
:1024E80031462A46FFF752FF0598401B09990918FB
:1024F80007982A460AF02CFAC02002990140617018
:10250800B808207006480AA981604221C1800024C9
:1025180050212046FEF7A8FE024804801BB0F0BDFB
:08252800A0060020C8080020F5
:1025300030B581B00C46022A03D32146FFF74CFF89
:1025400012E00578FFF714FF08486946816003220E
:10255000C2808D704C70200A0870002450212046E3
:10256000FEF786FE0248048001B030BDA0060020C0
:04257000C808002077
:1025740070B54478631C43700578F0262E406D07CF
:102584002D0F6D18A91901708178002913D0002D21
:1025940018D04D1E072D1FD9102925D05F2930D002
:1025A400612934D062293CD1D9B2402939D30021E0
:1025B4004170082104E00F2D33D1002141706121C5
:1025C40081702EE0632903D020210A4317490A7041
:1025D40000218170417024E07D442D796D00AF4469
:1025E4000A03200320202003DCB2302C03D3002371
:1025F400437049088170481E1840000611D14020DC
:102604000CE0272C0ED01F2C0BD1802006E00849AB
:1026140000234B805F218170437060200243034894
:10262400027070BD002141701021C9E7310E0020F5
:04263400C2080020B8
:1026380080B506488078632801D1002004E0FEF7C1
:10264800B7FC41080120884380BDC0467A0D0020B0
:10265800B0B50546FEF748FD0446FEF719FD0E2DF8
:1026680009D8032068431B49085C0F2101400F3932
:10267800484248412CE00F3D082D28D87D442D794B
:102688006D00AF44040D111306161A1C1E0001211B
:1026980018E020071BD5FEF7FBFC0146402011E09F
:1026A8000120044020460EE004210BE00820A0434E
:1026B80009E040218143084605E0022102E010219B
:1026C80000E020210840002801D0012000E000207F
:0826D800B0BDC0467A0D0020E0
:1026E0000F2101400F2907D0032048430349081850
:1026F00000214170622181707047C0467A0D002030
:102700000F2101400F2905D0032048430249081832
:0C271000632181707047C0467A0D0020E4
:10271C00F0B581B02F480188491C01802E4801700A
:10272C00FEF744FC782383432C490A78C043002AE3
:10273C0001D01A420AD15A06920F01D0602205E04C
:10274C001A0701D5082201E0102202400A70062562
:10275C00154305400026224C062E0BD002202840A3
:10276C004108F2B22046FFF7FFFEE41C761CE8B2EB
:10277C004508F1E71B48007800260028374603D1AE
:10278C00FEF74CFCFF274740154D1235164C082E12
:10279C000BD0B01DA15D39404A1E9141C2B22846F2
:1027AC00FFF7E2FEED1C761CF1E7104800792024BF
:1027BC00044061090A482A300E22FFF7D5FEFEF7C5
:1027CC00F5FB7E218143214302D009480921017088
:1027DC0001B0F0BDCC080020400E00204A0E0020B5
:1027EC007A0D00208C0E00204CED00080A0E002003
:0427FC00750E002036
:102800000248012101700248017070478C0E0020BF
:042810007B0E00201B
:102814000648427C017C914201D1054904E0815C77
:10282400521C0F231340437408B27047D20D00208A
:04283400FFFF0000A2
:10283800054909788900034A5118085C401CC0B250
:0C2848007047C04674ED0008100D002021
:0C285400014800887047C046CC080020F6
:1028600002490818401E00787047C04645D8000845
:102870000A214143014840181A307047E4080020FB
:10288000044800780449097889094140012008403A
:0C2890007047C046120D0020550C0020BF
:10289C00F0B581B010241D46254001D02D2700E055
:1028AC002427EF261E40002A0AD0042A0BD8194DE3
:1028BC002D78ED0612D40096521ED3B2134A1BE0AB
:1028CC000096134A10E0974212D20096002D01D0C8
:1028DC00D21B5832243AD3B20A4A0DE02343009358
:1028EC009200094BD2185B3204230AF0D8F805E0A9
:1028FC000096521FD3B2024A0AF0E6F801B0F0BDBE
:10290C00CADC0008BADD0008CC0C002094DC0008FE
:08291C00C3E30008550C002084
:10292400F0B581B01D460C4606461046163008D058
:102934001746162A09D0002F0FD1184AB01DC0B26D
:1029440006E0B01DC0B2124A02E0B01DC0B2114A86
:1029540021462B460AF08EF818E006D5212230468F
:1029640021462B46FDF77CFC7F420095781E40B241
:10297400162801DC002000E00920C0433818C3B247
:10298400B01DC0B2044A21460AF0A2F801B0F0BD5D
:102994006CED000870ED000882E30008C4E3000851
:1029A400F0B583B01F4602920D4606465AB224493A
:1029B400002A01DA481D00E008460023002A01DA53
:1029C400891D00E0491CC4560978B80724D4032C97
:1029D40001910BDC029800900323184660431749C9
:1029E4000A18304629460AF05EF814E0029800906E
:1029F400E41CE3B2104A304629460AF069F864B28E
:102A0400102C00DAB61F30461230C0B225222946F7
:102A1400029BFDF725FC019903200740022F03D0F8
:102A2400002F07D1012C05D1F0B24AB22946029BEE
:102A34000AF0D3FB03B0F0BD70DD0008C8E3000862
:042A4400020E00205E
:102A4800F0B581B01F4616460C460546174903C91E
:102A58001A4609F01DFFC007069B0BD0079879009E
:102A6800134A511849784909022907D0012907D181
:102A7800202104E058070BD523200AE030210B431E
:102A880040B20090284621463246FDF715FD0AE07F
:102A98001120C043590600D506204019C0B2054A86
:102AA800214609F0E5FF002001B0F0BD000000203C
:082AB800F4EC000884ED0008B5
:102AC00080B5062803D840001849095A25E000219E
:102AD0000C2822D3132811D801460C394A00114979
:102AE000895A0F2808D8104880183222825C323068
:102AF000407800028018091A49000EE0232805D802
:102B00004000074940182838018806E05D2804D8AD
:102B10002438C0B201F052FF014608B280BDC04661
:102B2000260800206E080020CC0C00208E08002013
:102B3000F0B587B00446163005D0002C05D0162C11
:102B400005D1012559E0002557E00D4655E0002547
:102B5000162C52DCE11160184840C1B2092909D88D
:102B60000E30C0B2FFF778FD0546002C45DC012091
:102B7000454042E016460A38C3B203205843614933
:102B800008184B21CA00815C0F27394035D0052E2B
:102B900007D35F48C15C01200840002C2BDD0546AF
:102BA0002BE0059382180692574A835C0493574B97
:102BB0005918491E0978801842780192421C002554
:102BC00002291DD000290395284626D10498401ECD
:102BD000C0B20292FFF774FF0390002002990856DA
:102BE000810E411849B28909494249B2292242431A
:102BF0009010401811E045424541284607B0F0BD0D
:102C00000498401EC0B20292FFF75AFF0390029848
:102C10000078401EC0B2FFF753FF069909780A46B4
:102C20003A40521E0D2A62D87A44127952009744D3
:102C300020222A330606063C4120222424430498FD
:102C400040B2711CCAB2039200252946FFF770FFFB
:102C50000490019840B22946039AFFF769FF06994C
:102C600009780F40062F2ED0052F2FD1049A02424B
:102C70002EE0039A0CE0039A13E02548059BC05C04
:102C8000C00727D136E0039BDA139B1853401AB2D2
:102C90008242059B1EDC2DE0039BDA139B185340F8
:102CA0001AB28242059B15DB24E0039A8242059BFF
:102CB00010D01FE0039A0AE0059B5800154A105EE9
:102CC000002807D516E0049A024301E0049A8242E4
:102CD000059B0FD008090CD0082800D9401C711C96
:102CE000CAB20021FFF724FF054606980178059B2C
:102CF00000E001250C2008400C2800D135E70448ED
:102D0000C55432E7E40800205602000045D8000808
:082D1000F40D0020460800202C
:102D180080B531200B4908560AF077FA002803D10C
:102D280009480088002802D0FEF7F2F801E0FEF713
:102D3800F5F80648007806490A78824200D00870FB
:102D480080BDC046CC0C0020D0080020400E0020DA
:042D58004C0E0020FD
:102D5C00032803D0002806D1032100E000214900FC
:102D6C00084A515A04E04100064A515A032807D830
:102D7C00054A1278C240D00702D00120C002411A85
:0C2D8C0088B270475E0800202A0D00206D
:102D9800B0B50C460546FDF72BFA182029460AF06F
:102DA80046F9600703D512201721FFF7CFFAE0078D
:102DB80007D1A00707D41C2038210B4A09F0ABFE25
:102DC80005E0064A04E0302005490AF030F9054AD2
:102DD80016200021042309F04BFEB0BD88ED000841
:0C2DE800A6DC000854D80008BCDC000881
:102DF400B0B50C4616490978002902D01549086077
:102E040025E00421FFF7C6FFFDF790FC002C02D15A
:102E14001248007800E01920C0B2FDF7D3F900F0A1
:102E24001FF80D4D09F0A2FF00280ED128780328C1
:102E340001D100202870002C02D0FEF76BF801E0CD
:102E4400FEF76EF8FFF766FFECE700F009F8B0BD97
:102E54007C0E0020B40600203C0E0020FA0C00205A
:102E640080B509F083FF0028FBD1024800210170DE
:082E740080BDC046310E0020B4
:102E7C00B0B5104800780124204002210D1A2846D4
:102E8C00FFF766FF00B2294608F044F80A490978B2
:102E9C00890603D40649884206DA06E0C1134018B5
:102EAC00484000B2102800DB00242046B0BDC046CC
:0C2EBC0011FCFFFF100D0020550C002041
:102EC80080B511480078C0071BD1FDF7D9FFFFF77F
:102ED800D1FF002815D10B480621FFF759FFFDF750
:102EE80023FCFFF7BBFFFDF7CBFFFFF711FFFFF751
:102EF800C1FF002805D109F037FF0028F3D0FFF7FC
:0C2F0800ADFF80BDD5E300080F0D0020D8
:102F140080B582B00B46002100911021024A09F0CD
:0C2F2400D7FD02B080BDC04682E300086B
:102F3000F0B581B035480078800761D43448067810
:102F4000382131400839182904D801228A402D49F6
:102F50000A4203D1C7210E400836067000273D46BD
:102F600002242C43FDF790FFE5B209F008FF044668
:102F700025482946FFF710FF25467540E80703D08E
:102F800002200021FFF7C6FFA80703D51720012163
:102F9000FFF7C0FF680703D52C200221FFF7BAFF17
:102FA000A806400F0DD0200705D4E00605D4A006E2
:102FB00007D5052102E0032100E004214120FFF7AD
:102FC000A9FF680603D556200621FFF7A3FF2806B0
:102FD00003D56B200721FFF79DFFFDF7A9FBF8073D
:102FE00001D0002502E0FFF73DFF0425B44207D0E1
:102FF00009F0BEFE002803D1FFF78EFE0127AFE7E0
:1030000001B0F0BD01010001F6E300080F0D002042
:04301000930B0020FE
:10301400F0B581B00A4D00242646F7B2032F0BD831
:103024002878002804D040B20AF0F1F8002802D130
:103034000A357E1CF1E7741CE0B201B0F0BDC04655
:04304400B10B0020AC
:1030480000280FD00A2242430A48101849004018A5
:103058000949425C4018407800028018FF21F63187
:10306800401804E003484018F1214900405600B2D6
:0C3078007047C046E4080020BB020000C6
:10308400B0B515460C46002803D0214609F086FE4B
:1030940000E000207C21C9438D4200DC0D467D2DDB
:1030A40000DB7D2500280DD00B4969180A22424314
:1030B4000A48101862008018094A81548018090AC5
:1030C400417004E005480019F121490045540620E7
:1030D40008F068FFB0BDC0460BFEFFFFE408002007
:0430E400BB0200002B
:1030E800F0B583B0019315460F460290574806780D
:1030F8002020304364280ED1FDF75AFF2C463D4668
:10310800800701D5012001E052480078C0B2009044
:103118000527132023E04E49097800290DD0422EB7
:103128000ED0432EE8D0452E0AD0622E08D0652E48
:1031380006D0632E0298DFD026E06528029823D1B6
:10314800FDF736FF2C463D46800702D50020C043D8
:1031580002E0404800784042009004271420FFF71E
:10316800E1F83846FFF774FA002808D00520FFF781
:10317800C3FA0420FFF7C0FA0298404202E002981E
:10318800009908182F462546002F1BD1012D19D16B
:10319800602E01D02E2E11D12D4800240470304607
:1031A800FFF7AAFA0299484248412E2E09D12A4926
:1031B80000260E7029494988441A16E00121084062
:1031C80000E0264625494988441A23480078012802
:1031D8000BD1FDF7EDFE082180072148415601D5A6
:1031E800084601E014204843241820B2A84202DD12
:1031F80013272C4603E0B84207DA3C46142730462A
:10320800FFF77AFA3846FFF78DF8029880B2A1B234
:10321800814218D0FFF70CFA002802D01148FF218C
:10322800017020040AD13046FFF756FA02980028A8
:1032380001D4142000E01320FFF774F8032101984B
:10324800084008F0ADFE20B203B0F0BD730E0020B8
:10325800330E0020770E0020780E0020B0080020E2
:083268000A0E0020690E00208F
:1032700080B5024B1B7809F0B4FD80BD840E0020A0
:1032800080B50A4602490B78002109F0AAFD80BDED
:04329000840E002088
:1032940080B50A4602490B780021FFF723FF80BD61
:0432A400840E002074
:1032A80010B508490A78002A01D1002808D0064B31
:1032B800BE241C70002801D1501E00E000200870B8
:0C32C80010BDC0463F0E0020810E00200B
:1032D400044909788900044A50500448BF21017008
:1032E4007047C0463F0E00206C060020810E00206F
:1032F40010B508490A78042A03D3094809F031FDB6
:1033040007E0521C9300044CE0500448BF230370B0
:103314000A7010BD3F0E00206C060020810E0020B4
:043324001BE400089E
:10332800064801787D208000484382B202490B8814
:103338009A4200D908807047D0080020140D002058
:1033480080B57D218900002809D0134802784A43B6
:1033580093B20F480088834203D8024601E00C4824
:10336800028890B2002800D0501E82B20A4B1B7A05
:1033780059438BB2934200D80146064A1278002A74
:1033880000D0084602490880FFF7C2FC80BDC0464D
:0C339800D0080020280E0020140D00209A
:1033A40070B52721084A535C0F2B0CD82824155DCF
:1033B4006E009053681C1055C0B2102801D3002031
:0C33C4001055581C505470BDB20700207A
:1033D00080B503490870103880B2FFF7E3FF80BD65
:0433E000890E002032
:1033E40010B515490978C90701D1032148400F498F
:1033F4000856410F411849B2C9100622D2439042DF
:1034040000DA4942CAB2072A00D30721C9B2084ADE
:10341400022902D3074B09241C70515C072801DCE4
:10342400002000E00120C001084310BD1B0E002055
:0C34340090ED0008750E0020100D002027
:1034400080B5042807D81A490A78401EC1B2104630
:1034500009F0F5FE0DE0092801D90C2815D8400027
:10346000124940180B21C943405E410F401800B279
:10347000C0107B21CA4301B2914203DB7C2902DDEB
:103480007D2000E0832040B280BD1C2809D8400088
:10349000054940181921C943405E0A2109F00CFA78
:1034A000E7E70020EFE7C046260800208E0800204E
:0434B0008A0E002060
:1034B40080B5064809F07FFE002803D0034800F0D9
:1034C40007F801E009F004F980BDC046420D002070
:1034D40080B5017900290DD0807800280AD00949E7
:1034E4000978C90709D006490A781018087040B24B
:1034F400002802D4FDF718FE01E0FDF70DFE80BDA3
:08350400440E00201B0D002005
:10350C0080B51048FEF7D0FCFFF702F90E480178A1
:10351C0002220A4302700D480178491E0170090607
:10352C0003D101214170642101708178491E8170A1
:10353C00090605D10A218170C17801220A43C270A3
:10354C0080BDC046420D00203C0E00209C0E002089
:10355C0070B5FDF713FF1A490A880880861AB0B2B5
:10356C00032109F0CBF91749711889B2164C174A87
:10357C00914201D2012121E025780021002D1DD09E
:10358C00082D1AD8124AB21892B2124B9A4215D878
:10359C00114964220A701149401801B2114800788F
:1035AC000A30C0B248430A2109F080F969000C4A7C
:1035BC008918891E0880691C00E02946217070BD9D
:1035CC00D40800201DD1FFFF360E00209D8C00007A
:1035DC009DF6FFFF64100000370E002024FAFFFF59
:0835EC006E080020160D0020FE
:1035F40084B06E48FF21017009F081FD6C496D486B
:10360400086008F02FFD002802D0FCF7FDFD05E05E
:1036140008F0E4FAFCF7F8FD08F060FD674DFDF7EB
:1036240001FDC32102460A40832A02D101202870E9
:10363400F5E78143822908D109F05FFD08205E493E
:1036440009F0F7FCFDF772F8FEE72D205C4E305CC4
:1036540008F09EFB09F08AFB06210140062903D1EC
:103664002878022101432970564C012020700390D0
:10367400FFF768FE0020029020705C20305CC01DC3
:10368400C0B2FFF7A3FE4620305CC00648D44F20EA
:103694004B4D285C002803D007201C21FEF758FE60
:1036A400FFF738FBFCF7A6FD042000901421464ADE
:1036B4000A2309F0F8F91024009412203021434A17
:1036C400062309F0F0F94C20285CC00607D40094C6
:1036D4002A465132362030210A2309F0E4F9FDF755
:1036E40025F8FFF7BDFBFDF7CDFB1920040109F018
:1036F40094FD0646364D2888001984B2FDF716F865
:10370400FFF708FBFDF7BEFB09F087FD074609F04C
:103714002DFB002804D1B74202D128888442EDD180
:103724004326274CA05D400706D400F007FEC728B7
:1037340002D8284809F015FBFDF7A4FB2648C089E8
:103744000E2109F0DFF825490870FFF7BBFBFFF7EE
:10375400EDFBA05DB821084202D1214809F001FB2C
:10376400204C20780028029D03D01F4809F0F9FA64
:103774002570FFF775FB1D48807A09F035FB1C485E
:1037840005701C48C17802220A43C2701A482946AF
:1037940007F000FB08F01CFE184803990170184854
:1037A4000349486000F02EF8FCE7C046290E0020CB
:1037B4006C060020A199000828E40008740E00207B
:1037C400CC0C0020280E00205BD8000866D8000826
:1037D400CC0800206DD800085E0800203D0E0020B3
:1037E40098ED0008270E00207CD80008E40800208B
:1037F4008A0E00209C0E0020060800207C0E00206B
:0438040079780008C7
:10380800F0B585B0F34800250570F3480788FDF743
:1038180037FBF2480178F24A12780270501AF14CDC
:103828002070F14E3078002803D1F048002107F0CD
:10383800AFFA2078002800D1B9E2FC4801780029C5
:1038480001D0491E017009F0E6FCF9498A889042C6
:103858002DD14520F74A105C0A3002062CD0F64AD2
:103868001278322A28D30A78521C0A70D2B2102A47
:1038780022D300220A704A88521C4A80FF217831DC
:10388800C0B2484380B291B2884215D21F2002408C
:10389800012A11D1E9480178FD220A400270062068
:1038A800FFF792FD10202D21FEF750FD04E04D801A
:1038B8008880E3480121017005F0C2FD05F05AFF38
:1038C800E0480178002901D0491E0170284608F017
:1038D8002DFCFCF78DFCDC48047805703078002856
:1038E800039501D00294FAE101970F202040801F30
:1038F800D6498F7C042F03D0032F02D1042700E080
:1039080008277C21C9430491C0B2072804D8F021B4
:103918002140202900D088E04020204340281CD1A5
:1039280027460020C543CA4C2078411CC8B28842AB
:103938002E4600D10646FEF77BFE002800D106463B
:10394800F0B2C82800D035462570C82802D0039D9B
:103958003C4602E04220C443039D0C20BD490A5E58
:10396800BD48415F891ACB0EC9184909090493B2A9
:10397800294606D003800421415E891ACA0F891896
:1039880049108380B54A1278002A00D02946462279
:10399800A84EB25C920600D529464180B04F78798E
:1039A8007978091ACAB2D2098918FE220A40101871
:1039B800787148B2401038722043C0B2FFF7C0FC9B
:1039C800A84800788000A84909585C20305CC01DD0
:1039D800A64A914200D0A9E0A54909780029049B8C
:1039E80000D0A4E0397A00290CD000223A720622CD
:1039F800BA5649B25118994200DC19467D2900DBB4
:103A08007D21B9719F218900904A525C510900D1EA
:103A18008DE050B200287DD448008E494018C088F7
:103A280001218A028018C9027BE04421814E715C21
:103A38008900904A51184008085C5D21715CC907EB
:103A480001D00321081AC5B28B480078294609F02D
:103A5800A3F90090294609F0EEFB002F08D1C11305
:103A680042184A4011B2890F511889B289084F1C6F
:103A7800022D10D14621715C804A744B9A5C9209E0
:103A88004A40D2075B7C0121194000D00227002A56
:103A980002D07F4200E000212E46E2077AB202946B
:103AA80000D15242121893B25C1EA34114464440FE
:103AB80024B2049D7C35AC4201DC002400E00124E2
:103AC80023400B430FD100280DD000270098314622
:103AD8003A46FFF7D3FA0298FEF70EFE1620FEF7D5
:103AE80021FC3C461CE717B238467C3080B2F828E7
:103AF8007ED8009831463A46FFF7C0FA78B2C0112E
:103B080039184140C8B281083C311520FEF714FC31
:103B1800002405E748004D494018594940567D3072
:103B2800FA2182B20720504308F0EAFE049B02946F
:103B380054490978C0B2884202D0FFF745FC049B7B
:103B48004C203056504C002826D52078002823D009
:103B58004E48007800283D4A00D19DE000244C4D95
:103B68002857002801D4401C28700220FFF736FC93
:103B78007F260146314014D02A788A4225D92C70F4
:103B880002990906FA4A049BFC4C00D084E040B232
:103B9800002849DA63207EE0F94800210170F44AE0
:103BA8007AE00320FFF71AFC06400ED02978B142CC
:103BB800EF4A049B0BD92C7002990906EF4C6BD184
:103BC80040B2002866DA642065E0E94A049BEB4CC1
:103BD80062E0C0468B0E0020CA080020470E002075
:103BE800CC080020260E00208C0E0020060800209D
:103BF800002F049A00DD7D2200983146FFF73EFA37
:103C080038467D3080B20024FA2800D988E678B298
:103C1800C01139184140C8B280083C21081AC1B205
:103C28001520FEF789FB7BE6622034E02E0E00208B
:103C3800C2080020CC0C00203D0E0020740E00208D
:103C4800280E0020370E0020310E0020E408002046
:103C5800690E00208E080020B00800202A0E0020DF
:103C68000A0E00203F0E00206C060020A1990008D3
:103C78001F0E002074ED00088A0E0020710300005A
:103C8800B5020000890E0020760E0020750E002077
:103C9800450E00206520029001202070BF79002089
:103CA800C14CC5B2062D18D8680016185720C00098
:103CB800305C00280FD00528394604D0FFF7BCFB3C
:103CC800049BAB4A014648B2984200DC18467D285E
:103CD80000DB7D203055681CE3E7019F039DA94C5C
:103CE800206800280DD000252946FFF751F809F073
:103CF8003BF8A5490A78012A1CD100281ED1256065
:103D08001CE0A1480570A1480478002C04D0057077
:103D18001720FEF707FB02949D48029A02709D48FF
:103D28001421017093480078800093490958D0B253
:103D3800884703E0002801D001200870FCF7F4FC54
:103D4800954800781F21014002292DD19348057814
:103D5800103505700E209249085E410F411809B2CE
:103D6800C9083022804CA2564A430001101880B27C
:103D7800A521490008F0C4FD7C490A781018401CA8
:103D88004008087029060FD12F21615CC0B281421A
:103D98000AD911202E21FEF7D9FA4620205C000707
:103DA80002D58048322101806E48039901707F480E
:103DB8000178032901D10021017069480088C01BDE
:103DC80082B27B490B889A4200D90880794EF078F4
:103DD800002800D1B7E078480188491C01800020FC
:103DE800634DC7B20B2F00D987E0032318467843E9
:103DF8002C184B20C00021180391744961180291B6
:103E0800215C0F22084604921040714A1018401E87
:103E180000780328019307D178006E4A125E002AC1
:103E280004D00CD4561E1DE0049A2CE00022029BFC
:103E38009E56002E16DBF2430A26564312E092B233
:103E4800561CB2B2B2420DD003227A43AA18624B72
:103E5800D256002A05D4521C52B20A2353435E1E7E
:103E680000E0D6435B4A151808090AD0082800D98B
:103E7800401C09F0CAF9002801D1504E7C3603983D
:103E88000178049A2E8011400C295448C55D08D148
:103E980000260298805709F0B8F9002803D00126B7
:103EA8000CE02E460BE003207843314908184A49B4
:103EB800405609F0AAF9002800D12E46049A039822
:103EC800007810400D282A4D13D100200299085679
:103ED80009F09BF900280AD0B0070AD43E482056BA
:103EE80009F093F90028019E03D1022601E0FD2084
:103EF80006403A48C655781C73E700F0DFF90024FD
:103F08002C4EF4702F462E4D785D00281BD02D487E
:103F1800385609F07AF900280AD0785D811E0429FC
:103F280009D2C8B200210A4600F02CFC044606E07B
:103F38000020014605E0012801D12348C46D20B2C4
:103F4800012108F031FB7078002807D0002070703C
:103F58000B480178002901D0491E017005B0F0BD59
:103F6800CA080020280E0020CC0C00203D0E00209E
:103F7800E40800203F0E00206C060020760E00208A
:103F8800750E0020B4060020460E0020810E002089
:103F9800730E0020770E0020400E0020480E0020EF
:103FA8005E080020D0080020B70200003C0E002068
:103FB800CE0800209C0E0020DA08002083FF0000B5
:103FC800ED020000EE020000080500205602000085
:103FD80045D800084608002057020000F40D0020CC
:103FE800F0B585B00D4604464800AE4903900F5A17
:103FF800621D60780028AC4801900292049528D090
:1040080001269557107800902078401EC0B2FEF720
:1040180053FD6278531E052B31D82902009D49199A
:104028007B441B795B009F442C3002023448C31345
:10403800C018584005B2012000238D42064600DC16
:104048001E468D4200DB1846032A049D39D00646D9
:1040580037E0A078002807D040B209F0D6F8002849
:1040680000D1914F00213DE0E1780020042900D2E1
:10407800C9E02279602111404A1E914132E006468A
:104088001EE0884203DC00261AE08842FBDA01269B
:1040980016E00A2223783E3B062B00D8514309B28A
:1040A800062B049D00D8504300B2401AC11740188F
:1040B8004840202805D3002603E0401A46424641DE
:1040C800049DA078002805D040B209F09EF8002889
:1040D80000D10646B0B2421E01469141002800D1E7
:1040E80007460020714A0843E6787149C97889076C
:1040F80010D4555D032E3AD1A07809F05EF8014638
:104108000026854200D037468D42039800D04E1CC9
:10411800049D05E0213E71424E41634F01460398DC
:10412800604A1318614841550420205600280BD5D1
:104138002078252808D32538C0B21D4609F01FF974
:104148002B46002800D1A0E0300600D19DE038B20F
:10415800002812D4002F14D0E0780A2141431439E2
:104168007F1C38B2814200DB8FE000278DE00028F9
:104178001AD0002D49D0049D4DE0E078022800D8DF
:1041880083E02079072260250146294020291AD199
:1041980020462F461D46049209F059F82B463D4605
:1041A8002079049908400FE00020012D70D1711E7C
:1041B80001290146049D6DD8022E00D001260398DE
:1041C80000273946ACE710400299002836D001286C
:1041D80010D18878C978090208187D218900CA1D7C
:1041E8001F4690421CD9001DC0B200210A4600F0AB
:1041F800C9FA1CE0887800212E461D46FEF79CF877
:104208002B4635461AE001466CE702213143022964
:10421800049D00D10027012E00D10020012139E0A2
:10422800884204D940002349401823494056F1B236
:104238000818401E80B2FFF7B1F83B4620790540C8
:10424800402D05D120461D4609F001F82B4620795E
:10425800C106890F0FD0012902D11D460D2007E0A4
:10426800182108401D46182801D00E2000E00F2014
:10427800FEF758F82B46E078032801D20A4F04E0ED
:10428800202801D801200190019F1F8005B0F0BDB2
:104298000146049D212E02D10026034F3FE7064622
:1042A8003DE7C0467E080020FFFF0000130E0020F7
:0C42B8009C0E0020E4080020CDFEFFFF5B
:1042C400B0B5064C0025E9B2072905D82046FFF70A
:1042D40089FE6D1C0934F6E7B0BDC0465D0C0020B4
:1042E40010B57D2803DC7D23DB4398420EDC7E3849
:1042F400C0B24000064B1B18064C1857884202DB1C
:104304009042114602DD18190170084610BDC046DE
:08431400E4080020B7020000DC
:10431C00801E414241410248407C000908407047E0
:04432C00E408002081
:1043300080B5024808F081FC80BDC046420D0020D7
:1043400010B5064880780024002804D00F34C0B28D
:1043500008F05AFDF8E7A0B210BDC04604060020E0
:10436000F0B581B001200102244808F0FDFA0027D1
:10437000152F2CD0142F05D003207843204908187E
:10438000001D01E01E48801C009004787F1C002660
:1043900025461A4C2806EBD0E8B2042802D3215C4B
:1043A00000290ED0300605D0F0B20025294608F0CD
:1043B00030FDEFE700240098047000F023F8264653
:1043C000E6E7275408F020FD04462E46E0E70024E7
:1043D0000B4EFC2C0ED0094800190079002807D19B
:1043E000251DB178E8B208F014FDB57000F014F89E
:1043F000641CEEE7002001B0F0BDC046E4080020D8
:04440000040600208E
:1044040080B5034800214022FEF790F880BDC046E5
:04441400040600207A
:1044180080B5034802210122FEF786F880BDC04618
:044428000606002064
:10442C00B0B50C4C201D3C2108F098FA0A482060CD
:10443C000425E8B2451CE9B2A94202D108F0E3FC1C
:10444C00F7E7FF20002108F0DEFC0420A070FFF746
:0C445C00D3FFB0BD040600200440001097
:10446800B0B50A4C0021402520462A46FDF78EFFAC
:104478006078002801D165702846684021780422B8
:104488004A40024350425041B0BDC0460406002095
:1044980003214143024840180079411E8841704772
:0444A80004060020E6
:1044AC0070B582B0032460430C4B1A18967801AD9A
:1044BC00AE70185C567836023018288061435E184E
:1044CC0010463146224608F041FA3046294622462B
:1044DC0008F03CFAFFF790FF02B070BD0806002010
:1044EC0010B50321414307484018002141718171E7
:1044FC0004790171FFF780FF002C02D0204600F0F8
:08450C0003F810BD04060020B5
:1045140070B50446C5B2284608F074FC002803D0E0
:10452400284608F06FFCF5E7044EB178284608F0F9
:104534006EFCB470FFF76EFF70BDC0460406002029
:1045440000780321414304484018417980790002EE
:10455400411802480840704704060020FF0F00007D
:104564000022C28042714280017003224A430449FE
:1045740089180A79027188790002000B7047C046D5
:044584000406002009
:10458800F0B581B00D460446007803214143184830
:104598004018417980790002401816490140608826
:1045A8000E1AB0B2904200D316463746380415D0DA
:1045B8002079002812D06179491C6171C9B208F0CC
:1045C800D2FE287060790F2805D300206071207909
:1045D80008F016FC20716D1C7F1EE7E7B8B2B1B277
:1045E800081A618809186180C0B201B0F0BDC046E0
:0845F80004060020FF0F000083
:10460000F0B583B0154602910446007900280BD11D
:104610006088002808D100F055F820712178032225
:104620004A43274989180871009528063ED02689F3
:10463000FEF710F9301A00B2002835D4207901268F
:10464000002832D061790F2912D30021617108F05E
:10465000DBFB002806D1277900F034F80146384604
:1046600008F0D7FB207908F0CFFB207100281CD080
:1046700061790F22521AD3B2EEB2B34201952E469F
:1046800000D81646F7B200010818411C029D2846C2
:104690003A46FDF74DFF6079301860710198801B34
:1046A000ED1902950546C0E70226E671E8B20099C9
:1046B000081A618809186180C0B203B0F0BDC04615
:0446C00004060020CC
:1046C400B0B5084DAC78002C09D0204608F09AFB10
:1046D400A870FFF79FFE0021204608F098FB2046B3
:0846E400B0BDC0460406002031
:1046EC00F0B581B01C4616460F460546FFF734FF61
:1046FC00032078430549081831018171002141716B
:10470C00FEF7A2F80019288101B0F0BD04060020C4
:10471C0070B5044600780321414312484018618863
:10472C0041710F2213020B408179090212030A40D6
:10473C00D118090A817120790025002809D008F0C8
:10474C005DFB002805D006462079002108F05BFBB4
:10475C003546FFF751FE002D02D02846FFF7D4FE58
:08476C0070BDC04604060020E8
:1047740010B582B014460093024A234608F0A8F903
:0847840002B010BDBADD00080F
:10478C00F0B583B02B4C2778052F01D900204EE0D3
:10479C00034601910292781C20700B251846684341
:1047AC00254E30182549405C002807D0401EC0B269
:1047BC001C46FEF77FF923461E4C00E000202770B4
:1047CC005D4376191E49775C08243C4008D1D12101
:1047DC008900725C71180123C956090289184018A6
:1047EC00019D1849715C4A1C42431748305C411CBE
:1047FC00104608F05BF8002C07D0D1218900725CC0
:10480C0071184978090289184018F90700D04042FC
:10481C00029A002D03D06921C900715C2970002A0D
:10482C0005D00749711809784907890F117000B232
:10483C0003B0F0BD8B0E0020E40800204303000001
:0C484C0049030000460300004703000081
:10485800F0B583B002920C4605461E48867D284670
:104868001938C0B233225523FBF7F4FDA01EC1B29C
:104878000527019528463A46FBF7B0FD0125B00704
:1048880001D5390200E0A902029AD0131218424059
:1048980010B2192670436A02801808F009F8010658
:1048A8003206914200DC064677B20298002800DC06
:1048B800754201982818C5B2601CC1B228463A460C
:1048C80008F04FF9601EC1B228463A4608F049F987
:0848D80003B0F0BDE40800206C
:1048E000F0B585B004A900240C7003A90C702F4901
:1048F0000F563E460F3600F061F805460E2E28D8BA
:10490000B00002A1085826468746C046574900080D
:104910005749000857490008574900089F490008AF
:10492000494900084949000849490008494900081F
:1049300049490008494900084949000893490008C5
:104940007749000877490008780019494018194943
:104950004556264623E0F8B20F30C0B204AE03AF8E
:1049600031463A46FFF712FF0546307812490C5C93
:1049700034703E7813E001AC3C222046294608F012
:1049800031FB0026A05F029D08F0FFFC04A835243F
:1049900004E003A80126067004A82424047028B2A9
:1049A0003146224608F04AF905B0F0BDA8DE0008FD
:0C49B000E4080020CB020000A8ED000885
:1049BC0080B52C2801D1002025E0144909560B2282
:1049CC00D243914206DC0F31C8B200210A46FFF7F0
:1049DC00D7FE18E02C380B2805D848000F49401892
:1049EC000F4940560FE0881C022804D208010949DF
:1049FC004018808D07E0C81C02D10548007802E001
:104A0C0088000549085800B280BDC046A8DE0008E1
:104A1C003D0E0020E607002008050020E4080020D9
:044A2C00CB020000B9
:104A300010B582B01201044CA2180C24125F00932E
:0C4A400008F01BFB02B010BDE6070020D0
:104A4C00F0B58DB0089315460A9107460CA82023A3
:104A5C000370012013990840059067488256129CF8
:104A6C0007920695039303D1FA2004903D4631E05A
:104A7C000E462C2D16D00B20C1438A4212DC114657
:104A8C000F31C9B248435D4908185D49425C002AA0
:104A9C0008D0421810200090042338460A9907F0D9
:104AAC00FEFF06E0681CC2B2002338460A99FFF7E5
:104ABC005BFE0420204002D00A9908390A91002894
:104ACC00079A01D00B2100E00521C94304913D1840
:104ADC001835314608230B4001D0BF200440104646
:104AEC000F30042809910DD20593C0B20CA90BAE5E
:104AFC003246FFF745FE317802292AD001292AD106
:104B0C00039927E0901C022833D2072626400096F2
:104B1C0060070A9C00D42D1F0598002800D00D3585
:104B2C00A81FC0B2E1B2089A12B2059727461C46DC
:104B3C00334608F09CFA23463C46059F079A1046DC
:104B4C0033300CA90870BF1F0698C0B22B2818D997
:104B5C0037E030210C4326460A9C0CA90A78294BD5
:104B6C009A5C0A700999090600D50898079A059B62
:104B7C0002E0264608980A9C0699C9B22C290AD24A
:104B8C00089005208021314300910190002B0ED01C
:104B9C0038463D300DE0002B01D03D463D35EBB2A3
:104BAC00E1B202B21846334608F059FA09E004980B
:104BBC002818C0B2E1B2D3B2089AFDF73FFF0CA996
:104BCC00087009994807800F11D00420014001D0CA
:104BDC00FB200640002901D00A3701E00A4807787B
:104BEC00F8B20CA90A78E1B23346FBF735FB0CA8F6
:104BFC0000780DB0F0BDC046A8DE0008E408002027
:0C4C0C004A030000B0ED00087E0E0020FE
:104C1800F0B581B01C4616460D460746064A07F011
:104C280027FF0C37F8B23036F2B229462346FBF795
:0C4C380015FB01B0F0BDC046A7D8000875
:104C440070B51D4614460326059B1E407D2A03DCD1
:104C54007D22D24394420FDC1238C0B222467D3A00
:104C6400D2B2FFF7D7FF002E11D0E0B27E2182220C
:104C74000223FEF737FA09E0224608F0F4F9002E81
:104C840005D0049A20462946FEF7F0FA0446002E81
:104C940016D00C480078BD2812D160B27D2803DC00
:104CA4007D21C943884207DCE0B240000649401830
:104CB400FF21BC31445C00E07E24022007F072F93D
:0C4CC40060B270BD730E0020E4080020F8
:104CD00010B50E2141430B484418DB2040002056FC
:104CE00008F097FA002808D0FF20B830205608F0C6
:104CF00090FA002803D1012002E0002000E0022009
:084D000010BDC046E4080020CC
:104D0800F0B583B01E4614460F460546244938467A
:104D180008F08DF91020009042203946224633468B
:104D280007F0BFFE08980290002837D001942C465F
:104D38000625284660434230C0B21A490B783946E6
:104D48002A46FBF7C9FC6E432546019C301DC2B2BA
:104D5800781EC1B240200923FBF7DAFC114800781D
:104D680000281BD0605D002802D000F021F800E088
:104D7800002040B200214122029B08F02EF8C0B268
:104D8800412802D80849085C00E02020615D814282
:104D980004D060550548007807F002F903B0F0BD6B
:104DA80031E40008330E002029D90008840E0020C1
:104DB800F0B50021094A0B46DDB2422D0E4600D05F
:104DC8002646575D87421C4600D03446874202D0AB
:104DD8005B1C422DF0D1E0B2F0BDC04629D90008D5
:104DE800412802D80249085C00E020207047C046EC
:044DF80029D90008AD
:104DFC00F0B581B01D4614460646002903D0002D9F
:104E0C000CD128460CE0002C04D0672082223146BD
:104E1C0007F067FE002D0DD128460CE014480078F1
:104E2C00C2B24F78087800928A1C3146234607F0AC
:104E3C004BFE08E0642000906620072231461346A2
:104E4C0007F0BAFE0127002D0FD00B480078002880
:104E5C0003D008480078002807D00848037860B2CF
:104E6C007AB2002107F0B7FF0446E0B201B0F0BD02
:104E7C00800E0020330E0020850E0020840E0020B2
:104E8C0010B513460C46024602492046FFF7B0FF08
:084E9C0010BDC046E2DE000873
:104EA40080B5002A05D012B21030C0B208F0DBF889
:104EB40002E0024A07F0DEFD80BDC0466CED00084A
:104EC400F0B583B002920F4601900825BB48425FBB
:104ED4000621BB4E715E891A8B0EC9188911B94B14
:104EE40019700A23C35E705FC01A840E0019801102
:104EF400B54C2070C0B2C9B2002901D092B2F28080
:104F0400B24C002801D09AB232812478B04A137886
:104F1400002B03D1B94B1B789B0606D50020AA4968
:104F24000870A849087010700146002904D10028AF
:104F340002D17088002801D0FEF7F4F9A54806785C
:104F4400012000900298FF285ED0A3480078012831
:104F54001FD0002841D1A2490878012802D100209D
:104F6400087034469F4B5A5700201872012A18DBE8
:104F7400611CCAB2521A531E9A41B442019B01D217
:104F8400002A22D01978029A91420ED2491C197033
:104F94001AE000202E2F1CD09049097800291CD13A
:104FA40017E0002A03D421460FE018700CE0002C0F
:104FB400019D01D0611E08E02B78002B029A00D0DD
:104FC4005A1E2A70009A0A7001462E2F04D101201D
:104FD4000C468149087000E00C4683480078401C68
:104FE400C5B2854201D00020C543FDF723FB00284C
:104FF40000D10546E8B23D2804D301207649087063
:10500400764908707848057078480670734D28789A
:105014000028019B17D03846603805283CD938460B
:10502400423803284CD9212F00D171E02E2F3AD0D9
:10503400812F64D08E2F68D0BF2F00D0A2E000242F
:105044001C702C709EE060480078002813D01978FA
:10505400091A4AB20020002A00DC0146CAB2029DA5
:10506400AA4200D32946197057490870E0B2B042E9
:1050740000D33446594D18780028CCD051480078D4
:105084000028C8D0241A60B2002800DC0024E0B252
:10509400B042C0D33446BEE7784400794000874428
:1050A40002711D262B5B0298FF286BD028784142A1
:1050B40041412970002865D147480121017061E010
:1050C40078440079400087440129354518780299CD
:1050D400884257D02978002904D053E02878002842
:1050E40050D118780299884246D3002045E02878A8
:1050F400002847D1187817E0002E20D142E0002084
:1051040028700098FEF7CEF83CE08E20FDF7F6FA02
:10511400287800282CD00020287033E01878002844
:1051240030D0297800292DD1002801D0401E0290CA
:10513400029822E0002E25D0E0B2B04222D0287896
:1051440000281FD12A4900200870E1B2B14232D3AD
:10515400044617E0200615D0002E13D02878002826
:1051640010D123480021017020060AD0661E08E0F1
:105174000020FEF797F805E0401C1870E0B2B0423A
:1051840000D334461148047000201249087028786E
:10519400002801D0022100E00121094B154A1170B9
:1051A40059884A1E91410028009A00D10A461248A3
:1051B400027003B0F0BD641CE4E7C0468E08002012
:1051C400B00800202C0E00202B0E00203E0E0020E4
:1051D4002A0E0020660E0020780E0020330E0020D8
:1051E400430E00200A0E00207D0E0020850E0020B4
:1051F400730E0020800E0020320E0020120D0020BD
:10520400F0B583B001201E4C019022560020215697
:105214002A2007F04BFE0220225603202156562056
:1052240007F044FEFB260420174FC0B2062825D8F9
:10523400029040001349085E0199890240185D21DB
:1052440007F038FB3721091ACCB2401C45B230466E
:105254003F30C0B221462A46B84730464030C0B23B
:1052640021462A46B84730464130C0B221462A4634
:10527400B8470298401CF1B24E1DD6E703B0F0BD0A
:0C5284001B0E00208E080020E50300082F
:10529000F0B581B0009105467F24E02672B2212A44
:1052A0003FDA0098002805D01F480078510100F02F
:1052B0003FF804E01D480178500108F086F8C10E5F
:1052C000401800B24711E0B27F28394600D021468D
:1052D00078B24BB2C11ACC170A1962401106490EB6
:1052E00005D0711983420ADB0120831A08E0701986
:1052F000C0B22021C91BC9B2FBF760F807E0002348
:10530000C8B2D91B2031C9B252B2FBF76BF83806CC
:1053100004D07019C0B22021FBF750F8761C3C462F
:10532000BCE701B0F0BDC046700E00206E0E00203C
:10533000F0B583B004460129029101DB002500E0AD
:1053400001252046FFF7C4FC06462046FEF7E6FF8F
:10535000474247412F400E20604322490818B100C0
:1053600040180190C019D5214900465C2046FEF73F
:10537000D5FF002811D00120800202990818C10F22
:105380004018400805B270B207F037FD01462846C4
:1053900008F091F84500002707E070B207F02DFDF6
:1053A0000146029808F087F805460198C0196B215C
:1053B0008900405C643040B2002164263246FEF72A
:1053C00091FF29B24843314607F076FA0546204658
:1053D000FEF7A4FF002801D003482D1828B203B01F
:0C53E000F0BDC046E408002000FCFFFF08
:1053EC00F0B583B002901F480478204600F03CF8DA
:1053FC0001905C20002640223146FAF7EDFF072C85
:10540C0001D8012000E002200090072C01D80524CF
:10541C001EE009241CE07D010098C5400198C0578E
:10542C0040016321C94307F041FA02998F4205D12B
:10543C003A35EAB21E30C1B2052304E03B35EAB27C
:10544C001F30C1B2032310461A46FBF75FF9761CD6
:10545C00F7B2BC42DFD85C200021FFF713FF03B08A
:08546C00F0BDC0466E0E0020E9
:105474000749072804D8052242438818F32103E08A
:10548400092242435018E321490040187047C0469E
:04549400E408002008
:10549800F0B585B006464B4D2C784B4807F07FFF9A
:1054A8000394072C01D8052200E00922474C204626
:1054B80031460192FFF702FD0096BF2E02D1444803
:1054C800002101702878421C2A2000260123314639
:1054D80007F0C7FD2878FFF7C9FF04903D48077813
:1054E8002478601F0290052E22D02546B4423B4600
:1054F80000D0002304988257F0001030C4B218205E
:10550800214607F0AEFD039808280ED3042E0CD0D0
:105518000298B0423B4600D0002304988019052128
:1055280042563020214607F09CFD761C2C46DAE7CF
:105538000198844200D000270C203821264A3B4697
:1055480007F096FA019884422AD124480078002866
:1055580033D023480099017002941D4C277803200A
:10556800C14378B204260023324607F036FC207087
:10557800029CC1B2B94220D00399072900D802265B
:1055880074421925454367B2BE4212DB3846684368
:10559800314607F08DF9F119049A5054641CF2E76A
:1055A800049D28576321C9436422FDF75DFE2855F1
:1055B80003E0022006F0F4FC029C2046FFF712FFED
:1055C80005B0F0BD6E0E0020ECDE0008550E002080
:1055D800560E0020800E0020AAD80008330E0020A6
:0455E800730E00201E
:1055EC00F0B583B00646264807F0D7FE254C0F22AF
:1055FC0020463146FFF760FC00256757384600F01F
:10560C004BF800902E2E03D0642E01D0602E0CD1BE
:10561C00002F0AD41C4807703046FDF76BF81B4866
:10562C00002101701A48FDF75FFE08210197072D34
:10563C001CD000984019C4B2381B46424641029116
:10564C00CFB200203946134A334607F00FFA092C23
:10565C0001D3162000E01120621C3946334607F0B6
:10566C00FEFC6D1C02990831019FE0E7002F04D469
:10567C00054807706420FFF7B3FE03B0F0BDC046C9
:10568C00B1D800085E0E00206E0E0020730E0020B4
:08569C0099540008B8D8000879
:1056A4000849012806DB0A78831A5BB2072B03DB5F
:1056B400801F04E0002002E0002B00D41046087094
:0856C400C0B270472D0E00205A
:1056CC00F0B583B0FDF7A0FC2F49009008702F4D6A
:1056DC006321284600F060F828462030612100F054
:1056EC005BF8FF205E302A4908187D210291C90021
:1056FC000022284B202A1BD0AC5AAE18368CA41B87
:10570C00461E3678002E00D16442067847783F0258
:10571C00BE19A41926B28E4200DB0C4626B29E425C
:10572C0000DC1C460470240A4470401D921CE1E706
:10573C000020C5B2042D1ED20190022D02D1019879
:10574C00401CF6E70098294607F073FD0646002436
:10575C00E7B2032FF3D838462946FDF76FFC0299C0
:10576C008900884205DC801B02B238462946FDF7C9
:10577C0083FC641CECE7062006F010FC0120FCF70F
:10578C00CFFD03B0F0BDC0468A0E002048070020B4
:08579C00E408002018FCFFFFE7
:1057A400F0B59DB0029002200A4614900240139274
:1057B4002020084006900126039131401291442094
:1057C400D449085C8006000ED349081811900920BA
:1057D400C043099000271BA81A90D04C1097179724
:1057E40016971596072F00D1C5E0FCB22046FDF7A9
:1057F400B3FA00B21994214605F090FB0446032F36
:10580400384604D82009C649C8551198C05DC5B2A8
:105814006B00C448C452200F201800B200090106CE
:1058240001D5404200E080B20006BF4988420CDC4A
:10583400002802D0BD48007800E0FF200121A940E3
:105844000140C8B2169901431691032F29D8129822
:10585400002818930DD1B148007B800709D5AD48C5
:10586400C6183A20305C3A36717809020818810B60
:105874003FD1179E0698002803D0AD48C018F821E0
:10588400445221B22846FFF751FD0446A948007846
:10589400199907F0D2FC189B40001A9908801796B2
:1058A400159E0698002803D0A148C018E021445250
:1058B400032F01D8002000E001201399002931466C
:1058C40000D0014600290ED1022D0CD00A2C02DC96
:1058D4000998844204DA9648C018E0210022425212
:1058E4001BA80021C1521A98801C1A907F1C8B4C53
:1058F40078E7000200B2C01207F089FC00282DD01E
:105904008D480078002829D0307871780902091868
:1059140048070B460F91000F7E49091832228A5C12
:105924003231497809028918844A105A401A81B2DE
:10593400C90B401800B24008990009B2890A4143D2
:1059440008B21F2106F0B6FF86000F98800B0228CC
:1059540007D00128189B06D1341904E0179E189B20
:1059640088E73446189B022D00D0179E022D81D162
:10597400012010907EE7607CC0071AD06D48007843
:10598400022107F05AFC0446FCF778FF002800D0F7
:10599400644260B27D30E421654A515E0122920284
:1059A400511A4143C817800D0818800A1BA9888022
:1059B4005A4C0126B00205900698002800D1EDE06B
