:1000000000180020D9C8000051BE000053BE0000F7
:1000100000000000000000000000000000000000E0
:1000200000000000000000000000000055BE0000BD
:10003000000000000000000057BE000059BE000094
:100040005DBE00005FBE000061BE000063BE000038
:100050005BBE000065BE000067BE000069BE000018
:100060006BBE00006DBE000081AE000071BE0000DE
:1000700073BE000075BE000091C5000079BE00008F
:100080007BBE000035B40000A5CC0000C1C5000057
:1000900083BE000085BE0000F9BC000089BE0000E0
:1000A0005BBE00008BBE00008DBE00005BBE00008A
:1000B0008FBE00005BBE000091BE000005C20000C4
:1000C000F0B583B002920F4601900825BB48425F0D
:1000D0000621BB4E715E891A8B0EC9188911B94B66
:1000E00019700A23C35E705FC01A840E0019801154
:1000F000B54C2070C0B2C9B2002901D092B2F280D2
:10010000B24C002801D09AB232812478B04A1378D8
:10011000002B03D1B94B1B789B0606D50020AA49BA
:100120000870A849087010700146002904D1002801
:1001300002D17088002801D00CF0F4FCA5480678A4
:10014000012000900298FF285ED0A3480078012883
:100150001FD0002841D1A2490878012802D10020EF
:10016000087034469F4B5A5700201872012A18DB3A
:10017000611CCAB2521A531E9A41B442019B01D269
:10018000002A22D01978029A91420ED2491C197085
:100190001AE000202E2F1CD09049097800291CD18C
:1001A00017E0002A03D421460FE018700CE0002C61
:1001B000019D01D0611E08E02B78002B029A00D02F
:1001C0005A1E2A70009A0A7001462E2F04D101206F
:1001D0000C468149087000E00C4683480078401CBA
:1001E000C5B2854201D00020C5430CF0BBFC0028FD
:1001F00000D10546E8B23D2804D3012076490870B5
:10020000764908707848057078480670734D2878EC
:100210000028019B17D03846603805283CD938465D
:10022000423803284CD9212F00D171E02E2F3AD02B
:10023000812F64D08E2F68D0BF2F00D0A2E0002481
:100240001C702C709EE060480078002813D019784C
:10025000091A4AB20020002A00DC0146CAB2029DF7
:10026000AA4200D32946197057490870E0B2B0423B
:1002700000D33446594D18780028CCD05148007826
:100280000028C8D0241A60B2002800DC0024E0B2A4
:10029000B042C0D33446BEE778440079400087447A
:1002A00002711D262B5B0298FF286BD028784142F3
:1002B00041412970002865D147480121017061E062
:1002C000784400794000874401293545187802991F
:1002D000884257D02978002904D053E02878002894
:1002E00050D118780299884246D3002045E02878FA
:1002F000002847D1187817E0002E20D142E00020D6
:10030000287000980BF044FC3CE08E200CF0BCFC04
:10031000287800282CD00020287033E01878002896
:1003200030D0297800292DD1002801D0401E02901C
:10033000029822E0002E25D0E0B2B04222D02878E8
:1003400000281FD12A4900200870E1B2B14232D3FF
:10035000044617E0200615D0002E13D02878002878
:1003600010D123480021017020060AD0661E08E043
:1003700000200BF00DFC05E0401C1870E0B2B0420C
:1003800000D33446114804700020124908702878C0
:10039000002801D0022100E00121094B154A11700B
:1003A00059884A1E91410028009A00D10A461248F5
:1003B000027003B0F0BD641CE4E7C046680400208E
:1003C0008A040020EF0D0020EE0D0020040E002016
:1003D000ED0D0020320E0020430E0020F60D00200F
:1003E000100E0020CC0D0020480E0020500E0020E2
:1003F0003E0E00204B0E0020F50D00208C0C00203E
:10040000FFFFFFFFFFFFFFFFFFFFFFFFFEFFFFFFFD
:10041000F0B595B0244902260E70244C07222146DF
:10042000059209F0A5FA0146214F3878401EC2B264
:1004300020461291FFF744FE1E4D2878411ECAB295
:100440000D2A0AD81C4BD340DA0706D048B28000E8
:100450001A4908580BF02AFF28780D2801D900F016
:10046000EEFE24781394400078448088400087444E
:100470000D00E6062B00FE004301E606E6065501E8
:100480005200E606E606E606F000EE020C480DF025
:10049000F3FB0E203870601CC2B20A4807210CF032
:1004A000BDFF00F0CCFEC0464F0E00201C0E002009
:1004B0003B0E0020E50D00203127000074C2000033
:1004C00070EC00003CC20000F9480DF0D5FB06209E
:1004D0003870F84807780825F74928460DF0D4FB0E
:1004E00063426341F54EB07D4209F549284609F063
:1004F00067FE4001B17D1F220A401018B075F07DE3
:100500000025012C00D0D8E240B224210CF07EFC62
:10051000F0753B46D2E2EB480DF0AEFB1020387090
:10052000E94800781190139840B20CF0C1F9139B80
:100530000D900022072A01D100F081FE0D9881184C
:10054000481CC0B214904000C9B21291994202D125
:100550000221F94C2170D94940181499102901D869
:10056000F64900E0F64945180E92D0000830109088
:100570000024032C6AD200201199A14201D0014627
:1005800001E0CC490978129A9A4200D00146CEB2D5
:10059000711E304688411499102955D87F21214079
:1005A000012921D000293CD140000F901098C6B2FB
:1005B000002738463146149A3B460DF055FB287803
:1005C0008009022800D901270F9B3046F3493A469B
:1005D00009F0F6FD3F21002800D0C843139B2A787C
:1005E0000A4002432A702FE028781099C9B2800689
:1005F0008216452033460AF013F9139B002E23D0B0
:1006000028781521C9438006801616220CF086FC36
:10061000139B3F2101402878C022024050182870C7
:1006200012E00127EA571098C1B2782033460DF046
:1006300043FB002E139B07D0E8577C21C9437D2242
:100640000CF06CFC139B6870641C92E70E9A521CB1
:1006500070E7DD480DF010FB0A203870042C0E9670
:1006600000D93AE20CF0F0FB00252C4637E2D748DF
:100670000DF002FB11203870AF4803210170AC4827
:1006800000780D90139840B20CF012F9139B04906F
:100690000F2B00D90FE35800CD4C205AC10B401846
:1006A00000B24010CB4942184E2000210DF091FBC2
:1006B000139BC9480078802800D00BE30D980028D0
:1006C00000D007E3052058437C49081857218900CA
:1006D000425C0499591A4900615A002A00D04942E3
:1006E000FF225E328154090A8018417002200BF00B
:1006F000D7FE0CF08DF8ECE2B8480DF0BDFA0520FD
:100700003870B74800240470B64E35781398002826
:1007100001D100F0C4FC234600F0CAFCB2480DF041
:10072000ABFA0C203870844803210991017080488D
:1007300000781190139840B20CF0BAF80890002499
:10074000072C01D100F07BFD5A4800781490E0009E
:100750000830C5B200274C22384629460DF020FB50
:1007600008980019C6B2082E0F9401D8312100E074
:1007700038210818C2B2052029460DF011FB09984E
:1007800070434E4909184B20C0000E9112900B5C2B
:1007900013988642149C00D03C46119E002E2046A1
:1007A00000D03846C0B200900F20109003400D20BA
:1007B00029468E4A0DF0A5F9022E204600D0384673
:1007C0000C90012E149400D03C460D9488480E9C49
:1007D00026181298205C109908400CF08FFB022814
:1007E0000A960B9016D0012820D0002100282ED187
:1007F0007756252F34DB7F4961560C9AD2B200928E
:1008000082220192253FFE223A407D31382A5DD076
:100810000B465DE07748225C0C98C3B25020294615
:1008200009F0F8FE32780D98C3B259E00020325634
:100830000D98C3B23620294609F0F2FF6D482256C2
:100840000C98C3B24D20294609F0EAFF4CE07256DD
:10085000694900912021002A07910AD40D9F0AE0DE
:10086000644822560C98C3B2632029460DF024FA3E
:1008700033E00D9F0F43FBB2D109514048B2401CF9
:1008800082B2492029460DF0B7F95A48205600286F
:1008900001D40C9902E00C99079A1143CBB2C1091B
:1008A000414048B2421C6B2029460DF005FA1BE07E
:1008B000E7F600004B0E002083EA0000BE04002093
:1008C0009AF2000030F50000040E00200A234B438A
:1008D0007AB26420294607F065F80D9F3278FBB2A2
:1008E0003620294609F096FE11981499129AA618F6
:1008F0000328084600D0002031780A09082A00D9C8
:10090000521CC3B26820294609F08AFF3B48007890
:10091000002800D198E01498000600D194E01198C6
:10092000032800D990E003A1085C40008744C0463A
:10093000040E00200A212F40320E00207B0200000E
:10094000DF0200003078109D28400E210CF05EFA86
:1009500028403178F0220A40111831700CF0CEFA9C
:100960000B99814270D00020224960540A99087086
:100970006AE00B98032867D87844007940008744E0
:10098000013F014600210A9C60565E2245E00B981B
:10099000032859D802A1085C4000874420F50000D4
:1009A0000342484D134D60577C21C9437D2248E0E6
:1009B00030780009109C21460CF028FA317821404B
:1009C0000001081830703FE036F90000F0F8000030
:1009D000E0030020DC0500003E0E00205AF8000075
:1009E000410E00203C0E00209EF400006EE8000046
:1009F0005602000057020000D2F90000F50D002059
:100A000000200A9C20561521C943162205E000202B
:100A10000A9C20563121C94363220CF07FFA2070D2
:100A200012E0FC4D60571521C943162209E0F94D2B
:100A3000605700215E2204E0F64D60573121C94322
:100A400063220CF06BFA60550F9C641C78E6F24848
:100A50000578F2480DF010F9139C0A2C00D99EE29B
:100A60000CF0F2F9224610203870052C00D9E8E38A
:100A7000002A02D1EA480921017051425141E94856
:100A8000007800910821E84E0A2732463B4608F0DC
:100A9000C9FF13980128149501D000F048FC129862
:100AA000602802D1B07A0DF051F9F05731210CF0E5
:100AB000ADF9B0722B4600F03CFC2B46C2B266206A
:100AC000102109F0A7FD307E1399022953D140B2BD
:100AD00064210CF09BF930764EE005240125CE48C8
:100AE00007780826D14930460DF0CEF82A46313233
:100AF0001E20109631460DF053F913981494844239
:100B000011973B4600D0002305206843C84A115C7A
:100B1000141801201290205600930002421847201A
:100B200010990CF0C6FB1399149D8D420E9E16D1A0
:100B3000C0483C2202703B20C143002528460CF0EF
:100B4000EDF92178627812025118081801B20029D3
:100B500000DC28462070000A60701399149D681C00
:100B600088423DD10220205613210CF04FF91399F1
:100B7000A070012235E02F46C2B2542018213B4616
:100B80000BF0B0FF139DE81E42424241B07D40078A
:100B9000C00F2021A84CA047C007400FB17DFB2209
:100BA0000A401018B075281F424242410807C00F82
:100BB0002821A047C007000FB17DF7220A40101876
:100BC000B075681F42424241C806C00F3021A0479D
:100BD000C007C00EB17DEF220A401018B0752EE399
:100BE00000220529129B00D381233C20102109F00B
:100BF00015F9032728463043002213998842119B98
:100C000000D013461092E257002B304600D03846F1
:100C10000F9700905A2018210CF068FDE070139D8A
:100C2000149F781BC01C43424341227920208349F2
:100C300009F0C6FA2071381DA842119B109A00D005
:100C40001346002B0F9800D00646774C052D02D393
:100C50003720000100E07A482518AA5600964F2058
:100C600028210CF043FD724F7A7976496254FA7864
:100C7000754BE254FA79754BE2543A7A744BE2546C
:100C8000744AA35C7F261E407B7ADB01F318A354D1
:100C900028707878A073387860736018B9794170DB
:100CA000B878E072387912990840217BFE220A4018
:100CB00010182073C3E26848007880280AD1102BEE
:100CC00008D166481921017080200BF0DDFF08F083
:100CD000BBF9139B7C200390C0430C900026324646
:100CE000072E00D14AE104983218D4B2F0000890DF
:100CF0000830102C00D142E111966100584B595A2E
:100D00000B91052110946143474B5C1857218900D2
:100D10000991675CFF210A915E31655C61180E9153
:100D20004E78C1B21292501CC2B200200F911490A2
:100D300003460CF099FF30024019002F00D14042C9
:100D40000B9943187F217E22002F0846119E00D068
:100D500010461BB20C9D4B35AB4200DB2D20002F03
:100D600000D00A46322B109F00DC02464B200F9920
:100D70000DF016F82C48817D0220084001D003991F
:100D800000E06321C9430791139B129A002801D008
:100D90007D2000E0642006900598089901430891A1
:100DA000AD20400020180B900A985C3020180A9063
:100DB000099820180990149C042C00D3DCE00D98AD
:100DC0006040394659400143149401D0002401E0A9
:100DD00011480478E5B268426841224909784E42D8
:100DE0004E41064302D100201F4908702B2000010C
:100DF0000D49085C002700283CD001210E9A51566D
:100E0000090212788A1891B2002933D082422DDD6E
:100E100007462FE0570200004B0E00207AF8000032
:100E2000320E0020040E0020BE040020CAEE000096
:100E3000C20D0020420E002025CD000082F20000ED
:100E40006F030000AB0200007B020000AD02000057
:100E5000AE020000710300003E0E0020F10D0020E4
:100E6000E0030020F50D0020410E00204742BA4269
:100E700000DB0F4638B20A210CF0FCFB7F21149AEC
:100E80001140022923D0012949D0002964D101252C
:100E90000E99485700020978421820200443E3B213
:100EA0002D200F990CF008FF002E119E109F5ED18F
:100EB0000E9C60570002217840187D21CA00022351
:100EC000F64906F037FF2070000A60704FE00A997B
:100ED0000978643149B2401801B27D2900DB7D20D8
:100EE00002B266200F992B460CF0E6FE380406D0BD
:100EF0000898C1B23220382209230BF0FBFE002EE5
:100F0000119E109F33D10A9C20781821C943643068
:100F100040B2069A0CF002F86438207027E00B9972
:100F2000097864394CB2001901B20C9A914200DC84
:100F3000104602B248200F992B460CF0BDFE002E41
:100F4000119E109F13D11922204607990BF0E6FF3E
:100F500064300B9908700AE0099C20780F992A46A2
:100F60000BF0E0FE411E88412070119E109F149CE2
:100F7000641C139B129A1FE7761CB1E63820D1B28D
:100F800010290BD110214B40C549097819434B4218
:100F90004B41C1B21220C34A0CF0DEFB4FE1149565
:100FA0001020119038700827BF4938460CF06CFEAD
:100FB00020460B3843424341BC4EB27CBC493846C4
:100FC00009F0FEF8B07400250C2C00D01495149B89
:100FD000581E1946814114203256009166201199FD
:100FE0000CF084FB307520460D3842424241707C43
:100FF0000007C00F18210CF013FEC007000F717C12
:10100000F7220A401018707420460E3842424241BE
:10101000307B8007C00F20210CF002FEC007800F3C
:10102000317BFD220A4010183073FF2040001490DD
:1010300001242F46072F00D101E1737D2340581E64
:1010400083419C48C25D28463F30C0B2282107F04A
:101050009BFC13980F281CD10620974908709748CD
:101060000078874215D128463E30C0B22721082299
:1010700009230BF03FFE12982E2801D0202808D11A
:10108000707D6040707502200BF00AFA0020FC4968
:101090000870640014980440ED1D7F1CCAE768B214
:1010A000032200210B460CF08AFE05463070012316
:1010B000681CC2B208262046314609F0ABFAEDB2F0
:1010C00028460BF067F8034600942A20EF4A314681
:1010D00014930CF016FDEE490E9630460CF0D4FD3C
:1010E0006800EC490E5E28460BF07CFE012300945C
:1010F0000193652E194600DB21467C22D24319322A
:10110000964210931E46139B00DB4E00002800D031
:101110002646701E11908641581E45424541304674
:1011200028401821DC4F0A460F91149BB8470094C1
:1011300001941199481E814111910D403021129165
:1011400028460F9A149BB847109F00970197139851
:10115000801E454245412E4028220D9230460F996F
:10116000149BCD4EB0470097019411980540284636
:1011700012990D9A149BB04700940194139FF91E85
:10118000484248411E2563232946129AB0470094DD
:101190000194391F48424841382262232946B0470A
:1011A000B94E30780BF01EFE5C250028284600D092
:1011B0003C204022214609F0EDFBB848109901700F
:1011C000284608F0CFFE30784100B24A555E192714
:1011D000394669430A0E8E18294608F0B5FA14906C
:1011E0003212722012990CF0F4FD149E7743380EDF
:1011F0003818021254200E990CF0EBFD6801FF2103
:101200004900891C4018820D8018870A38465C30D6
:10121000C0B2720151188A0D89188E0A1D21891BCE
:10122000C9B207252A4609F0B5FB5937F8B2202183
:10123000891BC9B22A460CF0AEFD9848047015B05F
:10124000F0BD08249849204615460CF01DFDA81F46
:10125000424242418B4DA87D8007C00F21460CF0D1
:10126000DFFCC007810FAA7DFD2313405918A97523
:10127000002825D1AD2040002818D5214900691843
:1012800088421DD200214256002A00D50170012259
:101290008256012A00DB4170401DEEE718FCFFFF7B
:1012A000F10D00208DF4000077ED0000BE04002059
:1012B000ABF00000D2F80000320E0020040E002037
:1012C0001398C01F43424341754FE85D8006C40F29
:1012D00010207649224608F073FFC107890EEA5DA7
:1012E00020239A435118E95501263040A04202D0EC
:1012F0000AF044FBE95D139808384242424148062F
:10130000C40F182120460CF08BFCC107490EEA5D82
:10131000BF2313405918E9553040A04201D00AF0CC
:101320002DFB0BF06BFC002869D0812268E0B07ABD
:1013300000235F49009141218900C0B24218582022
:1013400010210CF059FC18205A490CF09DFCFF208C
:101350004700012400251398082D14D05648305C0E
:101360002040411E8841009054484219062068439D
:101370004230C0B2182101230CF05FFA13986400C8
:101380003C406D1CE8E7022819D141201721382282
:1013900009230BF0AFFC13981299602901D02E2974
:1013A0000DD112980BF070FC0CF015FB42497054F3
:1013B0003C480021017002200BF072F81398C01E07
:1013C00042424241364C305DC006C00F20252946BE
:1013D0000CF026FCC007C00E315DEF220A40101849
:1013E0003055139804282FD12B2004013057642145
:1013F0000BF00CFD30552021149D0D4327E0802279
:10140000602020210CF0CCFC139C2046093842427D
:101410004241687C304028210CF002FC3040697C5D
:10142000FE220A40101868740A3C62426241C806F3
:10143000C00F30210CF0F4FBC007C00E697CEF2216
:101440000A4010186874FAE62B200001305CC2B222
:10145000782028212B460CF02FFC1398401F434284
:1014600043419F208400305D42093020144908F038
:10147000A7FE4001315D1F220A4010183055DEE6FC
:10148000F60D0020BE0400203C0E0020DBF600001C
:101490004EF1000068040020D59A0000FB0D0020EA
:1014A00071030000F60D002018EB000040F500006D
:1014B000AFF4000042ED0000AF02000074F700003E
:0414C00000F2000036
:1014C400F0B58BB0224901260E7022490978C9076C
:1014D40001D0042200E003221F4C214608F046FA02
:1014E40007461E4D2878401EC2B220463946FEF7F4
:1014F400E5FD1B4800780B2801D900F0FCFD01979D
:10150400029618490E7827780A9740007844808814
:10151400400087440B0029005B00AD00BE002A0197
:101524008101AA0186028E02AC02EF02F1480CF09E
:10153400A1FB0848007801220240D11C0A322A701B
:10154400781CC2B2EC480BF067FF00F0D4FDC04633
:101554004F0E00203F0E0020290E00203B0E0020DD
:10156400E50D00204B0E0020E4480CF083FB062020
:1015740028702E25E248425DE2480090002F06962E
:10158400344600D000247620082123460CF032FB98
:10159400002CDB4E07D070570A212D220BF0BCFC27
:1015A40070550BF0B1FC1020D7490CF06BFB3125C2
:1015B400705D0024012F00D00AE340B21521C94315
:1015C40016220BF0A9FC7055069B02E30696CF4841
:1015D4000CF050FB062028700820CD490CF052FB7B
:1015E40039465C27C64DE85DC41D4026002906D156
:1015F4000698064360B207210BF006FC0446E2B2EB
:101604006620082133460CF055FBE01FE8550A9E7E
:10161400701E434243414324285D8006420F10203C
:10162400BC4908F0CBFD4007800E295DC7220A4063
:1016340010182855B01E434243414F242A5D042A02
:1016440000D304221820B44908F0B8FD0328069FEB
:1016540000D907202855032E00D01AE34D2428571B
:10166400012164220BF058FC285540233B4313E32B
:10167400AA480CF0FFFA062028700820A8490CF0AC
:1016840001FB002F00D1E1E32F209D49085C40239A
:10169400E6E3A4480CF0EEFA06202870002F02D1ED
:1016A400A1480921017079427941A048007800914C
:1016B400934C2246513208210A2308F0B1F9781ECE
:1016C400434243414625605D4007C00F1021984ABC
:1016D4000CF0DDF9C007400F615DFB220A401018D1
:1016E4006055B81E43424341C806C00F1821914AB1
:1016F4000CF0A6FAC007C00E615D3A46EF273940E8
:1017040008186055D01E424242414C26A05DC006D6
:10171400C00F20210CF08BFAC007C00EA15D394028
:101724000818A0550A9F381F43424341605D800654
:10173400C00F2821804A0CF083FAC007800E615D37
:10174400DF220A4010186055781F43424341A05DD0
:10175400C0093021794A0CF09AF9C001A15D7F22B9
:101764000A401018A05500F0C6FC069674480CF008
:1017740081FA09202870042F00D99EE20BF062FB45
:101784000825704928460CF07DFA7A427A415D2793
:101794005B4CE05D0126304029460CF03FFA3040B6
:1017A400E15DFE22099211400818E0550A98401E96
:1017B400424242414627E55D3540102128460CF05F
:1017C4002DFA08963040E15D099A11400918E15557
:1017D400A84201D00AF0D0F80A98022801D00020CB
:1017E400069049200990205C57490F5C0420574D0E
:1017F400C6B2002E00D18FE2062141435431C8B253
:101804000321394069184A781821069B07F0BAF871
:10181400701EF9B28F08EBE74D480CF02BFA01204B
:101824002870002525704B4C019E072D00D176E1D0
:10183400E8B20AF08BFB0E21635E02B29A420146C3
:1018440000DB1946E1811C23E35E9A4200DC184662
:10185400A083042D06D309B200B24018C10F40186A
:1018640040082080A41C6D1CDFE706963A480CF063
:1018740001FA062028702D48007807900AF00EFF20
:10188400800700D56FE2082034490CF0FBF91020E2
:1018940000231B4D042B00D190E20490C1B2581CCC
:1018A4000390C2B20026304609930891334608F0EB
:1018B400AFFE099948002F183A37042E00D3ABE045
:1018C40000240A98814209D1032017490870079817
:1018D400B042234603D10223069C00E023467F2026
:1018E4003040032800D994E001A1085C40008744FB
:1018F4003744627986EC0000CCC6000082F8000010
:10190400460C0020E8F70000ECE9000093F6000024
:10191400C7EF00006EEE0000D7EC0000FEF80000F8
:101924009AE900007AF80000320E0020040E00202C
:1019340060F5000037F2000088F70000B7F60000F9
:10194400D6F7000040EE00006AF200004EF90000F5
:1019540087F600002203002072F80000F0F4000073
:10196400787882090898EB4908F028FC8001797896
:101974003F220A40101878704BE07878800685166C
:101984000D20684381B2890B4018821042200899C7
:1019940023460CF08FF9A0073BD51E20C1431F221C
:1019A40028460BF0B9FA3F2101407878C022024062
:1019B400501878702DE03D7800940720059005407C
:1019C4002B46103348200899E94A0CF098F8A007F0
:1019D4001FD5032128460BF017FA059908403978DA
:1019E400F82213E000203856C5105A2008992A46D8
:1019F400234608F013FFA0070BD50E20C1430F2286
:101A040028460BF089FAC000397807220A401018DA
:101A14003870761C099950E704980830039B0A9F94
:101A240037E7D4480CF026F91020D3490CF02AF9F2
:101A340061E3D2480CF01EF90025E9B209297AD2F3
:101A4400E800032900D90838C4B26E1C72B22A20F7
:101A54000023214608F0E2FE0F35E8B208F050FDFD
:101A64000246442021460CF0F4F83546E5E7C44824
:101A74000CF000F902982870C24800250570202057
:101A840006430696C04FEEB2082E68D2E800C4B2F0
:101A94001820412221460CF081F928463130C2B287
:101AA4001E2021460CF07AF930460AF04FFA02461D
:101AB4002A2021460BF07CFD032E04D830460BF07F
:101AC400B7F8401E02E0062E28460CD8C0B24000EB
:101AD400385E19214143080E081802125A20214683
:101AE4000CF075F904E05A202146069A0AF052FED9
:101AF4006D1CC8E7A5480CF0BDF8029828707B421D
:101B04007B414624A24D285D4006C00F0821A14A0E
:101B14000CF096F8C007400E295DBF2277E12A2415
:101B2400202E9D4D285D9D49087000D1F0E1BF2E07
:101B340000D1F9E100E2102099490CF0A3F8002447
:101B4400E0B206281DD2E1003822551A08F0D8FC6C
:101B54000246E9B220200CF07CF8641CF0E78F48C0
:101B6400029901708F480078002800D1C3E2302424
:101B7400874D28577E21C9437F220BF0CDF9285584
:101B8400B9E254201821884A0CF01CF90025EBB264
:101B9400032B00D9AFE2E8002030C4B25420214620
:101BA400824A09F00FFF6E00B01DC0B208F0A8FC15
:101BB40002466C2021460CF04CF8F01DC0B208F02F
:101BC4009FFC0246782021460CF043F86D1CDEE7AA
:101BD400234642B26020102108F020FEB81E424283
:101BE40042414C25705D4006C00F18210CF016F8D8
:101BF400C007400E715DBF220A40101870552025A1
:101C04000321E7B2022F31D23046002F01D05030E9
:101C140000E0483004780A988142089106D160B205
:101C240078210BF0F1F80446069B00E00023E6B2AD
:101C3400052272430995EDB2662029460AF050FF49
:101C4400002E04D07820732229460CF0A7F8002F28
:101C54004F4E304601D0503000E04830099D08997D
:101C640004707C1C0835481CC1B2CAE70A98401F9E
:101C7400424242414624305D0007C00F30210BF040
:101C8400CDFFC007000F315DF7220A401018305510
:101C940031E24D20285C4023C2B2662020210CF0A2
:101CA40009F8042E00D098E04E24285705210BF0A3
:101CB400ABF8285540210F4392E0092F01D30827A0
:101CC40027700A973A4803210170314C5F34082188
:101CD40005260027042F00D10DE200200090CDB28C
:101CE400FBB21E2009912946324A0BF008FFF6B2D6
:101CF4000A98801B414241412F48007800910423F7
:101D04002946224607F08CFE0999241D7F1C0831C0
:101D1400761CDFE73BF600000698002805D0099DF5
:101D2400605717210BF070F8605500252F46042DDD
:101D340071D01826304678432430C0B2EBB220214B
:101D44001A4A09F03FFE5E20205CE840C00707D035
:101D54006E432436F0B22021122200230AF0FCF94B
:101D64007F1C6D1CE3E71820EF490BF08BFFC2E1E9
:101D74004BE700006AF800000FEE000087F900004E
:101D8400BAF90000410E002068040020CDF70000DD
:101D9400460C00209AF8000022030020ED0D0020DC
:101DA4002EF10000F60D0020A2F8000038EA000031
:101DB400320E0020ABF30000040E0020042F00D0EC
:101DC400D2E04A2428570921C94328220BF0A4F859
:101DD40028552021069B0B43C9E04E20285C402750
:101DE400D9490091C2B2662028213B460BF002FF7C
:101DF400701F434243414624285D8007C00F3021B1
:101E0400D24A0BF044FEC007800F295DFD220A4030
:101E1400101828556FE10A98032800D0EBE0B84861
:101E24000078C00709D05E2560570F210AF0ECFF47
:101E34006055C4480078400605D423201F215C2245
:101E440009230AF055FF4420205CECE02F24AF4D19
:101E540028571E2178220BF05FF82855402333437E
:101E6400C2B2662008210AF081FC4525A74C605DBA
:101E7400012F08D140B20921C9436E220BF04CF85E
:101E84006055334600E0002342B20A32702010212C
:101E94000BF010FFB81E424242414325605D01270A
:101EA40038401821A54EB04733463840615DFE22C4
:101EB4000A40101860550A9EF01E424242418807AB
:101EC400C00F20211F469847C007800F615DFD2287
:101ED4000A4010186055301F424242414807C00F63
:101EE4002821B847C007400F615DFB220A40101843
:101EF4006055701F43424341C8093021904A0BF09A
:101F04009FFEC001615D7F220A4010186055F2E017
:101F1400401C7C490855C1B203290DD117200AF091
:101F24007DFF01200AF0BAFA7648002101551820F5
:101F34007C490BF0A7FEDCE0C0B20028F7D00228F1
:101F440000D190E0012800D0D3E00024724E734FFA
:101F5400072C00D1BAE0AE83EF81E0B209F0F6FFBE
:101F64002880AD1C641CF3E74A20285C20236F49B9
:101F7400009140B20A3082B24E20302421460BF048
:101F840039FE32356A4E902C10D0287869780902CF
:101F940008183188081A400002B2E0B23821202320
:101FA4000BF088FEAD1CB61C1834ECE7052F52D19B
:101FB40001986028029C4FD15D4908883222534C15
:101FC400A0545C4A002313703234CA88A2718B88EF
:101FD40023714988A170120AE2711A0A6271090A0E
:101FE400E170000A6070012420460AF057FA1720B5
:101FF4000AF014FF30E044250428605D13D14D49F4
:102004000978002979D040B203210AF0FDFE615D10
:10201400C2B202238A4207D060554C21625C7F25FC
:102024001540655400E000233130C2B2122028214B
:1020340006F0A8FC0024E0B203285CD81825654308
:1020440024350AF0F5FD0246E8B22821002308F001
:10205400DFFA641CEFE7002400203821364A2346C7
:102064000BF078FB47E02848002101700D20C043A5
:10207400264D00282DD023490A18135F1C26965F8D
:10208400F71AF9177F184F40332F1DD399B2B3B203
:10209400D689891B0AB2920E8A1812B29209891A39
:1020A4002A182B27D155D673370A1774F31A1EB280
:1020B400B60E9E1936B2B6099B1B5377090A16460B
:1020C4002B367170190A9177801CD2E710201449BD
:1020D40008E00AF091FC2B2168542B35000A687043
:1020E40010200B490BF0CEFD12201821094A0BF0E9
:1020F40069FE08F0ABF80BB0F0BD089B94E7C0464E
:102104003F0E002022030020410E0020460C002038
:10211400BDF3000005F4000068C50000983A000013
:10212400F5F5000016F400000CF9000029F7000092
:1021340048040020F60D0020B6F9000033DC00004E
:1021440003F60000060E002027F400007BF60000D2
:10215400F0B59DB0029002200A46149002401392FA
:10216400202008400690012603913140129144201A
:10217400D449085C8006000ED34908181190092040
:10218400C043099000271BA81A90D04C10971797AA
:1021940016971596072F00D1C5E0FCB2204609F02A
:1021A400D5FE00B21994214608F078FB0446032FAB
:1021B400384604D82009C649C8551198C05DC5B22F
:1021C4006B00C448C452200F201800B20009010655
:1021D40001D5404200E080B20006BF4988420CDCD1
:1021E400002802D0BD48007800E0FF200121A9406A
:1021F4000140C8B2169901431691032F29D81298A9
:10220400002818930DD1B148007B800709D5AD484B
:10221400C6183A20305C3A36717809020818810BE6
:102224003FD1179E0698002803D0AD48C018F82166
:10223400445221B2284607F085FA0446A94800789A
:1022440019990BF03FFD189B40001A9908801796C6
:10225400159E0698002803D0A148C018E0214452D6
:10226400032F01D8002000E00120139900293146F2
:1022740000D0014600290ED1022D0CD00A2C02DC1C
:102284000998844204DA9648C018E0210022425298
:102294001BA80021C1521A98801C1A907F1C8B4CD9
:1022A40078E7000200B2C0120BF068FD00282DD0C0
:1022B4008D480078002829D03078717809020918EF
:1022C40048070B460F91000F7E49091832228A5C99
:1022D4003231497809028918844A105A401A81B265
:1022E400C90B401800B24008990009B2890A414359
:1022F40008B21F210BF0BCF986000F98800B02284E
:1023040007D00128189B06D1341904E0179E189BA6
:1023140088E73446189B022D00D0179E022D81D1E8
:10232400012010907EE7607CC0071AD06D480078C9
:1023340002210BF0C7FC04460AF05EFC002800D022
:10234400644260B27D30E421654A515E012292020A
:10235400511A4143C817800D0818800A1BA98880A8
:102364005A4C0126B00205900698002800D1EDE0F1
:10237400647D1698044059480078FF2141400C427E
:1023840002D018200AF04AFDF0205549059A0A5255
:10239400EE200A52514804704C48007E002830D088
:1023A400E2244F4A115F4943E627D25F524355184E
:1023B40040B20BF0F6FB03464043854221D91A97FD
:1023C400F00301468AB25243AA42024600D80022D0
:1023D4004A400004400C114601430028F2D1404F0A
:1023E400385F584395B229461F460BF041F93C49E2
:1023F40008531A9C085F784329460BF039F9384989
:102404000853324CA37D202B00D29FE00020139967
:102414000029024601460AD1E621314D695A1BAC16
:10242400E2885218E221695A64886118274CE47DD5
:10243400002C0CD0601EC4B26000142C03D32C4CAE
:102444000019283802E0264C2018E0300088DC0609
:1024540000D540421C0700D552425C0700D54942D2
:102464005B09022B06D0032B29D0042B42D1831AFB
:10247400841862E00BB2DB0B9BB25C0B0C1924B228
:10248400E4086442A4B28DB264195D0A4D192DB2F8
:10249400ED096D42ADB264199B09C91809B2890AE4
:1024A400494289B2611893B2DB0BD3181BB25B08A3
:1024B4009BB284B2E418631A641811463DE04418D0
:1024C40039E0C046460C0020C0F40000BE040020E1
:1024D400DD0D002068040020FFFFFF010C0E00202A
:1024E40008FCFF1F550E0020FA0D002048040020B0
:1024F4000004002013B2DB0B9BB25C0B141924B252
:10250400E4086442A4B295B264195D0A55192DB267
:10251400ED096D42ADB264199B09D21812B2920A48
:10252400524292B2A2188BB2DB0BCB181BB25B08DF
:102534009BB284B2E418A31AA418F622FB4DAB5242
:10254400F422AC52401AF2216852F94CF949F6319E
:10255400179800B2002500918842304600DB2846D7
:10256400109909061599019100D001904020039912
:10257400014003911A34B0040D90032013904004D9
:102584000C90F0041090B0050790192008904005B5
:10259400E9492E460490102D00D1A0E300201190AB
:1025A40016952078401EA8421A9600D0ABE21498E3
:1025B40020560BF0D0FB1890F1B2DC481791451867
:1025C400C020285C1990C035139820560026159F0A
:1025D4003946324604F00AFFE17800290ED0012181
:1025E4004840D6490978002900D0074662780D3A58
:1025F400082A00D30746002F02D009E0002807D09C
:10260400617A1F200840CE4A1278D040C00728D0F3
:1026140060782E700146083902290FD26179A279B7
:1026240012025118E279120489180C9A11400D9A79
:10263400914212D1169DC0491A9EEBE12D28169D98
:102644001A9E08D117988000B8490818F849119AB9
:10265400514309120164B849DCE1092821D0374605
:1026640021E0199E70424641631C6278501EC0B23C
:102674000B280E93199619D84100AC4A5118E02240
:102684008F5A012603284ED86079A27912021018B5
:10269400E27912048018079A104244D0F8200F5AA5
:1026A40041E0A44FE237601C0E903CE0132811D89F
:1026B4000D3AD0B241000328DE48405A08D8DE4A19
:1026C400511832228A5C3231497809028918401A39
:1026D400470027E023280DD86179A2791202511806
:1026E400E279120489181438079A4000114217D06D
:1026F400D24916E0242809D149B2C8B2400900D110
:10270400DCE1002900D5E2E10E21E1E12B2800D92A
:10271400CDE1400086494018C9494056C70001E050
:10272400C8490F5A01262E706079A1790902081848
:10273400E17909044218631D10980242129315D1DD
:10274400207A00281A9E12D040B27C21C9437D22EF
:1027540009F0CAFC0BF025FA129BC71918785978AE
:102764000902081899780904421800E01A9E100416
:1027740000D1C5E06E48407C00070F9201D51420BB
:1027840000E064200A90179A550068490B954E5B47
:1027940090000A18156C280A381A01B20A2902DCBA
:1027A4000998814206DA002E05D100260F9800060A
:1027B40004D100E000261998002824D00F980C9921
:1027C40008400D99884213D1207840009D49401853
:1027D4000121C943405E08998D0245431899002997
:1027E40006D0284615460AF043FF2A46129B0546A2
:1027F400280A381A010409D000B20028199009D413
:102804000F98000907E019910B9909E0002019902D
:102814000B9905E00F980B990F2606400A9846433A
:1028240042484018403231B201290BDB864909780D
:10283400002900D0761E310402D006802F0A2BE036
:10284400099E093619990680002925D0179518780C
:102854005978090208189978090445182804000EC3
:1028640018D07948007800281A9E17D00F9218992A
:102874000029049A104607D0C81109184140C9B26A
:1028840010460AF0EDFF129B0B901998002807DC04
:102894000C2106E038B205021A9E29E0179D19E0C2
:1028A40008210F9ACD400F20284007D002461999DD
:1028B400002906DC0B984042179D04E038B205025B
:1028C40008E0179D0B980A9951430AF0D1FE451967
:1028D400129B0F9A38B22912199F012F01DB8142F2
:1028E40004DC199F002F02D5814200DA05022F0A69
:1028F400156018785978090208189978090442185B
:1029040004202156100200121CD41A20C043814214
:1029140002DB1C2900DA80E07F20C043414038B24A
:102924000AF0C4FE129B0746169D2AE008FCFF1F0E
:10293400BE0400201EFBFFFFB4FDFF1FFA0D0020A4
:10294400550E002008460BF006FA01280BDB3AB2BC
:10295400002A08D56421081A424310460AF088FE6A
:102964000746169D0CE00028169D09D539B20129A9
:1029740006DBB9B26430484364210AF079FE0746A5
:10298400129B187859780902081899780904401894
:10299400C1030AD40E9909784A1E032A05D84900AE
:1029A4001BAA8918891E0988CF1939B2189F4F4369
:1029B4001099084216D0217A002913D048B27C21FC
:1029C400C9437D221D4609F08FFB0BF0EAF8642110
:1029D4004143CF192878697809020818A978169D07
:1029E40009044018C5494003800F02280DD001286E
:1029F4000DD1642138460AF03BFEC049119A424386
:102A0400D017800D1018801203E0119702E011987E
:102A140038181190761C0A34C3E506291BD8169D74
:102A24007944097949008F44111224282D343A003D
:102A34008F02000048040020460C0020E003002020
:102A44006D0200000004002045FEFF1F99E738B224
:102A5400002896DC1BE00029169D00D57F42002942
:102A640001D50620411A38B2C91FC9B20AF061FC67
:102A740085E738B2C013074083E738B2C0133F1864
:102A840047407EE738B20028059F00DD79E700273C
:102A940077E79848E23039B2CF13074071E738B28C
:102AA4000028059F00DD6CE7924FE23769E72C2888
:102AB40018D1642111980AF0DBFD19E0122007F007
:102AC4001FFD0126002815D08A4FE2372BE611217D
:102AD400081807F015FD0028059F00D022E6854F51
:102AE400E2371FE62E3AD0B200210A4606F016FB62
:102AF400074617E6132007F003FD002801D1059FC0
:102B040011E600270FE600227B481792027008782E
:102B140000281ED00F466426119831460AF0A8FDFD
:102B240001467248007840003818C0884843A9001C
:102B34007918069A002A01D10A6980180861039954
:102B4400002900D1C7E06D4989880AF091FD464308
:102B540000E0119E642130460AF08AFD6A0064494F
:102B640018928852052068435F4D2918AD20400013
:102B7400199111900B18D97804200E901A5612024C
:102B840052182B210901695C4D42AA4200DB15460B
:102B94008A4200DC294601200F901B560A256B430C
:102BA400059FFB185B18183B18B2E237B84200DBEC
:102BB4003B4618B21290824200DC13461998119ACF
:102BC400805645434B4A50194518FA3528B290426D
:102BD400179F00DC474D18B229B21191884200DBDF
:102BE4001D46002E0CD0002E02D41298401B01E08A
:102BF4001198281A00B2704341490AF039FD07467A
:102C040028B2404DA847C61937B21298A8470546BE
:102C1400874200DC35462FB211983A498847064668
:102C2400874200DB2E46572080001999085C002853
:102C340000D07642169B9F2080002B4A105C1F21F7
:102C440001401020401AC0B283423CD21898151893
:102C54002D4AA85C8000010635D0AF1840B2801020
:102C64000BF08CF839788A090146032A24D300280A
:102C740017D11C4A0E9BD25E1B4B244FDB5D9B0677
:102C840004D4009B9A4207DB159A08E0D313D218A8
:102C94005A4012B2142AF7DA019A0F9B5A40002ABA
:102CA40003D1012250401A4A1070194800780028B4
:102CB40000D10F9910480170002904D015482856F6
:102CC4000AF06FFF06460BF099F8029818994652DD
:102CD4000BF092F8169D6D1C08491A9E5BE41DB01A
:102CE400F0BDC04668040020BE040020550E00203C
:102CF400000400201EFBFFFF3D0E0020B4FDFF1F5B
:102D0400A086010099DC00007D0200007103000030
:082D1400170E00207E020000F2
:102D1C00F0B585B0F24800250570F248078808F038
:102D2C000DFAF1480168F14A12680260501AF04C31
:102D3C002070F04E3078002803D1EF48002105F0C8
:102D4C00B7F82078002800D1ADE2FB4801780029C3
:102D5C0001D0491E01700AF059FEF8498A88904248
:102D6C002DD14520F64A105C0A3002062CD0F54ACB
:102D7C001278322A28D30A78521C0A70D2B2102A3E
:102D8C0022D300220A704A88521C4A80FF217831D3
:102D9C00C0B2484380B291B2884215D21F20024083
:102DAC00012A11D1E8480178FD220A400270062060
:102DBC0009F0F4FF10202D2109F00CFF04E04D80E8
:102DCC008880E2480121017002F020FD09F0F4FE38
:102DDC00DF480178002901D0491E0170284605F012
:102DEC00DBF909F0E5FFDB48047805703078002842
:102DFC00039501D00294EEE101970F202040801F33
:102E0C00D5498F7C042F03D0032F02D1042700E077
:102E1C0008277C21C9430491C0B2072804D8F021AB
:102E2C002140202900D088E04020204340281CD19C
:102E3C0027460020C543C94C2078411CC8B28842A3
:102E4C002E4600D1064609F087FE002800D1064622
:102E5C00F0B2C82800D035462570C82802D0039D92
:102E6C003C4602E04220C443039D0C20BC490A5E50
:102E7C00BC48415F891ACB0EC9184909090493B2A1
:102E8C00294606D003800421415E891ACA0F89188D
:102E9C0049108380B44A1278002A00D02946462271
:102EAC00A74EB25C920600D529464180AF4F787987
:102EBC007978091ACAB2D2098918FE220A40101868
:102ECC00787148B2401038722043C0B208F022FA30
:102EDC00A74800788000A74909585C20305CC01DC9
:102EEC00A54A914200D0A9E0A44909780029049B85
:102EFC0000D0A4E0397A00290CD000223A720622C4
:102F0C00BA5649B25118994200DC19467D2900DBAA
:102F1C007D21B9719F2189008F4A525C510900D1E2
:102F2C008DE050B200287DD448008D494018C088EF
:102F3C0001218A028018C9027BE04421804E715C19
:102F4C0089008F4A51184008085C5D21715CC907E3
:102F5C0001D00321081AC5B28A48007829460AF024
:102F6C0002FB009029460AF0A9FE002F08D1C113DC
:102F7C0042184A4011B2890F511889B289084F1C66
:102F8C00022D10D14621715C7F4A734B9A5C9209D9
:102F9C004A40D2075B7C0121194000D00227002A4D
:102FAC0002D07F4200E000212E46E2077AB2029462
:102FBC0000D15242121893B25C1EA34114464440F5
:102FCC0024B2049D7C35AC4201DC002400E00124D9
:102FDC0023400B430FD100280DD000270098314619
:102FEC003A4608F047F8029809F048FE162009F016
:102FFC0011FF3C461CE717B238467C3080B2F828EB
:10300C007CD8009831463A4608F034F878B2C011B2
:10301C0039184140C8B281083C31152009F022FF13
:10302C00002405E748004C494018FD4940567D30C6
:10303C00FA2182B2072050430AF00EFC049B029442
:10304C00F8490978C0B2884202D009F0A7FE049B67
:10305C004C203056FB4C002825D52078002822D057
:10306C00F94800780028F44A00D191E00024F74D8B
:10307C002857002801D4401C2870022008F078F949
:10308C007F260146314013D02A788A4224D92C70ED
:10309C0002990906E84A049BEA4C79D140B200280F
:1030AC0048DA632073E0E84800210170E24A6FE0DF
:1030BC00032008F05DF906400ED02978B142DE4AB3
:1030CC00049B0BD92C7002990906DE4C60D140B2DE
:1030DC0000285BDA64205AE0D74A049BD94C57E0AD
:1030EC00560E0020A204002040FFFF1F3CFFFF1FD4
:1030FC0045FEFF1F570E0020E0030020002F049A0E
:10310C0000DD7D220098314607F0B4FF38467D3053
:10311C0080B20024FA2800D98AE678B2C011391896
:10312C004140C8B280083C21081AC1B2152009F0F0
:10313C0099FE7DE662202AE0F10D00209C0400201F
:10314C00460C0020030E00203F0E0020EA0D00204C
:10315C00FA0D0020F40D0020BE040020350E0020D6
:10316C00680400208A040020ED0D0020CC0D002006
:10317C00050E0020E0FEFF1FAD340000E10D002025
:10318C00C0F40000550E0020710300006520029071
:10319C0001202070BF790020B64CC5B2062D18D87E
:1031AC00680016185720C000305C00280FD0052886
:1031BC00394604D007F0D6FC049B9F4A014648B21E
:1031CC00984200DC18467D2800DB7D203055681CB9
:1031DC00E3E7019F039D9E4C206800280DD000253D
:1031EC00294608F03BF80AF0A4FD9A490A78012A0E
:1031FC001CD100281ED125601CE09648057096480D
:10320C000478002C04D00570172009F003FE0294FA
:10321C009248029A027092481421017087480078F3
:10322C00800087490958D0B2884703E0002801D0B4
:10323C000120087007F04CF88A4800781F210140E3
:10324C0002292DD188480578103505700E20874944
:10325C00085E410F411809B2C9083022744CA256BD
:10326C004A430001101880B2A52149000AF0F4FA73
:10327C0070490A781018401C4008087029060FD1B4
:10328C002F21615CC0B281420AD911202E2109F094
:10329C00A1FC4620205C000702D575483221018034
:1032AC0062480399017074480178032901D1002107
:1032BC0001705D480088C01B82B270490B889A422D
:1032CC0000D908806E49C878002800D19AE06D4872
:1032DC000188491C01800020704CC7B20B2F00D90B
:1032EC008BE003231846784353490D184B20C0003C
:1032FC0029180391654969180291295C0F22084627
:10330C0004921040624A1018401E00780328019362
:10331C0007D178005F4A125E002A04D00CD4561EE6
:10332C001EE0049A31E00022029B9E56002E17DB11
:10333C00F2430A26564313E092B2561CB2B2B24282
:10334C000ED003227A433C4B9A18534BD256002A88
:10335C0005D4521C52B20A2353435E1E00E0D643DE
:10336C004C4A131808090ED00828009300D9401CA9
:10337C000AF000FD002801D1434E7C3603980178F9
:10338C00049A009B00E0049A1E8011400C29E45D15
:10339C0008D10026029880570AF0ECFC002803D0D4
:1033AC0001260CE026460BE003207843224908183E
:1033BC00394940560AF0DEFC002800D12646049A12
:1033CC000398007810400D28344C13D1002002993A
:1033DC0008560AF0CFFC00280AD0B0070AD42E48B1
:1033EC0028560AF0C7FC0028019E03D1022601E0F2
:1033FC00FD200640E655781C6FE709F05DFB0020C8
:10340C001F49C8704878002807D0002048700E4823
:10341C000178002901D0491E017005B0F0BDC046ED
:10342C00B5020000540E0020A2040020EA0D00207A
:10343C00460C0020030E0020BE040020050E0020C8
:10344C00E0FEFF1F410E0020400E0020120E002057
:10345C0060FFFF1F130E00204C0E00203E0E0020BC
:10346C00420E0020060E0020140E0020380400200E
:10347C00A6040020B7020000020E0020A4040020C5
:10348C00A00F0020B004002083FF000056020000B3
:10349C006FF500002004002057020000B60D00203C
:1034AC00F0B587B0F24900230B70F24CE17C70222E
:1034BC000F46059217400F220D4606921540EE4A14
:1034CC001278002A04933AD003971420EB4F385605
:1034DC000AF050FC0446EA4E002804D0307800284C
:1034EC0001D105F0ABFD3470E8B2042811D11120E4
:1034FC0000900025E14C0A232846294622460AF072
:10350C0096F9DC480078EE490978814243D3284685
:10351C0042E00390D7480478E94805780A26782ECB
:10352C0008D03A78F0B20021042305F027FA7F1C6A
:10353C000B36F4E7A54200D2A9E08422A8E00246AB
:10354C00803A0E2A00D88FE10246203A0E2A00D982
:10355C0013E252007A449288520097440F000E00F6
:10356C00CB02CF02D302E4020E000E000E000E00BE
:10357C000E000E000E000E000F00A5E7042DA3D1C7
:10358C000024BD4A54700121117009F077FBCD481D
:10359C000470042598E70120039E4200542029461C
:1035AC0009F0F4F86F2029462A462B4609F04AFB0D
:1035BC00382008F099F8302E00D195E1202E00D15A
:1035CC0095E1102E00D0A1E11825284608F00AF844
:1035DC000826BD4930460AF051FBBC48205C401E11
:1035EC00C0B207F085FA15214901625C611801230C
:1035FC00C95609028918B64AA75CA218D2561202FB
:10360C00D2199042134600DC034618B28842084691
:10361C0000DB184600B2431A64205843511A0AF0D2
:10362C0023F80746C0B20090192009215022062326
:10363C00069309F050FF3AB2792031460AF0C3FBE9
:10364C00F7480078252231460AF0A4FB2826F749D2
:10365C0030460AF013FBF648425F0527C424009459
:10366C000197122020252946069B07F0C9F9402016
:10367C00F54A31460AF0A2FB1C20ED490A5E009483
:10368C00019752200723294607F0BAF9A1E18622B7
:10369C0025201025294609F079F8262018265622CF
:1036AC0031460AF077FB5D200027042329463A4671
:1036BC0009F0C8FA332031463A463B4606F0A8FBDF
:1036CC0008F022FE00280CD00246262510212846A0
:1036DC0009F07CF925200F2109232A4609F004FB67
:1036EC0077E06648837C0020009026201021D74A82
:1036FC000AF001FA6DE0304609F096FA0546D44816
:10370C00007831460AF0DAFAC1138A0F821812B225
:10371C009410002801DC204600E00120220600D194
:10372C00441861B21B20C043814200DC044660B2E5
:10373C001C2800DB1C247F203840C6494919491E2F
:10374C000D7801280BD0022821D1042136222846DD
:10375C0007F01AF94948407CC00705D014E0042151
:10376C003622284607F010F9681EC0B21E260697AE
:10377C00032731463A4607F007F9681CC0B23146B8
:10378C003A46069F07F000F91F20011B18E0284657
:10379C001B38C0B23B2105913622AF4B9847681EAF
:1037AC000697C7B23A21032638463246AA4B9847A9
:1037BC003C213846069F3246A74B98470599651918
:1037CC00E81EC0B2C91EC9B20722134609F0A8FEF2
:1037DC007F1CFEB2032E8ED9039E012E38D80024F6
:1037EC00F74D082C00D1F4E02A88012E05D0002ECC
:1037FC002BD1042C05D3302104E0042C1CD35E20E7
:10380C001BE0282110B2C00B80B2C30AD3181BB224
:10381C005B09D31A400A101800B2C009181802B27A
:10382C000320204036234343123358081830C0B2CB
:10383C0020230AF03BFA08E0222003232340052131
:10384C005943263112B206F0CFFDAD1C641CC8E7FB
:10385C00022E7ED106F0F6FCD048057806246C4387
:10386C00002D7DD128467CE0910006A251588F4650
:10387C00410E0020750C0020E10D0020BE0400203C
:10388C00150E0020E3380000AB3A0000B73A0000F8
:10389C00CB3A0000D93A0000ED3A0000E1380000C4
:1038AC00E1380000E1380000E1380000E1380000A8
:1038BC00E1380000E1380000E1380000E338000096
:1038CC00030E00203E0E00208CF900009F02000029
:1038DC00A2020000F8E50024AE4A547002211170D7
:1038EC0009F0CCF9B3485AE01020B64905E0B948C4
:1038FC00007800286DD01020B749B34CA047182091
:10390C00B249A0472020B249A04762E03F200821DD
:10391C00302207F039F80520C543002D59D0601925
:10392C00AF49405C002812D0AF1D461EF0B207F024
:10393C00DFF803460420009006980190F9000598E2
:10394C0001401031F807400E72B204F025F86D1CDE
:10395C00E3E73C2028210122042309F073F938E025
:10396C00E01CC1B20A2008F061FF002D19D0A01D87
:10397C00C1B2642008F05AFF2BE0612800D1E4E0CA
:10398C00BF2800D0A0E50124834E2046B047032079
:10399C00B0470220B0478148002101708048047074
:1039AC0092E564242826844A204631460AF006FA19
:1039BC00722507222846314609F037FE30267F4A09
:1039CC00204631460AF0FAF904222846314609F01D
:1039DC002CFE704C207800285FD0012807D181483C
:1039EC0003210E2204F028FF0522049B06E07E48EA
:1039FC001F210E2204F020FF049B1A467B498B707A
:103A0C0001284AD1A0788018C0B2062845D8C046F3
:103A1C007844007940008744050D212C30343A005D
:103A2C00490E0020624808F03BFC36E0C2F9000069
:103A3C0008FDFF1F7248002101705B4801210170D5
:103A4C00704808F02DFC28E0BEF900005AF4000084
:103A5C00550E0020AAF9000097DD000001208870A7
:103A6C0065480078800065494018406808F018FCEB
:103A7C0013E04E4808F014FC0FE04A4808F010FC24
:103A8C000BE090205549085A40425A4904E08C20DA
:103A9C005249085A40425649088007B0F0BD09F017
:103AAC00C3F90AF081F9172063E004200743E77497
:103ABC00172009F0AFF9822009F0E0F8EDE739485A
:103ACC0008F0EEFB832009F0D9F8E6E7364801212F
:103ADC000170374808F0E4FB842009F0CFF8F3E4D8
:103AEC00314801210170314808F0DAFB852009F0DA
:103AFC00C5F8E9E4002D2BD06D1E2AE0032D30D83B
:103B0C006D1C2FE006980140042938D0022900D002
:103B1C00DAE422480178491C4AB2022A00DD00216D
:103B2C0001700225D0E406980140042924D0022912
:103B3C0000D0C9E419480178491E4AB20225002A6E
:103B4C002A4600D40A460270BEE4042D1DD0BBE404
:103B5C00042528463843E074A12008F09BFC14206F
:103B6C0007E0002528463843E074A12008F092FCB9
:103B7C00132009F04FF9A7E43846303001E03846FD
:103B8C00103030210140081DE074172009F042F973
:103B9C00042599E4E10D002089CC0000330E0020AF
:103BAC00150E0020C9950000ED0D0020C514000075
:103BBC00D95400003E0E0020EAF90000E7F900009D
:103BCC00E003002038F4000089DC000072F30000F0
:103BDC0034F70000A50F002049F4000008FDFF1F7A
:103BEC00B702000036F3000063EC0000E50D002086
:103BFC00B8040020BC040020050E0020E0FEFF1FCE
:083C0C00430E0020110400002A
:103C1400F0B58FB004463148007809F085F90546BF
:103C24002F4F0E22384607942146FCF747FA2D48B9
:103C34000AF020F82A78801DC0B2002421462346C9
:103C44000AF010F83F57384608F030FE0690264830
:103C5400027808202549029009F03EFE2B46F8B26E
:103C64000890E0430390691D0D950591E0B2072883
:103C740000D31DE206982018C0B2089981420C9422
:103C840001D0002601E01A490E780E2800D90CE272
:103C94000C99CD002C460834810001A251588F465E
:103CA400F93C0000193D00002D3D0000413D00009D
:103CB4005B3D0000753D0000973D0000CF3D0000D6
:103CC4002D3E00004B3E0000DF3E00000F3F000091
:103CD4002F3F00004F3F0000713F0000380E0020CE
:103CE400270E0020A6F70000F00D0020F1E70000E9
:103CF4004B0E00205D78E1B21C46F3B254202246FC
:103D040007F0A0FC252D00D043E1607A4509253554
:103D1400234642E102201A56E1B2F3B2602009F0D0
:103D240035FF0D9B9870C0E102981A56E1B2F3B2C8
:103D3400602009F02BFF0D9B1872B6E1059DA87851
:103D4400E1B2F2B20007C00F09F068FF0D9BC00793
:103D5400000BF721D1E0059DA8784006C00F5978E3
:103D6400042900D929E1E1B2F2B209F060FF29E1A6
:103D7400059DA97801200840E1B2F2B209F057FF8D
:103D84000D9B7F214904AA7812040A40C007C00B86
:103D9400B7E0059A10785178090208189178090457
:103DA4004018C50D000200120399884200DC1CE192
:103DB400042018561A21C943884203DB1B28C54A2C
:103DC40000DA13E10225C44A10E1059A107851780B
:103DD40009020818022151560904401804250399C0
:103DE40088425F5700DC1FE11A20C043874202DB90
:103DF4001C2F00DA26E17F20C04347404020304397
:103E0400C3B2E1B266203A4609F054FF300606D048
:103E14006320C1436422384609F07EF807460D9BAF
:103E240080207840187140E1F3B2581E1946814150
:103E340003200D9A12560091E1B24E2009F054FC71
:103E44000D9BD87031E130060A9002D004209B49C2
:103E54000870072009900543049500260121F7B254
:103E6400042F00D921E1587A0E9108401F210B91AB
:103E7400084043424341099D754328463F30C0B240
:103E8400E1B232463032D2B204F07CFD0A98002806
:103E94001DD08B480078B84219D10498C1B23E3580
:103EA400E8B20822092308F023FF07982E2801D03E
:103EB40020280CD10E980B9A02400D99487A504054
:103EC4004872022008F0EAFA00207E490870761C45
:103ED4000E980006C10D0D9BC1E70899081A4342CC
:103EE4004341059DA978E0B249078A0F724906F05B
:103EF40065F90D9B8007400BF9210904AA78120487
:103F04000A408018000CA870CFE0059F3A780F256E
:103F14002A40E0B2F1B207F0FBFF0D9B284039784C
:103F2400F0220A4010183870BFE0059D2A78E0B2EC
:103F3400F1B21206120F07F0EBFF0D9B0001297876
:103F44000F220A4010182870AFE0059D6A78E0B28D
:103F5400F1B21206120F07F0DBFF0D9B0003697824
:103F64000907090D4018000A68709EE0059F7A78D9
:103F74000F252A40E0B2F1B207F0CAFF0D9B2903D6
:103F84007A7812020A400007000D8018000A78703F
:103F94008BE0252D00D9AD1D0D9B300600D184E0AA
:103FA40068B20121372208F0B7FF0D9BC1B2252961
:103FB4007AD32C2970D3801F76E0E1B2F3B2474A5A
:103FC40009F065FD29786A7812025118AA7812045A
:103FD4008918384A114029700A0A6A70C007400AD1
:103FE4000843000CA8700D9B5FE0394AE1B2F4B2BB
:103FF4000620234609F0AEFB002C0D9B55D0022170
:10400400284608F001FF0D9B85424ED0811E4A428E
:104014004A41D1011971C005059A91784906490AA6
:104024000818000C907040E06420F1B200900191F7
:10403400E1B26320C34348203A4606F093F90D9B4E
:10404400187132E0E1B2F4B20C203A46234608F08B
:104054002FF80D9B002C28D058570F21C943162246
:1040640008F05AFF0D9B1871079960291DD1072884
:1040740007DBC01F14490870144808F015F90D9B9C
:10408400187941B2002910D5C0430F4908700F4870
:1040940008F00AF90D9B08E0597A1F220A404001F2
:1040A400801860305872252058700C9C641CDDE523
:1040B4000FB0F0BDFFFFBF00E4F10000320E00209E
:1040C400040E0020F60D00203A0E00205D8400004E
:1040D40060F9000048F9000066F900009CF5000052
:1040E400F0B58BB00546E14809F0C4FDE04C2078FA
:1040F40000281BD0DF4A117A002010724AB2012A2C
:1041040001DB622200E06322002900D01546DA496F
:104114000978002901D1632D05D0D84A125691425D
:1041240002D1622D00D10546D5480570D5480078E6
:10413400002805D1D1480278CF482946FBF7BEFFB5
:10414400CF4E3078CC4909780691012103912E286D
:1041540003D0BF280AD060280AD1C5490A78002AAA
:1041640040D0F948002202700A70F84C00202070F8
:104174000295069840B208F099FB0146F848007889
:10418400002801D000203070F14800780028079101
:1041940040D0F2480778622F01D0632F3AD13E46CF
:1041A400623E701E34468441EF480578284608F084
:1041B400BBFE002D0AD1002C08D00178022901D3BE
:1041C400491E0170022008F069F923E0202D21D84E
:1041D40001D1622F1ED00021622F0A9107460BD015
:1041E400C8430AE0DE4909780029C1D108F04AFD34
:1041F400002003903446B9E701202D18E8B208F0F6
:1042040093FE3978002905D0102903D80278102AA2
:1042140000D875E1012000263546C1B2102900D925
:1042240009E10A910890F0B2099008F07DFE079B1D
:104234000446EFB29F420BD3F81A062808DCC000EC
:104244000830C1B2012000230A9A09F00BFD079B34
:1042540009981F2800D9C4E020780A99884200D020
:10426400BFE0BC4A0F46E8B2984200D2AFE0C11AA0
:10427400062914DCCF00B64909780022002927D189
:104284000699C9B2814223D10898B9490870B64841
:1042940006700398002813D0B148007816E0072967
:1042A40000D094E0AA480078002800D18FE0AF48FD
:1042B4000078F1B2884200D089E01078401C81E097
:1042C4000120A7490870002202924A7042424241EA
:1042D40005920837F1B209980491884209D0E0792F
:1042E40000210091F9B24007830F1320A54A09F079
:1042F40006FCFFB2302000233946224607F0A2F91B
:10430400022022562D203946059B09F03FFCA0705F
:10431400E078002805D042B248200023394606F050
:104324007DFA207900281DD06179A27912025118F2
:104334000722A256120489180BD401461B31C9B2B4
:10434400362909D842B260200023394607F0B0FE6E
:1043540008E06020642201E0602045220023394601
:1043640004F010FB6079A17909020818E1790904C5
:104374004018FF210902014001D0532200E020220D
:10438400002901D02A2100E04421000600D00A4679
:104394007920394609F002FD6D480078002813D0D1
:1043A40072480078049988420ED1182066220023AE
:1043B400394607F0D1FE6C48067028460695654AD2
:1043C400079B0A9F107002E0624A079B0A9F6D1CBC
:1043D400F0B21E2823D8761CA07A0A34B8421BD126
:1043E40041E70698C0B2B84215D15F4806700898F4
:1043F4005F490870E81AC000C01DC1B20024192228
:104404000923204608F074FC0398002803D108F01F
:10441400CFFA002805D06D1C0898401CFDE6202624
:10442400FAE751480078214606F0DAFB4848047060
:10443400504807F039FF4A48007800285BD00298BA
:10444400464C20704C483F210B2204F0F9F9012816
:104454004AD14348807805282FD8C046784400794B
:10446400400087442011222A2E33C04642F900001E
:10447400F20D0020CC0D0020300E0020F30D0020A2
:104484003E0E0020E10D002008F092FA00280AD127
:1044940035490878401C0870C0B20024214606F053
:1044A4009FFB2B480470334819E02F490878401CBF
:1044B4000870C0B2012106F093FB01202449087062
:1044C4000FE0294800782D49087002E02B48FF21AD
:1044D4000170207808F0D6FB00202070284807F0EF
:1044E400E3FE00201E4908701E48002101701E488A
:1044F40000781E490870681E174908700BB0F0BD9B
:104504003B468A420BD10A210A060CD002781C468B
:104514001B7803702270631C401C491EF4E71029A9
:1045240004D30A9A03E0114805704BE60122704255
:104534007041104002462243012A00D042E6091B82
:10454400081818703EE6C046F60D0020430E002001
:10455400F20D0020300E0020F30D00203E0E00204E
:10456400E10D0020F60D0020380E0020360E00204C
:10457400390E0020153C0000EFEF0000FF0D002075
:08458400A5AD0000A5F900003F
:10458C00F0B58BB00990FB4809F070FBFA4C207821
:10459C00421C4E200025294609F015FC21780922E1
:1045AC00104607914843F5490C18F54EA05D40079D
:1045BC0000D00A22F34F38460999FBF77BFDA61968
:1045CC00F14824187F57052F089406960A970EDC9D
:1045DC000820FA4909F052FBED480078099008F0E0
:1045EC002DFC2078002F00D18AE000238EE0059569
:1045FC000825E649284609F041FBB81F43424341D0
:10460C00E3480078049030784006820FE149E24C90
:10461C0003952846A0478007400E31789F220A4018
:10462C0010183070F81F43424341CA091020DB496F
:10463C00A047C00134787F21214008183070083F12
:10464C007B427B4107252C401820D5492246D24F6E
:10465C00B84728403178F8220A4011183170A0422E
:10466C0009D00921079A5143C44A5118EA01059B04
:10467C008B5489184B70002868D02020C94909F048
:10468C00FDFA06980178294028200A2402290A9B61
:10469C0000D1FEE0012900D014E106900920079911
:1046AC004843B6490818E901425C4518687800028D
:1046BC0080187D218E00092B0BD100B232460B32B3
:1046CC000021022303F030FB2870010A6970049961
:1046DC000591F11D02B28A4200DCF8E06C20202723
:1046EC00B34A39462646059C234609F02FF828780C
:1046FC003530C2B278203946234604F03FF916E132
:10470C0040B25E2108F07CFB2070099BC2B2602095
:10471C00082105F079FF2078002822D0401EC0B275
:10472C0006F092FA06460820A54909F0A7FA207867
:10473C00252811D38221002200920191253842B202
:10474C0048200821334603F027F90AE020200926E7
:10475C00089D0A9C8B4FEEE048200821324609F058
:10476C0032FB09200799484384490E189549705C1F
:10477C000A9A012A08D1751840B2062108F040FBAC
:10478C00287009990A9C01E000211446C3B2042B3D
:10479C0004D800914E2010218C4A05E00091401F56
:1047AC00C3B24E201021884A09F0A5F9022C14D16D
:1047BC00874864210170874D705D77190121795606
:1047CC00090208187D210A028349022303F0ACFA7E
:1047DC007055000A7870099B00E000230898007857
:1047EC00252810D37B49725C711801254957822505
:1047FC000093019509028B18253842B278201821B4
:10480C0003F0CAF80AE07348315C30180122805674
:10481C00000242187820182109F048FA6F49705CA0
:10482C000025032C09D1771840B21521C943162253
:10483C0008F06EFB3870099B00E02B4642B26020FA
:10484C00202105F0E7FFDF208100705C042C06D1ED
:10485C00751840B2212108F0D3FA287000E00995B0
:10486C00069DC2B260202821099B07F05BFE601FE9
:10487C00434243412878C006820F3020584905F046
:10488C0099FC8007C00E2978E7220A40101828707E
:10489C006DE005940690092007994843374908189C
:1048AC00E901425C45186878000280181C46092B07
:1048BC001BD140B20F2108F0A3FA002169702870B7
:1048CC00049913E0089D2F4F26461C4633E0B24254
:1048DC0018DD0C30C2B26C202021059B07F098FE2D
:1048EC00089D284F0698264624E00021089D254F58
:1048FC000091C3B25A2020212B4A09F0FCF80698EB
:10490C00059E18E0264678202021059C234609F0B8
:10491C00CDF9002C0BD00998802805D1287869781E
:10492C000902081807F08AFE204800210170089D32
:10493C00144F06980A9C1F49069009F09FF9A6424D
:10494C000FD1099880280AD10921284609F030F99D
:10495C001648002101700A2C01D103983870049B71
:10496C0000E000234820144A069908F0EFFE0BB033
:10497C00F0BDC046ABF60000310E0020BE04002096
:10498C007D0300001F0E0020790300003CF00000A6
:10499C004B0E0020F5F20000C1A100009FF60000B4
:1049AC00DFF2000013F70000E0E80000F60D002035
:1049BC00DEF9000005F900007EF700009EEF000014
:1049CC0082F900007A030000E0F400006EE80000B9
:1049DC00420E00207E0300000083FFFF7B030000DB
:0449EC000EF10000C8
:1049F000F0B583B0E34E0125357006F0DDFA0024F2
:104A0000E1480157002907D5E04A13783746F026D8
:104A10001E40331D3E461370DC4F3A78142A35D8B9
:104A20005200C0467A449288520097449E009E00ED
:104A30009E0087006A000D010D010D010D010D01A1
:104A40000D010D010D010D010D010D0114001400EA
:104A500014000D01110107F077FC032009F0C2F9E1
:104A6000C02009F040F808F02BF93878401C387065
:104A700038780F210140032903D33878F021014011
:104A800039703878202101433970DDE01046203834
:104A900003286AD310463038032818D2252007F09F
:104AA0005FFDBB480178BC2900D0CDE0417A0129E7
:104AB00000D0C9E00321C943B74A002936D05318B2
:104AC0004418647A7D25ED005C55491CF5E7242ADD
:104AD00017D0342A00D0B7E00024204608F082FE28
:104AE000800600D5F7E0252007F03AFDA84E717A40
:104AF0003078AA2800D0E7E0FC2900D0E4E00120CB
:104B0000E7E0AE4D2878411C2970AD490C5CA74800
:104B1000007803F0F3FD3878DF2101403970287800
:104B2000102800D280E0002028707FE03878F02143
:104B30000140C81C3870A348002110E0A14A137836
:104B40005B1C1370DAB2042A0FD33A78F0231340B7
:104B50001A1D3A70994A0123137080221143017083
:104B60003878DF21014039706EE0894CFF202072D7
:104B7000E071A0710020A07286490968617003226B
:104B8000D243D21C62710A0E22710A0CE270090A29
:104B9000A1703E788A49102804D022180B5CD37289
:104BA000401CF8E720461B300A21FF2209F007F8D5
:104BB0002520002121540F200640751E032D20D2F0
:104BC000BC202070032E11D1F920800072490A5CAC
:104BD00062710818C17821728178E1714078A07102
:104BE00020460B301021FF2208F0E9FF80202077BB
:104BF0000120E076E8B20228624E00D302256572F9
:104C000006E0002E5F4E03D101206072BB202070B1
:104C10003878DF21014039706B480078C00701D037
:104C20000D2401E07320C44307F0DEFDE1B225202E
:104C300006F006FE08F044F863480178491C01704C
:104C40005B480188491C01800020307003B0F0BD32
:104C500007F07AFB284609F0C5F8C02008F043FFAA
:104C6000387820210291084338705148008801901B
:104C7000504908F0CDFD4E424E414F49019808F091
:104C8000C7FD002900D075004848057008F018F8E5
:104C9000424D434E2B2C12D0285D002802D0401EDE
:104CA00028550AE001200021224608F04EFE326815
:104CB00082433260706888437060641CEAE7387829
:104CC0000299084338700AE0AA280AD1FD2908D1C0
:104CD0000220364908703878DF2101403970294EAA
:104CE000B2E7AC2801D0AA28F5D1701C29490425C7
:104CF0002A4608F0A1FE0290F920800026490918F2
:104D0000701D2A4608F098FE02990843E3D11D2041
:104D100008F068FD2149FF220A7121490A68102321
:104D200013430B603C2800D83C201E4D29691E4AC5
:104D30001368591A08181060642108F093FD28615F
:104D40003078AA281BD0AC28C5D134460934A01B22
:104D500008381928BFDC2078FF28BCD0A578AC2102
:104D6000204603F025FC2819C41CF0E7301909304F
:104D70000178FF29AFD0AA2103F01AFC241D1C2CB6
:104D8000F4D1A8E7450E0020F80D0020440E0020C5
:104D9000B8FEFF1F5CFFFF1FBE040020690D00204E
:104DA00000F8FF1F08FDFF1F580E00202B0E0020EB
:104DB000AE0400202106000021050000010E0020A5
:0C4DC000A60D00200D0E0020FC0D0020B0
:104DCC00F0B58AB01F246102C84842680A434260A9
:104DDC000121CA06836813438360C54BDA6810202F
:104DEC0008900243DA60C3488269C34E3240826144
:104DFC00426832404260426932404261BF4DAA680B
:104E0C003240AA60BE48826D32408265426F3240A9
:104E1C0042672A6832402A6016229A60DA680A438E
:104E2C000E27BA43DA60002203921A6247225A62B2
:104E3C001C605A6A80240994224340240794A2439C
:104E4C005A621A681206FCD50F2204921204AD4E57
:104E5C00736D934373650B02AB4C23646364A3645F
:104E6C00E364726D3A4372656360A360E360202271
:104E7C00D2437261A54A1361726D0A437265CD43C8
:104E8C000195326C2A40326423608A07A04C676912
:104E9C001743676127689743276083677269089D8A
:104EAC002A43726132682A433260984DEB60CF0717
:104EBC0062693A430697626122683A432260C3678B
:104ECC004A037769174377613768174337602B6359
:104EDC00904F7A6D099D2A437A653A6C2A433A645D
:104EEC00844AD361049A9204054660691043606158
:104EFC00206890432060AB64EB642B656B650320EA
:104F0C00059002020292286C104328640498000257
:104F1C007A6902437A613A6882433A60774803625D
:104F2C0043628362C362786D019A10407865714D5B
:104F3C002B60786902229043786170484360786DE9
:104F4C00089A904378652B61080372690243726179
:104F5C003268824332606D48C3628A050192634DA8
:104F6C002868104328604802644A906150616A4A7C
:104F7C0012200490907019205070117067480838F6
:104F8C0005680E4666490D400560B002654908602B
:104F9C009078079D284390707869089A104378613F
:104FAC0038681043386055490B61786D0422104302
:104FBC007865386C904338644E4DAB605A4802604B
:104FCC007869099A10437861386810433860CB616E
:104FDC007869082210437861386890433860CB6058
:104FEC0060690599084360612068884320604448E3
:104FFC0003604360EB604949C8684C4A1040069A0C
:10500C008018C860474D2A60F205384CA0681043E0
:10501C00A0600520089000020090DB30444F3860FF
:10502C000598B8609F2038610720B86148683C4BF0
:10503C001840801848602F46019828603D48039B13
:10504C000360204630383C4A02607006A268024376
:10505C00A2603A483A4A82600A68314D2A400A6096
:10506C00B2043A6049220260304D681CA2680243C7
:10507C00A2603448344A8260FF2212020F689743C0
:10508C00F203BA180A607204264F3A600360B00645
:10509C00A2680243A2602D4A2D489060D3602D482F
:1050AC001061482050611948029F076047600868EA
:1050BC002840069D40190860F0041A4908601360E6
:1050CC0020680799084320600D48009941660166E5
:1050DC002148049901700999417020482049416088
:1050EC008360089901600AB0F0BDC046348004406A
:1050FC0000B0034000C00440FFF8FFFE00B00440C5
:10510C0000D0044000F00F4000A004400490044084
:10511C0000F10F4080F00F400160074010E400E008
:10512C00FFFF00FF00E100E0C4F00FF8FFFFFF00FD
:10513C000071034000700340000001010090034027
:10514C00FF0B0000008003403B2D000000A003403B
:10515C00FFFF000060EA00000160064010E000E084
:04516C007FBB000005
:10517000F0B591B08278EE2A0CD1C378C84A127883
:10518000934207D1C74C2278002A0F930AD0C74B0D
:105190001B780AE0C34800210170C34C0020207036
:1051A00011B0F0BDC14DFF232B7006795DB2109692
:1051B000AE4201D0FF2BF3D10F9B5D1E0C230C934D
:1051C0000D956B43BA4DEB180E93109B5B1EB74DBC
:1051D0002B700523B84D8B4206D2C75CD6B2AF55B3
:1051E000521C22705B1CF6E71098002805D0AE48D0
:1051F0000178491C0170AF4CD0E7AB48002707701D
:10520000D0B20428CAD30E9B5989FF20099181434B
:105210000F980818588169789E792A781091C909E1
:105220000B910A96002E15D01946DB799342B5D121
:10523000089207977F27109B1F400B890F21194069
:10524000B942ABD10999C905C90F0B9E8E42079F80
:10525000A4D106E008920C230D994B439449CB1836
:105260001B8907970E9E31460A310F27109A3A4044
:105270000997BB4310929A180D923281089AF271E5
:105280008E4A10400B9A120210180880AF1C384644
:1052900008F039FD0A9A0346002A07D03088884969
:1052A000081839461F4608F05DFC1EE0394685485F
:1052B00000880B903080D8B20C281F460C9B00D879
:1052C0003B46B01D109A0D2A00D13B460370DAB25E
:1052D0007B480B9BC0183E46174608F043FC0B98D2
:1052E000C0193746774908800E9E32460832F81CAE
:1052F00010990D291AD0092900D0B8E00B92C0B23C
:105300000A902E18304608F0FEFC6F490B78002BEF
:1053100034D0F0210D9A8A433818001DC0B2285CA1
:105320000007000E10180B990880A0E0F0210D9BDB
:105330008B43C0B2285C0007000E1818108062482A
:105340000078002800D092E0781DC0B22818109094
:10535000374608F0D8FC05465A480688BE80092D15
:1053600000DB09255648801910992A4608F0FAFBF7
:105370007019544908800E98857074E008960E994B
:105380008A78002A0B9A01D00D9E60E0049305975D
:105390008A1C03924B4A1288494B092601969E5457
:1053A0008A801090431E0292561C079F3846089927
:1053B000069309180E91191AC219109B0C929A4261
:1053C00035DA0E9AD35D3B2B03D0B94201D07F1C56
:1053D000F2E70A9A8218B942394900D17F1CB0B26B
:1053E0000818A918092F00DB019F3A4608F0BAFBFC
:1053F000F619344A1680324B092F06DAB0B2202152
:105400001954761C16807F1CF6E7099800020D9A45
:10541000110A8243481C0007000D82180D920B9858
:1054200002800C98401C079F0899069BC1E7B0B208
:105430000021234A1154701C224908800299401A05
:10544000039908700D9E059F0B9A049B1098F021FC
:105450008E433818001DC0B2285C0007000E3018BB
:105460001080002B03D119480178491C017018489D
:105470000178002902D0002101700CE00F98401C37
:10548000074A107013490978C0B2884203D9012035
:1054900010700D4908700748012101707EE6C04672
:1054A000A70F0020080E00200B0E0020A60F0020E2
:1054B00066010020EB0D0020BC0C0020FFFE000068
:1054C000A6080020B20400200F0E00200A0E0020C3
:0854D000000E0020070E002071
:1054D800F0B587B00290BC4808F0CAFBBB4E3478E0
:1054E800BB480078002804D1B8480F220299FAF77F
:1054F800E3FD0025B749284608F0C2FB07F03EFB4C
:1055080002B266200695294608F05FFC3678B24953
:105518000878022803D100200870B0490870B04804
:105528000278511CC9B28E4203D2721E0AD20022DE
:1055380008E0111DC9B28E4204D9321FD1B20A291E
:1055480000D30A2261B201910270A64D069F05940C
:1055580004960392F8B2062830D2B818C4B2361BA3
:1055680073427341401CC2B2F8001030C1B212201D
:10557800069108F047FB2D20285C844204D10120C5
:105588002A22069908F008FC0F252046974C214648
:105598002A4605F005FE704270419049097801409D
:1055A800103100911820069922462B4608F041F93F
:1055B8007F1C059C049E8B4D039ACBE7844800789A
:1055C800002807D02D27E95D8048007881421CD04B
:1055D8007E251BE0029908466438022874D36029A6
:1055E80000D180E0BF2900D186E06E297BD08129D7
:1055F80000D18EE0612900D0C4E0784908780128FC
:1056080000D0DBE000200870D8E0592508F0AEFB98
:10561800002801D16920C5434F207249085C400722
:1056280001D43F200540E9B26F480A2203F006F989
:10563800012800D0A6E0354665488678072E7DD833
:10564800B00001A108588746C756000071560000EF
:105658007156000059570000455700006357000075
:105668004F5700007D5700005848017806915D4863
:10567800C155624801270770029807F001FB07F03F
:10568800C3F8069801F0AAFD5D48C17802220A43D2
:10569800C270384606F000FF07F0B6F806F06AF95F
:1056A80003F0EEFB5748807A08F04CFB07F0D4F87B
:1056B80047480078022802D0022E00D080E05248E5
:1056C80007F0CCF92E465DE02D20285C3F4909788B
:1056D800884222D10298642801D0652852D14A48CC
:1056E80007F0BCF94EE04948002707703B490878A5
:1056F80001281BD10F7061E0002035490870374937
:1057080008702D20285C31490870012002F046FD00
:1057180038E0012006F038FA34E002202C4D2870D9
:10572800029807F0ADFA002068702BE00120284DA0
:105738002870029807F0A4FA6F7023E00120274927
:1057480008702E4622E02E4628490D72012015E0E9
:1057580028482E460570012006E0029807F090FAC6
:1057680024482E46057000201B490870224806F080
:1057780099FD07E02E461D490D72002008711C484E
:1057880006F090FD15480078012817D10198B0421D
:1057980014D0601CC0B2711CC9B206F077FB2D2072
:1057A800104A115C8E4201D1145404E0019A8A42D5
:1057B80004D10C490E54012006F06EFE07B0F0BD6E
:1057C800012006F0E1F97DE7FAF70000190E002044
:1057D800E10D00205AF90000520E00201A0E002098
:1057E800F00D0020460C00200DED000022030020E3
:1057F8002D690000510E0020D59C0000460E0020A7
:10580800A00F0020BE04002011040000F60D0020A7
:10581800F0B58BB0BA498879401C88710020012105
:105828000691B94DC7B2012F00D9F4E0002F02D07C
:105838003720000100E0B748B7490818002400578E
:1058480039016E180028069B1BD016280CDB15386A
:1058580040B208F091FAB1798142069B11D0B11D8E
:105868000028087005D10CE008F086FA0028069B8D
:1058780007D0002F02D008F099FA01E007F0D6FA15
:105888002346052179439F4803914018089085785D
:10589800FE202840022801D1A0488488A04800782A
:1058A800002800D09F4C0794032008990C56042D1B
:1058B80005D368009C4940180838008807900122E1
:1058C800002D0492059337D0162C24DBF07831880C
:1058D80001438B4A9079084391880143B078084383
:1058E800B11C002801D1002008702046153840B2AC
:1058F800019108F041FA019A002808D0117800298E
:1059080005D1F11C0A7853425341019A0B7010706B
:10591800059B049A10E0002C0DD0204601972746DD
:105928002C461D4608F028FA049A2B4625463C4684
:10593800019FF07000E0F2703088F178002902943D
:1059480001D1014608E09102079A12B251188A0E55
:1059580089188911C9B24118694C002B00D1014638
:10596800318007F05DFBA188401A80B2642850D3CB
:10597800A279318809A807F0C0FF099807900A9909
:105988003180002F05D00021A171211D6420059BC5
:1059980005E02188491C2180A11C059B04980A88E0
:1059A80012180A800798000602D03189491C3181F3
:1059B800002B06D0F11C0978002902D0B188491CB7
:1059C800B1807189400E0A1872814E480399405C73
:1059D8000899497809020818B08131460C31002D20
:1059E800034610D0012D04D1029A002A08D0B288AB
:1059F80007E0022D01D8328903E092B2120900E0D3
:105A08006288831A0B80089A1279002A01D0C01A7A
:105A18000880781C05E7A889E98981426BD0394B51
:105A280019785A781E79E881EB78002B63D0120236
:105A38005118002E00D0081A07B23C4C20784007B5
:105A480026D5002924D00A2F07D0B8B2142807D0A9
:105A58001E2808D1192029210EE01B202B210BE03C
:105A68001A202A2108E0052F47DC28480A3000B20E
:105A7800874203DDF9B21C2007F0AEF8069800282B
:105A880006D020780821014002D021483221018027
:105A9800002F01D4384600E0A889002E00D13846EE
:105AA80001B209A83C2207F028FF2078800715D505
:105AB8000A98002812D1607A800703D4002007F0E2
