:100000000018002031C700008DBC00008FBC00002C
:1000100000000000000000000000000000000000E0
:1000200000000000000000000000000091BC000083
:10003000000000000000000093BC000095BC000020
:1000400015B300009BBC00009DBC00009FBC0000DD
:1000500097BC0000A1BC0000A3BC0000A5BC000030
:10006000A7BC0000A9BC000061AD0000ADBC000051
:10007000AFBC0000B1BC000019AC0000B5BC000072
:10008000B7BC0000B9B2000061CB000045CB000056
:10009000BFBC0000C1BC000035BB0000C5BC0000F7
:1000A00097BC0000C7BC0000C9BC000097BC0000A2
:1000B000CBBC000097BC0000CDBC0000B9C0000064
:1000C000F0B583B002920F4601900825BB48425F0D
:1000D0000621BB4E715E891A8B0EC9188911B94B66
:1000E00019700A23C35E705FC01A840E0019801154
:1000F000B54C2070C0B2C9B2002901D092B2F280D2
:10010000B24C002801D09AB232812478B04A1378D8
:10011000002B03D1B94B1B789B0606D50020AA49BA
:100120000870A849087010700146002904D1002801
:1001300002D17088002801D00CF052FCA548067846
:10014000012000900298FF285ED0A3480078012883
:100150001FD0002841D1A2490878012802D10020EF
:10016000087034469F4B5A5700201872012A18DB3A
:10017000611CCAB2521A531E9A41B442019B01D269
:10018000002A22D01978029A91420ED2491C197085
:100190001AE000202E2F1CD09049097800291CD18C
:1001A00017E0002A03D421460FE018700CE0002C61
:1001B000019D01D0611E08E02B78002B029A00D02F
:1001C0005A1E2A70009A0A7001462E2F04D101206F
:1001D0000C468149087000E00C4683480078401CBA
:1001E000C5B2854201D00020C5430CF019FC00289F
:1001F00000D10546E8B23D2804D3012076490870B5
:10020000764908707848057078480670734D2878EC
:100210000028019B17D03846603805283CD938465D
:10022000423803284CD9212F00D171E02E2F3AD02B
:10023000812F64D08E2F68D0BF2F00D0A2E0002481
:100240001C702C709EE060480078002813D019784C
:10025000091A4AB20020002A00DC0146CAB2029DF7
:10026000AA4200D32946197057490870E0B2B0423B
:1002700000D33446594D18780028CCD05148007826
:100280000028C8D0241A60B2002800DC0024E0B2A4
:10029000B042C0D33446BEE778440079400087447A
:1002A00002711D262B5B0298FF286BD028784142F3
:1002B00041412970002865D147480121017061E062
:1002C000784400794000874401293545187802991F
:1002D000884257D02978002904D053E02878002894
:1002E00050D118780299884246D3002045E02878FA
:1002F000002847D1187817E0002E20D142E00020D6
:10030000287000980BF062FB3CE08E200CF00CFC97
:10031000287800282CD00020287033E01878002896
:1003200030D0297800292DD1002801D0401E02901C
:10033000029822E0002E25D0E0B2B04222D02878E8
:1003400000281FD12A4900200870E1B2B14232D3FF
:10035000044617E0200615D0002E13D02878002878
:1003600010D123480021017020060AD0661E08E043
:1003700000200BF02BFB05E0401C1870E0B2B042EF
:1003800000D33446114804700020124908702878C0
:10039000002801D0022100E00121094B154A11700B
:1003A00059884A1E91410028009A00D10A461248F5
:1003B000027003B0F0BD641CE4E7C0467404002082
:1003C000960400202F0E00202E0E0020430E002049
:1003D0002D0E0020700E0020810E0020360E002011
:1003E0004F0E00200A0E0020860E00208E0E0020E8
:1003F0007C0E0020890E0020350E0020920C00207B
:10040000FFFFFFFFFFFFFFFFFFFFFFFFFEFFFFFFFD
:10041000F0B595B0244902260E70244C07222146DF
:10042000059209F0F5F90146214F3878401EC2B215
:1004300020461291FFF744FE1E4D2878411ECAB295
:100440000D2A0AD81C4BD340DA0706D048B28000E8
:100450001A4908580BF084FE28780D2801D900F0BD
:10046000EEFE24781394400078448088400087444E
:100470000D00E6062B00FE004301E606E6065501E8
:100480005200E606E606E606F000EE020C480DF025
:100490003AFB0E203870601CC2B20A4807210CF0EB
:1004A00011FF00F0CCFEC0468D0E00205B0E002038
:1004B000790E0020230E00203127000028C1000003
:1004C000F0EA0000F0C00000F9480DF01CFB062027
:1004D0003870F84807780825F74928460DF01BFBC7
:1004E00063426341F54EB07D4209F549284609F063
:1004F0006BFD4001B17D1F220A401018B075F07DE0
:100500000025012C00D0D8E240B224210CF0DCFB05
:10051000F0753B46D2E2EB480DF0F5FA102038704A
:10052000E94800781190139840B20CF0EDF8139B55
:100530000D900022072A01D100F081FE0D9881184C
:10054000481CC0B214904000C9B21291994202D125
:100550000221F94C2170D94940181499102901D869
:10056000F64900E0F64945180E92D0000830109088
:100570000024032C6AD200201199A14201D0014627
:1005800001E0CC490978129A9A4200D00146CEB2D5
:10059000711E304688411499102955D87F21214079
:1005A000012921D000293CD140000F901098C6B2FB
:1005B000002738463146149A3B460DF09CFA2878BD
:1005C0008009022800D901270F9B3046F3493A469B
:1005D00009F0FAFC3F21002800D0C843139B2A7879
:1005E0000A4002432A702FE028781099C9B2800689
:1005F0008216452033460AF013F8139B002E23D0B1
:1006000028781521C9438006801616220CF0ECFBD1
:10061000139B3F2101402878C022024050182870C7
:1006200012E00127EA571098C1B2782033460DF046
:100630008AFA002E139B07D0E8577C21C9437D22FC
:100640000CF0D2FB139B6870641C92E70E9A521C4C
:1006500070E7DD480DF057FA0A203870042C0E962A
:1006600000D93AE20CF04EFB00252C4637E2D74881
:100670000DF049FA11203870AF4803210170AC48E1
:1006800000780D90139840B20CF03EF8139B049044
:100690000F2B00D90FE35800CD4C205AC10B401846
:1006A00000B24010CB4942184E2000210DF0D1FA83
:1006B000139BC9480078802800D00BE30D980028D0
:1006C00000D007E3052058437C49081857218900CA
:1006D000425C0499591A4900615A002A00D04942E3
:1006E000FF225E328154090A8018417002200BF00B
:1006F00031FE0BF0CDFFECE2B8480DF004FA052016
:100700003870B74800240470B64E35781398002826
:1007100001D100F0C4FC234600F0CAFCB2480DF041
:10072000F2F90C2038708448032109910170804847
:1007300000781190139840B20BF0E6FF0890002467
:10074000072C01D100F07BFD5A4800781490E0009E
:100750000830C5B200274C22384629460DF060FA11
:1007600008980019C6B2082E0F9401D8312100E074
:1007700038210818C2B2052029460DF051FA09980F
:1007800070434E4909184B20C0000E9112900B5C2B
:1007900013988642149C00D03C46119E002E2046A1
:1007A00000D03846C0B200900F20109003400D20BA
:1007B00029468E4A0DF0ECF8022E204600D038462D
:1007C0000C90012E149400D03C460D9488480E9C49
:1007D00026181298205C109908400CF0F5FA0228AF
:1007E0000A960B9016D0012820D0002100282ED187
:1007F0007756252F34DB7F4961560C9AD2B200928E
:1008000082220192253FFE223A407D31382A5DD076
:100810000B465DE07748225C0C98C3B25020294615
:1008200009F0B8FD32780D98C3B259E00020325675
:100830000D98C3B23620294609F0F2FE6D482256C3
:100840000C98C3B24D20294609F0EAFE4CE07256DE
:10085000694900912021002A07910AD40D9F0AE0DE
:10086000644822560C98C3B2632029460DF06BF9F8
:1008700033E00D9F0F43FBB2D109514048B2401CF9
:1008800082B2492029460DF0FEF85A482056002829
:1008900001D40C9902E00C99079A1143CBB2C1091B
:1008A000414048B2421C6B2029460DF04CF91BE038
:1008B00005F50000890E002003E90000C4040020B3
:1008C0000DF100006AF30000430E00200A234B43A1
:1008D0007AB26420294606F03FFF0D9F3278FBB2C2
:1008E0003620294609F056FD11981499129AA61837
:1008F0000328084600D0002031780A09082A00D9C8
:10090000521CC3B26820294609F08AFE3B48007891
:10091000002800D198E01498000600D194E01198C6
:10092000032800D990E003A1085C40008744C0463A
:10093000430E00200A212F40700E00207B02000091
:10094000DF0200003078109D28400E210CF0BCF929
:1009500028403178F0220A40111831700CF034FA36
:100960000B99814270D00020224960540A99087086
:100970006AE00B98032867D87844007940008744E0
:10098000013F014600210A9C60565E2245E00B981B
:10099000032859D802A1085C400087445AF300009C
:1009A0000342484D134D60577C21C9437D2248E0E6
:1009B00030780009109C21460CF086F931782140EE
:1009C0000001081830703FE011F70000E0F6000069
:1009D000EC030020DC0500007C0E00205AF600002D
:1009E0007F0E00207A0E0020C8F20000EEE6000024
:1009F00056020000570200009AF70000350E002052
:100A000000200A9C20561521C943162205E000202B
:100A10000A9C20563121C94363220CF0E5F920706D
:100A200012E0FC4D60571521C943162209E0F94D2B
:100A3000605700215E2204E0F64D60573121C94322
:100A400063220CF0D1F960550F9C641C78E6F248E3
:100A50000578F2480DF057F8139C0A2C00D99EE255
:100A60000CF050F9224610203870052C00D9E8E32C
:100A7000002A02D1EA480921017051425141E94856
:100A8000007800910821E84E0A2732463B4608F0DC
:100A900019FF13980128149501D000F048FC129812
:100AA000602802D1B07A0DF091F8F05731210CF0A6
:100AB0000BF9B0722B4600F03CFC2B46C2B266200C
:100AC000102109F067FC307E1399022953D140B2FE
:100AD00064210CF0F9F830764EE005240125CE486B
:100AE00007780826D14930460DF015F82A463132EC
:100AF0001E20109631460DF093F8139814948442FA
:100B000011973B4600D0002305206843C84A115C7A
:100B1000141801201290205600930002421847201A
:100B200010990CF01AFB1399149D8D420E9E16D14C
:100B3000C0483C2202703B20C143002528460CF0EF
:100B400053F92178627812025118081801B200296D
:100B500000DC28462070000A60701399149D681C00
:100B600088423DD10220205613210CF0ADF8139994
:100B7000A070012235E02F46C2B2542018213B4616
:100B80000BF00EFF139DE81E42424241B07D40072C
:100B9000C00F2021A84CA047C007400FB17DFB2209
:100BA0000A401018B075281F424242410807C00F82
:100BB0002821A047C007000FB17DF7220A40101876
:100BC000B075681F42424241C806C00F3021A0479D
:100BD000C007C00EB17DEF220A401018B0752EE399
:100BE00000220529129B00D381233C20102109F00B
:100BF00065F8032728463043002213998842119B49
:100C000000D013461092E257002B304600D03846F1
:100C10000F9700905A2018210CF09DFCE070139D56
:100C2000149F781BC01C43424341227920208349F2
:100C300009F0CAF92071381DA842119B109A00D002
:100C40001346002B0F9800D00646774C052D02D393
:100C50003720000100E07A482518AA5600964F2058
:100C600028210CF078FC724F7A7976496254FA7830
:100C7000754BE254FA79754BE2543A7A744BE2546C
:100C8000744AA35C7F261E407B7ADB01F318A354D1
:100C900028707878A073387860736018B9794170DB
:100CA000B878E072387912990840217BFE220A4018
:100CB00010182073C3E26848007880280AD1102BEE
:100CC00008D166481921017080200BF02DFF08F033
:100CD000A5F8139B7C200390C0430C90002632465D
:100CE000072E00D14AE104983218D4B2F0000890DF
:100CF0000830102C00D142E111966100584B595A2E
:100D00000B91052110946143474B5C1857218900D2
:100D10000991675CFF210A915E31655C61180E9153
:100D20004E78C1B21292501CC2B200200F911490A2
:100D300003460CF0E0FE30024019002F00D1404283
:100D40000B9943187F217E22002F0846119E00D068
:100D500010461BB20C9D4B35AB4200DB2D20002F03
:100D600000D00A46322B109F00DC02464B200F9920
:100D70000CF056FF2C48817D0220084001D00399D9
:100D800000E06321C9430791139B129A002801D008
:100D90007D2000E0642006900598089901430891A1
:100DA000AD20400020180B900A985C3020180A9063
:100DB000099820180990149C042C00D3DCE00D98AD
:100DC0006040394659400143149401D0002401E0A9
:100DD00011480478E5B268426841224909784E42D8
:100DE0004E41064302D100201F4908702B2000010C
:100DF0000D49085C002700283CD001210E9A51566D
:100E0000090212788A1891B2002933D082422DDD6E
:100E100007462FE057020000890E00207AF60000F6
:100E2000700E0020430E0020C40400206BED000073
:100E3000000E0020800E0020E1CB0000F5F0000045
:100E40006F030000AB0200007B020000AD02000057
:100E5000AE020000710300007C0E0020310E002065
:100E6000EC030020350E00207F0E00204742BA42DE
:100E700000DB0F4638B20A210CF031FB7F21149AB7
:100E80001140022923D0012949D0002964D101252C
:100E90000E99485700020978421820200443E3B213
:100EA0002D200F990CF04FFE002E119E109F5ED149
:100EB0000E9C60570002217840187D21CA00022351
:100EC000F64906F011FE2070000A60704FE00A99A2
:100ED0000978643149B2401801B27D2900DB7D20D8
:100EE00002B266200F992B460CF02DFE380406D076
:100EF0000898C1B23220382209230BF059FE002E87
:100F0000119E109F33D10A9C20781821C943643068
:100F100040B2069A0BF068FF6438207027E00B9906
:100F2000097864394CB2001901B20C9A914200DC84
:100F3000104602B248200F992B460CF004FE002EFA
:100F4000119E109F13D11922204607990BF04CFFD8
:100F500064300B9908700AE0099C20780F992A46A2
:100F60000BF03EFE411E88412070119E109F149C84
:100F7000641C139B129A1FE7761CB1E63820D1B28D
:100F800010290BD110214B40C549097819434B4218
:100F90004B41C1B21220C34A0CF013FB4FE1149530
:100FA0001020119038700827BF4938460CF0B3FD67
:100FB00020460B3843424341BC4EB27CBC493846C4
:100FC00009F002F8B07400250C2C00D01495149B85
:100FD000581E1946814114203256009166201199FD
:100FE0000CF0B9FA307520460D3842424241707C0F
:100FF0000007C00F18210CF05AFDC007000F717CCC
:10100000F7220A401018707420460E3842424241BE
:10101000307B8007C00F20210CF049FDC007800FF6
:10102000317BFD220A4010183073FF2040001490DD
:1010300001242F46072F00D101E1737D2340581E64
:1010400083419C48C25D28463F30C0B2282107F04A
:1010500075FB13980F281CD10620974908709748F4
:101060000078874215D128463E30C0B22721082299
:1010700009230BF09DFD12982E2801D0202808D1BD
:10108000707D6040707502200BF064F90020FC490F
:101090000870640014980440ED1D7F1CCAE768B214
:1010A000032200210B460CF0CAFD054630700123D7
:1010B000681CC2B208262046314609F06BF9EDB231
:1010C00028460AF0C1FF034600942A20EF4A314621
:1010D00014930CF05DFCEE490E9630460CF01BFDAF
:1010E0006800EC490E5E28460BF0DAFD01230094FF
:1010F0000193652E194600DB21467C22D24319322A
:10110000964210931E46139B00DB4E00002800D031
:101110002646701E11908641581E45424541304674
:1011200028401821DC4F0A460F91149BB8470094C1
:1011300001941199481E814111910D403021129165
:1011400028460F9A149BB847109F00970197139851
:10115000801E454245412E4028220D9230460F996F
:10116000149BCD4EB0470097019411980540284636
:1011700012990D9A149BB04700940194139FF91E85
:10118000484248411E2563232946129AB0470094DD
:101190000194391F48424841382262232946B0470A
:1011A000B94E30780BF07CFD5C250028284600D035
:1011B0003C204022214609F0EDFAB8481099017010
:1011C000284608F01FFE30784100B24A555E1927C4
:1011D000394669430A0E8E18294608F005FA14901C
:1011E0003212722012990CF034FD149E7743380E9F
:1011F0003818021254200E990CF02BFD6801FF21C3
:101200004900891C4018820D8018870A38465C30D6
:10121000C0B2720151188A0D89188E0A1D21891BCE
:10122000C9B207252A4609F0B5FA5937F8B2202184
:10123000891BC9B22A460CF0EEFC9848047015B020
:10124000F0BD08249849204615460CF064FCA81F00
:10125000424242418B4DA87D8007C00F21460CF0D1
:1012600026FCC007810FAA7DFD2313405918A975DC
:10127000002825D1AD2040002818D5214900691843
:1012800088421DD200214256002A00D50170012259
:101290008256012A00DB4170401DEEE718FCFFFF7B
:1012A000310E0020B7F20000C2EB0000C4040020A1
:1012B0001CEF0000CAF60000700E0020430E002054
:1012C0001398C01F43424341754FE85D8006C40F29
:1012D00010207649224608F077FEC107890EEA5DA4
:1012E00020239A435118E95501263040A04202D0EC
:1012F0000AF062FAE95D1398083842424241480612
:10130000C40F182120460CF0D2FBC107490EEA5D3C
:10131000BF2313405918E9553040A04201D00AF0CC
:101320004BFA0BF0BBFB002869D0812268E0B07A51
:1013300000235F49009141218900C0B24218582022
:1013400010210CF0A0FB18205A490CF0E4FBFF2000
:101350004700012400251398082D14D05648305C0E
:101360002040411E8841009054484219062068439D
:101370004230C0B2182101230CF094F91398640094
:101380003C406D1CE8E7022819D141201721382282
:1013900009230BF00DFC13981299602901D02E2916
:1013A0000DD112980BF0C0FB0CF05CFA424970545E
:1013B0003C480021017002200AF0CCFF1398C01EA7
:1013C00042424241364C305DC006C00F20252946BE
:1013D0000CF06DFBC007C00E315DEF220A40101803
:1013E0003055139804282FD12B2004013057642145
:1013F0000BF06AFC30552021149D0D4327E080221C
:10140000602020210CF00CFC139C2046093842423D
:101410004241687C304028210CF049FB3040697C17
:10142000FE220A40101868740A3C62426241C806F3
:10143000C00F30210CF03BFBC007C00E697CEF22CF
:101440000A4010186874FAE62B200001305CC2B222
:10145000782028212B460CF076FB1398401F43423E
:1014600043419F208400305D42093020144908F038
:10147000ABFD4001315D1F220A4010183055DEE6F9
:10148000360E0020C40400207A0E0020F9F400007B
:10149000BFEF000074040020759900003A0E002090
:1014A00071030000360E002098E900007AF3000076
:1014B000D9F200008DEB0000AF02000087F50000BC
:0414C00073F00000C5
:1014C400F0B58BB0224901260E7022490978C9076C
:1014D40001D0042200E003221F4C214608F096F9B3
:1014E40007461E4D2878401EC2B220463946FEF7F4
:1014F400E5FD1B4800780B2801D900F0FCFD01979D
:10150400029618490E7827780A9740007844808814
:10151400400087440B0029005B00AD00BE002A0197
:101524008101AA0186028E02AC02EF02F1480CF09E
:10153400E8FA0848007801220240D11C0A322A70D5
:10154400781CC2B2EC480BF0BBFE00F0D4FDC046E0
:101554008D0E00207D0E0020670E0020790E0020E5
:10156400230E0020890E0020E4480CF0CAFA06205D
:1015740028702E25E248425DE2480090002F06962E
:10158400344600D000247620082123460CF079FA52
:10159400002CDB4E07D070570A212D220BF022FCC1
:1015A40070550BF017FC1020D7490CF0B2FA312516
:1015B400705D0024012F00D00AE340B21521C94315
:1015C40016220BF00FFC7055069B02E30696CF48DB
:1015D4000CF097FA062028700820CD490CF099FAEF
:1015E40039465C27C64DE85DC41D4026002906D156
:1015F4000698064360B207210BF064FB0446E2B28E
:101604006620082133460CF09CFAE01FE8550A9E38
:10161400701E434243414324285D8006420F10203C
:10162400BC4908F0CFFC4007800E295DC7220A4060
:1016340010182855B01E434243414F242A5D042A02
:1016440000D304221820B44908F0BCFC0328069FE8
:1016540000D907202855032E00D01AE34D2428571B
:10166400012164220BF0BEFB285540233B4313E3C6
:10167400AA480CF046FA062028700820A8490CF065
:1016840048FA002F00D1E1E32F209D49085C402354
:10169400E6E3A4480CF035FA06202870002F02D1A6
:1016A400A1480921017079427941A048007800914C
:1016B400934C2246513208210A2308F001F9781E7E
:1016C400434243414625605D4007C00F1021984ABC
:1016D4000CF024F9C007400F615DFB220A4010188A
:1016E4006055B81E43424341C806C00F1821914AB1
:1016F4000CF0EDF9C007C00E615D3A46EF273940A2
:1017040008186055D01E424242414C26A05DC006D6
:10171400C00F20210CF0D2F9C007C00EA15D3940E2
:101724000818A0550A9F381F43424341605D800654
:10173400C00F2821804A0CF0CAF9C007800E615DF1
:10174400DF220A4010186055781F43424341A05DD0
:10175400C0093021794A0CF0E1F8C001A15D7F2273
:101764000A401018A05500F0C6FC069674480CF008
:10177400C8F909202870042F00D99EE20BF0C0FAA2
:101784000825704928460CF0C4F97A427A415D274D
:101794005B4CE05D0126304029460CF086F9304070
:1017A400E15DFE22099211400818E0550A98401E96
:1017B400424242414627E55D3540102128460CF05F
:1017C40074F908963040E15D099A11400918E15511
:1017D400A84201D009F0EEFF0A98022801D00020A7
:1017E400069049200990205C57490F5C0420574D0E
:1017F400C6B2002E00D18FE2062141435431C8B253
:101804000321394069184A781821069B06F094FF91
:10181400701EF9B28F08EBE74D480CF072F9012005
:101824002870002525704B4C019E072D00D176E1D0
:10183400E8B20AF0A9FA0E21635E02B29A420146A6
:1018440000DB1946E1811C23E35E9A4200DC184662
:10185400A083042D06D309B200B24018C10F40186A
:1018640040082080A41C6D1CDFE706963A480CF063
:1018740048F9062028702D48007807900AF04EFE9B
:10188400800700D56FE2082034490CF042F910209B
:1018940000231B4D042B00D190E20490C1B2581CCC
:1018A4000390C2B20026304609930891334608F0EB
:1018B4006FFD099948002F183A37042E00D3ABE086
:1018C40000240A98814209D1032017490870079817
:1018D400B042234603D10223069C00E023467F2026
:1018E4003040032800D994E001A1085C40008744FB
:1018F4003744627906EB00004CC5000082F6000014
:101904004C0C00201EF600006CE80000BDF4000042
:1019140012EE0000B9EC000057EB0000EEF60000F8
:101924001AE800007AF60000700E0020430E002032
:101934008AF30000AAF00000A5F50000E1F400001D
:10194400DFF500008BEC0000DDF0000029F700005B
:10195400B1F400003E03002072F600001AF3000008
:10196400787882090898EB4908F02CFB8001797893
:101974003F220A40101878704BE07878800685166C
:101984000D20684381B2890B4018821042200899C7
:1019940023460CF0D6F8A0073BD51E20C1431F22D6
:1019A40028460BF01FFA3F2101407878C0220240FC
:1019B400501878702DE03D7800940720059005407C
:1019C4002B46103348200899E94A0BF0DFFFA007A3
:1019D4001FD5032128460BF075F90599084039787D
:1019E400F82213E000203856C5105A2008992A46D8
:1019F400234608F013FEA0070BD50E20C1430F2287
:101A040028460BF0EFF9C000397807220A40101875
:101A14003870761C099950E704980830039B0A9F94
:101A240037E7D4480CF06DF81020D3490CF071F866
:101A340061E3D2480CF065F80025E9B209297AD2AD
:101A4400E800032900D90838C4B26E1C72B22A20F7
:101A54000023214608F0E2FD0F35E8B208F010FC3F
:101A64000246442021460CF03BF83546E5E7C448DD
:101A74000CF047F802982870C24800250570202011
:101A840006430696C04FEEB2082E68D2E800C4B2F0
:101A94001820412221460CF0C1F828463130C2B248
:101AA4001E2021460CF0BAF830460AF06DF90246C1
:101AB4002A2021460BF0D0FC032E04D830460BF02C
:101AC40007F8401E02E0062E28460CD8C0B240009B
:101AD400385E19214143080E081802125A20214683
:101AE4000CF0B5F804E05A202146069A0AF092FD5B
:101AF4006D1CC8E7A5480CF004F8029828707B42D6
:101B04007B414624A24D285D4006C00F0821A14A0E
:101B14000BF0DDFFC007400E295DBF2277E12A24C8
:101B2400202E9D4D285D9D49087000D1F0E1BF2E07
:101B340000D1F9E100E2102099490BF0EAFF0024FA
:101B4400E0B206281DD2E1003822551A08F098FBAD
:101B54000246E9B220200BF0C3FF641CF0E78F4873
:101B6400029901708F480078002800D1C3E2302424
:101B7400874D28577E21C9437F220BF033F928551E
:101B8400B9E254201821884A0CF05CF80025EBB225
:101B9400032B00D9AFE2E8002030C4B25420214620
:101BA400824A09F02DFE6E00B01DC0B208F068FB39
:101BB40002466C2021460BF093FFF01DC0B208F0E2
:101BC4005FFB0246782021460BF08AFF6D1CDEE79E
:101BD400234642B26020102108F020FDB81E424284
:101BE40042414C25705D4006C00F18210BF05DFF8B
:101BF400C007400E715DBF220A40101870552025A1
:101C04000321E7B2022F31D23046002F01D05030E9
:101C140000E0483004780A988142089106D160B205
:101C240078210BF04FF80446069B00E00023E6B24F
:101C3400052272430995EDB2662029460AF0AEFEEC
:101C4400002E04D07820732229460BF0E7FF002FE2
:101C54004F4E304601D0503000E04830099D08997D
:101C640004707C1C0835481CC1B2CAE70A98401F9E
:101C7400424242414624305D0007C00F30210BF040
:101C840014FFC007000F315DF7220A4010183055C9
:101C940031E24D20285C4023C2B2662020210BF0A3
:101CA40050FF042E00D098E04E24285705210BF055
:101CB40009F8285540210F4392E0092F01D3082742
:101CC40027700A973A4803210170314C5F34082188
:101CD40005260027042F00D10DE200200090CDB28C
:101CE400FBB21E2009912946324A0BF04FFEF6B290
:101CF4000A98801B414241412F48007800910423F7
:101D04002946224607F0DCFD0999241D7F1C083171
:101D1400761CDFE772F400000698002805D0099DC0
:101D2400605717210AF0CEFF605500252F46042D79
:101D340071D01826304678432430C0B2EBB220214B
:101D44001A4A09F05DFD5E20205CE840C00707D018
:101D54006E432436F0B22021122200230AF056F9F1
:101D64007F1C6D1CE3E71820EF490BF0D2FEC2E1A3
:101D7400CBE500006AF600005AEC000062F70000B0
:101D84008AF700007F0E002074040020D6F50000BE
:101D94004C0C0020A2F600003E0300202D0E002073
:101DA4009FEF0000360E0020AAF60000B8E80000FD
:101DB400700E0020F7F10000430E0020042F00D025
:101DC400D2E04A2428570921C94328220BF00AF8F3
:101DD40028552021069B0B43C9E04E20285C402750
:101DE400D9490091C2B2662028213B460BF049FE36
:101DF400701F434243414624285D8007C00F3021B1
:101E0400D24A0BF08BFDC007800F295DFD220A40EA
:101E1400101828556FE10A98032800D0EBE0B84861
:101E24000078C00709D05E2560570F210AF04AFFE9
:101E34006055C4480078400605D423201F215C2245
:101E440009230AF0B3FE4420205CECE02F24AF4DBC
:101E540028571E2178220AF0C5FF28554023334312
:101E6400C2B2662008210AF0C1FB4525A74C605D7B
:101E7400012F08D140B20921C9436E220AF0B2FFF2
:101E84006055334600E0002342B20A32702010212C
:101E94000BF057FEB81E424242414325605D0127C4
:101EA40038401821A54EB04733463840615DFE22C4
:101EB4000A40101860550A9EF01E424242418807AB
:101EC400C00F20211F469847C007800F615DFD2287
:101ED4000A4010186055301F424242414807C00F63
:101EE4002821B847C007400F615DFB220A40101843
:101EF4006055701F43424341C8093021904A0BF09A
:101F0400E6FDC001615D7F220A4010186055F2E0D1
:101F1400401C7C490855C1B203290DD117200AF091
:101F2400DBFE01200AF014FA76480021015518203E
:101F34007C490BF0EEFDDCE0C0B20028F7D00228AB
:101F440000D190E0012800D0D3E00024724E734FFA
:101F5400072C00D1BAE0AE83EF81E0B209F014FFA0
:101F64002880AD1C641CF3E74A20285C20236F49B9
:101F7400009140B20A3082B24E20302421460BF048
:101F840080FD32356A4E902C10D028786978090289
:101F940008183188081A400002B2E0B23821202320
:101FA4000BF0CFFDAD1CB61C1834ECE7052F52D155
:101FB40001986028029C4FD15D4908883222534C15
:101FC400A0545C4A002313703234CA88A2718B88EF
:101FD40023714988A170120AE2711A0A6271090A0E
:101FE400E170000A6070012420460AF0B1F917205C
:101FF4000AF072FE30E044250428605D13D14D4997
:102004000978002979D040B203210AF05BFE615DB2
:10201400C2B202238A4207D060554C21625C7F25FC
:102024001540655400E000233130C2B2122028214B
:1020340006F082FB0024E0B203285CD8182565432F
:1020440024350AF045FD0246E8B22821002308F0B1
:102054009FF9641CEFE7002400203821364A234608
:102064000BF0ADFA47E02848002101700D20C04371
:10207400264D00282DD023490A18135F1C26965F8D
:10208400F71AF9177F184F40332F1DD399B2B3B203
:10209400D689891B0AB2920E8A1812B29209891A39
:1020A4002A182B27D155D673370A1774F31A1EB280
:1020B400B60E9E1936B2B6099B1B5377090A16460B
:1020C4002B367170190A9177801CD2E710201449BD
:1020D40008E00AF0BDFB2B2168542B35000A687018
:1020E40010200B490BF015FD12201821094A0BF0A2
:1020F400A9FD07F0AFFF0BB0F0BD089B94E7C04605
:102104007D0E00203E0300207F0E00204C0C00209A
:1021140009F2000051F2000068C50000983A00007E
:102124003BF4000062F20000FCF6000052F50000EF
:1021340054040020360E002086F70000C1DA0000A7
:1021440049F40000450E002073F20000A5F40000DD
:10215400F0B59DB0029002200A46149002401392FA
:10216400202008400690012603913140129144201A
:10217400D449085C8006000ED34908181190092040
:10218400C043099000271BA81A90D04C10971797AA
:1021940016971596072F00D1C5E0FCB2204609F02A
:1021A400F3FD00B21994214608F078FA0446032F8F
:1021B400384604D82009C649C8551198C05DC5B22F
:1021C4006B00C448C452200F201800B20009010655
:1021D40001D5404200E080B20006BF4988420CDCD1
:1021E400002802D0BD48007800E0FF200121A9406A
:1021F4000140C8B2169901431691032F29D81298A9
:10220400002818930DD1B148007B800709D5AD484B
:10221400C6183A20305C3A36717809020818810BE6
:102224003FD1179E0698002803D0AD48C018F82166
:10223400445221B2284607F0D5F90446A94800784B
:1022440019990BF086FC189B40001A990880179680
:10225400159E0698002803D0A148C018E0214452D6
:10226400032F01D8002000E00120139900293146F2
:1022740000D0014600290ED1022D0CD00A2C02DC1C
:102284000998844204DA9648C018E0210022425298
:102294001BA80021C1521A98801C1A907F1C8B4CD9
:1022A40078E7000200B2C0120BF0A8FC00282DD081
:1022B4008D480078002829D03078717809020918EF
:1022C40048070B460F91000F7E49091832228A5C99
:1022D4003231497809028918844A105A401A81B265
:1022E400C90B401800B24008990009B2890A414359
:1022F40008B21F210BF0F1F886000F98800B02281A
:1023040007D00128189B06D1341904E0179E189BA6
:1023140088E73446189B022D00D0179E022D81D1E8
:10232400012010907EE7607CC0071AD06D480078C9
:1023340002210BF00EFC04460AF0AEFB002800D08C
:10234400644260B27D30E421654A515E012292020A
:10235400511A4143C817800D0818800A1BA98880A8
:102364005A4C0126B00205900698002800D1EDE0F1
:10237400647D1698044059480078FF2141400C427E
:1023840002D018200AF0A8FCF0205549059A0A52F8
:10239400EE200A52514804704C48007E002830D088
:1023A400E2244F4A115F4943E627D25F524355184E
:1023B40040B20BF03DFB03464043854221D91A97B6
:1023C400F00301468AB25243AA42024600D80022D0
:1023D4004A400004400C114601430028F2D1404F0A
:1023E400385F584395B229461F460BF076F83C49AE
:1023F40008531A9C085F784329460BF06EF8384955
:102404000853324CA37D202B00D29FE00020139967
:102414000029024601460AD1E621314D695A1BAC16
:10242400E2885218E221695A64886118274CE47DD5
:10243400002C0CD0601EC4B26000142C03D32C4CAE
:102444000019283802E0264C2018E0300088DC0609
:1024540000D540421C0700D552425C0700D54942D2
:102464005B09022B06D0032B29D0042B42D1831AFB
:10247400841862E00BB2DB0B9BB25C0B0C1924B228
:10248400E4086442A4B28DB264195D0A4D192DB2F8
:10249400ED096D42ADB264199B09C91809B2890AE4
:1024A400494289B2611893B2DB0BD3181BB25B08A3
:1024B4009BB284B2E418631A641811463DE04418D0
:1024C40039E0C0464C0C0020EAF20000C4040020AD
:1024D4001B0E002074040020FFFFFF014B0E0020A0
:1024E40008FCFF1F930E0020390E00205404002026
:1024F4000C04002013B2DB0B9BB25C0B141924B246
:10250400E4086442A4B295B264195D0A55192DB267
:10251400ED096D42ADB264199B09D21812B2920A48
:10252400524292B2A2188BB2DB0BCB181BB25B08DF
:102534009BB284B2E418A31AA418F622FB4DAB5242
:10254400F422AC52401AF2216852F94CF949F6319E
:10255400179800B2002500918842304600DB2846D7
:10256400109909061599019100D001904020039912
:10257400014003911A34B0040D90032013904004D9
:102584000C90F0041090B0050790192008904005B5
:10259400E9492E460490102D00D1A0E300201190AB
:1025A40016952078401EA8421A9600D0ABE21498E3
:1025B40020560BF010FB1890F1B2DC481791451827
:1025C400C020285C1990C035139820560026159F0A
:1025D4003946324604F0FAFCE17800290ED0012194
:1025E4004840D6490978002900D0074662780D3A58
:1025F400082A00D30746002F02D009E0002807D09C
:10260400617A1F200840CE4A1278D040C00728D0F3
:1026140060782E700146083902290FD26179A279B7
:1026240012025118E279120489180C9A11400D9A79
:10263400914212D1169DC0491A9EEBE12D28169D98
:102644001A9E08D117988000B8490818F849119AB9
:10265400514309120164B849DCE1092821D0374605
:1026640021E0199E70424641631C6278501EC0B23C
:102674000B280E93199619D84100AC4A5118E02240
:102684008F5A012603284ED86079A27912021018B5
:10269400E27912048018079A104244D0F8200F5AA5
:1026A40041E0A44FE237601C0E903CE0132811D89F
:1026B4000D3AD0B241000328DE48405A08D8DE4A19
:1026C400511832228A5C3231497809028918401A39
:1026D400470027E023280DD86179A2791202511806
:1026E400E279120489181438079A4000114217D06D
:1026F400D24916E0242809D149B2C8B2400900D110
:10270400DCE1002900D5E2E10E21E1E12B2800D92A
:10271400CDE1400086494018C9494056C70001E050
:10272400C8490F5A01262E706079A1790902081848
:10273400E17909044218631D10980242129315D1DD
:10274400207A00281A9E12D040B27C21C9437D22EF
:1027540009F024FC0BF06CF9129BC719187859780E
:102764000902081899780904421800E01A9E100416
:1027740000D1C5E06E48407C00070F9201D51420BB
:1027840000E064200A90179A550068490B954E5B47
:1027940090000A18156C280A381A01B20A2902DCBA
:1027A4000998814206DA002E05D100260F9800060A
:1027B40004D100E000261998002824D00F980C9921
:1027C40008400D99884213D1207840009D49401853
:1027D4000121C943405E08998D0245431899002997
:1027E40006D0284615460AF078FE2A46129B05466E
:1027F400280A381A010409D000B20028199009D413
:102804000F98000907E019910B9909E0002019902D
:102814000B9905E00F980B990F2606400A9846433A
:1028240042484018403231B201290BDB864909780D
:10283400002900D0761E310402D006802F0A2BE036
:10284400099E093619990680002925D0179518780C
:102854005978090208189978090445182804000EC3
:1028640018D07948007800281A9E17D00F9218992A
:102874000029049A104607D0C81109184140C9B26A
:1028840010460AF022FF129B0B901998002807DCCF
:102894000C2106E038B205021A9E29E0179D19E0C2
:1028A40008210F9ACD400F20284007D002461999DD
:1028B400002906DC0B984042179D04E038B205025B
:1028C40008E0179D0B980A9951430AF006FE451932
:1028D400129B0F9A38B22912199F012F01DB8142F2
:1028E40004DC199F002F02D5814200DA05022F0A69
:1028F400156018785978090208189978090442185B
:1029040004202156100200121CD41A20C043814214
:1029140002DB1C2900DA80E07F20C043414038B24A
:102924000AF0F9FD129B0746169D2AE008FCFF1FDA
:10293400C40400201EFBFFFFB4FDFF1F390E00205E
:10294400930E002008460BF046F901280BDB3AB23F
:10295400002A08D56421081A424310460AF0BDFD36
:102964000746169D0CE00028169D09D539B20129A9
:1029740006DBB9B26430484364210AF0AEFD074671
:10298400129B187859780902081899780904401894
:10299400C1030AD40E9909784A1E032A05D84900AE
:1029A4001BAA8918891E0988CF1939B2189F4F4369
:1029B4001099084216D0217A002913D048B27C21FC
:1029C400C9437D221D4609F0E9FA0BF031F8642170
:1029D4004143CF192878697809020818A978169D07
:1029E40009044018C5494003800F02280DD001286E
:1029F4000DD1642138460AF070FDC049119A424352
:102A0400D017800D1018801203E0119702E011987E
:102A140038181190761C0A34C3E506291BD8169D74
:102A24007944097949008F44111224282D343A003D
:102A34008F020000540400204C0C0020EC03002002
:102A44006D0200000C040020270E002099E738B224
:102A5400002896DC1BE00029169D00D57F42002942
:102A640001D50620411A38B2C91FC9B20AF0B5FB14
:102A740085E738B2C013074083E738B2C0133F1864
:102A840047407EE738B20028059F00DD79E700273C
:102A940077E79848E23039B2CF13074071E738B28C
:102AA4000028059F00DD6CE7924FE23769E72C2888
:102AB40018D1642111980AF010FD19E0122007F0D2
:102AC400DFFB0126002815D08A4FE2372BE61121BF
:102AD400081807F0D5FB0028059F00D022E6854F93
:102AE400E2371FE62E3AD0B200210A4606F066FA13
:102AF400074617E6132007F0C3FB002801D1059F02
:102B040011E600270FE600227B481792027008782E
:102B140000281ED00F466426119831460AF0DDFCC9
:102B240001467248007840003818C0884843A9001C
:102B34007918069A002A01D10A6980180861039954
:102B4400002900D1C7E06D4989880AF0C6FC4643D4
:102B540000E0119E642130460AF0BFFC6A0064491B
:102B640018928852052068435F4D2918AD20400013
:102B7400199111900B18D97804200E901A5612024C
:102B840052182B210901695C4D42AA4200DB15460B
:102B94008A4200DC294601200F901B560A256B430C
:102BA400059FFB185B18183B18B2E237B84200DBEC
:102BB4003B4618B21290824200DC13461998119ACF
:102BC400805645434B4A50194518FA3528B290426D
:102BD400179F00DC474D18B229B21191884200DBDF
:102BE4001D46002E0CD0002E02D41298401B01E08A
:102BF4001198281A00B2704341490AF06EFC074646
:102C040028B2404DA847C61937B21298A8470546BE
:102C1400874200DC35462FB211983A498847064668
:102C2400874200DB2E46572080001999085C002853
:102C340000D07642169B9F2080002B4A105C1F21F7
:102C440001401020401AC0B283423CD21898151893
:102C54002D4AA85C8000010635D0AF1840B2801020
:102C64000AF0CCFF39788A090146032A24D30028C4
:102C740017D11C4A0E9BD25E1B4B244FDB5D9B0677
:102C840004D4009B9A4207DB159A08E0D313D218A8
:102C94005A4012B2142AF7DA019A0F9B5A40002ABA
:102CA40003D1012250401A4A1070194800780028B4
:102CB40000D10F9910480170002904D015482856F6
:102CC4000AF0B6FE06460AF0D9FF02981899465251
:102CD4000AF0D2FF169D6D1C08491A9E5BE41DB0D4
:102CE400F0BDC04674040020C4040020930E0020EC
:102CF4000C0400201EFBFFFF7B0E0020B4FDFF1F11
:102D0400A086010027DB00007D02000071030000A3
:082D1400560E00207E020000B3
:102D1C00F0B587B0FD4800250570FD48068808F021
:102D2C007DF9FC480168FC4A12680260501AFB4CA1
:102D3C002070FB48294604F095FF7C20C04304908A
:102D4C002078002800D176E2F6480178002901D0DD
:102D5C00491E01700AF0A1FDF3498A8890422DD1D9
:102D6C004520F24A105C0A3002062CD0F04A127848
:102D7C00322A28D30A78521C0A70D2B2102A22D3D3
:102D8C0000220A704A88521C4A80FF217831C0B256
:102D9C00484380B291B2884215D21F200240012ACA
:102DAC0011D1E4480178FD220A400270062009F096
:102DBC0091FD10202D2109F05DFE04E04D808880EE
:102DCC00DD4801210170059602F038FA09F0A2FDE8
:102DDC00DA480178002901D0491E0170284605F017
:102DEC00B5F809F043FFD648047805700F20204051
:102DFC00801FD4498E7C042E03D0032E02D10426CE
:102E0C0000E00826C0B2072804D8F0212140202970
:102E1C0000D088E040202146014340291AD1069475
:102E2C000020C643C84C2078411CC8B288423746A3
:102E3C0000D1074609F0EEFD002800D10746F8B294
:102E4C00C82800D03E462670C82801D0069C01E058
:102E5C004220C4430C20BD4E325EBD48415F891AEE
:102E6C00CB0EC9184909090493B2294606D0038030
:102E7C000421415E891ACA0F891849108380B54A0A
:102E8C001278002A00D029464622A84F0392BA5C39
:102E9C00920600D529464180AF4D68796978091AA8
:102EAC00CAB2D2098918FE220A401018687148B2B9
:102EBC00401028722043C0B208F06EF9A748007881
:102ECC008000A74909585C20385CC01DA54A914276
:102EDC0000D0ADE0A4490978002900D0A8E0297AF7
:102EEC0000290DD000222A720622AA5649B2511886
:102EFC00049A914200DC11467D2900DB7D21A971E9
:102F0C009F2189008F4A525C510900D190E050B248
:102F1C00002800D580E048008019C08801218A0271
:102F2C008018C9027FE006944421804C615C8900C2
:102F3C008E4A51184008085C5D21615CC90701D0BC
:102F4C000321081AC7B28A48007839460AF05FFA9A
:102F5C00029039460AF0F9FD002E08D1C11342182F
:102F6C004A4011B2890F511889B289084E1C039737
:102F7C00022F11D14621615C7E4A724B9A5C9209F8
:102F8C004A40D2075B7C0121194000D00226069FE3
:102F9C00002A03D0764201E00021069FFA0772B2A4
:102FAC0000D15242121893B25C1EA3411446444005
:102FBC0024B2049E7C36B44201DC002400E00124DF
:102FCC0023400B4310D100280ED03C46002702981A
:102FDC0003993A4607F0BEFF204609F09FFD1620E4
:102FEC0009F076FE3C461AE717B238467C3080B2C0
:102FFC00F82800D9F1E1029803993A4607F0AAFFA4
:10300C0078B2C01139184140C8B281083C31152042
:10301C0009F086FE002402E748004A494018564948
:10302C0040567D30FA2182B2072050430AF049FB0A
:10303C000694FC490978C0B2884201D009F04AFCD8
:10304C004C2038560028F84B25D51878002822D06B
:10305C00F64800780028FA4A21D00026FD4FB857D0
:10306C00002801D4401C3870022008F0C3F87F24DB
:10307C000146214000D19CE13A788A42F34B0DD9AC
:10308C003E7006990906EE4A09D140B2002800DBD1
:10309C00C3E16320C4E1EE4800210170E84A01203D
:1030AC0002901870AD790020F44FC6B2072E18D2DA
:1030BC00700014185720C000205C00280FD0052881
:1030CC00294603D007F088FCDD4A014648B2049932
:1030DC00884200DC08467D2800DB7D20E055701C12
:1030EC00E3E7DD4D2868002848D00024214608F08D
:1030FC0025F80AF05EFDD9490A78012A059ECE4FC3
:10310C0058D100285AD12C6058E0C046940E0020AB
:10311C0042FFFF1F5CFFFF1F50FFFF1F270E002009
:10312C00EC030020310E0020A80400204C0C0020E1
:10313C00420E00207D0E00202A0E0020390E0020A9
:10314C00340E0020C4040020730E002074040020F0
:10315C00960400202D0E00200A0E0020440E0020A4
:10316C00E0FEFF1F813900001F0E0020EAF2000074
:10317C00930E002071030000B5020000B749002037
:10318C000870B7490C78002C059E069AAA4F04D0FB
:10319C000870172009F09CFD2246B2480270B24814
:1031AC0014210170A74800788000A7490958D0B2B3
:1031BC00884703E0002801D00298087006F08CFFC5
:1031CC00AA4800781F210140022931D1A84804786F
:1031DC00103404700E20A749085E410F411809B243
:1031EC00C9083022BA564A430001101880B2A521F2
:1031FC0049000AF066FA914D29780818401C4008DD
:10320C002870210614D12F21795CC0B281420FD9CC
:10321C0011202E2109F02EFC28780121242209F0FE
:10322C00ABFE0398385C000702D59348322101802D
:10323C0080480021017092480178032901D10021B6
:10324C0001707B480088801B82B28E490B889A42A1
:10325C0000D908808C49C878002800D19CE08B48A4
:10326C000188491C018000208D4DC7B20B2F00D95D
:10327C008DE003200390784371490A184B20C0005D
:10328C0011180591824953180292115C0F260846B9
:10329C003040804A1018401E0078032806963BD117
:1032AC0078007D4A125E002A02D009D4541E1EE01A
:1032BC0000229C56002C1ADBE2430A24544316E0ED
:1032CC0092B2541CA2B2A24211D01E4603227A43DF
:1032DC005B4B9A18714BD256002A05D4521C52B231
:1032EC000A2353435C1E00E0D4433346069E6A4ACD
:1032FC00121808090FD0082801921E4600D9401C4C
:10330C000AF078FC002801D1049C7C3405980178E3
:10331C003346069E019A148031400C292E46ED5DF1
:10332C0008D10024019318570AF064FC002804D03B
:10333C0001240DE02C4635460CE00320784340492F
:10334C000818564940560AF055FC002800D12C4666
:10335C003546019B06990598007808400D2813D135
:10336C00002018560AF046FC00280BD0A0070BD4FE
:10337C004A48029908560AF03DFC0028039C03D1E8
:10338C00022401E0FD200440EC55781C6DE709F0A7
:10339C00F1FA00203C49C8704878002807D000207A
:1033AC0048702B480178002901D0491E017007B0E4
:1033BC00F0BD032007F01EFF04402BD03978A1424A
:1033CC001F4A28D93E7006990906204B00D066E6A4
:1033DC0040B2002823DA642022E0002F01DC049A9A
:1033EC0000E07D220399029807F0B4FD38467D3049
:1033FC0080B20024FA2800D911E578B2C01139182E
:10340C004140C8B280083C21081AC1B2152009F00D
:10341C0087FC04E50A4A0D4B41E6622000E065207A
:10342C0006903CE6920E00207F0E00207E0E0020BF
:10343C0042FFFF1F2A0E00204C0C0020420E0020E1
:10344C00C4040020440E0020E0FEFF1F7F0E00206D
:10345C007E0E0020510E00207CFFFF1F520E00201C
:10346C008A0E00207C0E0020800E0020450E0020CD
:10347C00530E002044040020B0040020B7020000CA
:10348C00410E0020AE040020AA0E0020B60400203D
:10349C005602000099F300002C0400205702000093
:0434AC00EA0D002005
:1034B000F0B58FB004463148007809F09DFC054610
:1034C0002F4F0E22384607942146FCF7F9FD2D4870
:1034D0000AF019FB2A78801DC0B200242146234639
:1034E0000AF009FB3F57384609F00EF906902648C6
:1034F00002780820254902900AF025F92B46F8B2F7
:103500000890E0430390691D0D950591E0B20728EE
:1035100000D31DE206982018C0B2089981420C948D
:1035200001D0002601E01A490E780E2800D90CE2DD
:103530000C99CD002C460834810001A251588F46C9
:1035400095350000B5350000C9350000DD350000B7
:10355000F735000011360000333600006B360000EE
:10356000C9360000E73600007B370000AB370000AB
:10357000CB370000EB3700000D380000760E00203E
:10358000650E0020B9F50000300E002071E6000045
:10359000890E00205D78E1B21C46F3B25420224629
:1035A00007F0C2FF252D00D043E1607A450925359B
:1035B000234642E102201A56E1B2F3B260200AF03B
:1035C0002EFA0D9B9870C0E102981A56E1B2F3B240
:1035D00060200AF024FA0D9B1872B6E1059DA878C8
:1035E000E1B2F2B20007C00F0AF061FA0D9BC0070A
:1035F000000BF721D1E0059DA8784006C00F59784F
:10360000042900D929E1E1B2F2B20AF059FA29E11C
:10361000059DA97801200840E1B2F2B20AF050FA03
:103620000D9B7F214904AA7812040A40C007C00BF1
:10363000B7E0059A107851780902081891780904C2
:103640004018C50D000200120399884200DC1CE1FD
:10365000042018561A21C943884203DB1B28C54A97
:1036600000DA13E10225C44A10E1059A1078517876
:10367000090208180221515609044018042503992B
:1036800088425F5700DC1FE11A20C043874202DBFB
:103690001C2F00DA26E17F20C04347404020304302
:1036A000C3B2E1B266203A460AF04DFA300606D0BF
:1036B0006320C1436422384609F096FB07460D9B00
:1036C00080207840187140E1F3B2581E19468141BC
:1036D00003200D9A12560091E1B24E2009F03BFFF3
:1036E0000D9BD87031E130060A9002D004209B492E
:1036F0000870072009900543049500260121F7B2C0
:10370000042F00D921E1587A0E9108401F210B9116
:10371000084043424341099D754328463F30C0B2AB
:10372000E1B232463032D2B205F008F80A980028E9
:103730001DD08B480078B84219D10498C1B23E35EB
:10374000E8B20822092309F033FA07982E2801D09D
:1037500020280CD10E980B9A02400D99487A5040BF
:103760004872022008F0F6FD00207E490870761CA1
:103770000E980006C10D0D9BC1E70899081A434237
:103780004341059DA978E0B249078A0F724906F0C6
:103790001BFC0D9B8007400BF9210904AA78120439
:1037A0000A408018000CA870CFE0059F3A780F25DA
:1037B0002A40E0B2F1B208F0CBFA0D9B28403978EC
:1037C000F0220A4010183870BFE0059D2A78E0B258
:1037D000F1B21206120F08F0BBFA0D9B0001297816
:1037E0000F220A4010182870AFE0059D6A78E0B2F9
:1037F000F1B21206120F08F0ABFA0D9B00036978C4
:103800000907090D4018000A68709EE0059F7A7844
:103810000F252A40E0B2F1B208F09AFA0D9B290375
:103820007A7812020A400007000D8018000A7870AA
:103830008BE0252D00D9AD1D0D9B300600D184E015
:1038400068B20121372209F0CFFA0D9BC1B22529B8
:103850007AD32C2970D3801F76E0E1B2F3B2474AC5
:103860000AF05EF829786A7812025118AA781204D0
:103870008918384A114029700A0A6A70C007400A3C
:103880000843000CA8700D9B5FE0394AE1B2F4B226
:103890000620234609F095FE002C0D9B55D00221F1
:1038A000284609F011FA0D9B85424ED0811E4A42EE
:1038B0004A41D1011971C005059A91784906490A12
:1038C0000818000C907040E06420F1B20090019163
:1038D000E1B26320C34348203A4606F049FC0D9B01
:1038E000187132E0E1B2F4B20C203A46234608F0F7
:1038F0003BFB0D9B002C28D058570F21C9431622A3
:1039000009F072FA0D9B1871079960291DD10728DB
:1039100007DBC01F14490870144808F021FC0D9BF8
:10392000187941B2002910D5C0430F4908700F48DB
:1039300008F016FC0D9B08E0597A1F220A4040014E
:10394000801860305872252058700C9C641CDDE58E
:103950000FB0F0BDFFFFBF0057F00000700E002059
:10396000430E0020360E0020780E00201182000049
:1039700041F7000023F7000047F70000E4F30000E0
:10398000F0B587B0C549002206920A704221039122
:10399000C349C97C0F220D4604921540C14E3278AE
:1039A000002A26D01420C04E30560AF029F90446C9
:1039B000BE4F002804D03878002801D105F02EFA37
:1039C0003C702806029000D171E0B5480478B848F0
:1039D00005780A27782F08D03278F8B2002104231E
:1039E00004F0ACFE761C0B37F4E7A5422DD38422FD
:1039F0002CE0702211400246803A0E2A00D841E1A4
:103A00000246203A0E2A00D95DE152007A4492889B
:103A1000520097440F000E00BB01C801CF01D40132
:103A20000E000E000E000E000E000E000E000E0026
:103A30000F00B7E7002DB5D1002575700121317059
:103A400009F072F8ED480570ACE7862225201025B4
:103A5000294608F0E1FD26201826562231460AF0B4
:103A6000DFF85D20002404232946224609F040F8AF
:103A7000332031462246234606F020F908F0A4FB05
:103A800000280CD0024626241021204608F0BEFE55
:103A900025200F210923224609F08AF807E0D8489B
:103AA000837C009426201021D74A09F071FF069EDE
:103AB000F5B2042D6ED2284609F00CF80446DD4814
:103AC000007829460AF047F8C1138A0F821812B20B
:103AD0009710002801DC384600E001203A0600D1AA
:103AE000471879B21B20C043814200DC074678B2F8
:103AF0001C2800DB1C277F203040CF490919491EB4
:103B00000C7801280BD0022821D10421362220462E
:103B100006F040FEBA48407CC00705D014E00421FE
:103B20003622204606F036FE601EC0B21E250696DE
:103B300003262946324606F02DFE601CC0B22946F7
:103B40003246069E06F026FE1F20C11B18E02046C6
:103B50001B38C0B23B2105913622B84B9847601EF6
:103B60000696C6B23A21032530462A46B34B9847FB
:103B70003C213046069E2A46B04B984705993C1991
:103B8000E01EC0B2C91EC9B20722134609F022FCCA
:103B9000761C8DE71120009008200025984A0A2302
:103BA000294609F07FFDA6480078964909788142A8
:103BB00001D3284600E0012042005420294608F0A5
:103BC0002BFD6F2029462A462B4608F091FF0298CC
:103BD00000280DD0824C2078002800D1AAE00128CE
:103BE00031D18B4803210E2204F006FD052130E07F
:103BF0003026304607F0C4FC3F20082529463246CF
:103C000006F0C8FD0520C643002EE3D07C4880198D
:103C10007E49405C002814D0B71D441EE0B206F077
:103C2000A7FE03460020009004980190F80728465C
:103C300000D00398BA0078211140123162B203F02B
:103C40008BFD761CE0E773481F210E2204F0D4FCA4
:103C50000021714A00239370012800D06AE0A07807
:103C60004018C0B2062800D964E0C0467844007904
:103C7000400087440339424D51555A005E4808F0D0
:103C80006FFA57E07A4412795200974414555B64F6
:103C90006B75131313131313131314007F0E0020EB
:103CA0007B0C00201F0E0020C4040020540E0020B6
:103CB000420E002076E6002474700221317008F074
:103CC00033FF4E480EE0612800D181E0BF2800D0CC
:103CD00068E60124434E2046B0470320B047022047
:103CE000B047414804705DE65048037040480121E8
:103CF00001704F4808F034FA1CE0012090704948E8
:103D00000078800048494018406808F029FA11E01E
:103D1000384808F025FA0DE0344808F021FA09E0A7
:103D20004848808840423E4903E046480088404277
:103D30003A49088007B0F0BD08F0DAFF09F07AFFD1
:103D400017202DE03E48C174172008F0C7FF8220DD
:103D500008F0EAFEEEE7254808F002FA832008F0B2
:103D6000E3FEE7E7224801210170234808F0F8F953
:103D7000842008F0D9FE15E61D48012101701D4878
:103D800008F0EEF9852008F0CFFE0BE6002D00D0FC
:103D90006D1E29432A48C174A12008F0DBFA1420C3
:103DA00008F09CFFFEE52648C174A12008F0D2FA75
:103DB000132011E0002D00D0F4E5103103E0002DB8
:103DC00000D0EFE53031302008401D49C87402E0D2
:103DD000002D00D0E6E5172008F080FF0025E1E582
:103DE0001F0E002029CB0000540E00206994000013
:103DF0002D0E0020C5140000695500007C0E002027
:103E0000C4040020420E002084F20000B70200002B
:103E1000BDF10000E3EA0000230E0020BE040020F4
:103E2000C2040020440E0020E0FEFF1F810E00208F
:103E300011040000930E002076F7000017DC00004C
:083E40007B0C002094FDFF1F24
:103E4800F0B58BB00546E14809F059FEE04C207802
:103E580000281BD0DF4A117A002010724AB2012ACA
:103E680001DB622200E06322002900D01546DA490E
:103E78000978002901D1632D05D0D84A12569142FC
:103E880002D1622D00D10546D5480570D548007885
:103E9800002805D1D1480278CF482946FCF70CF90B
:103EA800CF4E3078CC4909780691012103912E280C
:103EB80003D0BF280AD060280AD1C5490A78002A49
:103EC80040D0F948002202700A70F84C0020207097
:103ED8000295069840B208F013FC0146F8480078AD
:103EE800002801D000203070F148007800280791A0
:103EF80040D0F2480778622F01D0632F3AD13E466E
:103F0800623E701E34468441EF480578284608F022
:103F18006FFF002D0AD1002C08D00178022901D3A7
:103F2800491E0170022008F011FA23E0202D21D843
:103F380001D1622F1ED00021622F0A9107460BD0B3
:103F4800C8430AE0DE4909780029C1D108F0E8FD34
:103F5800002003903446B9E701202D18E8B208F094
:103F680047FF3978002905D0102903D80278102A8C
:103F780000D875E1012000263546C1B2102900D9C4
:103F880009E10A910890F0B2099008F031FF079B07
:103F98000446EFB29F420BD3F81A062808DCC0008B
:103FA8000830C1B2012000230A9A09F0A0FD079B3E
:103FB80009981F2800D9C4E020780A99884200D0BF
:103FC800BFE0BC4A0F46E8B2984200D2AFE0C11A3F
:103FD800062914DCCF00B64909780022002927D128
:103FE8000699C9B2814223D10898B9490870B648E0
:103FF80006700398002813D0B148007816E0072906
:1040080000D094E0AA480078002800D18FE0AF489B
:104018000078F1B2884200D089E01078401C81E035
:104028000120A7490870002202924A704242424188
:1040380005920837F1B209980491884209D0E079CD
:1040480000210091F9B24007830F1320A54A09F017
:104058009BFCFFB2302000233946224607F060FA65
:10406800022022562D203946059B09F0D4FCA07069
:10407800E078002805D042B248200023394606F0EF
:10408800CBFA207900281DD06179A2791202511843
:104098000722A256120489180BD401461B31C9B253
:1040A800362909D842B260200023394607F058FF64
:1040B80008E06020642201E06020452200233946A0
:1040C80004F038FB6079A17909020818E17909043C
:1040D8004018FF210902014001D0532200E02022AC
:1040E800002901D02A2100E04421000600D00A4618
:1040F8007920394609F090FD6D480078002813D0E2
:1041080072480078049988420ED11820662200234C
:10411800394607F079FF6C48067028460695654AC7
:10412800079B0A9F107002E0624A079B0A9F6D1C5A
:10413800F0B21E2823D8761CA07A0A34B8421BD1C4
:1041480041E70698C0B2B84215D15F480670089892
:104158005F490870E81AC000C01DC1B200241922C6
:104168000923204608F020FD0398002803D108F011
:1041780037FB002805D06D1C0898401CFDE620265A
:10418800FAE751480078214606F062FC4848047076
:10419800504807F0E1FF4A48007800285BD00298B1
:1041A800464C20704C483F210B2204F021FA01288C
:1041B8004AD14348807805282FD8C04678440079EA
:1041C800400087442011222A2E33C0461DF70000E4
:1041D800320E00200A0E00206E0E0020330E002042
:1041E8007C0E00201F0E002008F0FAFA00280AD1E1
:1041F80035490878401C0870C0B20024214606F0F2
:1042080027FC2B480470334819E02F490878401CD4
:104218000870C0B2012106F01BFC01202449087077
:104228000FE0294800782D49087002E02B48FF214B
:104238000170207808F074FC00202070284807F0EE
:104248008BFF00201E4908701E48002101701E487F
:1042580000781E490870681E174908700BB0F0BD39
:104268003B468A420BD10A210A060CD002781C462A
:104278001B7803702270631C401C491EF4E7102948
:1042880004D30A9A03E0114805704BE601227042F4
:104298007041104002462243012A00D042E6091B21
:1042A800081818703EE6C046360E0020810E002021
:1042B800320E00206E0E0020330E00207C0E0020EF
:1042C8001F0E0020360E0020760E0020740E0020EF
:1042D800770E0020B13400003AEE00003E0E0020B8
:0842E800A9AB000071F7000012
:1042F000F0B58BB00990FB4809F005FCFA4C20782A
:10430000421C4E200025294609F0A3FC21780922F1
:10431000104607914843F5490C18F54EA05D40073B
:1043200000D00A22F34F38460999FBF7C9FEA619B7
:10433000F14824187F57052F089406960A970EDC3B
:104340000820FA4909F0E7FBED480078099008F0E9
:10435000D9FC2078002F00D18AE000238EE005955B
:104360000825E649284609F0D6FBB81F43424341D9
:10437000E3480078049030784006820FE149E24C2F
:1043800003952846A0478007400E31789F220A40B7
:1043900010183070F81F43424341CA091020DB490E
:1043A000A047C00134787F21214008183070083FB1
:1043B0007B427B4107252C401820D5492246D24F0D
:1043C000B84728403178F8220A4011183170A042CD
:1043D00009D00921079A5143C44A5118EA01059BA3
:1043E0008B5489184B70002868D02020C94909F0E7
:1043F00092FB06980178294028200A2402290A9B6A
:1044000000D1FEE0012900D014E1069009200799AF
:104410004843B6490818E901425C4518687800022B
:1044200080187D218E00092B0BD100B232460B3251
:104430000021022303F058FB2870010A69700499D7
:104440000591F11D02B28A4200DCF8E06C202027C1
:10445000B34A39462646059C234609F0B2F8287827
:104460003530C2B278203946234604F067F916E1A8
:1044700040B25E2108F028FC2070099BC2B2602087
:10448000082105F087FF2078002822D0401EC0B206
:1044900006F01AFB06460820A54909F03CFB2078E7
:1044A000252811D38221002200920191253842B2A1
:1044B00048200821334603F04FF90AE0202009265E
:1044C000089D0A9C8B4FEEE048200821324609F0F7
:1044D000C0FB09200799484384490E189549705C30
:1044E0000A9A012A08D1751840B2062108F0ECFB9F
:1044F000287009990A9C01E000211446C3B2042BDC
:1045000004D800914E2010218C4A05E00091401FF4
:10451000C3B24E201021884A09F03AFA022C14D175
:10452000874864210170874D705D771901217956A4
:10453000090208187D210A028349022303F0D4FAF4
:104540007055000A7870099B00E0002308980078F5
:10455000252810D37B49725C7118012549578225A3
:104560000093019509028B18253842B27820182152
:1045700003F0F2F80AE07348315C301801228056EB
:10458000000242187820182109F0DDFA6F49705CAA
:104590000025032C09D1771840B21521C9431622F2
:1045A00008F022FC3870099B00E02B4642B26020E4
:1045B000202106F035F8DF208100705C042C06D144
:1045C000751840B2212108F07FFB287000E00995A2
:1045D000069DC2B260202821099B07F003FF601FDF
:1045E000434243412878C006820F3020584905F0E5
:1045F000EBFC8007C00E2978E7220A4010182870CB
:104600006DE005940690092007994843374908183A
:10461000E901425C45186878000280181C46092BA5
:104620001BD140B20F2108F04FFB002169702870A8
:10463000049913E0089D2F4F26461C4633E0B242F2
:1046400018DD0C30C2B26C202021059B07F010FF52
:10465000089D284F0698264624E00021089D254FF6
:104660000091C3B25A2020212B4A09F091F90698F3
:10467000059E18E0264678202021059C234609F057
:1046800062FA002C0BD00998802805D12878697827
:104690000902081807F018FF204800210170089D42
:1046A000144F06980A9C1F49069009F034FAA64256
:1046B0000FD1099880280AD10921284609F0C5F9A7
:1046C0001648002101700A2C01D103983870049B10
:1046D00000E000234820144A069908F072FF0BB04E
:1046E000F0BDC046D5F400006F0E0020C4040020C9
:1046F0007D0300005D0E002079030000D2EE000073
:10470000890E002068F10000C99F0000C9F4000074
:1047100052F1000047F5000060E70000360E00206F
:10472000A2F70000F5F600009BF50000E9ED00009F
:104730005DF700007A0300000AF30000EEE60000D7
:10474000800E00207E0300000083FFFF7B0300003B
:044750007FEF0000F7
:10475400F0B583B0E34E0125357006F09BFB0024D1
:10476400E1480157002907D5E04A13783746F02677
:104774001E40331D3E461370DC4F3A78142A35D858
:104784005200C0467A449288520097449E009E008C
:104794009E0087006A000D010D010D010D010D0140
:1047A4000D010D010D010D010D010D011400140089
:1047B40014000D01110107F01FFD032009F050FA48
:1047C400C02009F0D5F808F0D7F93878401C3870C3
:1047D40038780F210140032903D33878F0210140B0
:1047E40039703878202101433970DDE010462038D3
:1047F40003286AD310463038032818D2252007F03E
:1048040007FEBB480178BC2900D0CDE0417A0129DC
:1048140000D0C9E00321C943B74A002936D0531850
:104824004418647A7D25ED005C55491CF5E7242A7B
:1048340017D0342A00D0B7E00024204608F005FF42
:10484400800600D5F7E0252007F0E2FDA84E717A36
:104854003078AA2800D0E7E0FC2900D0E4E0012069
:10486400E7E0AE4D2878411C2970AD490C5CA7489F
:10487400007803F01BFE3878DF2101403970287876
:10488400102800D280E0002028707FE03878F021E2
:104894000140C81C3870A348002110E0A14A1378D5
:1048A4005B1C1370DAB2042A0FD33A78F023134056
:1048B4001A1D3A70994A0123137080221143017022
:1048C4003878DF21014039706EE0894CFF20207276
:1048D400E071A0710020A07286490968617003220A
:1048E400D243D21C62710A0E22710A0CE270090AC8
:1048F400A1703E788A49102804D022180B5CD37228
:10490400401CF8E720461B300A21FF2209F09CF8DE
:104914002520002121540F200640751E032D20D28E
:10492400BC202070032E11D1F920800072490A5C4A
:1049340062710818C17821728178E1714078A071A0
:1049440020460B301021FF2209F07EF880202077CA
:104954000120E076E8B20228624E00D30225657297
:1049640006E0002E5F4E03D101206072BB20207050
:104974003878DF21014039706B480078C00701D0D6
:104984000D2401E07320C44307F06CFEE1B225203E
:1049940006F072FE08F0F0F863480178491C0170D3
:1049A4005B480188491C01800020307003B0F0BDD1
:1049B40007F022FC284609F053F9C02008F0D8FF7C
:1049C40038782021029108433870514800880190BA
:1049D400504908F050FE4E424E414F49019808F0AC
:1049E4004AFE002900D075004848057008F0C4F854
:1049F400424D434E2B2C12D0285D002802D0401E7D
:104A040028550AE001200021224608F0D1FE326830
:104A140082433260706888437060641CEAE73878C7
:104A24000299084338700AE0AA280AD1FD2908D15E
:104A34000220364908703878DF2101403970294E48
:104A4400B2E7AC2801D0AA28F5D1701C2949042565
:104A54002A4608F036FF0290F920800026490918FA
:104A6400701D2A4608F02DFF02990843E3D11D204A
:104A740008F0EBFD2149FF220A7121490A6810233D
:104A840013430B603C2800D83C201E4D29691E4A64
:104A94001368591A08181060642108F016FE28617A
:104AA4003078AA281BD0AC28C5D134460934A01BC1
:104AB40008381928BFDC2078FF28BCD0A578AC21A1
:104AC400204603F04DFC2819C41CF0E730190930C6
:104AD4000178FF29AFD0AA2103F042FC241D1C2C2D
:104AE400F4D1A8E7830E0020380E0020820E0020A7
:104AF400B8FEFF1F78FFFF1FC4040020AF0D002085
:104B040000F8FF1F08FDFF1F980E0020690E00200B
:104B1400B40400202106000021050000400E0020FE
:0C4B2400DA0D00204C0E00203B0E00209B
:104B3000F0B58CB01F246102CB48426B0A4342633C
:104B40000121CA06836B13438363C84BDA681020C4
:104B50000A900243DA60C64DAA69C64E3240AA6185
:104B60006A6832406A606A6932406A61C248826833
:104B700032408260C14A956D35409565556F35402C
:104B8000556705683540056016259D60DD680D4355
:104B90000E27BD43DD60002506951D6247255D6239
:104BA0001C605C6A80250B952C4340250995AC431D
:104BB0005C621C682406FCD50F2007900304B04EED
:104BC000746D9C4374650B02AE4C23646364A364F0
:104BD000E364756D3D4375656360A360E360202504
:104BE000ED437561A8480361756D0D437565C84354
:104BF0000490356C0540356423608D07A34C6769CC
:104C00002F4367612768AF432760936775690A98E8
:104C1000054375613568054335609B48C360CF0720
:104C200065693D430897656125683D432560D36705
:104C30004D0377692F43776137682F4337600363EC
:104C4000934F7D6D0B9805437D653D6C05433D6439
:104C5000874DEB6107988504104662692A436261BB
:104C60002268AA4322608364C364036543650546E2
:104C70000320029000022A6C024305902A646A6CA9
:104C800002436A64079802027D6915437D613D68AD
:104C900095433D607848036243628362C3627A6DE4
:104CA000049802407A65724803607A690225AA4333
:104CB0007A61714A53607A6D0A9DAA437A650361ED
:104CC0000A037569154375613568954335606E480B
:104CD000C36288050190644E326B0243326348021E
:104CE000654A9061039050616A4D12200490A8704B
:104CF00019226A702970684A083A10680791674952
:104D0000084010600798800265490860A878099AF1
:104D10001043A87078690A9A104378613868104384
:104D20003860554D2B61786D042210437865386CDE
:104D3000904338644E498B605A48026078690B9AF8
:104D400010437861386810433860EB617869082255
:104D500010437861386890433860EB606069029D69
:104D6000284360612068A843206044480360436092
:104D7000CB60494BD8684C49084008994018D86026
:104D8000474C21600799CF05B06B3843B0630520CD
:104D90000A9000020090DB30444A106095609F202A
:104DA0001061072090611D4658683C4A1040C019A8
:104DB00058602346019820603D48069C04603D48A9
:104DC00030604806B26B0243B2633B483B4A8260A4
:104DD0002A68324F3A402A608A041A6049220260E7
:104DE0003148401CB26B0243B2633548354A826099
:104DF000FF2212022F689743CA03BA182A604A0496
:104E00001A6004608B06B26B1A43B2632E4F2F4AAE
:104E1000BA60FC602E4A3A611B48059A026032680B
:104E20001A433260039A426028681F4A1040089A69
:104E300080182860C8041A4908603C60306B0999E2
:104E4000084330630D480099416601662148049982
:104E500001700B99417020482049416084600A9993
:104E600001600CB0F0BDC0460480044000B00340B7
:104E700000C00440FFF8FFFE00B0044000D0044032
:104E800000F00F4000A004400490044000F10F40E7
:104E900080F00F400160074010E400E0FFFF00FFDA
:104EA00000E100E0C40000F8FFFFFF0000710340D4
:104EB000007003400000010100900340FF0B000060
:104EC000008003403B2D000000A00340FFFF0000D6
:104ED00060EA00000160064010E000E07FBB0000D7
:104EE000F0B591B08278EE2A0CD1C378C84A127816
:104EF000934207D1C74C2278002A0F930AD0C74BA0
:104F00001B780AE0C34800210170C34C00202070C8
:104F100011B0F0BDC14DFF232B7006795DB2109624
:104F2000AE4201D0FF2BF3D10F9B5D1E0C230C93DF
:104F30000D956B43BA4DEB180E93109B5B1EB74D4E
:104F40002B700523B84D8B4206D2C75CD6B2AF5545
:104F5000521C22705B1CF6E71098002805D0AE4862
:104F60000178491C0170AF4CD0E7AB4800270770AF
:104F7000D0B20428CAD30E9B5989FF2009918143DE
:104F80000F980818588169789E792A781091C90974
:104F90000B910A96002E15D01946DB799342B5D1B4
:104FA000089207977F27109B1F400B890F211940FC
:104FB000B942ABD10999C905C90F0B9E8E42079F13
:104FC000A4D106E008920C230D994B439449CB18C9
:104FD0001B8907970E9E31460A310F27109A3A40D7
:104FE0000997BB4310929A180D923281089AF27178
:104FF0008E4A10400B9A120210180880AF1C3846D7
:1050000008F0C8FD0A9A0346002A07D0308888496C
:10501000081839461F4608F0ECFC1EE03946854862
:1050200000880B903080D8B20C281F460C9B00D80B
:105030003B46B01D109A0D2A00D13B460370DAB2F0
:105040007B480B9BC0183E46174608F0D2FC0B98D5
:10505000C0193746774908800E9E32460832F81C40
:1050600010990D291AD0092900D0B8E00B92C0B2CE
:105070000A902E18304608F08DFD6F490B78002BF2
:1050800034D0F0210D9A8A433818001DC0B2285C34
:105090000007000E10180B990880A0E0F0210D9B6E
:1050A0008B43C0B2285C0007000E181810806248BD
:1050B0000078002800D092E0781DC0B22818109027
:1050C000374608F067FD05465A480688BE80092D18
:1050D00000DB09255648801910992A4608F089FCFA
:1050E0007019544908800E98857074E008960E99DE
:1050F0008A78002A0B9A01D00D9E60E004930597F0
:105100008A1C03924B4A1288494B092601969E54E9
:105110008A801090431E0292561C079F38460899B9
:10512000069309180E91191AC219109B0C929A42F3
:1051300035DA0E9AD35D3B2B03D0B94201D07F1CE8
:10514000F2E70A9A8218B942394900D17F1CB0B2FD
:105150000818A918092F00DB019F3A4608F049FCFE
:10516000F619344A1680324B092F06DAB0B22021E4
:105170001954761C16807F1CF6E7099800020D9AD8
:10518000110A8243481C0007000D82180D920B98EB
:1051900002800C98401C079F0899069BC1E7B0B29B
:1051A0000021234A1154701C224908800299401A98
:1051B000039908700D9E059F0B9A049B1098F0218F
:1051C0008E433818001DC0B2285C0007000E30184E
:1051D0001080002B03D119480178491C0170184830
:1051E0000178002902D0002101700CE00F98401CCA
:1051F000074A107013490978C0B2884203D90120C8
:1052000010700D4908700748012101707EE6C04604
:10521000AF0E0020470E00204A0E0020AE0E0020E8
:10522000820100202B0E0020C20C0020FFFE000097
:10523000AC080020B80400204E0E0020490E0020CB
:085240003F0E0020460E002085
:10524800F0B58BB0BA498879401C887100200121DB
:105258000691B94DC7B2012F00D9F4E0002F02D052
:105268003720000100E0B748B74908180024005764
:1052780039016E180028069B1BD016280CDB153840
:1052880040B208F0B9FCB1798142069B11D0B11D3A
:105298000028087005D10CE008F0AEFC0028069B39
:1052A80007D0002F02D008F0C1FC01E007F01CFD78
:1052B8002346052179439F48039140180890857833
:1052C800FE202840022801D1A0488488A048007800
:1052D800002800D09F4C0794032008990C56042DF1
:1052E80005D368009C4940180838008807900122B7
:1052F800002D0492059337D0162C24DBF0783188E2
:1053080001438B4A9079084391880143B078084358
:10531800B11C002801D1002008702046153840B281
:10532800019108F069FC019A002808D01178002939
:1053380005D1F11C0A7853425341019A0B70107041
:10534800059B049A10E0002C0DD0204601972746B3
:105358002C461D4608F050FC049A2B4625463C4630
:10536800019FF07000E0F2703088F1780029029413
:1053780001D1014608E09102079A12B251188A0E2B
:1053880089188911C9B24118694C002B00D101460E
:10539800318007F0A5FDA188401A80B2642850D357
:1053A800A279318809A808F0DDF9099807900A99C7
:1053B8003180002F05D00021A171211D6420059B9B
:1053C80005E02188491C2180A11C059B04980A88B6
:1053D80012180A800798000602D03189491C3181C9
:1053E800002B06D0F11C0978002902D0B188491C8D
:1053F800B1807189400E0A1872814E480399405C49
:105408000899497809020818B08131460C31002DF5
:10541800034610D0012D04D1029A002A08D0B28880
:1054280007E0022D01D8328903E092B2120900E0A8
:105438006288831A0B80089A1279002A01D0C01A50
:105448000880781C05E7A889E98981426BD0394B27
:1054580019785A781E79E881EB78002B63D012020C
:105468005118002E00D0081A07B23C4C207840078B
:1054780026D5002924D00A2F07D0B8B2142807D07F
:105488001E2808D1192029210EE01B202B210BE012
:105498001A202A2108E0052F47DC28480A3000B2E4
:1054A800874203DDF9B21C2007F0E6FA06980028C7
:1054B80006D020780821014002D0214832210180FD
:1054C800002F01D4384600E0A889002E00D13846C4
:1054D80001B209A83C2208F045F92078800715D5C3
:1054E8000A98002812D1607A800703D4002007F0B8
:1054F800F1FB05E00998002802D000B208F028FA6C
:105508002078000702D50E4832210180A8890B496E
:10551800884208D91C2007F0DDFB2078000702D557
:105528000748322101800BB0F0BD00200690BDE78E
:10553800A0040020000E0020CC030020F5FF00008E
:10554800B00400206F030000C4040020740400208D
:105558007B0E002000FCFFFFEC030020920C0020D3
:10556800F0B587B00290B44808F0C9FAB34E347861
:10557800B3480078002804D1B0480F220299FAF7FE
:105588009BFD0025AF49284608F0C1FA07F054FAF8
:1055980002B266202F46294608F057FB3678AA49FA
:1055A8000878022803D100200870A8490870A84884
:1055B8000278511CC9B28E4203D2721E0AD200224E
:1055C80008E0111DC9B28E4204D9321FD1B20A298E
:1055D80000D30A2261B2019102709E499B4D03A833
:1055E80054C0F8B2062832D2B818C4B2351B6B4280
:1055F8006B41401CC2B2F8001030C6B212203146CE
:1056080008F047FA2D209349085C844204D1012010
:105618002A22314608F000FB06960F262046964CB3
:105628002146324605F02CFD68426841874D2978AD
:10563800014010310091182006992246334608F09F
:105648002DF87F1C049C059E8249039AC9E77C4873
:105658000078002807D02D27C95D78480078814256
:105668001AD07E2519E0029A1046643802286CD3B5
:10567800602A79D0BF2A00D199E06E2A74D0812A95
:1056880000D1A0E0612A00D0B8E02878012800D035
:10569800CFE000202870CCE0592508F0A7FA0028B0
:1056A80001D16920C5434F206A49085C400701D4ED
:1056B8003F200540E9B268480A2202F099FF012814
:1056C800624D00D09AE05E488678052E5ED8B0001C
:1056D80001A108588746C04681570000F9560000C6
:1056E800F95600008B570000955700009D570000A1
:1056F800524805785748C5555A48012707700298F7
:1057080007F00EFA06F0C0FF284601F057FB56488E
:10571800C17802220A43C270384606F017FE06F026
:10572800B3FF06F045F803F097FA5048807A08F07E
:1057380049FA06F0D1FF42480078022801D0022E2B
:1057480057D14B4807F0D8F856E02D20085C3B4964
:10575800097888423BD11046642A01D065284DD18A
:10576800434807F0C9F849E04248002707702878FD
:10577800012835D12F705CE03D4807F0BDF8059E43
:105788003CE03648059E067001200AE0012028709A
:10579800059E36E0029807F0C3F93048059E06706A
:1057A8000020294908702E4806F0D6FC26E0002083
:1057B800234A107028702D20085C204908700120A9
:1057C80002F0C6FB1AE0012006F0FCF816E0022001
:1057D8001B4F3870104607F0A3F9002078700DE0D1
:1057E800012017490870029807F09AF91448477081
:1057F80004E0012006F0E6F8059E144D28780128FB
:1058080017D10198B04214D0601CC0B2711CC9B243
:1058180006F05AFA2D200F4A115C8E4201D1145419
:1058280004E0019A8A4204D10A490E54012006F084
:105838008DFD07B0F0BDC04630F60000580E0020C0
:105848001F0E00203BF70000900E0020590E00208C
:10585800300E00204C0C002061EE00008F0E00205E
:10586800759B0000840E0020AA0E0020C4040020AE
:0C58780011040000360E00203E0300204A
:10588400F0B585B00746B34EF07B0490B24800787B
:105894000290B24805780020B149039008F039F924
:1058A400F07B0F242040032800D9F8E078440079E5
:1058B40040008744011C4F760194A84805243946CA
:1058C4002246FAF7FBFB0820AD4908F022F9707C68
:1058D4000027012D6ED14009072107F0F3F9717CEF
:1058E4001F220A40400110187074012363E09B4892
:1058F40004223946FAF7E2FB08209D4908F009F929
:10590400012D0AD1082130220020034606F07EFB37
:10591400602F02D1974806F021FCBF208000305C44
:10592400400703D11020944908F0F3F8032D00D167
:10593400C5E0022D00D0E5E01021302200252846E4
:105944002B4606F063FB602F00D0CDE08B4806F0B9
:1059540005FCC9E00194814802223946FAF7AEFBFE
:105964000820804908F0D5F87F4FF05DF41961787C
:1059740009020818012D31D100B24B218A00C83226
:105984007A49022302F0AEF80246F055000A60702C
:10599400714803786620082108F0D3F8019C039F1E
:1059A400C5E0082000906D48012339462A4600F0DE
:1059B400AFFE74E03B46C0B2420931323C200821BC
:1059C40002F0BAFE307C022D17D140B20121C94346
:1059D400042207F007FA307402990FE002B266203D
:1059E4000821039F3B4608F0ACF8002D019C59D0D8
:1059F400022D00D09BE0102096E039460091801CD7
:105A0400C3B23C2010215F4A07F0C0FFF07C032D95
:105A140008D140B20321C9430A2207F0E3F9F07424
:105A2400029B00E03B4640B2322141434B208000C0
:105A34000A184C201827394608F083F8524938468A
:105A440008F067F8707E042D08D140B21321C943D1
:105A5400142207F0C7F97076212300E020234B4974
:105A6400009140B24443E134A2B24C20202108F01A
:105A740008F8681F43424341B27D01273A40282475
:105A84004349204604F09EFA3840B17DFE220A4084
:105A94001018B0753F49204608F03BF8019C002DD2
:105AA400039F44D1F07B2040032107F00BF92040F1
:105AB400F17BF0220A401018F073029F37E027466A
:105AC400294C305D351901216956090208184B210A
