:1000000000180020E1C9000059BF00005BBF0000DC
:1000100000000000000000000000000000000000E0
:100020000000000000000000000000005DBF0000B4
:1000300000000000000000005FBF000061BF000082
:1000400065BF000067BF000069BF00006BBF000014
:1000500063BF00006DBF00006FBF000071BF0000F4
:1000600073BF000075BF000079AF000079BF0000CA
:100070007BBF00007DBF000099C6000081BF00006B
:1000800083BF000099B50000CDCD0000C9C60000B7
:100090008BBF00008DBF0000BDBD000091BF000000
:1000A00063BF000093BF000095BF000063BF000066
:1000B00097BF000063BF000099BF00000DC30000A0
:1000C000F0B583B002920F4601900825BB48425F0D
:1000D0000621BB4E715E891A8B0EC9188911B94B66
:1000E00019700A23C35E705FC01A840E0019801154
:1000F000B54C2070C0B2C9B2002901D092B2F280D2
:10010000B24C002801D09AB232812478B04A1378D8
:10011000002B03D1B94B1B789B0606D50020AA49BA
:100120000870A849087010700146002904D1002801
:1001300002D17088002801D00CF078FDA54806781F
:10014000012000900298FF285ED0A3480078012883
:100150001FD0002841D1A2490878012802D10020EF
:10016000087034469F4B5A5700201872012A18DB3A
:10017000611CCAB2521A531E9A41B442019B01D269
:10018000002A22D01978029A91420ED2491C197085
:100190001AE000202E2F1CD09049097800291CD18C
:1001A00017E0002A03D421460FE018700CE0002C61
:1001B000019D01D0611E08E02B78002B029A00D02F
:1001C0005A1E2A70009A0A7001462E2F04D101206F
:1001D0000C468149087000E00C4683480078401CBA
:1001E000C5B2854201D00020C5430CF03FFD002878
:1001F00000D10546E8B23D2804D3012076490870B5
:10020000764908707848057078480670734D2878EC
:100210000028019B17D03846603805283CD938465D
:10022000423803284CD9212F00D171E02E2F3AD02B
:10023000812F64D08E2F68D0BF2F00D0A2E0002481
:100240001C702C709EE060480078002813D019784C
:10025000091A4AB20020002A00DC0146CAB2029DF7
:10026000AA4200D32946197057490870E0B2B0423B
:1002700000D33446594D18780028CCD05148007826
:100280000028C8D0241A60B2002800DC0024E0B2A4
:10029000B042C0D33446BEE778440079400087447A
:1002A00002711D262B5B0298FF286BD028784142F3
:1002B00041412970002865D147480121017061E062
:1002C000784400794000874401293545187802991F
:1002D000884257D02978002904D053E02878002894
:1002E00050D118780299884246D3002045E02878FA
:1002F000002847D1187817E0002E20D142E00020D6
:10030000287000980BF0A6FC3CE08E200CF050FD0D
:10031000287800282CD00020287033E01878002896
:1003200030D0297800292DD1002801D0401E02901C
:10033000029822E0002E25D0E0B2B04222D02878E8
:1003400000281FD12A4900200870E1B2B14232D3FF
:10035000044617E0200615D0002E13D02878002878
:1003600010D123480021017020060AD0661E08E043
:1003700000200BF06FFC05E0401C1870E0B2B042AA
:1003800000D33446114804700020124908702878C0
:10039000002801D0022100E00121094B154A11700B
:1003A00059884A1E91410028009A00D10A461248F5
:1003B000027003B0F0BD641CE4E7C046980400205E
:1003C000BA0400201F0E00201E0E0020330E002055
:1003D0001D0E0020610E0020730E0020260E00204E
:1003E0003F0E0020FC0D0020780E0020800E002023
:1003F0006E0E00207B0E0020250E0020BC0C00207D
:10040000FFFFFFFFFFFFFFFFFFFFFFFFFEFFFFFFFD
:10041000F0B595B0244902260E70244C07222146DF
:10042000059209F027FB0146214F3878401EC2B2E1
:1004300020461291FFF744FE1E4D2878411ECAB295
:100440000D2A0AD81C4BD340DA0706D048B28000E8
:100450001A4908580BF0AEFF28780D2801D900F092
:10046000EEFE24781394400078448088400087444E
:100470000D00E6062B00FE004301E606E6065501E8
:100480005200E606E606E606F000EE020C480DF025
:10049000B1FC0E203870601CC2B20A4807210DF072
:1004A00049F800F0CCFEC0467F0E00204B0E002025
:1004B0006A0E0020150E0020312700007CC30000CA
:1004C000ECED000044C30000F9480DF093FC062059
:1004D0003870F84807780825F74928460DF092FC4F
:1004E00063426341F54EB07D4209F549284609F063
:1004F000E9FE4001B17D1F220A401018B075F07D61
:100500000025012C00D0D8E240B224210CF010FDCF
:10051000F0753B46D2E2EB480DF06CFC10203870D1
:10052000E94800781190139840B20CF045FA139BFB
:100530000D900022072A01D100F081FE0D9881184C
:10054000481CC0B214904000C9B21291994202D125
:100550000221F94C2170D94940181499102901D869
:10056000F64900E0F64945180E92D0000830109088
:100570000024032C6AD200201199A14201D0014627
:1005800001E0CC490978129A9A4200D00146CEB2D5
:10059000711E304688411499102955D87F21214079
:1005A000012921D000293CD140000F901098C6B2FB
:1005B000002738463146149A3B460DF013FC287844
:1005C0008009022800D901270F9B3046F3493A469B
:1005D00009F078FE3F21002800D0C843139B2A78F9
:1005E0000A4002432A702FE028781099C9B2800689
:1005F0008216452033460AF053F9139B002E23D070
:1006000028781521C9438006801616220CF018FDA3
:10061000139B3F2101402878C022024050182870C7
:1006200012E00127EA571098C1B2782033460DF046
:1006300001FC002E139B07D0E8577C21C9437D2283
:100640000CF0FEFC139B6870641C92E70E9A521C1F
:1006500070E7DD480DF0CEFB0A203870042C0E96B2
:1006600000D93AE20CF082FC00252C4637E2D7484C
:100670000DF0C0FB11203870AF4803210170AC4869
:1006800000780D90139840B20CF096F9139B0490EB
:100690000F2B00D90FE35800CD4C205AC10B401846
:1006A00000B24010CB4942184E2000210DF04FFC03
:1006B000139BC9480078802800D00BE30D980028D0
:1006C00000D007E3052058437C49081857218900CA
:1006D000425C0499591A4900615A002A00D04942E3
:1006E000FF225E328154090A8018417002200BF00B
:1006F0005BFF0CF011F9ECE2B8480DF07BFB052034
:100700003870B74800240470B64E35781398002826
:1007100001D100F0C4FC234600F0CAFCB2480DF041
:1007200069FB0C20387084480321099101708048CE
:1007300000781190139840B20CF03EF90890002414
:10074000072C01D100F07BFD5A4800781490E0009E
:100750000830C5B200274C22384629460DF0DEFB92
:1007600008980019C6B2082E0F9401D8312100E074
:1007700038210818C2B2052029460DF0CFFB099890
:1007800070434E4909184B20C0000E9112900B5C2B
:1007900013988642149C00D03C46119E002E2046A1
:1007A00000D03846C0B200900F20109003400D20BA
:1007B00029468E4A0DF063FA022E204600D03846B4
:1007C0000C90012E149400D03C460D9488480E9C49
:1007D00026181298205C109908400CF021FC022881
:1007E0000A960B9016D0012820D0002100282ED187
:1007F0007756252F34DB7F4961560C9AD2B200928E
:1008000082220192253FFE223A407D31382A5DD076
:100810000B465DE07748225C0C98C3B25020294615
:1008200009F07AFF32780D98C3B259E000203256B1
:100830000D98C3B2362029460AF032F86D48225688
:100840000C98C3B24D2029460AF02AF84CE07256A3
:10085000694900912021002A07910AD40D9F0AE0DE
:10086000644822560C98C3B2632029460DF0E2FA80
:1008700033E00D9F0F43FBB2D109514048B2401CF9
:1008800082B2492029460DF075FA5A4820560028B0
:1008900001D40C9902E00C99079A1143CBB2C1091B
:1008A000414048B2421C6B2029460DF0C3FA1BE0C0
:1008B0005CF800007B0E0020FFEB0000EE0400203F
:1008C0000FF40000A5F60000330E00200A234B436E
:1008D0007AB26420294607F04FF80D9F3278FBB2B8
:1008E0003620294609F018FF11981499129AA61873
:1008F0000328084600D0002031780A09082A00D9C8
:10090000521CC3B26820294609F0CAFF3B48007850
:10091000002800D198E01498000600D194E01198C6
:10092000032800D990E003A1085C40008744C0463A
:10093000330E00200A212F40610E00207B020000B0
:10094000DF0200003078109D28400E210CF0F0FAF4
:1009500028403178F0220A40111831700CF060FB09
:100960000B99814270D00020224960540A99087086
:100970006AE00B98032867D87844007940008744E0
:10098000013F014600210A9C60565E2245E00B981B
:10099000032859D802A1085C4000874495F600005E
:1009A0000342484D134D60577C21C9437D2248E0E6
:1009B00030780009109C21460CF0BAFA31782140B9
:1009C0000001081830703FE0ABFA000065FA000043
:1009D00010040020DC0500006E0E0020CFF900009E
:1009E000710E00206B0E002013F60000EAE90000F3
:1009F000560200005702000047FB0000250E0020B1
:100A000000200A9C20561521C943162205E000202B
:100A10000A9C20563121C94363220CF011FB20703F
:100A200012E0FC4D60571521C943162209E0F94D2B
:100A3000605700215E2204E0F64D60573121C94322
:100A400063220CF0FDFA60550F9C641C78E6F248B6
:100A50000578F2480DF0CEF9139C0A2C00D99EE2DD
:100A60000CF084FA224610203870052C00D9E8E3F7
:100A7000002A02D1EA480921017051425141E94856
:100A8000007800910821E84E0A2732463B4609F0DB
:100A90004BF813980128149501D000F048FC1298E7
:100AA000602802D1B07A0DF00FFAF05731210CF026
:100AB0003FFAB0722B4600F03CFC2B46C2B26620D7
:100AC000102109F029FE307E1399022953D140B23A
:100AD00064210CF02DFA30764EE005240125CE4835
:100AE00007780826D14930460DF08CF92A46313274
:100AF0001E20109631460DF011FA1398149484427A
:100B000011973B4600D0002305206843C84A115C7A
:100B1000141801201290205600930002421847201A
:100B200010990CF052FC1399149D8D420E9E16D113
:100B3000C0483C2202703B20C143002528460CF0EF
:100B40007FFA2178627812025118081801B2002940
:100B500000DC28462070000A60701399149D681C00
:100B600088423DD10220205613210CF0E1F913995F
:100B7000A070012235E02F46C2B2542018213B4616
:100B80000CF034F8139DE81E42424241B07D40070C
:100B9000C00F2021A84CA047C007400FB17DFB2209
:100BA0000A401018B075281F424242410807C00F82
:100BB0002821A047C007000FB17DF7220A40101876
:100BC000B075681F42424241C806C00F3021A0479D
:100BD000C007C00EB17DEF220A401018B0752EE399
:100BE00000220529129B00D381233C20102109F00B
:100BF00097F9032728463043002213998842119B16
:100C000000D013461092E257002B304600D03846F1
:100C10000F9700905A2018210CF026FEE070139DCB
:100C2000149F781BC01C43424341227920208349F2
:100C300009F048FB2071381DA842119B109A00D082
:100C40001346002B0F9800D00646774C052D02D393
:100C50003720000100E07A482518AA5600964F2058
:100C600028210CF001FE724F7A7976496254FA78A5
:100C7000754BE254FA79754BE2543A7A744BE2546C
:100C8000744AA35C7F261E407B7ADB01F318A354D1
:100C900028707878A073387860736018B9794170DB
:100CA000B878E072387912990840217BFE220A4018
:100CB00010182073C3E26848007880280AD1102BEE
:100CC00008D166481921017080200CF071F808F0F5
:100CD00037FA139B7C200390C0430C9000263246C9
:100CE000072E00D14AE104983218D4B2F0000890DF
:100CF0000830102C00D142E111966100584B595A2E
:100D00000B91052110946143474B5C1857218900D2
:100D10000991675CFF210A915E31655C61180E9153
:100D20004E78C1B21292501CC2B200200F911490A2
:100D300003460DF057F830024019002F00D1404211
:100D40000B9943187F217E22002F0846119E00D068
:100D500010461BB20C9D4B35AB4200DB2D20002F03
:100D600000D00A46322B109F00DC02464B200F9920
:100D70000DF0D4F82C48817D0220084001D0039961
:100D800000E06321C9430791139B129A002801D008
:100D90007D2000E0642006900598089901430891A1
:100DA000AD20400020180B900A985C3020180A9063
:100DB000099820180990149C042C00D3DCE00D98AD
:100DC0006040394659400143149401D0002401E0A9
:100DD00011480478E5B268426841224909784E42D8
:100DE0004E41064302D100201F4908702B2000010C
:100DF0000D49085C002700283CD001210E9A51566D
:100E0000090212788A1891B2002933D082422DDD6E
:100E100007462FE0570200007B0E0020EFF900008C
:100E2000610E0020330E0020EE04002015F00000BB
:100E3000F20D0020720E00204DCE0000F7F30000EE
:100E40006F030000AB0200007B020000AD02000057
:100E5000AE020000710300006E0E0020210E002083
:100E600010040020250E0020710E00204742BA42D7
:100E700000DB0F4638B20A210CF0BAFC7F21149A2D
:100E80001140022923D0012949D0002964D101252C
:100E90000E99485700020978421820200443E3B213
:100EA0002D200F990CF0C6FF002E119E109F5ED1D1
:100EB0000E9C60570002217840187D21CA00022351
:100EC000F64906F021FF2070000A60704FE00A9991
:100ED0000978643149B2401801B27D2900DB7D20D8
:100EE00002B266200F992B460CF0A4FF380406D0FE
:100EF0000898C1B23220382209230BF08FFF002E50
:100F0000119E109F33D10A9C20781821C943643068
:100F100040B2069A0CF094F86438207027E00B99E0
:100F2000097864394CB2001901B20C9A914200DC84
:100F3000104602B248200F992B460CF07BFF002E82
:100F4000119E109F13D11922204607990CF078F8B2
:100F500064300B9908700AE0099C20780F992A46A2
:100F60000BF074FF411E88412070119E109F149C4D
:100F7000641C139B129A1FE7761CB1E63820D1B28D
:100F800010290BD110214B40C549097819434B4218
:100F90004B41C1B21220C34A0CF09CFC4FE11495A6
:100FA0001020119038700827BF4938460CF02AFFEE
:100FB00020460B3843424341BC4EB27CBC493846C4
:100FC00009F080F9B07400250C2C00D01495149B06
:100FD000581E1946814114203256009166201199FD
:100FE0000CF042FC307520460D3842424241707C84
:100FF0000007C00F18210CF0D1FEC007000F717C54
:10100000F7220A401018707420460E3842424241BE
:10101000307B8007C00F20210CF0C0FEC007800F7E
:10102000317BFD220A4010183073FF2040001490DD
:1010300001242F46072F00D101E1737D2340581E64
:1010400083419C48C25D28463F30C0B2282107F04A
:1010500085FC13980F281CD10620974908709748E3
:101060000078874215D128463E30C0B22721082299
:1010700009230BF0D3FE12982E2801D0202808D186
:10108000707D6040707502200BF08EFA0020FC49E4
:101090000870640014980440ED1D7F1CCAE768B214
:1010A000032200210B460CF048FF05463070012357
:1010B000681CC2B208262046314609F02DFBEDB26D
:1010C00028460BF0EBF8034600942A20EF4A3146FD
:1010D00014930CF0D4FDEE490E9630460CF092FEBF
:1010E0006800EC490E5E28460BF00EFF01230094C9
:1010F0000193652E194600DB21467C22D24319322A
:10110000964210931E46139B00DB4E00002800D031
:101110002646701E11908641581E45424541304674
:1011200028401821DC4F0A460F91149BB8470094C1
:1011300001941199481E814111910D403021129165
:1011400028460F9A149BB847109F00970197139851
:10115000801E454245412E4028220D9230460F996F
:10116000149BCD4EB0470097019411980540284636
:1011700012990D9A149BB04700940194139FF91E85
:10118000484248411E2563232946129AB0470094DD
:101190000194391F48424841382262232946B0470A
:1011A000B94E30780BF0B0FE5C250028284600D000
:1011B0003C204022214609F06BFCB8481099017090
:1011C000284608F051FF30784100B24A555E192791
:1011D000394669430A0E8E18294608F037FB1490E9
:1011E0003212722012990CF0B2FE149E7743380E20
:1011F0003818021254200E990CF0A9FE6801FF2144
:101200004900891C4018820D8018870A38465C30D6
:10121000C0B2720151188A0D89188E0A1D21891BCE
:10122000C9B207252A4609F033FC5937F8B2202104
:10123000891BC9B22A460CF06CFE9848047015B0A0
:10124000F0BD08249849204615460CF0DBFDA81F88
:10125000424242418B4DA87D8007C00F21460CF0D1
:101260009DFDC007810FAA7DFD2313405918A97564
:10127000002825D1AD2040002818D5214900691843
:1012800088421DD200214256002A00D50170012259
:101290008256012A00DB4170401DEEE718FCFFFF7B
:1012A000210E002002F60000F3EE0000EE04002004
:1012B00020F2000047FA0000610E0020330E0020EB
:1012C0001398C01F43424341754FE85D8006C40F29
:1012D00010207649224608F0F5FFC107890EEA5D25
:1012E00020239A435118E95501263040A04202D0EC
:1012F0000AF0A6FBE95D13980838424242414806CD
:10130000C40F182120460CF049FDC107490EEA5DC3
:10131000BF2313405918E9553040A04201D00AF0CC
:101320008FFB0BF0FFFC002869D0812268E0B07AC7
:1013300000235F49009141218900C0B24218582022
:1013400010210CF017FD18205A490CF05BFDFF200E
:101350004700012400251398082D14D05648305C0E
:101360002040411E8841009054484219062068439D
:101370004230C0B2182101230CF01DFB1398640009
:101380003C406D1CE8E7022819D141201721382282
:1013900009230BF043FD13981299602901D02E29DF
:1013A0000DD112980BF004FD0CF0D3FB42497054A0
:1013B0003C480021017002200BF0F6F81398C01E83
:1013C00042424241364C305DC006C00F20252946BE
:1013D0000CF0E4FCC007C00E315DEF220A4010188B
:1013E0003055139804282FD12B2004013057642145
:1013F0000BF09EFD30552021149D0D4327E08022E7
:10140000602020210CF08AFD139C204609384242BE
:101410004241687C304028210CF0C0FC3040697C9F
:10142000FE220A40101868740A3C62426241C806F3
:10143000C00F30210CF0B2FCC007C00E697CEF2257
:101440000A4010186874FAE62B200001305CC2B222
:10145000782028212B460CF0EDFC1398401F4342C6
:1014600043419F208400305D42093020144908F038
:1014700029FF4001315D1F220A4010183055DEE679
:10148000260E0020EE0400206B0E002050F8000015
:10149000C3F2000098040020D99B00002B0E00200E
:1014A00071030000260E002094EC0000B5F6000049
:1014B00024F60000BEEE0000AF020000E9F80000D4
:0414C00075F30000C0
:1014C400F0B58BB0224901260E7022490978C9076C
:1014D40001D0042200E003221F4C214608F0C8FA80
:1014E40007461E4D2878401EC2B220463946FEF7F4
:1014F400E5FD1B4800780B2801D900F0FCFD01979D
:10150400029618490E7827780A9740007844808814
:10151400400087440B0029005B00AD00BE002A0197
:101524008101AA0186028E02AC02EF02F1480CF09E
:101534005FFC0848007801220240D11C0A322A705C
:10154400781CC2B2EC480BF0F3FF00F0D4FDC046A7
:101554007F0E00206F0E0020580E00206A0E00201F
:10156400150E00207B0E0020E4480CF041FC062000
:1015740028702E25E248425DE2480090002F06962E
:10158400344600D000247620082123460CF0F0FBDA
:10159400002CDB4E07D070570A212D220BF04EFD94
:1015A40070550BF043FD1020D7490CF029FC312570
:1015B400705D0024012F00D00AE340B21521C94315
:1015C40016220BF03BFD7055069B02E30696CF48AE
:1015D4000CF00EFC062028700820CD490CF010FCFD
:1015E40039465C27C64DE85DC41D4026002906D156
:1015F4000698064360B207210BF098FC0446E2B259
:101604006620082133460CF013FCE01FE8550A9EBF
:10161400701E434243414324285D8006420F10203C
:10162400BC4908F04DFE4007800E295DC7220A40E0
:1016340010182855B01E434243414F242A5D042A02
:1016440000D304221820B44908F03AFE0328069F68
:1016540000D907202855032E00D01AE34D2428571B
:10166400012164220BF0EAFC285540233B4313E399
:10167400AA480CF0BDFB062028700820A8490CF0ED
:10168400BFFB002F00D1E1E32F209D49085C4023DC
:10169400E6E3A4480CF0ACFB06202870002F02D12E
:1016A400A1480921017079427941A048007800914C
:1016B400934C2246513208210A2308F033FA781E4B
:1016C400434243414625605D4007C00F1021984ABC
:1016D4000CF09BFAC007400F615DFB220A40101812
:1016E4006055B81E43424341C806C00F1821914AB1
:1016F4000CF064FBC007C00E615D3A46EF27394029
:1017040008186055D01E424242414C26A05DC006D6
:10171400C00F20210CF049FBC007C00EA15D394069
:101724000818A0550A9F381F43424341605D800654
:10173400C00F2821804A0CF041FBC007800E615D78
:10174400DF220A4010186055781F43424341A05DD0
:10175400C0093021794A0CF058FAC001A15D7F22FA
:101764000A401018A05500F0C6FC069674480CF008
:101774003FFB09202870042F00D99EE20BF0F4FBF4
:101784000825704928460CF03BFB7A427A415D27D4
:101794005B4CE05D0126304029460CF0FDFA3040F8
:1017A400E15DFE22099211400818E0550A98401E96
:1017B400424242414627E55D3540102128460CF05F
:1017C400EBFA08963040E15D099A11400918E15599
:1017D400A84201D00AF032F90A98022801D0002068
:1017E400069049200990205C57490F5C0420574D0E
:1017F400C6B2002E00D18FE2062141435431C8B253
:101804000321394069184A781821069B07F0A4F887
:10181400701EF9B28F08EBE74D480CF0E9FA01208D
:101824002870002525704B4C019E072D00D176E1D0
:10183400E8B20AF00FFC0E21635E02B29A4201463E
:1018440000DB1946E1811C23E35E9A4200DC184662
:10185400A083042D06D309B200B24018C10F40186A
:1018640040082080A41C6D1CDFE706963A480CF063
:10187400BFFA062028702D48007807900AF092FFDE
:10188400800700D56FE2082034490CF0B9FA102023
:1018940000231B4D042B00D190E20490C1B2581CCC
:1018A4000390C2B20026304609930891334608F0EB
:1018B40031FF099948002F183A37042E00D3ABE0C2
:1018C40000240A98814209D1032017490870079817
:1018D400B042234603D10223069C00E023467F2026
:1018E4003040032800D994E001A1085C40008744FB
:1018F4003744627902EE0000D4C70000F7F9000013
:10190400760C00205DF9000068EB000008F8000088
:101914003CF10000B9EF000053EE000073FA000040
:1019240016EB0000EFF90000610E0020330E0020DA
:10193400D5F60000ACF30000FDF800002CF8000020
:101944004BF900008BEF0000DFF30000C3FA000046
:10195400FCF7000052030020E7F9000065F60000E0
:10196400787882090898EB4908F0AAFC8001797814
:101974003F220A40101878704BE07878800685166C
:101984000D20684381B2890B4018821042200899C7
:1019940023460CF04DFAA0073BD51E20C1431F225D
:1019A40028460BF04BFB3F2101407878C0220240CF
:1019B400501878702DE03D7800940720059005407C
:1019C4002B46103348200899E94A0CF056F9A00731
:1019D4001FD5032128460BF0A9FA05990840397848
:1019E400F82213E000203856C5105A2008992A46D8
:1019F400234608F053FFA0070BD50E20C1430F2246
:101A040028460BF01BFBC000397807220A40101847
:101A14003870761C099950E704980830039B0A9F94
:101A240037E7D4480CF0E4F91020D3490CF0E8F976
:101A340061E3D2480CF0DCF90025E9B209297AD235
:101A4400E800032900D90838C4B26E1C72B22A20F7
:101A54000023214608F022FF0F35E8B208F0D2FD3A
:101A64000246442021460CF0B2F93546E5E7C44865
:101A74000CF0BEF902982870C24800250570202099
:101A840006430696C04FEEB2082E68D2E800C4B2F0
:101A94001820412221460CF03FFA28463130C2B2C8
:101AA4001E2021460CF038FA30460AF0D3FA0246DA
:101AB4002A2021460BF03AFE032E04D830460BF0C0
:101AC4004BF9401E02E0062E28460CD8C0B2400056
:101AD400385E19214143080E081802125A20214683
:101AE4000CF033FA04E05A202146069A0AF0D6FE96
:101AF4006D1CC8E7A5480CF07BF9029828707B425E
:101B04007B414624A24D285D4006C00F0821A14A0E
:101B14000CF054F9C007400E295DBF2277E12A2456
:101B2400202E9D4D285D9D49087000D1F0E1BF2E07
:101B340000D1F9E100E2102099490CF061F9002488
:101B4400E0B206281DD2E1003822551A08F05AFDE9
:101B54000246E9B220200CF03AF9641CF0E78F4801
:101B6400029901708F480078002800D1C3E2302424
:101B7400874D28577E21C9437F220BF05FFA2855F1
:101B8400B9E254201821884A0CF0DAF90025EBB2A6
:101B9400032B00D9AFE2E8002030C4B25420214620
:101BA400824A09F071FF6E00B01DC0B208F02AFD30
:101BB40002466C2021460CF00AF9F01DC0B208F070
:101BC40021FD0246782021460CF001F96D1CDEE768
:101BD400234642B26020102108F060FEB81E424243
:101BE40042414C25705D4006C00F18210CF0D4F81A
:101BF400C007400E715DBF220A40101870552025A1
:101C04000321E7B2022F31D23046002F01D05030E9
:101C140000E0483004780A988142089106D160B205
:101C240078210BF083F90446069B00E00023E6B21A
:101C3400052272430995EDB2662029460AF0D4FFC5
:101C4400002E04D07820732229460CF065F9002F69
:101C54004F4E304601D0503000E04830099D08997D
:101C640004707C1C0835481CC1B2CAE70A98401F9E
:101C7400424242414624305D0007C00F30210CF03F
:101C84008BF8C007000F315DF7220A401018305559
:101C940031E24D20285C4023C2B2662020210CF0A2
:101CA400C7F8042E00D098E04E24285705210BF0E5
:101CB4003DF9285540210F4392E0092F01D308270D
:101CC40027700A973A4803210170314C5F34082188
:101CD40005260027042F00D10DE200200090CDB28C
:101CE400FBB21E2009912946324A0BF0C6FFF6B218
:101CF4000A98801B414241412F48007800910423F7
:101D04002946224607F00EFF0999241D7F1C08313D
:101D1400761CDFE7B0F700000698002805D0099D7F
:101D2400605717210BF002F9605500252F46042D4A
:101D340071D01826304678432430C0B2EBB220214B
:101D44001A4A09F0A1FE5E20205CE840C00707D0D3
:101D54006E432436F0B22021122200230AF080FAC6
:101D64007F1C6D1CE3E71820EF490CF049F8C2E131
:101D7400C7E80000DFF90000C0F00000FCFA000032
:101D84002FFB0000710E00209804002042F900008F
:101D9400760C00200FFA0000520300201D0E0020D4
:101DA400A3F20000260E002017FA0000B4EB000096
:101DB400610E002020F50000330E0020042F00D017
:101DC400D2E04A2428570921C94328220BF036F9C6
:101DD40028552021069B0B43C9E04E20285C402750
:101DE400D9490091C2B2662028213B460BF0C0FFBE
:101DF400701F434243414624285D8007C00F3021B1
:101E0400D24A0BF002FFC007800F295DFD220A4071
:101E1400101828556FE10A98032800D0EBE0B84861
:101E24000078C00709D05E2560570F210BF07EF8BB
:101E34006055C4480078400605D423201F215C2245
:101E440009230AF0E9FF4420205CECE02F24AF4D85
:101E540028571E2178220BF0F1F8285540233343EC
:101E6400C2B2662008210AF005FD4525A74C605D35
:101E7400012F08D140B20921C9436E220BF0DEF8CC
:101E84006055334600E0002342B20A32702010212C
:101E94000BF0CEFFB81E424242414325605D01274C
:101EA40038401821A54EB04733463840615DFE22C4
:101EB4000A40101860550A9EF01E424242418807AB
:101EC400C00F20211F469847C007800F615DFD2287
:101ED4000A4010186055301F424242414807C00F63
:101EE4002821B847C007400F615DFB220A40101843
:101EF4006055701F43424341C8093021904A0BF09A
:101F04005DFFC001615D7F220A4010186055F2E058
:101F1400401C7C490855C1B203290DD117200BF090
:101F24000FF801200AF03EFB7648002101551820E5
:101F34007C490BF065FFDCE0C0B20028F7D0022832
:101F440000D190E0012800D0D3E00024724E734FFA
:101F5400072C00D1BAE0AE83EF81E0B20AF07AF840
:101F64002880AD1C641CF3E74A20285C20236F49B9
:101F7400009140B20A3082B24E20302421460BF048
:101F8400F7FE32356A4E902C10D028786978090211
:101F940008183188081A400002B2E0B23821202320
:101FA4000BF046FFAD1CB61C1834ECE7052F52D1DC
:101FB40001986028029C4FD15D4908883222534C15
:101FC400A0545C4A002313703234CA88A2718B88EF
:101FD40023714988A170120AE2711A0A6271090A0E
:101FE400E170000A6070012420460AF0DBFA172031
:101FF4000AF0A6FF30E044250428605D13D14D4962
:102004000978002979D040B203210AF08FFF615D7D
:10201400C2B202238A4207D060554C21625C7F25FC
:102024001540655400E000233130C2B2122028214B
:1020340006F092FC0024E0B203285CD8182565431E
:1020440024350AF089FE0246E8B22821002308F06C
:1020540061FB641CEFE7002400203821364A234644
:102064000BF036FC47E02848002101700D20C043E6
:10207400264D00282DD023490A18135F1C26965F8D
:10208400F71AF9177F184F40332F1DD399B2B3B203
:10209400D689891B0AB2920E8A1812B29209891A39
:1020A4002A182B27D155D673370A1774F31A1EB280
:1020B400B60E9E1936B2B6099B1B5377090A16460B
:1020C4002B367170190A9177801CD2E710201449BD
:1020D40008E00AF015FD2B2168542B35000A6870BE
:1020E40010200B490BF08CFE12201821094A0BF02A
:1020F40027FF08F02DF90BB0F0BD089B94E7C0460C
:102104006F0E002052030020710E0020760C002078
:1021140032F500007AF5000068C50000983A000026
:102124006AF700008BF5000081FA00009EF80000B9
:1021340078040020260E00202BFB0000AFDD0000F9
:1021440078F70000350E00209CF50000F0F7000041
:10215400F0B59DB0029002200A46149002401392FA
:10216400202008400690012603913140129144201A
:10217400D449085C8006000ED34908181190092040
:10218400C043099000271BA81A90D04C10971797AA
:1021940016971596072F00D1C5E0FCB2204609F02A
:1021A40059FF00B21994214608F0F6FB0446032FA8
:1021B400384604D82009C649C8551198C05DC5B22F
:1021C4006B00C448C452200F201800B20009010655
:1021D40001D5404200E080B20006BF4988420CDCD1
:1021E400002802D0BD48007800E0FF200121A9406A
:1021F4000140C8B2169901431691032F29D81298A9
:10220400002818930DD1B148007B800709D5AD484B
:10221400C6183A20305C3A36717809020818810BE6
:102224003FD1179E0698002803D0AD48C018F82166
:10223400445221B2284607F007FB0446A948007817
:1022440019990BF0FDFD189B40001A990880179608
:10225400159E0698002803D0A148C018E0214452D6
:10226400032F01D8002000E00120139900293146F2
:1022740000D0014600290ED1022D0CD00A2C02DC1C
:102284000998844204DA9648C018E0210022425298
:102294001BA80021C1521A98801C1A907F1C8B4CD9
:1022A40078E7000200B2C0120BF026FE00282DD001
:1022B4008D480078002829D03078717809020918EF
:1022C40048070B460F91000F7E49091832228A5C99
:1022D4003231497809028918844A105A401A81B265
:1022E400C90B401800B24008990009B2890A414359
:1022F40008B21F210BF07AFA86000F98800B02288F
:1023040007D00128189B06D1341904E0179E189BA6
:1023140088E73446189B022D00D0179E022D81D1E8
:10232400012010907EE7607CC0071AD06D480078C9
:1023340002210BF085FD04460AF0F2FC002800D0CF
:10234400644260B27D30E421654A515E012292020A
:10235400511A4143C817800D0818800A1BA98880A8
:102364005A4C0126B00205900698002800D1EDE0F1
:10237400647D1698044059480078FF2141400C427E
:1023840002D018200AF0DCFDF0205549059A0A52C3
:10239400EE200A52514804704C48007E002830D088
:1023A400E2244F4A115F4943E627D25F524355184E
:1023B40040B20BF0B4FC03464043854221D91A973E
:1023C400F00301468AB25243AA42024600D80022D0
:1023D4004A400004400C114601430028F2D1404F0A
:1023E400385F584395B229461F460BF0FFF93C4924
:1023F40008531A9C085F784329460BF0F7F93849CB
:102404000853324CA37D202B00D29FE00020139967
:102414000029024601460AD1E621314D695A1BAC16
:10242400E2885218E221695A64886118274CE47DD5
:10243400002C0CD0601EC4B26000142C03D32C4CAE
:102444000019283802E0264C2018E0300088DC0609
:1024540000D540421C0700D552425C0700D54942D2
:102464005B09022B06D0032B29D0042B42D1831AFB
:10247400841862E00BB2DB0B9BB25C0B0C1924B228
:10248400E4086442A4B28DB264195D0A4D192DB2F8
:10249400ED096D42ADB264199B09C91809B2890AE4
:1024A400494289B2611893B2DB0BD3181BB25B08A3
:1024B4009BB284B2E418631A641811463DE04418D0
:1024C40039E0C046760C002035F60000EE0400200A
:1024D4000D0E002098040020FFFFFF013B0E00209A
:1024E40008FCFF1F850E00202A0E0020780400201F
:1024F4003004002013B2DB0B9BB25C0B141924B222
:10250400E4086442A4B295B264195D0A55192DB267
:10251400ED096D42ADB264199B09D21812B2920A48
:10252400524292B2A2188BB2DB0BCB181BB25B08DF
:102534009BB284B2E418A31AA418F622FB4DAB5242
:10254400F422AC52401AF2216852F94CF949F6319E
:10255400179800B2002500918842304600DB2846D7
:10256400109909061599019100D001904020039912
:10257400014003911A34B0040D90032013904004D9
:102584000C90F0041090B0050790192008904005B5
:10259400E9492E460490102D00D1A0E300201190AB
:1025A40016952078401EA8421A9600D0ABE21498E3
:1025B40020560BF08EFC1890F1B2DC4817914518A8
:1025C400C020285C1990C035139820560026159F0A
:1025D4003946324604F0F4FEE17800290ED0012198
:1025E4004840D6490978002900D0074662780D3A58
:1025F400082A00D30746002F02D009E0002807D09C
:10260400617A1F200840CE4A1278D040C00728D0F3
:1026140060782E700146083902290FD26179A279B7
:1026240012025118E279120489180C9A11400D9A79
:10263400914212D1169DC0491A9EEBE12D28169D98
:102644001A9E08D117988000B8490818F849119AB9
:10265400514309120164B849DCE1092821D0374605
:1026640021E0199E70424641631C6278501EC0B23C
:102674000B280E93199619D84100AC4A5118E02240
:102684008F5A012603284ED86079A27912021018B5
:10269400E27912048018079A104244D0F8200F5AA5
:1026A40041E0A44FE237601C0E903CE0132811D89F
:1026B4000D3AD0B241000328DE48405A08D8DE4A19
:1026C400511832228A5C3231497809028918401A39
:1026D400470027E023280DD86179A2791202511806
:1026E400E279120489181438079A4000114217D06D
:1026F400D24916E0242809D149B2C8B2400900D110
:10270400DCE1002900D5E2E10E21E1E12B2800D92A
:10271400CDE1400086494018C9494056C70001E050
:10272400C8490F5A01262E706079A1790902081848
:10273400E17909044218631D10980242129315D1DD
:10274400207A00281A9E12D040B27C21C9437D22EF
:1027540009F04EFD0BF0E3FA129BC719187859786B
:102764000902081899780904421800E01A9E100416
:1027740000D1C5E06E48407C00070F9201D51420BB
:1027840000E064200A90179A550068490B954E5B47
:1027940090000A18156C280A381A01B20A2902DCBA
:1027A4000998814206DA002E05D100260F9800060A
:1027B40004D100E000261998002824D00F980C9921
:1027C40008400D99884213D1207840009D49401853
:1027D4000121C943405E08998D0245431899002997
:1027E40006D0284615460BF001F82A46129B0546EA
:1027F400280A381A010409D000B20028199009D413
:102804000F98000907E019910B9909E0002019902D
:102814000B9905E00F980B990F2606400A9846433A
:1028240042484018403231B201290BDB864909780D
:10283400002900D0761E310402D006802F0A2BE036
:10284400099E093619990680002925D0179518780C
:102854005978090208189978090445182804000EC3
:1028640018D07948007800281A9E17D00F9218992A
:102874000029049A104607D0C81109184140C9B26A
:1028840010460BF0ABF8129B0B901998002807DC4C
:102894000C2106E038B205021A9E29E0179D19E0C2
:1028A40008210F9ACD400F20284007D002461999DD
:1028B400002906DC0B984042179D04E038B205025B
:1028C40008E0179D0B980A9951430AF08FFF4519A8
:1028D400129B0F9A38B22912199F012F01DB8142F2
:1028E40004DC199F002F02D5814200DA05022F0A69
:1028F400156018785978090208189978090442185B
:1029040004202156100200121CD41A20C043814214
:1029140002DB1C2900DA80E07F20C043414038B24A
:102924000AF082FF129B0746169D2AE008FCFF1F4F
:10293400EE0400201EFBFFFFB4FDFF1F2A0E002043
:10294400850E002008460BF0C4FA01280BDB3AB2CE
:10295400002A08D56421081A424310460AF046FFAB
:102964000746169D0CE00028169D09D539B20129A9
:1029740006DBB9B26430484364210AF037FF0746E6
:10298400129B187859780902081899780904401894
:10299400C1030AD40E9909784A1E032A05D84900AE
:1029A4001BAA8918891E0988CF1939B2189F4F4369
:1029B4001099084216D0217A002913D048B27C21FC
:1029C400C9437D221D4609F013FC0BF0A8F96421CC
:1029D4004143CF192878697809020818A978169D07
:1029E40009044018C5494003800F02280DD001286E
:1029F4000DD1642138460AF0F9FEC049119A4243C8
:102A0400D017800D1018801203E0119702E011987E
:102A140038181190761C0A34C3E506291BD8169D74
:102A24007944097949008F44111224282D343A003D
:102A34008F02000078040020760C0020100400208F
:102A44006D0200003004002045FEFF1F99E738B2F4
:102A5400002896DC1BE00029169D00D57F42002942
:102A640001D50620411A38B2C91FC9B20AF0EDFCDB
:102A740085E738B2C013074083E738B2C0133F1864
:102A840047407EE738B20028059F00DD79E700273C
:102A940077E79848E23039B2CF13074071E738B28C
:102AA4000028059F00DD6CE7924FE23769E72C2888
:102AB40018D1642111980AF099FE19E0122007F048
:102AC400A1FD0126002815D08A4FE2372BE61121FB
:102AD400081807F097FD0028059F00D022E6854FCF
:102AE400E2371FE62E3AD0B200210A4606F0FCFB7C
:102AF400074617E6132007F085FD002801D1059F3E
:102B040011E600270FE600227B481792027008782E
:102B140000281ED00F466426119831460AF066FE3E
:102B240001467248007840003818C0884843A9001C
:102B34007918069A002A01D10A6980180861039954
:102B4400002900D1C7E06D4989880AF04FFE464349
:102B540000E0119E642130460AF048FE6A00644990
:102B640018928852052068435F4D2918AD20400013
:102B7400199111900B18D97804200E901A5612024C
:102B840052182B210901695C4D42AA4200DB15460B
:102B94008A4200DC294601200F901B560A256B430C
:102BA400059FFB185B18183B18B2E237B84200DBEC
:102BB4003B4618B21290824200DC13461998119ACF
:102BC400805645434B4A50194518FA3528B290426D
:102BD400179F00DC474D18B229B21191884200DBDF
:102BE4001D46002E0CD0002E02D41298401B01E08A
:102BF4001198281A00B2704341490AF0F7FD0746BC
:102C040028B2404DA847C61937B21298A8470546BE
:102C1400874200DC35462FB211983A498847064668
:102C2400874200DB2E46572080001999085C002853
:102C340000D07642169B9F2080002B4A105C1F21F7
:102C440001401020401AC0B283423CD21898151893
:102C54002D4AA85C8000010635D0AF1840B2801020
:102C64000BF04AF939788A090146032A24D300284B
:102C740017D11C4A0E9BD25E1B4B244FDB5D9B0677
:102C840004D4009B9A4207DB159A08E0D313D218A8
:102C94005A4012B2142AF7DA019A0F9B5A40002ABA
:102CA40003D1012250401A4A1070194800780028B4
:102CB40000D10F9910480170002904D015482856F6
:102CC4000BF02DF806460BF057F902981899465266
:102CD4000BF050F9169D6D1C08491A9E5BE41DB05B
:102CE400F0BDC04698040020EE040020850E0020AC
:102CF400300400201EFBFFFF6D0E0020B4FDFF1FFB
:102D0400A086010015DE00007D02000071030000B2
:082D1400460E00207E020000C3
:102D1C00F0B585B0F34800250570F348078808F036
:102D2C00BDFAF2480168F24A12680260501AF14C7E
:102D3C002070F14E3078002803D1F048002105F0C6
:102D4C00A1F82078002800D1B9E2FC4801780029CC
:102D5C0001D0491E01700AF017FFF9498A88904288
:102D6C002DD14520F74A105C0A3002062CD0F64AC9
:102D7C001278322A28D30A78521C0A70D2B2102A3E
:102D8C0022D300220A704A88521C4A80FF217831D3
:102D9C00C0B2484380B291B2884215D21F20024083
:102DAC00012A11D1E9480178FD220A40027006205F
:102DBC000AF07CF810202D2109F0A0FF04E04D80D2
:102DCC008880E3480121017002F020FD09F088FFA2
:102DDC00E0480178002901D0491E0170284605F011
:102DEC00C5F90AF06DF8DC480478057030780028D5
:102DFC00039501D00294FAE101970F202040801F27
:102E0C00D6498F7C042F03D0032F02D1042700E076
:102E1C0008277C21C9430491C0B2072804D8F021AB
:102E2C002140202900D088E04020204340281CD19C
:102E3C0027460020C543CA4C2078411CC8B28842A2
:102E4C002E4600D1064609F00BFF002800D106469D
:102E5C00F0B2C82800D035462570C82802D0039D92
:102E6C003C4602E04220C443039D0C20BD490A5E4F
:102E7C00BD48415F891ACB0EC9184909090493B2A0
:102E8C00294606D003800421415E891ACA0F89188D
:102E9C0049108380B54A1278002A00D02946462270
:102EAC00A84EB25C920600D529464180B04F787985
:102EBC007978091ACAB2D2098918FE220A40101868
:102ECC00787148B2401038722043C0B208F0D4FA7E
:102EDC00A84800788000A84909585C20305CC01DC7
:102EEC00A64A914200D0A9E0A54909780029049B83
:102EFC0000D0A4E0397A00290CD000223A720622C4
:102F0C00BA5649B25118994200DC19467D2900DBAA
:102F1C007D21B9719F218900904A525C510900D1E1
:102F2C008DE050B200287DD448008E494018C088EE
:102F3C0001218A028018C9027BE04421814E715C18
:102F4C008900904A51184008085C5D21715CC907E2
:102F5C0001D00321081AC5B28B48007829460AF023
:102F6C00C0FB009029460AF067FF002F08D1C1135F
:102F7C0042184A4011B2890F511889B289084F1C66
:102F8C00022D10D14621715C804A744B9A5C9209D7
:102F9C004A40D2075B7C0121194000D00227002A4D
:102FAC0002D07F4200E000212E46E2077AB2029462
:102FBC0000D15242121893B25C1EA34114464440F5
:102FCC0024B2049D7C35AC4201DC002400E00124D9
:102FDC0023400B430FD100280DD000270098314619
:102FEC003A4608F0F7F8029809F0DCFE162009F0D2
:102FFC00A3FF3C461CE717B238467C3080B2F82859
:10300C007ED8009831463A4608F0E4F878B2C01100
:10301C0039184140C8B281083C31152009F0B4FF81
:10302C00002405E748004D494018594940567D3069
:10303C00FA2182B2072050430AF0CCFC049B029484
:10304C0054490978C0B2884202D009F02FFF049B82
:10305C004C203056504C002826D52078002823D000
:10306C004E48007800283D4A00D19DE000244C4D8C
:10307C002857002801D4401C2870022008F02AFA96
:10308C007F260146314014D02A788A4225D92C70EB
:10309C0002990906FA4A049BFC4C00D084E040B229
:1030AC00002849DA63207EE0F94800210170F44AD7
:1030BC007AE0032008F00EFA06400ED02978B142CF
:1030CC00EF4A049B0BD92C7002990906EF4C6BD17B
:1030DC0040B2002866DA642065E0E94A049BEB4CB8
:1030EC0062E0C046860E0020D20400206CFFFF1F59
:1030FC0060FFFF1F45FEFF1F870E002010040020FD
:10310C00002F049A00DD7D220098314608F062F809
:10311C0038467D3080B20024FA2800D988E678B28F
:10312C00C01139184140C8B280083C21081AC1B2FC
:10313C00152009F029FF7BE6622034E0210E0020E7
:10314C00CC040020760C0020320E00206F0E0020E4
:10315C001A0E00202A0E0020240E0020EE0400205F
:10316C00640E002098040020BA0400201D0E0020DC
:10317C00FC0D0020340E0020E0FEFF1FFD3400008B
:10318C00110E002035F60000850E002071030000A2
:10319C00B5020000840E0020710E0020700E00207D
:1031AC00410E00206520029001202070BF79002084
:1031BC00C14CC5B2062D18D8680016185720C0008F
:1031CC00305C00280FD00528394604D007F048FDA4
:1031DC00049BAB4A014648B2984200DC18467D2855
:1031EC0000DB7D203055681CE3E7019F039DA94C53
:1031FC00206800280DD00025294608F00FF90AF0A8
:10320C0056FEA5490A78012A1CD100281ED125603A
:10321C001CE0A1480570A1480478002C04D005706E
:10322C00172009F089FE02949D48029A02709D486D
:10323C001421017093480078800093490958D0B24A
:10324C00884703E0002801D00120087007F0C2F87D
:10325C00954800781F21014002292DD1934805780B
:10326C00103505700E209249085E410F411809B2C5
:10327C00C9083022804CA2564A430001101880B273
:10328C00A52149000AF0A6FB7C490A781018401CBD
:10329C004008087029060FD12F21615CC0B2814211
:1032AC000AD911202E2109F029FD4620205C0007A7
:1032BC0002D58048322101806E48039901707F4805
:1032CC000178032901D10021017069480088C01BD5
:1032DC0082B27B490B889A4200D90880794EF078EB
:1032EC00002800D1B7E078480188491C01800020F3
:1032FC00634DC7B20B2F00D987E0032318467843E0
:10330C002C184B20C00021180391744961180291AC
:10331C00215C0F22084604921040714A1018401E7E
:10332C0000780328019307D178006E4A125E002AB8
:10333C0004D00CD4561E1DE0049A2CE00022029BF3
:10334C009E56002E16DBF2430A26564312E092B22A
:10335C00561CB2B2B2420DD003227A43AA18624B69
:10336C00D256002A05D4521C52B20A2353435E1E75
:10337C0000E0D6435B4A151808090AD0082800D982
:10338C00401C0AF0B5FD002801D1504E7C36039844
:10339C000178049A2E8011400C295448C55D08D13F
:1033AC000026029880570AF0A3FD002803D00126BE
:1033BC000CE02E460BE003207843314908184A49AB
:1033CC0040560AF095FD002800D12E46049A039829
:1033DC00007810400D282A4D13D100200299085670
:1033EC000AF086FD00280AD0B0070AD43E482056C1
:1033FC000AF07EFD0028019E03D1022601E0FD208B
:10340C0006403A48C655781C73E709F0D9FB0024EE
:10341C002C4EF4702F462E4D785D00281BD02D4875
:10342C0038560AF065FD00280AD0785D811E042903
:10343C0009D2C8B200210A4605F052FF044606E044
:10344C000020014605E0012801D12348C46D20B2BB
:10345C00012105F00FFB7078002807D00020707058
:10346C000B480178002901D0491E017005B0F0BD50
:10347C00D20400201A0E0020760C0020320E002000
:10348C00EE040020340E0020E0FEFF1F710E002021
:10349C00700E002090FFFF1F420E00207C0E0020BB
:1034AC006E0E0020720E0020350E0020430E002000
:1034BC0068040020D6040020B7020000310E002062
:1034CC00D4040020920E0020E004002083FF0000B2
:1034DC00ED020000EE02000008FDFF1F5602000086
:1034EC00E4F600005004002057020000E60D002016
:1034FC00F0B587B0F24900230B70F24CE17C7022DE
:10350C000F46059217400F220D4606921540EE4AC3
:10351C001278002A04933AD003971420EB4F3856B4
:10352C000AF0E6FC0446EA4E002804D03078002865
:10353C0001D105F0FFFD3470E8B2042811D111203F
:10354C0000900025E14C0A232846294622460AF021
:10355C002CFADC480078EE490978814243D328469E
:10356C0042E00390D7480478E94805780A26782E7B
:10357C0008D03A78F0B20021042305F0E9F97F1C59
:10358C000B36F4E7A54200D2A9E08422A8E002465B
:10359C00803A0E2A00D88FE10246203A0E2A00D932
:1035AC0013E252007A449288520097440F000E00A6
:1035BC00CB02CF02D302E4020E000E000E000E006E
:1035CC000E000E000E000E000F00A5E7042DA3D177
:1035DC000024BD4A54700121117009F0E3FBCD4861
:1035EC000470042598E70120039E420054202946CC
:1035FC0009F050F96F2029462A462B4609F0B6FBF4
:10360C00382008F0F9F8302E00D195E1202E00D1A9
:10361C0095E1102E00D0A1E11825284608F094F869
:10362C000826BD4930460AF0E7FBBC48205C401E2A
:10363C00C0B207F0DBFA15214901625C6118012365
:10364C00C95609028918B64AA75CA218D2561202AA
:10365C00D2199042134600DC034618B28842084641
:10366C0000DB184600B2431A64205843511A0AF082
:10367C00B9F80746C0B20090192009215022062340
:10368C00069309F0E6FF3AB2792031460AF059FC6C
:10369C00F7480078252231460AF03AFC2826F749EB
:1036AC0030460AF0A9FBF648425F0527C424009473
:1036BC000197122020252946069B07F01FFA40206F
:1036CC00F54A31460AF038FC1C20ED490A5E00949C
:1036DC00019752200723294607F010FAA1E1862210
:1036EC0025201025294609F0D5F826201826562223
:1036FC0031460AF00DFC5D200027042329463A468A
:10370C0009F034FB332031463A463B4606F002FCC6
:10371C0008F07EFE00280CD00246262510212846F3
:10372C0009F0D8F925200F2109232A4609F070FB4E
:10373C0077E06648837C0020009026201021D74A31
:10374C000AF097FA6DE0304609F002FB0546D448C2
:10375C00007831460AF070FBC1138A0F821812B23E
:10376C009410002801DC204600E00120220600D144
:10377C00441861B21B20C043814200DC044660B295
:10378C001C2800DB1C247F203840C6494919491EDF
:10379C000D7801280BD0022821D10421362228468D
:1037AC0007F070F94948407CC00705D014E00421AB
:1037BC003622284607F066F9681EC0B21E26069708
:1037CC00032731463A4607F05DF9681CC0B2314612
:1037DC003A46069F07F056F91F20011B18E02846B1
:1037EC001B38C0B23B2105913622AF4B9847681E5F
:1037FC000697C7B23A21032638463246AA4B984759
:10380C003C213846069F3246A74B984705996519C7
:10381C00E81EC0B2C91EC9B20722134609F03EFF0A
:10382C007F1CFEB2032E8ED9039E012E38D80024A5
:10383C00F74D082C00D1F4E02A88012E05D0002E7B
:10384C002BD1042C05D3302104E0042C1CD35E2096
:10385C001BE0282110B2C00B80B2C30AD3181BB2D4
:10386C005B09D31A400A101800B2C009181802B22A
:10387C000320204036234343123358081830C0B27B
:10388C0020230AF0D1FA08E022200323234005214B
:10389C005943263112B206F029FEAD1C641CC8E750
:1038AC00022E7ED106F050FDD048057806246C43DC
:1038BC00002D7DD128467CE0910006A251588F4600
:1038CC00710E0020A50C0020110E0020EE0400202B
:1038DC00440E002033390000FB3A0000073B000087
:1038EC001B3B0000293B00003D3B00003139000030
:1038FC003139000031390000313900003139000014
:10390C003139000031390000313900003339000001
:10391C00320E00206E0E002001FB00009F02000002
:10392C00A2020000F8E50024AE4A54700221117086
:10393C0009F038FAB3485AE01020B64905E0B94806
:10394C00007800286DD01020B749B34CA047182040
:10395C00B249A0472020B249A04762E03F2008218D
:10396C00302207F08FF80520C543002D59D060197F
:10397C00AF49405C002812D0AF1D461EF0B207F0D4
:10398C0035F903460420009006980190F90005983B
:10399C0001401031F807400E72B203F0E7FF6D1CC6
:1039AC00E3E73C2028210122042309F0DFF938E069
:1039BC00E01CC1B20A2008F0BDFF002D19D0A01DDB
:1039CC00C1B2642008F0B6FF2BE0612800D1E4E01E
:1039DC00BF2800D0A0E50124834E2046B047032029
:1039EC00B0470220B0478148002101708048047024
:1039FC0092E564242826844A204631460AF09CFA33
:103A0C00722507222846314609F0CDFE30267F4A22
:103A1C00204631460AF090FA04222846314609F035
:103A2C00C2FE704C207800285FD0012807D1814855
:103A3C0003210E2204F0EAFE0522049B06E07E48D8
:103A4C001F210E2204F0E2FE049B1A467B498B7068
:103A5C0001284AD1A0788018C0B2062845D8C046A3
:103A6C007844007940008744050D212C30343A000D
:103A7C00790E0020624808F097FC36E037FB000016
:103A8C0008FDFF1F7248002101705B480121017085
:103A9C00704808F089FC28E033FB0000CFF50000EB
:103AAC00850E00201FFB000013DF00000120887032
:103ABC0065480078800065494018406808F074FC3F
:103ACC0013E04E4808F070FC0FE04A4808F06CFC1C
:103ADC000BE090205549085A40425A4904E08C208A
:103AEC005249085A40425649088007B0F0BD09F0C7
:103AFC002DFA0AF017FA172063E004200743E77445
:103B0C00172009F019FA822009F04CF9EDE7394831
:103B1C0008F04AFC832009F045F9E6E73648012114
:103B2C000170374808F040FC842009F03BF9F3E4BD
:103B3C00314801210170314808F036FC852009F02C
:103B4C0031F9E9E4002D2BD06D1E2AE0032D30D87D
:103B5C006D1C2FE006980140042938D0022900D0B2
:103B6C00DAE422480178491C4AB2022A00DD00211D
:103B7C0001700225D0E406980140042924D00229C2
:103B8C0000D0C9E419480178491E4AB20225002A1E
:103B9C002A4600D40A460270BEE4042D1DD0BBE4B4
:103BAC00042528463843E074A12008F0F7FC1420C3
:103BBC0007E0002528463843E074A12008F0EEFC0D
:103BCC00132009F0B9F9A7E43846303001E0384643
:103BDC00103030210140081DE074172009F0ACF9B9
:103BEC00042599E4110E0020B1CD0000620E0020D6
:103BFC00440E0020CD9600001D0E0020C5140000C0
:103C0C00A95100006E0E00205FFB00005CFB000061
:103C1C0010040020ADF5000005DE0000E7F4000004
:103C2C00A9F80000970E0020BEF5000008FDFF1F4C
:103C3C00B7020000ABF40000DFED0000150E002011
:103C4C00E8040020EC040020340E0020E0FEFF1FEE
:083C5C00730E002011040000AA
:103C6400F0B58FB004463148007809F0EFF9054605
:103C74002F4F0E22384607942146FCF71FFA2D4891
:103C84000AF0B6F82A78801DC0B2002421462346E3
:103C94000AF0A6F83F57384608F08CFE06902648EE
:103CA400027808202549029009F0D4FE2B46F8B288
:103CB4000890E0430390691D0D950591E0B2072833
:103CC40000D31DE206982018C0B2089981420C94D2
:103CD40001D0002601E01A490E780E2800D90CE222
:103CE4000C99CD002C460834810001A251588F460E
:103CF400493D0000693D00007D3D0000913D00000C
:103D0400AB3D0000C53D0000E73D00001F3E000044
:103D14007D3E00009B3E00002F3F00005F3F0000FF
:103D24007F3F00009F3F0000C13F0000670E00205E
:103D3400560E00201BF90000200E00206DE9000043
:103D44007B0E00205D78E1B21C46F3B2542022467B
:103D540007F02AFD252D00D043E1607A4509253579
:103D6400234642E102201A56E1B2F3B2602009F080
:103D7400CBFF0D9B9870C0E102981A56E1B2F3B2E2
:103D8400602009F0C1FF0D9B1872B6E1059DA8786B
:103D9400E1B2F2B20007C00F09F0FEFF0D9BC007AD
:103DA400000BF721D1E0059DA8784006C00F597893
:103DB400042900D929E1E1B2F2B209F0F6FF29E1C0
:103DC400059DA97801200840E1B2F2B209F0EDFFA7
:103DD4000D9B7F214904AA7812040A40C007C00B36
:103DE400B7E0059A10785178090208189178090407
:103DF4004018C50D000200120399884200DC1CE142
:103E0400042018561A21C943884203DB1B28C54ADB
:103E140000DA13E10225C44A10E1059A10785178BA
:103E2400090208180221515609044018042503996F
:103E340088425F5700DC1FE11A20C043874202DB3F
:103E44001C2F00DA26E17F20C04347404020304346
:103E5400C3B2E1B266203A4609F0EAFF300606D062
:103E64006320C1436422384609F0E8F807460D9BF5
:103E740080207840187140E1F3B2581E1946814100
:103E840003200D9A12560091E1B24E2009F0EAFC8B
:103E94000D9BD87031E130060A9002D004209B4972
:103EA4000870072009900543049500260121F7B204
:103EB400042F00D921E1587A0E9108401F210B915B
:103EC400084043424341099D754328463F30C0B2F0
:103ED400E1B232463032D2B204F03EFD0A980028F4
:103EE4001DD08B480078B84219D10498C1B23E3530
:103EF400E8B20822092308F08FFF07982E2801D082
:103F040020280CD10E980B9A02400D99487A504003
:103F14004872022008F046FB00207E490870761C97
:103F24000E980006C10D0D9BC1E70899081A43427B
:103F34004341059DA978E0B249078A0F724906F00A
:103F4400BFF90D9B8007400BF9210904AA781204DC
:103F54000A408018000CA870CFE0059F3A780F251E
:103F64002A40E0B2F1B208F057F80D9B28403978A6
:103F7400F0220A4010183870BFE0059D2A78E0B29C
:103F8400F1B21206120F08F047F80D9B00012978D0
:103F94000F220A4010182870AFE0059D6A78E0B23D
:103FA400F1B21206120F08F037F80D9B000369787E
:103FB4000907090D4018000A68709EE0059F7A7889
:103FC4000F252A40E0B2F1B208F026F80D9B290330
:103FD4007A7812020A400007000D8018000A7870EF
:103FE4008BE0252D00D9AD1D0D9B300600D184E05A
:103FF40068B20121372209F021F80D9BC1B22529AD
:104004007AD32C2970D3801F76E0E1B2F3B2474A09
:1040140009F0FBFD29786A7812025118AA78120473
:104024008918384A114029700A0A6A70C007400A80
:104034000843000CA8700D9B5FE0394AE1B2F4B26A
:104044000620234609F044FC002C0D9B55D0022188
:10405400284608F06BFF0D9B85424ED0811E4A42D4
:104064004A41D1011971C005059A91784906490A56
:104074000818000C907040E06420F1B200900191A7
:10408400E1B26320C34348203A4606F0EDF90D9BA4
:10409400187132E0E1B2F4B20C203A46234608F03B
:1040A4008BF80D9B002C28D058570F21C94316229A
:1040B40008F0C4FF0D9B1871079960291DD10728CA
:1040C40007DBC01F14490870144808F071F90D9BF0
:1040D400187941B2002910D5C0430F4908700F4820
:1040E40008F066F90D9B08E0597A1F220A40400146
:1040F400801860305872252058700C9C641CDDE5D3
:104104000FB0F0BDFFFFBF0059F30000610E0020A7
:10411400330E0020260E0020690E0020318400009A
:10412400D5FA0000BDFA0000DBFA000011F7000028
:10413400F0B58BB00546E14809F05AFEE04C207812
:1041440000281BD0DF4A117A002010724AB2012ADB
:1041540001DB622200E06322002900D01546DA491F
:104164000978002901D1632D05D0D84A125691420D
:1041740002D1622D00D10546D5480570D548007896
:10418400002805D1D1480278CF482946FBF796FF8D
:10419400CF4E3078CC4909780691012103912E281D
:1041A40003D0BF280AD060280AD1C5490A78002A5A
:1041B40040D0F948002202700A70F84C00202070A8
:1041C4000295069840B208F0F5FB0146F8480078DD
:1041D400002801D000203070F148007800280791B1
:1041E40040D0F2480778622F01D0632F3AD13E467F
:1041F400623E701E34468441EF480578284608F034
:1042040025FF002D0AD1002C08D00178022901D302
:10421400491E0170022008F0C5F923E0202D21D8A1
:1042240001D1622F1ED00021622F0A9107460BD0C4
:10423400C8430AE0DE4909780029C1D108F0B6FD77
:10424400002003903446B9E701202D18E8B208F0A5
:10425400FDFE3978002905D0102903D80278102AE8
:1042640000D875E1012000263546C1B2102900D9D5
:1042740009E10A910890F0B2099008F0E7FE079B63
:104284000446EFB29F420BD3F81A062808DCC0009C
:104294000830C1B2012000230A9A09F0A1FD079B4E
:1042A40009981F2800D9C4E020780A99884200D0D0
:1042B400BFE0BC4A0F46E8B2984200D2AFE0C11A50
:1042C400062914DCCF00B64909780022002927D139
:1042D4000699C9B2814223D10898B9490870B648F1
:1042E40006700398002813D0B148007816E0072917
:1042F40000D094E0AA480078002800D18FE0AF48AD
:104304000078F1B2884200D089E01078401C81E046
:104314000120A7490870002202924A704242424199
:1043240005920837F1B209980491884209D0E079DE
:1043340000210091F9B24007830F1320A54A09F028
:104344009CFCFFB2302000233946224607F02CFAA9
:10435400022022562D203946059B09F0D5FCA07079
:10436400E078002805D042B248200023394606F000
:1043740095FA207900281DD06179A279120251188A
:104384000722A256120489180BD401461B31C9B264
:10439400362909D842B260200023394607F00CFFC1
:1043A40008E06020642201E06020452200233946B1
:1043B40004F0D2FA6079A17909020818E1790904B4
:1043C4004018FF210902014001D0532200E02022BD
:1043D400002901D02A2100E04421000600D00A4629
:1043E4007920394609F098FD6D480078002813D0EB
:1043F40072480078049988420ED11820662200235E
:10440400394607F02DFF6C48067028460695654A24
:10441400079B0A9F107002E0624A079B0A9F6D1C6B
:10442400F0B21E2823D8761CA07A0A34B8421BD1D5
:1044340041E70698C0B2B84215D15F4806700898A3
:104444005F490870E81AC000C01DC1B200241922D7
:104454000923204608F0E0FC0398002803D108F063
:104464002BFB002805D06D1C0898401CFDE6202677
:10447400FAE751480078214606F030FC48480470B9
:10448400504807F095FF4A48007800285BD002980E
:10449400464C20704C483F210B2204F0BBF9012804
:1044A4004AD14348807805282FD8C04678440079FB
:1044B400400087442011222A2E33C046B7FA000058
:1044C400220E0020FC0D00205F0E0020230E002091
:1044D4006E0E0020110E002008F0EEFA00280AD11A
:1044E40035490878401C0870C0B20024214606F003
:1044F400F5FB2B480470334819E02F490878401C19
:104504000870C0B2012106F0E9FB012024490870BB
:104514000FE0294800782D49087002E02B48FF215C
:104524000170207808F042FC00202070284807F031
:104534003FFF00201E4908701E48002101701E48DC
:1045440000781E490870681E174908700BB0F0BD4A
:104554003B468A420BD10A210A060CD002781C463B
:104564001B7803702270631C401C491EF4E7102959
:1045740004D30A9A03E0114805704BE60122704205
:104584007041104002462243012A00D042E6091B32
:10459400081818703EE6C046260E0020730E002050
:1045A400220E00205F0E0020230E00206E0E00203D
:1045B400110E0020260E0020670E0020650E00203C
:1045C400680E0020653C000064F100002F0E0020FE
:0845D40031AE00001AFB0000EB
:1045DC00F0B58BB00990FB4809F006FCFA4C20783A
:1045EC00421C4E200025294609F0ABFC21780922FB
:1045FC00104607914843F5490C18F54EA05D40074D
:10460C0000D00A22F34F38460999FBF753FDA6193F
:10461C00F14824187F57052F089406960A970EDC4C
:10462C000820FA4909F0E8FBED480078099008F0F9
:10463C0097FC2078002F00D18AE000238EE00595AE
:10464C000825E649284609F0D7FBB81F43424341E9
:10465C00E3480078049030784006820FE149E24C40
:10466C0003952846A0478007400E31789F220A40C8
:10467C0010183070F81F43424341CA091020DB491F
:10468C00A047C00134787F21214008183070083FC2
:10469C007B427B4107252C401820D5492246D24F1E
:1046AC00B84728403178F8220A4011183170A042DE
:1046BC0009D00921079A5143C44A5118EA01059BB4
:1046CC008B5489184B70002868D02020C94909F0F8
:1046DC0093FB06980178294028200A2402290A9B7A
:1046EC0000D1FEE0012900D014E1069009200799C1
:1046FC004843B6490818E901425C4518687800023D
:10470C0080187D218E00092B0BD100B232460B3262
:10471C000021022303F0F2FA2870010A697004994F
:10472C000591F11D02B28A4200DCF8E06C202027D2
:10473C00B34A39462646059C234609F0C5F8287825
:10474C003530C2B278203946234604F001F916E11F
:10475C0040B25E2108F0E6FB2070099BC2B26020DB
:10476C00082105F0D3FF2078002822D0401EC0B2CB
:10477C0006F0E8FA06460820A54909F03DFB20782A
:10478C00252811D38221002200920191253842B2B2
:10479C0048200821334603F0E9F80AE020200926D6
:1047AC00089D0A9C8B4FEEE048200821324609F008
:1047BC00C8FB09200799484384490E189549705C39
:1047CC000A9A012A08D1751840B2062108F0AAFBF2
:1047DC00287009990A9C01E000211446C3B2042BED
:1047EC0004D800914E2010218C4A05E00091401F06
:1047FC00C3B24E201021884A09F03BFA022C14D186
:10480C00874864210170874D705D771901217956B5
:10481C00090208187D210A028349022303F06EFA6B
:10482C007055000A7870099B00E000230898007806
:10483C00252810D37B49725C7118012549578225B4
:10484C000093019509028B18253842B27820182163
:10485C0003F08CF80AE07348315C30180122805662
:10486C00000242187820182109F0DEFA6F49705CBA
:10487C000025032C09D1771840B21521C943162203
:10488C0008F0D8FB3870099B00E02B4642B2602040
:10489C00202105F0FFFFDF208100705C042C06D185
:1048AC00751840B2212108F03DFB287000E00995F5
:1048BC00069DC2B260202821099B07F0B7FE601F3D
:1048CC00434243412878C006820F3020584905F0F6
:1048DC00F3FC8007C00E2978E7220A4010182870D4
:1048EC006DE005940690092007994843374908184C
:1048FC00E901425C45186878000280181C46092BB7
:10490C001BD140B20F2108F00DFB002169702870FB
:10491C00049913E0089D2F4F26461C4633E0B24203
:10492C0018DD0C30C2B26C202021059B07F0F4FE80
:10493C00089D284F0698264624E00021089D254F07
:10494C000091C3B25A2020212B4A09F092F9069803
:10495C00059E18E0264678202021059C234609F068
:10496C0063FA002C0BD00998802805D12878697837
:10497C000902081807F0E6FE204800210170089D86
:10498C00144F06980A9C1F49069009F035FAA64266
:10499C000FD1099880280AD10921284609F0C6F9B7
:1049AC001648002101700A2C01D103983870049B21
:1049BC0000E000234820144A069908F085FF0BB04C
:1049CC00F0BDC04620F80000600E0020EE04002070
:1049DC007D0300004E0E002079030000B1F10000B1
:1049EC007B0E00206AF40000C5A2000014F8000041
:1049FC0054F4000088F800005CEA0000260E002049
:104A0C0053FB00007AFA0000F3F8000013F10000E9
:104A1C00F7FA00007A03000055F60000EAE90000FE
:104A2C00720E00207E0300000083FFFF7B0300005A
:044A3C0083F2000001
:104A4000F0B583B0E34E0125357006F065FB002418
:104A5000E1480157002907D5E04A13783746F02688
:104A60001E40331D3E461370DC4F3A78142A35D869
:104A70005200C0467A449288520097449E009E009D
:104A80009E0087006A000D010D010D010D010D0151
:104A90000D010D010D010D010D010D01140014009A
:104AA00014000D01110107F0D3FC032009F058FA9E
:104AB000C02009F0D6F808F097F93878401C387013
:104AC00038780F210140032903D33878F0210140C1
:104AD00039703878202101433970DDE010462038E4
:104AE00003286AD310463038032818D2252007F04F
:104AF000BBFDBB480178BC2900D0CDE0417A01293B
:104B000000D0C9E00321C943B74A002936D0531861
:104B10004418647A7D25ED005C55491CF5E7242A8C
:104B200017D0342A00D0B7E00024204608F018FF40
:104B3000800600D5F7E0252007F096FDA84E717A93
:104B40003078AA2800D0E7E0FC2900D0E4E001207A
:104B5000E7E0AE4D2878411C2970AD490C5CA748B0
:104B6000007803F0B5FD3878DF21014039702878EE
:104B7000102800D280E0002028707FE03878F021F3
:104B80000140C81C3870A348002110E0A14A1378E6
:104B90005B1C1370DAB2042A0FD33A78F023134067
:104BA0001A1D3A70994A0123137080221143017033
:104BB0003878DF21014039706EE0894CFF20207287
:104BC000E071A0710020A07286490968617003221B
:104BD000D243D21C62710A0E22710A0CE270090AD9
:104BE000A1703E788A49102804D022180B5CD37239
:104BF000401CF8E720461B300A21FF2209F09DF8EF
:104C00002520002121540F200640751E032D20D29F
:104C1000BC202070032E11D1F920800072490A5C5B
:104C200062710818C17821728178E1714078A071B1
:104C300020460B301021FF2209F07FF880202077DA
:104C40000120E076E8B20228624E00D302256572A8
:104C500006E0002E5F4E03D101206072BB20207061
:104C60003878DF21014039706B480078C00701D0E7
:104C70000D2401E07320C44307F03AFEE1B2252081
:104C800006F066FE08F0B0F863480178491C017030
:104C90005B480188491C01800020307003B0F0BDE2
:104CA00007F0D6FB284609F05BF9C02008F0D9FFD1
:104CB00038782021029108433870514800880190CB
:104CC000504908F063FE4E424E414F49019808F0AA
:104CD0005DFE002900D075004848057008F084F892
:104CE000424D434E2B2C12D0285D002802D0401E8E
:104CF00028550AE001200021224608F0E4FE32682F
:104D000082433260706888437060641CEAE73878D8
:104D10000299084338700AE0AA280AD1FD2908D16F
:104D20000220364908703878DF2101403970294E59
:104D3000B2E7AC2801D0AA28F5D1701C2949042576
:104D40002A4608F037FF0290F9208000264909180A
:104D5000701D2A4608F02EFF02990843E3D11D205A
:104D600008F0FEFD2149FF220A7121490A6810233B
:104D700013430B603C2800D83C201E4D29691E4A75
:104D80001368591A08181060642108F029FE286178
:104D90003078AA281BD0AC28C5D134460934A01BD2
:104DA00008381928BFDC2078FF28BCD0A578AC21B2
:104DB000204603F0E7FB2819C41CF0E7301909303E
:104DC0000178FF29AFD0AA2103F0DCFB241D1C2CA5
:104DD000F4D1A8E7750E0020280E0020740E0020E4
:104DE000B8FEFF1F8CFFFF1FEE040020990D00206E
:104DF00000F8FF1F08FDFF1F880E00205A0E00203C
:104E0000DE0400202106000021050000300E0020F5
:0C4E1000D60D00203C0E00202C0E0020CF
:104E1C00F0B58AB01F246102C34842680A4342605D
:104E2C000121CA06836813438360C04BDA681020E3
:104E3C0008900243DA60BE488269BE4E32408261FD
:104E4C00426832404260426932404261BA4DAA68BF
:104E5C003240AA60B948826D32408265426F32405E
:104E6C0042672A6832402A6016229A60DA680A433E
:104E7C000E27BA43DA60002203921A6247225A6262
:104E8C001C605A6A80240994224340240794A2434C
:104E9C005A621A681206FCD50F2205921204A84E0B
:104EAC00736D934373650C02A64B1C645C649C6429
:104EBC00DC64726D3A4372655C609C60DC6020223D
:104ECC00D2437261A04A1461726D0A437265CD437C
:104EDC000195326C2A4032641C608A079B4B5F69D7
:104EEC0017435F611F6897431F6084677269089D51
:104EFC002A43726132682A433260934DEC60CF07CB
:104F0C005A693A4306975A611A683A431A60C46759
:104F1C004A037769174377613768174337602C6307
:104F2C008B4F7A6D099D2A437A653A6C2A433A6411
:104F3C007F4AD461059A920405465869104358611A
:104F4C00186890431860AC64EC642C656C650320A5
:104F5C00049002020292286C104328640598000207
:104F6C007A6902437A613A6882433A607248046211
:104F7C0044628462C462786D019A104078656C4D0D
:104F8C002C6078690222904378616B484460786D9C
:104F9C00089A904378652C61080372690243726128
:104FAC003268824332606848C4628A0501925E4D61
:104FBC0028681043286048025F4A90615061654A36
:104FCC0012200590907019205070117062480838AA
:104FDC0005680E4661490D400560B00260490860E5
:104FEC009078079D284390707869089A10437861EF
:104FFC0038681043386050490C617869099A10433D
:10500C007861386810433860CC61786908221043A5
:10501C007861386890433860CC60586904990843CB
:10502C0058611868884318604448046044604048DC
:10503C00C460494BD8684B49084006994018D86061
:10504C00474D2960F205384CA0681043A06005203C
:10505C00089000020090DB30434F38600498B86031
:10506C009F2038610720B861194658683B4B18409F
:10507C00801848602F46019828603C48039B0360C9
:10508C00204630383A4A02607006A2680243A26099
:10509C003848394A82600A68304D2A400A60B204A6
:1050AC003A60492202602F4D681CA2680243A2603C
:1050BC003248334A8260FF2212020F689743F20390
:1050CC00BA180A607204264F3A600360B006A268F0
:1050DC000243A2602B4A2C489060D3602B4810618D
:1050EC00482050611848029F0760476008682840B4
:1050FC00069D40190860F004194908601360206887
:10510C000799084320600D480099416601662048C4
:10511C0005990170099941701E481F4941608360CF
:10512C00089901600AB0F0BD3480044000B003401F
:10513C0000C00440FFF8FFFE00B0044000D0044063
:10514C0000F00F4000A004400490044000F10F4018
:10515C0080F00F400160074010E400E0FFFF00FF0B
:10516C0000E100E0FFFFFF0000710340007003400E
:10517C000000010100900340FF0B00000080034081
:10518C003B2D000000A00340FFFF000060EA000080
:0C519C000160064010E000E07FBB000056
:1051A800F0B587B00290BC4808F020FEBB4E3478BA
:1051B800BB480078002804D1B8480F220299FAF7B2
:1051C8007BFF0025B749284608F018FE07F05AFD6E
:1051D80002B266200695294608F0B5FE3678B2492F
:1051E8000878022803D100200870B0490870B04838
:1051F8000278511CC9B28E4203D2721E0AD2002212
:1052080008E0111DC9B28E4204D9321FD1B20A2951
:1052180000D30A2261B201910270A64D069F05943F
:1052280004960392F8B2062830D2B818C4B2361BD6
:1052380073427341401CC2B2F8001030C1B2122050
:10524800069108F09DFD2D20285C844204D10120A0
:105258002A22069908F05EFE0F252046974C214623
:105268002A4606F07DF8704270419049097801405D
:10527800103100911820069922462B4608F097FB1A
:105288007F1C059C049E8B4D039ACBE784480078CD
:10529800002807D02D27E95D8048007881421CD07E
:1052A8007E251BE0029908466438022874D36029D9
:1052B80000D180E0BF2900D186E06E297BD081290A
:1052C80000D18EE0612900D0C4E07849087801282F
:1052D80000D0DBE000200870D8E0592508F004FE73
:1052E800002801D16920C5434F207249085C400756
:1052F80001D43F200540E9B26F480A2203F088FA3A
:10530800012800D0A6E0354665488678072E7DD866
:10531800B00001A108588746975300004153000088
:105328004153000029540000155400003354000074
:105338001F5400004D5400005848017806915D48FC
:10534800C155624801270770029807F02DFD07F044
:10535800DFFA069801F028FF5D48C17802220A4367
:10536800C270384607F01CF907F0D2FA06F064FB61
:1053780003F002FE5748807A08F0A2FD07F0F0FA21
:1053880047480078022802D0022E00D080E0524818
:1053980007F0E8FB2E465DE02D20285C3F490978A0
:1053A800884222D10298642801D0652852D14A48FF
:1053B80007F0D8FB4EE04948002707703B490878BA
:1053C80001281BD10F7061E000203549087037496A
:1053D80008702D20285C31490870012002F0C8FEB1
:1053E80038E0012006F032FC34E002202C4D287011
:1053F800029807F0D9FC002068702BE00120284DA6
:105408002870029807F0D0FC6F7023E0012027492C
:1054180008702E4622E02E4628490D72012015E01C
:1054280028482E460570012006E0029807F0BCFCCB
:1054380024482E46057000201B490870224806F0B3
:10544800B5FF07E02E461D490D72002008711C4863
:1054580006F0ACFF15480078012817D10198B04232
:1054680014D0601CC0B2711CC9B206F093FD2D2087
:10547800104A115C8E4201D1145404E0019A8A4208
:1054880004D10C490E54012007F08AF807B0F0BD8A
:10549800012006F0DBFB7DE76FF90000480E0020D5
:1054A800110E0020CFFA0000820E0020490E0020C5
:1054B800200E0020760C002089EE00005203002008
:1054C800BD660000810E0020D99D0000760E0020E8
:1054D800920E0020EE04002011040000260E002089
:1054E800F0B58FB08278EE2A0CD1C378BB4A127817
:1054F800934207D1BA4C2278002A0D930AD0BA4BAE
:105508001B780AE0B64800210170B64C00202070D4
:105518000FB0F0BDB44DFF232B7006795DB20E9627
:10552800AE4201D0FF2BF3D10D9B5D1E0C230A93D5
:105538000B956B43AD4DEB180C930E9B5B1EAA4D60
:105548002B700523AB4D8B4206D2C75CD6B2AF5544
:10555800521C22705B1CF6E70E98002805D0A14863
:105568000178491C0170A24CD0E79E4800210170C7
:10557800D0B20428CAD307910C9B5989FF20069101
:1055880081430D98091859816A7898792F78D60936
:105598000E9609900028089112D01946DB79BB4273
:1055A800B4D138467F2717400B890F211940B942DB
:1055B800ACD105900698C105C90F8E42A6D106E068
:1055C80005970C230B9843438848C3181B890C9EE6
:1055D80031460A310F200240049083430B929818F9
:1055E800069030810598F071834A089810400E9A09
:1055F800120210180880AF1C384608F03EFC03461B
:10560800099A002A08D030887C49081839461F466C
:1056180008F062FB3A461DE0794800880E90308019
:10562800D8B20C280A9A00D81A46B01D1E460B9B01
:105638000D2B00D132460270D2B270480E9BC018B2
:105648003946174608F048FB32460E98C0196C498F
:1056580008800C9E0836D01C0B990D2911D00929F9
:1056680000D0A9E00A92C0B209902F18384608F075
:1056780004FC0C990346887800281CD00A99069ADD
:1056880079E0F021069B8B43C0B2285C0007000E2E
:1056980018183080501DC0B22E18304608F0EDFBA7
:1056A8000C9B9A78002A71D098885449081831467A
:1056B80008F012FB7CE008970596881C0390504878
:1056C80000884E4A09260196165488805A1E029070
:1056D800461C079F38460B930C92089909180E919F
:1056E800111AC2199A4238DA0E9BDB5D3B2B04D0A3
:1056F800B94202D07F1C0B9BF3E70E92099A8218DD
:10570800B94200D17F1CB0B23C490818A918092F2A
:1057180000DB019F3A4608F0DFFAF619384A16808E
:105728000B9B092F08DAB0B22021344A1154761C99
:10573800334806807F1CF4E704980002069A110A91
:105748008243481C0007000D8218069205980280C3
:105758000E98401C079F0C9ABFE7B0B20021274A59
:105768001154701C264908800299401A0399087040
:10577800069A0A99059EF0208243C818001DC0B2F7
:10578800285C0007000E1018308011E005463146ED
:105798009F1C09281A4806889E8000DB092517489F
:1057A80080192A4608F098FA7019154908803D7042
:1057B80014480178491C01700D98401C074908706D
:1057C80011490978C0B2884204D9012003490870F8
:1057D8000E49087006480121017097E6990E0020CD
:1057E800370E00203A0E0020980E00209601002067
:1057F8001B0E0020EC0C0020FFFE0000D608002045
:10580800E2040020390E0020360E00203E0E002053
:10581800F0B58BB0BA498879401C88710020012105
:105828000691B94DC7B2012F00D9F4E0002F02D07C
:105838003720000100E0B748B7490818002400578E
:1058480039016E180028069B1BD016280CDB15386A
:1058580040B208F04FFBB1798142069B11D0B11DCF
:105868000028087005D10CE008F044FB0028069BCE
:1058780007D0002F02D008F057FB01E007F068FBC3
:105888002346052179439F4803914018089085785D
:10589800FE202840022801D1A0488488A04800782A
:1058A800002800D09F4C0794032008990C56042D1B
:1058B80005D368009C4940180838008807900122E1
:1058C800002D0492059337D0162C24DBF07831880C
:1058D80001438B4A9079084391880143B078084383
:1058E800B11C002801D1002008702046153840B2AC
:1058F800019108F0FFFA019A002808D011780029D0
:1059080005D1F11C0A7853425341019A0B7010706B
:10591800059B049A10E0002C0DD0204601972746DD
:105928002C461D4608F0E6FA049A2B4625463C46C6
:10593800019FF07000E0F2703088F178002902943D
:1059480001D1014608E09102079A12B251188A0E55
:1059580089188911C9B24118694C002B00D1014638
:10596800318007F0E9FBA188401A80B2642850D33F
:10597800A279318809A808F07EF8099807900A9951
:105988003180002F05D00021A171211D6420059BC5
:1059980005E02188491C2180A11C059B04980A88E0
:1059A80012180A800798000602D03189491C3181F3
:1059B800002B06D0F11C0978002902D0B188491CB7
:1059C800B1807189400E0A1872814E480399405C73
:1059D8000899497809020818B08131460C31002D20
:1059E800034610D0012D04D1029A002A08D0B288AB
:1059F80007E0022D01D8328903E092B2120900E0D3
:105A08006288831A0B80089A1279002A01D0C01A7A
:105A18000880781C05E7A889E98981426BD0394B51
:105A280019785A781E79E881EB78002B63D0120236
:105A38005118002E00D0081A07B23C4C20784007B5
:105A480026D5002924D00A2F07D0B8B2142807D0A9
:105A58001E2808D1192029210EE01B202B210BE03C
:105A68001A202A2108E0052F47DC28480A3000B20E
:105A7800874203DDF9B21C2007F042F90698002896
:105A880006D020780821014002D021483221018027
:105A9800002F01D4384600E0A889002E00D13846EE
:105AA80001B209A83C2207F0E6FF2078800715D547
:105AB8000A98002812D1607A800703D4002007F0E2
:105AC8003DFA05E00998002802D000B208F0B7F8BE
