:1000000000180020D1CA00002DBF00002FBF000043
:1000100000000000000000000000000000000000E0
:1000200000000000000000000000000031BF0000E0
:10003000000000000000000033BF000035BF0000DA
:1000400005B600003BBF00003DBF00003FBF000001
:1000500037BF000041BF000043BF000045BF0000A4
:1000600047BF000049BF000051B000004DBF000075
:100070004FBF000051BF000075AF000055BF00002A
:1000800057BF0000D5B3000029CF00000DCF0000FE
:100090005FBF000061BF0000D5BD000065BF00006C
:1000A00037BF000067BF000069BF000037BF000016
:1000B0006BBF000037BF00006DBF000061C30000D0
:1000C000F0B583B002920F4601900825BA48425F0E
:1000D0000621BA4E715E891A8B0EC9188911B84B68
:1000E00019700A23C35E705FC01A840E0019801154
:1000F000B44C2070C0B2C9B2002900D0F280B24A1C
:10010000002800D033811478B04A1378002B03D133
:10011000B94B1B789B0606D50020AA490870A84950
:10012000087010700146002904D1002802D170889F
:10013000002801D00CF038FEA54806780120009078
:100140000298FF285ED0A348007801281FD000281D
:1001500041D1A2490878012802D100200870344614
:100160009F4B5A5700201872012A18DB611CCAB233
:10017000521A531E9A41B442019B01D2002A22D046
:100180001978029A91420ED2491C19701AE0002087
:100190002E2F1CD09049097800291CD117E0002A85
:1001A00003D421460FE018700CE0002C019D01D013
:1001B000611E08E02B78002B029A00D05A1E2A708C
:1001C000009A0A7001462E2F04D101200C46814965
:1001D000087000E00C4683480078401CC5B2854298
:1001E00001D00020C5430CF0FFFD002800D10546DA
:1001F000E8B23D2804D3012076490870764908709A
:100200007848057078480670734D28780028019B5F
:1002100017D03846603805283CD93846423803287C
:100220004CD9212F00D171E02E2F3AD0812F64D0EC
:100230008E2F68D0BF2F00D0A2E000241C702C703D
:100240009EE060480078002813D01978091A4AB255
:100250000020002A00DC0146CAB2029DAA4200D357
:100260002946197057490870E0B2B04200D33446AD
:10027000594D18780028CCD0514800780028C8D0B3
:10028000241A60B2002800DC0024E0B2B042C0D3DF
:100290003446BEE7784400794000874402711D2649
:1002A0002B5B0298FF286BD028784142414129708E
:1002B000002865D147480121017061E07844007948
:1002C000400087440129354518780299884257D063
:1002D0002978002904D053E02878002850D11878D4
:1002E0000299884246D3002045E02878002847D16B
:1002F000187817E0002E20D142E0002028700098E6
:100300000BF0B4FC3CE08E200CF0F2FD28780028C5
:100310002CD00020287033E01878002830D02978BD
:1003200000292DD1002801D0401E0290029822E021
:10033000002E25D0E0B2B04222D0287800281FD16C
:100340002A4900200870E1B2B14232D3044617E0D6
:10035000200615D0002E13D02878002810D123486D
:100360000021017020060AD0661E08E000200BF074
:100370007DFC05E0401C1870E0B2B04200D334466A
:10038000114804700020124908702878002801D014
:10039000022100E00121094B154A117059884A1EBB
:1003A00091410028009A00D10A461248027003B019
:1003B000F0BD641CE4E7C046780400209A040020E5
:1003C000350E0020340E0020490E0020330E002090
:1003D000770E0020890E00203C0E0020560E0020D3
:1003E000100E00208E0E0020960E0020840E00209D
:0C03F000910E00203B0E0020980C002015
:0403FC0022047C5EFD
:10040000FFFFFFFFFFFFFFFFFFFFFFFFFEFFFFFFFD
:10041000F0B595B0244902260E70244C07222146DF
:10042000059209F079FB0146214F3878401EC2B28F
:1004300020461291FFF744FE1E4D2878411ECAB295
:100440000D2A0AD81C4BD340DA0706D048B28000E8
:100450001A4908580BF0F2FF28780D2801D900F04E
:10046000F0FE24781394400078448088400087444C
:100470000D00E8062B00FE004301E806E8065501E2
:100480005200E806E806E806F000EE020C480DF01F
:1004900006FD0E203870601CC2B20A4807210DF01C
:1004A00005F900F0CEFEC046950E0020620E002039
:1004B000810E0020290E002031270000D0C300004B
:1004C00096EE000098C30000F9480DF0E8FC062005
:1004D0003870F84807780825F74928460DF0E7FCFA
:1004E00063426341F54EB07D4209F549284609F063
:1004F000E5FE4001B17D1F220A401018B075F07D65
:100500000025012C00D0D8E240B224210CF0CEFD11
:10051000F0753B46D2E2EB480DF0C1FC102038707C
:10052000E94800781190139840B20CF0BDFA139B83
:100530000D900022072A01D100F083FE0D9881184A
:10054000481CC0B214904000C9B21291994202D125
:100550000221F94C2170D94940181499102901D869
:10056000F64900E0F64945180E92D0000830109088
:100570000027032F6AD200201199B94201D0014609
:1005800001E0CC490978129A9A4200D00146CEB2D5
:10059000711E304688411499102955D87F21394061
:1005A000012921D000293CD140000F901098C6B2FB
:1005B000002420463146149A23460DF068FC287822
:1005C0008009022800D901240F9B3046F3492246B6
:1005D00009F074FE3F21002800D0C843139B2A78FD
:1005E0000A4002432A702FE028781099C9B2800689
:1005F0008216452033460AF07FFA139B002E23D043
:1006000028781521C9438006801616220CF0DEFDDD
:10061000139B3F2101402878C022024050182870C7
:1006200012E001242A571098C1B2782033460DF009
:1006300056FC002E139B07D028577C21C9437D22EE
:100640000CF0C4FD139B68707F1C92E70E9A521C3D
:1006500070E7DD480DF023FC0A203870042C0E965C
:1006600000D93AE20CF040FD00252C4637E2D7488D
:100670000DF015FC11203870AF4803210170AC4813
:1006800000780D90139840B20CF00EFA139B049072
:100690000F2B00D90EE35800CD4C205AC10B401847
:1006A00000B24010CB4942184E2000210DF0ABFCA7
:1006B000139BC9480078802800D00AE30D980028D1
:1006C00000D006E3052058437C49081857218900CB
:1006D000425C0499591A4900615A002A00D04942E3
:1006E000FF225E328154090A8018417002200CF00A
:1006F00007F80CF089F9EBE2B8480DF0D0FB0520C3
:100700003870B74800240470B64E35781398002826
:1007100001D100F0C6FC234600F0CCFCB2480DF03D
:10072000BEFB0C2038708448032109910170804879
:1007300000781190139840B20CF0B6F9089000249C
:10074000072C01D100F07DFD5A4800781490E0009C
:100750000830C5B200274C22384629460DF03AFC35
:1007600008980019C6B2082E0F9401D8312100E074
:1007700038210818C2B2052029460DF02BFC099833
:1007800070434E4909184B20C0000E9112900B5C2B
:1007900013988642149C00D03C46119E002E2046A1
:1007A00000D03846C0B200900F20109003400D20BA
:1007B00029468E4A0DF0C7FA022E204600D0384650
:1007C0000C90012E149400D03C460D9488480E9C49
:1007D00026181298205C109908400CF0E7FC0228BB
:1007E0000A960B9016D0012820D0002100282ED187
:1007F0007756252F34DB7F4961560C9AD2B200928E
:1008000082220192253FFE223A407D31382A5DD076
:100810000B465DE07748225C0C98C3B25020294615
:1008200009F032FF32780D98C3B259E000203256F9
:100830000D98C3B2362029460AF05EF96D4822565B
:100840000C98C3B24D2029460AF056F94CE0725676
:10085000694900912021002A07910AD40D9F0AE0DE
:10086000644822560C98C3B2632029460DF037FB2A
:1008700033E00D9F0F43FBB2D109514048B2401CF9
:1008800082B2492029460DF0C2FA5A482056002863
:1008900001D40C9902E00C99079A1143CBB2C1091B
:1008A000414048B2421C6B2029460DF018FB1BE06A
:1008B000DDF80000910E0020A9EC0000C804002023
:1008C000E5F4000032F70000490E00200A234B43F4
:1008D0007AB26420294607F0C1F80D9F3278FBB246
:1008E0003620294609F0D0FE11981499129AA618BC
:1008F0000328084600D0002031780A09082A00D9C8
:10090000521CC3B2682029460AF0F6F83B4800782A
:10091000002800D198E01498000600D194E01198C6
:10092000032800D990E003A1085C40008744C0463A
:10093000490E00200A212F40770E00207B02000084
:10094000E10200003078109D28400E210CF0AEFB33
:1009500028403178F0220A40111831700CF026FC42
:100960000B99814270D00020224960540A99087086
:100970006AE00B98032867D87844007940008744E0
:10098000013F014600210A9C60565E2245E00B981B
:10099000032859D802A1085C4000874422F70000D0
:1009A0000342484D134D60577C21C9437D2248E0E6
:1009B00030780009109C21460CF078FB31782140FA
:1009C0000001081830703FE0E9FA0000B8FA0000B2
:1009D000F0030020DC050000840E002032FA000045
:1009E000870E0020820E0020A0F6000094EA00008E
:1009F00056020000570200006EFB00003B0E002074
:100A000000200A9C20561521C943162205E000202B
:100A10000A9C20563121C94363220CF0D7FB207079
:100A200012E0FC4D60571521C943162209E0F94D2B
:100A3000605700215E2204E0F64D60573121C94322
:100A400063220CF0C3FB60550F9C641C78E6F248EF
:100A50000578F2480DF023FA139C0A2C00D9A0E285
:100A60000CF042FB224610203870052C00D9EAE336
:100A7000002A02D1EA480921017051425141E94856
:100A8000007800910821E84E0A2732463B4609F0DB
:100A90009DF813980128149501D000F04CFC129891
:100AA000602802D1B07A0DF06BFAF05731210CF0CA
:100AB000FDFAB0722B4600F040FC2B46C2B2662015
:100AC000102109F0E1FD307E1399022953D140B283
:100AD00064210CF0EBFA30764EE005240125CE4877
:100AE00007780826D14930460DF0E1F92A4631321F
:100AF0001E20109631460DF06DFA1398149484421E
:100B000011973B4600D0002305206843C84A115C7A
:100B1000141801201290205600930002421847201A
:100B200010990CF00EFD1399149D8D420E9E16D156
:100B3000C0483C2202703B20C143002528460CF0EF
:100B400045FB2178627812025118081801B2002979
:100B500000DC28462070000A60701399149D681C00
:100B600088423DD10220205613210CF09FFA1399A0
:100B7000A070012235E02F46C2B2542018213B4616
:100B80000CF0F2F8139DE81E42424241B07D40074E
:100B9000C00F2021A84CA047C007400FB17DFB2209
:100BA0000A401018B075281F424242410807C00F82
:100BB0002821A047C007000FB17DF7220A40101876
:100BC000B075681F42424241C806C00F3021A0479D
:100BD000C007C00EB17DEF220A401018B07530E397
:100BE00000220529129B00D381233C20102109F00B
:100BF00093F9032728463043002213998842119B1A
:100C000000D013461092E257002B304600D03846F1
:100C10000F9700905A2018210CF0AEFEE070139D43
:100C2000149F781BC01C43424341227920208349F2
:100C300009F044FB2071381DA842119B109A00D086
:100C40001346002B0F9800D00646774C052D01D394
:100C50007B4800E07B482518AA5600964F202821A3
:100C60000CF08AFE724F7A7977496254FA78774BA2
:100C7000E254FA79764BE2543A7A764BE254764A69
:100C8000A35C7F261E407B7ADB01F318A3542870F7
:100C90007878A073387860736018B9794170B87843
:100CA000E072387912990840217BFE220A40101820
:100CB0002073C6E26948007880280AD1102B08D139
:100CC00067481921017080200CF012F908F02CFA05
:100CD000139B7C200390C0430C9000263246072EC5
:100CE00000D14DE104983218D4B2F00008900830D9
:100CF000102C00D145E1119661005A4B595A0B91C5
:100D0000052110946143484B5C18572189000991D3
:100D1000675CFF210A915E31655C61180E914E7827
:100D2000C1B21292501CC2B200200F91149003461F
:100D30000DF0ADF830024019002F00D140420B9960
:100D400043187F217E22002F0846119E00D01046B6
:100D50001BB20C9D4B35AB4200DB2D20002F00D089
:100D60000A46322B109F00DC02464B200F990DF0F3
:100D700031F92D48817D0220084001D0039900E01F
:100D80006321C9430791139B129A002801D07D204B
:100D900000E0642006900598089901430891AD2071
:100DA000400020180B900A985C3020180A9009988F
:100DB00020180990149C042C00D3DFE00D986040AB
:100DC000394659400143149401D0002401E01248EF
:100DD0000478E5B268426841234909784E424E41A1
:100DE000064302D10020214908702B2000010E4942
:100DF000085C002700283FD001210E9A51560902B5
:100E000012788A1891B2002936D0824230DD074626
:100E100032E0C04657020000910E002052FA000056
:100E2000770E0020490E0020C804002043F1000086
:100E3000060E0020880E0020A9CF0000CDF400008F
:100E40007203000071030000AB0200007B0200008F
:100E5000AD020000AE02000073030000840E00200B
:100E6000370E0020F00300203B0E0020870E0020EC
:100E70004742BA4200DB0F4638B20A210CF003FDAC
:100E80007F21149A1140022923D0012949D0002939
:100E900064D101250E994857000209784218202094
:100EA0000443E3B22D200F990DF019F8002E119E86
:100EB000109F5ED10E9C60570002217840187D2162
:100EC000CA000223F64906F091FF2070000A607004
:100ED0004FE00A990978643149B2401801B27D297E
:100EE00000DB7D2002B266200F992B460CF0F7FF45
:100EF000380406D00898C1B23220382209230CF0F9
:100F00003BF8002E119E109F33D10A9C20781821A7
:100F1000C943643040B2069A0CF058F96438207026
:100F200027E00B99097864394CB2001901B20C9A88
:100F3000914200DC104602B248200F992B460CF07B
:100F4000CEFF002E119E109F13D119222046079923
:100F50000CF03CF964300B9908700AE0099C207889
:100F60000F992A460CF020F8411E88412070119EEE
:100F7000109F149C641C139B129A1CE7761CAEE60F
:100F80003820D1B210290BD110214B40C549097826
:100F900019434B424B41C1B21220C34A0CF008FD29
:100FA0004FE114951020119038700827BF4938463A
:100FB0000CF07DFF20460B3843424341BC4EB27CCF
:100FC000BC49384609F07AF9B07400250C2C00D0E1
:100FD0001495149B581E19468141142032560091D5
:100FE000662011990CF0C8FC307520460D3842423D
:100FF0004241707C0007C00F18210CF01CFFC00795
:10100000000F717CF7220A401018707420460E38C9
:1010100042424241307B8007C00F20210CF00BFF81
:10102000C007800F317BFD220A4010183073FF206B
:101030004000149001242F46072F00D101E1737D59
:101040002340581E83419C48C25D28463F30C0B2B1
:10105000282107F0FBFC13980F281CD10620974984
:10106000087097480078874215D128463E30C0B2B4
:101070002721082209230BF07FFF12982E2801D088
:10108000202808D1707D6040707502200BF038FB7D
:1010900000208C490870640014980440ED1D7F1CEA
:1010A000CAE768B2032200210B460CF0A2FF0546F6
:1010B00030700123681CC2B208262046314609F070
:1010C000E3FAEDB228460BF013F9034600942A2008
:1010D000EF4A314614930CF036FEEE490E96304638
:1010E0000CF0E5FE6800EC490E5E28460BF0CAFFE6
:1010F000012300940193652E194600DB21467C22D2
:10110000D2431932964210931E46139B00DB4E00C9
:10111000002800D02646701E11908641581E454278
:101120004541304628401821DC4F0A460F91149B58
:10113000B847009401941199481E814111910D40C6
:101140003021129128460F9A149BB847109F0097A0
:1011500001971398801E454245412E4028220D924A
:1011600030460F99149BCD4EB047009701941198CB
:101170000540284612990D9A149BB047009401949B
:10118000139FF91E484248411E2563232946129A9F
:10119000B04700940194391F4842484138226223E5
:1011A0002946B047B94E30780BF06CFF5C2500281B
:1011B000284600D03C204022214609F025FCB848B2
:1011C00010990170284608F04BFF30784100B24A70
:1011D000555E1927394669430A0E8E18294608F0CC
:1011E00087FB14903212722012990CF00CFF149E9F
:1011F0007743380E3818021254200E990CF003FF72
:101200006801FF214900891C4018820D8018870A57
:1012100038465C30C0B2720151188A0D89188E0AA6
:101220001D21891BC9B207252A4609F0EDFB593754
:10123000F8B22021891BC9B22A460CF0C6FE984894
:10124000047015B0F0BD08249849204615460CF0EE
:101250002EFEA81F424242418B4DA87D8007C00F41
:1012600021460CF0E8FDC007810FAA7DFD23134045
:101270005918A975002827D1AD2040002818D5217C
:101280004900691888421FD200214256002A00D521
:10129000017001228256012A00DB4170401DEEE7F9
:1012A00018FCFFFF370E00208FF6000068EF0000EB
:1012B000C8040020F4F20000A2FA0000770E00201B
:1012C000490E00203C0E00201398C01F43424341AA
:1012D000744FE85D8006C40F10207549224608F05F
:1012E000EDFFC107890EEA5D20239A435118E955A5
:1012F00001263040A04202D00AF0D4FBE95D1398E9
:101300000838424242414806C40F182120460CF0DA
:1013100092FDC107490EEA5DBF2313405918E955F4
:101320003040A04201D00AF0BDFB0BF09BFD00282D
:1013300069D0812268E0B07A00235E4900914121A2
:101340008900C0B24218582010210CF060FD18200E
:1013500059490CF0ACFDFF204700012400251398EB
:10136000082D14D05548305C2040411E8841009023
:1013700053484219062068434230C0B21821012365
:101380000CF0B5FB139864003C406D1CE8E70228A4
:1013900019D141201721382209230BF0EDFD1398B4
:1013A0001299602901D02E290DD112980BF0A0FDC1
:1013B0000CF033FC414970543B480021017002207D
:1013C0000BF09EF91398C01E42424241354C305DED
:1013D000C006C00F202529460CF02DFDC007C00E09
:1013E000315DEF220A4010183055139804282FD190
:1013F0002B200401305764210BF058FE305520217A
:10140000149D0D4327E08022602020210CF0E2FD96
:10141000139C2046093842424241687C30402821D2
:101420000CF009FD3040697CFE220A4010186874F7
:101430000A3C62426241C806C00F30210CF0FBFC3E
:10144000C007C00E697CEF220A4010186874F8E6E5
:101450002B200001305CC2B2782028212B460CF0F2
:101460003EFD1398401F434243419F208400305D5E
:1014700042093020134908F021FF4001315D1F224D
:101480000A4010183055DCE6C8040020820E002007
:10149000D1F8000097F30000780400207D9C000044
:1014A000400E0020730300003C0E00203EED0000C3
:1014B00052F70000B1F6000033EF0000AF02000069
:0814C0005FF900004BF400008D
:1014C800F0B58BB0224901260E7022490978C90768
:1014D80001D0042200E003221F4C214608F018FB2B
:1014E80007461E4D2878401EC2B220463946FEF7F0
:1014F800E3FD1B4800780B2801D900F0FCFD01979B
:10150800029618490E7827780A9740007844808810
:10151800400087440B0029005B00AD00BE002A0193
:101528008101AA0186028E02AC02EF02F1480CF09A
:10153800B2FC0848007801220240D11C0A322A7005
:10154800781CC2B2EC480CF0ADF800F0D4FDC046EF
:10155800950E0020850E00206E0E0020810E0020C2
:10156800290E0020910E0020E4480CF094FC06207F
:1015780028702E25E248425DE2480090002F06962A
:10158800344600D000247620082123460CF03BFC8A
:10159800002CDB4E07D070570A212D220BF012FECB
:1015A80070550BF007FE1020D7490CF07CFC312554
:1015B800705D0024012F00D00AE340B21521C94311
:1015C80016220BF0FFFD7055069B02E30696CF48E6
:1015D8000CF061FC062028700820CD490CF063FC53
:1015E80039465C27C64DE85DC41D4026002906D152
:1015F8000698064360B207210BF054FD0446E2B298
:101608006620082133460CF066FCE01FE8550A9E68
:10161800701E434243414324285D8006420F102038
:10162800BC4908F047FE4007800E295DC7220A40E2
:1016380010182855B01E434243414F242A5D042AFE
:1016480000D304221820B44908F034FE0328069F6A
:1016580000D907202855032E00D01AE34D24285717
:10166800012164220BF0AEFD285540233B4313E3D0
:10167800AA480CF010FC062028700820A8490CF095
:1016880012FC002F00D1E1E32F209D49085C402384
:10169800E6E3A4480CF0FFFB06202870002F02D1D7
:1016A800A1480921017079427941A0480078009148
:1016B800934C2246513208210A2308F083FA781EF7
:1016C800434243414625605D4007C00F1021984AB8
:1016D8000CF0FDFAC007400F615DFB220A401018AC
:1016E8006055B81E43424341C806C00F1821914AAD
:1016F8000CF0AFFBC007C00E615D3A46EF273940DA
:1017080008186055D01E424242414C26A05DC006D2
:10171800C00F20210CF094FBC007C00EA15D39401A
:101728000818A0550A9F381F43424341605D800650
:10173800C00F2821804A0CF08CFBC007800E615D29
:10174800DF220A4010186055781F43424341A05DCC
:10175800C0093021794A0CF0BAFAC001A15D7F2294
:101768000A401018A05500F0C6FC069674480CF004
:1017780092FB09202870042F00D99EE20BF0B0FCE0
:101788000825704928460CF08EFB7A427A415D277D
:101798005B4CE05D0126304029460CF048FB3040A8
:1017A800E15DFE22099211400818E0550A98401E92
:1017B800424242414627E55D3540102128460CF05B
:1017C80036FB08963040E15D099A11400918E15549
:1017D800A84201D00AF062F90A98022801D0002034
:1017E800069049200990205C57490F5C0420574D0A
:1017F800C6B2002E00D18FE2062141435431C8B24F
:101808000321394069184A781821069B07F01AF90C
:10181800701EF9B28F08EBE74D480CF03CFB012035
:101828002870002525704B4C019E072D00D176E1CC
:10183800E8B20AF017FC0E21635E02B29A42014632
:1018480000DB1946E1811C23E35E9A4200DC18465E
:10185800A083042D06D309B200B24018C10F401866
:1018680040082080A41C6D1CDFE706963A480CF05F
:1018780012FB062028702D48007807900AF0F2FF26
:10188800800700D56FE2082034490CF00CFB1020CB
:1018980000231B4D042B00D190E20490C1B2581CC8
:1018A8000390C2B20026304609930891334608F0E7
:1018B800E7FE099948002F183A37042E00D3ABE009
:1018C80000240A98814209D1032017490870079813
:1018D800B042234603D10223069C00E023467F2022
:1018E8003040032800D994E001A1085C40008744F7
:1018F80037446279ACEE000098C800005AFA00003C
:10190800520C0020F6F9000012EC000095F80000D7
:10191800EAF1000091F00000FDEE0000C6FA0000B8
:10192800C0EB000052FA0000770E0020490E00209C
:1019380062F7000082F400007DF90000B9F80000A9
:10194800B7F9000063F00000B5F4000001FB0000E7
:1019580089F80000420300204AFA0000F2F600006D
:10196800787882090898EB4908F0A4FC8001797816
:101978003F220A40101878704BE078788006851668
:101988000D20684381B2890B4018821042200899C3
:1019980023460CF0A0FAA0073BD51E20C1431F2206
:1019A80028460BF00FFC3F2101407878C022024006
:1019B800501878702DE03D78009407200590054078
:1019C8002B46103348200899E94A0CF0B8F9A007CB
:1019D8001FD5032128460BF065FB05990840397887
:1019E800F82213E000203856C5105A2008992A46D4
:1019F800234609F07DF8A0070BD50E20C1430F221E
:101A080028460BF0DFFBC000397807220A4010187F
:101A18003870761C099950E704980830039B0A9F90
:101A280037E7D4480CF037FA1020D3490CF03BFACA
:101A380061E3D2480CF02FFA0025E9B209297AD2DD
:101A4800E800032900D90838C4B26E1C72B22A20F3
:101A58000023214609F04CF80F35E8B208F088FD5C
:101A68000246442021460CF0FDF93546E5E7C44816
:101A78000CF011FA02982870C24800250570202041
:101A880006430696C04FEEB2082E68D2E800C4B2EC
:101A98001820412221460CF099FA28463130C2B26A
:101AA8001E2021460CF092FA30460AF0DBFA024674
:101AB8002A2021460BF0C2FE032E04D830460BF034
:101AC800E9F9401E02E0062E28460CD8C0B24000B4
:101AD800385E19214143080E081802125A2021467F
:101AE8000CF08DFA04E05A202146069A0AF04CFFC1
:101AF8006D1CC8E7A5480CF0CEF9029828707B4207
:101B08007B414624A24D285D4006C00F0821A14A0A
:101B18000CF09FF9C007400E295DBF2277E12A2407
:101B2800202E9D4D285D9D49087000D1F0E1BF2E03
:101B380000D1F9E100E2102099490CF0B4F9002431
:101B4800E0B206281DD2E1003822551A08F010FD2F
:101B58000246E9B220200CF085F9641CF0E78F48B2
:101B6800029901708F480078002800D1C3E2302420
:101B7800874D28577E21C9437F220BF023FB285528
:101B8800B9E254201821884A0CF034FA0025EBB247
:101B9800032B00D9AFE2E8002030C4B2542021461C
:101BA800824A09F0A1FF6E00B01DC0B208F0E0FC47
:101BB80002466C2021460CF055F9F01DC0B208F021
:101BC800D7FC0246782021460CF04CF96D1CDEE764
:101BD800234642B26020102108F08AFFB81E424214
:101BE80042414C25705D4006C00F18210CF01FF9CA
:101BF800C007400E715DBF220A401018705520259D
:101C08000321E7B2022F31D23046002F01D05030E5
:101C180000E0483004780A988142089106D160B201
:101C280078210BF03FFA0446069B00E00023E6B259
:101C3800052272430995EDB2662029460BF090F80B
:101C4800002E04D07820732229460CF0BFF9002F0B
:101C58004F4E304601D0503000E04830099D089979
:101C680004707C1C0835481CC1B2CAE70A98401F9A
:101C7800424242414624305D0007C00F30210CF03B
:101C8800D6F8C007000F315DF7220A40101830550A
:101C980031E24D20285C4023C2B2662020210CF09E
:101CA8001AF9042E00D098E04E24285705210BF08D
:101CB800F9F9285540210F4392E0092F01D308274D
:101CC80027700A973A4803210170314C5F34082184
:101CD80005260027042F00D10DE200200090CDB288
:101CE800FBB21E2009912946324A0CF028F8F6B2B8
:101CF8000A98801B414241412F48007800910423F3
:101D08002946224607F05EFF0999241D7F1C0831E9
:101D1800761CDFE74AF800000698002805D0099DE0
:101D2800605717210BF0BEF9605500252F46042D8A
:101D380071D01826304678432430C0B2EBB2202147
:101D48001A4A09F0D1FE5E20205CE840C00707D09F
:101D58006E432436F0B22021122200230AF0A8FA9A
:101D68007F1C6D1CE3E71820EF490CF09CF8C2E1DA
:101D780071E9000042FA000032F000003AFB00006E
:101D88005EFB0000870E002078040020AEF90000FA
:101D9800520C002082FA000042030020330E00207B
:101DA80077F300003C0E00208AFA00005EEC000089
:101DB800770E0020CFF50000490E0020042F00D038
:101DC800D2E04A2428570921C94328220BF0FAF9FE
:101DD80028552021069B0B43C9E04E20285C40274C
:101DE800D9490091C2B2662028213B460CF00BF875
:101DF800701F434243414624285D8007C00F3021AD
:101E0800D24A0BF064FFC007800F295DFD220A400B
:101E1800101828556FE10A98032800D0EBE0B8485D
:101E28000078C00709D05E2560570F210BF03AF9FA
:101E38006055C4480078400605D423201F215C2241
:101E480009230BF095F84420205CECE02F24AF4DDB
:101E580028571E2178220BF0B5F928554023334323
:101E6800C2B2662008210AF07BFD4525A74C605DBB
:101E7800012F08D140B20921C9436E220BF0A2F903
:101E88006055334600E0002342B20A327020102128
:101E98000CF021F8B81E424242414325605D0127FB
:101EA80038401821A54EB04733463840615DFE22C0
:101EB8000A40101860550A9EF01E424242418807A7
:101EC800C00F20211F469847C007800F615DFD2283
:101ED8000A4010186055301F424242414807C00F5F
:101EE8002821B847C007400F615DFB220A4010183F
:101EF8006055701F43424341C8093021904A0BF096
:101F0800A8FFC001615D7F220A4010186055F2E009
:101F1800401C7C490855C1B203290DD117200BF08C
:101F2800CBF801200AF0E8FB76480021015518207B
:101F38007C490BF0B8FFDCE0C0B20028F7D00228DB
:101F480000D190E0012800D0D3E00024724E734FF6
:101F5800072C00D1BAE0AE83EF81E0B20AF082F834
:101F68002880AD1C641CF3E74A20285C20236F49B5
:101F7800009140B20A3082B24E20302421460BF044
:101F880042FF32356A4E902C10D0287869780902C1
:101F980008183188081A400002B2E0B2382120231C
:101FA8000BF099FFAD1CB61C1834ECE7052F52D185
:101FB80001986028029C4FD15D4908883222534C11
:101FC800A0545C4A002313703234CA88A2718B88EB
:101FD80023714988A170120AE2711A0A6271090A0A
:101FE800E170000A6070012420460AF085FB172082
:101FF8000BF062F830E044250428605D13D14D49A8
:102008000978002979D040B203210BF04BF8615DC3
:10201800C2B202238A4207D060554C21625C7F25F8
:102028001540655400E000233130C2B21220282147
:1020380006F008FD0024E0B203285CD818256543A3
:1020480024350AF027FF0246E8B22821002308F0C9
:1020580017FB641CEFE7002400203821364A23468A
:102068000BF0A2FC47E02848002101700D20C04376
:10207800264D00282DD023490A18135F1C26965F89
:10208800F71AF9177F184F40332F1DD399B2B3B2FF
:10209800D689891B0AB2920E8A1812B29209891A35
:1020A8002A182B27D155D673370A1774F31A1EB27C
:1020B800B60E9E1936B2B6099B1B5377090A164607
:1020C8002B367170190A9177801CD2E710201449B9
:1020D80008E00AF09FFD2B2168542B35000A687030
:1020E80010200B490BF0DFFE12201821094A0BF0D3
:1020F80081FF08F027F90BB0F0BD089B94E7C046B4
:10210800850E002042030020870E0020520C00207C
:10211800E1F5000029F6000068C50000983A0000C3
:1021280013F800004BF60000D4FA00002AF900006A
:10213800580400203C0E00205AFB000049DE000035
:1021480021F800004B0E00205CF600007DF800002E
:10215800F0B59DB0029002200A46149002401392F6
:102168002020084006900126039131401291442016
:10217800D449085C8006000ED3490818119009203C
:10218800C043099000271BA81A90D04C10971797A6
:1021980016971596072F00D1C5E0FCB2204609F026
:1021A80061FF00B21994214608F0B0FB0446032FE2
:1021B800384604D82009C649C8551198C05DC5B22B
:1021C8006B00C448C452200F201800B20009010651
:1021D80001D5404200E080B20006BF4988420CDCCD
:1021E800002802D0BD48007800E0FF200121A94066
:1021F8000140C8B2169901431691032F29D81298A5
:10220800002818930DD1B148007B800709D5AD4847
:10221800C6183A20305C3A36717809020818810BE2
:102228003FD1179E0698002803D0AD48C018F82162
:10223800445221B2284607F057FB0446A9480078C3
:1022480019990BF050FE189B40001A9908801796B0
:10225800159E0698002803D0A148C018E0214452D2
:10226800032F01D8002000E00120139900293146EE
:1022780000D0014600290ED1022D0CD00A2C02DC18
:102288000998844204DA9648C018E0210022425294
:102298001BA80021C1521A98801C1A907F1C8B4CD5
:1022A80078E7000200B2C0120BF080FE00282DD0A3
:1022B8008D480078002829D03078717809020918EB
:1022C80048070B460F91000F7E49091832228A5C95
:1022D8003231497809028918844A105A401A81B261
:1022E800C90B401800B24008990009B2890A414355
:1022F80008B21F210BF0C3FA86000F98800B022842
:1023080007D00128189B06D1341904E0179E189BA2
:1023180088E73446189B022D00D0179E022D81D1E4
:10232800012010907EE7607CC0071AD06D480078C5
:1023380002210BF0D8FD04460AF090FD002800D0D9
:10234800644260B27D30E421654A515E0122920206
:10235800511A4143C817800D0818800A1BA98880A4
:102368005A4C0126B00205900698002800D1EDE0ED
:10237800647D1698044059480078FF2141400C427A
:1023880002D018200AF098FEF0205549059A0A5202
:10239800EE200A52514804704C48007E002830D084
:1023A800E2244F4A115F4943E627D25F524355184A
:1023B80040B20BF0FFFC03464043854221D91A97EF
:1023C800F00301468AB25243AA42024600D80022CC
:1023D8004A400004400C114601430028F2D1404F06
:1023E800385F584395B229461F460BF048FA3C49D6
:1023F80008531A9C085F784329460BF040FA38497D
:102408000853324CA37D202B00D29FE00020139963
:102418000029024601460AD1E621314D695A1BAC12
:10242800E2885218E221695A64886118274CE47DD1
:10243800002C0CD0601EC4B26000142C03D32C4CAA
:102448000019283802E0264C2018E0300088DC0605
:1024580000D540421C0700D552425C0700D54942CE
:102468005B09022B06D0032B29D0042B42D1831AF7
:10247800841862E00BB2DB0B9BB25C0B0C1924B224
:10248800E4086442A4B28DB264195D0A4D192DB2F4
:10249800ED096D42ADB264199B09C91809B2890AE0
:1024A800494289B2611893B2DB0BD3181BB25B089F
:1024B8009BB284B2E418631A641811463DE04418CC
:1024C80039E0C046520C0020C2F60000C8040020C3
:1024D800210E002078040020FFFFFF01510E00208C
:1024E80008FCFF1F9B0E00203F0E00205804002010
:1024F8001004002013B2DB0B9BB25C0B141924B23E
:10250800E4086442A4B295B264195D0A55192DB263
:10251800ED096D42ADB264199B09D21812B2920A44
:10252800524292B2A2188BB2DB0BCB181BB25B08DB
:102538009BB284B2E418A31AA418F622FB4DAB523E
:10254800F422AC52401AF2216852F94CF949F6319A
:10255800179800B2002500918842304600DB2846D3
:10256800109909061599019100D00190402003990E
:10257800014003911A34B0040D90032013904004D5
:102588000C90F0041090B0050790192008904005B1
:10259800E9492E460490102D00D1A0E300201190A7
:1025A80016952078401EA8421A9600D0ABE21498DF
:1025B80020560BF0E8FC1890F1B2DC48179145184A
:1025C800C020285C1990C035139820560026159F06
:1025D8003946324604F074FEE17800290ED0012114
:1025E8004840D6490978002900D0074662780D3A54
:1025F800082A00D30746002F02D009E0002807D098
:10260800617A1F200840CE4A1278D040C00728D0EF
:1026180060782E700146083902290FD26179A279B3
:1026280012025118E279120489180C9A11400D9A75
:10263800914212D1169DC0491A9EEBE12D28169D94
:102648001A9E08D117988000B8490818F849119AB5
:10265800514309120164B849DCE1092821D0374601
:1026680021E0199E70424641631C6278501EC0B238
:102678000B280E93199619D84100AC4A5118E0223C
:102688008F5A012603284ED86079A27912021018B1
:10269800E27912048018079A104244D0F8200F5AA1
:1026A80041E0A44FE237601C0E903CE0132811D89B
:1026B8000D3AD0B241000328DE48405A08D8DE4A15
:1026C800511832228A5C3231497809028918401A35
:1026D800470027E023280DD86179A2791202511802
:1026E800E279120489181438079A4000114217D069
:1026F800D24916E0242809D149B2C8B2400900D10C
:10270800DCE1002900D5E2E10E21E1E12B2800D926
:10271800CDE1400086494018C9494056C70001E04C
:10272800C8490F5A01262E706079A1790902081844
:10273800E17909044218631D10980242129315D1D9
:10274800207A00281A9E12D040B27C21C9437D22EB
:1027580009F076FD0BF02EFB129BC71918785978F3
:102768000902081899780904421800E01A9E100412
:1027780000D1C5E06E48407C00070F9201D51420B7
:1027880000E064200A90179A550068490B954E5B43
:1027980090000A18156C280A381A01B20A2902DCB6
:1027A8000998814206DA002E05D100260F98000606
:1027B80004D100E000261998002824D00F980C991D
:1027C80008400D99884213D1207840009D4940184F
:1027D8000121C943405E08998D0245431899002993
:1027E80006D0284615460BF04AF82A46129B05469D
:1027F800280A381A010409D000B20028199009D40F
:102808000F98000907E019910B9909E00020199029
:102818000B9905E00F980B990F2606400A98464336
:1028280042484018403231B201290BDB8649097809
:10283800002900D0761E310402D006802F0A2BE032
:10284800099E093619990680002925D01795187808
:102858005978090208189978090445182804000EBF
:1028680018D07948007800281A9E17D00F92189926
:102878000029049A104607D0C81109184140C9B266
:1028880010460BF059F8129B0B901998002807DC9A
:102898000C2106E038B205021A9E29E0179D19E0BE
:1028A80008210F9ACD400F20284007D002461999D9
:1028B800002906DC0B984042179D04E038B2050257
:1028C80008E0179D0B980A9951430AF0D8FF45195B
:1028D800129B0F9A38B22912199F012F01DB8142EE
:1028E80004DC199F002F02D5814200DA05022F0A65
:1028F8001560187859780902081899780904421857
:1029080004202156100200121CD41A20C043814210
:1029180002DB1C2900DA80E07F20C043414038B246
:102928000AF0ECFF129B0746169D2AE008FCFF1FE1
:10293800C80400201EFBFFFFB4FDFF1F3F0E002050
:102948009B0E002008460BF01EFB01280BDB3AB259
:10295800002A08D56421081A424310460AF08FFF5E
:102968000746169D0CE00028169D09D539B20129A5
:1029780006DBB9B26430484364210AF080FF074699
:10298800129B187859780902081899780904401890
:10299800C1030AD40E9909784A1E032A05D84900AA
:1029A8001BAA8918891E0988CF1939B2189F4F4365
:1029B8001099084216D0217A002913D048B27C21F8
:1029C800C9437D221D4609F03BFC0BF0F3F9642155
:1029D8004143CF192878697809020818A978169D03
:1029E80009044018C5494003800F02280DD001286A
:1029F8000DD1642138460AF042FFC049119A42437A
:102A0800D017800D1018801203E0119702E011987A
:102A180038181190761C0A34C3E506291BD8169D70
:102A28007944097949008F44111224282D343A0039
:102A38008F02000058040020520C0020F0030020F0
:102A48006F020000100400202D0E002099E738B214
:102A5800002896DC1BE00029169D00D57F4200293E
:102A680001D50620411A38B2C91FC9B20AF0A7FD1C
:102A780085E738B2C013074083E738B2C0133F1860
:102A880047407EE738B20028059F00DD79E7002738
:102A980077E79848E23039B2CF13074071E738B288
:102AA8000028059F00DD6CE7924FE23769E72C2884
:102AB80018D1642111980AF0E2FE19E0122007F0FB
:102AC80057FD0126002815D08A4FE2372BE6112141
:102AD800081807F04DFD0028059F00D022E6854F15
:102AE800E2371FE62E3AD0B200210A4606F0EAFB8A
:102AF800074617E6132007F03BFD002801D1059F84
:102B080011E600270FE600227B481792027008782A
:102B180000281ED00F466426119831460AF0AFFEF1
:102B280001467248007840003818C0884843A90018
:102B38007918069A002A01D10A6980180861039950
:102B4800002900D1C7E06D4989880AF098FE4643FC
:102B580000E0119E642130460AF091FE6A00644943
:102B680018928852052068435F4D2918AD2040000F
:102B7800199111900B18D97804200E901A56120248
:102B880052182B210901695C4D42AA4200DB154607
:102B98008A4200DC294601200F901B560A256B4308
:102BA800059FFB185B18183B18B2E237B84200DBE8
:102BB8003B4618B21290824200DC13461998119ACB
:102BC800805645434B4A50194518FA3528B2904269
:102BD800179F00DC474D18B229B21191884200DBDB
:102BE8001D46002E0CD0002E02D41298401B01E086
:102BF8001198281A00B2704341490AF040FE07466E
:102C080028B2404DA847C61937B21298A8470546BA
:102C1800874200DC35462FB211983A498847064664
:102C2800874200DB2E46572080001999085C00284F
:102C380000D07642169B9F2080002B4A105C1F21F3
:102C480001401020401AC0B283423CD2189815188F
:102C58002D4AA85C8000010635D0AF1840B280101C
:102C68000BF0A4F939788A090146032A24D30028ED
:102C780017D11C4A0E9BD25E1B4B244FDB5D9B0673
:102C880004D4009B9A4207DB159A08E0D313D218A4
:102C98005A4012B2142AF7DA019A0F9B5A40002AB6
:102CA80003D1012250401A4A1070194800780028B0
:102CB80000D10F9910480170002904D015482856F2
:102CC8000BF078F8064672B600BF0298189946527B
:102CD80062B600BF169D6D1C08491A9E5BE41DB0C4
:102CE800F0BDC04678040020C80400209B0E0020D8
:102CF800100400201EFBFFFF830E0020B4FDFF1F01
:102D0800A0860100BFDE00007D0200007303000002
:082D18005D0E00207E020000A8
:102D2000F0B587B0FA4800250570FA48008803908E
:102D300008F0C0FAF8480168F84A12680260501AB0
:102D4000F74C2070F748294605F014F97C20C04361
:102D500004902078002800D1B2E2F34801780029DD
:102D600001D0491E01700AF079FFF0498A8890422B
:102D70002DD14520EE4A105C0A3002062CD0ED4AD7
:102D80001278322A28D30A78521C0A70D2B2102A3A
:102D900022D300220A704A88521C4A80FF217831CF
:102DA000C0B2484380B291B2884215D21F2002407F
:102DB000012A11D1E0480178FD220A400270062064
:102DC00009F072FF10202D210AF03EF804E04D803A
:102DD0008880DA480121017002F042FC09F084FF8A
:102DE000D7480178002901D0491E0170284605F016
:102DF00033FA0AF033F9D348047805700F202040E5
:102E0000801FD1498E7C042E03D0032E02D10426CC
:102E100000E00826C0B2072804D8F021214020296C
:102E200000D086E040202146014340291AD1059474
:102E30000020C643C54C2078411CC8B288423746A2
:102E400000D1074609F0D0FF002800D10746F8B2AC
:102E5000C82800D03E462670C82801D0059C01E055
:102E60004220C4430C20BA4E325EBA48415F891AF0
:102E7000CB0EC91849090904294606D0028004214D
:102E8000415E891ACB0FC91849108280B24A127864
:102E9000002A00D029464622A54F0292BA5C92062B
:102EA00000D529464180AD4D68796978091ACAB2C2
:102EB000D2098918FE220A401018687148B24010E1
:102EC00028722043C0B208F013FBA54800788000A8
:102ED000A44909585C20385CC01DA34A914200D027
:102EE000A9E0A2490978002900D0A4E0297A0029A4
:102EF0000DD000222A720622AA5649B25118049A0D
:102F0000914200DC11467D2900DB7D21A9719F21C2
:102F100089008D4A525C510900D18CE050B20028E2
:102F20007DD448008019C08801218A028018C90216
:102F30007CE044217E4B595C89008D4A5118400841
:102F4000085C5D21595CC90701D00321081AC7B28A
:102F50008848007839460AF054FC029039460AF055
:102F6000C6FF002E08D1C11342184A4011B2890F82
:102F7000511889B289084E1C0697022F11D146219B
:102F80006B4A515C7C4A704B9A5C92094A40D2076A
:102F90005B7C0121194000D00226002A02D0764233
:102FA00000E00021E20772B2059400D152421218EB
:102FB00093B25C1EA3411446444024B2049E7C3666
:102FC000B44201DC002400E0012423400B430FD174
:102FD00000280DD00027029806993A4608F0CAF951
:102FE000059809F085FF16200AF06AF83C461EE7AE
:102FF00017B238467C3080B2F82869D80298069912
:103000003A4608F0B7F978B2C01139184140C8B251
:1030100081083C3115200AF07BF8002407E74800BE
:1030200049494018554940567D30FA2182B207205F
:1030300050430AF085FC52490978C0B2884201D059
:1030400009F032FE4C20385600284E4B059424D50A
:103050001878002821D04C4800780028FD4A00D17B
:1030600096E00024F64E3057002801D4401C307002
:10307000022008F06BFA7F270146394012D03278DF
:103080008A4222D9347005990906F24AF44B7FD15D
:1030900040B2002839DA632079E0F248002101705B
:1030A000EC4A75E0032008F051FA07400DD0317862
:1030B000B942E84A0AD9347005990906E84B67D144
:1030C00040B2002862DA642061E0E24AE44B5FE04B
:1030D000002F01DC049A00E07D220699029808F096
:1030E00049F938467D3080B20024FA2800D99EE69E
:1030F00078B2C01139184140C8B280083C21081A82
:10310000C1B215200AF004F891E662203FE0C04603
:103110009C0E002042FFFF1F60FFFF1F54FFFF1F98
:103120002D0E0020F0030020370E0020AC040020FC
:10313000520C0020480E0020850E0020300E00208A
:103140003F0E00203A0E0020C80400207B0E002015
:10315000780400209A040020330E0020100E002076
:103160004A0E0020E0FEFF1FB9340000250E0020AB
:10317000C2F600009B0E002073030000B70200009F
:103180009A0E0020870E0020860E002065200590F4
:10319000012001901870AD790020BC4FBC4BC4B227
:1031A000072C1ED260001618F05D002817D00528E5
:1031B00029460BD006962E463D461F4607F088FD51
:1031C0003B462F463546069EA24A014648B2049920
:1031D000884200DC08467D2800DB7D20F054601C1E
:1031E000DDE7A14D286800280ED00024214608F014
:1031F00051F90AF0BEFE9D490A78012A934E1ED16C
:10320000002820D12C601EE09849002008709849C1
:103210000C78002C8D4E04D00870172009F050FF58
:1032200005949448059A02709348142101708A48C5
:103230000078800089490958D0B2884703E0002807
:1032400001D00198087007F0C7F88C4800781F215A
:103250000140022931D18A480478103404700E20CC
:103260008849085E410F411809B2C9083022B25698
:103270004A430001101880B2A52149000AF060FB02
:10328000734D29780818401C40082870210614D175
:103290002F21715CC0B281420FD911202E2109F07B
:1032A000D3FD2878012124220AF060F80298305CCE
:1032B000000702D574483221018063480021017063
:1032C00074480178032901D1002101705D4800880C
:1032D0000399401A82B270490B889A4200D908803B
:1032E0006E49C878002800D19CE06D480188491CCF
:1032F000018000206F4DC7B20B2F00D98DE0032055
:103300000390784353490A184B20C00011180591C7
:10331000644953180292115C0F2608463040624AF5
:103320001018401E0078032806963BD178005F4AAB
:10333000125E002A02D009D4541E1EE000229C56C0
:10334000002C1ADBE2430A24544316E092B2541CC8
:10335000A2B2A24211D01E4603227A433D4B9A18D4
:10336000534BD256002A05D4521C52B20A2353435F
:103370005C1E00E0D4433346069E4C4A12180809EE
:103380000FD0082801921E4600D9401C0AF012FEF8
:10339000002801D1049C7C34059801783346069EB0
:1033A000019A148031400C292E46ED5D08D100248D
:1033B000019318570AF0FEFD002804D001240DE007
:1033C0002C4635460CE0032078432249081838493A
:1033D00040560AF0EFFD002800D12C463546019BEF
:1033E00006990598007808400D2813D1002018563A
:1033F0000AF0E0FD00280BD0A0070BD42C4802995E
:1034000008560AF0D7FD0028039C03D1022401E0EE
:10341000FD200440EC55781C6DE709F095FC002078
:103420001E49C8704878002807D0002048700D4811
:103430000178002901D0491E017007B0F0BDC046D7
:10344000580E002042FFFF1F300E0020520C0020BB
:10345000480E0020C80400204A0E0020E0FEFF1F96
:10346000870E0020860E002080FFFF1F590E0020CF
:10347000920E0020840E0020880E00204B0E0020AB
:103480005A0E002048040020B4040020BA020000B4
:10349000B9020000470E0020B2040020B90E00203F
:1034A000BA0400205602000071F70000300400202A
:0834B00057020000F00D00209E
:1034B800F0B587B0E449002206920A7042210391D0
:1034C800E249CA7C0F21154604910D40E04E31783F
:1034D800002926D01420DF4E30560AF067FD044636
:1034E800DD4F002804D03878002801D105F018FEF7
:1034F8003C70E8B2029001286DD0D4480478D748CF
:1035080005780A27782F08D03278F8B200210423EA
:1035180005F098FA761C0B37F4E7A54229D38422E4
:1035280028E0702111400346803B0E2B00D8E7E0CD
:103538000346203B0E2B00D998E15B007B449B8817
:103548005B009F440F000E00FB01FF0109021B02F4
:103558000E000E000E000E000E000E000E000E00F3
:103568000F00B7E7012DB5D100247470012535701F
:10357800E0E0862225201025294609F005FA2620B4
:103588001826562231460AF021FD5D200024042326
:103598002946224609F08CFC332031462246234630
:1035A80006F0B6FC08F0C8FF00280CD00246262416
:1035B8001021204609F00AFB25200F210923224665
:1035C80009F0D6FC07E0A348837C0094262010214C
:1035D800A34A0AF0B4FB069EF5B2042D6ED2284623
:1035E80009F058FC04469F48007829460AF07BFCFD
:1035F800C1138A0F821812B29710002801DC3846CE
:1036080000E001203A0600D1471879B21B20C043D8
:10361800814200DC074678B21C2800DB1C277F208B
:10362800304091490919491E0C7801280BD002280D
:1036380021D104213622204607F0E2F9EE48407CE9
:10364800C00705D014E004213622204607F0D8F937
:10365800601EC0B21E25069603262946324607F08C
:10366800CFF9601CC0B229463246069E07F0C8F959
:103678001F20C11B18E020461B38C0B23B21059112
:103688003622EB4B9847601E0696C6B23A210325B0
:1036980030462A46E64B98473C213046069E2A4645
:1036A800E34B984705993C19E01EC0B2C91EC9B240
:1036B800072213460AF07EF8761C8DE70298002848
:1036C80014D0012800D095E011200090082400268D
:1036D800C94A0A23204631460AF005FAD548007837
:1036E800C6490978814229D3304628E006F02AFEE7
:1036F800BA48057806246C43002D56D1284655E073
:103708005B00C0467B449B885B009F440F00EB0036
:10371800F100FC0003010D010E000E000E000E006A
:103728000E000E000E000E000F00D3E60024747089
:103738000221317009F0D8FBAE48A9E0012042000F
:103748005420314609F020F96F203146324633467D
:1037580009F0AEFB3026304608F05AF83F202146E3
:10376800324607F04DF90720C743002F42D0A24840
:10377800C019A549405C002815D03E460836451EAC
:10378800E8B207F067FA0346002000900498019019
:10379800F007204600D00398B2001032782111407B
:1037A8006AB204F057F97F1CDFE7E01CC1B20A20B7
:1037B80009F03AF9002D05D0A01DC1B2642009F026
:1037C80033F917E0642428268D4A204631460AF04A
:1037D80011FC72250722284631460AF070F8302677
:1037E800884A204631460AF005FC0422284631461C
:1037F8000AF065F8774C2078002871D0012806D1A6
:10380800824803210E2205F07BF8052105E0804857
:103818001F210E2205F074F800217E4A00239370C0
:1038280001285DD1A0784018C0B2062858D8C046F3
:103838007844007940008744032D364145494E00BD
:103848006B4808F0F7FD4BE0870E0020810C002044
:10385800250E0020C80400205B0E0020480E002022
:103868006DF600009B0E0020FC030000612800D1CB
:1038780095E0BF2800D02DE60124574E2046B047DA
:103888000320B0470220B047544800210170544833
:1038980004701FE6644803705348012101706348AF
:1038A80008F0C8FD1CE0012090705D480078800099
:1038B8005C494018406808F0BDFD11E04B4808F02D
:1038C800B9FD0DE0474808F0B5FD09E05A48808881
:1038D8004042524903E05848008840424E49088017
:1038E80007B0F0BD09F0F2FB0AF07AFB172061E09F
:1038F800012001434F48C174172009F0DDFB8220E5
:1039080009F0F2FAECE7374808F094FD832009F053
:10391800EBFAE5E7344801210170354808F08AFDE3
:10392800842009F0E1FAD5E52F48012101702F48DC
:1039380008F080FD852009F0D7FACBE5002D31D0BD
:103948006D1E30E06842454129433A48C174A120C0
:1039580008F0D2FE13202DE004980240012A2ED050
:10396800002A00D0B6E51D480178491C4AB2002556
:10397800022A2A4600DC0A460270ABE50498024097
:10398800012A1AD0002A00D0A4E514480178491E5B
:103998004AB2002A00D50221017000259AE5012DBE
:1039A80013D097E5012529432248C174A12008F0C6
:1039B800A3FE142009F080FB8CE5303100E01031C3
:1039C80030200840401C1B49C874172009F074FBBC
:1039D80001257FE5250E0020F1CE0000790E00209C
:1039E8005B0E002071970000330E0020C914000000
:1039F80089590000840E0020C8040020480E0020C9
:103A080088FB000085FB0000B902000081F500007A
:103A180089EE0000290E0020C2040020C604002000
:103A28004A0E0020E0FEFF1F890E0020110400004E
:0C3A3800CBDF0000810C002094FDFF1F7C
:103A4400F0B58FB004463148007809F0C5FB05464F
:103A54002F4F0E22384607942146FCF72FFB2D48A2
:103A64000AF01BFA2A78801DC0B20024214623469E
:103A74000AF00BFA3F57384609F014F80690264826
:103A840002780820254902900AF06CF82B46F8B217
:103A94000890E0430390691D0D950591E0B2072855
:103AA40000D31DE206982018C0B2089981420C94F4
:103AB40001D0002601E01A490E780E2800D90CE244
:103AC4000C99CD002C460834810001A251588F4630
:103AD400293B0000493B00005D3B0000713B0000B6
:103AE4008B3B0000A53B0000C73B0000FF3B0000F0
:103AF4005D3C00007B3C00000F3D00003F3D0000AA
:103B04005F3D00007F3D0000A13D00007E0E0020CF
:103B14006C0E002091F90000360E002017EA000018
:103B2400910E00205D78E1B21C46F3B25420224687
:103B340007F0C4FE252D00D043E1607A4509253500
:103B4400234642E102201A56E1B2F3B260200AF0A1
:103B540028F90D9B9870C0E102981A56E1B2F3B2AD
:103B640060200AF01EF90D9B1872B6E1059DA87835
:103B7400E1B2F2B20007C00F0AF05BF90D9BC00777
:103B8400000BF721D1E0059DA8784006C00F5978B5
:103B9400042900D929E1E1B2F2B20AF053F929E18A
:103BA400059DA97801200840E1B2F2B20AF04AF971
:103BB4000D9B7F214904AA7812040A40C007C00B58
:103BC400B7E0059A10785178090208189178090429
:103BD4004018C50D000200120399884200DC1CE164
:103BE400042018561A21C943884203DB1B28C54AFE
:103BF40000DA13E10225C44A10E1059A10785178DD
:103C04000902081802215156090440180425039991
:103C140088425F5700DC1FE11A20C043874202DB61
:103C24001C2F00DA26E17F20C04347404020304368
:103C3400C3B2E1B266203A460AF04FF9300606D024
:103C44006320C1436422384609F0BEFA07460D9B3F
:103C540080207840187140E1F3B2581E1946814122
:103C640003200D9A12560091E1B24E2009F082FE13
:103C74000D9BD87031E130060A9002D004209B4994
:103C84000870072009900543049500260121F7B226
:103C9400042F00D921E1587A0E9108401F210B917D
:103CA400084043424341099D754328463F30C0B212
:103CB400E1B232463032D2B204F0C6FE0A9800288D
:103CC4001DD08B480078B84219D10498C1B23E3552
:103CD400E8B20822092309F04DF907982E2801D0EB
:103CE40020280CD10E980B9A02400D99487A504026
:103CF4004872022008F002FD00207E490870761CFC
:103D04000E980006C10D0D9BC1E70899081A43429D
:103D14004341059DA978E0B249078A0F724906F02C
:103D2400CBFA0D9B8007400BF9210904AA781204F1
:103D34000A408018000CA870CFE0059F3A780F2540
:103D44002A40E0B2F1B208F071F90D9B28403978AD
:103D5400F0220A4010183870BFE0059D2A78E0B2BE
:103D6400F1B21206120F08F061F90D9B00012978D7
:103D74000F220A4010182870AFE0059D6A78E0B25F
:103D8400F1B21206120F08F051F90D9B0003697885
:103D94000907090D4018000A68709EE0059F7A78AB
:103DA4000F252A40E0B2F1B208F040F90D9B290337
:103DB4007A7812020A400007000D8018000A787011
:103DC4008BE0252D00D9AD1D0D9B300600D184E07C
:103DD40068B20121372209F0F7F90D9BC1B22529F8
:103DE4007AD32C2970D3801F76E0E1B2F3B2474A2C
:103DF40009F06FFF29786A7812025118AA78120420
:103E04008918384A114029700A0A6A70C007400AA2
:103E14000843000CA8700D9B5FE0394AE1B2F4B28C
:103E24000620234609F0C2FD002C0D9B55D002212B
:103E3400284609F039F90D9B85424ED0811E4A422D
:103E44004A41D1011971C005059A91784906490A78
:103E54000818000C907040E06420F1B200900191C9
:103E6400E1B26320C34348203A4606F0F9FA0D9BB9
:103E7400187132E0E1B2F4B20C203A46234608F05D
:103E8400C1FA0D9B002C28D058570F21C943162284
:103E940009F09AF90D9B1871079960291DD107281B
:103EA40007DBC01F14490870144808F0C5FA0D9BBD
:103EB400187941B2002910D5C0430F4908700F4842
:103EC40008F0BAFA0D9B08E0597A1F220A40400113
:103ED400801860305872252058700C9C641CDDE5F5
:103EE4000FB0F0BDFFFFBF002FF40000770E0020DD
:103EF400490E00203C0E0020800E00206986000040
:103F04001FFB0000FBFA000025FB0000BCF70000CB
:103F1400F0B58BB00546E14809F0BFFFE04C2078CE
:103F240000281BD0DF4A117A002010724AB2012AFD
:103F340001DB622200E06322002900D01546DA4941
:103F44000978002901D1632D05D0D84A125691422F
:103F540002D1622D00D10546D5480570D5480078B8
:103F6400002805D1D1480278CF482946FCF7A6F8A5
:103F7400CF4E3078CC4909780691012103912E283F
:103F840003D0BF280AD060280AD1C5490A78002A7C
:103F940040D0F948002202700A70F84C00202070CA
:103FA4000295069840B208F07DFD0146F848007875
:103FB400002801D000203070F148007800280791D3
:103FC40040D0F2480778622F01D0632F3AD13E46A1
:103FD400623E701E34468441EF480578284609F055
:103FE400FBF8002D0AD1002C08D00178022901D356
:103FF400491E0170022008F081FB23E0202D21D806
:1040040001D1622F1ED00021622F0A9107460BD0E6
:10401400C8430AE0DE4909780029C1D108F066FFE7
:10402400002003903446B9E701202D18E8B209F0C6
:10403400D3F83978002905D0102903D80278102A3A
:1040440000D875E1012000263546C1B2102900D9F7
:1040540009E10A910890F0B2099009F0BDF8079BB4
:104064000446EFB29F420BD3F81A062808DCC000BE
:104074000830C1B2012000230A9A09F006FF079B09
:1040840009981F2800D9C4E020780A99884200D0F2
:10409400BFE0BC4A0F46E8B2984200D2AFE0C11A72
:1040A400062914DCCF00B64909780022002927D15B
:1040B4000699C9B2814223D10898B9490870B64813
:1040C40006700398002813D0B148007816E0072939
:1040D40000D094E0AA480078002800D18FE0AF48CF
:1040E4000078F1B2884200D089E01078401C81E069
:1040F4000120A7490870002202924A7042424241BC
:1041040005920837F1B209980491884209D0E07900
:1041140000210091F9B24007830F1320A54A09F04A
:1041240010FEFFB2302000233946224607F0C6FBBA
:10413400022022562D203946059B09F032FEA0703C
:10414400E078002805D042B248200023394606F022
:10415400D1FC207900281DD06179A279120251186E
:104164000722A256120489180BD401461B31C9B286
:10417400362909D842B260200023394608F042F9B2
:1041840008E06020642201E06020452200233946D3
:1041940004F05AFC6079A17909020818E17909044C
:1041A4004018FF210902014001D0532200E02022DF
:1041B400002901D02A2100E04421000600D00A464B
:1041C4007920394609F004FF6D480078002813D09F
:1041D40072480078049988420ED118206622002380
:1041E400394608F067F86C48067028460695654A13
:1041F400079B0A9F107002E0624A079B0A9F6D1C8E
:10420400F0B21E2823D8761CA07A0A34B8421BD1F7
:1042140041E70698C0B2B84215D15F4806700898C5
:104224005F490870E81AC000C01DC1B200241922F9
:104234000923204608F09EFE0398002803D108F0C5
:10424400B5FC002805D06D1C0898401CFDE620260E
:10425400FAE751480078214606F072FD4848047098
:10426400504808F0E9F84A48007800285BD00298E2
:10427400464C20704C483F210B2204F043FB01289C
:104284004AD14348807805282FD8C046784400791D
:10429400400087442011222A2E33C046F5FA00003C
:1042A400380E0020100E0020750E0020390E00205C
:1042B400840E0020250E002008F078FC00280AD186
:1042C40035490878401C0870C0B20024214606F025
:1042D40037FD2B480470334819E02F490878401CF7
:1042E4000870C0B2012106F02BFD0120244908709A
:1042F4000FE0294800782D49087002E02B48FF217F
:104304000170207808F0F2FD00202070284808F0A1
:1043140093F800201E4908701E48002101701E48B1
:1043240000781E490870681E174908700BB0F0BD6C
:104334003B468A420BD10A210A060CD002781C465D
:104344001B7803702270631C401C491EF4E710297B
:1043540004D30A9A03E0114805704BE60122704227
:104364007041104002462243012A00D042E6091B54
:10437400081818703EE6C0463C0E0020890E002046
:10438400380E0020750E0020390E0020840E002007
:10439400250E00203C0E00207E0E00207C0E002006
:1043A4007F0E0020453A000012F20000440E002067
:0843B40005AF000049FB000009
:1043BC00F0B58BB00990FB4809F06BFDFA4C2078F6
:1043CC00421C4E200025294609F017FE21780922AF
:1043DC00104607914843FA490C18FA4FE05D400724
:1043EC0000D00A22F84E30460999FBF763FEE71914
:1043FC00F64820187457052C08900A9411DC3D4699
:10440C0007460820ED4909F04CFDF248067808F003
:10441C0065FE3878002C069500D18FE034460023D9
:10442C0093E005950826EA49304609F03AFDA01FAD
:10443C0043424341E7480078049038784006820FA5
:10444C00E549E64D03963046A8478007400E39787B
:10445C009F220A4010183870E01F43424341CA099A
:10446C001020DF49A847C0013E787F213140081851
:10447C003870204608384342434107252E40182007
:10448C00D8493246D54CA04728403978F8220A4002
:10449C0011183970B0420A9E09D00921079A51436C
:1044AC00C74A5118D04A059B8B5489184B70002869
:1044BC00099C6CD02020CD4909F0F3FC39782940B7
:1044CC0028200A27022900D106E1012900D01BE18E
:1044DC000690092007994843B9490818C249425C1B
:1044EC0045186878000280187D218E000A990929E8
:1044FC000BD100B232460B320021022303F070FCC8
:10450C002870010A697004990591F11D02B28A4262
:10451C0000DCFDE06C203E462024B74A2146059F76
:10452C003B4609F03FFA28783530C2B27820214654
:10453C003B4604F085FA089D099C1AE140B25E21C5
:10454C0008F0AEFD387034463346C2B26020082104
:10455C0006F094F8387800280A9D22D0401EC0B28C
:10456C0006F022FC06460820A64909F09AFC089899
:10457C000078252810D38221002200920191253841
:10458C0042B248200821334603F062FA09E02020A9
:10459C000926089D8C4FEEE048200821324609F090
:1045AC002CFD09200799484385490E18DF2081000E
:1045BC00705C012D099407D1771840B2062108F0E0
:1045CC006FFD3870214600E00021C3B2042B04D8E3
:1045DC0000914E2010218D4A05E00091401FC3B27E
:1045EC004E201021884A09F0A8FB022D15D18848CD
:1045FC00642101700720C701F05DF4190121615697
:10460C00090208187D210A028249022303F0E8FB03
:10461C00F055000A6070099B00E0002308980078B0
:10462C00252811D30721C901725C71180127C957BC
:10463C0082270093019709028B18253842B2782003
:10464C00182103F005FA0BE00720C001315C30188B
:10465C0001228056000242187820182109F039FCFA
:10466C006D49705C0024032D0AD1771840B21521D6
:10467C00C943162208F0A4FD3870099F3B4601E09F
:10468C002346099F42B26020202106F02FFA63498D
:10469C00705C042D06D1761840B2212108F000FD83
:1046AC00307000E02746069CC2B2602028213B46B1
:1046BC0008F038F8681F434243412078C006820F47
:1046CC003020574905F0F4FD8007C00E2178E72211
:1046DC000A40101820706FE0059706900920079982
:1046EC004843374908184049425C4518687800022D
:1046FC008018092E16D140B20F2108F0D1FC0021F0
:10470C006970287004990EE0089D3E462E4F32E0E9
:10471C00B24214DD0C30C2B26C202021059B08F093
:10472C0047F823E00021089D274F0091C3B25A207F
:10473C0020212F4A09F001FB0698059E1BE07820EA
:10474C002021059E334609F0C4FB002E0ED03E46B8
:10475C00099C802C05D1287869780902081808F082
:10476C0053F8244800210170089D02E0089D099C23
:10477C003E46154F06982149069009F092FB0A987F
:10478C00864213D1802C0BD106460921284609F00C
:10479C001AFB1848002101700A2E01D103983870B9
:1047AC00049B04E0ADF80000760E002000234820A6
:1047BC00134A069909F0F6F80BB0F0BDC1F10000F0
:1047CC00C80400207F030000640E00207B0300005F
:1047DC0085F20000910E002040F50000BDA2000003
:1047EC00A1F800002AF50000820300001FF9000068
:1047FC0006EB00003C0E002076FB0000CDFA00001A
:10480C0073F9000035FB0000E2F6000094EA0000AA
:10481C00880E00200083FFFF7D0300007E03000054
:04482C0057F300003E
:10483000F0B583B0E14E0125357006F0A5FC0024EB
:10484000DF480157002907D5DE4A13783746F0269E
:104850001E40331D3E461370DA4F3A78142A35D87D
:104860005200C0467A449288520097449C009C00B3
:104870009C00850069000A010A010A010A010A0177
:104880000A010A010A010A010A010A0114001400BE
:1048900014000A010E0107F06DFE032009F0BCFBB5
:1048A000C02009F042FA08F04DFB3878401C3870FF
:1048B00038780F210140032903D33878F0210140D3
:1048C00039703878202101433970DAE010462038F9
:1048D000032868D310463038032817D2252007F064
:1048E0003FFFB9480178BC2900D0CAE0417A0129CC
:1048F00000D0C6E00321C943B64AC14B002933D0DA
:10490000541845186D7AE554491CF7E7242A17D046
:10491000342A00D0B5E00024204609F0BDF8800616
:1049200000D5F5E0252007F01BFFA74E717A3078FF
:10493000AA2800D0E5E0FC2900D0E2E00120E5E073
:10494000AD4D2878411C2970AC490C5CA648007814
:1049500003F0DEFD3878DF21014039702878102817
:104960007FD3002028707EE03878F0210140C81CF9
:104970003870A448002110E0A24A13785B1C137021
:10498000DAB2042A0FD33A78F02313401A1D3A7092
:10499000994A012313708022114301703878DF2176
:1049A000014039706DE0884CFF202072E071A071E9
:1049B0000020A0728549096861700322D243D21C8D
:1049C00062710A0E22710A0CE270090AA1703E7827
:1049D0008A49102804D022180B5CD372401CF8E7D7
:1049E00020461B300A21FF2209F0F4F9252000217E
:1049F00021540F200640751E032D1FD2BC202070AD
:104A0000032E10D1724873490A5C62710818C1788C
:104A100021728178E1714078A07120460B3010211D
:104A2000FF2209F0D7F9802020770120E076E8B254
:104A30000228624E00D30225657206E0002E5F4E0A
:104A400003D101206072BB2020703878DF21014043
:104A500039706D480078C00701D00D2401E0732043
:104A6000C44307F0BDFFE1B2252006F07DFF08F04A
:104A700069FA65480178491C01705C480188491C45
:104A800001800020307003B0F0BD07F073FD2846B0
:104A900009F0C2FAC02009F048F9387820210291C3
:104AA00008433870514800880190514909F0E7F9EE
:104AB0004E424E414F49019809F0E1F9002900D0DA
:104AC00075004948057008F03DFA434D434E2B2CC4
:104AD00012D0285D002802D0401E28550AE001208F
:104AE0000021224609F0D9F83268824332607068AA
:104AF00088437060641CEAE738780299084338708C
:104B00000AE0AA280AD1FD2908D1022036490870F6
:104B10003878DF2101403970284EB2E7AC2801D047
:104B2000AA28F5D1701C294904252A4608F059FF06
:104B30000290274827490918701D2A4608F051FF9E
:104B400002990843E4D11D2008F0A6FF2249FF2264
:104B50000A7122490A68102313430B603C2800D8CD
:104B60003C201F4D29691F4A1368591A0818106004
:104B7000642108F0E5FE28613078AA281BD0AC2813
:104B8000C6D134460934A01B08381928C0DC207867
:104B9000FF28BDD0A578AC21204603F00FFE2819D0
:104BA000C41CF0E7301909300178FF29B0D0AA21E0
:104BB00003F004FE241D1C2CF4D1A9E78B0E002069
:104BC0003E0E00208A0E0020B8FEFF1F7CFFFF1F54
:104BD000E6030000C8040020B50D002000F8FF1F08
:104BE00008FDFF1FA00E0020700E0020B80400205A
:104BF0002106000021050000460E0020E00D0020E7
:0C4C0000EA030000520E0020410E0020CC
:104C0C00F0B58CB01F246102CB48426B0A4342635F
:104C1C000121CA06836B13438363C84BDA681020E7
:104C2C000A900243DA60C64DAA69C64E3240AA61A8
:104C3C006A6832406A606A6932406A61C248826856
:104C4C0032408260C14A956D35409565556F35404F
:104C5C00556705683540056016259D60DD680D4378
:104C6C000E27BD43DD60002506951D6247255D625C
:104C7C001C605C6A80250B952C4340250995AC4340
:104C8C005C621C682406FCD50F2007900304B04E10
:104C9C00746D9C4374650B02AE4C23646364A36413
:104CAC00E364756D3D4375656360A360E360202527
:104CBC00ED437561A8480361756D0D437565C84377
:104CCC000490356C0540356423608D07A34C6769EF
:104CDC002F4367612768AF432760936775690A980C
:104CEC00054375613568054335609B48C360CF0744
:104CFC0065693D430897656125683D432560D36729
:104D0C004D0377692F43776137682F43376003630F
:104D1C00934F7D6D0B9805437D653D6C05433D645C
:104D2C00874DEB6107988504104662692A436261DE
:104D3C002268AA4322608364C36403654365054605
:104D4C000320029000022A6C024305902A646A6CCC
:104D5C0002436A64079802027D6915437D613D68D0
:104D6C0095433D607848036243628362C3627A6D07
:104D7C00049802407A65724803607A690225AA4356
:104D8C007A61714A53607A6D0A9DAA437A65036110
:104D9C000A037569154375613568954335606E482E
:104DAC00C36288050190644E326B02433263480241
:104DBC00654A9061039050616A4D12200490A8706E
:104DCC0019226A702970684A083A10680791674975
:104DDC00084010600798800265490860A878099A15
:104DEC001043A87078690A9A1043786138681043A8
:104DFC003860554D2B61786D042210437865386C02
:104E0C00904338644E498B605A48026078690B9A1B
:104E1C0010437861386810433860EB617869082278
:104E2C0010437861386890433860EB606069029D8C
:104E3C00284360612068A8432060444803604360B5
:104E4C00CB60494BD8684C49084008994018D86049
:104E5C00474C21600799CF05B06B3843B0630520F0
:104E6C000A9000020090DB30444A106095609F204D
:104E7C001061072090611D4658683C4A1040C019CB
:104E8C0058602346019820603D48069C04603D48CC
:104E9C0030604806B26B0243B2633B483B4A8260C7
:104EAC002A68324F3A402A608A041A60492202600A
:104EBC003148401CB26B0243B2633548354A8260BC
:104ECC00FF2212022F689743CA03BA182A604A04B9
:104EDC001A6004608B06B26B1A43B2632E4F2F4AD2
:104EEC00BA60FC602E4A3A611B48059A026032682F
:104EFC001A433260039A426028681F4A1040089A8D
:104F0C0080182860C8041A4908603C60306B099905
:104F1C00084330630D4800994166016621480499A5
:104F2C0001700B99417020482049416084600A99B6
:104F3C0001600CB0F0BDC0460480044000B00340DA
:104F4C0000C00440FFF8FFFE00B0044000D0044055
:104F5C0000F00F4000A004400490044000F10F400A
:104F6C0080F00F400160074010E400E0FFFF00FFFD
:104F7C0000E100E0C40000F8FFFFFF0000710340F7
:104F8C00007003400000010100900340FF0B000083
:104F9C00008003403B2D000000A00340FFFF0000F9
:104FAC0060EA00000160064010E000E07FBB0000FA
:104FBC00F0B591B08278EE2A0CD1C378C84A127839
:104FCC00934207D1C74C2278002A0F930AD0C74BC3
:104FDC001B780AE0C34800210170C34C00202070EC
:104FEC0011B0F0BDC14DFF232B7006795DB2109648
:104FFC00AE4201D0FF2BF3D10F9B5D1E0C230C9303
:10500C000D956B43BA4DEB180E93109B5B1EB74D71
:10501C002B700523B84D8B4206D2C75CD6B2AF5568
:10502C00521C22705B1CF6E71098002805D0AE4885
:10503C000178491C0170AF4CD0E7AB4800270770D2
:10504C00D0B20428CAD30E9B5989FF200991814301
:10505C000F980818588169789E792A781091C90997
:10506C000B910A96002E15D01946DB799342B5D1D7
:10507C00089207977F27109B1F400B890F2119401F
:10508C00B942ABD10999C905C90F0B9E8E42079F36
:10509C00A4D106E008920C230D994B439449CB18EC
:1050AC001B8907970E9E31460A310F27109A3A40FA
:1050BC000997BB4310929A180D923281089AF2719B
:1050CC008E4A10400B9A120210180880AF1C3846FA
:1050DC0008F026FF0A9A0346002A07D03088884930
:1050EC00081839461F4608F022FF1EE0394685484D
:1050FC0000880B903080D8B20C281F460C9B00D82F
:10510C003B46B01D109A0D2A00D13B460370DAB213
:10511C007B480B9BC0183E46174608F008FF0B98BF
:10512C00C0193746774908800E9E32460832F81C63
:10513C0010990D291AD0092900D0B8E00B92C0B2F1
:10514C000A902E18304608F0EBFE6F490B78002BB6
:10515C0034D0F0210D9A8A433818001DC0B2285C57
:10516C000007000E10180B990880A0E0F0210D9B91
:10517C008B43C0B2285C0007000E181810806248E0
:10518C000078002800D092E0781DC0B2281810904A
:10519C00374608F0C5FE05465A480688BE80092DDC
:1051AC0000DB09255648801910992A4608F0BFFEE5
:1051BC007019544908800E98857074E008960E9901
:1051CC008A78002A0B9A01D00D9E60E00493059713
:1051DC008A1C03924B4A1288494B092601969E540D
:1051EC008A801090431E0292561C079F38460899DD
:1051FC00069309180E91191AC219109B0C929A4217
:10520C0035DA0E9AD35D3B2B03D0B94201D07F1C0B
:10521C00F2E70A9A8218B942394900D17F1CB0B220
:10522C000818A918092F00DB019F3A4608F07FFEE9
:10523C00F619344A1680324B092F06DAB0B2202107
:10524C001954761C16807F1CF6E7099800020D9AFB
:10525C00110A8243481C0007000D82180D920B980E
:10526C0002800C98401C079F0899069BC1E7B0B2BE
:10527C000021234A1154701C224908800299401ABB
:10528C00039908700D9E059F0B9A049B1098F021B2
:10529C008E433818001DC0B2285C0007000E301871
:1052AC001080002B03D119480178491C0170184853
:1052BC000178002902D0002101700CE00F98401CED
:1052CC00074A107013490978C0B2884203D90120EB
:1052DC0010700D4908700748012101707EE6C04628
:1052EC00BE0E00204D0E0020500E0020BD0E0020E2
:1052FC0086010020310E0020C80C0020FFFE0000AB
:10530C00B2080020BC040020550E00204F0E0020D7
:08531C00450E00204C0E00209C
:10532400F0B587B0044640782378834200D08AE100
:10533400222900D987E1C84800788006400F8900F7
:1053440001A359588F46C046D9530000E1530000C9
:10535400EB530000F35300001554000047540000C1
:105364007F5400009B540000C95400000155000004
:105374000D5500005D550000675500007355000091
:10538400775500007B550000875500008B550000C1
:10539400AD550000B7550000C3550000CF550000BF
:1053A400DF550000E3550000F3550000F7550000F9
:1053B4002F560000FB5500003B5600004F560000DE
:1053C400FF550000075600000F5600001B56000052
:1053D4002356000030200090462119E1302000902F
:1053E4004621142215E1A22000906421FCE02A2029
:1053F400059000905F25052602200690954F2046D3
:1054040029463246069BB847212000900A2369E0CA
:10541400C220009050210A2503268E4F20462A469A
:105424003346B847422000903C2120462A46334662
:10543400B847202000904621012320462A46B84739
:1054440001E1212000900646069046210522012311
:10545400804D2046A847009632210F25022620467B
:105464002A4633467B4FB847069800905021204681
:105474002A463346774CA047E5E0222000906E216F
:105484000525012620462A46334604F00FF9232039
:1054940000907C2184E000270097322105256D4E81
:1054A40020462A462B46B04700975A2120462A46D2
:1054B4002B46B047022000906E210322042320468D
:1054C400B047C0E0232005900090502505260A200F
:1054D4000690604F204629463246069BB847212055
:1054E40000901423204629463246B8470598009078
:1054F400204629463246069BB847A4E06220009025
:105504000A21142205239BE02220059000903221D9
:105514000491042206920A2303934E4D2046A84781
:10552400212002900090462101910827142620464C
:105534003A463346474DA8470598009020460499BB
:105544003A46039B434FB84702980090204601997E
:10555400069A3346B84776E02A200090782105223F
:105564000DE02220009078210522322368E02120DA
:1055740002E0222000E023200090002114220A23CC
:105584005EE012202EE0422000903C2114250326E8
:1055940020462A46334604F089F8E2200090502140
:1055A40020462A4633464CE03020009046212822EB
:1055B4002FE0012847D0102000904B2128E001283B
:1055C40041D010200090412122E0102000900625B7
:1055D4000123204611462A4633E0302002E0012808
:1055E40031D01020009046210A22022328E0102006
:1055F40004E033201AE0312018E0312000907821B3
:1056040006E0322000907A2102E0332000907C21D1
:105614000A22012314E050200090822102E0D020CD
:10562400009032210A2200230AE0322000907821DF
:105634000F22032304E03120009046211422192371
:10564400204604F033F807B0F0BD30200090462126
:0C5654001E22DEE7B1960000950C00203D
:10566000F0B58BB0BB498879401C887100200121BE
:105670000691BA4FC5B2012D00D9F5E0002D03D037
:10568000BA48BB49401802E0B748B8490818002496
:10569000005729017E180028069B1BD016280CDB1A
:1056A000153840B208F086FCB1798142069B11D0D2
:1056B000B11D0028087005D10CE008F07BFC002823
:1056C000069B07D0002D02D008F08EFC01E007F009
:1056D00001FD2346052169439F4803914018089026
:1056E0008778FE203840022801D1A2488488A24849
:1056F0000078002800D0A14C0794032008990C568C
:10570000042F05D378009E49401808380088079078
:105710000122002F0492059337D0162C24DBF07859
:10572000318801438B4A9079084391880143B078CE
:105730000843B11C002801D100200870204615380C
:1057400040B2019108F036FC019A002808D0117887
:10575000002905D1F11C0A7853425341019A0B707C
:105760001070059B049A10E0002C0DD02046019586
:1057700025463C461F4608F01DFC049A3B4627463A
:105780002C46019DF07000E0F2703088F17800291D
:10579000029401D1014608E09102079A12B2511811
:1057A0008A0E89188911C9B241186A4C002B00D1A0
:1057B0000146318007F092FDA188401A80B264282A
:1057C00050D3A279318809A808F07CF9099807908C
:1057D0000A993180002D05D00021A171211D64207E
:1057E000059B05E02188491C2180A11C059B04988C
:1057F0000A8812180A800798000602D03189491CCD
:105800003181002B06D0F11C0978002902D0B18823
:10581000491CB1807189400E0A1872814E48039963
:10582000405C0899497809020818B08131460C316A
:10583000002F034610D0012F04D1029A002A08D06D
:10584000B28807E0022F01D8328903E092B2120930
:1058500000E06288831A0B80089A1279002A01D02E
:10586000C01A0880681C04E7B889F98981426CD0A5
:10587000394B19785A781E79F881FB78002B64D05F
:10588000120251183D46002E00D0081A07B23D4CB6
:105890002078400726D5002924D00A2F07D0B8B297
:1058A000142807D01E2808D1192029210EE01B201A
:1058B0002B210BE01A202A2108E0052F47DC28487D
:1058C0000A3000B2874203DDF9B21C2007F0BCFAAF
:1058D0000698002806D020780821014002D02148EF
:1058E00032210180002F01D4384600E0A889002E23
:1058F00000D1384601B209A83C2208F0E3F820782C
:10590000800715D50A98002812D1607A800703D441
:10591000002007F0D5FB05E00998002802D000B26E
:1059200008F0F5F92078000702D50E4832210180F1
:10593000A8890B49884208D91C2007F0C1FB2078B0
:10594000000702D50748322101800BB0F0BD0020CE
:105950000690BDE7A4040020060E0020D00300201E
:10596000F5FF0000B404002071030000C80400200B
:105970007203000078040020830E002000FCFFFF6B
:08598000F0030020980C002048
:10598800F0B587B00290B44808F085FAB34E347881
:10599800B3480078002804D1B0480F220299FAF7DA
:1059A8008BFB0025AF49284608F07DFA07F028FA56
:1059B80002B266202F46294608F021FB3678AA490C
:1059C8000878022803D100200870A8490870A84860
:1059D8000278511CC9B28E4203D2721E0AD200222A
:1059E80008E0111DC9B28E4204D9321FD1B20A296A
:1059F80000D30A2261B2019102709E499B4D03A80F
:105A080054C0F8B2062832D2B818C4B2351B6B425B
:105A18006B41401CC2B2F8001030C6B212203146A9
:105A280008F0FBF92D209349085C844204D1012039
:105A38002A22314608F0CAFA06960F262046964CC6
:105A48002146324605F062FC68426841874D297854
:105A5800014010310091182006992246334608F07B
:105A680042F87F1C049C059E8249039AC9E77C483A
:105A78000078002807D02D27C95D78480078814232
:105A88001AD07E2519E0029A1046643802286CD391
:105A9800602A79D0BF2A00D199E06E2A74D0812A71
:105AA80000D1A0E0612A00D0B8E02878012800D011
:105AB800CFE000202870CCE0592508F071FA0028C2
