:1000000000180020A1C5000051BA000053BA00003A
:1000100000000000000000000000000000000000E0
:1000200000000000000000000000000055BA0000C1
:10003000000000000000000057BA000059BA00009C
:10004000DDB00000B1C2000025BF000063BA0000AF
:100050005BBA000065BA000067BA000069BA000028
:100060006BBA00006DBA000065AA000071BA00000A
:1000700073BA000075BA000077BA000079BA0000C0
:100080007BBA000081B0000091C9000075C9000072
:1000900083BA000085BA0000F9B8000089BA0000F0
:1000A0005BBA00008BBA00008DBA00005BBA00009A
:1000B0008FBA00005BBA000091BA0000EDBE0000EC
:1000C000F0B583B002920F4601900825BB48425F0D
:1000D0000621BB4E715E891A8B0EC9188911B94B66
:1000E00019700A23C35E705FC01A840E0019801154
:1000F000B54C2070C0B2C9B2002901D092B2F280D2
:10010000B24C002801D09AB232812478B04A1378D8
:10011000002B03D1B94B1B789B0606D50020AA49BA
:100120000870A849087010700146002904D1002801
:1001300002D17088002801D00CF078FBA548067821
:10014000012000900298FF285ED0A3480078012883
:100150001FD0002841D1A2490878012802D10020EF
:10016000087034469F4B5A5700201872012A18DB3A
:10017000611CCAB2521A531E9A41B442019B01D269
:10018000002A22D01978029A91420ED2491C197085
:100190001AE000202E2F1CD09049097800291CD18C
:1001A00017E0002A03D421460FE018700CE0002C61
:1001B000019D01D0611E08E02B78002B029A00D02F
:1001C0005A1E2A70009A0A7001462E2F04D101206F
:1001D0000C468149087000E00C4683480078401CBA
:1001E000C5B2854201D00020C5430CF03FFB00287A
:1001F00000D10546E8B23D2804D3012076490870B5
:10020000764908707848057078480670734D2878EC
:100210000028019B17D03846603805283CD938465D
:10022000423803284CD9212F00D171E02E2F3AD02B
:10023000812F64D08E2F68D0BF2F00D0A2E0002481
:100240001C702C709EE060480078002813D019784C
:10025000091A4AB20020002A00DC0146CAB2029DF7
:10026000AA4200D32946197057490870E0B2B0423B
:1002700000D33446594D18780028CCD05148007826
:100280000028C8D0241A60B2002800DC0024E0B2A4
:10029000B042C0D33446BEE778440079400087447A
:1002A00002711D262B5B0298FF286BD028784142F3
:1002B00041412970002865D147480121017061E062
:1002C000784400794000874401293545187802991F
:1002D000884257D02978002904D053E02878002894
:1002E00050D118780299884246D3002045E02878FA
:1002F000002847D1187817E0002E20D142E00020D6
:10030000287000980BF044FA3CE08E200CF024FB9F
:10031000287800282CD00020287033E01878002896
:1003200030D0297800292DD1002801D0401E02901C
:10033000029822E0002E25D0E0B2B04222D02878E8
:1003400000281FD12A4900200870E1B2B14232D3FF
:10035000044617E0200615D0002E13D02878002878
:1003600010D123480021017020060AD0661E08E043
:1003700000200BF00DFA05E0401C1870E0B2B0420E
:1003800000D33446114804700020124908702878C0
:10039000002801D0022100E00121094B154A11700B
:1003A00059884A1E91410028009A00D10A461248F5
:1003B000027003B0F0BD641CE4E7C0465C0400209A
:1003C0007E040020170E0020160E00202B0E0020A9
:1003D000150E0020580E0020680E00201E0E002072
:1003E000370E0020F40D00206D0E0020750E002049
:1003F000630E0020700E00201D0E00207C0C0020DB
:10040000FFFFFFFFFFFFFFFFFFFFFFFFFEFFFFFFFD
:10041000F0B595B0244902260E70244C07222146DF
:10042000059209F08DF80146214F3878401EC2B27E
:1004300020461291FFF744FE1E4D2878411ECAB295
:100440000D2A0AD81C4BD340DA0706D048B28000E8
:100450001A4908580BF0BAFD28780D2801D900F088
:10046000EEFE24781394400078448088400087444E
:100470000D00E6062B00FE004301E606E6065501E8
:100480005200E606E606E606F000EE020C480DF025
:100490005CFA0E203870601CC2B20A4807210CF0CA
:1004A00033FE00F0CCFEC046740E0020430E002048
:1004B000600E00200D0E00203127000094BF0000C8
:1004C00034E900005CBF0000F9480DF03EFA062058
:1004D0003870F84807780825F74928460DF03DFAA6
:1004E00063426341F54EB07D4209F549284609F063
:1004F00057FC4001B17D1F220A401018B075F07DF5
:100500000025012C00D0D8E240B224210CF0F4FAEE
:10051000F0753B46D2E2EB480DF017FA1020387028
:10052000E94800781190139840B20CF025F8139B1D
:100530000D900022072A01D100F081FE0D9881184C
:10054000481CC0B214904000C9B21291994202D125
:100550000221F94C2170D94940181499102901D869
:10056000F64900E0F64945180E92D0000830109088
:100570000024032C6AD200201199A14201D0014627
:1005800001E0CC490978129A9A4200D00146CEB2D5
:10059000711E304688411499102955D87F21214079
:1005A000012921D000293CD140000F901098C6B2FB
:1005B000002738463146149A3B460DF0BEF928789C
:1005C0008009022800D901270F9B3046F3493A469B
:1005D00009F0E6FB3F21002800D0C843139B2A788E
:1005E0000A4002432A702FE028781099C9B2800689
:1005F00082164520334609F003FF139B002E23D0BB
:1006000028781521C9438006801616220CF00EFBAF
:10061000139B3F2101402878C022024050182870C7
:1006200012E00127EA571098C1B2782033460DF046
:10063000ACF9002E139B07D0E8577C21C9437D22DB
:100640000CF0F4FA139B6870641C92E70E9A521C2B
:1006500070E7DD480DF079F90A203870042C0E9609
:1006600000D93AE20CF070FA00252C4637E2D74860
:100670000DF06BF911203870AF4803210170AC48C0
:1006800000780D90139840B20BF076FF139B049006
:100690000F2B00D90FE35800CD4C205AC10B401846
:1006A00000B24010CB4942184E2000210DF0F3F962
:1006B000139BC9480078802800D00BE30D980028D0
:1006C00000D007E3052058437C49081857218900CA
:1006D000425C0499591A4900615A002A00D04942E3
:1006E000FF225E328154090A8018417002200BF00B
:1006F00067FD0BF005FFECE2B8480DF026F9052088
:100700003870B74800240470B64E35781398002826
:1007100001D100F0C4FC234600F0CAFCB2480DF041
:1007200014F90C2038708448032109910170804825
:1007300000781190139840B20BF01EFF089000242F
:10074000072C01D100F07BFD5A4800781490E0009E
:100750000830C5B200274C22384629460DF082F9F0
:1007600008980019C6B2082E0F9401D8312100E074
:1007700038210818C2B2052029460DF073F90998EE
:1007800070434E4909184B20C0000E9112900B5C2B
:1007900013988642149C00D03C46119E002E2046A1
:1007A00000D03846C0B200900F20109003400D20BA
:1007B00029468E4A0DF00EF8022E204600D038460B
:1007C0000C90012E149400D03C460D9488480E9C49
:1007D00026181298205C109908400CF017FA02288D
:1007E0000A960B9016D0012820D0002100282ED187
:1007F0007756252F34DB7F4961560C9AD2B200928E
:1008000082220192253FFE223A407D31382A5DD076
:100810000B465DE07748225C0C98C3B25020294615
:1008200009F0EAFC32780D98C3B259E00020325644
:100830000D98C3B23620294609F0E2FD6D482256D4
:100840000C98C3B24D20294609F0DAFD4CE07256EF
:10085000694900912021002A07910AD40D9F0AE0DE
:10086000644822560C98C3B2632029460DF08DF8D7
:1008700033E00D9F0F43FBB2D109514048B2401CF9
:1008800082B2492029460DF020F85A482056002807
:1008900001D40C9902E00C99079A1143CBB2C1091B
:1008A000414048B2421C6B2029460DF06EF81BE017
:1008B0002BF30000700E002047E70000AE0400207C
:1008C00033EF000090F100002B0E00200A234B4371
:1008D0007AB26420294606F0CFFD0D9F3278FBB234
:1008E0003620294609F088FC11981499129AA61806
:1008F0000328084600D0002031780A09082A00D9C8
:10090000521CC3B26820294609F07AFD3B480078A2
:10091000002800D198E01498000600D194E01198C6
:10092000032800D990E003A1085C40008744C0463A
:100930002B0E00200A212F40580E00207B020000C1
:10094000DF0200003078109D28400E210CF0D4F812
:1009500028403178F0220A40111831700CF056F915
:100960000B99814270D00020224960540A99087086
:100970006AE00B98032867D87844007940008744E0
:10098000013F014600210A9C60565E2245E00B981B
:10099000032859D802A1085C4000874480F1000078
:1009A0000342484D134D60577C21C9437D2248E0E6
:1009B00030780009109C21460CF09EF831782140D7
:1009C0000001081830703FE037F5000006F5000020
:1009D000D4030020DC050000630E002080F400003A
:1009E000660E0020610E0020EEF0000032E50000EF
:1009F0005602000057020000C0F500001D0E002046
:100A000000200A9C20561521C943162205E000202B
:100A10000A9C20563121C94363220CF007F920704B
:100A200012E0FC4D60571521C943162209E0F94D2B
:100A3000605700215E2204E0F64D60573121C94322
:100A400063220CF0F3F860550F9C641C78E6F248C2
:100A50000578F2480CF079FF139C0A2C00D99EE22D
:100A60000CF072F8224610203870052C00D9E8E30B
:100A7000002A02D1EA480921017051425141E94856
:100A8000007800910821E84E0A2732463B4608F0DC
:100A9000B1FD13980128149501D000F048FC12987C
:100AA000602802D1B07A0CF0B3FFF05731210CF07E
:100AB00023F8B0722B4600F03CFC2B46C2B26620F5
:100AC000102109F099FB307E1399022953D140B2CD
:100AD00064210CF011F830764EE005240125CE4853
:100AE00007780826D14930460CF037FF2A463132C4
:100AF0001E20109631460CF0B5FF139814948442D2
:100B000011973B4600D0002305206843C84A115C7A
:100B1000141801201290205600930002421847201A
:100B200010990CF03CFA1399149D8D420E9E16D12B
:100B3000C0483C2202703B20C143002528460CF0EF
:100B400075F82178627812025118081801B200294C
:100B500000DC28462070000A60701399149D681C00
:100B600088423DD10220205613210BF0C5FF139976
:100B7000A070012235E02F46C2B2542018213B4616
:100B80000BF034FE139DE81E42424241B07D400707
:100B9000C00F2021A84CA047C007400FB17DFB2209
:100BA0000A401018B075281F424242410807C00F82
:100BB0002821A047C007000FB17DF7220A40101876
:100BC000B075681F42424241C806C00F3021A0479D
:100BD000C007C00EB17DEF220A401018B0752EE399
:100BE00000220529129B00D381233C20102108F00C
:100BF00051FF032728463043002213998842119B56
:100C000000D013461092E257002B304600D03846F1
:100C10000F9700905A2018210CF0BFFBE070139D35
:100C2000149F781BC01C43424341227920208349F2
:100C300009F0B6F82071381DA842119B109A00D017
:100C40001346002B0F9800D00646774C052D02D393
:100C50003720000100E07A482518AA5600964F2058
:100C600028210CF09AFB724F7A7976496254FA780F
:100C7000754BE254FA79754BE2543A7A744BE2546C
:100C8000744AA35C7F261E407B7ADB01F318A354D1
:100C900028707878A073387860736018B9794170DB
:100CA000B878E072387912990840217BFE220A4018
:100CB00010182073C3E26848007880280AD1102BEE
:100CC00008D166481921017080200BF045FE07F01D
:100CD000A3FF139B7C200390C0430C900026324658
:100CE000072E00D14AE104983218D4B2F0000890DF
:100CF0000830102C00D142E111966100584B595A2E
:100D00000B91052110946143474B5C1857218900D2
:100D10000991675CFF210A915E31655C61180E9153
:100D20004E78C1B21292501CC2B200200F911490A2
:100D300003460CF002FE30024019002F00D1404261
:100D40000B9943187F217E22002F0846119E00D068
:100D500010461BB20C9D4B35AB4200DB2D20002F03
:100D600000D00A46322B109F00DC02464B200F9920
:100D70000CF078FE2C48817D0220084001D00399B8
:100D800000E06321C9430791139B129A002801D008
:100D90007D2000E0642006900598089901430891A1
:100DA000AD20400020180B900A985C3020180A9063
:100DB000099820180990149C042C00D3DCE00D98AD
:100DC0006040394659400143149401D0002401E0A9
:100DD00011480478E5B268426841224909784E42D8
:100DE0004E41064302D100201F4908702B2000010C
:100DF0000D49085C002700283CD001210E9A51566D
:100E0000090212788A1891B2002933D082422DDD6E
:100E100007462FE057020000700E0020A0F40000EB
:100E2000580E00202B0E0020AE040020AFEB000077
:100E3000EA0D0020670E002011CA00001BEF000021
:100E40006F030000AB0200007B020000AD02000057
:100E5000AE02000071030000630E0020190E002096
:100E6000D40300201D0E0020660E00204742BA4227
:100E700000DB0F4638B20A210CF053FA7F21149A96
:100E80001140022923D0012949D0002964D101252C
:100E90000E99485700020978421820200443E3B213
:100EA0002D200F990CF071FD002E119E109F5ED128
:100EB0000E9C60570002217840187D21CA00022351
:100EC000F64906F0A1FC2070000A60704FE00A9914
:100ED0000978643149B2401801B27D2900DB7D20D8
:100EE00002B266200F992B460CF04FFD380406D055
:100EF0000898C1B23220382209230BF071FD002E70
:100F0000119E109F33D10A9C20781821C943643068
:100F100040B2069A0BF08AFE6438207027E00B99E5
:100F2000097864394CB2001901B20C9A914200DC84
:100F3000104602B248200F992B460CF026FD002ED9
:100F4000119E109F13D11922204607990BF06EFEB7
:100F500064300B9908700AE0099C20780F992A46A2
:100F60000BF056FD411E88412070119E109F149C6D
:100F7000641C139B129A1FE7761CB1E63820D1B28D
:100F800010290BD110214B40C549097819434B4218
:100F90004B41C1B21220C34A0CF035FA4FE114950F
:100FA0001020119038700827BF4938460CF0D5FC46
:100FB00020460B3843424341BC4EB27CBC493846C4
:100FC00008F0EEFEB07400250C2C00D01495149B94
:100FD000581E1946814114203256009166201199FD
:100FE0000CF0DBF9307520460D3842424241707CEE
:100FF0000007C00F18210CF07CFCC007000F717CAB
:10100000F7220A401018707420460E3842424241BE
:10101000307B8007C00F20210CF06BFCC007800FD5
:10102000317BFD220A4010183073FF2040001490DD
:1010300001242F46072F00D101E1737D2340581E64
:1010400083419C48C25D28463F30C0B2282107F04A
:1010500005FA13980F281CD1062097490870974865
:101060000078874215D128463E30C0B22721082299
:1010700009230BF0B5FC12982E2801D0202808D1A6
:10108000707D6040707502200BF09AF80020FC49DA
:101090000870640014980440ED1D7F1CCAE768B214
:1010A000032200210B460CF0ECFC054630700123B6
:1010B000681CC2B208262046314609F09DF8EDB200
:1010C00028460AF0DBFE034600942A20EF4A314608
:1010D00014930CF07FFBEE490E9630460CF03DFC6D
:1010E0006800EC490E5E28460BF0F2FC01230094E8
:1010F0000193652E194600DB21467C22D24319322A
:10110000964210931E46139B00DB4E00002800D031
:101110002646701E11908641581E45424541304674
:1011200028401821DC4F0A460F91149BB8470094C1
:1011300001941199481E814111910D403021129165
:1011400028460F9A149BB847109F00970197139851
:10115000801E454245412E4028220D9230460F996F
:10116000149BCD4EB0470097019411980540284636
:1011700012990D9A149BB04700940194139FF91E85
:10118000484248411E2563232946129AB0470094DD
:101190000194391F48424841382262232946B0470A
:1011A000B94E30780BF094FC5C250028284600D01E
:1011B0003C204022214609F0DDF9B8481099017021
:1011C000284608F00BFD30784100B24A555E1927D9
:1011D000394669430A0E8E18294608F09DF8149086
:1011E0003212722012990CF056FC149E7743380E7E
:1011F0003818021254200E990CF04DFC6801FF21A2
:101200004900891C4018820D8018870A38465C30D6
:10121000C0B2720151188A0D89188E0A1D21891BCE
:10122000C9B207252A4609F0A5F95937F8B2202195
:10123000891BC9B22A460CF010FC9848047015B0FE
:10124000F0BD08249849204615460CF086FBA81FDF
:10125000424242418B4DA87D8007C00F21460CF0D1
:1012600048FBC007810FAA7DFD2313405918A975BB
:10127000002825D1AD2040002818D5214900691843
:1012800088421DD200214256002A00D50170012259
:101290008256012A00DB4170401DEEE718FCFFFF7B
:1012A000190E0020DDF0000006EA0000AE04002068
:1012B00060ED0000F0F40000580E00202B0E00201E
:1012C0001398C01F43424341754FE85D8006C40F29
:1012D00010207649224608F063FDC107890EEA5DB9
:1012E00020239A435118E95501263040A04202D0EC
:1012F0000AF044F9E95D1398083842424241480631
:10130000C40F182120460CF0F4FAC107490EEA5D1B
:10131000BF2313405918E9553040A04201D00AF0CC
:101320002DF90BF0E1FA002869D0812268E0B07A4B
:1013300000235F49009141218900C0B24218582022
:1013400010210CF0C2FA18205A490CF006FBFF20BD
:101350004700012400251398082D14D05648305C0E
:101360002040411E8841009054484219062068439D
:101370004230C0B2182101230CF0B6F81398640073
:101380003C406D1CE8E7022819D141201721382282
:1013900009230BF025FB13981299602901D02E29FF
:1013A0000DD112980BF0D8FA0CF07EF94249705426
:1013B0003C480021017002200AF002FF1398C01E71
:1013C00042424241364C305DC006C00F20252946BE
:1013D0000CF08FFAC007C00E315DEF220A401018E2
:1013E0003055139804282FD12B2004013057642145
:1013F0000BF082FB30552021149D0D4327E0802205
:10140000602020210CF02EFB139C2046093842421C
:101410004241687C304028210CF06BFA3040697CF6
:10142000FE220A40101868740A3C62426241C806F3
:10143000C00F30210CF05DFAC007C00E697CEF22AE
:101440000A4010186874FAE62B200001305CC2B222
:10145000782028212B460CF098FA1398401F43421D
:1014600043419F208400305D42093020144908F038
:1014700097FC4001315D1F220A4010183055DEE60E
:101480001E0E0020AE040020610E00201FF300009D
:1014900003EE00005C040020A5960000220E002050
:1014A000710300001E0E0020DCE70000A0F1000028
:1014B000FFF00000D1E90000AF020000ADF3000032
:0414C00099EE0000A1
:1014C400F0B58BB0224901260E7022490978C9076C
:1014D40001D0042200E003221F4C214608F02EF81C
:1014E40007461E4D2878401EC2B220463946FEF7F4
:1014F400E5FD1B4800780B2801D900F0FCFD01979D
:10150400029618490E7827780A9740007844808814
:10151400400087440B0029005B00AD00BE002A0197
:101524008101AA0186028E02AC02EF02F1480CF09E
:101534000AFA0848007801220240D11C0A322A70B3
:10154400781CC2B2EC480BF0DDFD00F0D4FDC046BF
:10155400740E0020640E00204F0E0020600E002048
:101564000D0E0020700E0020E4480CF0ECF906206B
:1015740028702E25E248425DE2480090002F06962E
:10158400344600D000247620082123460CF09BF931
:10159400002CDB4E07D070570A212D220BF044FBA0
:1015A40070550BF039FB1020D7490CF0D4F93125D4
:1015B400705D0024012F00D00AE340B21521C94315
:1015C40016220BF031FB7055069B02E30696CF48BA
:1015D4000CF0B9F9062028700820CD490CF0BBF9AD
:1015E40039465C27C64DE85DC41D4026002906D156
:1015F4000698064360B207210BF07CFA0446E2B277
:101604006620082133460CF0BEF9E01FE8550A9E17
:10161400701E434243414324285D8006420F10203C
:10162400BC4908F0BBFB4007800E295DC7220A4075
:1016340010182855B01E434243414F242A5D042A02
:1016440000D304221820B44908F0A8FB0328069FFD
:1016540000D907202855032E00D01AE34D2428571B
:10166400012164220BF0E0FA285540233B4313E3A5
:10167400AA480CF068F9062028700820A8490CF044
:101684006AF9002F00D1E1E32F209D49085C402333
:10169400E6E3A4480CF057F906202870002F02D185
:1016A400A1480921017079427941A048007800914C
:1016B400934C2246513208210A2307F099FF781EE1
:1016C400434243414625605D4007C00F1021984ABC
:1016D4000CF046F8C007400F615DFB220A40101869
:1016E4006055B81E43424341C806C00F1821914AB1
:1016F4000CF00FF9C007C00E615D3A46EF27394080
:1017040008186055D01E424242414C26A05DC006D6
:10171400C00F20210CF0F4F8C007C00EA15D3940C1
:101724000818A0550A9F381F43424341605D800654
:10173400C00F2821804A0CF0ECF8C007800E615DD0
:10174400DF220A4010186055781F43424341A05DD0
:10175400C0093021794A0CF003F8C001A15D7F2251
:101764000A401018A05500F0C6FC069674480CF008
:10177400EAF809202870042F00D99EE20BF0E2F960
:101784000825704928460CF0E6F87A427A415D272C
:101794005B4CE05D0126304029460CF0A8F830404F
:1017A400E15DFE22099211400818E0550A98401E96
:1017B400424242414627E55D3540102128460CF05F
:1017C40096F808963040E15D099A11400918E155F0
:1017D400A84201D009F0D0FE0A98022801D00020C6
:1017E400069049200990205C57490F5C0420574D0E
:1017F400C6B2002E00D18FE2062141435431C8B253
:101804000321394069184A781821069B06F024FE02
:10181400701EF9B28F08EBE74D480CF094F80120E4
:101824002870002525704B4C019E072D00D176E1D0
:10183400E8B20AF08BF90E21635E02B29A420146C5
:1018440000DB1946E1811C23E35E9A4200DC184662
:10185400A083042D06D309B200B24018C10F40186A
:1018640040082080A41C6D1CDFE706963A480CF063
:101874006AF8062028702D48007807900AF086FD43
:10188400800700D56FE2082034490CF064F810207A
:1018940000231B4D042B00D190E20490C1B2581CCC
:1018A4000390C2B20026304609930891334608F0EB
:1018B400A1FC099948002F183A37042E00D3ABE055
:1018C40000240A98814209D1032017490870079817
:1018D400B042234603D10223069C00E023467F2026
:1018E4003040032800D994E001A1085C40008744FB
:1018F400374462794AE90000BCC30000A8F4000040
:10190400360C002044F40000B0E60000E3F20000CE
:1019140056EC0000FDEA00009BE9000014F500000D
:101924005EE60000A0F40000580E00202B0E0020FC
:10193400B0F10000D0EE0000CBF3000007F300008C
:1019440005F40000CFEA000003EF00004FF50000AB
:10195400D7F200002603002098F4000040F10000B4
:10196400787882090898EB4908F018FA80017978A8
:101974003F220A40101878704BE07878800685166C
:101984000D20684381B2890B4018821042200899C7
:1019940023460BF0F8FFA0073BD51E20C1431F22AE
:1019A40028460BF041F93F2101407878C0220240DB
:1019B400501878702DE03D7800940720059005407C
:1019C4002B46103348200899E94A0BF001FFA00781
:1019D4001FD5032128460BF08DF805990840397866
:1019E400F82213E000203856C5105A2008992A46D8
:1019F400234608F003FDA0070BD50E20C1430F2298
:101A040028460BF011F9C000397807220A40101853
:101A14003870761C099950E704980830039B0A9F94
:101A240037E7D4480BF08FFF1020D3490BF093FF16
:101A340061E3D2480BF087FF0025E9B209297AD285
:101A4400E800032900D90838C4B26E1C72B22A20F7
:101A54000023214608F0D2FC0F35E8B208F042FB1F
:101A64000246442021460BF05DFF3546E5E7C448B5
:101A74000BF069FF02982870C248002505702020E9
:101A840006430696C04FEEB2082E68D2E800C4B2F0
:101A94001820412221460BF0E3FF28463130C2B220
:101AA4001E2021460BF0DCFF30460AF04FF80246B8
:101AB4002A2021460BF0F2FB032E04D830460AF00C
:101AC4002DFF401E02E0062E28460CD8C0B240006E
:101AD400385E19214143080E081802125A20214683
:101AE4000BF0D7FF04E05A202146069A0AF0CAFCFC
:101AF4006D1CC8E7A5480BF026FF029828707B42AE
:101B04007B414624A24D285D4006C00F0821A14A0E
:101B14000BF0FFFEC007400E295DBF2277E12A24A7
:101B2400202E9D4D285D9D49087000D1F0E1BF2E07
:101B340000D1F9E100E2102099490BF00CFF0024D8
:101B4400E0B206281DD2E1003822551A08F0CAFA7C
:101B54000246E9B220200BF0E5FE641CF0E78F4852
:101B6400029901708F480078002800D1C3E2302424
:101B7400874D28577E21C9437F220BF055F82855FD
:101B8400B9E254201821884A0BF07EFF0025EBB2FD
:101B9400032B00D9AFE2E8002030C4B25420214620
:101BA400824A09F00FFD6E00B01DC0B208F09AFA27
:101BB40002466C2021460BF0B5FEF01DC0B208F0C1
:101BC40091FA0246782021460BF0ACFE6D1CDEE74C
:101BD400234642B26020102108F010FCB81E424295
:101BE40042414C25705D4006C00F18210BF07FFE6A
:101BF400C007400E715DBF220A40101870552025A1
:101C04000321E7B2022F31D23046002F01D05030E9
:101C140000E0483004780A988142089106D160B205
:101C240078210AF067FF0446069B00E00023E6B231
:101C3400052272430995EDB2662029460AF0D4FDC7
:101C4400002E04D07820732229460BF009FF002FC0
:101C54004F4E304601D0503000E04830099D08997D
:101C640004707C1C0835481CC1B2CAE70A98401F9E
:101C7400424242414624305D0007C00F30210BF040
:101C840036FEC007000F315DF7220A4010183055A8
:101C940031E24D20285C4023C2B2662020210BF0A3
:101CA40072FE042E00D098E04E24285705210AF035
:101CB40021FF285540210F4392E0092F01D3082723
:101CC40027700A973A4803210170314C5F34082188
:101CD40005260027042F00D10DE200200090CDB28C
:101CE400FBB21E2009912946324A0BF071FDF6B26F
:101CF4000A98801B414241412F48007800910423F7
:101D04002946224607F074FC0999241D7F1C0831DA
:101D1400761CDFE798F200000698002805D0099D9C
:101D2400605717210AF0E6FE605500252F46042D62
:101D340071D01826304678432430C0B2EBB220214B
:101D44001A4A09F03FFC5E20205CE840C00707D037
:101D54006E432436F0B22021122200230AF070F8D8
:101D64007F1C6D1CE3E71820EF490BF0F4FDC2E182
:101D74000FE4000090F400009EEA000088F50000E3
:101D8400B0F50000660E00205C040020FCF30000A7
:101D9400360C0020C8F4000026030020150E002095
:101DA400E3ED00001E0E0020D0F40000FCE600006D
:101DB400580E00201DF000002B0E0020042F00D030
:101DC400D2E04A2428570921C94328220AF02CFFCB
:101DD40028552021069B0B43C9E04E20285C402750
:101DE400D9490091C2B2662028213B460BF06BFD15
:101DF400701F434243414624285D8007C00F3021B1
:101E0400D24A0BF0ADFCC007800F295DFD220A40C9
:101E1400101828556FE10A98032800D0EBE0B84861
:101E24000078C00709D05E2560570F210AF062FED2
:101E34006055C4480078400605D423201F215C2245
:101E440009230AF0CBFD4420205CECE02F24AF4DA5
:101E540028571E2178220AF0E7FE285540233343F1
:101E6400C2B2662008210AF0F9FA4525A74C605D44
:101E7400012F08D140B20921C9436E220AF0D4FED1
:101E84006055334600E0002342B20A32702010212C
:101E94000BF079FDB81E424242414325605D0127A3
:101EA40038401821A54EB04733463840615DFE22C4
:101EB4000A40101860550A9EF01E424242418807AB
:101EC400C00F20211F469847C007800F615DFD2287
:101ED4000A4010186055301F424242414807C00F63
:101EE4002821B847C007400F615DFB220A40101843
:101EF4006055701F43424341C8093021904A0BF09A
:101F040008FDC001615D7F220A4010186055F2E0AF
:101F1400401C7C490855C1B203290DD117200AF091
:101F2400F3FD01200AF04AF97648002101551820F2
:101F34007C490BF010FDDCE0C0B20028F7D0022889
:101F440000D190E0012800D0D3E00024724E734FFA
:101F5400072C00D1BAE0AE83EF81E0B209F0F6FDC0
:101F64002880AD1C641CF3E74A20285C20236F49B9
:101F7400009140B20A3082B24E20302421460BF048
:101F8400A2FC32356A4E902C10D028786978090268
:101F940008183188081A400002B2E0B23821202320
:101FA4000BF0F1FCAD1CB61C1834ECE7052F52D134
:101FB40001986028029C4FD15D4908883222534C15
:101FC400A0545C4A002313703234CA88A2718B88EF
:101FD40023714988A170120AE2711A0A6271090A0E
:101FE400E170000A6070012420460AF0E7F8172027
:101FF4000AF08AFD30E044250428605D13D14D4980
:102004000978002979D040B203210AF073FD615D9B
:10201400C2B202238A4207D060554C21625C7F25FC
:102024001540655400E000233130C2B2122028214B
:1020340006F012FA0024E0B203285CD818256543A0
:1020440024350AF06BFC0246E8B22821002308F08C
:10205400D1F8641CEFE7002400203821364A2346D7
:102064000BF0CFF947E02848002101700D20C04350
:10207400264D00282DD023490A18135F1C26965F8D
:10208400F71AF9177F184F40332F1DD399B2B3B203
:10209400D689891B0AB2920E8A1812B29209891A39
:1020A4002A182B27D155D673370A1774F31A1EB280
:1020B400B60E9E1936B2B6099B1B5377090A16460B
:1020C4002B367170190A9177801CD2E710201449BD
:1020D40008E00AF0F5FA2B2168542B35000A6870E1
:1020E40010200B490BF037FC12201821094A0BF081
:1020F400CBFC07F0E1FE0BB0F0BD089B94E7C046B3
:10210400640E002026030020660E0020360C0020FA
:102114002FF0000077F0000068C50000983A000036
:1021240061F2000088F0000022F5000078F300005E
:102134003C0400201E0E0020ACF5000005D9000070
:102144006FF200002D0E002099F00000CBF2000089
:10215400F0B59DB0029002200A46149002401392FA
:10216400202008400690012603913140129144201A
:10217400D449085C8006000ED34908181190092040
:10218400C043099000271BA81A90D04C10971797AA
:1021940016971596072F00D1C5E0FCB2204609F02A
:1021A400D5FC00B21994214608F068F90446032FBF
:1021B400384604D82009C649C8551198C05DC5B22F
:1021C4006B00C448C452200F201800B20009010655
:1021D40001D5404200E080B20006BF4988420CDCD1
:1021E400002802D0BD48007800E0FF200121A9406A
:1021F4000140C8B2169901431691032F29D81298A9
:10220400002818930DD1B148007B800709D5AD484B
:10221400C6183A20305C3A36717809020818810BE6
:102224003FD1179E0698002803D0AD48C018F82166
:10223400445221B2284607F06DF80446A9480078B4
:1022440019990BF0A8FB189B40001A99088017965F
:10225400159E0698002803D0A148C018E0214452D6
:10226400032F01D8002000E00120139900293146F2
:1022740000D0014600290ED1022D0CD00A2C02DC1C
:102284000998844204DA9648C018E0210022425298
:102294001BA80021C1521A98801C1A907F1C8B4CD9
:1022A40078E7000200B2C0120BF0CAFB00282DD060
:1022B4008D480078002829D03078717809020918EF
:1022C40048070B460F91000F7E49091832228A5C99
:1022D4003231497809028918844A105A401A81B265
:1022E400C90B401800B24008990009B2890A414359
:1022F40008B21F210BF013F886000F98800B0228F8
:1023040007D00128189B06D1341904E0179E189BA6
:1023140088E73446189B022D00D0179E022D81D1E8
:10232400012010907EE7607CC0071AD06D480078C9
:1023340002210BF030FB04460AF0D4FA002800D046
:10234400644260B27D30E421654A515E012292020A
:10235400511A4143C817800D0818800A1BA98880A8
:102364005A4C0126B00205900698002800D1EDE0F1
:10237400647D1698044059480078FF2141400C427E
:1023840002D018200AF0C0FBF0205549059A0A52E1
:10239400EE200A52514804704C48007E002830D088
:1023A400E2244F4A115F4943E627D25F524355184E
:1023B40040B20BF05FFA03464043854221D91A9795
:1023C400F00301468AB25243AA42024600D80022D0
:1023D4004A400004400C114601430028F2D1404F0A
:1023E400385F584395B229461F460AF098FF3C4986
:1023F40008531A9C085F784329460AF090FF38492D
:102404000853324CA37D202B00D29FE00020139967
:102414000029024601460AD1E621314D695A1BAC16
:10242400E2885218E221695A64886118274CE47DD5
:10243400002C0CD0601EC4B26000142C03D32C4CAE
:102444000019283802E0264C2018E0300088DC0609
:1024540000D540421C0700D552425C0700D54942D2
:102464005B09022B06D0032B29D0042B42D1831AFB
:10247400841862E00BB2DB0B9BB25C0B0C1924B228
:10248400E4086442A4B28DB264195D0A4D192DB2F8
:10249400ED096D42ADB264199B09C91809B2890AE4
:1024A400494289B2611893B2DB0BD3181BB25B08A3
:1024B4009BB284B2E418631A641811463DE04418D0
:1024C40039E0C046360C002010F10000AE040020B4
:1024D400050E00205C040020FFFFFF01330E0020E6
:1024E40008FCFF1F7A0E0020210E00203C0400206F
:1024F400F403002013B2DB0B9BB25C0B141924B25F
:10250400E4086442A4B295B264195D0A55192DB267
:10251400ED096D42ADB264199B09D21812B2920A48
:10252400524292B2A2188BB2DB0BCB181BB25B08DF
:102534009BB284B2E418A31AA418F622FB4DAB5242
:10254400F422AC52401AF2216852F94CF949F6319E
:10255400179800B2002500918842304600DB2846D7
:10256400109909061599019100D001904020039912
:10257400014003911A34B0040D90032013904004D9
:102584000C90F0041090B0050790192008904005B5
:10259400E9492E460490102D00D1A0E300201190AB
:1025A40016952078401EA8421A9600D0ABE21498E3
:1025B40020560BF032FA1890F1B2DC481791451806
:1025C400C020285C1990C035139820560026159F0A
:1025D4003946324604F08AFBE17800290ED0012105
:1025E4004840D6490978002900D0074662780D3A58
:1025F400082A00D30746002F02D009E0002807D09C
:10260400617A1F200840CE4A1278D040C00728D0F3
:1026140060782E700146083902290FD26179A279B7
:1026240012025118E279120489180C9A11400D9A79
:10263400914212D1169DC0491A9EEBE12D28169D98
:102644001A9E08D117988000B8490818F849119AB9
:10265400514309120164B849DCE1092821D0374605
:1026640021E0199E70424641631C6278501EC0B23C
:102674000B280E93199619D84100AC4A5118E02240
:102684008F5A012603284ED86079A27912021018B5
:10269400E27912048018079A104244D0F8200F5AA5
:1026A40041E0A44FE237601C0E903CE0132811D89F
:1026B4000D3AD0B241000328DE48405A08D8DE4A19
:1026C400511832228A5C3231497809028918401A39
:1026D400470027E023280DD86179A2791202511806
:1026E400E279120489181438079A4000114217D06D
:1026F400D24916E0242809D149B2C8B2400900D110
:10270400DCE1002900D5E2E10E21E1E12B2800D92A
:10271400CDE1400086494018C9494056C70001E050
:10272400C8490F5A01262E706079A1790902081848
:10273400E17909044218631D10980242129315D1DD
:10274400207A00281A9E12D040B27C21C9437D22EF
:1027540009F006FB0BF08EF8129BC719187859780C
:102764000902081899780904421800E01A9E100416
:1027740000D1C5E06E48407C00070F9201D51420BB
:1027840000E064200A90179A550068490B954E5B47
:1027940090000A18156C280A381A01B20A2902DCBA
:1027A4000998814206DA002E05D100260F9800060A
:1027B40004D100E000261998002824D00F980C9921
:1027C40008400D99884213D1207840009D49401853
:1027D4000121C943405E08998D0245431899002997
:1027E40006D0284615460AF09AFD2A46129B05464D
:1027F400280A381A010409D000B20028199009D413
:102804000F98000907E019910B9909E0002019902D
:102814000B9905E00F980B990F2606400A9846433A
:1028240042484018403231B201290BDB864909780D
:10283400002900D0761E310402D006802F0A2BE036
:10284400099E093619990680002925D0179518780C
:102854005978090208189978090445182804000EC3
:1028640018D07948007800281A9E17D00F9218992A
:102874000029049A104607D0C81109184140C9B26A
:1028840010460AF044FE129B0B901998002807DCAE
:102894000C2106E038B205021A9E29E0179D19E0C2
:1028A40008210F9ACD400F20284007D002461999DD
:1028B400002906DC0B984042179D04E038B205025B
:1028C40008E0179D0B980A9951430AF028FD451911
:1028D400129B0F9A38B22912199F012F01DB8142F2
:1028E40004DC199F002F02D5814200DA05022F0A69
:1028F400156018785978090208189978090442185B
:1029040004202156100200121CD41A20C043814214
:1029140002DB1C2900DA80E07F20C043414038B24A
:102924000AF01BFD129B0746169D2AE008FCFF1FB8
:10293400AE0400201EFBFFFFB4FDFF1F210E00208C
:102944007A0E002008460BF068F801280BDB3AB237
:10295400002A08D56421081A424310460AF0DFFC15
:102964000746169D0CE00028169D09D539B20129A9
:1029740006DBB9B26430484364210AF0D0FC074650
:10298400129B187859780902081899780904401894
:10299400C1030AD40E9909784A1E032A05D84900AE
:1029A4001BAA8918891E0988CF1939B2189F4F4369
:1029B4001099084216D0217A002913D048B27C21FC
:1029C400C9437D221D4609F0CBF90AF053FF642167
:1029D4004143CF192878697809020818A978169D07
:1029E40009044018C5494003800F02280DD001286E
:1029F4000DD1642138460AF092FCC049119A424331
:102A0400D017800D1018801203E0119702E011987E
:102A140038181190761C0A34C3E506291BD8169D74
:102A24007944097949008F44111224282D343A003D
:102A34008F0200003C040020360C0020D403002048
:102A44006D020000F403002045FEFF1F99E738B231
:102A5400002896DC1BE00029169D00D57F42002942
:102A640001D50620411A38B2C91FC9B20AF0D7FAF3
:102A740085E738B2C013074083E738B2C0133F1864
:102A840047407EE738B20028059F00DD79E700273C
:102A940077E79848E23039B2CF13074071E738B28C
:102AA4000028059F00DD6CE7924FE23769E72C2888
:102AB40018D1642111980AF032FC19E0122007F0B1
:102AC40011FB0126002815D08A4FE2372BE611218D
:102AD400081807F007FB0028059F00D022E6854F61
:102AE400E2371FE62E3AD0B200210A4606F0FEF87D
:102AF400074617E6132007F0F5FA002801D1059FD1
:102B040011E600270FE600227B481792027008782E
:102B140000281ED00F466426119831460AF0FFFBA8
:102B240001467248007840003818C0884843A9001C
:102B34007918069A002A01D10A6980180861039954
:102B4400002900D1C7E06D4989880AF0E8FB4643B3
:102B540000E0119E642130460AF0E1FB6A006449FA
:102B640018928852052068435F4D2918AD20400013
:102B7400199111900B18D97804200E901A5612024C
:102B840052182B210901695C4D42AA4200DB15460B
:102B94008A4200DC294601200F901B560A256B430C
:102BA400059FFB185B18183B18B2E237B84200DBEC
:102BB4003B4618B21290824200DC13461998119ACF
:102BC400805645434B4A50194518FA3528B290426D
:102BD400179F00DC474D18B229B21191884200DBDF
:102BE4001D46002E0CD0002E02D41298401B01E08A
:102BF4001198281A00B2704341490AF090FB074625
:102C040028B2404DA847C61937B21298A8470546BE
:102C1400874200DC35462FB211983A498847064668
:102C2400874200DB2E46572080001999085C002853
:102C340000D07642169B9F2080002B4A105C1F21F7
:102C440001401020401AC0B283423CD21898151893
:102C54002D4AA85C8000010635D0AF1840B2801020
:102C64000AF0EEFE39788A090146032A24D30028A3
:102C740017D11C4A0E9BD25E1B4B244FDB5D9B0677
:102C840004D4009B9A4207DB159A08E0D313D218A8
:102C94005A4012B2142AF7DA019A0F9B5A40002ABA
:102CA40003D1012250401A4A1070194800780028B4
:102CB40000D10F9910480170002904D015482856F6
:102CC4000AF0D8FD06460AF0FBFE0298189946520F
:102CD4000AF0F4FE169D6D1C08491A9E5BE41DB0B3
:102CE400F0BDC0465C040020AE0400207A0E002033
:102CF400F40300201EFBFFFF620E0020B4FDFF1F43
:102D0400A08601006BD900007D0200007103000061
:082D14003E0E00207E020000CB
:102D1C00F0B587B0FD4800250570FD48068808F021
:102D2C0033F8FC480168FC4A12680260501AFB4CEC
:102D3C002070FB48294604F025FE7C20C0430490FB
:102D4C002078002800D173E2F6480178002901D0E0
:102D5C00491E01700AF0C3FCF3498A8890422DD1B8
:102D6C004520F24A105C0A3002062CD0F04A127848
:102D7C00322A28D30A78521C0A70D2B2102A22D3D3
:102D8C0000220A704A88521C4A80FF217831C0B256
:102D9C00484380B291B2884215D21F200240012ACA
:102DAC0011D1E4480178FD220A400270062009F096
:102DBC00B7FC10202D2109F083FD04E04D808880A4
:102DCC00DD4801210170059602F0CEFB09F0C8FC2C
:102DDC00DA480178002901D0491E0170284604F018
:102DEC0045FF09F05BFED648047805700F202040A3
:102DFC00801FD4498E7C042E03D0032E02D10426CE
:102E0C0000E00826C0B2072804D8F0212140202970
:102E1C0000D088E040202146014340291AD1069475
:102E2C000020C643C84C2078411CC8B288423746A3
:102E3C0000D1074609F014FD002800D10746F8B26E
:102E4C00C82800D03E462670C82801D0069C01E058
:102E5C004220C4430C20BD4E325EBD48415F891AEE
:102E6C00CB0EC9184909090493B2294606D0038030
:102E7C000421415E891ACA0F891849108380B54A0A
:102E8C001278002A00D029464622A84F0392BA5C39
:102E9C00920600D529464180AF4D68796978091AA8
:102EAC00CAB2D2098918FE220A401018687148B2B9
:102EBC00401028722043C0B208F052F8A74800789E
:102ECC008000A74909585C20385CC01DA54A914276
:102EDC0000D0ADE0A4490978002900D0A8E0297AF7
:102EEC0000290DD000222A720622AA5649B2511886
:102EFC00049A914200DC11467D2900DB7D21A971E9
:102F0C009F2189008F4A525C510900D190E050B248
:102F1C00002800D580E048008019C08801218A0271
:102F2C008018C9027FE006944421804C615C8900C2
:102F3C008E4A51184008085C5D21615CC90701D0BC
:102F4C000321081AC7B28A48007839460AF081F979
:102F5C00029039460AF01BFD002E08D1C11342180D
:102F6C004A4011B2890F511889B289084E1C039737
:102F7C00022F11D14621615C7E4A724B9A5C9209F8
:102F8C004A40D2075B7C0121194000D00226069FE3
:102F9C00002A03D0764201E00021069FFA0772B2A4
:102FAC0000D15242121893B25C1EA3411446444005
:102FBC0024B2049E7C36B44201DC002400E00124DF
:102FCC0023400B4310D100280ED03C46002702981A
:102FDC0003993A4607F074FE204609F0B7FC162018
:102FEC0009F08EFD3C461AE717B238467C3080B2A9
:102FFC00F82800D9EEE1029803993A4607F060FEF2
:10300C0078B2C01139184140C8B281083C31152042
:10301C0009F0A8FD002402E748004A494018564927
:10302C0040567D30FA2182B2072050430AF06BFAE9
:10303C00069452490978C0B2884201D009F070FB5D
:10304C004C2038560028FD4B25D51878002822D066
:10305C00FB4800780028F64A21D00026F94FB857D3
:10306C00002801D4401C3870022007F0A7FF7F24F1
:10307C000146214000D199E13A788A42EF4B0DD9B3
:10308C003E7006990906EA4A09D140B2002800DBD5
:10309C00C0E16320C1E1EA4800210170E44A01204B
:1030AC0002901870AD790020F04FC6B2072E18D2DE
:1030BC00700014185720C000205C00280FD0052881
:1030CC00294603D007F078FBD94A014648B2049947
:1030DC00884200DC08467D2800DB7D20E055701C12
:1030EC00E3E7D94D286800284AD00024214607F090
:1030FC00DBFE0AF080FCD5490A78012A059ECA4FEE
:10310C005AD100285CD12C605AE0C0467B0E0020BE
:10311C009604002044FFFF1F40FFFF1F45FEFF1FCA
:10312C00D4030020190E002090040020360C00203F
:10313C002A0E0020640E0020120E0020210E00200A
:10314C001C0E0020AE0400205A0E00205C0400204F
:10315C007E040020150E0020F40D00202C0E002003
:10316C00E0FEFF1F71390000090E002010F1000075
:10317C007A0E002071030000B5020000790E0020C9
:10318C00B24900200870B2490C78002C059E069AB2
:10319C00A54F04D00870172009F0B2FC2246AD48A8
:1031AC000270AD4814210170A24800788000A24939
:1031BC000958D0B2884703E0002801D00298087063
:1031CC0006F0BCFEA54800781F21014002292CD135
:1031DC00A3480478103404700E20A249085E410FF5
:1031EC00411809B2C9083022BA564A4300011018D6
:1031FC0080B2A52149000AF086F98C490A7810188A
:10320C00401C4008087021060FD12F21795CC0B2F8
:10321C0081420AD911202E2109F052FB0398385C07
:10322C00000702D59048322101807E4800210170B0
:10323C008F480178032901D100210170784800885A
:10324C00801B82B28B490B889A4200D908808A492C
:10325C00C878002800D19CE088480188491C01806E
:10326C0000208B4DC7B20B2F00D98DE003200390AB
:10327C0078436F490A184B20C000111805918049FA
:10328C0053180292115C0F26084630407D4A1018E4
:10329C00401E0078032806963BD178007A4A125ECD
:1032AC00002A02D009D4541E1EE000229C56002C89
:1032BC001ADBE2430A24544316E092B2541CA2B225
:1032CC00A24211D01E4603227A43594B9A186F4BD7
:1032DC00D256002A05D4521C52B20A2353435C1E08
:1032EC0000E0D4433346069E674A121808090FD0F3
:1032FC00082801921E4600D9401C0AF09DFB0028AC
:10330C0001D1049C7C34059801783346069E019AC1
:10331C00148031400C292E46ED5D08D10024019318
:10332C0018570AF089FB002804D001240DE02C4624
:10333C0035460CE0032078433D4908185349405664
:10334C000AF07AFB002800D12C463546019B0699E1
:10335C000598007808400D2813D1002018560AF063
:10336C006BFB00280BD0A0070BD4484802990856D9
:10337C000AF062FB0028039C03D1022401E0FD202B
:10338C000440EC55781C6DE709F01AFA00203A4914
:10339C00C8704878002807D0002048702848017869
:1033AC00002901D0491E017007B0F0BD032007F0C1
:1033BC0005FE04402BD03978A1421D4A28D93E7015
:1033CC00069909061D4B00D069E640B2002823DAA5
:1033DC00642022E0002F01DC049A00E07D22039996
:1033EC00029807F06DFC38467D3080B20024FA2834
:1033FC0000D914E578B2C01139184140C8B2800820
:10340C003C21081AC1B2152009F0ACFB07E5084AAB
:10341C000A4B44E6622000E0652006903FE6C04679
:10342C0096040020120E0020360C00202A0E0020DC
:10343C00AE0400202C0E0020E0FEFF1F660E0020C4
:10344C00650E0020390E002064FFFF1F3A0E00208D
:10345C00710E0020630E0020670E00202D0E002040
:10346C003B0E00202C0400209A040020B702000020
:10347C00290E002098040020CE0F0020A00400206C
:10348C0056020000BFF10000140400205702000097
:04349C00D40D00202B
:1034A000F0B58FB004463148007809F0C7FB0546F7
:1034B0002F4F0E22384607942146FCF701FE2D4877
:1034C0000AF043FA2A78801DC0B200242146234620
:1034D0000AF033FA3F57384609F04EF8069026486E
:1034E00002780820254902900AF04FF82B46F8B2DE
:1034F0000890E0430390691D0D950591E0B20728FF
:1035000000D31DE206982018C0B2089981420C949D
:1035100001D0002601E01A490E780E2800D90CE2ED
:103520000C99CD002C460834810001A251588F46D9
:1035300085350000A5350000B9350000CD35000007
:10354000E735000001360000233600005B3600003E
:10355000B9360000D73600006B3700009B370000FB
:10356000BB370000DB370000FD3700005D0E002098
:103570004D0E0020DFF30000180E0020B5E400001F
:10358000700E00205D78E1B21C46F3B25420224652
:1035900007F082FE252D00D043E1607A45092535EC
:1035A000234642E102201A56E1B2F3B260200AF04B
:1035B00058F90D9B9870C0E102981A56E1B2F3B227
:1035C00060200AF04EF90D9B1872B6E1059DA878AF
:1035D000E1B2F2B20007C00F0AF08BF90D9BC007F1
:1035E000000BF721D1E0059DA8784006C00F59785F
:1035F000042900D929E1E1B2F2B20AF083F929E104
:10360000059DA97801200840E1B2F2B20AF07AF9EA
:103610000D9B7F214904AA7812040A40C007C00B01
:10362000B7E0059A107851780902081891780904D2
:103630004018C50D000200120399884200DC1CE10D
:10364000042018561A21C943884203DB1B28C54AA7
:1036500000DA13E10225C44A10E1059A1078517886
:10366000090208180221515609044018042503993B
:1036700088425F5700DC1FE11A20C043874202DB0B
:103680001C2F00DA26E17F20C04347404020304312
:10369000C3B2E1B266203A460AF077F9300606D0A6
:1036A0006320C1436422384609F0C0FA07460D9BE7
:1036B00080207840187140E1F3B2581E19468141CC
:1036C00003200D9A12560091E1B24E2009F065FEDA
:1036D0000D9BD87031E130060A9002D004209B493E
:1036E0000870072009900543049500260121F7B2D0
:1036F000042F00D921E1587A0E9108401F210B9127
:10370000084043424341099D754328463F30C0B2BB
:10371000E1B232463032D2B204F0A0FE0A9800285C
:103720001DD08B480078B84219D10498C1B23E35FB
:10373000E8B20822092309F053F907982E2801D08E
:1037400020280CD10E980B9A02400D99487A5040CF
:103750004872022008F034FD00207E490870761C73
:103760000E980006C10D0D9BC1E70899081A434247
:103770004341059DA978E0B249078A0F724906F0D6
:103780000FFB0D9B8007400BF9210904AA78120456
:103790000A408018000CA870CFE0059F3A780F25EA
:1037A0002A40E0B2F1B208F0B5F90D9B2840397813
:1037B000F0220A4010183870BFE0059D2A78E0B268
:1037C000F1B21206120F08F0A5F90D9B000129783D
:1037D0000F220A4010182870AFE0059D6A78E0B209
:1037E000F1B21206120F08F095F90D9B00036978EB
:1037F0000907090D4018000A68709EE0059F7A7855
:103800000F252A40E0B2F1B208F084F90D9B29039C
:103810007A7812020A400007000D8018000A7870BA
:103820008BE0252D00D9AD1D0D9B300600D184E025
:1038300068B20121372209F0F9F90D9BC1B225299F
:103840007AD32C2970D3801F76E0E1B2F3B2474AD5
:1038500009F088FF29786A7812025118AA781204B0
:103860008918384A114029700A0A6A70C007400A4C
:103870000843000CA8700D9B5FE0394AE1B2F4B236
:103880000620234609F0BFFD002C0D9B55D00221D8
:10389000284609F031F90D9B85424ED0811E4A42DF
:1038A0004A41D1011971C005059A91784906490A22
:1038B0000818000C907040E06420F1B20090019173
:1038C000E1B26320C34348203A4606F083FB0D9BD8
:1038D000187132E0E1B2F4B20C203A46234608F007
:1038E00025FA0D9B002C28D058570F21C9431622CA
:1038F00009F09CF90D9B1871079960291DD10728C3
:1039000007DBC01F14490870144808F05FFB0D9BCB
:10391000187941B2002910D5C0430F4908700F48EB
:1039200008F054FB0D9B08E0597A1F220A40400121
:10393000801860305872252058700C9C641CDDE59E
:103940000FB0F0BDFFFFBF007DEE0000580E00205D
:103950002B0E00201E0E00205F0E0020317F000085
:1039600067F5000049F500006DF500000AF200005F
:10397000F0B587B0C549002206920A704221039132
:10398000C349C97C0F220D4604921540C14E3278BE
:10399000002A26D01420C04E30560AF053F80446B0
:1039A000BE4F002804D03878002801D105F034F942
:1039B0003C702806029000D171E0B5480478B84800
:1039C00005780A27782F08D03278F8B2002104232E
:1039D00004F044FD761C0B37F4E7A5422DD3842276
:1039E0002CE0702211400246803A0E2A00D841E1B4
:1039F0000246203A0E2A00D95DE152007A449288AC
:103A0000520097440F000E00BB01C801CF01D40142
:103A10000E000E000E000E000E000E000E000E0036
:103A20000F00B7E7002DB5D1002575700121317069
:103A300008F092FFED480570ACE78622252010259E
:103A4000294608F021FD26201826562231460AF084
:103A500009F85D20002404232946224608F06EFF61
:103A6000332031462246234606F014F808F0E2FAE5
:103A700000280CD0024626241021204608F0FEFD26
:103A800025200F210923224608F0AAFF07E0D84885
:103A9000837C009426201021D74A09F09BFE069EC5
:103AA000F5B2042D6ED2284608F03AFF0446DD48F0
:103AB0000078294609F071FFC1138A0F821812B2EB
:103AC0009710002801DC384600E001203A0600D1BA
:103AD000471879B21B20C043814200DC074678B208
:103AE0001C2800DB1C277F203040CF490919491EC4
:103AF0000C7801280BD0022821D10421362220463F
:103B000006F038FDBA48407CC00705D014E0042117
:103B10003622204606F02EFD601EC0B21E250696F7
:103B200003262946324606F025FD601CC0B2294610
:103B30003246069E06F01EFD1F20C11B18E02046DF
:103B40001B38C0B23B2105913622B84B9847601E06
:103B50000696C6B23A21032530462A46B34B98470B
:103B60003C213046069E2A46B04B984705993C19A1
:103B7000E01EC0B2C91EC9B20722134609F04CFBB1
:103B8000761C8DE71120009008200025984A0A2312
:103B9000294609F0A9FCA64800789649097881428F
:103BA00001D3284600E0012042005420294608F0B5
:103BB0006BFC6F2029462A462B4608F0BFFE029870
:103BC00000280DD0824C2078002800D1AAE00128DE
:103BD00031D18B4803210E2204F09EFB052130E0F9
:103BE0003026304607F0AEFB3F20082529463246F6
:103BF00006F0C0FC0520C643002EE3D07C488019A7
:103C00007E49405C002814D0B71D441EE0B206F087
:103C10009FFD03460020009004980190F807284675
:103C200000D00398BA0078211140123162B203F03B
:103C300023FC761CE0E773481F210E2204F06CFB86
:103C40000021714A00239370012800D06AE0A07817
:103C50004018C0B2062800D964E0C0467844007914
:103C6000400087440339424D51555A005E4808F0E0
:103C7000ADF957E07A4412795200974414555B64C9
:103C80006B7513131313131313131400660E002014
:103C9000650C0020090E0020AE0400203C0E002020
:103CA0002A0E002076E6002474700221317008F09C
:103CB00053FE4E480EE0612800D181E0BF2800D0BD
:103CC00068E60124434E2046B0470320B047022057
:103CD000B047414804705DE65048037040480121F8
:103CE00001704F4808F072F91CE0012090704948BB
:103CF0000078800048494018406808F067F911E0F2
:103D0000384808F063F90DE0344808F05FF909E03D
:103D10004848808840423E4903E046480088404287
:103D20003A49088007B0F0BD08F0FAFE09F0A4FE99
:103D300017202DE03E48C174172008F0E7FE8220CE
:103D400008F00AFEEEE7254808F040F9832008F065
:103D500003FEE7E7224801210170234808F036F905
:103D6000842008F0F9FD15E61D48012101701D4869
:103D700008F02CF9852008F0EFFD0BE6002D00D0AF
:103D80006D1E29432A48C174A12008F019FA142095
:103D900008F0BCFEFEE52648C174A12008F010FA28
:103DA000132011E0002D00D0F4E5103103E0002DC8
:103DB00000D0EFE53031302008401D49C87402E0E2
:103DC000002D00D0E6E5172008F0A0FE0025E1E573
:103DD000090E002059C900003C0E002099910000F6
:103DE000150E0020C514000095580000630E002039
:103DF000AE0400202A0E0020AAF00000B702000046
:103E0000E3EF000027E900000D0E0020A8040020C9
:103E1000AC0400202C0E0020E0FEFF1F680E0020E6
:103E2000110400007A0E00209CF500005BDA00000F
:083E3000650C002094FDFF1F4A
:103E3800F0B58BB00546E14809F083FDE04C2078E9
:103E480000281BD0DF4A117A002010724AB2012ADA
:103E580001DB622200E06322002900D01546DA491E
:103E68000978002901D1632D05D0D84A125691420C
:103E780002D1622D00D10546D5480570D548007895
:103E8800002805D1D1480278CF482946FCF714F913
:103E9800CF4E3078CC4909780691012103912E281C
:103EA80003D0BF280AD060280AD1C5490A78002A59
:103EB80040D0F948002202700A70F84C00202070A7
:103EC8000295069840B208F053FB0146F84800787E
:103ED800002801D000203070F148007800280791B0
:103EE80040D0F2480778622F01D0632F3AD13E467E
:103EF800623E701E34468441EF480578284608F033
:103F080099FE002D0AD1002C08D00178022901D38E
:103F1800491E0170022008F04FF923E0202D21D816
:103F280001D1622F1ED00021622F0A9107460BD0C3
:103F3800C8430AE0DE4909780029C1D108F008FD24
:103F4800002003903446B9E701202D18E8B208F0A4
:103F580071FE3978002905D0102903D80278102A73
:103F680000D875E1012000263546C1B2102900D9D4
:103F780009E10A910890F0B2099008F05BFE079BEE
:103F88000446EFB29F420BD3F81A062808DCC0009B
:103F98000830C1B2012000230A9A09F0CAFC079B25
:103FA80009981F2800D9C4E020780A99884200D0CF
:103FB800BFE0BC4A0F46E8B2984200D2AFE0C11A4F
:103FC800062914DCCF00B64909780022002927D138
:103FD8000699C9B2814223D10898B9490870B648F0
:103FE80006700398002813D0B148007816E0072916
:103FF80000D094E0AA480078002800D18FE0AF48AC
:104008000078F1B2884200D089E01078401C81E045
:104018000120A7490870002202924A704242424198
:1040280005920837F1B209980491884209D0E079DD
:1040380000210091F9B24007830F1320A54A09F027
:10404800C5FBFFB2302000233946224607F020F98D
:10405800022022562D203946059B09F0FEFBA07050
:10406800E078002805D042B248200023394606F0FF
:10407800C3F9207900281DD06179A279120251185C
:104088000722A256120489180BD401461B31C9B263
:10409800362909D842B260200023394607F042FE8B
:1040A80008E06020642201E06020452200233946B0
:1040B80004F0D0F96079A17909020818E1790904B6
:1040C8004018FF210902014001D0532200E02022BC
:1040D800002901D02A2100E04421000600D00A4628
:1040E8007920394609F0BAFC6D480078002813D0C9
:1040F80072480078049988420ED11820662200235D
:10410800394607F09BFE6C48067028460695654AB6
:10411800079B0A9F107002E0624A079B0A9F6D1C6A
:10412800F0B21E2823D8761CA07A0A34B8421BD1D4
:1041380041E70698C0B2B84215D15F4806700898A2
:104148005F490870E81AC000C01DC1B200241922D6
:104158000923204608F040FC0398002803D108F002
:1041680077FA002805D06D1C0898401CFDE620262B
:10417800FAE751480078214606F05AFB484804708F
:10418800504807F01FFF4A48007800285BD0029883
:10419800464C20704C483F210B2204F0B9F8012806
:1041A8004AD14348807805282FD8C04678440079FA
:1041B800400087442011222A2E33C04643F50000D0
:1041C8001A0E0020F40D0020560E00201B0E0020B1
:1041D800630E0020090E002008F03AFA00280AD1E0
:1041E80035490878401C0870C0B20024214606F002
:1041F8001FFB2B480470334819E02F490878401CEE
:104208000870C0B2012106F013FB01202449087090
:104218000FE0294800782D49087002E02B48FF215B
:104228000170207808F094FB00202070284807F0DF
:10423800C9FE00201E4908701E48002101701E4852
:1042480000781E490870681E174908700BB0F0BD49
:104258003B468A420BD10A210A060CD002781C463A
:104268001B7803702270631C401C491EF4E7102958
:1042780004D30A9A03E0114805704BE60122704204
:104288007041104002462243012A00D042E6091B31
:10429800081818703EE6C0461E0E0020680E002062
:1042A8001A0E0020560E00201B0E0020630E002060
:1042B800090E00201E0E00205D0E00205B0E00205F
:1042C8005E0E0020A13400007EEC0000260E0020C7
:0842D80089A9000097F5000020
:1042E000F0B58BB00990FB4809F02FFBFA4C207811
:1042F000421C4E200025294609F0CDFB21780922D9
:10430000104607914843F5490C18F54EA05D40074B
:1043100000D00A22F34F38460999FBF7D1FEA619BF
:10432000F14824187F57052F089406960A970EDC4B
:104330000820FA4909F011FBED480078099008F0CF
:1043400003FC2078002F00D18AE000238EE0059541
:104350000825E649284609F000FBB81F43424341BF
:10436000E3480078049030784006820FE149E24C3F
:1043700003952846A0478007400E31789F220A40C7
:1043800010183070F81F43424341CA091020DB491E
:10439000A047C00134787F21214008183070083FC1
:1043A0007B427B4107252C401820D5492246D24F1D
:1043B000B84728403178F8220A4011183170A042DD
:1043C00009D00921079A5143C44A5118EA01059BB3
:1043D0008B5489184B70002868D02020C94909F0F7
:1043E000BCFA06980178294028200A2402290A9B51
:1043F00000D1FEE0012900D014E1069009200799C0
:104400004843B6490818E901425C4518687800023B
:1044100080187D218E00092B0BD100B232460B3261
:104420000021022303F0F0F92870010A6970049951
:104430000591F11D02B28A4200DCF8E06C202027D1
:10444000B34A39462646059C234608F0DCFF287807
:104450003530C2B278203946234603F0FFFF16E11B
:1044600040B25E2108F048FB2070099BC2B2602078
:10447000082105F0C1FE2078002822D0401EC0B2DD
:1044800006F012FA06460820A54909F066FA2078D7
:10449000252811D38221002200920191253842B2B1
:1044A00048200821334602F0E7FF0AE020200926D1
:1044B000089D0A9C8B4FEEE048200821324609F007
:1044C000EAFA09200799484384490E189549705C17
:1044D0000A9A012A08D1751840B2062108F00CFB8F
:1044E000287009990A9C01E000211446C3B2042BEC
:1044F00004D800914E2010218C4A05E00091401F05
:10450000C3B24E201021884A09F064F9022C14D15C
:10451000874864210170874D705D771901217956B4
:10452000090208187D210A028349022303F06CF96D
:104530007055000A7870099B00E000230898007805
:10454000252810D37B49725C7118012549578225B3
:104550000093019509028B18253842B27820182162
:1045600002F08AFF0AE07348315C3018012280565D
:10457000000242187820182109F007FA6F49705C90
:104580000025032C09D1771840B21521C943162202
:1045900008F04CFB3870099B00E02B4642B26020CB
:1045A000202105F02DFFDF208100705C042C06D156
:1045B000751840B2212108F09FFA287000E0099593
:1045C000069DC2B260202821099B07F041FE601FB2
:1045D000434243412878C006820F3020584905F0F5
:1045E000DFFB8007C00E2978E7220A4010182870E8
:1045F0006DE005940690092007994843374908184B
:10460000E901425C45186878000280181C46092BB5
:104610001BD140B20F2108F06FFA00216970287099
:10462000049913E0089D2F4F26461C4633E0B24202
:1046300018DD0C30C2B26C202021059B07F066FE0D
:10464000089D284F0698264624E00021089D254F06
:104650000091C3B25A2020212B4A09F0BBF80698DA
:10466000059E18E0264678202021059C234609F067
:104670008CF9002C0BD00998802805D1287869780E
:104680000902081807F058FE204800210170089D13
:10469000144F06980A9C1F49069009F05EF9A6423D
:1046A0000FD1099880280AD10921284609F0EFF88E
:1046B0001648002101700A2C01D103983870049B20
:1046C00000E000234820144A069908F09CFE0BB035
:1046D000F0BDC046FBF20000570E0020AE040020E3
:1046E0007D030000450E00207903000016ED000058
:1046F000700E00208EEF0000A19D0000EFF2000080
:1047000078EF00006DF30000A4E500001E0E00200D
:10471000C8F500001BF50000C1F300002DEC0000FF
:1047200083F500007A03000030F1000032E500005C
:10473000670E00207E0300000083FFFF7B03000064
:04474000C3ED0000C5
:10474400F0B583B0E34E0125357006F059FA002424
:10475400E1480157002907D5E04A13783746F02687
:104764001E40331D3E461370DC4F3A78142A35D868
:104774005200C0467A449288520097449E009E009C
:104784009E0087006A000D010D010D010D010D0150
:104794000D010D010D010D010D010D011400140099
:1047A40014000D01110107F05DFC032009F07AF9F2
:1047B400C02008F0FFFF08F0F7F83878401C387084
:1047C40038780F210140032903D33878F0210140C0
:1047D40039703878202101433970DDE010462038E3
:1047E40003286AD310463038032818D2252007F04E
:1047F40045FDBB480178BC2900D0CDE0417A0129B0
:1048040000D0C9E00321C943B74A002936D0531860
:104814004418647A7D25ED005C55491CF5E7242A8B
:1048240017D0342A00D0B7E00024204608F02FFE29
:10483400800600D5F7E0252007F020FDA84E717A08
:104844003078AA2800D0E7E0FC2900D0E4E0012079
:10485400E7E0AE4D2878411C2970AD490C5CA748AF
:10486400007803F0B3FC3878DF21014039702878F0
:10487400102800D280E0002028707FE03878F021F2
:104884000140C81C3870A348002110E0A14A1378E5
:104894005B1C1370DAB2042A0FD33A78F023134066
:1048A4001A1D3A70994A0123137080221143017032
:1048B4003878DF21014039706EE0894CFF20207286
:1048C400E071A0710020A07286490968617003221A
:1048D400D243D21C62710A0E22710A0CE270090AD8
:1048E400A1703E788A49102804D022180B5CD37238
:1048F400401CF8E720461B300A21FF2208F0C6FFBF
:104904002520002121540F200640751E032D20D29E
:10491400BC202070032E11D1F920800072490A5C5A
:1049240062710818C17821728178E1714078A071B0
:1049340020460B301021FF2208F0A8FF80202077AA
:104944000120E076E8B20228624E00D302256572A7
:1049540006E0002E5F4E03D101206072BB20207060
:104964003878DF21014039706B480078C00701D0E6
:104974000D2401E07320C44307F0ACFDE1B225200F
:1049840006F05CFD08F010F863480178491C0170DA
:104994005B480188491C01800020307003B0F0BDE1
:1049A40007F060FB284609F07DF8C02008F002FFFC
:1049B40038782021029108433870514800880190CA
:1049C400504908F07AFD4E424E414F49019808F093
:1049D40074FD002900D075004848057007F0E4FF15
:1049E400424D434E2B2C12D0285D002802D0401E8D
:1049F40028550AE001200021224608F0FBFD326818
:104A040082433260706888437060641CEAE73878D7
:104A14000299084338700AE0AA280AD1FD2908D16E
:104A24000220364908703878DF2101403970294E58
:104A3400B2E7AC2801D0AA28F5D1701C2949042575
:104A44002A4608F060FE0290F920800026490918E1
:104A5400701D2A4608F057FE02990843E3D11D2031
:104A640008F015FD2149FF220A7121490A68102323
:104A740013430B603C2800D83C201E4D29691E4A74
:104A84001368591A08181060642108F040FD286161
:104A94003078AA281BD0AC28C5D134460934A01BD1
:104AA40008381928BFDC2078FF28BCD0A578AC21B1
:104AB400204603F0E5FA2819C41CF0E73019093040
:104AC4000178FF29AFD0AA2103F0DAFA241D1C2CA7
:104AD400F4D1A8E76A0E0020200E0020690E002001
:104AE400B8FEFF1F60FFFF1FAE040020990D0020D9
:104AF40000F8FF1F08FDFF1F7C0E0020510E002050
:104B04009E0400202106000021050000280E00203C
:0C4B1400C40D0020340E0020230E0020F1
:104B2000F0B58CB01F246102CB48426B0A4342634C
:104B30000121CA06836B13438363C84BDA681020D4
:104B40000A900243DA60C64DAA69C64E3240AA6195
:104B50006A6832406A606A6932406A61C248826843
:104B600032408260C14A956D35409565556F35403C
:104B7000556705683540056016259D60DD680D4365
:104B80000E27BD43DD60002506951D6247255D6249
:104B90001C605C6A80250B952C4340250995AC432D
:104BA0005C621C682406FCD50F2007900304B04EFD
:104BB000746D9C4374650B02AE4C23646364A36400
:104BC000E364756D3D4375656360A360E360202514
:104BD000ED437561A8480361756D0D437565C84364
:104BE0000490356C0540356423608D07A34C6769DC
:104BF0002F4367612768AF432760936775690A98F9
:104C0000054375613568054335609B48C360CF0730
:104C100065693D430897656125683D432560D36715
:104C20004D0377692F43776137682F4337600363FC
:104C3000934F7D6D0B9805437D653D6C05433D6449
:104C4000874DEB6107988504104662692A436261CB
:104C50002268AA4322608364C364036543650546F2
:104C60000320029000022A6C024305902A646A6CB9
:104C700002436A64079802027D6915437D613D68BD
:104C800095433D607848036243628362C3627A6DF4
:104C9000049802407A65724803607A690225AA4343
:104CA0007A61714A53607A6D0A9DAA437A650361FD
:104CB0000A037569154375613568954335606E481B
:104CC000C36288050190644E326B0243326348022E
:104CD000654A9061039050616A4D12200490A8705B
:104CE00019226A702970684A083A10680791674962
:104CF000084010600798800265490860A878099A02
:104D00001043A87078690A9A104378613868104394
:104D10003860554D2B61786D042210437865386CEE
:104D2000904338644E498B605A48026078690B9A08
:104D300010437861386810433860EB617869082265
:104D400010437861386890433860EB606069029D79
:104D5000284360612068A8432060444803604360A2
:104D6000CB60494BD8684C49084008994018D86036
:104D7000474C21600799CF05B06B3843B0630520DD
:104D80000A9000020090DB30444A106095609F203A
:104D90001061072090611D4658683C4A1040C019B8
:104DA00058602346019820603D48069C04603D48B9
:104DB00030604806B26B0243B2633B483B4A8260B4
:104DC0002A68324F3A402A608A041A6049220260F7
:104DD0003148401CB26B0243B2633548354A8260A9
:104DE000FF2212022F689743CA03BA182A604A04A6
:104DF0001A6004608B06B26B1A43B2632E4F2F4ABF
:104E0000BA60FC602E4A3A611B48059A026032681B
:104E10001A433260039A426028681F4A1040089A79
:104E200080182860C8041A4908603C60306B0999F2
:104E3000084330630D480099416601662148049992
:104E400001700B99417020482049416084600A99A3
:104E500001600CB0F0BDC0460480044000B00340C7
:104E600000C00440FFF8FFFE00B0044000D0044042
:104E700000F00F4000A004400490044000F10F40F7
:104E800080F00F400160074010E400E0FFFF00FFEA
:104E900000E100E0C40000F8FFFFFF0000710340E4
:104EA000007003400000010100900340FF0B000070
:104EB000008003403B2D000000A00340FFFF0000E6
:104EC00060EA00000160064010E000E07FBB0000E7
:104ED000F0B591B08278EE2A0CD1C378C84A127826
:104EE000934207D1C74C2278002A0F930AD0C74BB0
:104EF0001B780AE0C34800210170C34C00202070D9
:104F000011B0F0BDC14DFF232B7006795DB2109634
:104F1000AE4201D0FF2BF3D10F9B5D1E0C230C93EF
:104F20000D956B43BA4DEB180E93109B5B1EB74D5E
:104F30002B700523B84D8B4206D2C75CD6B2AF5555
:104F4000521C22705B1CF6E71098002805D0AE4872
:104F50000178491C0170AF4CD0E7AB4800270770BF
:104F6000D0B20428CAD30E9B5989FF2009918143EE
:104F70000F980818588169789E792A781091C90984
:104F80000B910A96002E15D01946DB799342B5D1C4
:104F9000089207977F27109B1F400B890F2119400C
:104FA000B942ABD10999C905C90F0B9E8E42079F23
:104FB000A4D106E008920C230D994B439449CB18D9
:104FC0001B8907970E9E31460A310F27109A3A40E7
:104FD0000997BB4310929A180D923281089AF27188
:104FE0008E4A10400B9A120210180880AF1C3846E7
:104FF00008F0F2FC0A9A0346002A07D03088884954
:10500000081839461F4608F016FC1EE03946854848
:1050100000880B903080D8B20C281F460C9B00D81B
:105020003B46B01D109A0D2A00D13B460370DAB200
:105030007B480B9BC0183E46174608F0FCFB0B98BC
:10504000C0193746774908800E9E32460832F81C50
:1050500010990D291AD0092900D0B8E00B92C0B2DE
:105060000A902E18304608F0B7FC6F490B78002BD9
:1050700034D0F0210D9A8A433818001DC0B2285C44
:105080000007000E10180B990880A0E0F0210D9B7E
:105090008B43C0B2285C0007000E181810806248CD
:1050A0000078002800D092E0781DC0B22818109037
:1050B000374608F091FC05465A480688BE80092DFF
:1050C00000DB09255648801910992A4608F0B3FBE1
:1050D0007019544908800E98857074E008960E99EE
:1050E0008A78002A0B9A01D00D9E60E00493059700
:1050F0008A1C03924B4A1288494B092601969E54FA
:105100008A801090431E0292561C079F38460899C9
:10511000069309180E91191AC219109B0C929A4203
:1051200035DA0E9AD35D3B2B03D0B94201D07F1CF8
:10513000F2E70A9A8218B942394900D17F1CB0B20D
:105140000818A918092F00DB019F3A4608F073FBE5
:10515000F619344A1680324B092F06DAB0B22021F4
:105160001954761C16807F1CF6E7099800020D9AE8
:10517000110A8243481C0007000D82180D920B98FB
:1051800002800C98401C079F0899069BC1E7B0B2AB
:105190000021234A1154701C224908800299401AA8
:1051A000039908700D9E059F0B9A049B1098F0219F
:1051B0008E433818001DC0B2285C0007000E30185E
:1051C0001080002B03D119480178491C0170184840
:1051D0000178002902D0002101700CE00F98401CDA
:1051E000074A107013490978C0B2884203D90120D8
:1051F00010700D4908700748012101707EE6C04615
:10520000D40F00202F0E0020320E0020D30F0020DC
:105210006A010020130E0020AC0C0020FFFE0000ED
:1052200096080020A2040020360E0020310E002037
:08523000270E00202E0E0020C5
:10523800F0B587B0044640782378834200D08AE1ED
:10524800222900D987E1C84800788006400F8900E4
:1052580001A359588F46C046ED520000F552000090
:10526800FF52000007530000295300005B53000061
:1052780093530000AF530000DD53000015540000A5
:1052880021540000715400007B5400008754000032
:105298008B5400008F5400009B5400009F54000062
:1052A800C1540000CB540000D7540000E354000060
:1052B800F3540000F7540000075500000B55000098
:1052C800435500000F5500004F550000635500007E
:1052D800135500001B550000235500002F550000F2
:1052E8003755000030200090462119E13020009009
:1052F8004621142215E1A22000906421FCE02A2016
:10530800059000905F25052602200690954F2046BF
:1053180029463246069BB847212000900A2369E0B7
:10532800C220009050210A2503268E4F20462A4687
:105338003346B847422000903C2120462A4633464F
:10534800B847202000904621012320462A46B84726
:1053580001E12120009006460690462105220123FE
:10536800804D2046A847009632210F250226204668
:105378002A4633467B4FB84706980090502120466E
:105388002A463346774CA047E5E0222000906E215C
:105398000525012620462A46334603F099FE232098
:1053A80000907C2184E000270097322105256D4E6E
:1053B80020462A462B46B04700975A2120462A46BF
:1053C8002B46B047022000906E210322042320467A
:1053D800B047C0E0232005900090502505260A20FC
:1053E8000690604F204629463246069BB847212042
:1053F80000901423204629463246B8470598009065
:10540800204629463246069BB847A4E06220009011
:105418000A21142205239BE02220059000903221C6
:105428000491042206920A2303934E4D2046A8476E
:105438002120029000904621019108271426204639
:105448003A463346474DA8470598009020460499A8
:105458003A46039B434FB84702980090204601996B
:10546800069A3346B84776E02A200090782105222C
:105478000DE02220009078210522322368E02120C7
:1054880002E0222000E023200090002114220A23B9
:105498005EE012202EE0422000903C2114250326D5
:1054A80020462A46334603F013FEE220009050219E
:1054B80020462A4633464CE03020009046212822D8
:1054C8002FE0012847D0102000904B2128E0012828
:1054D80041D010200090412122E0102000900625A4
:1054E8000123204611462A4633E0302002E00128F5
:1054F80031D01020009046210A22022328E01020F3
:1055080004E033201AE0312018E03120009078219F
:1055180006E0322000907A2102E0332000907C21BE
:105528000A22012314E050200090822102E0D020BA
:10553800009032210A2200230AE0322000907821CC
:105548000F22032304E0312000904621142219235E
:10555800204603F0BDFD07B0F0BD30200090462185
:0C5568001E22DEE7D9900000790C002024
:10557400F0B58BB0BA498879401C887100200121AC
:105584000691B94DC7B2012F00D9F4E0002F02D023
:105594003720000100E0B748B74908180024005735
:1055A40039016E180028069B1BD016280CDB153811
:1055B40040B208F045FAB1798142069B11D0B11D81
:1055C4000028087005D10CE008F03AFA0028069B80
:1055D40007D0002F02D008F04DFA01E007F09EFA40
:1055E4002346052179439F48039140180890857804
:1055F400FE202840022801D1A0488488A0480078D1
:10560400002800D09F4C0794032008990C56042DC1
:1056140005D368009C494018083800880790012287
:10562400002D0492059337D0162C24DBF0783188B2
:1056340001438B4A9079084391880143B078084329
:10564400B11C002801D1002008702046153840B252
:10565400019108F0F5F9019A002808D01178002981
:1056640005D1F11C0A7853425341019A0B70107012
:10567400059B049A10E0002C0DD020460197274684
:105684002C461D4608F0DCF9049A2B4625463C4678
:10569400019FF07000E0F2703088F17800290294E4
:1056A40001D1014608E09102079A12B251188A0EFC
:1056B40089188911C9B24118694C002B00D10146DF
:1056C400318007F031FBA188401A80B2642850D39E
:1056D400A279318809A807F069FF099807900A9907
:1056E4003180002F05D00021A171211D6420059B6C
:1056F40005E02188491C2180A11C059B04980A8887
:1057040012180A800798000602D03189491C318199
:10571400002B06D0F11C0978002902D0B188491C5D
:10572400B1807189400E0A1872814E480399405C19
:105734000899497809020818B08131460C31002DC6
:10574400034610D0012D04D1029A002A08D0B28851
:1057540007E0022D01D8328903E092B2120900E079
:105764006288831A0B80089A1279002A01D0C01A21
:105774000880781C05E7A889E98981426BD0394BF8
:1057840019785A781E79E881EB78002B63D01202DD
:105794005118002E00D0081A07B23C4C207840075C
:1057A40026D5002924D00A2F07D0B8B2142807D050
:1057B4001E2808D1192029210EE01B202B210BE0E3
:1057C4001A202A2108E0052F47DC28480A3000B2B5
:1057D400874203DDF9B21C2007F076F8069800280A
:1057E40006D020780821014002D0214832210180CE
:1057F400002F01D4384600E0A889002E00D1384695
:1058040001B209A83C2207F0D1FE2078800715D503
:105814000A98002812D1607A800703D4002007F088
:1058240073F905E00998002802D000B207F0B4FF2C
:105834002078000702D50E4832210180A8890B493F
:10584400884208D91C2007F05FF92078000702D5A8
:105854000748322101800BB0F0BD00200690BDE75F
:1058640088040020EA0D0020B4030020F5FF0000A6
:105874009A0400206F030000AE0400205C040020A2
:10588400620E002000FCFFFFD40300207C0C0020EB
:10589400F0B587B00290B44808F055F8B34E3478A8
:1058A400B3480078002804D1B0480F220299FAF7CF
:1058B40005FC0025AF49284608F04DF806F0E4FF42
:1058C40002B266202F46294608F0E3F83678AA4942
:1058D4000878022803D100200870A8490870A84855
:1058E4000278511CC9B28E4203D2721E0AD200221F
:1058F40008E0111DC9B28E4204D9321FD1B20A295F
:1059040000D30A2261B2019102709E499B4D03A803
:1059140054C0F8B2062832D2B818C4B2351B6B4250
:105924006B41401CC2B2F8001030C6B2122031469E
:1059340007F0D3FF2D209349085C844204D1012051
:105944002A22314608F08CF806960F262046964CFB
:105954002146324605F04CFA68426841874D297861
:10596400014010310091182006992246334607F071
:10597400B9FD7F1C049C059E8249039AC9E77C48B3
:105984000078002807D02D27C95D78480078814227
:105994001AD07E2519E0029A1046643802286CD386
:1059A400602A79D0BF2A00D199E06E2A74D0812A66
:1059B40000D1A0E0612A00D0B8E02878012800D006
:1059C400CFE000202870CCE0592508F033F80028F7
:1059D40001D16920C5434F206A49085C400701D4BE
:1059E4003F200540E9B268480A2202F093FC0128EE
:1059F400624D00D09AE05E488678052E5ED8B000ED
:105A040001A108588746C046AD5A0000255A000037
:105A1400255A0000B75A0000C15A0000C95A0000B4
:105A2400524805785748C5555A48012707700298C7
:105A340006F090FF06F062FD284601F051F8564842
:105A4400C17802220A43C270384606F0B7FB06F05A
:105A540055FD05F091FD02F091FF5048807A07F062
:105A6400D5FF06F073FD42480078022801D0022ECB
:105A740057D14B4806F068FE56E02D20085C3B49A0
:105A8400097888423BD11046642A01D065284DD15B
:105A9400434806F059FE49E0424800270770287839
:105AA400012835D12F705CE03D4806F04DFE059E7F
:105AB4003CE03648059E067001200AE0012028706B
:105AC400059E36E0029806F045FF3048059E0670B4
