:10000000001800208DC8000031BD000033BD000085
:1000100000000000000000000000000000000000E0
:1000200000000000000000000000000035BD0000DE
:10003000000000000000000037BD000039BD0000D6
:100040003DBD00003FBD000041BD000043BD0000BC
:100050003BBD000045BD000047BD000049BD00009C
:100060004BBD00004DBD000089AE000051BD000039
:1000700053BD000055BD000019C5000059BD00006A
:100080005BBD00004DB8000059CC000049C5000020
:1000900063BD000065BD0000D9BB000069BD000064
:1000A0003BBD00006BBD00006DBD00003BBD00000E
:1000B0006FBD00003BBD000071BD000059C10000D4
:1000C000F0B583B002920F4601900825BB48425F0D
:1000D0000621BB4E715E891A8B0EC9188911B94B66
:1000E00019700A23C35E705FC01A840E0019801154
:1000F000B54C2070C0B2C9B2002901D092B2F280D2
:10010000B24C002801D09AB232812478B04A1378D8
:10011000002B03D1B94B1B789B0606D50020AA49BA
:100120000870A849087010700146002904D1002801
:1001300002D17088002801D00CF0CEFCA5480678CA
:10014000012000900298FF285ED0A3480078012883
:100150001FD0002841D1A2490878012802D10020EF
:10016000087034469F4B5A5700201872012A18DB3A
:10017000611CCAB2521A531E9A41B442019B01D269
:10018000002A22D01978029A91420ED2491C197085
:100190001AE000202E2F1CD09049097800291CD18C
:1001A00017E0002A03D421460FE018700CE0002C61
:1001B000019D01D0611E08E02B78002B029A00D02F
:1001C0005A1E2A70009A0A7001462E2F04D101206F
:1001D0000C468149087000E00C4683480078401CBA
:1001E000C5B2854201D00020C5430CF095FC002823
:1001F00000D10546E8B23D2804D3012076490870B5
:10020000764908707848057078480670734D2878EC
:100210000028019B17D03846603805283CD938465D
:10022000423803284CD9212F00D171E02E2F3AD02B
:10023000812F64D08E2F68D0BF2F00D0A2E0002481
:100240001C702C709EE060480078002813D019784C
:10025000091A4AB20020002A00DC0146CAB2029DF7
:10026000AA4200D32946197057490870E0B2B0423B
:1002700000D33446594D18780028CCD05148007826
:100280000028C8D0241A60B2002800DC0024E0B2A4
:10029000B042C0D33446BEE778440079400087447A
:1002A00002711D262B5B0298FF286BD028784142F3
:1002B00041412970002865D147480121017061E062
:1002C000784400794000874401293545187802991F
:1002D000884257D02978002904D053E02878002894
:1002E00050D118780299884246D3002045E02878FA
:1002F000002847D1187817E0002E20D142E00020D6
:10030000287000980CF064F93CE08E200CF096FC0C
:10031000287800282CD00020287033E01878002896
:1003200030D0297800292DD1002801D0401E02901C
:10033000029822E0002E25D0E0B2B04222D02878E8
:1003400000281FD12A4900200870E1B2B14232D3FF
:10035000044617E0200615D0002E13D02878002878
:1003600010D123480021017020060AD0661E08E043
:1003700000200CF02DF905E0401C1870E0B2B042EE
:1003800000D33446114804700020124908702878C0
:10039000002801D0022100E00121094B154A11700B
:1003A00059884A1E91410028009A00D10A461248F5
:1003B000027003B0F0BD641CE4E7C046980400205E
:1003C000BA040020730D0020720D0020870D00205C
:1003D000710D0020B50D0020C70D00207A0D002002
:1003E000930D0020500D0020CC0D0020D40D0020D6
:1003F000C20D0020CF0D0020790D0020000C002040
:10040000FFFFFFFFFFFFFFFFFFFFFFFFFEFFFFFFFD
:10041000F0B595B0244902260E70244C07222146DF
:10042000059209F0C9FA0146214F3878401EC2B240
:1004300020461291FFF744FE1E4D2878411ECAB295
:100440000D2A0AD81C4BD340DA0706D048B28000E8
:100450001A4908580BF0D4FE28780D2801D900F06D
:10046000EEFE24781394400078448088400087444E
:100470000D00E6062B00FE004301E606E6065501E8
:100480005200E606E606E606F000EE020C480DF025
:1004900019FC0E203870601CC2B20A4807210CF00B
:1004A000A9FF00F0CCFEC046D30D00209F0D002018
:1004B000BE0D0020690D002031270000C8C10000DA
:1004C000B4EC000090C10000F9480DF0FBFB0620E1
:1004D0003870F84807780825F74928460DF0FAFBE8
:1004E00063426341F54EB07D4209F549284609F063
:1004F00039FE4001B17D1F220A401018B075F07D11
:100500000025012C00D0D8E240B224210CF06CFC74
:10051000F0753B46D2E2EB480DF0D4FB102038706A
:10052000E94800781190139840B20CF09BF9139BA6
:100530000D900022072A01D100F081FE0D9881184C
:10054000481CC0B214904000C9B21291994202D125
:100550000221F94C2170D94940181499102901D869
:10056000F64900E0F64945180E92D0000830109088
:100570000024032C6AD200201199A14201D0014627
:1005800001E0CC490978129A9A4200D00146CEB2D5
:10059000711E304688411499102955D87F21214079
:1005A000012921D000293CD140000F901098C6B2FB
:1005B000002738463146149A3B460DF07BFB2878DD
:1005C0008009022800D901270F9B3046F3493A469B
:1005D00009F0C8FD3F21002800D0C843139B2A78AA
:1005E0000A4002432A702FE028781099C9B2800689
:1005F0008216452033460AF0A3F8139B002E23D021
:1006000028781521C9438006801616220CF07EFC3E
:10061000139B3F2101402878C022024050182870C7
:1006200012E00127EA571098C1B2782033460DF046
:1006300069FB002E139B07D0E8577C21C9437D221C
:100640000CF064FC139B6870641C92E70E9A521CB9
:1006500070E7DD480DF036FB0A203870042C0E964A
:1006600000D93AE20CF0DEFB00252C4637E2D748F1
:100670000DF028FB11203870AF4803210170AC4801
:1006800000780D90139840B20CF0ECF8139B049096
:100690000F2B00D90FE35800CD4C205AC10B401846
:1006A00000B24010CB4942184E2000210DF0B7FB9C
:1006B000139BC9480078802800D00BE30D980028D0
:1006C00000D007E3052058437C49081857218900CA
:1006D000425C0499591A4900615A002A00D04942E3
:1006E000FF225E328154090A8018417002200BF00B
:1006F0009BFE0CF067F8ECE2B8480DF0E3FA052039
:100700003870B74800240470B64E35781398002826
:1007100001D100F0C4FC234600F0CAFCB2480DF041
:10072000D1FA0C2038708448032109910170804867
:1007300000781190139840B20CF094F808900024BF
:10074000072C01D100F07BFD5A4800781490E0009E
:100750000830C5B200274C22384629460DF046FB2A
:1007600008980019C6B2082E0F9401D8312100E074
:1007700038210818C2B2052029460DF037FB099828
:1007800070434E4909184B20C0000E9112900B5C2B
:1007900013988642149C00D03C46119E002E2046A1
:1007A00000D03846C0B200900F20109003400D20BA
:1007B00029468E4A0DF0C3F9022E204600D0384655
:1007C0000C90012E149400D03C460D9488480E9C49
:1007D00026181298205C109908400CF087FB02281C
:1007E0000A960B9016D0012820D0002100282ED187
:1007F0007756252F34DB7F4961560C9AD2B200928E
:1008000082220192253FFE223A407D31382A5DD076
:100810000B465DE07748225C0C98C3B25020294615
:1008200009F0CAFE32780D98C3B259E00020325662
:100830000D98C3B23620294609F082FF6D48225632
:100840000C98C3B24D20294609F07AFF4CE072564D
:10085000694900912021002A07910AD40D9F0AE0DE
:10086000644822560C98C3B2632029460DF04AFA18
:1008700033E00D9F0F43FBB2D109514048B2401CF9
:1008800082B2492029460DF0D5F95A482056002851
:1008900001D40C9902E00C99079A1143CBB2C1091B
:1008A000414048B2421C6B2029460DF02BFA1BE058
:1008B00014F70000CF0D0020C7EA0000EE0400206E
:1008C000D8F200005DF50000870D00200A234B439D
:1008D0007AB26420294606F015FF0D9F3278FBB2EC
:1008E0003620294609F068FE11981499129AA61824
:1008F0000328084600D0002031780A09082A00D9C8
:10090000521CC3B26820294609F01AFF3B48007800
:10091000002800D198E01498000600D194E01198C6
:10092000032800D990E003A1085C40008744C0463A
:10093000870D00200A212F40B50D00207B0200000A
:10094000DF0200003078109D28400E210CF04CFA98
:1009500028403178F0220A40111831700CF0C6FAA4
:100960000B99814270D00020224960540A99087086
:100970006AE00B98032867D87844007940008744E0
:10098000013F014600210A9C60565E2245E00B981B
:10099000032859D802A1085C400087444DF50000A7
:1009A0000342484D134D60577C21C9437D2248E0E6
:1009B00030780009109C21460CF016FA317821405D
:1009C0000001081830703FE063F900001DF90000D5
:1009D00010040020DC050000C20D002087F8000094
:1009E000C50D0020BF0D0020CBF40000B2E80000D0
:1009F0005602000057020000FEF90000790D0020A9
:100A000000200A9C20561521C943162205E000202B
:100A10000A9C20563121C94363220CF077FA2070DA
:100A200012E0FC4D60571521C943162209E0F94D2B
:100A3000605700215E2204E0F64D60573121C94322
:100A400063220CF063FA60550F9C641C78E6F24850
:100A50000578F2480DF036F9139C0A2C00D99EE275
:100A60000CF0E0F9224610203870052C00D9E8E39C
:100A7000002A02D1EA480921017051425141E94856
:100A8000007800910821E84E0A2732463B4608F0DC
:100A9000EDFF13980128149501D000F048FC12983E
:100AA000602802D1B07A0DF077F9F05731210CF0BF
:100AB0009BF9B0722B4600F03CFC2B46C2B266207C
:100AC000102109F079FD307E1399022953D140B2EB
:100AD00064210CF089F930764EE005240125CE48DA
:100AE00007780826D14930460DF0F4F82A4631320D
:100AF0001E20109631460DF079F913981494844213
:100B000011973B4600D0002305206843C84A115C7A
:100B1000141801201290205600930002421847201A
:100B200010990CF0B2FB1399149D8D420E9E16D1B4
:100B3000C0483C2202703B20C143002528460CF0EF
:100B4000E5F92178627812025118081801B20029DB
:100B500000DC28462070000A60701399149D681C00
:100B600088423DD10220205613210CF03DF9139903
:100B7000A070012235E02F46C2B2542018213B4616
:100B80000BF08AFF139DE81E42424241B07D4007B0
:100B9000C00F2021A84CA047C007400FB17DFB2209
:100BA0000A401018B075281F424242410807C00F82
:100BB0002821A047C007000FB17DF7220A40101876
:100BC000B075681F42424241C806C00F3021A0479D
:100BD000C007C00EB17DEF220A401018B0752EE399
:100BE00000220529129B00D381233C20102109F00B
:100BF00039F9032728463043002213998842119B74
:100C000000D013461092E257002B304600D03846F1
:100C10000F9700905A2018210CF086FDE070139D6C
:100C2000149F781BC01C43424341227920208349F2
:100C300009F098FA2071381DA842119B109A00D033
:100C40001346002B0F9800D00646774C052D02D393
:100C50003720000100E07A482518AA5600964F2058
:100C600028210CF061FD724F7A7976496254FA7846
:100C7000754BE254FA79754BE2543A7A744BE2546C
:100C8000744AA35C7F261E407B7ADB01F318A354D1
:100C900028707878A073387860736018B9794170DB
:100CA000B878E072387912990840217BFE220A4018
:100CB00010182073C3E26848007880280AD1102BEE
:100CC00008D166481921017080200BF0B7FF08F0A9
:100CD000D9F9139B7C200390C0430C900026324628
:100CE000072E00D14AE104983218D4B2F0000890DF
:100CF0000830102C00D142E111966100584B595A2E
:100D00000B91052110946143474B5C1857218900D2
:100D10000991675CFF210A915E31655C61180E9153
:100D20004E78C1B21292501CC2B200200F911490A2
:100D300003460CF0BFFF30024019002F00D14042A3
:100D40000B9943187F217E22002F0846119E00D068
:100D500010461BB20C9D4B35AB4200DB2D20002F03
:100D600000D00A46322B109F00DC02464B200F9920
:100D70000DF03CF82C48817D0220084001D00399F9
:100D800000E06321C9430791139B129A002801D008
:100D90007D2000E0642006900598089901430891A1
:100DA000AD20400020180B900A985C3020180A9063
:100DB000099820180990149C042C00D3DCE00D98AD
:100DC0006040394659400143149401D0002401E0A9
:100DD00011480478E5B268426841224909784E42D8
:100DE0004E41064302D100201F4908702B2000010C
:100DF0000D49085C002700283CD001210E9A51566D
:100E0000090212788A1891B2002933D082422DDD6E
:100E100007462FE057020000CF0D0020A7F8000082
:100E2000B50D0020870D0020EE040020DDEE00004F
:100E3000460D0020C60D0020D9CC0000C0F20000F5
:100E40006F030000AB0200007B020000AD02000057
:100E5000AE02000071030000C20D0020750D0020DD
:100E600010040020790D0020C50D00204742BA4231
:100E700000DB0F4638B20A210CF01AFC7F21149ACD
:100E80001140022923D0012949D0002964D101252C
:100E90000E99485700020978421820200443E3B213
:100EA0002D200F990CF02EFF002E119E109F5ED169
:100EB0000E9C60570002217840187D21CA00022351
:100EC000F64906F0C3FE2070000A60704FE00A99F0
:100ED0000978643149B2401801B27D2900DB7D20D8
:100EE00002B266200F992B460CF00CFF380406D096
:100EF0000898C1B23220382209230BF0D5FE002E0B
:100F0000119E109F33D10A9C20781821C943643068
:100F100040B2069A0BF0FAFF6438207027E00B9974
:100F2000097864394CB2001901B20C9A914200DC84
:100F3000104602B248200F992B460CF0E3FE002E1B
:100F4000119E109F13D11922204607990BF0DEFF46
:100F500064300B9908700AE0099C20780F992A46A2
:100F60000BF0BAFE411E88412070119E109F149C08
:100F7000641C139B129A1FE7761CB1E63820D1B28D
:100F800010290BD110214B40C549097819434B4218
:100F90004B41C1B21220C34A0CF0FCFB4FE1149547
:100FA0001020119038700827BF4938460CF092FE87
:100FB00020460B3843424341BC4EB27CBC493846C4
:100FC00009F0D0F8B07400250C2C00D01495149BB7
:100FD000581E1946814114203256009166201199FD
:100FE0000CF0A2FB307520460D3842424241707C25
:100FF0000007C00F18210CF031FEC007000F717CF4
:10100000F7220A401018707420460E3842424241BE
:10101000307B8007C00F20210CF020FEC007800F1E
:10102000317BFD220A4010183073FF2040001490DD
:1010300001242F46072F00D101E1737D2340581E64
:1010400083419C48C25D28463F30C0B2282107F04A
:1010500027FC13980F281CD1062097490870974841
:101060000078874215D128463E30C0B22721082299
:1010700009230BF019FE12982E2801D0202808D140
:10108000707D6040707502200BF0CEF90020FC49A5
:101090000870640014980440ED1D7F1CCAE768B214
:1010A000032200210B460CF0B0FE054630700123F0
:1010B000681CC2B208262046314609F07DFAEDB21E
:1010C00028460AF0F5FF034600942A20EF4A3146ED
:1010D00014930CF034FDEE490E9630460CF0FAFDF8
:1010E0006800EC490E5E28460BF06AFE012300946E
:1010F0000193652E194600DB21467C22D24319322A
:10110000964210931E46139B00DB4E00002800D031
:101110002646701E11908641581E45424541304674
:1011200028401821DC4F0A460F91149BB8470094C1
:1011300001941199481E814111910D403021129165
:1011400028460F9A149BB847109F00970197139851
:10115000801E454245412E4028220D9230460F996F
:10116000149BCD4EB0470097019411980540284636
:1011700012990D9A149BB04700940194139FF91E85
:10118000484248411E2563232946129AB0470094DD
:101190000194391F48424841382262232946B0470A
:1011A000B94E30780BF00CFE5C250028284600D0A4
:1011B0003C204022214609F0BBFBB8481099017041
:1011C000284608F0A1FE30784100B24A555E192742
:1011D000394669430A0E8E18294608F0D9FA149048
:1011E0003212722012990CF01AFE149E7743380EB8
:1011F0003818021254200E990CF011FE6801FF21DC
:101200004900891C4018820D8018870A38465C30D6
:10121000C0B2720151188A0D89188E0A1D21891BCE
:10122000C9B207252A4609F083FB5937F8B22021B5
:10123000891BC9B22A460CF0D4FD9848047015B039
:10124000F0BD08249849204615460CF043FDA81F20
:10125000424242418B4DA87D8007C00F21460CF0D1
:10126000FDFCC007810FAA7DFD2313405918A97505
:10127000002825D1AD2040002818D5214900691843
:1012800088421DD200214256002A00D50170012259
:101290008256012A00DB4170401DEEE718FCFFFF7B
:1012A000750D0020BAF40000BBED0000EE04002034
:1012B000E9F00000F7F80000B50D0020870D0020D0
:1012C0001398C01F43424341754FE85D8006C40F29
:1012D00010207649224608F045FFC107890EEA5DD5
:1012E00020239A435118E95501263040A04202D0EC
:1012F0000AF0FCFAE95D1398083842424241480678
:10130000C40F182120460CF0A9FCC107490EEA5D64
:10131000BF2313405918E9553040A04201D00AF0CC
:10132000E5FA0BF045FC002869D0812268E0B07A2C
:1013300000235F49009141218900C0B24218582022
:1013400010210CF077FC18205A490CF0C3FCFF2048
:101350004700012400251398082D14D05648305C0E
:101360002040411E8841009054484219062068439D
:101370004230C0B2182101230CF07DFA13986400AA
:101380003C406D1CE8E7022819D141201721382282
:1013900009230BF089FC13981299602901D02E299A
:1013A0000DD112980BF04AFC0CF033FB42497054FB
:1013B0003C480021017002200BF036F81398C01E43
:1013C00042424241364C305DC006C00F20252946BE
:1013D0000CF044FCC007C00E315DEF220A4010182B
:1013E0003055139804282FD12B2004013057642145
:1013F0000BF0FAFC30552021149D0D4327E080228C
:10140000602020210CF0F2FC139C20460938424257
:101410004241687C304028210CF020FC3040697C3F
:10142000FE220A40101868740A3C62426241C806F3
:10143000C00F30210CF012FCC007C00E697CEF22F7
:101440000A4010186874FAE62B200001305CC2B222
:10145000782028212B460CF055FC1398401F43425E
:1014600043419F208400305D42093020144908F038
:1014700079FE4001315D1F220A4010183055DEE62A
:101480007A0D0020EE040020BF0D002008F70000B8
:101490008CF10000980400201D9B00007F0D0020AF
:1014A000710300007A0D00205CEB00006DF5000078
:1014B000DCF4000086ED0000AF020000A1F70000A0
:0414C0003EF20000F8
:1014C400F0B58BB0224901260E7022490978C9076C
:1014D40001D0042200E003221F4C214608F06AFADE
:1014E40007461E4D2878401EC2B220463946FEF7F4
:1014F400E5FD1B4800780B2801D900F0FCFD01979D
:10150400029618490E7827780A9740007844808814
:10151400400087440B0029005B00AD00BE002A0197
:101524008101AA0186028E02AC02EF02F1480CF09E
:10153400C7FB0848007801220240D11C0A322A70F5
:10154400781CC2B2EC480BF053FF00F0D4FDC04647
:10155400D30D0020C30D0020AC0D0020BE0D0020D3
:10156400690D0020CF0D0020E4480CF0A9FB0620F3
:1015740028702E25E248425DE2480090002F06962E
:10158400344600D000247620082123460CF050FB7A
:10159400002CDB4E07D070570A212D220BF0B4FC2F
:1015A40070550BF0A9FC1020D7490CF091FB3125A4
:1015B400705D0024012F00D00AE340B21521C94315
:1015C40016220BF0A1FC7055069B02E30696CF4849
:1015D4000CF076FB062028700820CD490CF078FB2F
:1015E40039465C27C64DE85DC41D4026002906D156
:1015F4000698064360B207210BF0F4FB0446E2B2FE
:101604006620082133460CF07BFBE01FE8550A9E58
:10161400701E434243414324285D8006420F10203C
:10162400BC4908F09DFD4007800E295DC7220A4091
:1016340010182855B01E434243414F242A5D042A02
:1016440000D304221820B44908F08AFD0328069F19
:1016540000D907202855032E00D01AE34D2428571B
:10166400012164220BF050FC285540233B4313E333
:10167400AA480CF025FB062028700820A8490CF085
:1016840027FB002F00D1E1E32F209D49085C402374
:10169400E6E3A4480CF014FB06202870002F02D1C6
:1016A400A1480921017079427941A048007800914C
:1016B400934C2246513208210A2308F0D5F9781EAA
:1016C400434243414625605D4007C00F1021984ABC
:1016D4000CF0FBF9C007400F615DFB220A401018B3
:1016E4006055B81E43424341C806C00F1821914AB1
:1016F4000CF0C4FAC007C00E615D3A46EF273940CA
:1017040008186055D01E424242414C26A05DC006D6
:10171400C00F20210CF0A9FAC007C00EA15D39400A
:101724000818A0550A9F381F43424341605D800654
:10173400C00F2821804A0CF0A1FAC007800E615D19
:10174400DF220A4010186055781F43424341A05DD0
:10175400C0093021794A0CF0B8F9C001A15D7F229B
:101764000A401018A05500F0C6FC069674480CF008
:10177400A7FA09202870042F00D99EE20BF050FB31
:101784000825704928460CF0A3FA7A427A415D276D
:101794005B4CE05D0126304029460CF05DFA304098
:1017A400E15DFE22099211400818E0550A98401E96
:1017B400424242414627E55D3540102128460CF05F
:1017C4004BFA08963040E15D099A11400918E15539
:1017D400A84201D00AF088F80A98022801D0002013
:1017E400069049200990205C57490F5C0420574D0E
:1017F400C6B2002E00D18FE2062141435431C8B253
:101804000321394069184A781821069B07F046F8E5
:10181400701EF9B28F08EBE74D480CF051FA012025
:101824002870002525704B4C019E072D00D176E1D0
:10183400E8B20AF019FB0E21635E02B29A42014635
:1018440000DB1946E1811C23E35E9A4200DC184662
:10185400A083042D06D309B200B24018C10F40186A
:1018640040082080A41C6D1CDFE706963A480CF063
:1018740027FA062028702D48007807900AF0E8FE21
:10188400800700D56FE2082034490CF021FA1020BB
:1018940000231B4D042B00D190E20490C1B2581CCC
:1018A4000390C2B20026304609930891334608F0EB
:1018B40081FE099948002F183A37042E00D3ABE073
:1018C40000240A98814209D1032017490870079817
:1018D400B042234603D10223069C00E023467F2026
:1018E4003040032800D994E001A1085C40008744FB
:1018F40037446279CAEC000080C60000AFF80000EB
:10190400BA0B002015F8000030EA0000C0F6000011
:1019140004F0000081EE00001BED00002BF9000034
:10192400DEE90000A7F80000B50D0020870D0020B7
:101934008DF5000075F20000B5F70000E4F6000034
:1019440003F8000053EE0000A8F200007BF9000049
:10195400B4F60000520300209FF800001DF50000BB
:10196400787882090898EB4908F0FAFB80017978C5
:101974003F220A40101878704BE07878800685166C
:101984000D20684381B2890B4018821042200899C7
:1019940023460CF0B5F9A0073BD51E20C1431F22F6
:1019A40028460BF0B1FA3F2101407878C02202406A
:1019B400501878702DE03D7800940720059005407C
:1019C4002B46103348200899E94A0CF0B6F8A007D2
:1019D4001FD5032128460BF005FA059908403978EC
:1019E400F82213E000203856C5105A2008992A46D8
:1019F400234608F0A3FEA0070BD50E20C1430F22F7
:101A040028460BF081FAC000397807220A401018E2
:101A14003870761C099950E704980830039B0A9F94
:101A240037E7D4480CF04CF91020D3490CF050F9A6
:101A340061E3D2480CF044F90025E9B209297AD2CD
:101A4400E800032900D90838C4B26E1C72B22A20F7
:101A54000023214608F072FE0F35E8B208F022FD9B
:101A64000246442021460CF012F93546E5E7C44805
:101A74000CF026F902982870C24800250570202031
:101A840006430696C04FEEB2082E68D2E800C4B2F0
:101A94001820412221460CF0A7F928463130C2B261
:101AA4001E2021460CF0A0F930460AF0DDF902466A
:101AB4002A2021460BF09AFD032E04D830460BF061
:101AC40091F8401E02E0062E28460CD8C0B2400011
:101AD400385E19214143080E081802125A20214683
:101AE4000CF09BF904E05A202146069A0AF02CFED9
:101AF4006D1CC8E7A5480CF0E3F8029828707B42F7
:101B04007B414624A24D285D4006C00F0821A14A0E
:101B14000CF0B4F8C007400E295DBF2277E12A24F7
:101B2400202E9D4D285D9D49087000D1F0E1BF2E07
:101B340000D1F9E100E2102099490CF0C9F8002421
:101B4400E0B206281DD2E1003822551A08F0AAFC9A
:101B54000246E9B220200CF09AF8641CF0E78F48A2
:101B6400029901708F480078002800D1C3E2302424
:101B7400874D28577E21C9437F220BF0C5F928558C
:101B8400B9E254201821884A0CF042F90025EBB23E
:101B9400032B00D9AFE2E8002030C4B25420214620
:101BA400824A09F0C7FE6E00B01DC0B208F07AFC8C
:101BB40002466C2021460CF06AF8F01DC0B208F011
:101BC40071FC0246782021460CF061F86D1CDEE7BA
:101BD400234642B26020102108F0B0FDB81E4242F4
:101BE40042414C25705D4006C00F18210CF034F8BA
:101BF400C007400E715DBF220A40101870552025A1
:101C04000321E7B2022F31D23046002F01D05030E9
:101C140000E0483004780A988142089106D160B205
:101C240078210BF0DFF80446069B00E00023E6B2BF
:101C3400052272430995EDB2662029460AF02AFF6F
:101C4400002E04D07820732229460CF0CDF8002F02
:101C54004F4E304601D0503000E04830099D08997D
:101C640004707C1C0835481CC1B2CAE70A98401F9E
:101C7400424242414624305D0007C00F30210BF040
:101C8400EBFFC007000F315DF7220A4010183055F2
:101C940031E24D20285C4023C2B2662020210CF0A2
:101CA4002FF8042E00D098E04E24285705210BF07D
:101CB40099F8285540210F4392E0092F01D30827B2
:101CC40027700A973A4803210170314C5F34082188
:101CD40005260027042F00D10DE200200090CDB28C
:101CE400FBB21E2009912946324A0BF026FFF6B2B8
:101CF4000A98801B414241412F48007800910423F7
:101D04002946224607F0B0FE0999241D7F1C08319C
:101D1400761CDFE768F600000698002805D0099DC8
:101D2400605717210BF05EF8605500252F46042DEF
:101D340071D01826304678432430C0B2EBB220214B
:101D44001A4A09F0F7FD5E20205CE840C00707D07E
:101D54006E432436F0B22021122200230AF08AF9BD
:101D64007F1C6D1CE3E71820EF490BF0B1FFC2E1C3
:101D74008FE7000097F8000088EF0000B3F9000037
:101D8400E6F90000C50D002098040020FAF70000D1
:101D9400BA0B0020C7F8000052030020710D002088
:101DA4006CF100007A0D0020CFF800007CEA0000FE
:101DB400B50D0020E9F30000870D0020042F00D0AA
:101DC400D2E04A2428570921C94328220BF09CF861
:101DD40028552021069B0B43C9E04E20285C402750
:101DE400D9490091C2B2662028213B460BF020FF5E
:101DF400701F434243414624285D8007C00F3021B1
:101E0400D24A0BF062FEC007800F295DFD220A4012
:101E1400101828556FE10A98032800D0EBE0B84861
:101E24000078C00709D05E2560570F210AF0DAFF59
:101E34006055C4480078400605D423201F215C2245
:101E440009230AF02FFF4420205CECE02F24AF4D3F
:101E540028571E2178220BF057F828554023334386
:101E6400C2B2662008210AF05BFC4525A74C605DE0
:101E7400012F08D140B20921C9436E220BF044F866
:101E84006055334600E0002342B20A32702010212C
:101E94000BF036FFB81E424242414325605D0127E4
:101EA40038401821A54EB04733463840615DFE22C4
:101EB4000A40101860550A9EF01E424242418807AB
:101EC400C00F20211F469847C007800F615DFD2287
:101ED4000A4010186055301F424242414807C00F63
:101EE4002821B847C007400F615DFB220A40101843
:101EF4006055701F43424341C8093021904A0BF09A
:101F0400BDFEC001615D7F220A4010186055F2E0F9
:101F1400401C7C490855C1B203290DD117200AF091
:101F24006BFF01200AF07EFA764800210155182043
:101F34007C490BF0CDFEDCE0C0B20028F7D00228CB
:101F440000D190E0012800D0D3E00024724E734FFA
:101F5400072C00D1BAE0AE83EF81E0B209F084FF30
:101F64002880AD1C641CF3E74A20285C20236F49B9
:101F7400009140B20A3082B24E20302421460BF048
:101F840057FE32356A4E902C10D0287869780902B1
:101F940008183188081A400002B2E0B23821202320
:101FA4000BF0AEFEAD1CB61C1834ECE7052F52D175
:101FB40001986028029C4FD15D4908883222534C15
:101FC400A0545C4A002313703234CA88A2718B88EF
:101FD40023714988A170120AE2711A0A6271090A0E
:101FE400E170000A6070012420460AF01BFA1720F1
:101FF4000AF002FF30E044250428605D13D14D4906
:102004000978002979D040B203210AF0EBFE615D22
:10201400C2B202238A4207D060554C21625C7F25FC
:102024001540655400E000233130C2B2122028214B
:1020340006F034FC0024E0B203285CD8182565437C
:1020440024350AF0CFFD0246E8B22821002308F027
:10205400B1FA641CEFE7002400203821364A2346F5
:102064000BF096FB47E02848002101700D20C04387
:10207400264D00282DD023490A18135F1C26965F8D
:10208400F71AF9177F184F40332F1DD399B2B3B203
:10209400D689891B0AB2920E8A1812B29209891A39
:1020A4002A182B27D155D673370A1774F31A1EB280
:1020B400B60E9E1936B2B6099B1B5377090A16460B
:1020C4002B367170190A9177801CD2E710201449BD
:1020D40008E00AF06BFC2B2168542B35000A687069
:1020E40010200B490BF0F4FD12201821094A0BF0C3
:1020F4008FFE08F07DF80BB0F0BD089B94E7C04656
:10210400C30D002052030020C50D0020BA0B00208F
:10211400FBF3000043F4000068C50000983A000097
:1021240022F6000054F4000039F9000056F70000CC
:10213400780400207A0D0020E2F900006FDC000032
:1021440030F600008A0D002065F40000A8F60000B7
:10215400F0B59DB0029002200A46149002401392FA
:10216400202008400690012603913140129144201A
:10217400D449085C8006000ED34908181190092040
:10218400C043099000271BA81A90D04C10971797AA
:1021940016971596072F00D1C5E0FCB2204609F02A
:1021A40063FE00B21994214608F046FB0446032F4F
:1021B400384604D82009C649C8551198C05DC5B22F
:1021C4006B00C448C452200F201800B20009010655
:1021D40001D5404200E080B20006BF4988420CDCD1
:1021E400002802D0BD48007800E0FF200121A9406A
:1021F4000140C8B2169901431691032F29D81298A9
:10220400002818930DD1B148007B800709D5AD484B
:10221400C6183A20305C3A36717809020818810BE6
:102224003FD1179E0698002803D0AD48C018F82166
:10223400445221B2284607F0A9FA0446A948007876
:1022440019990BF065FD189B40001A9908801796A0
:10225400159E0698002803D0A148C018E0214452D6
:10226400032F01D8002000E00120139900293146F2
:1022740000D0014600290ED1022D0CD00A2C02DC1C
:102284000998844204DA9648C018E0210022425298
:102294001BA80021C1521A98801C1A907F1C8B4CD9
:1022A40078E7000200B2C0120BF08EFD00282DD09A
:1022B4008D480078002829D03078717809020918EF
:1022C40048070B460F91000F7E49091832228A5C99
:1022D4003231497809028918844A105A401A81B265
:1022E400C90B401800B24008990009B2890A414359
:1022F40008B21F210BF0DAF986000F98800B022830
:1023040007D00128189B06D1341904E0179E189BA6
:1023140088E73446189B022D00D0179E022D81D1E8
:10232400012010907EE7607CC0071AD06D480078C9
:1023340002210BF0EDFC04460AF038FC002800D022
:10234400644260B27D30E421654A515E012292020A
:10235400511A4143C817800D0818800A1BA98880A8
:102364005A4C0126B00205900698002800D1EDE0F1
:10237400647D1698044059480078FF2141400C427E
:1023840002D018200AF038FDF0205549059A0A5267
:10239400EE200A52514804704C48007E002830D088
:1023A400E2244F4A115F4943E627D25F524355184E
:1023B40040B20BF014FC03464043854221D91A97DE
:1023C400F00301468AB25243AA42024600D80022D0
:1023D4004A400004400C114601430028F2D1404F0A
:1023E400385F584395B229461F460BF05FF93C49C4
:1023F40008531A9C085F784329460BF057F938496B
:102404000853324CA37D202B00D29FE00020139967
:102414000029024601460AD1E621314D695A1BAC16
:10242400E2885218E221695A64886118274CE47DD5
:10243400002C0CD0601EC4B26000142C03D32C4CAE
:102444000019283802E0264C2018E0300088DC0609
:1024540000D540421C0700D552425C0700D54942D2
:102464005B09022B06D0032B29D0042B42D1831AFB
:10247400841862E00BB2DB0B9BB25C0B0C1924B228
:10248400E4086442A4B28DB264195D0A4D192DB2F8
:10249400ED096D42ADB264199B09C91809B2890AE4
:1024A400494289B2611893B2DB0BD3181BB25B08A3
:1024B4009BB284B2E418631A641811463DE04418D0
:1024C40039E0C046BA0B0020EDF40000EE04002011
:1024D400610D002098040020FFFFFF01900D0020F3
:1024E40008FCFF1FD90D00207E0D00207804002079
:1024F4003004002013B2DB0B9BB25C0B141924B222
:10250400E4086442A4B295B264195D0A55192DB267
:10251400ED096D42ADB264199B09D21812B2920A48
:10252400524292B2A2188BB2DB0BCB181BB25B08DF
:102534009BB284B2E418A31AA418F622FB4DAB5242
:10254400F422AC52401AF2216852F94CF949F6319E
:10255400179800B2002500918842304600DB2846D7
:10256400109909061599019100D001904020039912
:10257400014003911A34B0040D90032013904004D9
:102584000C90F0041090B0050790192008904005B5
:10259400E9492E460490102D00D1A0E300201190AB
:1025A40016952078401EA8421A9600D0ABE21498E3
:1025B40020560BF0F6FB1890F1B2DC481791451841
:1025C400C020285C1990C035139820560026159F0A
:1025D4003946324604F0BAFDE17800290ED00121D3
:1025E4004840D6490978002900D0074662780D3A58
:1025F400082A00D30746002F02D009E0002807D09C
:10260400617A1F200840CE4A1278D040C00728D0F3
:1026140060782E700146083902290FD26179A279B7
:1026240012025118E279120489180C9A11400D9A79
:10263400914212D1169DC0491A9EEBE12D28169D98
:102644001A9E08D117988000B8490818F849119AB9
:10265400514309120164B849DCE1092821D0374605
:1026640021E0199E70424641631C6278501EC0B23C
:102674000B280E93199619D84100AC4A5118E02240
:102684008F5A012603284ED86079A27912021018B5
:10269400E27912048018079A104244D0F8200F5AA5
:1026A40041E0A44FE237601C0E903CE0132811D89F
:1026B4000D3AD0B241000328DE48405A08D8DE4A19
:1026C400511832228A5C3231497809028918401A39
:1026D400470027E023280DD86179A2791202511806
:1026E400E279120489181438079A4000114217D06D
:1026F400D24916E0242809D149B2C8B2400900D110
:10270400DCE1002900D5E2E10E21E1E12B2800D92A
:10271400CDE1400086494018C9494056C70001E050
:10272400C8490F5A01262E706079A1790902081848
:10273400E17909044218631D10980242129315D1DD
:10274400207A00281A9E12D040B27C21C9437D22EF
:1027540009F058FC0BF043FA129BC7191878597802
:102764000902081899780904421800E01A9E100416
:1027740000D1C5E06E48407C00070F9201D51420BB
:1027840000E064200A90179A550068490B954E5B47
:1027940090000A18156C280A381A01B20A2902DCBA
:1027A4000998814206DA002E05D100260F9800060A
:1027B40004D100E000261998002824D00F980C9921
:1027C40008400D99884213D1207840009D49401853
:1027D4000121C943405E08998D0245431899002997
:1027E40006D0284615460AF061FF2A46129B054684
:1027F400280A381A010409D000B20028199009D413
:102804000F98000907E019910B9909E0002019902D
:102814000B9905E00F980B990F2606400A9846433A
:1028240042484018403231B201290BDB864909780D
:10283400002900D0761E310402D006802F0A2BE036
:10284400099E093619990680002925D0179518780C
:102854005978090208189978090445182804000EC3
:1028640018D07948007800281A9E17D00F9218992A
:102874000029049A104607D0C81109184140C9B26A
:1028840010460BF00BF8129B0B901998002807DCEC
:102894000C2106E038B205021A9E29E0179D19E0C2
:1028A40008210F9ACD400F20284007D002461999DD
:1028B400002906DC0B984042179D04E038B205025B
:1028C40008E0179D0B980A9951430AF0EFFE451949
:1028D400129B0F9A38B22912199F012F01DB8142F2
:1028E40004DC199F002F02D5814200DA05022F0A69
:1028F400156018785978090208189978090442185B
:1029040004202156100200121CD41A20C043814214
:1029140002DB1C2900DA80E07F20C043414038B24A
:102924000AF0E2FE129B0746169D2AE008FCFF1FF0
:10293400EE0400201EFBFFFFB4FDFF1F7E0D0020F0
:10294400D90D002008460BF02CFA01280BDB3AB213
:10295400002A08D56421081A424310460AF0A6FE4C
:102964000746169D0CE00028169D09D539B20129A9
:1029740006DBB9B26430484364210AF097FE074687
:10298400129B187859780902081899780904401894
:10299400C1030AD40E9909784A1E032A05D84900AE
:1029A4001BAA8918891E0988CF1939B2189F4F4369
:1029B4001099084216D0217A002913D048B27C21FC
:1029C400C9437D221D4609F01DFB0BF008F9642163
:1029D4004143CF192878697809020818A978169D07
:1029E40009044018C5494003800F02280DD001286E
:1029F4000DD1642138460AF059FEC049119A424368
:102A0400D017800D1018801203E0119702E011987E
:102A140038181190761C0A34C3E506291BD8169D74
:102A24007944097949008F44111224282D343A003D
:102A34008F02000078040020BA0B0020100400204C
:102A44006D0200003004002045FEFF1F99E738B2F4
:102A5400002896DC1BE00029169D00D57F42002942
:102A640001D50620411A38B2C91FC9B20AF04DFC7B
:102A740085E738B2C013074083E738B2C0133F1864
:102A840047407EE738B20028059F00DD79E700273C
:102A940077E79848E23039B2CF13074071E738B28C
:102AA4000028059F00DD6CE7924FE23769E72C2888
:102AB40018D1642111980AF0F9FD19E0122007F0E9
:102AC400F1FC0126002815D08A4FE2372BE61121AC
:102AD400081807F0E7FC0028059F00D022E6854F80
:102AE400E2371FE62E3AD0B200210A4606F09EFBDA
:102AF400074617E6132007F0D5FC002801D1059FEF
:102B040011E600270FE600227B481792027008782E
:102B140000281ED00F466426119831460AF0C6FDDF
:102B240001467248007840003818C0884843A9001C
:102B34007918069A002A01D10A6980180861039954
:102B4400002900D1C7E06D4989880AF0AFFD4643EA
:102B540000E0119E642130460AF0A8FD6A00644931
:102B640018928852052068435F4D2918AD20400013
:102B7400199111900B18D97804200E901A5612024C
:102B840052182B210901695C4D42AA4200DB15460B
:102B94008A4200DC294601200F901B560A256B430C
:102BA400059FFB185B18183B18B2E237B84200DBEC
:102BB4003B4618B21290824200DC13461998119ACF
:102BC400805645434B4A50194518FA3528B290426D
:102BD400179F00DC474D18B229B21191884200DBDF
:102BE4001D46002E0CD0002E02D41298401B01E08A
:102BF4001198281A00B2704341490AF057FD07465C
:102C040028B2404DA847C61937B21298A8470546BE
:102C1400874200DC35462FB211983A498847064668
:102C2400874200DB2E46572080001999085C002853
:102C340000D07642169B9F2080002B4A105C1F21F7
:102C440001401020401AC0B283423CD21898151893
:102C54002D4AA85C8000010635D0AF1840B2801020
:102C64000BF0B2F839788A090146032A24D30028E4
:102C740017D11C4A0E9BD25E1B4B244FDB5D9B0677
:102C840004D4009B9A4207DB159A08E0D313D218A8
:102C94005A4012B2142AF7DA019A0F9B5A40002ABA
:102CA40003D1012250401A4A1070194800780028B4
:102CB40000D10F9910480170002904D015482856F6
:102CC4000AF08DFF06460BF0BBF80298189946529D
:102CD4000BF0B4F8169D6D1C08491A9E5BE41DB0F8
:102CE400F0BDC04698040020EE040020D90D002059
:102CF400300400201EFBFFFFC10D0020B4FDFF1FA8
:102D0400A0860100E5DC00007D02000071030000E4
:082D14009A0D00207E02000070
:102D1C00F0B585B0F34800250570F348078808F036
:102D2C0045FAF2480168F24A12680260501AF14CF6
:102D3C002070F14E3078002803D1F048002105F0C6
:102D4C0043F82078002800D1B9E2FC48017800292A
:102D5C0001D0491E01700AF077FEF9498A88904229
:102D6C002DD14520F74A105C0A3002062CD0F64AC9
:102D7C001278322A28D30A78521C0A70D2B2102A3E
:102D8C0022D300220A704A88521C4A80FF217831D3
:102D9C00C0B2484380B291B2884215D21F20024083
:102DAC00012A11D1E9480178FD220A40027006205F
:102DBC0009F0CEFF10202D2109F0E6FE04E04D8035
:102DCC008880E3480121017002F026FD09F0CEFE57
:102DDC00E0480178002901D0491E0170284605F011
:102DEC0067F909F0BFFFDC480478057030780028DB
:102DFC00039501D00294FAE101970F202040801F27
:102E0C00D6498F7C042F03D0032F02D1042700E076
:102E1C0008277C21C9430491C0B2072804D8F021AB
:102E2C002140202900D088E04020204340281CD19C
:102E3C0027460020C543CA4C2078411CC8B28842A2
:102E4C002E4600D1064609F061FE002800D1064648
:102E5C00F0B2C82800D035462570C82802D0039D92
:102E6C003C4602E04220C443039D0C20BD490A5E4F
:102E7C00BD48415F891ACB0EC9184909090493B2A0
:102E8C00294606D003800421415E891ACA0F89188D
:102E9C0049108380B54A1278002A00D02946462270
:102EAC00A84EB25C920600D529464180B04F787985
:102EBC007978091ACAB2D2098918FE220A40101868
:102ECC00787148B2401038722043C0B208F02CFA26
:102EDC00A84800788000A84909585C20305CC01DC7
:102EEC00A64A914200D0A9E0A54909780029049B83
:102EFC0000D0A4E0397A00290CD000223A720622C4
:102F0C00BA5649B25118994200DC19467D2900DBAA
:102F1C007D21B9719F218900904A525C510900D1E1
:102F2C008DE050B200287DD448008E494018C088EE
:102F3C0001218A028018C9027BE04421814E715C18
:102F4C008900904A51184008085C5D21715CC907E2
:102F5C0001D00321081AC5B28B48007829460AF023
:102F6C0020FB009029460AF0CFFE002F08D1C11398
:102F7C0042184A4011B2890F511889B289084F1C66
:102F8C00022D10D14621715C804A744B9A5C9209D7
:102F9C004A40D2075B7C0121194000D00227002A4D
:102FAC0002D07F4200E000212E46E2077AB2029462
:102FBC0000D15242121893B25C1EA34114464440F5
:102FCC0024B2049D7C35AC4201DC002400E00124D9
:102FDC0023400B430FD100280DD000270098314619
:102FEC003A4608F07FF8029809F022FE162009F004
:102FFC00FFFE3C461CE717B238467C3080B2F828FE
:10300C007ED8009831463A4608F06CF878B2C01178
:10301C0039184140C8B281083C31152009F010FF25
:10302C00002405E748004D494018594940567D3069
:10303C00FA2182B2072050430AF02CFC049B029424
:10304C0054490978C0B2884202D009F081FE049B31
:10305C004C203056504C002826D52078002823D000
:10306C004E48007800283D4A00D19DE000244C4D8C
:10307C002857002801D4401C2870022008F082F93F
:10308C007F260146314014D02A788A4225D92C70EB
:10309C0002990906FA4A049BFC4C00D084E040B229
:1030AC00002849DA63207EE0F94800210170F44AD7
:1030BC007AE0032008F066F906400ED02978B14278
:1030CC00EF4A049B0BD92C7002990906EF4C6BD17B
:1030DC0040B2002866DA642065E0E94A049BEB4CB8
:1030EC0062E0C046DA0D0020D20400206CFFFF1F06
:1030FC0060FFFF1F45FEFF1FDB0D002010040020AA
:10310C00002F049A00DD7D220098314607F0EAFF7B
:10311C0038467D3080B20024FA2800D988E678B28F
:10312C00C01139184140C8B280083C21081AC1B2FC
:10313C00152009F085FE7BE6622034E0750D002039
:10314C00CC040020BA0B0020860D0020C30D0020FB
:10315C006E0D00207E0D0020780D0020EE04002066
:10316C00B80D002098040020BA040020710D002036
:10317C00500D0020880D0020E0FEFF1FFD340000E4
:10318C00650D0020EDF40000D90D00207103000046
:10319C00B5020000D80D0020C50D0020C40D002084
:1031AC00950D00206520029001202070BF79002031
:1031BC00C14CC5B2062D18D8680016185720C0008F
:1031CC00305C00280FD00528394604D007F098FC55
:1031DC00049BAB4A014648B2984200DC18467D2855
:1031EC0000DB7D203055681CE3E7019F039DA94C53
:1031FC00206800280DD00025294608F067F80AF051
:10320C00BEFDA5490A78012A1CD100281ED12560D3
:10321C001CE0A1480570A1480478002C04D005706E
:10322C00172009F0E5FD02949D48029A02709D4812
:10323C001421017093480078800093490958D0B24A
:10324C00884703E0002801D00120087007F012F82D
:10325C00954800781F21014002292DD1934805780B
:10326C00103505700E209249085E410F411809B2C5
:10327C00C9083022804CA2564A430001101880B273
:10328C00A52149000AF006FB7C490A781018401C5D
:10329C004008087029060FD12F21615CC0B2814211
:1032AC000AD911202E2109F06FFC4620205C000762
:1032BC0002D58048322101806E48039901707F4805
:1032CC000178032901D10021017069480088C01BD5
:1032DC0082B27B490B889A4200D90880794EF078EB
:1032EC00002800D1B7E078480188491C01800020F3
:1032FC00634DC7B20B2F00D987E0032318467843E0
:10330C002C184B20C00021180391744961180291AC
:10331C00215C0F22084604921040714A1018401E7E
:10332C0000780328019307D178006E4A125E002AB8
:10333C0004D00CD4561E1DE0049A2CE00022029BF3
:10334C009E56002E16DBF2430A26564312E092B22A
:10335C00561CB2B2B2420DD003227A43AA18624B69
:10336C00D256002A05D4521C52B20A2353435E1E75
:10337C0000E0D6435B4A151808090AD0082800D982
:10338C00401C0AF01DFD002801D1504E7C360398DC
:10339C000178049A2E8011400C295448C55D08D13F
:1033AC000026029880570AF00BFD002803D0012656
:1033BC000CE02E460BE003207843314908184A49AB
:1033CC0040560AF0FDFC002800D12E46049A0398C2
:1033DC00007810400D282A4D13D100200299085670
:1033EC000AF0EEFC00280AD0B0070AD43E4820565A
:1033FC000AF0E6FC0028019E03D1022601E0FD2024
:10340C0006403A48C655781C73E709F02FFB002498
:10341C002C4EF4702F462E4D785D00281BD02D4875
:10342C0038560AF0CDFC00280AD0785D811E04299C
:10343C0009D2C8B200210A4605F0F4FE044606E0A3
:10344C000020014605E0012801D12348C46D20B2BB
:10345C00012105F0B1FA7078002807D000207070B7
:10346C000B480178002901D0491E017005B0F0BD50
:10347C00D20400206E0D0020BA0B0020860D002017
:10348C00EE040020880D0020E0FEFF1FC50D00207B
:10349C00C40D002090FFFF1F960D0020D00D0020C2
:1034AC00C20D0020C60D00208A0D0020970D0020B3
:1034BC0068040020D6040020B7020000850D00200F
:1034CC00D4040020EA0D0020E004002083FF00005B
:1034DC00ED020000EE02000008FDFF1F5602000086
:1034EC009CF5000050040020570200003A0D00200B
:1034FC00F0B587B0F24900230B70F24CE17C7022DE
:10350C000F46059217400F220D4606921540EE4AC3
:10351C001278002A04933AD003971420EB4F3856B4
:10352C000AF04EFC0446EA4E002804D030780028FD
:10353C0001D105F0A1FD3470E8B2042811D111209D
:10354C0000900025E14C0A232846294622460AF021
:10355C008CF9DC480078EE490978814243D328463F
:10356C0042E00390D7480478E94805780A26782E7B
:10357C0008D03A78F0B20021042305F08BF97F1CB7
:10358C000B36F4E7A54200D2A9E08422A8E002465B
:10359C00803A0E2A00D88FE10246203A0E2A00D932
:1035AC0013E252007A449288520097440F000E00A6
:1035BC00CB02CF02D302E4020E000E000E000E006E
:1035CC000E000E000E000E000F00A5E7042DA3D177
:1035DC000024BD4A54700121117009F029FBCD481B
:1035EC000470042598E70120039E420054202946CC
:1035FC0009F0A6F86F2029462A462B4609F0FCFA5A
:10360C00382008F04FF8302E00D195E1202E00D153
:10361C0095E1102E00D0A1E11825284607F0EAFF0D
:10362C000826BD4930460AF04FFBBC48205C401EC2
:10363C00C0B207F02BFA15214901625C6118012315
:10364C00C95609028918B64AA75CA218D2561202AA
:10365C00D2199042134600DC034618B28842084641
:10366C0000DB184600B2431A64205843511A0AF082
:10367C0019F80746C0B200901920092150220623E0
:10368C00069309F046FF3AB2792031460AF0C1FBA5
:10369C00F7480078252231460AF0A2FB2826F74984
:1036AC0030460AF011FBF648425F0527C42400940B
:1036BC000197122020252946069B07F06FF9402020
:1036CC00F54A31460AF0A0FB1C20ED490A5E009435
:1036DC00019752200723294607F060F9A1E18622C1
:1036EC0025201025294609F02BF8262018265622CD
:1036FC0031460AF075FB5D200027042329463A4623
:10370C0009F07AFA332031463A463B4606F0A4FBE0
:10371C0008F0BEFD00280CD00246262510212846B4
:10372C0009F02EF925200F2109232A4609F0B6FAB3
:10373C0077E06648837C0020009026201021D74A31
:10374C000AF0F7F96DE0304609F048FA0546D4481E
:10375C00007831460AF0D8FAC1138A0F821812B2D7
:10376C009410002801DC204600E00120220600D144
:10377C00441861B21B20C043814200DC044660B295
:10378C001C2800DB1C247F203840C6494919491EDF
:10379C000D7801280BD0022821D10421362228468D
:1037AC0007F0C0F84948407CC00705D014E004215C
:1037BC003622284607F0B6F8681EC0B21E260697B9
:1037CC00032731463A4607F0ADF8681CC0B23146C3
:1037DC003A46069F07F0A6F81F20011B18E0284662
:1037EC001B38C0B23B2105913622AF4B9847681E5F
:1037FC000697C7B23A21032638463246AA4B984759
:10380C003C213846069F3246A74B984705996519C7
:10381C00E81EC0B2C91EC9B20722134609F09EFEAB
:10382C007F1CFEB2032E8ED9039E012E38D80024A5
:10383C00F74D082C00D1F4E02A88012E05D0002E7B
:10384C002BD1042C05D3302104E0042C1CD35E2096
:10385C001BE0282110B2C00B80B2C30AD3181BB2D4
:10386C005B09D31A400A101800B2C009181802B22A
:10387C000320204036234343123358081830C0B27B
:10388C0020230AF039FA08E02220032323400521E3
:10389C005943263112B206F079FDAD1C641CC8E701
:1038AC00022E7ED106F0A0FCD048057806246C438D
:1038BC00002D7DD128467CE0910006A251588F4600
:1038CC00C50D0020E90B0020650D0020EE04002042
:1038DC00980D002033390000FB3A0000073B000034
:1038EC001B3B0000293B00003D3B00003139000030
:1038FC003139000031390000313900003139000014
:10390C003139000031390000313900003339000001
:10391C00860D0020C20D0020B8F900009F020000A7
:10392C00A2020000F8E50024AE4A54700221117086
:10393C0009F07EF9B3485AE01020B64905E0B948C1
:10394C00007800286DD01020B749B34CA047182040
:10395C00B249A0472020B249A04762E03F2008218D
:10396C00302206F0DFFF0520C543002D59D0601929
:10397C00AF49405C002812D0AF1D461EF0B207F0D4
:10398C0085F803460420009006980190F9000598EC
:10399C0001401031F807400E72B203F0ADFE6D1C01
:1039AC00E3E73C2028210122042309F025F938E023
:1039BC00E01CC1B20A2008F013FF002D19D0A01D85
:1039CC00C1B2642008F00CFF2BE0612800D1E4E0C8
:1039DC00BF2800D0A0E50124834E2046B047032029
:1039EC00B0470220B0478148002101708048047024
:1039FC0092E564242826844A204631460AF004FACB
:103A0C00722507222846314609F02DFE30267F4AC2
:103A1C00204631460AF0F8F904222846314609F0CE
:103A2C0022FE704C207800285FD0012807D18148F5
:103A3C0003210E2204F08CFE0522049B06E07E4836
:103A4C001F210E2204F084FE049B1A467B498B70C6
:103A5C0001284AD1A0788018C0B2062845D8C046A3
:103A6C007844007940008744050D212C30343A000D
:103A7C00CD0D0020624808F0BDFB36E0EEF90000E9
:103A8C0008FDFF1F7248002101705B480121017085
:103A9C00704808F0AFFB28E0EAF9000098F4000049
:103AAC00D90D0020D6F90000E3DD0000012088705C
:103ABC0065480078800065494018406808F09AFB1A
:103ACC0013E04E4808F096FB0FE04A4808F092FBD2
:103ADC000BE090205549085A40425A4904E08C208A
:103AEC005249085A40425649088007B0F0BD09F0C7
:103AFC0089F90AF07FF9172063E004200743E77483
:103B0C00172009F075F9822009F092F8EDE7394891
:103B1C0008F070FB832009F08BF8E6E736480121AA
:103B2C000170374808F066FB842009F081F8F3E453
:103B3C00314801210170314808F05CFB852009F007
:103B4C0077F8E9E4002D2BD06D1E2AE0032D30D838
:103B5C006D1C2FE006980140042938D0022900D0B2
:103B6C00DAE422480178491C4AB2022A00DD00211D
:103B7C0001700225D0E406980140042924D00229C2
:103B8C0000D0C9E419480178491E4AB20225002A1E
:103B9C002A4600D40A460270BEE4042D1DD0BBE4B4
:103BAC00042528463843E074A12008F037FC142083
:103BBC0007E0002528463843E074A12008F02EFCCD
:103BCC00132009F015F9A7E43846303001E03846E7
:103BDC00103030210140081DE074172009F008F95D
:103BEC00042599E4650D00203DCC0000B60D0020A5
:103BFC00980D002011960000710D0020C5140000D6
:103C0C00A9510000C20D002016FA000013FA0000A2
:103C1C001004002076F40000D5DC0000B0F30000A6
:103C2C0061F70000EF0D002087F4000008FDFF1F76
:103C3C00B702000074F30000A7EC0000690D00202F
:103C4C00E8040020EC040020880D0020E0FEFF1F9B
:083C5C00C70D00201104000057
:103C6400F0B58FB004463148007809F055F905469F
:103C74002F4F0E22384607942146FCF71FFA2D4891
:103C84000AF01EF82A78801DC0B20024214623467B
:103C94000AF00EF83F57384608F0E2FD0690264831
:103CA400027808202549029009F034FE2B46F8B228
:103CB4000890E0430390691D0D950591E0B2072833
:103CC40000D31DE206982018C0B2089981420C94D2
:103CD40001D0002601E01A490E780E2800D90CE222
:103CE4000C99CD002C460834810001A251588F460E
:103CF400493D0000693D00007D3D0000913D00000C
:103D0400AB3D0000C53D0000E73D00001F3E000044
:103D14007D3E00009B3E00002F3F00005F3F0000FF
:103D24007F3F00009F3F0000C13F0000BB0D00200B
:103D3400AA0D0020D3F70000740D002035E8000020
:103D4400CF0D00205D78E1B21C46F3B25420224628
:103D540007F080FC252D00D043E1607A4509253524
:103D6400234642E102201A56E1B2F3B2602009F080
:103D74002BFF0D9B9870C0E102981A56E1B2F3B282
:103D8400602009F021FF0D9B1872B6E1059DA8780B
:103D9400E1B2F2B20007C00F09F05EFF0D9BC0074D
:103DA400000BF721D1E0059DA8784006C00F597893
:103DB400042900D929E1E1B2F2B209F056FF29E160
:103DC400059DA97801200840E1B2F2B209F04DFF47
:103DD4000D9B7F214904AA7812040A40C007C00B36
:103DE400B7E0059A10785178090208189178090407
:103DF4004018C50D000200120399884200DC1CE142
:103E0400042018561A21C943884203DB1B28C54ADB
:103E140000DA13E10225C44A10E1059A10785178BA
:103E2400090208180221515609044018042503996F
:103E340088425F5700DC1FE11A20C043874202DB3F
:103E44001C2F00DA26E17F20C04347404020304346
:103E5400C3B2E1B266203A4609F052FF300606D0FA
:103E64006320C1436422384609F04EF807460D9B8F
:103E740080207840187140E1F3B2581E1946814100
:103E840003200D9A12560091E1B24E2009F04AFC2B
:103E94000D9BD87031E130060A9002D004209B4972
:103EA4000870072009900543049500260121F7B204
:103EB400042F00D921E1587A0E9108401F210B915B
:103EC400084043424341099D754328463F30C0B2F0
:103ED400E1B232463032D2B204F0E0FC0A98002853
:103EE4001DD08B480078B84219D10498C1B23E3530
:103EF400E8B20822092308F0D5FE07982E2801D03D
:103F040020280CD10E980B9A02400D99487A504003
:103F14004872022008F086FA00207E490870761C58
:103F24000E980006C10D0D9BC1E70899081A43427B
:103F34004341059DA978E0B249078A0F724906F00A
:103F44000FF90D9B8007400BF9210904AA7812048C
:103F54000A408018000CA870CFE0059F3A780F251E
:103F64002A40E0B2F1B207F043FF0D9B28403978B4
:103F7400F0220A4010183870BFE0059D2A78E0B29C
:103F8400F1B21206120F07F033FF0D9B00012978DE
:103F94000F220A4010182870AFE0059D6A78E0B23D
:103FA400F1B21206120F07F023FF0D9B000369788C
:103FB4000907090D4018000A68709EE0059F7A7889
:103FC4000F252A40E0B2F1B207F012FF0D9B29033E
:103FD4007A7812020A400007000D8018000A7870EF
:103FE4008BE0252D00D9AD1D0D9B300600D184E05A
:103FF40068B20121372208F087FF0D9BC1B2252941
:104004007AD32C2970D3801F76E0E1B2F3B2474A09
:1040140009F05BFD29786A7812025118AA78120413
:104024008918384A114029700A0A6A70C007400A80
:104034000843000CA8700D9B5FE0394AE1B2F4B26A
:104044000620234609F0A4FB002C0D9B55D0022129
:10405400284608F0C7FE0D9B85424ED0811E4A4279
:104064004A41D1011971C005059A91784906490A56
:104074000818000C907040E06420F1B200900191A7
:10408400E1B26320C34348203A4606F03DF90D9B54
:10409400187132E0E1B2F4B20C203A46234607F03C
:1040A40095FF0D9B002C28D058570F21C943162289
:1040B40008F02AFF0D9B1871079960291DD1072864
:1040C40007DBC01F14490870144808F097F80D9BCB
:1040D400187941B2002910D5C0430F4908700F4820
:1040E40008F08CF80D9B08E0597A1F220A40400121
:1040F400801860305872252058700C9C641CDDE5D3
:104104000FB0F0BDFFFFBF0022F20000B50D00208C
:10411400870D00207A0D0020BD0D0020758300005E
:104124008DF9000075F9000093F90000C9F500004D
:10413400F0B58BB00546E14809F0C2FDE04C2078AB
:1041440000281BD0DF4A117A002010724AB2012ADB
:1041540001DB622200E06322002900D01546DA491F
:104164000978002901D1632D05D0D84A125691420D
:1041740002D1622D00D10546D5480570D548007896
:10418400002805D1D1480278CF482946FBF796FF8D
:10419400CF4E3078CC4909780691012103912E281D
:1041A40003D0BF280AD060280AD1C5490A78002A5A
:1041B40040D0F948002202700A70F84C00202070A8
:1041C4000295069840B208F04BFB0146F848007887
:1041D400002801D000203070F148007800280791B1
:1041E40040D0F2480778622F01D0632F3AD13E467F
:1041F400623E701E34468441EF480578284608F034
:104204008BFE002D0AD1002C08D00178022901D39D
:10421400491E0170022008F005F923E0202D21D861
:1042240001D1622F1ED00021622F0A9107460BD0C4
:10423400C8430AE0DE4909780029C1D108F0FCFC32
:10424400002003903446B9E701202D18E8B208F0A5
:1042540063FE3978002905D0102903D80278102A82
:1042640000D875E1012000263546C1B2102900D9D5
:1042740009E10A910890F0B2099008F04DFE079BFD
:104284000446EFB29F420BD3F81A062808DCC0009C
:104294000830C1B2012000230A9A09F009FD079BE6
:1042A40009981F2800D9C4E020780A99884200D0D0
:1042B400BFE0BC4A0F46E8B2984200D2AFE0C11A50
:1042C400062914DCCF00B64909780022002927D139
:1042D4000699C9B2814223D10898B9490870B648F1
:1042E40006700398002813D0B148007816E0072917
:1042F40000D094E0AA480078002800D18FE0AF48AD
:104304000078F1B2884200D089E01078401C81E046
:104314000120A7490870002202924A704242424199
:1043240005920837F1B209980491884209D0E079DE
:1043340000210091F9B24007830F1320A54A09F028
:10434400FCFBFFB2302000233946224607F082F9F5
:10435400022022562D203946059B09F035FCA07019
:10436400E078002805D042B248200023394606F000
:10437400E5F9207900281DD06179A279120251183B
:104384000722A256120489180BD401461B31C9B264
:10439400362909D842B260200023394607F016FEB8
:1043A40008E06020642201E06020452200233946B1
:1043B40004F074FA6079A17909020818E179090412
:1043C4004018FF210902014001D0532200E02022BD
:1043D400002901D02A2100E04421000600D00A4629
:1043E4007920394609F000FD6D480078002813D083
:1043F40072480078049988420ED11820662200235E
:10440400394607F037FE6C48067028460695654A1B
:10441400079B0A9F107002E0624A079B0A9F6D1C6B
:10442400F0B21E2823D8761CA07A0A34B8421BD1D5
:1044340041E70698C0B2B84215D15F4806700898A3
:104444005F490870E81AC000C01DC1B200241922D7
:104454000923204608F026FC0398002803D108F01D
:1044640081FA002805D06D1C0898401CFDE6202622
:10447400FAE751480078214606F0B8FB4848047032
:10448400504807F0BBFE4A48007800285BD00298E9
:10449400464C20704C483F210B2204F05DF9012862
:1044A4004AD14348807805282FD8C04678440079FB
:1044B400400087442011222A2E33C0466FF90000A1
:1044C400760D0020500D0020B30D0020770D002044
:1044D400C20D0020650D002008F044FA00280AD11E
:1044E40035490878401C0870C0B20024214606F003
:1044F4007DFB2B480470334819E02F490878401C91
:104504000870C0B2012106F071FB01202449087033
:104514000FE0294800782D49087002E02B48FF215C
:104524000170207808F088FB00202070284807F0EC
:1045340065FE00201E4908701E48002101701E48B7
:1045440000781E490870681E174908700BB0F0BD4A
:104554003B468A420BD10A210A060CD002781C463B
:104564001B7803702270631C401C491EF4E7102959
:1045740004D30A9A03E0114805704BE60122704205
:104584007041104002462243012A00D042E6091B32
:10459400081818703EE6C0467A0D0020C70D0020AA
:1045A400760D0020B30D0020770D0020C20D0020F1
:1045B400650D00207A0D0020BB0D0020B90D0020F0
:1045C400BC0D0020653C00002CF00000830D002091
:0845D40041AD0000D1F9000027
:1045DC00F0B58BB00990FB4809F06EFBFA4C2078D3
:1045EC00421C4E200025294609F013FC2178092293
:1045FC00104607914843F5490C18F54EA05D40074D
:10460C0000D00A22F34F38460999FBF753FDA6193F
:10461C00F14824187F57052F089406960A970EDC4C
:10462C000820FA4909F050FBED480078099008F091
:10463C00F3FB2078002F00D18AE000238EE0059553
:10464C000825E649284609F03FFBB81F4342434181
:10465C00E3480078049030784006820FE149E24C40
:10466C0003952846A0478007400E31789F220A40C8
:10467C0010183070F81F43424341CA091020DB491F
:10468C00A047C00134787F21214008183070083FC2
:10469C007B427B4107252C401820D5492246D24F1E
:1046AC00B84728403178F8220A4011183170A042DE
:1046BC0009D00921079A5143C44A5118EA01059BB4
:1046CC008B5489184B70002868D02020C94909F0F8
:1046DC00FBFA06980178294028200A2402290A9B13
:1046EC0000D1FEE0012900D014E1069009200799C1
:1046FC004843B6490818E901425C4518687800023D
:10470C0080187D218E00092B0BD100B232460B3262
:10471C000021022303F094FA2870010A69700499AD
:10472C000591F11D02B28A4200DCF8E06C202027D2
:10473C00B34A39462646059C234609F025F82878C5
:10474C003530C2B278203946234604F0A3F816E17E
:10475C0040B25E2108F042FB2070099BC2B260207F
:10476C00082105F023FF2078002822D0401EC0B27B
:10477C0006F070FA06460820A54909F0A5FA20783B
:10478C00252811D38221002200920191253842B2B2
:10479C0048200821334602F0AFFF0AE0202009260A
:1047AC00089D0A9C8B4FEEE048200821324609F008
:1047BC0030FB09200799484384490E189549705CD1
:1047CC000A9A012A08D1751840B2062108F006FB96
:1047DC00287009990A9C01E000211446C3B2042BED
:1047EC0004D800914E2010218C4A05E00091401F06
:1047FC00C3B24E201021884A09F09BF9022C14D127
:10480C00874864210170874D705D771901217956B5
:10481C00090208187D210A028349022303F010FAC9
:10482C007055000A7870099B00E000230898007806
:10483C00252810D37B49725C7118012549578225B4
:10484C000093019509028B18253842B27820182163
:10485C0002F052FF0AE07348315C30180122805696
:10486C00000242187820182109F046FA6F49705C52
:10487C000025032C09D1771840B21521C943162203
:10488C0008F03EFB3870099B00E02B4642B26020DA
:10489C00202105F04FFFDF208100705C042C06D135
:1048AC00751840B2212108F099FA287000E009959A
:1048BC00069DC2B260202821099B07F0F7FD601FFE
:1048CC00434243412878C006820F3020584905F0F6
:1048DC0043FC8007C00E2978E7220A401018287084
:1048EC006DE005940690092007994843374908184C
:1048FC00E901425C45186878000280181C46092BB7
:10490C001BD140B20F2108F069FA002169702870A0
:10491C00049913E0089D2F4F26461C4633E0B24203
:10492C0018DD0C30C2B26C202021059B07F034FE40
:10493C00089D284F0698264624E00021089D254F07
:10494C000091C3B25A2020212B4A09F0F2F80698A4
:10495C00059E18E0264678202021059C234609F068
:10496C00CBF9002C0BD00998802805D128786978D0
:10497C000902081807F03CFE204800210170089D30
:10498C00144F06980A9C1F49069009F09DF9A642FF
:10499C000FD1099880280AD10921284609F026F957
:1049AC001648002101700A2C01D103983870049B21
:1049BC0000E000234820144A069908F0E5FE0BB0ED
:1049CC00F0BDC046D8F60000B40D0020EE04002067
:1049DC007D030000A20D0020790300009FF0000071
:1049EC00CF0D002033F3000065A10000CCF60000D1
:1049FC001DF3000040F7000024E900007A0D0020B0
:104A0C000AFA000032F90000ABF70000DBEF0000FF
:104A1C00AEF900007A0300000DF50000B2E80000CA
:104A2C00C60D00207E0300000083FFFF7B03000007
:044A3C004CF1000039
:104A4000F0B583B0E34E0125357006F0EDFA002491
:104A5000E1480157002907D5E04A13783746F02688
:104A60001E40331D3E461370DC4F3A78142A35D869
:104A70005200C0467A449288520097449E009E009D
:104A80009E0087006A000D010D010D010D010D0151
:104A90000D010D010D010D010D010D01140014009A
:104AA00014000D01110107F013FC032009F0C0F9F7
:104AB000C02009F036F808F0DDF83878401C38706E
:104AC00038780F210140032903D33878F0210140C1
:104AD00039703878202101433970DDE010462038E4
:104AE00003286AD310463038032818D2252007F04F
:104AF000FBFCBB480178BC2900D0CDE0417A0129FC
:104B000000D0C9E00321C943B74A002936D0531861
:104B10004418647A7D25ED005C55491CF5E7242A8C
:104B200017D0342A00D0B7E00024204608F078FEE1
:104B3000800600D5F7E0252007F0D6FCA84E717A54
:104B40003078AA2800D0E7E0FC2900D0E4E001207A
:104B5000E7E0AE4D2878411C2970AD490C5CA748B0
:104B6000007803F057FD3878DF210140397028784C
:104B7000102800D280E0002028707FE03878F021F3
:104B80000140C81C3870A348002110E0A14A1378E6
:104B90005B1C1370DAB2042A0FD33A78F023134067
:104BA0001A1D3A70994A0123137080221143017033
:104BB0003878DF21014039706EE0894CFF20207287
:104BC000E071A0710020A07286490968617003221B
:104BD000D243D21C62710A0E22710A0CE270090AD9
:104BE000A1703E788A49102804D022180B5CD37239
:104BF000401CF8E720461B300A21FF2208F0FDFF89
:104C00002520002121540F200640751E032D20D29F
:104C1000BC202070032E11D1F920800072490A5C5B
:104C200062710818C17821728178E1714078A071B1
:104C300020460B301021FF2208F0DFFF8020207774
:104C40000120E076E8B20228624E00D302256572A8
:104C500006E0002E5F4E03D101206072BB20207061
:104C60003878DF21014039706B480078C00701D0E7
:104C70000D2401E07320C44307F090FDE1B225202C
:104C800006F094FD07F0F6FF63480178491C0170B7
:104C90005B480188491C01800020307003B0F0BDE2
:104CA00007F016FB284609F0C3F8C02008F039FFCA
:104CB00038782021029108433870514800880190CB
:104CC000504908F0C3FD4E424E414F49019808F04B
:104CD000BDFD002900D075004848057007F0CAFFE7
:104CE000424D434E2B2C12D0285D002802D0401E8E
:104CF00028550AE001200021224608F044FE3268CF
:104D000082433260706888437060641CEAE73878D8
:104D10000299084338700AE0AA280AD1FD2908D16F
:104D20000220364908703878DF2101403970294E59
:104D3000B2E7AC2801D0AA28F5D1701C2949042576
:104D40002A4608F097FE0290F920800026490918AB
:104D5000701D2A4608F08EFE02990843E3D11D20FB
:104D600008F05EFD2149FF220A7121490A681023DB
:104D700013430B603C2800D83C201E4D29691E4A75
:104D80001368591A08181060642108F089FD286119
:104D90003078AA281BD0AC28C5D134460934A01BD2
:104DA00008381928BFDC2078FF28BCD0A578AC21B2
:104DB000204603F089FB2819C41CF0E7301909309C
:104DC0000178FF29AFD0AA2103F07EFB241D1C2C03
:104DD000F4D1A8E7C90D00207C0D0020C80D0020EB
:104DE000B8FEFF1F8CFFFF1FEE040020DD0C00202B
:104DF00000F8FF1F08FDFF1FE00D0020AE0D002092
:104E0000DE0400202106000021050000840D0020A2
:0C4E10001A0D0020910D0020800D0020E4
:104E1C00F0B58AB01F246102C34842680A4342605D
:104E2C000121CA06836813438360C04BDA681020E3
:104E3C0008900243DA60BE488269BE4E32408261FD
:104E4C00426832404260426932404261BA4DAA68BF
:104E5C003240AA60B948826D32408265426F32405E
:104E6C0042672A6832402A6016229A60DA680A433E
:104E7C000E27BA43DA60002203921A6247225A6262
:104E8C001C605A6A80240994224340240794A2434C
:104E9C005A621A681206FCD50F2205921204A84E0B
:104EAC00736D934373650C02A64B1C645C649C6429
:104EBC00DC64726D3A4372655C609C60DC6020223D
:104ECC00D2437261A04A1461726D0A437265CD437C
:104EDC000195326C2A4032641C608A079B4B5F69D7
:104EEC0017435F611F6897431F6084677269089D51
:104EFC002A43726132682A433260934DEC60CF07CB
:104F0C005A693A4306975A611A683A431A60C46759
:104F1C004A037769174377613768174337602C6307
:104F2C008B4F7A6D099D2A437A653A6C2A433A6411
:104F3C007F4AD461059A920405465869104358611A
:104F4C00186890431860AC64EC642C656C650320A5
:104F5C00049002020292286C104328640598000207
:104F6C007A6902437A613A6882433A607248046211
:104F7C0044628462C462786D019A104078656C4D0D
:104F8C002C6078690222904378616B484460786D9C
:104F9C00089A904378652C61080372690243726128
:104FAC003268824332606848C4628A0501925E4D61
:104FBC0028681043286048025F4A90615061654A36
:104FCC0012200590907019205070117062480838AA
:104FDC0005680E4661490D400560B00260490860E5
:104FEC009078079D284390707869089A10437861EF
:104FFC0038681043386050490C617869099A10433D
:10500C007861386810433860CC61786908221043A5
:10501C007861386890433860CC60586904990843CB
:10502C0058611868884318604448046044604048DC
:10503C00C460494BD8684B49084006994018D86061
:10504C00474D2960F205384CA0681043A06005203C
:10505C00089000020090DB30434F38600498B86031
:10506C009F2038610720B861194658683B4B18409F
:10507C00801848602F46019828603C48039B0360C9
:10508C00204630383A4A02607006A2680243A26099
:10509C003848394A82600A68304D2A400A60B204A6
:1050AC003A60492202602F4D681CA2680243A2603C
:1050BC003248334A8260FF2212020F689743F20390
:1050CC00BA180A607204264F3A600360B006A268F0
:1050DC000243A2602B4A2C489060D3602B4810618D
:1050EC00482050611848029F0760476008682840B4
:1050FC00069D40190860F004194908601360206887
:10510C000799084320600D480099416601662048C4
:10511C0005990170099941701E481F4941608360CF
:10512C00089901600AB0F0BD3480044000B003401F
:10513C0000C00440FFF8FFFE00B0044000D0044063
:10514C0000F00F4000A004400490044000F10F4018
:10515C0080F00F400160074010E400E0FFFF00FF0B
:10516C0000E100E0FFFFFF0000710340007003400E
:10517C000000010100900340FF0B00000080034081
:10518C003B2D000000A00340FFFF000060EA000080
:0C519C000160064010E000E07FBB000056
:1051A800F0B587B00290BC4808F088FDBB4E347853
:1051B800BB480078002804D1B8480F220299FAF7B2
:1051C8007BFF0025B749284608F080FD07F0B0FCB2
:1051D80002B266200695294608F01DFE3678B249C7
:1051E8000878022803D100200870B0490870B04838
:1051F8000278511CC9B28E4203D2721E0AD2002212
:1052080008E0111DC9B28E4204D9321FD1B20A2951
:1052180000D30A2261B201910270A64D069F05943F
:1052280004960392F8B2062830D2B818C4B2361BD6
:1052380073427341401CC2B2F8001030C1B2122050
:10524800069108F0FDFC2D20285C844204D1012041
:105258002A22069908F0C6FD0F252046974C2146BC
:105268002A4605F0D5FF70427041904909780140FF
:10527800103100911820069922462B4608F0F7FABB
:105288007F1C059C049E8B4D039ACBE784480078CD
:10529800002807D02D27E95D8048007881421CD07E
:1052A8007E251BE0029908466438022874D36029D9
:1052B80000D180E0BF2900D186E06E297BD081290A
:1052C80000D18EE0612900D0C4E07849087801282F
:1052D80000D0DBE000200870D8E0592508F06CFD0C
:1052E800002801D16920C5434F207249085C400756
:1052F80001D43F200540E9B26F480A2203F02AFA98
:10530800012800D0A6E0354665488678072E7DD866
:10531800B00001A108588746975300004153000088
:105328004153000029540000155400003354000074
:105338001F5400004D5400005848017806915D48FC
:10534800C155624801270770029807F073FC07F0FF
:1053580035FA069801F0EEFD5D48C17802220A434D
:10536800C270384607F05CF807F028FA06F0BAFA77
:1053780003F0A4FD5748807A08F00AFD07F046FAC2
:1053880047480078022802D0022E00D080E0524818
:1053980007F03EFB2E465DE02D20285C3F4909784A
:1053A800884222D10298642801D0652852D14A48FF
:1053B80007F02EFB4EE04948002707703B49087864
:1053C80001281BD10F7061E000203549087037496A
:1053D80008702D20285C31490870012002F06AFE0F
:1053E80038E0012007F0F0F834E002202C4D287056
:1053F800029807F01FFC002068702BE00120284D60
:105408002870029807F016FC6F7023E001202749E6
:1054180008702E4622E02E4628490D72012015E01C
:1054280028482E460570012006E0029807F002FC85
:1054380024482E46057000201B490870224806F0B3
:10544800DBFE07E02E461D490D72002008711C483E
:1054580006F0D2FE15480078012817D10198B0420D
:1054680014D0601CC0B2711CC9B206F07FFC2D209C
:10547800104A115C8E4201D1145404E0019A8A4208
:1054880004D10C490E54012006F0CAFF07B0F0BD44
:10549800012007F099F87DE727F800009C0D00200F
:1054A800650D002087F90000D60D00209D0D002015
:1054B800740D0020BA0B002051ED000052030020AB
:1054C80085660000D50D00201D9D0000CA0D002036
:1054D800EA0D0020EE040020110400007A0D0020DF
:1054E800F0B587B0044640782378834200D08AE13B
:1054F800222900D987E1C84800788006400F890032
:1055080001A359588F46C0469D550000A555000077
:10551800AF550000B7550000D95500000B560000E4
:10552800435600005F5600008D560000C556000027
:10553800D1560000215700002B57000037570000B4
:105548003B5700003F5700004B5700004F570000E3
:10555800715700007B5700008757000093570000E1
:10556800A3570000A7570000B7570000BB5700001B
:10557800F3570000BF570000FF5700001358000002
:10558800C3570000CB570000D3570000DF57000077
:10559800E757000030200090462119E130200090A4
:1055A8004621142215E1A22000906421FCE02A2063
:1055B800059000905F25052602200690954F20460D
:1055C80029463246069BB847212000900A2369E005
:1055D800C220009050210A2503268E4F20462A46D5
:1055E8003346B847422000903C2120462A4633469D
:1055F800B847202000904621012320462A46B84774
:1056080001E121200090064606904621052201234B
:10561800804D2046A847009632210F2502262046B5
:105628002A4633467B4FB8470698009050212046BB
:105638002A463346774CA047E5E0222000906E21A9
:105648000525012620462A46334603F07DFF232000
:1056580000907C2184E000270097322105256D4EBB
:1056680020462A462B46B04700975A2120462A460C
:105678002B46B047022000906E21032204232046C7
:10568800B047C0E0232005900090502505260A2049
:105698000690604F204629463246069BB84721208F
:1056A80000901423204629463246B84705980090B2
:1056B800204629463246069BB847A4E0622000905F
:1056C8000A21142205239BE0222005900090322114
:1056D8000491042206920A2303934E4D2046A847BC
:1056E8002120029000904621019108271426204687
:1056F8003A463346474DA8470598009020460499F6
:105708003A46039B434FB8470298009020460199B8
:10571800069A3346B84776E02A2000907821052279
:105728000DE02220009078210522322368E0212014
:1057380002E0222000E023200090002114220A2306
:105748005EE012202EE0422000903C211425032622
:1057580020462A46334603F0F7FEE2200090502107
:1057680020462A4633464CE0302000904621282225
:105778002FE0012847D0102000904B2128E0012875
:1057880041D010200090412122E0102000900625F1
:105798000123204611462A4633E0302002E0012842
:1057A80031D01020009046210A22022328E0102040
:1057B80004E033201AE0312018E0312000907821ED
:1057C80006E0322000907A2102E0332000907C210C
:1057D8000A22012314E050200090822102E0D02008
:1057E800009032210A2200230AE03220009078211A
:1057F8000F22032304E031200090462114221923AC
:10580800204603F0A1FE07B0F0BD302000904621ED
:0C5818001E22DEE751950000FD0B002071
:10582400F0B58BB0BA498879401C887100200121F9
:105834000691B94DC7B2012F00D9F4E0002F02D070
:105844003720000100E0B748B74908180024005782
:1058540039016E180028069B1BD016280CDB15385E
:1058640040B208F0B1FAB1798142069B11D0B11D62
:105874000028087005D10CE008F0A6FA0028069B61
:1058840007D0002F02D008F0B9FA01E007F0BEFA01
:105894002346052179439F48039140180890857851
:1058A400FE202840022801D1A0488488A04800781E
:1058B400002800D09F4C0794032008990C56042D0F
:1058C40005D368009C4940180838008807900122D5
:1058D400002D0492059337D0162C24DBF078318800
:1058E40001438B4A9079084391880143B078084377
:1058F400B11C002801D1002008702046153840B2A0
:10590400019108F061FA019A002808D01178002961
:1059140005D1F11C0A7853425341019A0B7010705F
:10592400059B049A10E0002C0DD0204601972746D1
:105934002C461D4608F048FA049A2B4625463C4658
:10594400019FF07000E0F2703088F1780029029431
:1059540001D1014608E09102079A12B251188A0E49
:1059640089188911C9B24118694C002B00D101462C
:10597400318007F049FBA188401A80B2642850D3D3
:10598400A279318809A807F0D8FF099807900A99E5
:105994003180002F05D00021A171211D6420059BB9
:1059A40005E02188491C2180A11C059B04980A88D4
:1059B40012180A800798000602D03189491C3181E7
:1059C400002B06D0F11C0978002902D0B188491CAB
:1059D400B1807189400E0A1872814E480399405C67
:1059E4000899497809020818B08131460C31002D14
:1059F400034610D0012D04D1029A002A08D0B2889F
:105A040007E0022D01D8328903E092B2120900E0C6
:105A14006288831A0B80089A1279002A01D0C01A6E
:105A24000880781C05E7A889E98981426BD0394B45
:105A340019785A781E79E881EB78002B63D012022A
:105A44005118002E00D0081A07B23C4C20784007A9
:105A540026D5002924D00A2F07D0B8B2142807D09D
:105A64001E2808D1192029210EE01B202B210BE030
:105A74001A202A2108E0052F47DC28480A3000B202
:105A8400874203DDF9B21C2007F082F8069800284B
:105A940006D020780821014002D02148322101801B
:105AA400002F01D4384600E0A889002E00D13846E2
:105AB40001B209A83C2207F040FF2078800715D5E1
:105AC4000A98002812D1607A800703D4002007F0D6
