:10000000001800201DCC00003DC000003FC00000D3
:1000100000000000000000000000000000000000E0
:1000200000000000000000000000000041C00000CF
:10003000000000000000000043C0000045C00000B8
:1000400019B700004BC000004DC000004FC00000B9
:1000500047C0000051C0000053C0000055C0000060
:1000600057C0000059C0000061B100005DC0000031
:100070005FC0000061C0000019B0000065C0000052
:1000800067C00000E9B4000075D0000059D000003E
:100090006FC0000071C00000E5BE000075C0000028
:1000A00047C0000077C0000079C0000047C00000D2
:1000B0007BC0000047C000007DC00000E1C400001C
:1000C000F0B583B002920F4601900825BB48425F0D
:1000D0000621BB4E715E891A8B0EC9188911B94B66
:1000E00019700A23C35E705FC01A840E0019801154
:1000F000B54C2070C0B2C9B2002901D092B2F280D2
:10010000B24C002801D09AB232812478B04A1378D8
:10011000002B03D1B94B1B789B0606D50020AA49BA
:100120000870A849087010700146002904D1002801
:1001300002D17088002801D00CF0DCFEA5480678BA
:10014000012000900298FF285ED0A3480078012883
:100150001FD0002841D1A2490878012802D10020EF
:10016000087034469F4B5A5700201872012A18DB3A
:10017000611CCAB2521A531E9A41B442019B01D269
:10018000002A22D01978029A91420ED2491C197085
:100190001AE000202E2F1CD09049097800291CD18C
:1001A00017E0002A03D421460FE018700CE0002C61
:1001B000019D01D0611E08E02B78002B029A00D02F
:1001C0005A1E2A70009A0A7001462E2F04D101206F
:1001D0000C468149087000E00C4683480078401CBA
:1001E000C5B2854201D00020C5430CF0A3FE002813
:1001F00000D10546E8B23D2804D3012076490870B5
:10020000764908707848057078480670734D2878EC
:100210000028019B17D03846603805283CD938465D
:10022000423803284CD9212F00D171E02E2F3AD02B
:10023000812F64D08E2F68D0BF2F00D0A2E0002481
:100240001C702C709EE060480078002813D019784C
:10025000091A4AB20020002A00DC0146CAB2029DF7
:10026000AA4200D32946197057490870E0B2B0423B
:1002700000D33446594D18780028CCD05148007826
:100280000028C8D0241A60B2002800DC0024E0B2A4
:10029000B042C0D33446BEE778440079400087447A
:1002A00002711D262B5B0298FF286BD028784142F3
:1002B00041412970002865D147480121017061E062
:1002C000784400794000874401293545187802991F
:1002D000884257D02978002904D053E02878002894
:1002E00050D118780299884246D3002045E02878FA
:1002F000002847D1187817E0002E20D142E00020D6
:10030000287000980BF03AFD3CE08E200CF096FE31
:10031000287800282CD00020287033E01878002896
:1003200030D0297800292DD1002801D0401E02901C
:10033000029822E0002E25D0E0B2B04222D02878E8
:1003400000281FD12A4900200870E1B2B14232D3FF
:10035000044617E0200615D0002E13D02878002878
:1003600010D123480021017020060AD0661E08E043
:1003700000200BF003FD05E0401C1870E0B2B04215
:1003800000D33446114804700020124908702878C0
:10039000002801D0022100E00121094B154A11700B
:1003A00059884A1E91410028009A00D10A461248F5
:1003B000027003B0F0BD641CE4E7C046780400207E
:1003C0009A040020350E0020340E0020490E002033
:1003D000330E0020770E0020890E00203C0E0020F6
:1003E000560E0020100E00208E0E0020960E0020CB
:1003F000840E0020910E00203B0E0020980C00205F
:10040000FFFFFFFFFFFFFFFFFFFFFFFFFEFFFFFFFD
:10041000F0B595B0244902260E70244C07222146DF
:10042000059209F003FC0146214F3878401EC2B204
:1004300020461291FFF744FE1E4D2878411ECAB295
:100440000D2A0AD81C4BD340DA0706D048B28000E8
:100450001A4908580CF098F828780D2801D900F0AE
:10046000F0FE24781394400078448088400087444C
:100470000D00E8062B00FE004301E806E8065501E2
:100480005200E806E806E806F000EE020C480DF01F
:10049000F0FD0E203870601CC2B20A4807210DF032
:1004A000ABF900F0CEFEC046950E0020620E002093
:1004B000810E0020290E00203127000050C50000C9
:1004C0004AF0000018C50000F9480DF0D2FD0620E2
:1004D0003870F84807780825F74928460DF0D1FD0F
:1004E00063426341F54EB07D4209F549284609F063
:1004F0006FFF4001B17D1F220A401018B075F07DDA
:100500000025012C00D0D8E240B224210CF074FE6A
:10051000F0753B46D2E2EB480DF0ABFD1020387091
:10052000E94800781190139840B20CF063FB139BDC
:100530000D900022072A01D100F083FE0D9881184A
:10054000481CC0B214904000C9B21291994202D125
:100550000221F94C2170D94940181499102901D869
:10056000F64900E0F64945180E92D0000830109088
:100570000024032C6AD200201199A14201D0014627
:1005800001E0CC490978129A9A4200D00146CEB2D5
:10059000711E304688411499102955D87F21214079
:1005A000012921D000293CD140000F901098C6B2FB
:1005B000002738463146149A3B460DF052FD287804
:1005C0008009022800D901270F9B3046F3493A469B
:1005D00009F0FEFE3F21002800D0C843139B2A7873
:1005E0000A4002432A702FE028781099C9B2800689
:1005F0008216452033460AF017FA139B002E23D0AB
:1006000028781521C9438006801616220CF084FE36
:10061000139B3F2101402878C022024050182870C7
:1006200012E00127EA571098C1B2782033460DF046
:10063000E3FB002E139B07D0E8577C21C9437D22A2
:100640000CF06AFE139B6870641C92E70E9A521CB1
:1006500070E7DD480DF00DFD0A203870042C0E9671
:1006600000D93AE20CF0E6FD00252C4637E2D748E7
:100670000DF0FFFC11203870AF4803210170AC4829
:1006800000780D90139840B20CF0B4FA139B0490CC
:100690000F2B00D90EE35800CD4C205AC10B401847
:1006A00000B24010CB4942184E2000210DF07FFDD2
:1006B000139BC9480078802800D00AE30D980028D1
:1006C00000D006E3052058437C49081857218900CB
:1006D000425C0499591A4900615A002A00D04942E3
:1006E000FF225E328154090A8018417002200CF00A
:1006F000ADF80CF02FFAEBE2B8480DF0BAFC05208B
:100700003870B74800240470B64E35781398002826
:1007100001D100F0C6FC234600F0CCFCB2480DF03D
:10072000A8FC0C203870844803210991017080488E
:1007300000781190139840B20CF05CFA08900024F5
:10074000072C01D100F07DFD5A4800781490E0009C
:100750000830C5B200274C22384629460DF00EFD60
:1007600008980019C6B2082E0F9401D8312100E074
:1007700038210818C2B2052029460DF0FFFC09985F
:1007800070434E4909184B20C0000E9112900B5C2B
:1007900013988642149C00D03C46119E002E2046A1
:1007A00000D03846C0B200900F20109003400D20BA
:1007B00029468E4A0DF0B8FB022E204600D038465E
:1007C0000C90012E149400D03C460D9488480E9C49
:1007D00026181298205C109908400CF08DFD022814
:1007E0000A960B9016D0012820D0002100282ED187
:1007F0007756252F34DB7F4961560C9AD2B200928E
:1008000082220192253FFE223A407D31382A5DD076
:100810000B465DE07748225C0C98C3B25020294615
:1008200009F0BCFF32780D98C3B259E0002032566F
:100830000D98C3B2362029460AF0F6F86D482256C4
:100840000C98C3B24D2029460AF0EEF84CE07256DF
:10085000694900912021002A07910AD40D9F0AE0DE
:10086000644822560C98C3B2632029460DF0C4FA9E
:1008700033E00D9F0F43FBB2D109514048B2401CF9
:1008800082B2492029460DF0BEFB5A482056002866
:1008900001D40C9902E00C99079A1143CBB2C1091B
:1008A000414048B2421C6B2029460DF0A5FA1BE0DE
:1008B00091FA0000910E00205DEE0000C8040020B7
:1008C00099F60000E6F80000490E00200A234B4389
:1008D0007AB26420294607F029FA0D9F3278FBB2DC
:1008E0003620294609F05AFF11981499129AA61831
:1008F0000328084600D0002031780A09082A00D9C8
:10090000521CC3B2682029460AF08EF83B48007892
:10091000002800D198E01498000600D194E01198C6
:10092000032800D990E003A1085C40008744C0463A
:10093000490E00200A212F40770E00207B02000084
:10094000E10200003078109D28400E210CF054FC8C
:1009500028403178F0220A40111831700CF0CCFC9C
:100960000B99814270D00020224960540A99087086
:100970006AE00B98032867D87844007940008744E0
:10098000013F014600210A9C60565E2245E00B981B
:10099000032859D802A1085C40008744D6F800001B
:1009A0000342484D134D60577C21C9437D2248E0E6
:1009B00030780009109C21460CF01EFC3178214053
:1009C0000001081830703FE09DFC00006CFC000046
:1009D000F0030020DC050000840E0020E6FB000090
:1009E000870E0020820E002054F8000048EC000022
:1009F000560200005702000026FD00003B0E0020BA
:100A000000200A9C20561521C943162205E000202B
:100A10000A9C20563121C94363220CF07DFC2070D2
:100A200012E0FC4D60571521C943162209E0F94D2B
:100A3000605700215E2204E0F64D60573121C94322
:100A400063220CF069FC60550F9C641C78E6F24848
:100A50000578F2480DF00DFB139C0A2C00D9A0E29A
:100A60000CF0E8FB224610203870052C00D9EAE390
:100A7000002A02D1EA480921017051425141E94856
:100A8000007800910821E84E0A2732463B4609F0DB
:100A900027F913980128149501D000F04CFC129806
:100AA000602802D1B07A0DF03FFBF05731210CF0F5
:100AB000A3FBB0722B4600F040FC2B46C2B266206E
:100AC000102109F06BFE307E1399022953D140B2F8
:100AD00064210CF091FB30764EE005240125CE48D0
:100AE00007780826D14930460DF0CBFA2A46313234
:100AF0001E20109631460DF041FB13981494844249
:100B000011973B4600D0002305206843C84A115C7A
:100B1000141801201290205600930002421847201A
:100B200010990CF0B4FD1399149D8D420E9E16D1B0
:100B3000C0483C2202703B20C143002528460CF0EF
:100B4000EBFB2178627812025118081801B20029D3
:100B500000DC28462070000A60701399149D681C00
:100B600088423DD10220205613210CF045FB1399F9
:100B7000A070012235E02F46C2B2542018213B4616
:100B80000CF098F9139DE81E42424241B07D4007A7
:100B9000C00F2021A84CA047C007400FB17DFB2209
:100BA0000A401018B075281F424242410807C00F82
:100BB0002821A047C007000FB17DF7220A40101876
:100BC000B075681F42424241C806C00F3021A0479D
:100BD000C007C00EB17DEF220A401018B07530E397
:100BE00000220529129B00D381233C20102109F00B
:100BF0001DFA032728463043002213998842119B8F
:100C000000D013461092E257002B304600D03846F1
:100C10000F9700905A2018210CF056FFE070139D9A
:100C2000149F781BC01C43424341227920208349F2
:100C300009F0CEFB2071381DA842119B109A00D0FC
:100C40001346002B0F9800D00646774C052D01D394
:100C50007B4800E07B482518AA5600964F202821A3
:100C60000CF032FF724F7A7977496254FA78774BF9
:100C7000E254FA79764BE2543A7A764BE254764A69
:100C8000A35C7F261E407B7ADB01F318A3542870F7
:100C90007878A073387860736018B9794170B87843
:100CA000E072387912990840217BFE220A40101820
:100CB0002073C6E26948007880280AD1102B08D139
:100CC00067481921017080200CF0B8F908F0B6FAD5
:100CD000139B7C200390C0430C9000263246072EC5
:100CE00000D14DE104983218D4B2F00008900830D9
:100CF000102C00D145E1119661005A4B595A0B91C5
:100D0000052110946143484B5C18572189000991D3
:100D1000675CFF210A915E31655C61180E914E7827
:100D2000C1B21292501CC2B200200F91149003461F
:100D30000DF097F930024019002F00D140420B9975
:100D400043187F217E22002F0846119E00D01046B6
:100D50001BB20C9D4B35AB4200DB2D20002F00D089
:100D60000A46322B109F00DC02464B200F990DF0F3
:100D700005FA2D48817D0220084001D0039900E04A
:100D80006321C9430791139B129A002801D07D204B
:100D900000E0642006900598089901430891AD2071
:100DA000400020180B900A985C3020180A9009988F
:100DB00020180990149C042C00D3DFE00D986040AB
:100DC000394659400143149401D0002401E01248EF
:100DD0000478E5B268426841234909784E424E41A1
:100DE000064302D10020214908702B2000010E4942
:100DF000085C002700283FD001210E9A51560902B5
:100E000012788A1891B2002936D0824230DD074626
:100E100032E0C04657020000910E002006FC0000A0
:100E2000770E0020490E0020C8040020F7F20000D1
:100E3000060E0020880E0020F5D0000081F600008C
:100E40007203000071030000AB0200007B0200008F
:100E5000AD020000AE02000073030000840E00200B
:100E6000370E0020F00300203B0E0020870E0020EC
:100E70004742BA4200DB0F4638B20A210CF0E8FDC7
:100E80007F21149A1140022923D0012949D0002939
:100E900064D101250E994857000209784218202094
:100EA0000443E3B22D200F990CF0A6FF002E119EF3
:100EB000109F5ED10E9C60570002217840187D2162
:100EC000CA000223F64907F011F82070000A60708A
:100ED0004FE00A990978643149B2401801B27D297E
:100EE00000DB7D2002B266200F992B460CF084FFB8
:100EF000380406D00898C1B23220382209230CF0F9
:100F0000E1F8002E119E109F33D10A9C2078182101
:100F1000C943643040B2069A0CF0FEF96438207080
:100F200027E00B99097864394CB2001901B20C9A88
:100F3000914200DC104602B248200F992B460CF07B
:100F40005BFF002E119E109F13D119222046079996
:100F50000CF0E2F964300B9908700AE0099C2078E3
:100F60000F992A460CF0C6F8411E88412070119E48
:100F7000109F149C641C139B129A1CE7761CAEE60F
:100F80003820D1B210290BD110214B40C549097826
:100F900019434B424B41C1B21220C34A0CF0CAFD67
:100FA0004FE114951020119038700827BF4938463A
:100FB0000DF067F820460B3843424341BC4EB27CEB
:100FC000BC49384609F004FAB07400250C2C00D056
:100FD0001495149B581E19468141142032560091D5
:100FE000662011990CF070FD307520460D38424294
:100FF0004241707C0007C00F18210DF00EF8C007A9
:10100000000F717CF7220A401018707420460E38C9
:1010100042424241307B8007C00F20210CF0FDFF8F
:10102000C007800F317BFD220A4010183073FF206B
:101030004000149001242F46072F00D101E1737D59
:101040002340581E83419C48C25D28463F30C0B2B1
:10105000282107F085FD13980F281CD106209749F9
:10106000087097480078874215D128463E30C0B2B4
:101070002721082209230CF025F812982E2801D0E8
:10108000202808D1707D6040707502200BF0DEFBD7
:1010900000208C490870640014980440ED1D7F1CEA
:1010A000CAE768B2032200210B460DF076F8054628
:1010B00030700123681CC2B208262046314609F070
:1010C0006DFBEDB228460BF0D3F9034600942A20BD
:1010D000EF4A314614930CF027FFEE490E96304646
:1010E0000CF0CFFF6800EC490E5E28460CF070F85B
:1010F000012300940193652E194600DB21467C22D2
:10110000D2431932964210931E46139B00DB4E00C9
:10111000002800D02646701E11908641581E454278
:101120004541304628401821DC4F0A460F91149B58
:10113000B847009401941199481E814111910D40C6
:101140003021129128460F9A149BB847109F0097A0
:1011500001971398801E454245412E4028220D924A
:1011600030460F99149BCD4EB047009701941198CB
:101170000540284612990D9A149BB047009401949B
:10118000139FF91E484248411E2563232946129A9F
:10119000B04700940194391F4842484138226223E5
:1011A0002946B047B94E30780CF012F85C2500287B
:1011B000284600D03C204022214609F0EFFCB848E8
:1011C00010990170284608F0D5FF30784100B24AE6
:1011D000555E1927394669430A0E8E18294608F0CC
:1011E00011FC14903212722012990CF0E0FF149E40
:1011F0007743380E3818021254200E990CF0D7FF9E
:101200006801FF214900891C4018820D8018870A57
:1012100038465C30C0B2720151188A0D89188E0AA6
:101220001D21891BC9B207252A4609F0B7FC593789
:10123000F8B22021891BC9B22A460CF09AFF9848BF
:10124000047015B0F0BD08249849204615460CF0EE
:1012500018FFA81F424242418B4DA87D8007C00F56
:1012600021460CF0DAFEC007810FAA7DFD23134052
:101270005918A975002827D1AD2040002818D5217C
:101280004900691888421FD200214256002A00D521
:10129000017001228256012A00DB4170401DEEE7F9
:1012A00018FCFFFF370E002043F800001CF100007F
:1012B000C8040020A8F4000056FC0000770E0020AF
:1012C000490E00203C0E00201398C01F43424341AA
:1012D000744FE85D8006C40F10207549224609F05E
:1012E00077F8C107890EEA5D20239A435118E95522
:1012F00001263040A04202D00AF036FCE95D139886
:101300000838424242414806C40F182120460CF0DA
:1013100084FEC107490EEA5DBF2313405918E95501
:101320003040A04201D00AF01FFC0BF041FE002823
:1013300069D0812268E0B07A00235E4900914121A2
:101340008900C0B24218582010210CF05CFE182011
:1013500059490CF096FEFF20470001240025139800
:10136000082D14D05548305C2040411E8841009023
:1013700053484219062068434230C0B21821012365
:101380000CF049FC139864003C406D1CE8E702280F
:1013900019D141201721382209230BF093FE13980D
:1013A0001299602901D02E290DD112980BF046FE1A
:1013B0000CF011FD414970543B480021017002209E
:1013C0000BF044FA1398C01E42424241354C305D46
:1013D000C006C00F202529460CF01FFEC007C00E16
:1013E000315DEF220A4010183055139804282FD190
:1013F0002B200401305764210BF0FEFE30552021D4
:10140000149D0D4327E08022602020210CF0B6FEC1
:10141000139C2046093842424241687C30402821D2
:101420000CF0FBFD3040697CFE220A401018687405
:101430000A3C62426241C806C00F30210CF0EDFD4B
:10144000C007C00E697CEF220A4010186874F8E6E5
:101450002B200001305CC2B2782028212B460CF0F2
:10146000CBFC1398401F434243419F208400305DD2
:1014700042093020134908F0ABFF4001315D1F22C3
:101480000A4010183055DCE6C8040020820E002007
:1014900085FA00004BF5000078040020919D0000C3
:1014A000400E0020730300003C0E0020F2EE00000E
:1014B00006F9000065F80000E7F00000AF02000048
:0814C00013FB0000FFF5000022
:1014C800F0B58BB0224901260E7022490978C90768
:1014D80001D0042200E003221F4C214608F0A2FBA1
:1014E80007461E4D2878401EC2B220463946FEF7F0
:1014F800E3FD1B4800780B2801D900F0FCFD01979B
:10150800029618490E7827780A9740007844808810
:10151800400087440B0029005B00AD00BE002A0193
:101528008101AA0186028E02AC02EF02F1480CF09A
:101538009CFD0848007801220240D11C0A322A701A
:10154800781CC2B2EC480CF053F900F0D4FDC04648
:10155800950E0020850E00206E0E0020810E0020C2
:10156800290E0020910E0020E4480CF07EFD062094
:1015780028702E25E248425DE2480090002F06962A
:10158800344600D000247620082123460CF037FD8D
:10159800002CDB4E07D070570A212D220BF0B8FE25
:1015A80070550BF0ADFE1020D7490CF066FD3125C3
:1015B800705D0024012F00D00AE340B21521C94311
:1015C80016220BF0A5FE7055069B02E30696CF483F
:1015D8000CF04BFD062028700820CD490CF04DFD7D
:1015E80039465C27C64DE85DC41D4026002906D152
:1015F8000698064360B207210BF0FAFD0446E2B2F2
:101608006620082133460CF0F3FBE01FE8550A9EDC
:10161800701E434243414324285D8006420F102038
:10162800BC4908F0D1FE4007800E295DC7220A4058
:1016380010182855B01E434243414F242A5D042AFE
:1016480000D304221820B44908F0BEFE0328069FE0
:1016580000D907202855032E00D01AE34D24285717
:10166800012164220BF054FE285540233B4313E329
:10167800AA480CF0FAFC062028700820A8490CF0AB
:10168800FCFC002F00D1E1E32F209D49085C40239A
:10169800E6E3A4480CF0E9FC06202870002F02D1EC
:1016A800A1480921017079427941A0480078009148
:1016B800934C2246513208210A2308F00DFB781E6C
:1016C800434243414625605D4007C00F1021984AB8
:1016D8000CF0EEFBC007400F615DFB220A401018BA
:1016E8006055B81E43424341C806C00F1821914AAD
:1016F8000CF0A1FCC007C00E615D3A46EF273940E7
:1017080008186055D01E424242414C26A05DC006D2
:10171800C00F20210CF086FCC007C00EA15D394027
:101728000818A0550A9F381F43424341605D800650
:10173800C00F2821804A0CF07EFCC007800E615D36
:10174800DF220A4010186055781F43424341A05DCC
:10175800C0093021794A0CF0ABFBC001A15D7F22A2
:101768000A401018A05500F0C6FC069674480CF004
:101778007CFC09202870042F00D99EE20BF056FD4E
:101788000825704928460CF078FC7A427A415D2792
:101798005B4CE05D0126304029460CF03AFC3040B5
:1017A800E15DFE22099211400818E0550A98401E92
:1017B800424242414627E55D3540102128460CF05B
:1017C80028FC08963040E15D099A11400918E15556
:1017D800A84201D00AF0C4F90A98022801D00020D2
:1017E800069049200990205C57490F5C0420574D0A
:1017F800C6B2002E00D18FE2062141435431C8B24F
:101808000321394069184A781821069B07F0A4F982
:10181800701EF9B28F08EBE74D480CF026FC01204A
:101828002870002525704B4C019E072D00D176E1CC
:10183800E8B20AF09FFC0E21635E02B29A420146AA
:1018480000DB1946E1811C23E35E9A4200DC18465E
:10185800A083042D06D309B200B24018C10F401866
:1018680040082080A41C6D1CDFE706963A480CF05F
:10187800FCFB062028702D48007807900BF098F89C
:10188800800700D56FE2082034490CF0F6FB1020E1
:1018980000231B4D042B00D190E20490C1B2581CC8
:1018A8000390C2B20026304609930891334608F0E7
:1018B80071FF099948002F183A37042E00D3ABE07E
:1018C80000240A98814209D1032017490870079813
:1018D800B042234603D10223069C00E023467F2022
:1018E8003040032800D994E001A1085C40008744F7
:1018F8003744627960F00000E4C900000EFC000083
:10190800520C0020AAFB0000C6ED000049FA0000B6
:101918009EF3000045F20000B1F000007AFC0000E0
:1019280074ED000006FC0000770E0020490E002030
:1019380016F9000036F6000031FB00006DFA0000D1
:101948006BFB000017F2000069F60000B5FC000010
:101958003DFA000042030020FEFB0000A6F800004C
:10196800787882090898EB4908F02EFD800179788B
:101978003F220A40101878704BE078788006851668
:101988000D20684381B2890B4018821042200899C3
:1019980023460CF02DFAA0073BD51E20C1431F2279
:1019A80028460BF0B5FC3F2101407878C022024060
:1019B800501878702DE03D78009407200590054078
:1019C8002B46103348200899E94A0CF0A9FAA007D9
:1019D8001FD5032128460BF00BFC059908403978E0
:1019E800F82213E000203856C5105A2008992A46D4
:1019F800234609F015F8A0070BD50E20C1430F2286
:101A080028460BF085FCC000397807220A401018D8
:101A18003870761C099950E704980830039B0A9F90
:101A280037E7D4480CF021FB1020D3490CF025FBF4
:101A380061E3D2480CF019FB0025E9B209297AD2F2
:101A4800E800032900D90838C4B26E1C72B22A20F3
:101A58000023214608F0E4FF0F35E8B208F012FE33
:101A68000246442021460CF0EFFA3546E5E7C44823
:101A78000CF0FBFA02982870C24800250570202057
:101A880006430696C04FEEB2082E68D2E800C4B2EC
:101A98001820412221460CF06DFB28463130C2B295
:101AA8001E2021460CF066FB30460AF063FB024616
:101AB8002A2021460BF068FF032E04D830460BF08D
:101AC8008FFA401E02E0062E28460CD8C0B240000D
:101AD800385E19214143080E081802125A2021467F
:101AE8000CF061FB04E05A202146069A0AF0F2FF46
:101AF8006D1CC8E7A5480CF0B8FA029828707B421C
:101B08007B414624A24D285D4006C00F0821A14A0A
:101B18000CF091FAC007400E295DBF2277E12A2414
:101B2800202E9D4D285D9D49087000D1F0E1BF2E03
:101B380000D1F9E100E2102099490CF09EFA002446
:101B4800E0B206281DD2E1003822551A08F09AFDA5
:101B58000246E9B220200CF077FA641CF0E78F48BF
:101B6800029901708F480078002800D1C3E2302420
:101B7800874D28577E21C9437F220BF0C9FB285582
:101B8800B9E254201821884A0CF008FB0025EBB272
:101B9800032B00D9AFE2E8002030C4B2542021461C
:101BA800824A0AF003F86E00B01DC0B208F06AFD60
:101BB80002466C2021460CF047FAF01DC0B208F02E
:101BC80061FD0246782021460CF03EFA6D1CDEE7E6
:101BD800234642B26020102108F022FFB81E42427C
:101BE80042414C25705D4006C00F18210CF011FAD7
:101BF800C007400E715DBF220A401018705520259D
:101C08000321E7B2022F31D23046002F01D05030E5
:101C180000E0483004780A988142089106D160B201
:101C280078210BF0E5FA0446069B00E00023E6B2B3
:101C3800052272430995EDB2662029460BF036F964
:101C4800002E04D07820732229460CF093FA002F36
:101C58004F4E304601D0503000E04830099D089979
:101C680004707C1C0835481CC1B2CAE70A98401F9A
:101C7800424242414624305D0007C00F30210CF03B
:101C8800C8F9C007000F315DF7220A401018305517
:101C980031E24D20285C4023C2B2662020210CF09E
:101CA800A7F8042E00D098E04E24285705210BF001
:101CB8009FFA285540210F4392E0092F01D30827A6
:101CC80027700A973A4803210170314C5F34082184
:101CD80005260027042F00D10DE200200090CDB288
:101CE800FBB21E2009912946324A0CF019F9F6B2C6
:101CF8000A98801B414241412F48007800910423F3
:101D08002946224607F0E8FF0999241D7F1C08315F
:101D1800761CDFE7FEF900000698002805D0099D2B
:101D2800605717210BF064FA605500252F46042DE3
:101D380071D01826304678432430C0B2EBB2202147
:101D48001A4A09F033FF5E20205CE840C00707D03C
:101D58006E432436F0B22021122200230AF068FBD9
:101D68007F1C6D1CE3E71820EF490CF086F9C2E1EF
:101D780025EB0000F6FB0000E6F10000EEFC000099
:101D880016FD0000870E00207804002062FB00008A
:101D9800520C002036FC000042030020330E0020C5
:101DA8002BF500003C0E00203EFC000012EE000067
:101DB800770E002083F70000490E0020042F00D082
:101DC800D2E04A2428570921C94328220BF0A0FA57
:101DD80028552021069B0B43C9E04E20285C40274C
:101DE800D9490091C2B2662028213B460CF007F978
:101DF800701F434243414624285D8007C00F3021AD
:101E0800D24A0CF055F8C007800F295DFD220A4020
:101E1800101828556FE10A98032800D0EBE0B8485D
:101E28000078C00709D05E2560570F210BF0E0F954
:101E38006055C4480078400605D423201F215C2241
:101E480009230BF03BF94420205CECE02F24AF4D34
:101E580028571E2178220BF05BFA2855402333437C
:101E6800C2B2662008210AF021FE4525A74C605D14
:101E7800012F08D140B20921C9436E220BF048FA5C
:101E88006055334600E0002342B20A327020102128
:101E98000BF0AEFFB81E424242414325605D012768
:101EA80038401821A54EB04733463840615DFE22C0
:101EB8000A40101860550A9EF01E424242418807A7
:101EC800C00F20211F469847C007800F615DFD2283
:101ED8000A4010186055301F424242414807C00F5F
:101EE8002821B847C007400F615DFB220A4010183F
:101EF8006055701F43424341C8093021904A0CF095
:101F08009AF8C001615D7F220A4010186055F2E01E
:101F1800401C7C490855C1B203290DD117200BF08C
:101F280071F901200AF08EFC76480021015518202D
:101F38007C490CF0A2F8DCE0C0B20028F7D00228F7
:101F480000D190E0012800D0D3E00024724E734FF6
:101F5800072C00D1BAE0AE83EF81E0B20AF00AF9AB
:101F68002880AD1C641CF3E74A20285C20236F49B5
:101F7800009140B20A3082B24E20302421460CF043
:101F88003EF832356A4E902C10D0287869780902CC
:101F980008183188081A400002B2E0B2382120231C
:101FA8000BF026FFAD1CB61C1834ECE7052F52D1F8
:101FB80001986028029C4FD15D4908883222534C11
:101FC800A0545C4A002313703234CA88A2718B88EB
:101FD80023714988A170120AE2711A0A6271090A0A
:101FE800E170000A6070012420460AF02BFC1720DB
:101FF8000BF008F930E044250428605D13D14D4901
:102008000978002979D040B203210BF0F1F8615D1D
:10201800C2B202238A4207D060554C21625C7F25F8
:102028001540655400E000233130C2B21220282147
:1020380006F092FD0024E0B203285CD81825654319
:1020480024350AF0CDFF0246E8B22821002308F023
:10205800A1FB641CEFE7002400203821364A234600
:102068000BF064FD47E02848002101700D20C043B3
:10207800264D00282DD023490A18135F1C26965F89
:10208800F71AF9177F184F40332F1DD399B2B3B2FF
:10209800D689891B0AB2920E8A1812B29209891A35
:1020A8002A182B27D155D673370A1774F31A1EB27C
:1020B800B60E9E1936B2B6099B1B5377090A164607
:1020C8002B367170190A9177801CD2E710201449B9
:1020D80008E00AF045FE2B2168542B35000A687089
:1020E80010200B490BF0C9FF12201821094A0CF0E7
:1020F80055F808F0B1F90BB0F0BD089B94E7C0465D
:10210800850E002042030020870E0020520C00207C
:1021180095F70000DDF7000068C50000983A000058
:10212800C7F90000FFF7000088FC0000DEFA000095
:10213800580400203C0E002012FD00002DE0000095
:10214800D5F900004B0E002010F8000031FA00000D
:10215800F0B59DB0029002200A46149002401392F6
:102168002020084006900126039131401291442016
:10217800D449085C8006000ED3490818119009203C
:10218800C043099000271BA81A90D04C10971797A6
:1021980016971596072F00D1C5E0FCB2204609F026
:1021A800E9FF00B21994214608F07AFC0446032F8F
:1021B800384604D82009C649C8551198C05DC5B22B
:1021C8006B00C448C452200F201800B20009010651
:1021D80001D5404200E080B20006BF4988420CDCCD
:1021E800002802D0BD48007800E0FF200121A94066
:1021F8000140C8B2169901431691032F29D81298A5
:10220800002818930DD1B148007B800709D5AD4847
:10221800C6183A20305C3A36717809020818810BE2
:102228003FD1179E0698002803D0AD48C018F82162
:10223800445221B2284607F0E1FB0446A948007839
:1022480019990BF032FF189B40001A9908801796CD
:10225800159E0698002803D0A148C018E0214452D2
:10226800032F01D8002000E00120139900293146EE
:1022780000D0014600290ED1022D0CD00A2C02DC18
:102288000998844204DA9648C018E0210022425294
:102298001BA80021C1521A98801C1A907F1C8B4CD5
:1022A80078E7000200B2C0120BF054FF00282DD0CE
:1022B8008D480078002829D03078717809020918EB
:1022C80048070B460F91000F7E49091832228A5C95
:1022D8003231497809028918844A105A401A81B261
:1022E800C90B401800B24008990009B2890A414355
:1022F80008B21F210BF0A8FB86000F98800B02285C
:1023080007D00128189B06D1341904E0179E189BA2
:1023180088E73446189B022D00D0179E022D81D1E4
:10232800012010907EE7607CC0071AD06D480078C5
:1023380002210BF0BAFE04460AF036FE002800D04F
:10234800644260B27D30E421654A515E0122920206
:10235800511A4143C817800D0818800A1BA98880A4
:102368005A4C0126B00205900698002800D1EDE0ED
:10237800647D1698044059480078FF2141400C427A
:1023880002D018200AF03EFFF0205549059A0A525B
:10239800EE200A52514804704C48007E002830D084
:1023A800E2244F4A115F4943E627D25F524355184A
:1023B80040B20BF0FBFD03464043854221D91A97F2
:1023C800F00301468AB25243AA42024600D80022CC
:1023D8004A400004400C114601430028F2D1404F06
:1023E800385F584395B229461F460BF02DFB3C49F0
:1023F80008531A9C085F784329460BF025FB384997
:102408000853324CA37D202B00D29FE00020139963
:102418000029024601460AD1E621314D695A1BAC12
:10242800E2885218E221695A64886118274CE47DD1
:10243800002C0CD0601EC4B26000142C03D32C4CAA
:102448000019283802E0264C2018E0300088DC0605
:1024580000D540421C0700D552425C0700D54942CE
:102468005B09022B06D0032B29D0042B42D1831AF7
:10247800841862E00BB2DB0B9BB25C0B0C1924B224
:10248800E4086442A4B28DB264195D0A4D192DB2F4
:10249800ED096D42ADB264199B09C91809B2890AE0
:1024A800494289B2611893B2DB0BD3181BB25B089F
:1024B8009BB284B2E418631A641811463DE04418CC
:1024C80039E0C046520C002076F80000C80400200D
:1024D800210E002078040020FFFFFF01510E00208C
:1024E80008FCFF1F9B0E00203F0E00205804002010
:1024F8001004002013B2DB0B9BB25C0B141924B23E
:10250800E4086442A4B295B264195D0A55192DB263
:10251800ED096D42ADB264199B09D21812B2920A44
:10252800524292B2A2188BB2DB0BCB181BB25B08DB
:102538009BB284B2E418A31AA418F622FB4DAB523E
:10254800F422AC52401AF2216852F94CF949F6319A
:10255800179800B2002500918842304600DB2846D3
:10256800109909061599019100D00190402003990E
:10257800014003911A34B0040D90032013904004D5
:102588000C90F0041090B0050790192008904005B1
:10259800E9492E460490102D00D1A0E300201190A7
:1025A80016952078401EA8421A9600D0ABE21498DF
:1025B80020560BF0BCFD1890F1B2DC481791451875
:1025C800C020285C1990C035139820560026159F06
:1025D8003946324604F0F8FEE17800290ED0012190
:1025E8004840D6490978002900D0074662780D3A54
:1025F800082A00D30746002F02D009E0002807D098
:10260800617A1F200840CE4A1278D040C00728D0EF
:1026180060782E700146083902290FD26179A279B3
:1026280012025118E279120489180C9A11400D9A75
:10263800914212D1169DC0491A9EEBE12D28169D94
:102648001A9E08D117988000B8490818F849119AB5
:10265800514309120164B849DCE1092821D0374601
:1026680021E0199E70424641631C6278501EC0B238
:102678000B280E93199619D84100AC4A5118E0223C
:102688008F5A012603284ED86079A27912021018B1
:10269800E27912048018079A104244D0F8200F5AA1
:1026A80041E0A44FE237601C0E903CE0132811D89B
:1026B8000D3AD0B241000328DE48405A08D8DE4A15
:1026C800511832228A5C3231497809028918401A35
:1026D800470027E023280DD86179A2791202511802
:1026E800E279120489181438079A4000114217D069
:1026F800D24916E0242809D149B2C8B2400900D10C
:10270800DCE1002900D5E2E10E21E1E12B2800D926
:10271800CDE1400086494018C9494056C70001E04C
:10272800C8490F5A01262E706079A1790902081844
:10273800E17909044218631D10980242129315D1D9
:10274800207A00281A9E12D040B27C21C9437D22EB
:1027580009F01AFE0BF02AFC129BC7191878597851
:102768000902081899780904421800E01A9E100412
:1027780000D1C5E06E48407C00070F9201D51420B7
:1027880000E064200A90179A550068490B954E5B43
:1027980090000A18156C280A381A01B20A2902DCB6
:1027A8000998814206DA002E05D100260F98000606
:1027B80004D100E000261998002824D00F980C991D
:1027C80008400D99884213D1207840009D4940184F
:1027D8000121C943405E08998D0245431899002993
:1027E80006D0284615460BF02FF92A46129B0546B7
:1027F800280A381A010409D000B20028199009D40F
:102808000F98000907E019910B9909E00020199029
:102818000B9905E00F980B990F2606400A98464336
:1028280042484018403231B201290BDB8649097809
:10283800002900D0761E310402D006802F0A2BE032
:10284800099E093619990680002925D01795187808
:102858005978090208189978090445182804000EBF
:1028680018D07948007800281A9E17D00F92189926
:102878000029049A104607D0C81109184140C9B266
:1028880010460BF0D9F9129B0B901998002807DC19
:102898000C2106E038B205021A9E29E0179D19E0BE
:1028A80008210F9ACD400F20284007D002461999D9
:1028B800002906DC0B984042179D04E038B2050257
:1028C80008E0179D0B980A9951430BF0BDF845197C
:1028D800129B0F9A38B22912199F012F01DB8142EE
:1028E80004DC199F002F02D5814200DA05022F0A65
:1028F8001560187859780902081899780904421857
:1029080004202156100200121CD41A20C043814210
:1029180002DB1C2900DA80E07F20C043414038B246
:102928000BF0B0F8129B0746169D2AE008FCFF1F23
:10293800C80400201EFBFFFFB4FDFF1F3F0E002050
:102948009B0E002008460BF0F2FB01280BDB3AB285
:10295800002A08D56421081A424310460BF074F87F
:102968000746169D0CE00028169D09D539B20129A5
:1029780006DBB9B26430484364210BF065F80746BA
:10298800129B187859780902081899780904401890
:10299800C1030AD40E9909784A1E032A05D84900AA
:1029A8001BAA8918891E0988CF1939B2189F4F4365
:1029B8001099084216D0217A002913D048B27C21F8
:1029C800C9437D221D4609F0DFFC0BF0EFFA6421B4
:1029D8004143CF192878697809020818A978169D03
:1029E80009044018C5494003800F02280DD001286A
:1029F8000DD1642138460BF027F8C049119A42439B
:102A0800D017800D1018801203E0119702E011987A
:102A180038181190761C0A34C3E506291BD8169D70
:102A28007944097949008F44111224282D343A0039
:102A38008F02000058040020520C0020F0030020F0
:102A48006F020000100400202D0E002099E738B214
:102A5800002896DC1BE00029169D00D57F4200293E
:102A680001D50620411A38B2C91FC9B20AF04DFE75
:102A780085E738B2C013074083E738B2C0133F1860
:102A880047407EE738B20028059F00DD79E7002738
:102A980077E79848E23039B2CF13074071E738B288
:102AA8000028059F00DD6CE7924FE23769E72C2884
:102AB80018D1642111980AF0C7FF19E0122007F015
:102AC800E1FD0126002815D08A4FE2372BE61121B7
:102AD800081807F0D7FD0028059F00D022E6854F8B
:102AE800E2371FE62E3AD0B200210A4606F074FCFF
:102AF800074617E6132007F0C5FD002801D1059FFA
:102B080011E600270FE600227B481792027008782A
:102B180000281ED00F466426119831460AF094FF0B
:102B280001467248007840003818C0884843A90018
:102B38007918069A002A01D10A6980180861039950
:102B4800002900D1C7E06D4989880AF07DFF464316
:102B580000E0119E642130460AF076FF6A0064495D
:102B680018928852052068435F4D2918AD2040000F
:102B7800199111900B18D97804200E901A56120248
:102B880052182B210901695C4D42AA4200DB154607
:102B98008A4200DC294601200F901B560A256B4308
:102BA800059FFB185B18183B18B2E237B84200DBE8
:102BB8003B4618B21290824200DC13461998119ACB
:102BC800805645434B4A50194518FA3528B2904269
:102BD800179F00DC474D18B229B21191884200DBDB
:102BE8001D46002E0CD0002E02D41298401B01E086
:102BF8001198281A00B2704341490AF025FF074688
:102C080028B2404DA847C61937B21298A8470546BA
:102C1800874200DC35462FB211983A498847064664
:102C2800874200DB2E46572080001999085C00284F
:102C380000D07642169B9F2080002B4A105C1F21F3
:102C480001401020401AC0B283423CD2189815188F
:102C58002D4AA85C8000010635D0AF1840B280101C
:102C68000BF078FA39788A090146032A24D3002818
:102C780017D11C4A0E9BD25E1B4B244FDB5D9B0673
:102C880004D4009B9A4207DB159A08E0D313D218A4
:102C98005A4012B2142AF7DA019A0F9B5A40002AB6
:102CA80003D1012250401A4A1070194800780028B0
:102CB80000D10F9910480170002904D015482856F2
:102CC8000BF074F906460BF085FA029818994652EB
:102CD8000BF07EFA169D6D1C08491A9E5BE41DB028
:102CE800F0BDC04678040020C80400209B0E0020D8
:102CF800100400201EFBFFFF830E0020B4FDFF1F01
:102D0800A086010093E000007D020000730300002C
:082D18005D0E00207E020000A8
:102D2000F0B587B0FA4800250570FA48008803908E
:102D300008F07AFBF8480168F84A12680260501AF5
:102D4000F74C2070F748294605F094F97C20C043E1
:102D500004902078002800D1B0E2F34801780029DF
:102D600001D0491E01700BF079F8F0498A88904231
:102D70002DD14520EE4A105C0A3002062CD0ED4AD7
:102D80001278322A28D30A78521C0A70D2B2102A3A
:102D900022D300220A704A88521C4A80FF217831CF
:102DA000C0B2484380B291B2884215D21F2002407F
:102DB000012A11D1E0480178FD220A400270062064
:102DC0000AF018F810202D210AF0E4F804E04D80F4
:102DD0008880DA480121017002F0EAFD0AF02AF841
:102DE000D7480178002901D0491E0170284605F016
:102DF000B5FA0AF0D9F9D348047805700F202040BD
:102E0000801FD1498E7C042E03D0032E02D10426CC
:102E100000E00826C0B2072804D8F021214020296C
:102E200000D087E040202146014340291AD1059473
:102E30000020C643C54C2078411CC8B288423746A2
:102E400000D107460AF076F8002800D10746F8B20C
:102E5000C82800D03E462670C82801D0059C01E055
:102E60004220C4430C20BA4E325EBA48415F891AF0
:102E7000CB0EC9184909090493B2294606D003802C
:102E80000421415E891ACA0F891849108380B24A09
:102E90001278002A00D029464622A54F0292BA5C39
:102EA000920600D529464180AC4D68796978091AA7
:102EB000CAB2D2098918FE220A401018687148B2B5
:102EC000401028722043C0B208F09CFBA448007850
:102ED0008000A44909585C20385CC01DA24A914278
:102EE00000D0A9E0A1490978002900D0A4E0297AFE
:102EF00000290DD000222A720622AA5649B2511882
:102F0000049A914200DC11467D2900DB7D21A971E4
:102F10009F2189008C4A525C510900D18CE050B24B
:102F200000287DD448008019C08801218A028018B9
:102F3000C9027CE044217E4B595C89008C4A5118BF
:102F40004008085C5D21595CC90701D00321081ABB
:102F5000C7B28848007839460AF0F9FC0290394631
:102F60000BF0A7F8002E08D1C11342184A4011B245
:102F7000890F511889B289084E1C0697022F11D16A
:102F800046216B4A515C7C4A6F4B9A5C92094A40DD
:102F9000D2075B7C0121194000D00226002A02D012
:102FA000764200E00021E20772B2059400D152425D
:102FB000121893B25C1EA3411446444024B2049EEE
:102FC0007C36B44201DC002400E0012423400B43A2
:102FD0000FD100280DD00027029806993A4608F034
:102FE000BFF905980AF02AF816200AF00FF93C46B6
:102FF0001DE717B238467C3080B2F82869D80298AD
:1030000006993A4608F0ACF978B2C0113918414037
:10301000C8B281083C3115200AF020F9002406E7E7
:10302000480049494018554940567D30FA2182B23E
:10303000072050430AF004FE51490978C0B2884283
:1030400001D009F0D7FE4C2038560028FB4B0594E0
:1030500024D51878002821D0F94800780028FD4AA6
:1030600000D193E00024474E3057002801D4401C83
:103070003070022008F0F4FA7F270146394012D060
:1030800032788A4222D9347005990906F14AF44B04
:103090007CD140B2002839DA632076E0F148002183
:1030A0000170EC4A72E0032008F0DAFA07400DD014
:1030B0003178B942E74A0AD9347005990906E84BD4
:1030C00064D140B200285FDA64205EE0E14AE44B5C
:1030D0005CE0002F01DC049A00E07D220699029852
:1030E00008F03EF938467D3080B20024FA2800D935
:1030F0009DE678B2C01139184140C8B280083C2121
:10310000081AC1B215200AF0A9F890E662203CE046
:103110009C0E002042FFFF1F60FFFF1F54FFFF1F98
:103120002D0E0020F0030020370E0020AC040020FC
:10313000520C0020480E0020850E0020300E00208A
:103140003F0E00203A0E0020C80400207B0E002015
:10315000780400209A040020330E0020100E002076
:103160004A0E0020E0FEFF1FB9340000250E0020AB
:1031700076F800009B0E002073030000B7020000E9
:103180009A0E0020580E0020652005900120019025
:103190001870AD790020BD4FBD4BC4B2072C1ED2B4
:1031A00060001618F05D002817D0052829460BD0BE
:1031B00006962E463D461F4607F0DCFD3B462F4651
:1031C0003546069EA34A014648B20499884200DC6F
:1031D00008467D2800DB7D20F054601CDDE7A24D11
:1031E000286800280ED00024214608F0DDF90AF0F6
:1031F00094FF9E490A78012A944E1ED1002820D1BE
:103200002C601EE099490020087099490C78002C28
:103210008E4E04D00870172009F0F8FF05949548E9
:10322000059A02709448142101708B480078800040
:103230008A490958D0B2884703E0002801D0019894
:10324000087007F053F98D4800781F2101400229CA
:1032500031D18B480478103404700E208949085EFF
:10326000410F411809B2C9083022B2564A43000141
:10327000101880B2A52149000AF0E2FC744D2978AB
:103280000818401C40082870210614D12F21715CB9
:10329000C0B281420FD911202E2109F07BFE28787F
:1032A000012124220AF008F90298305C000702D5B7
:1032B0007548322101806448002101707548017809
:1032C000032901D1002101705E4800880399401A4A
:1032D00082B271490B889A4200D908806F49C87838
:1032E000002800D19CE06E480188491C0180002024
:1032F000704DC7B20B2F00D98DE0032003907843A7
:1033000054490A184B20C0001118059165495318FB
:103310000292115C0F2608463040634A1018401E86
:103320000078032806963BD17800604A125E002A96
:1033300002D009D4541E1EE000229C56002C1ADB39
:10334000E2430A24544316E092B2541CA2B2A242B1
:1033500011D01E4603227A433E4B9A18544BD25644
:10336000002A05D4521C52B20A2353435C1E00E0CB
:10337000D4433346069E4D4A121808090FD0082838
:1033800001921E4600D9401C0AF0E8FE002801D137
:10339000049C7C34059801783346069E019A14807B
:1033A00031400C292E46ED5D08D1002401931857B9
:1033B0000AF0D4FE002804D001240DE02C46354646
:1033C0000CE00320784323490818394940560AF095
:1033D000C5FE002800D12C463546019B069905986C
:1033E000007808400D2813D1002018560AF0B6FEC8
:1033F00000280BD0A0070BD42D48029908560AF0DC
:10340000ADFE0028039C03D1022401E0FD2004400E
:10341000EC55781C6DE709F03DFD00201F49C87090
:103420004878002807D0002048700E48017800290D
:1034300001D0491E017007B0F0BDC046870E0020C4
:10344000860E002042FFFF1F300E0020520C00208D
:10345000480E0020C80400204A0E0020E0FEFF1F96
:10346000870E0020860E002080FFFF1F590E0020CF
:10347000920E0020840E0020880E00204B0E0020AB
:103480005A0E002048040020B4040020BA020000B4
:10349000B9020000470E0020B2040020B90E00203F
:1034A000BA0400205602000025F900003004002074
:0834B00057020000F00D00209E
:1034B800F0B587B0E449002206920A7042210391D0
:1034C800E249CA7C0F21154604910D40E04E31783F
:1034D800002926D01420DF4E30560AF03BFE044661
:1034E800DD4F002804D03878002801D105F0A2FE6D
:1034F8003C70E8B2029001286DD0D4480478D748CF
:1035080005780A27782F08D03278F8B200210423EA
:1035180005F022FB761C0B37F4E7A54229D3842259
:1035280028E0702111400346803B0E2B00D8E7E0CD
:103538000346203B0E2B00D998E15B007B449B8817
:103548005B009F440F000E00FB01FF0109021B02F4
:103558000E000E000E000E000E000E000E000E00F3
:103568000F00B7E7012DB5D100247470012535701F
:10357800E0E0862225201025294609F0ABFA26200E
:103588001826562231460AF0F5FD5D200024042352
:103598002946224609F032FD332031462246234689
:1035A80006F040FD09F06EF800280CD002462624EB
:1035B8001021204609F0B0FB25200F2109232246BF
:1035C80009F07CFD07E0A348837C009426201021A5
:1035D800A34A0AF0A5FC069EF5B2042D6ED2284631
:1035E80009F0FEFC04469F48007829460AF05DFD74
:1035F800C1138A0F821812B29710002801DC3846CE
:1036080000E001203A0600D1471879B21B20C043D8
:10361800814200DC074678B21C2800DB1C277F208B
:10362800304091490919491E0C7801280BD002280D
:1036380021D104213622204607F0ACFAEE48407C1E
:10364800C00705D014E004213622204607F0A2FA6C
:10365800601EC0B21E25069603262946324607F08C
:1036680099FA601CC0B229463246069E07F092FAC3
:103678001F20C11B18E020461B38C0B23B21059112
:103688003622EB4B9847601E0696C6B23A210325B0
:1036980030462A46E64B98473C213046069E2A4645
:1036A800E34B984705993C19E01EC0B2C91EC9B240
:1036B800072213460AF024F9761C8DE702980028A1
:1036C80014D0012800D095E011200090082400268D
:1036D800C94A0A23204631460AF099FAD5480078A3
:1036E800C6490978814229D3304628E006F0B4FE5D
:1036F800BA48057806246C43002D56D1284655E073
:103708005B00C0467B449B885B009F440F00EB0036
:10371800F100FC0003010D010E000E000E000E006A
:103728000E000E000E000E000F00D3E60024747089
:103738000221317009F07EFCAE48A9E00120420068
:103748005420314609F0C6F96F20314632463346D7
:1037580009F054FC3026304608F0C0FA3F202146D4
:10376800324607F017FA0720C743002F42D0A24875
:10377800C019A549405C002815D03E460836451EAC
:10378800E8B207F0B9FA03460020009004980190C7
:10379800F007204600D00398B2001032782111407B
:1037A8006AB204F0BFFA7F1CDFE7E01CC1B20A204E
:1037B80009F0E0F9002D05D0A01DC1B2642009F080
:1037C800D9F917E0642428268D4A204631460AF0A4
:1037D800E5FC72250722284631460AF016F93026FC
:1037E800884A204631460AF0D9FC04222846314648
:1037F8000AF00BF9774C2078002871D0012806D1FF
:10380800824803210E2205F005F9052105E08048CC
:103818001F210E2205F0FEF800217E4A0023937036
:1038280001285DD1A0784018C0B2062858D8C046F3
:103838007844007940008744032D364145494E00BD
:103848006B4808F09DFE4BE0870E0020810C00209D
:10385800250E0020C80400205B0E0020480E002022
:1038680021F800009B0E002002FD0000612800D115
:1038780095E0BF2800D02DE60124574E2046B047DA
:103888000320B0470220B047544800210170544833
:1038980004701FE6644803705348012101706348AF
:1038A80008F06EFE1CE0012090705D4800788000F2
:1038B8005C494018406808F063FE11E04B4808F086
:1038C8005FFE0DE0474808F05BFE09E05A48808833
:1038D8004042524903E05848008840424E49088017
:1038E80007B0F0BD09F098FC0AF04EFC172061E023
:1038F800012001434F48C174172009F083FC82203E
:1039080009F098FBECE7374808F03AFE832009F005
:1039180091FBE5E7344801210170354808F030FE95
:10392800842009F087FBD5E52F48012101702F4835
:1039380008F026FE852009F07DFBCBE5002D31D06F
:103948006D1E30E06842454129433A48C174A120C0
:1039580008F078FF13202DE004980240012A2ED0A9
:10396800002A00D0B6E51D480178491C4AB2002556
:10397800022A2A4600DC0A460270ABE50498024097
:10398800012A1AD0002A00D0A4E514480178491E5B
:103998004AB2002A00D50221017000259AE5012DBE
:1039A80013D097E5012529432248C174A12008F0C6
:1039B80049FF142009F026FC8CE5303100E0103175
:1039C80030200840401C1B49C874172009F01AFC15
:1039D80001257FE5250E00203DD00000790E00204E
:1039E8005B0E002085980000330E0020C9140000EB
:1039F800D95C0000840E0020C8040020480E002076
:103A080040FD00003DFD0000B902000035F7000050
:103A18003DF00000290E0020C2040020C60400204A
:103A28004A0E0020E0FEFF1F890E0020110400004E
:0C3A380073E10000810C002094FDFF1FD2
:103A4400F0B58FB004463148007809F06BFC0546A8
:103A54002F4F0E22384607942146FCF72FFB2D48A2
:103A64000AF005FB2A78801DC0B2002421462346B3
:103A74000AF0F5FA3F57384609F0BAF80690264896
:103A840002780820254902900AF014F92B46F8B26E
:103A94000890E0430390691D0D950591E0B2072855
:103AA40000D31DE206982018C0B2089981420C94F4
:103AB40001D0002601E01A490E780E2800D90CE244
:103AC4000C99CD002C460834810001A251588F4630
:103AD400293B0000493B00005D3B0000713B0000B6
:103AE4008B3B0000A53B0000C73B0000FF3B0000F0
:103AF4005D3C00007B3C00000F3D00003F3D0000AA
:103B04005F3D00007F3D0000A13D00007E0E0020CF
:103B14006C0E002045FB0000360E0020CBEB0000AD
:103B2400910E00205D78E1B21C46F3B25420224687
:103B340007F0FAFE252D00D043E1607A45092535CA
:103B4400234642E102201A56E1B2F3B260200AF0A1
:103B540024FA0D9B9870C0E102981A56E1B2F3B2B0
:103B640060200AF01AFA0D9B1872B6E1059DA87838
:103B7400E1B2F2B20007C00F0AF04DFA0D9BC00784
:103B8400000BF721D1E0059DA8784006C00F5978B5
:103B9400042900D929E1E1B2F2B20AF045FA29E197
:103BA400059DA97801200840E1B2F2B20AF03CFA7E
:103BB4000D9B7F214904AA7812040A40C007C00B58
:103BC400B7E0059A10785178090208189178090429
:103BD4004018C50D000200120399884200DC1CE164
:103BE400042018561A21C943884203DB1B28C54AFE
:103BF40000DA13E10225C44A10E1059A10785178DD
:103C04000902081802215156090440180425039991
:103C140088425F5700DC1FE11A20C043874202DB61
:103C24001C2F00DA26E17F20C04347404020304368
:103C3400C3B2E1B266203A460AF0DCF8300606D098
:103C44006320C1436422384609F064FB07460D9B98
:103C540080207840187140E1F3B2581E1946814122
:103C640003200D9A12560091E1B24E2009F02AFF6A
:103C74000D9BD87031E130060A9002D004209B4994
:103C84000870072009900543049500260121F7B226
:103C9400042F00D921E1587A0E9108401F210B917D
:103CA400084043424341099D754328463F30C0B212
:103CB400E1B232463032D2B204F050FF0A98002802
:103CC4001DD08B480078B84219D10498C1B23E3552
:103CD400E8B20822092309F0F3F907982E2801D045
:103CE40020280CD10E980B9A02400D99487A504026
:103CF4004872022008F0A8FD00207E490870761C56
:103D04000E980006C10D0D9BC1E70899081A43429D
:103D14004341059DA978E0B249078A0F724906F02C
:103D240055FB0D9B8007400BF9210904AA78120466
:103D34000A408018000CA870CFE0059F3A780F2540
:103D44002A40E0B2F1B208F0F9F90D9B2840397825
:103D5400F0220A4010183870BFE0059D2A78E0B2BE
:103D6400F1B21206120F08F0E9F90D9B000129784F
:103D74000F220A4010182870AFE0059D6A78E0B25F
:103D8400F1B21206120F08F0D9F90D9B00036978FD
:103D94000907090D4018000A68709EE0059F7A78AB
:103DA4000F252A40E0B2F1B208F0C8F90D9B2903AF
:103DB4007A7812020A400007000D8018000A787011
:103DC4008BE0252D00D9AD1D0D9B300600D184E07C
:103DD40068B20121372209F09DFA0D9BC1B2252951
:103DE4007AD32C2970D3801F76E0E1B2F3B2474A2C
:103DF4000AF060F829786A7812025118AA78120435
:103E04008918384A114029700A0A6A70C007400AA2
:103E14000843000CA8700D9B5FE0394AE1B2F4B28C
:103E24000620234609F084FE002C0D9B55D0022168
:103E3400284609F0DFF90D9B85424ED0811E4A4287
:103E44004A41D1011971C005059A91784906490A78
:103E54000818000C907040E06420F1B200900191C9
:103E6400E1B26320C34348203A4606F083FB0D9B2E
:103E7400187132E0E1B2F4B20C203A46234608F05D
:103E840069FA0D9B002C28D058570F21C9431622DC
:103E940009F040FA0D9B1871079960291DD1072874
:103EA40007DBC01F14490870144808F06BFB0D9B16
:103EB400187941B2002910D5C0430F4908700F4842
:103EC40008F060FB0D9B08E0597A1F220A4040016C
:103ED400801860305872252058700C9C641CDDE5F5
:103EE4000FB0F0BDFFFFBF00E3F50000770E002028
:103EF400490E00203C0E0020800E0020C9880000DE
:103F0400D3FC0000AFFC0000D9FC000070F90000F5
:103F1400F0B58BB00546E1480AF0A9F8E04C2078EA
:103F240000281BD0DF4A117A002010724AB2012AFD
:103F340001DB622200E06322002900D01546DA4941
:103F44000978002901D1632D05D0D84A125691422F
:103F540002D1622D00D10546D5480570D5480078B8
:103F6400002805D1D1480278CF482946FCF7A6F8A5
:103F7400CF4E3078CC4909780691012103912E283F
:103F840003D0BF280AD060280AD1C5490A78002A7C
:103F940040D0F948002202700A70F84C00202070CA
:103FA4000295069840B208F023FE0146F8480078CE
:103FB400002801D000203070F148007800280791D3
:103FC40040D0F2480778622F01D0632F3AD13E46A1
:103FD400623E701E34468441EF480578284609F055
:103FE400A1F9002D0AD1002C08D00178022901D3AF
:103FF400491E0170022008F027FC23E0202D21D85F
:1040040001D1622F1ED00021622F0A9107460BD0E6
:10401400C8430AE0DE4909780029C1D109F00CF847
:10402400002003903446B9E701202D18E8B209F0C6
:1040340079F93978002905D0102903D80278102A93
:1040440000D875E1012000263546C1B2102900D9F7
:1040540009E10A910890F0B2099009F063F9079B0D
:104064000446EFB29F420BD3F81A062808DCC000BE
:104074000830C1B2012000230A9A09F0F0FF079B1F
:1040840009981F2800D9C4E020780A99884200D0F2
:10409400BFE0BC4A0F46E8B2984200D2AFE0C11A72
:1040A400062914DCCF00B64909780022002927D15B
:1040B4000699C9B2814223D10898B9490870B64813
:1040C40006700398002813D0B148007816E0072939
:1040D40000D094E0AA480078002800D18FE0AF48CF
:1040E4000078F1B2884200D089E01078401C81E069
:1040F4000120A7490870002202924A7042424241BC
:1041040005920837F1B209980491884209D0E07900
:1041140000210091F9B24007830F1320A54A09F04A
:1041240001FFFFB2302000233946224607F0FCFB92
:10413400022022562D203946059B09F02EFFA0703F
:10414400E078002805D042B248200023394606F022
:1041540069FC207900281DD06179A27912025118D6
:104164000722A256120489180BD401461B31C9B286
:10417400362909D842B260200023394608F0EAF80B
:1041840008E06020642201E06020452200233946D3
:1041940004F0E4FC6079A17909020818E1790904C2
:1041A4004018FF210902014001D0532200E02022DF
:1041B400002901D02A2100E04421000600D00A464B
:1041C4007920394609F0D8FF6D480078002813D0CB
:1041D40072480078049988420ED118206622002380
:1041E400394608F027F96C48067028460695654A52
:1041F400079B0A9F107002E0624A079B0A9F6D1C8E
:10420400F0B21E2823D8761CA07A0A34B8421BD1F7
:1042140041E70698C0B2B84215D15F4806700898C5
:104224005F490870E81AC000C01DC1B200241922F9
:104234000923204608F044FF0398002803D108F01E
:104244005BFD002805D06D1C0898401CFDE6202667
:10425400FAE751480078214606F0C4FD4848047046
:10426400504808F08FF94A48007800285BD002983B
:10427400464C20704C483F210B2204F0CDFB012812
:104284004AD14348807805282FD8C046784400791D
:10429400400087442011222A2E33C046A9FC000086
:1042A400380E0020100E0020750E0020390E00205C
:1042B400840E0020250E002008F01EFD00280AD1DF
:1042C40035490878401C0870C0B20024214606F025
:1042D40089FD2B480470334819E02F490878401CA5
:1042E4000870C0B2012106F07DFD01202449087048
:1042F4000FE0294800782D49087002E02B48FF217F
:104304000170207808F098FE00202070284808F0FA
:1043140039F900201E4908701E48002101701E480A
:1043240000781E490870681E174908700BB0F0BD6C
:104334003B468A420BD10A210A060CD002781C465D
:104344001B7803702270631C401C491EF4E710297B
:1043540004D30A9A03E0114805704BE60122704227
:104364007041104002462243012A00D042E6091B54
:10437400081818703EE6C0463C0E0020890E002046
:10438400380E0020750E0020390E0020840E002007
:10439400250E00203C0E00207E0E00207C0E002006
:1043A4007F0E0020453A0000C6F30000440E0020B2
:0843B400A9AF0000FDFC0000B0
:1043BC00F0B58BB00990FD4809F055FEFC4C207807
:1043CC00421C4E200025294609F0EBFE21780922DB
:1043DC00104607914843FC490C18FC4FE05D400720
:1043EC0000D00A22FA4E30460999FBF763FEE71912
:1043FC00F84820187457052C0A90089411DC3D4697
:10440C0007460820EF4909F036FEF448067808F014
:10441C000BFF3878002C069500D18EE03446002333
:10442C0092E005950826EC49304609F024FEA01FC1
:10443C0043424341E9480078049038784006820FA3
:10444C00E749E84D03963046A8478007400E397877
:10445C009F220A4010183870E01F43424341CA099A
:10446C001020E149A847C0013E787F21314008184F
:10447C003870204608384342434107252E40182007
:10448C00DA493246D74CA04728403978F8220A40FE
:10449C0011183970B042089E09D00921079A51436E
:1044AC00C94A5118D24A059B8B5489184B70002865
:1044BC006CD02020CF4909F0DEFD39782940282026
:1044CC000A27022900D107E1012900D01DE106903D
:1044DC00092007994843BC490818C549425C44184F
:1044EC006078000280187D218D00092E0BD100B25E
:1044FC002A460B320021022303F0F2FC2070010A41
:10450C00617004990591E91D02B28A4200DC01E157
:10451C00079434466C203E462027B94A3946059DFF
:10452C002B4609F001FB079800783530C2B2782091
:10453C0039462B4604F00EFB1BE140B25E2108F01D
:10454C0055FE387034463346C2B26020082106F05E
:10455C001FF938780028089D23D0401EC0B206F001
:10456C0075FC06460820A94909F085FD0A980078D3
:10457C00252811D38221002200920191253842B2C4
:10458C0048200821334603F0CBFB0AE034462020B8
:10459C0009260A9D8E4FF3E048200821324609F087
:1045AC0000FE09200799484387490E18DF20810037
:1045BC00705C012D099407D1771840B2062108F0E0
:1045CC0015FE3870214600E00021C3B2042B04D83C
:1045DC0000914E2010218F4A05E00091401FC3B27C
:1045EC004E2010218A4A09F099FC022D15D18A48D7
:1045FC00642101700720C701F05DF4190121615697
:10460C00090208187D210A028449022303F068FC80
:10461C00F055000A6070099B00E000230A980078AE
:10462C00252811D30721C901725C71180127C957BC
:10463C0082270093019709028B18253842B2782003
:10464C00182103F06DFB0BE00720C001315C301822
:10465C0001228056000242187820182109F0C6FB6E
:10466C006F49705C0024032D0AD1771840B21521D4
:10467C00C943162208F04AFE3870099F3B4601E0F8
:10468C002346099F42B26020202106F0C7F96549F4
:10469C00705C042D06D1761840B2212108F0A6FDDD
:1046AC00307000E02746069CC2B2602028213B46B1
:1046BC0008F0DEF8681F434243412078C006820FA1
:1046CC003020594905F07EFE8007C00E2178E72284
:1046DC000A401018207073E005970690092007997E
:1046EC004843394908184249425C45186878000229
:1046FC0080183446092E18D140B20F2108F076FDEF
:10470C00002169702870049910E034460A9D3E46D9
:10471C002F4F35E0AA4215DD34460C30C2B26C2066
:10472C002021059B08F0EAF826E000210A9D284F7D
:10473C000091C3B25A2020212F4A09F0EFFB0698B2
:10474C00059E1DE078202021059D2B4609F04EFB8F
:10475C00002D10D0214634463E460998802805D1BC
:10476C00087849780902081808F0F4F82348002161
:10477C0001700A9D02E034460A9D3E46144F06988D
:10478C002049069009F077FCA64213D1099880289D
:10479C000AD10921284609F012FC184800210170A1
:1047AC000A2C01D103983870049B04E061FA0000D4
:1047BC00760E002000234820134A069909F0B4F91C
:1047CC000BB0F0BD75F30000C80400207F0300009F
:1047DC00640E00207B03000039F40000910E0020D1
:1047EC00F4F60000D1A3000055FA0000DEF600003C
:1047FC0082030000D3FA0000BAEC00003C0E00204B
:10480C002EFD000081FC000027FB0000E9FC0000ED
:10481C0096F8000048EC0000880E00200083FFFF93
:0C482C007D0300007E0300000BF500007F
:10483800F0B583B0E14E0125357006F029FD00245E
:10484800DF480157002907D5DE4A13783746F02696
:104858001E40331D3E461370DA4F3A78142A35D875
:104868005200C0467A449288520097449C009C00AB
:104878009C00850069000A010A010A010A010A016F
:104888000A010A010A010A010A010A0114001400B6
:1048980014000A010E0107F00FFF032009F08CFC39
:1048A800C02009F02FFB08F0EFFB3878401C387067
:1048B80038780F210140032903D33878F0210140CB
:1048C80039703878202101433970DAE010462038F1
:1048D800032868D310463038032817D2252007F05C
:1048E800E1FFB9480178BC2900D0CAE0417A012922
:1048F80000D0C6E00321C943B64AC14B002933D0D2
:10490800541845186D7AE554491CF7E7242A17D03E
:10491800342A00D0B5E00024204609F04DF980067D
:1049280000D5F5E0252007F0BDFFA74E717A307855
:10493800AA2800D0E5E0FC2900D0E2E00120E5E06B
:10494800AD4D2878411C2970AC490C5CA64800780C
:1049580003F0B0FD3878DF2101403970287810283D
:104968007FD3002028707EE03878F0210140C81CF1
:104978003870A448002110E0A24A13785B1C137019
:10498800DAB2042A0FD33A78F02313401A1D3A708A
:10499800994A012313708022114301703878DF216E
:1049A800014039706DE0884CFF202072E071A071E1
:1049B8000020A0728549096861700322D243D21C85
:1049C80062710A0E22710A0CE270090AA1703E781F
:1049D8008A49102804D022180B5CD372401CF8E7CF
:1049E80020461B300A21FF2209F0ECFA252000217D
:1049F80021540F200640751E032D1FD2BC202070A5
:104A0800032E10D1724873490A5C62710818C17884
:104A180021728178E1714078A07120460B30102115
:104A2800FF2209F0CFFA802020770120E076E8B253
:104A38000228624E00D30225657206E0002E5F4E02
:104A480003D101206072BB2020703878DF2101403B
:104A580039706D480078C00701D00D2401E073203B
:104A6800C44308F05FF8E1B2252006F0DBFF08F048
:104A78000BFB65480178491C01705C480188491C9A
:104A880001800020307003B0F0BD07F015FE284605
:104A980009F092FBC02009F035FA387820210291FC
:104AA80008433870514800880190514909F09AF834
:104AB8004E424E414F49019809F094F8002900D020
:104AC80075004948057008F0DFFA434D434E2B2C1A
:104AD80012D0285D002802D0401E28550AE0012087
:104AE8000021224609F01BF932688243326070685F
:104AF80088437060641CEAE7387802990843387084
:104B08000AE0AA280AD1FD2908D1022036490870EE
:104B18003878DF2101403970284EB2E7AC2801D03F
:104B2800AA28F5D1701C294904252A4609F0A2F9BA
:104B38000290274827490918701D2A4609F09AF952
:104B480002990843E4D11D2009F036F82249FF22D2
:104B58000A7122490A68102313430B603C2800D8C5
:104B68003C201F4D29691F4A1368591A08181060FC
:104B7800642109F061F828613078AA281BD0AC2894
:104B8800C6D134460934A01B08381928C0DC20785F
:104B9800FF28BDD0A578AC21204603F039FD28199F
:104BA800C41CF0E7301909300178FF29B0D0AA21D8
:104BB80003F02EFD241D1C2CF4D1A9E78B0E002038
:104BC8003E0E00208A0E0020B8FEFF1F7CFFFF1F4C
:104BD800E6030000C8040020B50D002000F8FF1F00
:104BE80008FDFF1FA00E0020700E0020B804002052
:104BF8002106000021050000460E0020E00D0020DF
:0C4C0800EA030000520E0020410E0020C4
:104C1400F0B58CB01F246102CB48426B0A43426357
:104C24000121CA06836B13438363C84BDA681020DF
:104C34000A900243DA60C64DAA69C64E3240AA61A0
:104C44006A6832406A606A6932406A61C24882684E
:104C540032408260C14A956D35409565556F354047
:104C6400556705683540056016259D60DD680D4370
:104C74000E27BD43DD60002506951D6247255D6254
:104C84001C605C6A80250B952C4340250995AC4338
:104C94005C621C682406FCD50F2007900304B04E08
:104CA400746D9C4374650B02AE4C23646364A3640B
:104CB400E364756D3D4375656360A360E36020251F
:104CC400ED437561A8480361756D0D437565C8436F
:104CD4000490356C0540356423608D07A34C6769E7
:104CE4002F4367612768AF432760936775690A9804
:104CF400054375613568054335609B48C360CF073C
:104D040065693D430897656125683D432560D36720
:104D14004D0377692F43776137682F433760036307
:104D2400934F7D6D0B9805437D653D6C05433D6454
:104D3400874DEB6107988504104662692A436261D6
:104D44002268AA4322608364C364036543650546FD
:104D54000320029000022A6C024305902A646A6CC4
:104D640002436A64079802027D6915437D613D68C8
:104D740095433D607848036243628362C3627A6DFF
:104D8400049802407A65724803607A690225AA434E
:104D94007A61714A53607A6D0A9DAA437A65036108
:104DA4000A037569154375613568954335606E4826
:104DB400C36288050190644E326B02433263480239
:104DC400654A9061039050616A4D12200490A87066
:104DD40019226A702970684A083A1068079167496D
:104DE400084010600798800265490860A878099A0D
:104DF4001043A87078690A9A1043786138681043A0
:104E04003860554D2B61786D042210437865386CF9
:104E1400904338644E498B605A48026078690B9A13
:104E240010437861386810433860EB617869082270
:104E340010437861386890433860EB606069029D84
:104E4400284360612068A8432060444803604360AD
:104E5400CB60494BD8684C49084008994018D86041
:104E6400474C21600799CF05B06B3843B0630520E8
:104E74000A9000020090DB30444A106095609F2045
:104E84001061072090611D4658683C4A1040C019C3
:104E940058602346019820603D48069C04603D48C4
:104EA40030604806B26B0243B2633B483B4A8260BF
:104EB4002A68324F3A402A608A041A604922026002
:104EC4003148401CB26B0243B2633548354A8260B4
:104ED400FF2212022F689743CA03BA182A604A04B1
:104EE4001A6004608B06B26B1A43B2632E4F2F4ACA
:104EF400BA60FC602E4A3A611B48059A0260326827
:104F04001A433260039A426028681F4A1040089A84
:104F140080182860C8041A4908603C60306B0999FD
:104F2400084330630D48009941660166214804999D
:104F340001700B99417020482049416084600A99AE
:104F440001600CB0F0BDC0460480044000B00340D2
:104F540000C00440FFF8FFFE00B0044000D004404D
:104F640000F00F4000A004400490044000F10F4002
:104F740080F00F400160074010E400E0FFFF00FFF5
:104F840000E100E0C40000F8FFFFFF0000710340EF
:104F9400007003400000010100900340FF0B00007B
:104FA400008003403B2D000000A00340FFFF0000F1
:104FB40060EA00000160064010E000E07FBB0000F2
:104FC400F0B591B08278EE2A0CD1C378C84A127831
:104FD400934207D1C74C2278002A0F930AD0C74BBB
:104FE4001B780AE0C34800210170C34C00202070E4
:104FF40011B0F0BDC14DFF232B7006795DB2109640
:10500400AE4201D0FF2BF3D10F9B5D1E0C230C93FA
:105014000D956B43BA4DEB180E93109B5B1EB74D69
:105024002B700523B84D8B4206D2C75CD6B2AF5560
:10503400521C22705B1CF6E71098002805D0AE487D
:105044000178491C0170AF4CD0E7AB4800270770CA
:10505400D0B20428CAD30E9B5989FF2009918143F9
:105064000F980818588169789E792A781091C9098F
:105074000B910A96002E15D01946DB799342B5D1CF
:10508400089207977F27109B1F400B890F21194017
:10509400B942ABD10999C905C90F0B9E8E42079F2E
:1050A400A4D106E008920C230D994B439449CB18E4
:1050B4001B8907970E9E31460A310F27109A3A40F2
:1050C4000997BB4310929A180D923281089AF27193
:1050D4008E4A10400B9A120210180880AF1C3846F2
:1050E40009F004F80A9A0346002A07D03088884950
:1050F400081839461F4608F03AFF1EE0394685482D
:1051040000880B903080D8B20C281F460C9B00D826
:105114003B46B01D109A0D2A00D13B460370DAB20B
:105124007B480B9BC0183E46174608F020FF0B989F
:10513400C0193746774908800E9E32460832F81C5B
:1051440010990D291AD0092900D0B8E00B92C0B2E9
:105154000A902E18304608F0C9FF6F490B78002BCF
:1051640034D0F0210D9A8A433818001DC0B2285C4F
:105174000007000E10180B990880A0E0F0210D9B89
:105184008B43C0B2285C0007000E181810806248D8
:105194000078002800D092E0781DC0B22818109042
:1051A400374608F0A3FF05465A480688BE80092DF5
:1051B40000DB09255648801910992A4608F0D7FEC5
:1051C4007019544908800E98857074E008960E99F9
:1051D4008A78002A0B9A01D00D9E60E0049305970B
:1051E4008A1C03924B4A1288494B092601969E5405
:1051F4008A801090431E0292561C079F38460899D5
:10520400069309180E91191AC219109B0C929A420E
:1052140035DA0E9AD35D3B2B03D0B94201D07F1C03
:10522400F2E70A9A8218B942394900D17F1CB0B218
:105234000818A918092F00DB019F3A4608F097FEC9
:10524400F619344A1680324B092F06DAB0B22021FF
:105254001954761C16807F1CF6E7099800020D9AF3
:10526400110A8243481C0007000D82180D920B9806
:1052740002800C98401C079F0899069BC1E7B0B2B6
:105284000021234A1154701C224908800299401AB3
:10529400039908700D9E059F0B9A049B1098F021AA
:1052A4008E433818001DC0B2285C0007000E301869
:1052B4001080002B03D119480178491C017018484B
:1052C4000178002902D0002101700CE00F98401CE5
:1052D400074A107013490978C0B2884203D90120E3
:1052E40010700D4908700748012101707EE6C04620
:1052F400BE0E00204D0E0020500E0020BD0E0020DA
:1053040086010020310E0020C80C0020FFFE0000A2
:10531400B2080020BC040020550E00204F0E0020CF
:08532400450E00204C0E002094
:10532C0030B581B007F0A0FD00282ED0C74A907888
:10533C0001461C3905292ED9022800D1B3E00728D3
:10534C0000D116E1082800D121E13A2800D167E10B
:10535C00142841D10024C24D0A2C1AD0E01CC0B232
:10536C006946012207F02AF800280CD00099062C77
:10537C0006D1082902D88800295800E000210091A4
:10538C00E0B206F0B7FE641CE6E7AF480168491CC2
:10539C00016001B030BDC0467944097949008F44A1
:1053AC0003224B1B1B02F4E704206D460124294603
:1053BC00224607F003F807202946224606F0FEFF96
:1053CC000028E6D0AC20A449009A0A50E002A34978
:1053DC004A6802434A60DCE7911C5278521ED2B2F2
:1053EC0001F098FBD5E704206D460124294622469E
:1053FC0006F0E4FF07202946224606F0DFFF0028CE
:10540C0007D080209449009A0A509448416821435F
:10541C00416008206946012206F0D0FF0028B8D070
:10542C000A200099414398208B4A11508B484168BF
:10543C0040220A434260ACE703206946022206F090
:10544C00BDFF00280BD000980A2108F0FBFA824916
:10545C0048650120400581490A6802430A6005201D
:10546C006946022206F0AAFF00280BD000980A21F8
:10547C0008F0E8FA784908650120000577490A68C0
:10548C0002430A6007206946022206F097FF0028B3
:10549C0000D17EE700980A2108F0D4FA6E4988659D
:1054AC0001208005B7E003206946042206F086FF40
:1054BC0000280BD00098642108F0C4FA8421664AB5
:1054CC0050506648416802220A43426007206946F0
:1054DC000424224606F072FF00280AD000986421AA
:1054EC0008F0B0FA88215C4A50505C48416821436E
:1054FC0041600B206946022206F060FF002808D0AC
:10550C005548009901660120000654490A68024377
:10551C000A600D206946022206F050FF002808D0D0
:10552C004D4800994163012040034C490A680243ED
:10553C000A600F206946022206F040FF00280AD0BC
:10554C004848009908188C21434A505043484168F8
:10555C0008220A434260112069460124224606F0C3
:10556C002DFF002800D114E73B480099016420046A
:10557C0051E003206946022206F020FF002800D1EA
:10558C0007E735480099C1650120C00543E00320B9
:10559C006946022206F012FF002809D00A20009961
:1055AC0041432D4841612D48016820220A43026085
:1055BC0005206946022206F001FF00280AD00A20C5
:1055CC0000994143244881620120800223490A68E2
:1055DC0002430A6007206946032206F0EFFE00280A
:1055EC000AD00A20009941431B48016301200003A3
:1055FC001A490A6802430A600A24694601252046B2
:10560C002A4606F0DBFE002800D1C2E6009844438F
:10561C001148C462E80211490A6802430A60B8E6FC
:10562C00D078EA2800D0B4E65079102800D0B0E643
:10563C00062007490424224606F0C0FE0A2005492C
:10564C00224606F0BBFEA4E644FFFF1FD20B00204F
:10565C0058FFFF1F5CFFFF1F08FDFF1F00F8FF1F17
:08566C00B0CD000018FCFFFFA7
:10567400F0B587B0044640782378834200D08AE1AD
:10568400222900D987E1C84800788006400F8900A4
:1056940001A359588F46C0462957000031570000CE
:1056A4003B57000043570000655700009757000020
:1056B400CF570000EB570000195800005158000064
:1056C4005D580000AD580000B7580000C3580000F2
:1056D400C7580000CB580000D7580000DB58000022
:1056E400FD58000007590000135900001F5900001D
:1056F4002F59000033590000435900004759000056
:105704007F5900004B5900008B5900009F5900003D
:105714004F590000575900005F5900006B590000B1
:105724007359000030200090462119E13020009088
:105734004621142215E1A22000906421FCE02A20D5
:10574400059000905F25052602200690954F20467F
:1057540029463246069BB847212000900A2369E077
:10576400C220009050210A2503268E4F20462A4647
:105774003346B847422000903C2120462A4633460F
:10578400B847202000904621012320462A46B847E6
:1057940001E12120009006460690462105220123BE
:1057A400804D2046A847009632210F250226204628
:1057B4002A4633467B4FB84706980090502120462E
:1057C4002A463346774CA047E5E0222000906E211C
:1057D4000525012620462A46334603F0F1FF2320FF
:1057E40000907C2184E000270097322105256D4E2E
:1057F40020462A462B46B04700975A2120462A467F
:105804002B46B047022000906E2103220423204639
:10581400B047C0E0232005900090502505260A20BB
:105824000690604F204629463246069BB847212001
:1058340000901423204629463246B8470598009024
:10584400204629463246069BB847A4E062200090D1
:105854000A21142205239BE0222005900090322186
:105864000491042206920A2303934E4D2046A8472E
:1058740021200290009046210191082714262046F9
:105884003A463346474DA847059800902046049968
:105894003A46039B434FB84702980090204601992B
:1058A400069A3346B84776E02A20009078210522EC
:1058B4000DE02220009078210522322368E0212087
:1058C40002E0222000E023200090002114220A2379
:1058D4005EE012202EE0422000903C211425032695
:1058E40020462A46334603F06BFFE2200090502105
:1058F40020462A4633464CE0302000904621282298
:105904002FE0012847D0102000904B2128E00128E7
:1059140041D010200090412122E010200090062563
:105924000123204611462A4633E0302002E00128B4
:1059340031D01020009046210A22022328E01020B2
:1059440004E033201AE0312018E03120009078215F
:1059540006E0322000907A2102E0332000907C217E
:105964000A22012314E050200090822102E0D0207A
:10597400009032210A2200230AE03220009078218C
:105984000F22032304E0312000904621142219231E
:10599400204603F015FF07B0F0BD302000904621EB
:0C59A4001E22DEE7C5970000950C0020D5
:1059B000F0B58BB0BB498879401C8871002001216B
:1059C0000691BA4FC5B2012D00D9F5E0002D03D0E4
:1059D000BA48BB49401802E0B748B8490818002443
:1059E000005729017E180028069B1BD016280CDBC7
:1059F000153840B208F0B2FBB1798142069B11D054
:105A0000B11D0028087005D10CE008F0A7FB0028A4
:105A1000069B07D0002D02D008F0BAFB01E007F08A
:105A2000FFFB2346052169439F48039140180890D6
:105A30008778FE203840022801D1A2488488A248F5
:105A40000078002800D0A14C0794032008990C5638
:105A5000042F05D378009E49401808380088079025
:105A60000122002F0492059337D0162C24DBF07806
:105A7000318801438B4A9079084391880143B0787B
:105A80000843B11C002801D10020087020461538B9
:105A900040B2019108F062FB019A002808D0117809
:105AA000002905D1F11C0A7853425341019A0B7029
:105AB0001070059B049A10E0002C0DD02046019533
:105AC00025463C461F4608F049FB049A3B462746BC
