:100000000018002081CA0000F9BF0000FBBF0000FB
:1000100000000000000000000000000000000000E0
:10002000000000000000000000000000FDBF000014
:100030000000000000000000FFBF000001C0000041
:1000400005C0000007C0000009C000000BC0000090
:1000500003C000000DC000000FC0000011C0000070
:1000600013C0000015C0000011B0000019C000004E
:100070001BC000001DC0000039C7000021C00000E7
:1000800023C0000031B600006DCE000069C700003B
:100090002BC000002DC00000A1BE000031C0000038
:1000A00003C0000033C0000035C0000003C00000E2
:1000B00037C0000003C0000039C00000ADC300001D
:1000C000F0B583B002920F4601900825BB48425F0D
:1000D0000621BB4E715E891A8B0EC9188911B94B66
:1000E00019700A23C35E705FC01A840E0019801154
:1000F000B54C2070C0B2C9B2002901D092B2F280D2
:10010000B24C002801D09AB232812478B04A1378D8
:10011000002B03D1B94B1B789B0606D50020AA49BA
:100120000870A849087010700146002904D1002801
:1001300002D17088002801D00CF0C8FDA5480678CF
:10014000012000900298FF285ED0A3480078012883
:100150001FD0002841D1A2490878012802D10020EF
:10016000087034469F4B5A5700201872012A18DB3A
:10017000611CCAB2521A531E9A41B442019B01D269
:10018000002A22D01978029A91420ED2491C197085
:100190001AE000202E2F1CD09049097800291CD18C
:1001A00017E0002A03D421460FE018700CE0002C61
:1001B000019D01D0611E08E02B78002B029A00D02F
:1001C0005A1E2A70009A0A7001462E2F04D101206F
:1001D0000C468149087000E00C4683480078401CBA
:1001E000C5B2854201D00020C5430CF08FFD002828
:1001F00000D10546E8B23D2804D3012076490870B5
:10020000764908707848057078480670734D2878EC
:100210000028019B17D03846603805283CD938465D
:10022000423803284CD9212F00D171E02E2F3AD02B
:10023000812F64D08E2F68D0BF2F00D0A2E0002481
:100240001C702C709EE060480078002813D019784C
:10025000091A4AB20020002A00DC0146CAB2029DF7
:10026000AA4200D32946197057490870E0B2B0423B
:1002700000D33446594D18780028CCD05148007826
:100280000028C8D0241A60B2002800DC0024E0B2A4
:10029000B042C0D33446BEE778440079400087447A
:1002A00002711D262B5B0298FF286BD028784142F3
:1002B00041412970002865D147480121017061E062
:1002C000784400794000874401293545187802991F
:1002D000884257D02978002904D053E02878002894
:1002E00050D118780299884246D3002045E02878FA
:1002F000002847D1187817E0002E20D142E00020D6
:10030000287000980BF018FD3CE08E200CF0A0FD4A
:10031000287800282CD00020287033E01878002896
:1003200030D0297800292DD1002801D0401E02901C
:10033000029822E0002E25D0E0B2B04222D02878E8
:1003400000281FD12A4900200870E1B2B14232D3FF
:10035000044617E0200615D0002E13D02878002878
:1003600010D123480021017020060AD0661E08E043
:1003700000200BF0E1FC05E0401C1870E0B2B04238
:1003800000D33446114804700020124908702878C0
:10039000002801D0022100E00121094B154A11700B
:1003A00059884A1E91410028009A00D10A461248F5
:1003B000027003B0F0BD641CE4E7C046980400205E
:1003C000BA0400201F0E00201E0E0020340E002054
:1003D0001D0E0020620E0020740E0020260E00204C
:1003E000400E0020FC0D0020790E0020810E002020
:1003F0006F0E00207C0E0020250E0020BC0C00207B
:10040000FFFFFFFFFFFFFFFFFFFFFFFFFEFFFFFFFD
:10041000F0B595B0244902260E70244C07222146DF
:10042000059209F06FFB0146214F3878401EC2B299
:1004300020461291FFF744FE1E4D2878411ECAB295
:100440000D2A0AD81C4BD340DA0706D048B28000E8
:100450001A4908580BF0FEFF28780D2801D900F042
:10046000EEFE24781394400078448088400087444E
:100470000D00E6062B00FE004301E606E6065501E8
:100480005200E606E606E606F000EE020C480DF025
:10049000FDFC0E203870601CC2B20A4807210DF026
:1004A00095F800F0CCFEC046800E00204C0E0020D7
:1004B0006B0E0020150E0020312700001CC4000028
:1004C00084EE0000E4C30000F9480DF0DFFC0620D4
:1004D0003870F84807780825F74928460DF0DEFC03
:1004E00063426341F54EB07D4209F549284609F063
:1004F00031FF4001B17D1F220A401018B075F07D18
:100500000025012C00D0D8E240B224210CF056FD89
:10051000F0753B46D2E2EB480DF0B8FC1020387085
:10052000E94800781190139840B20CF095FA139BAB
:100530000D900022072A01D100F081FE0D9881184C
:10054000481CC0B214904000C9B21291994202D125
:100550000221F94C2170D94940181499102901D869
:10056000F64900E0F64945180E92D0000830109088
:100570000024032C6AD200201199A14201D0014627
:1005800001E0CC490978129A9A4200D00146CEB2D5
:10059000711E304688411499102955D87F21214079
:1005A000012921D000293CD140000F901098C6B2FB
:1005B000002738463146149A3B460DF05FFC2878F8
:1005C0008009022800D901270F9B3046F3493A469B
:1005D00009F0C0FE3F21002800D0C843139B2A78B1
:1005E0000A4002432A702FE028781099C9B2800689
:1005F0008216452033460AF0DDF9139B002E23D0E6
:1006000028781521C9438006801616220CF05EFD5D
:10061000139B3F2101402878C022024050182870C7
:1006200012E00127EA571098C1B2782033460DF046
:100630004DFC002E139B07D0E8577C21C9437D2237
:100640000CF044FD139B6870641C92E70E9A521CD8
:1006500070E7DD480DF01AFC0A203870042C0E9665
:1006600000D93AE20CF0C8FC00252C4637E2D74806
:100670000DF00CFC11203870AF4803210170AC481C
:1006800000780D90139840B20CF0E6F9139B04909B
:100690000F2B00D90FE35800CD4C205AC10B401846
:1006A00000B24010CB4942184E2000210DF09BFCB7
:1006B000139BC9480078802800D00BE30D980028D0
:1006C00000D007E3052058437C49081857218900CA
:1006D000425C0499591A4900615A002A00D04942E3
:1006E000FF225E328154090A8018417002200BF00B
:1006F000ABFF0CF061F9ECE2B8480DF0C7FB052048
:100700003870B74800240470B64E35781398002826
:1007100001D100F0C4FC234600F0CAFCB2480DF041
:10072000B5FB0C2038708448032109910170804882
:1007300000781190139840B20CF08EF908900024C4
:10074000072C01D100F07BFD5A4800781490E0009E
:100750000830C5B200274C22384629460DF02AFC45
:1007600008980019C6B2082E0F9401D8312100E074
:1007700038210818C2B2052029460DF01BFC099843
:1007800070434E4909184B20C0000E9112900B5C2B
:1007900013988642149C00D03C46119E002E2046A1
:1007A00000D03846C0B200900F20109003400D20BA
:1007B00029468E4A0DF0AFFA022E204600D0384668
:1007C0000C90012E149400D03C460D9488480E9C49
:1007D00026181298205C109908400CF067FC02283B
:1007E0000A960B9016D0012820D0002100282ED187
:1007F0007756252F34DB7F4961560C9AD2B200928E
:1008000082220192253FFE223A407D31382A5DD076
:100810000B465DE07748225C0C98C3B25020294615
:1008200009F0C2FF32780D98C3B259E00020325669
:100830000D98C3B2362029460AF0BCF86D482256FE
:100840000C98C3B24D2029460AF0B4F84CE0725619
:10085000694900912021002A07910AD40D9F0AE0DE
:10086000644822560C98C3B2632029460DF02EFB33
:1008700033E00D9F0F43FBB2D109514048B2401CF9
:1008800082B2492029460DF0C1FA5A482056002864
:1008900001D40C9902E00C99079A1143CBB2C1091B
:1008A000414048B2421C6B2029460DF00FFB1BE073
:1008B000F4F800007C0E002097EC0000EE0400200D
:1008C000A7F400003DF70000340E00200A234B433C
:1008D0007AB26420294607F09DF80D9F3278FBB26A
:1008E0003620294609F060FF11981499129AA6182B
:1008F0000328084600D0002031780A09082A00D9C8
:10090000521CC3B2682029460AF054F83B480078CC
:10091000002800D198E01498000600D194E01198C6
:10092000032800D990E003A1085C40008744C0463A
:10093000340E00200A212F40620E00207B020000AE
:10094000DF0200003078109D28400E210CF036FBAD
:1009500028403178F0220A40111831700CF0A6FBC3
:100960000B99814270D00020224960540A99087086
:100970006AE00B98032867D87844007940008744E0
:10098000013F014600210A9C60565E2245E00B981B
:10099000032859D802A1085C400087442DF70000C5
:1009A0000342484D134D60577C21C9437D2248E0E6
:1009B00030780009109C21460CF000FB3178214072
:1009C0000001081830703FE043FB0000FDFA000012
:1009D00010040020DC0500006F0E002067FA000004
:1009E000720E00206C0E0020ABF6000082EA0000C0
:1009F0005602000057020000DFFB0000250E002019
:100A000000200A9C20561521C943162205E000202B
:100A10000A9C20563121C94363220CF057FB2070F9
:100A200012E0FC4D60571521C943162209E0F94D2B
:100A3000605700215E2204E0F64D60573121C94322
:100A400063220CF043FB60550F9C641C78E6F2486F
:100A50000578F2480DF01AFA139C0A2C00D99EE290
:100A60000CF0CAFA224610203870052C00D9E8E3B1
:100A7000002A02D1EA480921017051425141E94856
:100A8000007800910821E84E0A2732463B4609F0DB
:100A900093F813980128149501D000F048FC12989F
:100AA000602802D1B07A0DF05BFAF05731210CF0DA
:100AB00085FAB0722B4600F03CFC2B46C2B2662091
:100AC000102109F071FE307E1399022953D140B2F2
:100AD00064210CF073FA30764EE005240125CE48EF
:100AE00007780826D14930460DF0D8F92A46313228
:100AF0001E20109631460DF05DFA1398149484422E
:100B000011973B4600D0002305206843C84A115C7A
:100B1000141801201290205600930002421847201A
:100B200010990CF09EFC1399149D8D420E9E16D1C7
:100B3000C0483C2202703B20C143002528460CF0EF
:100B4000C5FA2178627812025118081801B20029FA
:100B500000DC28462070000A60701399149D681C00
:100B600088423DD10220205613210CF027FA139918
:100B7000A070012235E02F46C2B2542018213B4616
:100B80000CF084F8139DE81E42424241B07D4007BC
:100B9000C00F2021A84CA047C007400FB17DFB2209
:100BA0000A401018B075281F424242410807C00F82
:100BB0002821A047C007000FB17DF7220A40101876
:100BC000B075681F42424241C806C00F3021A0479D
:100BD000C007C00EB17DEF220A401018B0752EE399
:100BE00000220529129B00D381233C20102109F00B
:100BF000DFF9032728463043002213998842119BCE
:100C000000D013461092E257002B304600D03846F1
:100C10000F9700905A2018210CF072FEE070139D7F
:100C2000149F781BC01C43424341227920208349F2
:100C300009F090FB2071381DA842119B109A00D03A
:100C40001346002B0F9800D00646774C052D02D393
:100C50003720000100E07A482518AA5600964F2058
:100C600028210CF04DFE724F7A7976496254FA7859
:100C7000754BE254FA79754BE2543A7A744BE2546C
:100C8000744AA35C7F261E407B7ADB01F318A354D1
:100C900028707878A073387860736018B9794170DB
:100CA000B878E072387912990840217BFE220A4018
:100CB00010182073C3E26848007880280AD1102BEE
:100CC00008D166481921017080200CF0C1F808F0A5
:100CD00085FA139B7C200390C0430C90002632467B
:100CE000072E00D14AE104983218D4B2F0000890DF
:100CF0000830102C00D142E111966100584B595A2E
:100D00000B91052110946143474B5C1857218900D2
:100D10000991675CFF210A915E31655C61180E9153
:100D20004E78C1B21292501CC2B200200F911490A2
:100D300003460DF0A3F830024019002F00D14042C5
:100D40000B9943187F217E22002F0846119E00D068
:100D500010461BB20C9D4B35AB4200DB2D20002F03
:100D600000D00A46322B109F00DC02464B200F9920
:100D70000DF020F92C48817D0220084001D0039914
:100D800000E06321C9430791139B129A002801D008
:100D90007D2000E0642006900598089901430891A1
:100DA000AD20400020180B900A985C3020180A9063
:100DB000099820180990149C042C00D3DCE00D98AD
:100DC0006040394659400143149401D0002401E0A9
:100DD00011480478E5B268426841224909784E42D8
:100DE0004E41064302D100201F4908702B2000010C
:100DF0000D49085C002700283CD001210E9A51566D
:100E0000090212788A1891B2002933D082422DDD6E
:100E100007462FE0570200007C0E002087FA0000F2
:100E2000620E0020340E0020EE040020ADF0000021
:100E3000F20D0020730E0020EDCE00008FF40000B4
:100E40006F030000AB0200007B020000AD02000057
:100E5000AE020000710300006F0E0020210E002082
:100E600010040020250E0020720E00204742BA42D6
:100E700000DB0F4638B20A210CF006FD7F21149AE0
:100E80001140022923D0012949D0002964D101252C
:100E90000E99485700020978421820200443E3B213
:100EA0002D200F990DF012F8002E119E109F5ED18B
:100EB0000E9C60570002217840187D21CA00022351
:100EC000F64906F06FFF2070000A60704FE00A9943
:100ED0000978643149B2401801B27D2900DB7D20D8
:100EE00002B266200F992B460CF0F0FF380406D0B2
:100EF0000898C1B23220382209230BF0DFFF002E00
:100F0000119E109F33D10A9C20781821C943643068
:100F100040B2069A0CF0DAF86438207027E00B999A
:100F2000097864394CB2001901B20C9A914200DC84
:100F3000104602B248200F992B460CF0C7FF002E36
:100F4000119E109F13D11922204607990CF0BEF86C
:100F500064300B9908700AE0099C20780F992A46A2
:100F60000BF0C4FF411E88412070119E109F149CFD
:100F7000641C139B129A1FE7761CB1E63820D1B28D
:100F800010290BD110214B40C549097819434B4218
:100F90004B41C1B21220C34A0CF0E8FC4FE114955A
:100FA0001020119038700827BF4938460CF076FFA2
:100FB00020460B3843424341BC4EB27CBC493846C4
:100FC00009F0C8F9B07400250C2C00D01495149BBE
:100FD000581E1946814114203256009166201199FD
:100FE0000CF08EFC307520460D3842424241707C38
:100FF0000007C00F18210CF01DFFC007000F717C07
:10100000F7220A401018707420460E3842424241BE
:10101000307B8007C00F20210CF00CFFC007800F31
:10102000317BFD220A4010183073FF2040001490DD
:1010300001242F46072F00D101E1737D2340581E64
:1010400083419C48C25D28463F30C0B2282107F04A
:10105000D3FC13980F281CD1062097490870974895
:101060000078874215D128463E30C0B22721082299
:1010700009230BF023FF12982E2801D0202808D135
:10108000707D6040707502200BF0DEFA0020FC4994
:101090000870640014980440ED1D7F1CCAE768B214
:1010A000032200210B460CF094FF0546307001230B
:1010B000681CC2B208262046314609F075FBEDB225
:1010C00028460BF03BF9034600942A20EF4A3146AC
:1010D00014930CF020FEEE490E9630460CF0DEFE26
:1010E0006800EC490E5E28460BF054FF0123009483
:1010F0000193652E194600DB21467C22D24319322A
:10110000964210931E46139B00DB4E00002800D031
:101110002646701E11908641581E45424541304674
:1011200028401821DC4F0A460F91149BB8470094C1
:1011300001941199481E814111910D403021129165
:1011400028460F9A149BB847109F00970197139851
:10115000801E454245412E4028220D9230460F996F
:10116000149BCD4EB0470097019411980540284636
:1011700012990D9A149BB04700940194139FF91E85
:10118000484248411E2563232946129AB0470094DD
:101190000194391F48424841382262232946B0470A
:1011A000B94E30780BF0F6FE5C250028284600D0BA
:1011B0003C204022214609F0B7FCB8481099017044
:1011C000284608F099FF30784100B24A555E192749
:1011D000394669430A0E8E18294608F07FFB1490A1
:1011E0003212722012990CF0FEFE149E7743380ED4
:1011F0003818021254200E990CF0F5FE6801FF21F8
:101200004900891C4018820D8018870A38465C30D6
:10121000C0B2720151188A0D89188E0A1D21891BCE
:10122000C9B207252A4609F07FFC5937F8B22021B8
:10123000891BC9B22A460CF0B8FE9848047015B054
:10124000F0BD08249849204615460CF027FEA81F3B
:10125000424242418B4DA87D8007C00F21460CF0D1
:10126000E9FDC007810FAA7DFD2313405918A97518
:10127000002825D1AD2040002818D5214900691843
:1012800088421DD200214256002A00D50170012259
:101290008256012A00DB4170401DEEE718FCFFFF7B
:1012A000210E00209AF600008BEF0000EE040020D3
:1012B000B8F20000DFFA0000620E0020340E0020B9
:1012C0001398C01F43424341754FE85D8006C40F29
:1012D00010207649224609F03DF8C107890EEA5DE3
:1012E00020239A435118E95501263040A04202D0EC
:1012F0000AF018FCE95D139808384242424148065A
:10130000C40F182120460CF095FDC107490EEA5D77
:10131000BF2313405918E9553040A04201D00AF0CC
:1013200001FC0BF04FFD002869D0812268E0B07A03
:1013300000235F49009141218900C0B24218582022
:1013400010210CF063FD18205A490CF0A7FDFF2076
:101350004700012400251398082D14D05648305C0E
:101360002040411E8841009054484219062068439D
:101370004230C0B2182101230CF069FB13986400BD
:101380003C406D1CE8E7022819D141201721382282
:1013900009230BF093FD13981299602901D02E298F
:1013A0000DD112980BF054FD0CF01FFC4249705403
:1013B0003C480021017002200BF046F91398C01E32
:1013C00042424241364C305DC006C00F20252946BE
:1013D0000CF030FDC007C00E315DEF220A4010183E
:1013E0003055139804282FD12B2004013057642145
:1013F0000BF0E4FD30552021149D0D4327E08022A1
:10140000602020210CF0D6FD139C20460938424272
:101410004241687C304028210CF00CFD3040697C52
:10142000FE220A40101868740A3C62426241C806F3
:10143000C00F30210CF0FEFCC007C00E697CEF220B
:101440000A4010186874FAE62B200001305CC2B222
:10145000782028212B460CF039FD1398401F434279
:1014600043419F208400305D42093020144908F038
:1014700071FF4001315D1F220A4010183055DEE631
:10148000260E0020EE0400206C0E0020E8F800007C
:101490005BF3000098040020699C00002B0E0020E4
:1014A00071030000260E00202CED00004DF7000017
:1014B000BCF6000056EF0000AF02000081F900000A
:0414C0000DF4000027
:1014C400F0B58BB0224901260E7022490978C9076C
:1014D40001D0042200E003221F4C214608F010FB37
:1014E40007461E4D2878401EC2B220463946FEF7F4
:1014F400E5FD1B4800780B2801D900F0FCFD01979D
:10150400029618490E7827780A9740007844808814
:10151400400087440B0029005B00AD00BE002A0197
:101524008101AA0186028E02AC02EF02F1480CF09E
:10153400ABFC0848007801220240D11C0A322A7010
:10154400781CC2B2EC480CF03FF800F0D4FDC04661
:10155400800E0020700E0020590E00206B0E00201B
:10156400150E00207C0E0020E4480CF08DFC0620B3
:1015740028702E25E248425DE2480090002F06962E
:10158400344600D000247620082123460CF03CFC8D
:10159400002CDB4E07D070570A212D220BF094FD4E
:1015A40070550BF089FD1020D7490CF075FC3125DE
:1015B400705D0024012F00D00AE340B21521C94315
:1015C40016220BF081FD7055069B02E30696CF4868
:1015D4000CF05AFC062028700820CD490CF05CFC65
:1015E40039465C27C64DE85DC41D4026002906D156
:1015F4000698064360B207210BF0DEFC0446E2B213
:101604006620082133460CF05FFCE01FE8550A9E73
:10161400701E434243414324285D8006420F10203C
:10162400BC4908F095FE4007800E295DC7220A4098
:1016340010182855B01E434243414F242A5D042A02
:1016440000D304221820B44908F082FE0328069F20
:1016540000D907202855032E00D01AE34D2428571B
:10166400012164220BF030FD285540233B4313E352
:10167400AA480CF009FC062028700820A8490CF0A0
:101684000BFC002F00D1E1E32F209D49085C40238F
:10169400E6E3A4480CF0F8FB06202870002F02D1E2
:1016A400A1480921017079427941A048007800914C
:1016B400934C2246513208210A2308F07BFA781E03
:1016C400434243414625605D4007C00F1021984ABC
:1016D4000CF0E7FAC007400F615DFB220A401018C6
:1016E4006055B81E43424341C806C00F1821914AB1
:1016F4000CF0B0FBC007C00E615D3A46EF273940DD
:1017040008186055D01E424242414C26A05DC006D6
:10171400C00F20210CF095FBC007C00EA15D39401D
:101724000818A0550A9F381F43424341605D800654
:10173400C00F2821804A0CF08DFBC007800E615D2C
:10174400DF220A4010186055781F43424341A05DD0
:10175400C0093021794A0CF0A4FAC001A15D7F22AE
:101764000A401018A05500F0C6FC069674480CF008
:101774008BFB09202870042F00D99EE20BF03AFC61
:101784000825704928460CF087FB7A427A415D2788
:101794005B4CE05D0126304029460CF049FB3040AB
:1017A400E15DFE22099211400818E0550A98401E96
:1017B400424242414627E55D3540102128460CF05F
:1017C40037FB08963040E15D099A11400918E1554C
:1017D400A84201D00AF0A4F90A98022801D00020F6
:1017E400069049200990205C57490F5C0420574D0E
:1017F400C6B2002E00D18FE2062141435431C8B253
:101804000321394069184A781821069B07F0F2F839
:10181400701EF9B28F08EBE74D480CF035FB012040
:101824002870002525704B4C019E072D00D176E1D0
:10183400E8B20AF05FFC0E21635E02B29A420146EE
:1018440000DB1946E1811C23E35E9A4200DC184662
:10185400A083042D06D309B200B24018C10F40186A
:1018640040082080A41C6D1CDFE706963A480CF063
:101874000BFB062028702D48007807900AF0E2FF41
:10188400800700D56FE2082034490CF005FB1020D6
:1018940000231B4D042B00D190E20490C1B2581CCC
:1018A4000390C2B20026304609930891334608F0EB
:1018B40079FF099948002F183A37042E00D3ABE07A
:1018C40000240A98814209D1032017490870079817
:1018D400B042234603D10223069C00E023467F2026
:1018E4003040032800D994E001A1085C40008744FB
:1018F400374462799AEE000074C800008FFA000041
:10190400760C0020F5F9000000EC0000A0F80000BF
:10191400D4F1000051F00000EBEE00000BFB0000DE
:10192400AEEB000087FA0000620E0020340E0020A7
:101934006DF7000044F4000095F90000C4F80000BD
:10194400E3F9000023F0000077F400005BFB0000E3
:1019540094F80000520300207FFA0000FDF6000016
:10196400787882090898EB4908F0F2FC80017978CC
:101974003F220A40101878704BE07878800685166C
:101984000D20684381B2890B4018821042200899C7
:1019940023460CF099FAA0073BD51E20C1431F2211
:1019A40028460BF091FB3F2101407878C022024089
:1019B400501878702DE03D7800940720059005407C
:1019C4002B46103348200899E94A0CF0A2F9A007E5
:1019D4001FD5032128460BF0EFFA05990840397802
:1019E400F82213E000203856C5105A2008992A46D8
:1019F400234608F0DDFFA0070BD50E20C1430F22BC
:101A040028460BF061FBC000397807220A40101801
:101A14003870761C099950E704980830039B0A9F94
:101A240037E7D4480CF030FA1020D3490CF034FADC
:101A340061E3D2480CF028FA0025E9B209297AD2E8
:101A4400E800032900D90838C4B26E1C72B22A20F7
:101A54000023214608F0ACFF0F35E8B208F01AFE67
:101A64000246442021460CF0FEF93546E5E7C44819
:101A74000CF00AFA02982870C2480025057020204C
:101A840006430696C04FEEB2082E68D2E800C4B2F0
:101A94001820412221460CF08BFA28463130C2B27C
:101AA4001E2021460CF084FA30460AF023FB02463D
:101AB4002A2021460BF086FE032E04D830460BF074
:101AC4009BF9401E02E0062E28460CD8C0B2400006
:101AD400385E19214143080E081802125A20214683
:101AE4000CF07FFA04E05A202146069A0AF026FFF9
:101AF4006D1CC8E7A5480CF0C7F9029828707B4212
:101B04007B414624A24D285D4006C00F0821A14A0E
:101B14000CF0A0F9C007400E295DBF2277E12A240A
:101B2400202E9D4D285D9D49087000D1F0E1BF2E07
:101B340000D1F9E100E2102099490CF0ADF900243C
:101B4400E0B206281DD2E1003822551A08F0A2FDA1
:101B54000246E9B220200CF086F9641CF0E78F48B5
:101B6400029901708F480078002800D1C3E2302424
:101B7400874D28577E21C9437F220BF0A5FA2855AB
:101B8400B9E254201821884A0CF026FA0025EBB259
:101B9400032B00D9AFE2E8002030C4B25420214620
:101BA400824A09F0E3FF6E00B01DC0B208F072FD76
:101BB40002466C2021460CF056F9F01DC0B208F024
:101BC40069FD0246782021460CF04DF96D1CDEE7D4
:101BD400234642B26020102108F0EAFEB81E4242B9
:101BE40042414C25705D4006C00F18210CF020F9CD
:101BF400C007400E715DBF220A40101870552025A1
:101C04000321E7B2022F31D23046002F01D05030E9
:101C140000E0483004780A988142089106D160B205
:101C240078210BF0C9F90446069B00E00023E6B2D4
:101C3400052272430995EDB2662029460BF024F87B
:101C4400002E04D07820732229460CF0B1F9002F1D
:101C54004F4E304601D0503000E04830099D08997D
:101C640004707C1C0835481CC1B2CAE70A98401F9E
:101C7400424242414624305D0007C00F30210CF03F
:101C8400D7F8C007000F315DF7220A40101830550D
:101C940031E24D20285C4023C2B2662020210CF0A2
:101CA40013F9042E00D098E04E24285705210BF098
:101CB40083F9285540210F4392E0092F01D30827C7
:101CC40027700A973A4803210170314C5F34082188
:101CD40005260027042F00D10DE200200090CDB28C
:101CE400FBB21E2009912946324A0CF012F8F6B2D2
:101CF4000A98801B414241412F48007800910423F7
:101D04002946224607F056FF0999241D7F1C0831F5
:101D1400761CDFE748F800000698002805D0099DE6
:101D2400605717210BF048F9605500252F46042D04
:101D340071D01826304678432430C0B2EBB220214B
:101D44001A4A09F013FF5E20205CE840C00707D060
:101D54006E432436F0B22021122200230AF0D0FA76
:101D64007F1C6D1CE3E71820EF490CF095F8C2E1E5
:101D74005FE9000077FA000058F1000094FB0000CE
:101D8400C7FB0000720E002098040020DAF900005E
:101D9400760C0020A7FA0000520300201D0E00203C
:101DA4003BF30000260E0020AFFA00004CEC0000CC
:101DB400620E0020B8F50000340E0020042F00D07D
:101DC400D2E04A2428570921C94328220BF07CF980
:101DD40028552021069B0B43C9E04E20285C402750
:101DE400D9490091C2B2662028213B460CF00CF878
:101DF400701F434243414624285D8007C00F3021B1
:101E0400D24A0BF04EFFC007800F295DFD220A4025
:101E1400101828556FE10A98032800D0EBE0B84861
:101E24000078C00709D05E2560570F210BF0C4F875
:101E34006055C4480078400605D423201F215C2245
:101E440009230BF039F84420205CECE02F24AF4D3B
:101E540028571E2178220BF037F9285540233343A5
:101E6400C2B2662008210AF055FD4525A74C605DE5
:101E7400012F08D140B20921C9436E220BF024F985
:101E84006055334600E0002342B20A32702010212C
:101E94000CF01AF8B81E424242414325605D012706
:101EA40038401821A54EB04733463840615DFE22C4
:101EB4000A40101860550A9EF01E424242418807AB
:101EC400C00F20211F469847C007800F615DFD2287
:101ED4000A4010186055301F424242414807C00F63
:101EE4002821B847C007400F615DFB220A40101843
:101EF4006055701F43424341C8093021904A0BF09A
:101F0400A9FFC001615D7F220A4010186055F2E00C
:101F1400401C7C490855C1B203290DD117200BF090
:101F240055F801200AF08EFB76480021015518204F
:101F34007C490BF0B1FFDCE0C0B20028F7D00228E6
:101F440000D190E0012800D0D3E00024724E734FFA
:101F5400072C00D1BAE0AE83EF81E0B20AF0CAF8F0
:101F64002880AD1C641CF3E74A20285C20236F49B9
:101F7400009140B20A3082B24E20302421460BF048
:101F840043FF32356A4E902C10D0287869780902C4
:101F940008183188081A400002B2E0B23821202320
:101FA4000BF092FFAD1CB61C1834ECE7052F52D190
:101FB40001986028029C4FD15D4908883222534C15
:101FC400A0545C4A002313703234CA88A2718B88EF
:101FD40023714988A170120AE2711A0A6271090A0E
:101FE400E170000A6070012420460AF02BFB1720E0
:101FF4000AF0ECFF30E044250428605D13D14D491C
:102004000978002979D040B203210AF0D5FF615D37
:10201400C2B202238A4207D060554C21625C7F25FC
:102024001540655400E000233130C2B2122028214B
:1020340006F0E0FC0024E0B203285CD818256543D0
:1020440024350AF0D9FE0246E8B22821002308F01C
:10205400A9FB641CEFE7002400203821364A2346FC
:102064000BF082FC47E02848002101700D20C0439A
:10207400264D00282DD023490A18135F1C26965F8D
:10208400F71AF9177F184F40332F1DD399B2B3B203
:10209400D689891B0AB2920E8A1812B29209891A39
:1020A4002A182B27D155D673370A1774F31A1EB280
:1020B400B60E9E1936B2B6099B1B5377090A16460B
:1020C4002B367170190A9177801CD2E710201449BD
:1020D40008E00AF065FD2B2168542B35000A68706E
:1020E40010200B490BF0D8FE12201821094A0BF0DE
:1020F40073FF08F075F90BB0F0BD089B94E7C04678
:10210400700E002052030020720E0020760C002076
:10211400CAF5000012F6000068C50000983A0000F5
:1021240002F8000023F6000019FB000036F9000055
:1021340078040020260E0020C3FB000047DE0000C8
:1021440010F80000360E002034F6000088F8000075
:10215400F0B59DB0029002200A46149002401392FA
:10216400202008400690012603913140129144201A
:10217400D449085C8006000ED34908181190092040
:10218400C043099000271BA81A90D04C10971797AA
:1021940016971596072F00D1C5E0FCB2204609F02A
:1021A400A9FF00B21994214608F042FC0446032F0B
:1021B400384604D82009C649C8551198C05DC5B22F
:1021C4006B00C448C452200F201800B20009010655
:1021D40001D5404200E080B20006BF4988420CDCD1
:1021E400002802D0BD48007800E0FF200121A9406A
:1021F4000140C8B2169901431691032F29D81298A9
:10220400002818930DD1B148007B800709D5AD484B
:10221400C6183A20305C3A36717809020818810BE6
:102224003FD1179E0698002803D0AD48C018F82166
:10223400445221B2284607F04FFB0446A9480078CF
:1022440019990BF049FE189B40001A9908801796BB
:10225400159E0698002803D0A148C018E0214452D6
:10226400032F01D8002000E00120139900293146F2
:1022740000D0014600290ED1022D0CD00A2C02DC1C
:102284000998844204DA9648C018E0210022425298
:102294001BA80021C1521A98801C1A907F1C8B4CD9
:1022A40078E7000200B2C0120BF072FE00282DD0B5
:1022B4008D480078002829D03078717809020918EF
:1022C40048070B460F91000F7E49091832228A5C99
:1022D4003231497809028918844A105A401A81B265
:1022E400C90B401800B24008990009B2890A414359
:1022F40008B21F210BF0C6FA86000F98800B022843
:1023040007D00128189B06D1341904E0179E189BA6
:1023140088E73446189B022D00D0179E022D81D1E8
:10232400012010907EE7607CC0071AD06D480078C9
:1023340002210BF0D1FD04460AF042FD002800D032
:10234400644260B27D30E421654A515E012292020A
:10235400511A4143C817800D0818800A1BA98880A8
:102364005A4C0126B00205900698002800D1EDE0F1
:10237400647D1698044059480078FF2141400C427E
:1023840002D018200AF022FEF0205549059A0A527C
:10239400EE200A52514804704C48007E002830D088
:1023A400E2244F4A115F4943E627D25F524355184E
:1023B40040B20BF000FD03464043854221D91A97F1
:1023C400F00301468AB25243AA42024600D80022D0
:1023D4004A400004400C114601430028F2D1404F0A
:1023E400385F584395B229461F460BF04BFA3C49D7
:1023F40008531A9C085F784329460BF043FA38497E
:102404000853324CA37D202B00D29FE00020139967
:102414000029024601460AD1E621314D695A1BAC16
:10242400E2885218E221695A64886118274CE47DD5
:10243400002C0CD0601EC4B26000142C03D32C4CAE
:102444000019283802E0264C2018E0300088DC0609
:1024540000D540421C0700D552425C0700D54942D2
:102464005B09022B06D0032B29D0042B42D1831AFB
:10247400841862E00BB2DB0B9BB25C0B0C1924B228
:10248400E4086442A4B28DB264195D0A4D192DB2F8
:10249400ED096D42ADB264199B09C91809B2890AE4
:1024A400494289B2611893B2DB0BD3181BB25B08A3
:1024B4009BB284B2E418631A641811463DE04418D0
:1024C40039E0C046760C0020CDF60000EE04002072
:1024D4000D0E002098040020FFFFFF013C0E002099
:1024E40008FCFF1F860E00202A0E0020780400201E
:1024F4003004002013B2DB0B9BB25C0B141924B222
:10250400E4086442A4B295B264195D0A55192DB267
:10251400ED096D42ADB264199B09D21812B2920A48
:10252400524292B2A2188BB2DB0BCB181BB25B08DF
:102534009BB284B2E418A31AA418F622FB4DAB5242
:10254400F422AC52401AF2216852F94CF949F6319E
:10255400179800B2002500918842304600DB2846D7
:10256400109909061599019100D001904020039912
:10257400014003911A34B0040D90032013904004D9
:102584000C90F0041090B0050790192008904005B5
:10259400E9492E460490102D00D1A0E300201190AB
:1025A40016952078401EA8421A9600D0ABE21498E3
:1025B40020560BF0DAFC1890F1B2DC48179145185C
:1025C400C020285C1990C035139820560026159F0A
:1025D4003946324604F042FFE17800290ED0012149
:1025E4004840D6490978002900D0074662780D3A58
:1025F400082A00D30746002F02D009E0002807D09C
:10260400617A1F200840CE4A1278D040C00728D0F3
:1026140060782E700146083902290FD26179A279B7
:1026240012025118E279120489180C9A11400D9A79
:10263400914212D1169DC0491A9EEBE12D28169D98
:102644001A9E08D117988000B8490818F849119AB9
:10265400514309120164B849DCE1092821D0374605
:1026640021E0199E70424641631C6278501EC0B23C
:102674000B280E93199619D84100AC4A5118E02240
:102684008F5A012603284ED86079A27912021018B5
:10269400E27912048018079A104244D0F8200F5AA5
:1026A40041E0A44FE237601C0E903CE0132811D89F
:1026B4000D3AD0B241000328DE48405A08D8DE4A19
:1026C400511832228A5C3231497809028918401A39
:1026D400470027E023280DD86179A2791202511806
:1026E400E279120489181438079A4000114217D06D
:1026F400D24916E0242809D149B2C8B2400900D110
:10270400DCE1002900D5E2E10E21E1E12B2800D92A
:10271400CDE1400086494018C9494056C70001E050
:10272400C8490F5A01262E706079A1790902081848
:10273400E17909044218631D10980242129315D1DD
:10274400207A00281A9E12D040B27C21C9437D22EF
:1027540009F09EFD0BF02FFB129BC71918785978CE
:102764000902081899780904421800E01A9E100416
:1027740000D1C5E06E48407C00070F9201D51420BB
:1027840000E064200A90179A550068490B954E5B47
:1027940090000A18156C280A381A01B20A2902DCBA
:1027A4000998814206DA002E05D100260F9800060A
:1027B40004D100E000261998002824D00F980C9921
:1027C40008400D99884213D1207840009D49401853
:1027D4000121C943405E08998D0245431899002997
:1027E40006D0284615460BF04DF82A46129B05469E
:1027F400280A381A010409D000B20028199009D413
:102804000F98000907E019910B9909E0002019902D
:102814000B9905E00F980B990F2606400A9846433A
:1028240042484018403231B201290BDB864909780D
:10283400002900D0761E310402D006802F0A2BE036
:10284400099E093619990680002925D0179518780C
:102854005978090208189978090445182804000EC3
:1028640018D07948007800281A9E17D00F9218992A
:102874000029049A104607D0C81109184140C9B26A
:1028840010460BF0F7F8129B0B901998002807DC00
:102894000C2106E038B205021A9E29E0179D19E0C2
:1028A40008210F9ACD400F20284007D002461999DD
:1028B400002906DC0B984042179D04E038B205025B
:1028C40008E0179D0B980A9951430AF0DBFF45195C
:1028D400129B0F9A38B22912199F012F01DB8142F2
:1028E40004DC199F002F02D5814200DA05022F0A69
:1028F400156018785978090208189978090442185B
:1029040004202156100200121CD41A20C043814214
:1029140002DB1C2900DA80E07F20C043414038B24A
:102924000AF0CEFF129B0746169D2AE008FCFF1F03
:10293400EE0400201EFBFFFFB4FDFF1F2A0E002043
:10294400860E002008460BF010FB01280BDB3AB280
:10295400002A08D56421081A424310460AF092FF5F
:102964000746169D0CE00028169D09D539B20129A9
:1029740006DBB9B26430484364210AF083FF07469A
:10298400129B187859780902081899780904401894
:10299400C1030AD40E9909784A1E032A05D84900AE
:1029A4001BAA8918891E0988CF1939B2189F4F4369
:1029B4001099084216D0217A002913D048B27C21FC
:1029C400C9437D221D4609F063FC0BF0F4F9642130
:1029D4004143CF192878697809020818A978169D07
:1029E40009044018C5494003800F02280DD001286E
:1029F4000DD1642138460AF045FFC049119A42437B
:102A0400D017800D1018801203E0119702E011987E
:102A140038181190761C0A34C3E506291BD8169D74
:102A24007944097949008F44111224282D343A003D
:102A34008F02000078040020760C0020100400208F
:102A44006D0200003004002045FEFF1F99E738B2F4
:102A5400002896DC1BE00029169D00D57F42002942
:102A640001D50620411A38B2C91FC9B20AF039FD8E
:102A740085E738B2C013074083E738B2C0133F1864
:102A840047407EE738B20028059F00DD79E700273C
:102A940077E79848E23039B2CF13074071E738B28C
:102AA4000028059F00DD6CE7924FE23769E72C2888
:102AB40018D1642111980AF0E5FE19E0122007F0FC
:102AC400E9FD0126002815D08A4FE2372BE61121B3
:102AD400081807F0DFFD0028059F00D022E6854F87
:102AE400E2371FE62E3AD0B200210A4606F0E0FB98
:102AF400074617E6132007F0CDFD002801D1059FF6
:102B040011E600270FE600227B481792027008782E
:102B140000281ED00F466426119831460AF0B2FEF2
:102B240001467248007840003818C0884843A9001C
:102B34007918069A002A01D10A6980180861039954
:102B4400002900D1C7E06D4989880AF09BFE4643FD
:102B540000E0119E642130460AF094FE6A00644944
:102B640018928852052068435F4D2918AD20400013
:102B7400199111900B18D97804200E901A5612024C
:102B840052182B210901695C4D42AA4200DB15460B
:102B94008A4200DC294601200F901B560A256B430C
:102BA400059FFB185B18183B18B2E237B84200DBEC
:102BB4003B4618B21290824200DC13461998119ACF
:102BC400805645434B4A50194518FA3528B290426D
:102BD400179F00DC474D18B229B21191884200DBDF
:102BE4001D46002E0CD0002E02D41298401B01E08A
:102BF4001198281A00B2704341490AF043FE07466F
:102C040028B2404DA847C61937B21298A8470546BE
:102C1400874200DC35462FB211983A498847064668
:102C2400874200DB2E46572080001999085C002853
:102C340000D07642169B9F2080002B4A105C1F21F7
:102C440001401020401AC0B283423CD21898151893
:102C54002D4AA85C8000010635D0AF1840B2801020
:102C64000BF096F939788A090146032A24D30028FF
:102C740017D11C4A0E9BD25E1B4B244FDB5D9B0677
:102C840004D4009B9A4207DB159A08E0D313D218A8
:102C94005A4012B2142AF7DA019A0F9B5A40002ABA
:102CA40003D1012250401A4A1070194800780028B4
:102CB40000D10F9910480170002904D015482856F6
:102CC4000BF079F806460BF0A3F9029818994652CE
:102CD4000BF09CF9169D6D1C08491A9E5BE41DB00F
:102CE400F0BDC04698040020EE040020860E0020AB
:102CF400300400201EFBFFFF6E0E0020B4FDFF1FFA
:102D0400A0860100ADDE00007D020000710300001A
:082D1400470E00207E020000C2
:102D1C00F0B585B0F34800250570F348078808F036
:102D2C0009FBF2480168F24A12680260501AF14C31
:102D3C002070F14E3078002803D1F048002105F0C6
:102D4C00EFF82078002800D1B9E2FC48017800297E
:102D5C0001D0491E01700AF063FFF9498A8890423C
:102D6C002DD14520F74A105C0A3002062CD0F64AC9
:102D7C001278322A28D30A78521C0A70D2B2102A3E
:102D8C0022D300220A704A88521C4A80FF217831D3
:102D9C00C0B2484380B291B2884215D21F20024083
:102DAC00012A11D1E9480178FD220A40027006205F
:102DBC000AF0CCF810202D2109F0F0FF04E04D8032
:102DCC008880E3480121017002F0CAFE09F0D8FFA7
:102DDC00E0480178002901D0491E0170284605F011
:102DEC0013FA0AF0BDF8DC48047805703078002836
:102DFC00039501D00294FAE101970F202040801F27
:102E0C00D6498F7C042F03D0032F02D1042700E076
:102E1C0008277C21C9430491C0B2072804D8F021AB
:102E2C002140202900D088E04020204340281CD19C
:102E3C0027460020C543CA4C2078411CC8B28842A2
:102E4C002E4600D1064609F05BFF002800D106464D
:102E5C00F0B2C82800D035462570C82802D0039D92
:102E6C003C4602E04220C443039D0C20BD490A5E4F
:102E7C00BD48415F891ACB0EC9184909090493B2A0
:102E8C00294606D003800421415E891ACA0F89188D
:102E9C0049108380B54A1278002A00D02946462270
:102EAC00A84EB25C920600D529464180B04F787985
:102EBC007978091ACAB2D2098918FE220A40101868
:102ECC00787148B2401038722043C0B208F020FB31
:102EDC00A84800788000A84909585C20305CC01DC7
:102EEC00A64A914200D0A9E0A54909780029049B83
:102EFC0000D0A4E0397A00290CD000223A720622C4
:102F0C00BA5649B25118994200DC19467D2900DBAA
:102F1C007D21B9719F218900904A525C510900D1E1
:102F2C008DE050B200287DD448008E494018C088EE
:102F3C0001218A028018C9027BE04421814E715C18
:102F4C008900904A51184008085C5D21715CC907E2
:102F5C0001D00321081AC5B28B48007829460AF023
:102F6C000CFC009029460AF0B3FF002F08D1C113C6
:102F7C0042184A4011B2890F511889B289084F1C66
:102F8C00022D10D14621715C804A744B9A5C9209D7
:102F9C004A40D2075B7C0121194000D00227002A4D
:102FAC0002D07F4200E000212E46E2077AB2029462
:102FBC0000D15242121893B25C1EA34114464440F5
:102FCC0024B2049D7C35AC4201DC002400E00124D9
:102FDC0023400B430FD100280DD000270098314619
:102FEC003A4608F043F9029809F02CFF162009F034
:102FFC00E9FF3C461CE717B238467C3080B2F82813
:10300C007ED8009831463A4608F030F978B2C011B3
:10301C0039184140C8B281083C31152009F0FAFF3B
:10302C00002405E748004D494018594940567D3069
:10303C00FA2182B2072050430AF018FD049B029437
:10304C0054490978C0B2884202D009F07FFF049B32
:10305C004C203056504C002826D52078002823D000
:10306C004E48007800283D4A00D19DE000244C4D8C
:10307C002857002801D4401C2870022008F076FA4A
:10308C007F260146314014D02A788A4225D92C70EB
:10309C0002990906FA4A049BFC4C00D084E040B229
:1030AC00002849DA63207EE0F94800210170F44AD7
:1030BC007AE0032008F05AFA06400ED02978B14283
:1030CC00EF4A049B0BD92C7002990906EF4C6BD17B
:1030DC0040B2002866DA642065E0E94A049BEB4CB8
:1030EC0062E0C046870E0020D20400206CFFFF1F58
:1030FC0060FFFF1F45FEFF1F880E002010040020FC
:10310C00002F049A00DD7D220098314608F0AEF8BD
:10311C0038467D3080B20024FA2800D988E678B28F
:10312C00C01139184140C8B280083C21081AC1B2FC
:10313C00152009F06FFF7BE6622034E0210E0020A1
:10314C00CC040020760C0020330E0020700E0020E2
:10315C001A0E00202A0E0020240E0020EE0400205F
:10316C00650E002098040020BA0400201D0E0020DB
:10317C00FC0D0020350E0020E0FEFF1FFD3400008A
:10318C00110E0020CDF60000860E00207103000009
:10319C00B5020000850E0020720E0020710E00207A
:1031AC00420E00206520029001202070BF79002083
:1031BC00C14CC5B2062D18D8680016185720C0008F
:1031CC00305C00280FD00528394604D007F094FD58
:1031DC00049BAB4A014648B2984200DC18467D2855
:1031EC0000DB7D203055681CE3E7019F039DA94C53
:1031FC00206800280DD00025294608F05BF90AF05C
:10320C00A2FEA5490A78012A1CD100281ED12560EE
:10321C001CE0A1480570A1480478002C04D005706E
:10322C00172009F0CFFE02949D48029A02709D4827
:10323C001421017093480078800093490958D0B24A
:10324C00884703E0002801D00120087007F00AF934
:10325C00954800781F21014002292DD1934805780B
:10326C00103505700E209249085E410F411809B2C5
:10327C00C9083022804CA2564A430001101880B273
:10328C00A52149000AF0F2FB7C490A781018401C71
:10329C004008087029060FD12F21615CC0B2814211
:1032AC000AD911202E2109F079FD4620205C000757
:1032BC0002D58048322101806E48039901707F4805
:1032CC000178032901D10021017069480088C01BD5
:1032DC0082B27B490B889A4200D90880794EF078EB
:1032EC00002800D1B7E078480188491C01800020F3
:1032FC00634DC7B20B2F00D987E0032318467843E0
:10330C002C184B20C00021180391744961180291AC
:10331C00215C0F22084604921040714A1018401E7E
:10332C0000780328019307D178006E4A125E002AB8
:10333C0004D00CD4561E1DE0049A2CE00022029BF3
:10334C009E56002E16DBF2430A26564312E092B22A
:10335C00561CB2B2B2420DD003227A43AA18624B69
:10336C00D256002A05D4521C52B20A2353435E1E75
:10337C0000E0D6435B4A151808090AD0082800D982
:10338C00401C0AF001FE002801D1504E7C360398F7
:10339C000178049A2E8011400C295448C55D08D13F
:1033AC000026029880570AF0EFFD002803D0012672
:1033BC000CE02E460BE003207843314908184A49AB
:1033CC0040560AF0E1FD002800D12E46049A0398DD
:1033DC00007810400D282A4D13D100200299085670
:1033EC000AF0D2FD00280AD0B0070AD43E48205675
:1033FC000AF0CAFD0028019E03D1022601E0FD203F
:10340C0006403A48C655781C73E709F029FC00249D
:10341C002C4EF4702F462E4D785D00281BD02D4875
:10342C0038560AF0B1FD00280AD0785D811E0429B7
:10343C0009D2C8B200210A4605F036FF044606E060
:10344C000020014605E0012801D12348C46D20B2BB
:10345C00012105F05DFB7078002807D0002070700A
:10346C000B480178002901D0491E017005B0F0BD50
:10347C00D20400201A0E0020760C0020330E0020FF
:10348C00EE040020350E0020E0FEFF1F720E00201F
:10349C00710E002090FFFF1F430E00207D0E0020B8
:1034AC006F0E0020730E0020360E0020440E0020FC
:1034BC0068040020D6040020B7020000320E002061
:1034CC00D4040020940E0020E004002083FF0000B0
:1034DC00ED020000EE02000008FDFF1F5602000086
:1034EC007CF700005004002057020000E60D00207D
:1034FC00F0B587B0F24900230B70F24CE17C7022DE
:10350C000F46059217400F220D4606921540EE4AC3
:10351C001278002A04933AD003971420EB4F3856B4
:10352C000AF032FD0446EA4E002804D03078002818
:10353C0001D105F04DFE3470E8B2042811D11120F0
:10354C0000900025E14C0A232846294622460AF021
:10355C0078FADC480078EE490978814243D3284652
:10356C0042E00390D7480478E94805780A26782E7B
:10357C0008D03A78F0B20021042305F037FA7F1C0A
:10358C000B36F4E7A54200D2A9E08422A8E002465B
:10359C00803A0E2A00D88FE10246203A0E2A00D932
:1035AC0013E252007A449288520097440F000E00A6
:1035BC00CB02CF02D302E4020E000E000E000E006E
:1035CC000E000E000E000E000F00A5E7042DA3D177
:1035DC000024BD4A54700121117009F033FCCD4810
:1035EC000470042598E70120039E420054202946CC
:1035FC0009F0A0F96F2029462A462B4609F006FC53
:10360C00382008F045F9302E00D195E1202E00D15C
:10361C0095E1102E00D0A1E11825284608F0E0F81D
:10362C000826BD4930460AF033FCBC48205C401EDD
:10363C00C0B207F027FB15214901625C6118012318
:10364C00C95609028918B64AA75CA218D2561202AA
:10365C00D2199042134600DC034618B28842084641
:10366C0000DB184600B2431A64205843511A0AF082
:10367C0005F90746C0B200901920092150220623F3
:10368C0006930AF032F83AB2792031460AF0A5FCDA
:10369C00F7480078252231460AF086FC2826F7499F
:1036AC0030460AF0F5FBF648425F0527C424009427
:1036BC000197122020252946069B07F06BFA402023
:1036CC00F54A31460AF084FC1C20ED490A5E009450
:1036DC00019752200723294607F05CFAA1E18622C4
:1036EC0025201025294609F025F9262018265622D2
:1036FC0031460AF059FC5D200027042329463A463E
:10370C0009F084FB332031463A463B4606F04AFC2E
:10371C0008F0CEFE00280CD00246262510212846A3
:10372C0009F028FA25200F2109232A4609F0C0FBAD
:10373C0077E06648837C0020009026201021D74A31
:10374C000AF0E3FA6DE0304609F052FB0546D44826
:10375C00007831460AF0BCFBC1138A0F821812B2F2
:10376C009410002801DC204600E00120220600D144
:10377C00441861B21B20C043814200DC044660B295
:10378C001C2800DB1C247F203840C6494919491EDF
:10379C000D7801280BD0022821D10421362228468D
:1037AC0007F0BCF94948407CC00705D014E004215F
:1037BC003622284607F0B2F9681EC0B21E260697BC
:1037CC00032731463A4607F0A9F9681CC0B23146C6
:1037DC003A46069F07F0A2F91F20011B18E0284665
:1037EC001B38C0B23B2105913622AF4B9847681E5F
:1037FC000697C7B23A21032638463246AA4B984759
:10380C003C213846069F3246A74B984705996519C7
:10381C00E81EC0B2C91EC9B20722134609F08AFFBE
:10382C007F1CFEB2032E8ED9039E012E38D80024A5
:10383C00F74D082C00D1F4E02A88012E05D0002E7B
:10384C002BD1042C05D3302104E0042C1CD35E2096
:10385C001BE0282110B2C00B80B2C30AD3181BB2D4
:10386C005B09D31A400A101800B2C009181802B22A
:10387C000320204036234343123358081830C0B27B
:10388C0020230AF01DFB08E02220032323400521FE
:10389C005943263112B206F071FEAD1C641CC8E708
:1038AC00022E7ED106F098FDD048057806246C4394
:1038BC00002D7DD128467CE0910006A251588F4600
:1038CC00720E0020A50C0020110E0020EE0400202A
:1038DC00450E002033390000FB3A0000073B000086
:1038EC001B3B0000293B00003D3B00003139000030
:1038FC003139000031390000313900003139000014
:10390C003139000031390000313900003339000001
:10391C00330E00206F0E002099FB00009F02000068
:10392C00A2020000F8E50024AE4A54700221117086
:10393C0009F088FAB3485AE01020B64905E0B948B6
:10394C00007800286DD01020B749B34CA047182040
:10395C00B249A0472020B249A04762E03F2008218D
:10396C00302207F0DBF80520C543002D59D0601933
:10397C00AF49405C002812D0AF1D461EF0B207F0D4
:10398C0081F903460420009006980190F9000598EF
:10399C0001401031F807400E72B204F035F86D1C7E
:1039AC00E3E73C2028210122042309F02FFA38E018
:1039BC00E01CC1B20A2009F00DF8002D19D0A01D91
:1039CC00C1B2642009F006F82BE0612800D1E4E0D4
:1039DC00BF2800D0A0E50124834E2046B047032029
:1039EC00B0470220B0478148002101708048047024
:1039FC0092E564242826844A204631460AF0E8FAE7
:103A0C00722507222846314609F019FF30267F4AD5
:103A1C00204631460AF0DCFA04222846314609F0E9
:103A2C000EFF704C207800285FD0012807D1814808
:103A3C0003210E2204F038FF0522049B06E07E4889
:103A4C001F210E2204F030FF049B1A467B498B7019
:103A5C0001284AD1A0788018C0B2062845D8C046A3
:103A6C007844007940008744050D212C30343A000D
:103A7C007A0E0020624808F0E7FC36E0CFFB00002D
:103A8C0008FDFF1F7248002101705B480121017085
:103A9C00704808F0D9FC28E0CBFB000067F600006A
:103AAC00860E0020B7FB0000ABDF00000120887001
:103ABC0065480078800065494018406808F0C4FCEF
:103ACC0013E04E4808F0C0FC0FE04A4808F0BCFC7C
:103ADC000BE090205549085A40425A4904E08C208A
:103AEC005249085A40425649088007B0F0BD09F0C7
:103AFC0073FA0AF063FA172063E004200743E774B3
:103B0C00172009F05FFA822009F09CF9EDE739489B
:103B1C0008F09AFC832009F095F9E6E73648012174
:103B2C000170374808F090FC842009F08BF9F3E41D
:103B3C00314801210170314808F086FC852009F0DC
:103B4C0081F9E9E4002D2BD06D1E2AE0032D30D82D
:103B5C006D1C2FE006980140042938D0022900D0B2
:103B6C00DAE422480178491C4AB2022A00DD00211D
:103B7C0001700225D0E406980140042924D00229C2
:103B8C0000D0C9E419480178491E4AB20225002A1E
:103B9C002A4600D40A460270BEE4042D1DD0BBE4B4
:103BAC00042528463843E074A12008F047FD142072
:103BBC0007E0002528463843E074A12008F03EFDBC
:103BCC00132009F0FFF9A7E43846303001E03846FD
:103BDC00103030210140081DE074172009F0F2F973
:103BEC00042599E4110E002051CE0000630E002034
:103BFC00450E00205D9700001D0E0020C51400002E
:103C0C00C15100006F0E0020F7FB0000F4FB000018
:103C1C001004002045F600009DDE00007FF500003A
:103C2C0041F90000980E002056F6000008FDFF1F19
:103C3C00B702000043F5000077EE0000150E0020DF
:103C4C00E8040020EC040020350E0020E0FEFF1FED
:083C5C00740E002011040000A9
:103C6400F0B58FB004463148007809F035FA0546BE
:103C74002F4F0E22384607942146FCF71FFA2D4891
:103C84000AF002F92A78801DC0B200242146234696
:103C94000AF0F2F83F57384608F0DCFE0690264852
:103CA400027808202549029009F020FF2B46F8B23B
:103CB4000890E0430390691D0D950591E0B2072833
:103CC40000D31DE206982018C0B2089981420C94D2
:103CD40001D0002601E01A490E780E2800D90CE222
:103CE4000C99CD002C460834810001A251588F460E
:103CF400493D0000693D00007D3D0000913D00000C
:103D0400AB3D0000C53D0000E73D00001F3E000044
:103D14007D3E00009B3E00002F3F00005F3F0000FF
:103D24007F3F00009F3F0000C13F0000680E00205D
:103D3400570E0020B3F90000200E002005EA000011
:103D44007C0E00205D78E1B21C46F3B2542022467A
:103D540007F076FD252D00D043E1607A450925352D
:103D6400234642E102201A56E1B2F3B260200AF07F
:103D740017F80D9B9870C0E102981A56E1B2F3B29D
:103D840060200AF00DF80D9B1872B6E1059DA87825
:103D9400E1B2F2B20007C00F0AF04AF80D9BC00767
:103DA400000BF721D1E0059DA8784006C00F597893
:103DB400042900D929E1E1B2F2B20AF042F829E17A
:103DC400059DA97801200840E1B2F2B20AF039F861
:103DD4000D9B7F214904AA7812040A40C007C00B36
:103DE400B7E0059A10785178090208189178090407
:103DF4004018C50D000200120399884200DC1CE142
:103E0400042018561A21C943884203DB1B28C54ADB
:103E140000DA13E10225C44A10E1059A10785178BA
:103E2400090208180221515609044018042503996F
:103E340088425F5700DC1FE11A20C043874202DB3F
:103E44001C2F00DA26E17F20C04347404020304346
:103E5400C3B2E1B266203A460AF036F8300606D01C
:103E64006320C1436422384609F02EF907460D9BAE
:103E740080207840187140E1F3B2581E1946814100
:103E840003200D9A12560091E1B24E2009F036FD3E
:103E94000D9BD87031E130060A9002D004209B4972
:103EA4000870072009900543049500260121F7B204
:103EB400042F00D921E1587A0E9108401F210B915B
:103EC400084043424341099D754328463F30C0B2F0
:103ED400E1B232463032D2B204F08CFD0A980028A6
:103EE4001DD08B480078B84219D10498C1B23E3530
:103EF400E8B20822092308F0DFFF07982E2801D032
:103F040020280CD10E980B9A02400D99487A504003
:103F14004872022008F096FB00207E490870761C47
:103F24000E980006C10D0D9BC1E70899081A43427B
:103F34004341059DA978E0B249078A0F724906F00A
:103F440007FA0D9B8007400BF9210904AA78120493
:103F54000A408018000CA870CFE0059F3A780F251E
:103F64002A40E0B2F1B208F0A7F80D9B2840397856
:103F7400F0220A4010183870BFE0059D2A78E0B29C
:103F8400F1B21206120F08F097F80D9B0001297880
:103F94000F220A4010182870AFE0059D6A78E0B23D
:103FA400F1B21206120F08F087F80D9B000369782E
:103FB4000907090D4018000A68709EE0059F7A7889
:103FC4000F252A40E0B2F1B208F076F80D9B2903E0
:103FD4007A7812020A400007000D8018000A7870EF
:103FE4008BE0252D00D9AD1D0D9B300600D184E05A
:103FF40068B20121372209F067F80D9BC1B2252967
:104004007AD32C2970D3801F76E0E1B2F3B2474A09
:1040140009F047FE29786A7812025118AA78120426
:104024008918384A114029700A0A6A70C007400A80
:104034000843000CA8700D9B5FE0394AE1B2F4B26A
:104044000620234609F090FC002C0D9B55D002213C
:10405400284608F0B1FF0D9B85424ED0811E4A428E
:104064004A41D1011971C005059A91784906490A56
:104074000818000C907040E06420F1B200900191A7
:10408400E1B26320C34348203A4606F035FA0D9B5B
:10409400187132E0E1B2F4B20C203A46234608F03B
:1040A400DBF80D9B002C28D058570F21C94316224A
:1040B40009F00AF80D9B1871079960291DD107288A
:1040C40007DBC01F14490870144808F0C1F90D9BA0
:1040D400187941B2002910D5C0430F4908700F4820
:1040E40008F0B6F90D9B08E0597A1F220A404001F6
:1040F400801860305872252058700C9C641CDDE5D3
:104104000FB0F0BDFFFFBF00F1F30000620E00200E
:10411400340E0020260E00206A0E0020CD840000FC
:104124006DFB000055FB000073FB0000A9F70000C5
:10413400F0B58BB00546E14809F0A6FEE04C2078C6
:1041440000281BD0DF4A117A002010724AB2012ADB
:1041540001DB622200E06322002900D01546DA491F
:104164000978002901D1632D05D0D84A125691420D
:1041740002D1622D00D10546D5480570D548007896
:10418400002805D1D1480278CF482946FBF796FF8D
:10419400CF4E3078CC4909780691012103912E281D
:1041A40003D0BF280AD060280AD1C5490A78002A5A
:1041B40040D0F948002202700A70F84C00202070A8
:1041C4000295069840B208F045FC0146F84800788C
:1041D400002801D000203070F148007800280791B1
:1041E40040D0F2480778622F01D0632F3AD13E467F
:1041F400623E701E34468441EF480578284608F034
:104204006BFF002D0AD1002C08D00178022901D3BC
:10421400491E0170022008F015FA23E0202D21D850
:1042240001D1622F1ED00021622F0A9107460BD0C4
:10423400C8430AE0DE4909780029C1D108F006FE26
:10424400002003903446B9E701202D18E8B208F0A5
:1042540043FF3978002905D0102903D80278102AA1
:1042640000D875E1012000263546C1B2102900D9D5
:1042740009E10A910890F0B2099008F02DFF079B1C
:104284000446EFB29F420BD3F81A062808DCC0009C
:104294000830C1B2012000230A9A09F0EDFD079B02
:1042A40009981F2800D9C4E020780A99884200D0D0
:1042B400BFE0BC4A0F46E8B2984200D2AFE0C11A50
:1042C400062914DCCF00B64909780022002927D139
:1042D4000699C9B2814223D10898B9490870B648F1
:1042E40006700398002813D0B148007816E0072917
:1042F40000D094E0AA480078002800D18FE0AF48AD
:104304000078F1B2884200D089E01078401C81E046
:104314000120A7490870002202924A704242424199
:1043240005920837F1B209980491884209D0E079DE
:1043340000210091F9B24007830F1320A54A09F028
:10434400E8FCFFB2302000233946224607F078FA11
:10435400022022562D203946059B09F021FDA0702C
:10436400E078002805D042B248200023394606F000
:104374001FFB207900281DD06179A27912025118FF
:104384000722A256120489180BD401461B31C9B264
:10439400362909D842B260200023394607F05CFF71
:1043A40008E06020642201E06020452200233946B1
:1043B40004F020FB6079A17909020818E179090465
:1043C4004018FF210902014001D0532200E02022BD
:1043D400002901D02A2100E04421000600D00A4629
:1043E4007920394609F0E4FD6D480078002813D09F
:1043F40072480078049988420ED11820662200235E
:10440400394607F07DFF6C48067028460695654AD4
:10441400079B0A9F107002E0624A079B0A9F6D1C6B
:10442400F0B21E2823D8761CA07A0A34B8421BD1D5
:1044340041E70698C0B2B84215D15F4806700898A3
:104444005F490870E81AC000C01DC1B200241922D7
:104454000923204608F030FD0398002803D108F012
:104464007BFB002805D06D1C0898401CFDE6202627
:10447400FAE751480078214606F07CFC484804706D
:10448400504807F0E5FF4A48007800285BD00298BE
:10449400464C20704C483F210B2204F009FA0128B5
:1044A4004AD14348807805282FD8C04678440079FB
:1044B400400087442011222A2E33C0464FFB0000BF
:1044C400220E0020FC0D0020600E0020230E002090
:1044D4006F0E0020110E002008F03EFB00280AD1C8
:1044E40035490878401C0870C0B20024214606F003
:1044F40041FC2B480470334819E02F490878401CCC
:104504000870C0B2012106F035FC0120244908706E
:104514000FE0294800782D49087002E02B48FF215C
:104524000170207808F092FC00202070284807F0E1
:104534008FFF00201E4908701E48002101701E488C
:1045440000781E490870681E174908700BB0F0BD4A
:104554003B468A420BD10A210A060CD002781C463B
:104564001B7803702270631C401C491EF4E7102959
:1045740004D30A9A03E0114805704BE60122704205
:104584007041104002462243012A00D042E6091B32
:10459400081818703EE6C046260E0020740E00204F
:1045A400220E0020600E0020230E00206F0E00203B
:1045B400110E0020260E0020680E0020660E00203A
:1045C400690E0020653C0000FCF100002F0E002065
:0845D400C9AE0000B2FB0000BB
:1045DC00F0B58BB00990FB4809F052FCFA4C2078EE
:1045EC00421C4E200025294609F0F7FC21780922AF
:1045FC00104607914843F5490C18F54EA05D40074D
:10460C0000D00A22F34F38460999FBF753FDA6193F
:10461C00F14824187F57052F089406960A970EDC4C
:10462C000820FA4909F034FCED480078099008F0AC
:10463C00DDFC2078002F00D18AE000238EE0059568
:10464C000825E649284609F023FCB81F434243419C
:10465C00E3480078049030784006820FE149E24C40
:10466C0003952846A0478007400E31789F220A40C8
:10467C0010183070F81F43424341CA091020DB491F
:10468C00A047C00134787F21214008183070083FC2
:10469C007B427B4107252C401820D5492246D24F1E
:1046AC00B84728403178F8220A4011183170A042DE
:1046BC0009D00921079A5143C44A5118EA01059BB4
:1046CC008B5489184B70002868D02020C94909F0F8
:1046DC00DFFB06980178294028200A2402290A9B2E
:1046EC0000D1FEE0012900D014E1069009200799C1
:1046FC004843B6490818E901425C4518687800023D
:10470C0080187D218E00092B0BD100B232460B3262
:10471C000021022303F040FB2870010A6970049900
:10472C000591F11D02B28A4200DCF8E06C202027D2
:10473C00B34A39462646059C234609F011F92878D8
:10474C003530C2B278203946234604F04FF916E1D1
:10475C0040B25E2108F02CFC2070099BC2B2602094
:10476C00082106F01BF82078002822D0401EC0B289
:10477C0006F034FB06460820A54909F089FB207891
:10478C00252811D38221002200920191253842B2B2
:10479C0048200821334603F037F90AE02020092687
:1047AC00089D0A9C8B4FEEE048200821324609F008
:1047BC0014FC09200799484384490E189549705CEC
:1047CC000A9A012A08D1751840B2062108F0F0FBAC
:1047DC00287009990A9C01E000211446C3B2042BED
:1047EC0004D800914E2010218C4A05E00091401F06
:1047FC00C3B24E201021884A09F087FA022C14D13A
:10480C00874864210170874D705D771901217956B5
:10481C00090208187D210A028349022303F0BCFA1D
:10482C007055000A7870099B00E000230898007806
:10483C00252810D37B49725C7118012549578225B4
:10484C000093019509028B18253842B27820182163
:10485C0003F0DAF80AE07348315C30180122805614
:10486C00000242187820182109F02AFB6F49705C6D
:10487C000025032C09D1771840B21521C943162203
:10488C0008F01EFC3870099B00E02B4642B26020F9
:10489C00202106F089F8DF208100705C042C06D101
:1048AC00751840B2212108F083FB287000E00995AF
:1048BC00069DC2B260202821099B07F007FF601FEC
:1048CC00434243412878C006820F3020584905F0F6
:1048DC003BFD8007C00E2978E7220A40101828708B
:1048EC006DE005940690092007994843374908184C
:1048FC00E901425C45186878000280181C46092BB7
:10490C001BD140B20F2108F053FB002169702870B5
:10491C00049913E0089D2F4F26461C4633E0B24203
:10492C0018DD0C30C2B26C202021059B07F044FF2F
:10493C00089D284F0698264624E00021089D254F07
:10494C000091C3B25A2020212B4A09F0DEF90698B7
:10495C00059E18E0264678202021059C234609F068
:10496C00AFFA002C0BD00998802805D128786978EB
:10497C000902081807F036FF204800210170089D35
:10498C00144F06980A9C1F49069009F081FAA6421A
:10499C000FD1099880280AD10921284609F012FA6A
:1049AC001648002101700A2C01D103983870049B21
:1049BC0000E000234820144A069908F0D1FF0BB000
:1049CC00F0BDC046B8F80000610E0020EE040020D7
:1049DC007D0300004F0E00207903000049F2000017
:1049EC007C0E002002F5000055A30000ACF800007E
:1049FC00ECF4000020F90000F4EA0000260E002080
:104A0C00EBFB000012FB00008BF90000ABF1000087
:104A1C008FFB00007A030000EDF6000082EA000034
:104A2C00730E00207E0300000083FFFF7B03000059
:044A3C001BF3000068
:104A4000F0B583B0E34E0125357006F0B1FB0024CC
:104A5000E1480157002907D5E04A13783746F02688
:104A60001E40331D3E461370DC4F3A78142A35D869
:104A70005200C0467A449288520097449E009E009D
:104A80009E0087006A000D010D010D010D010D0151
:104A90000D010D010D010D010D010D01140014009A
:104AA00014000D01110107F023FD032009F0A4FA01
:104AB000C02009F022F908F0E7F93878401C387076
:104AC00038780F210140032903D33878F0210140C1
:104AD00039703878202101433970DDE010462038E4
:104AE00003286AD310463038032818D2252007F04F
:104AF0000BFEBB480178BC2900D0CDE0417A0129EA
:104B000000D0C9E00321C943B74A002936D0531861
:104B10004418647A7D25ED005C55491CF5E7242A8C
:104B200017D0342A00D0B7E00024204608F064FFF4
:104B3000800600D5F7E0252007F0E6FDA84E717A43
:104B40003078AA2800D0E7E0FC2900D0E4E001207A
:104B5000E7E0AE4D2878411C2970AD490C5CA748B0
:104B6000007803F003FE3878DF210140397028789F
:104B7000102800D280E0002028707FE03878F021F3
:104B80000140C81C3870A348002110E0A14A1378E6
:104B90005B1C1370DAB2042A0FD33A78F023134067
:104BA0001A1D3A70994A0123137080221143017033
:104BB0003878DF21014039706EE0894CFF20207287
:104BC000E071A0710020A07286490968617003221B
:104BD000D243D21C62710A0E22710A0CE270090AD9
:104BE000A1703E788A49102804D022180B5CD37239
:104BF000401CF8E720461B300A21FF2209F0E9F8A3
:104C00002520002121540F200640751E032D20D29F
:104C1000BC202070032E11D1F920800072490A5C5B
:104C200062710818C17821728178E1714078A071B1
:104C300020460B301021FF2209F0CBF8802020778E
:104C40000120E076E8B20228624E00D302256572A8
:104C500006E0002E5F4E03D101206072BB20207061
:104C60003878DF21014039706B480078C00701D0E7
:104C70000D2401E07320C44307F08AFEE1B2252031
:104C800006F0B2FE08F000F963480178491C017093
:104C90005B480188491C01800020307003B0F0BDE2
:104CA00007F026FC284609F0A7F9C02009F025F8EE
:104CB00038782021029108433870514800880190CB
:104CC000504908F0AFFE4E424E414F49019808F05E
:104CD000A9FE002900D075004848057008F0D4F8F6
:104CE000424D434E2B2C12D0285D002802D0401E8E
:104CF00028550AE001200021224608F030FF3268E2
:104D000082433260706888437060641CEAE73878D8
:104D10000299084338700AE0AA280AD1FD2908D16F
:104D20000220364908703878DF2101403970294E59
:104D3000B2E7AC2801D0AA28F5D1701C2949042576
:104D40002A4608F083FF0290F920800026490918BE
:104D5000701D2A4608F07AFF02990843E3D11D200E
:104D600008F04AFE2149FF220A7121490A681023EE
:104D700013430B603C2800D83C201E4D29691E4A75
:104D80001368591A08181060642108F075FE28612C
:104D90003078AA281BD0AC28C5D134460934A01BD2
:104DA00008381928BFDC2078FF28BCD0A578AC21B2
:104DB000204603F035FC2819C41CF0E730190930EF
:104DC0000178FF29AFD0AA2103F02AFC241D1C2C56
:104DD000F4D1A8E7760E0020280E0020750E0020E2
:104DE000B8FEFF1F8CFFFF1FEE040020990D00206E
:104DF00000F8FF1F08FDFF1F8C0E00205B0E002037
:104E0000DE0400202106000021050000310E0020F4
:0C4E1000D60D00203D0E00202C0E0020CE
:104E1C00F0B58AB01F246102C84842680A43426058
:104E2C000121CA06836813438360C54BDA681020DE
:104E3C0008900243DA60C3488269C34E32408261F3
:104E4C00426832404260426932404261BF4DAA68BA
:104E5C003240AA60BE48826D32408265426F324059
:104E6C0042672A6832402A6016229A60DA680A433E
:104E7C000E27BA43DA60002203921A6247225A6262
:104E8C001C605A6A80240994224340240794A2434C
:104E9C005A621A681206FCD50F2204921204AD4E07
:104EAC00736D934373650B02AB4C23646364A3640F
:104EBC00E364726D3A4372656360A360E360202221
:104ECC00D2437261A54A1361726D0A437265CD4378
:104EDC000195326C2A40326423608A07A04C6769C2
:104EEC001743676127689743276083677269089D3A
:104EFC002A43726132682A433260984DEB60CF07C7
:104F0C0062693A430697626122683A432260C3673A
:104F1C004A037769174377613768174337602B6308
:104F2C00904F7A6D099D2A437A653A6C2A433A640C
:104F3C00844AD361049A9204054660691043606107
:104F4C00206890432060AB64EB642B656B65032099
:104F5C00059002020292286C104328640498000207
:104F6C007A6902437A613A6882433A60774803620D
:104F7C0043628362C362786D019A10407865714D0B
:104F8C002B60786902229043786170484360786D99
:104F9C00089A904378652B61080372690243726129
:104FAC003268824332606D48C3628A050192634D58
:104FBC002868104328604802644A906150616A4A2C
:104FCC0012200490907019205070117067480838A6
:104FDC0005680E4666490D400560B00265490860DB
:104FEC009078079D284390707869089A10437861EF
:104FFC0038681043386055490B61786D04221043B2
:10500C007865386C904338644E4DAB605A480260FA
:10501C007869099A10437861386810433860CB611D
:10502C007869082210437861386890433860CB6007
:10503C006069059908436061206888432060444892
:10504C0003604360EB604949C8684C4A1040069ABB
:10505C008018C860474D2A60F205384CA068104390
:10506C00A0600520089000020090DB30444F3860AF
:10507C000598B8609F2038610720B86148683C4BA0
:10508C001840801848602F46019828603D48039BC3
:10509C000360204630383C4A02607006A268024326
:1050AC00A2603A483A4A82600A68314D2A400A6046
:1050BC00B2043A6049220260304D681CA268024377
:1050CC00A2603448344A8260FF2212020F68974370
:1050DC00F203BA180A607204264F3A600360B006F5
:1050EC00A2680243A2602D4A2D489060D3602D48DF
:1050FC001061482050611948029F0760476008689A
:10510C002840069D40190860F0041A490860136095
:10511C0020680799084320600D4800994166016694
:10512C002148049901700999417020482049416037
:10513C008360089901600AB0F0BDC0463480044019
:10514C0000B0034000C00440FFF8FFFE00B0044074
:10515C0000D0044000F00F4000A004400490044034
:10516C0000F10F4080F00F400160074010E400E0B8
:10517C00FFFF00FF00E100E0C4F00FF8FFFFFF00AD
:10518C0000710340007003400000010100900340D7
:10519C00FF0B0000008003403B2D000000A00340EB
:1051AC00FFFF000060EA00000160064010E000E034
:0451BC007FBB0000B5
:1051C000F0B587B00290BC4808F060FEBB4E347862
:1051D000BB480078002804D1B8480F220299FAF79A
:1051E0006FFF0025B749284608F058FE07F09EFDDE
:1051F00002B266200695294608F0F5FE3678B249D7
:105200000878022803D100200870B0490870B0481F
:105210000278511CC9B28E4203D2721E0AD20022F9
:1052200008E0111DC9B28E4204D9321FD1B20A2939
:1052300000D30A2261B201910270A64D069F059427
:1052400004960392F8B2062830D2B818C4B2361BBE
:1052500073427341401CC2B2F8001030C1B2122038
:10526000069108F0DDFD2D20285C844204D1012048
:105270002A22069908F09EFE0F252046974C2146CB
:105280002A4606F0BDF87042704190490978014005
:10529000103100911820069922462B4608F0D7FBC2
:1052A0007F1C059C049E8B4D039ACBE784480078B5
:1052B000002807D02D27E95D8048007881421CD066
:1052C0007E251BE0029908466438022874D36029C1
:1052D00000D180E0BF2900D186E06E297BD08129F2
:1052E00000D18EE0612900D0C4E078490878012817
:1052F00000D0DBE000200870D8E0592508F044FE1B
:10530000002801D16920C5434F207249085C40073D
:1053100001D43F200540E9B26F480A2203F0CAFADF
:10532000012800D0A6E0354665488678072E7DD84E
:10533000B00001A108588746AF5300005953000040
:1053400059530000415400002D5400004B540000FC
:1053500037540000655400005848017806915D48B4
:10536000C155624801270770029807F071FD07F0E8
:1053700023FB069801F06AFF5D48C17802220A43C8
:10538000C270384607F060F907F016FB06F0CAFB5A
:1053900003F044FE5748807A08F0E2FD07F034FB42
:1053A00047480078022802D0022E00D080E0524800
:1053B00007F02CFC2E465DE02D20285C3F49097843
:1053C000884222D10298642801D0652852D14A48E7
:1053D00007F01CFC4EE04948002707703B4908785D
:1053E00001281BD10F7061E0002035490870374952
:1053F00008702D20285C31490870012002F00AFF56
:1054000038E0012006F098FC34E002202C4D287092
:10541000029807F01DFD002068702BE00120284D48
:105420002870029807F014FD6F7023E001202749CF
:1054300008702E4622E02E4628490D72012015E004
:1054400028482E460570012006E0029807F000FD6E
:1054500024482E46057000201B490870224806F09B
:10546000F9FF07E02E461D490D72002008711C4807
:1054700006F0F0FF15480078012817D10198B042D6
:1054800014D0601CC0B2711CC9B206F0D7FD2D202B
:10549000104A115C8E4201D1145404E0019A8A42F0
:1054A00004D10C490E54012007F0CEF807B0F0BD2E
:1054B000012006F041FC7DE707FA0000490E0020BC
:1054C000110E002067FB0000830E00204A0E002012
:1054D000200E0020760C002021EF00005203002057
:1054E00095690000820E0020699E0000770E002062
:1054F000940E0020EE04002011040000260E00206F
:10550000F0B587B0044640782378834200D08AE122
:10551000222900D987E1C84800788006400F890019
:1055200001A359588F46C046B5550000BD5500002F
:10553000C7550000CF550000F1550000235600006C
:105540005B56000077560000A5560000DD560000AF
:10555000E956000039570000435700004F5700003C
:10556000535700005757000063570000675700006B
:1055700089570000935700009F570000AB57000069
:10558000BB570000BF570000CF570000D3570000A3
:105590000B580000D7570000175800002B58000088
:1055A000DB570000E3570000EB570000F7570000FF
:1055B000FF57000030200090462119E13020009074
:1055C0004621142215E1A22000906421FCE02A204B
:1055D000059000905F25052602200690954F2046F5
:1055E00029463246069BB847212000900A2369E0ED
:1055F000C220009050210A2503268E4F20462A46BD
:105600003346B847422000903C2120462A46334684
:10561000B847202000904621012320462A46B8475B
:1056200001E1212000900646069046210522012333
:10563000804D2046A847009632210F25022620469D
:105640002A4633467B4FB8470698009050212046A3
:105650002A463346774CA047E5E0222000906E2191
:105660000525012620462A46334604F017F8232054
:1056700000907C2184E000270097322105256D4EA3
:1056800020462A462B46B04700975A2120462A46F4
:105690002B46B047022000906E21032204232046AF
:1056A000B047C0E0232005900090502505260A2031
:1056B0000690604F204629463246069BB847212077
:1056C00000901423204629463246B847059800909A
:1056D000204629463246069BB847A4E06220009047
:1056E0000A21142205239BE02220059000903221FC
:1056F0000491042206920A2303934E4D2046A847A4
:10570000212002900090462101910827142620466E
:105710003A463346474DA8470598009020460499DD
:105720003A46039B434FB8470298009020460199A0
:10573000069A3346B84776E02A2000907821052261
:105740000DE02220009078210522322368E02120FC
:1057500002E0222000E023200090002114220A23EE
:105760005EE012202EE0422000903C21142503260A
:1057700020462A46334603F091FFE2200090502154
:1057800020462A4633464CE030200090462128220D
:105790002FE0012847D0102000904B2128E001285D
:1057A00041D010200090412122E0102000900625D9
:1057B0000123204611462A4633E0302002E001282A
:1057C00031D01020009046210A22022328E0102028
:1057D00004E033201AE0312018E0312000907821D5
:1057E00006E0322000907A2102E0332000907C21F4
:1057F0000A22012314E050200090822102E0D020F0
:10580000009032210A2200230AE032200090782101
:105810000F22032304E03120009046211422192393
:10582000204603F03BFF07B0F0BD3020009046213A
:0C5830001E22DEE79D960000B90C00204F
:10583C00F0B58FB08278EE2A0CD1C378BB4A1278BF
:10584C00934207D1BA4C2278002A0D930AD0BA4B56
:10585C001B780AE0B64800210170B64C002020707D
:10586C000FB0F0BDB44DFF232B7006795DB20E96D0
:10587C00AE4201D0FF2BF3D10D9B5D1E0C230A937E
:10588C000B956B43AD4DEB180C930E9B5B1EAA4D09
:10589C002B700523AB4D8B4206D2C75CD6B2AF55ED
:1058AC00521C22705B1CF6E70E98002805D0A1480C
:1058BC000178491C0170A24CD0E79E480021017070
:1058CC00D0B20428CAD307910C9B5989FF200691AA
:1058DC0081430D98091859816A7898792F78D609DF
:1058EC000E9609900028089112D01946DB79BB421C
:1058FC00B4D138467F2717400B890F211940B94284
:10590C00ACD105900698C105C90F8E42A6D106E010
:10591C0005970C230B9843438848C3181B890C9E8E
:10592C0031460A310F200240049083430B929818A1
:10593C00069030810598F071834A089810400E9AB1
:10594C00120210180880AF1C384608F0E0FA034623
:10595C00099A002A08D030887C49081839461F4615
:10596C0008F004FA3A461DE0794800880E90308021
:10597C00D8B20C280A9A00D81A46B01D1E460B9BAA
:10598C000D2B00D132460270D2B270480E9BC0185B
:10599C003946174608F0EAF932460E98C0196C4998
:1059AC0008800C9E0836D01C0B990D2911D00929A2
:1059BC0000D0A9E00A92C0B209902F18384608F01E
:1059CC00A6FA0C990346887800281CD00A99069AE6
:1059DC0079E0F021069B8B43C0B2285C0007000ED7
:1059EC0018183080501DC0B22E18304608F08FFAAF
:1059FC000C9B9A78002A71D0988854490818314623
:105A0C0008F0B4F97CE008970596881C0390504880
:105A1C0000884E4A09260196165488805A1E029018
:105A2C00461C079F38460B930C92089909180E9147
:105A3C00111AC2199A4238DA0E9BDB5D3B2B04D04B
:105A4C00B94202D07F1C0B9BF3E70E92099A821885
:105A5C00B94200D17F1CB0B23C490818A918092FD3
:105A6C0000DB019F3A4608F081F9F619384A168096
:105A7C000B9B092F08DAB0B22021344A1154761C42
:105A8C00334806807F1CF4E704980002069A110A3A
:105A9C008243481C0007000D82180692059802806C
:105AAC000E98401C079F0C9ABFE7B0B20021274A02
:105ABC001154701C264908800299401A03990870E9
